:100000000C9483080C94CA080C94CA080C94CA086F
:100010000C94CA080C94CA080C94CA080C94CA0818
:100020000C94CA080C94CA080C94D1300C940D306E
:100030000C9471270C94CA080C94CA080C94CA0832
:100040000C94CA080C94CA080C94CA080C94CA08E8
:100050000C947E240C9424270C94CA080C94CA088F
:100060000C94CA080C94CA080C94CA080C94CA08C8
:100070000C94CA080C94CA080C94CA080C94CA08B8
:100080000C94CA080C94CA080C94CA080C94CA08A8
:100090000C94CA080C94CA080C94CA080C94CA0898
:1000A0000C94CA080C94CA080C94CA08D70FDA0F2B
:1000B000F40F0110081028102B108810BC105B11D1
:1000C0005B11CB10CD10D210F61017111A111D11A3
:1000D0003E114D164D1687168716E016FC1697181A
:1000E00097180717E517F617F617D018D218D6186D
:1000F000D918DC18EA1814190B290B291E291E29F6
:1001000014291E291E291E290B290B2919291E29EC
:100110001E291929212E482EEF2F482EEF2F942E1D
:10012000B72EEF2FAC2FBC2F00DA1281FFD9F1DBF5
:1001300020A4A62EAF00A0C000A1C800AED580A804
:100140003FD300408D1420001E0F0500047F3F1F89
:10015000643214643214783C1E1E140A0500000038
:10016000000000000000000000000000000000008F
:10017000000000000000000000000000000000007F
:10018000000000000000000000000000000000006F
:10019000000000000000000000000000000000005F
:1001A000000000000000000000000000000000004F
:1001B000000000000000000000000000000000003F
:1001C000000000000000000000000000000000002F
:1001D000000000000000000000000000000000001F
:1001E000000000000000000000000000000000000F
:1001F00000000000000000000000000000000000FF
:1002000000000000000000000000000000000000EE
:1002100000000000000000000000000000000000DE
:1002200000000000000000000000000000000000CE
:10023000000000000080408000000000000000007E
:10024000000000000000000000000000000000802E
:1002500040800000000000000000000000000000DE
:10026000000000000000000000000000000000008E
:10027000000000000000000000000000000000007E
:10028000000000000000000000000000000000006E
:10029000000000000000000000000000000000005E
:1002A00000000000000000000000000000800000CE
:1002B0000000000001020402010101010101FF0030
:1002C0000000000000000000FF0101010101010227
:1002D0000402010000000000008000000000000097
:1002E000000000000000000000000000000000000E
:1002F00000000000000000000000000000000000FE
:1003000000000000000000000000000000000000ED
:1003100000000000000000000000000000000000DD
:1003200000000000000000000000000205F80502C7
:1003300000000000000080C0C0E0E07078383F1C82
:100340000E0E0EFE0E0E1E1C3F387870E0E0C080D0
:10035000000000000000000205F805020000000097
:10036000000000000000000000000000000000008D
:10037000000000000000000000000000000000007D
:10038000000000000000000000000000000000006D
:10039000000000000000000000000000000000005D
:1003A000000000000000000000000040A013A24276
:1003B000424242424242FFFFFF000000FCFEFEC0FC
:1003C000C0C0C0FF0000003E3E3C3C000001FFFFFB
:1003D000FF42424242424242A213A04000000000BB
:1003E000804040408000000000000000000000004D
:1003F00080C04040C0800000C04040C0800000007D
:1004000000000000000000000000C040C00000002C
:10041000000080C04040C080000080C04040C080DC
:1004200000004040404040C00000000000F90808C3
:100430000808080808087FFFFFC080800F1F1F0101
:10044000010101FF0000001E1E0E0E80C0C0FFFF54
:100450007F0808080808080808F900000000001FC5
:1004600031404E40311F0000611608166100001F28
:1004700031604040602000007F4444643B00000045
:100480000000000000000000000040407F404000ED
:100490000000206444446E3B0000206444446E3BF2
:1004A00000000000007E030100000008142314086F
:1004B000000000000000000001010307070FFE1EFE
:1004C0001C1C1CFF1C1C1C1EFE0F0703030101004B
:1004D00000000000000000040A110A0400000000EF
:1004E000000000000000000000000000000000000C
:1004F00000000000000000000000000000000000FC
:1005000000000000000000000000000000000000EB
:1005100000000000000000000000000000000000DB
:1005200000000000000000000000000000000000CB
:1005300000000000102844281010101010101F0098
:1005400000102847281000001F101010101010284D
:1005500044281000000000000000000000202020BF
:1005600020005343522000202020200043415020EF
:100570000020202020004E554D2000556E646566F9
:10058000696E6564004261636B6C696768740052F0
:100590004742004D49534300484F4D45004C617957
:1005A00065723A20000A000A20202020204D4F4486
:1005B000204855452053415420564152002C002CD0
:1005C000002C00436F6E663A0080818283848586AA
:1005D00087CBCBCBCBCBCBCBCBC0C1C2C3C4A0A131
:1005E000A2A3A4A5A6A7CBCBCBCBCBCBCBCBE0E117
:1005F000E2E3E488898A8B8A8B8C8DCBCBCBCBCB07
:10060000CBCBCBCCCDCECFD0A8A9AAABAAABACAD2F
:10061000CBCBCBCBCBCBCBCBECEDEEEFF00000AE2E
:1006200000000000000000000000000000000000CA
:1006300000000000000000000000000000000000BA
:10064000000000007E0F00D4FFFFFFC7000000780D
:1006500000000000000000002A2B2800000000001D
:100660000000000000000000000000290000000061
:100670002C1E3420212224342627252E362D3738CF
:10068000271E1F202122232425263333362E3738D8
:100690001F0405060708090A0B0C0D0E0F10111296
:1006A000131415161718191A1B1C1D2F3130232D62
:1006B000350405060708090A0B0C0D0E0F10111260
:1006C000131415161718191A1B1C1D2F3130354C11
:1006D0000001010101010101010102020202020205
:1006E00002020203030303030303030404040404D8
:1006F000040405050505050606060606070707079F
:100700000708080808090909090A0A0A0B0B0B0C53
:100710000C0C0D0D0D0E0E0E0F0F0F1010111111F0
:100720001212131314141515161617171818191971
:100730001A1A1B1B1C1D1D1E1E1F202021222223D6
:100740002424252626272829292A2B2C2D2D2E2F17
:1007500030313232333435363738393A3B3C3D3E2E
:100760003F404142434445464748494A4C4D4E4F1D
:1007700050515354555658595A5B5D5E5F616264DF
:10078000656668696B6C6D6F7072737577787A7B6C
:100790007D7E8082838587888A8C8E8F91939596C3
:1007A000989A9C9EA0A2A3A5A7A9ABADAFB1B3B5E3
:1007B000B7BABCBEC0C2C4C6C9CBCDCFD1D4D6D8BF
:1007C000DBDDDFE2E4E7E9EBEEF0F3F5F8FAFDFF5D
:1007D000FFAA7F55402223252628292A2C2D2F3099
:1007E00032333536383A3B3D3E4042434547494A2D
:1007F0004C4E5051535557595A5C5E60626466685E
:10080000696B6D6F71737577797B7D7F8183858768
:10081000898A8C8E90929496989A9C9E9FA1A3A56B
:10082000A7A8AAACAEAFB1B3B4B6B8B9BBBCBEBF93
:10083000C1C2C3C5C6C7C9CACBCCCDCED0D1D2D216
:10084000D3D4D5D6D7D7D8D9D9DADADBDBDBDCDC21
:10085000DCDCDCDDDDDDDDDCDCDCDCDCDBDBDBDAD9
:10086000DAD9D9D8D7D7D6D5D4D3D2D2D1D0CECD44
:10087000CCCBCAC9C7C6C5C3C2C1BFBEBCBBB9B851
:10088000B6B4B3B1AFAEACAAA8A7A5A3A19F9E9CD6
:100890009A98969492908E8C8A89878583817F7DA1
:1008A0007B79777573716F6D6B6968666462605E82
:1008B0005C5A5957555351504E4C4A49474543424B
:1008C000403E3D3B3A3836353332302F2D2C2A29E5
:1008D0002826252322000000000000000000000060
:1008E00001010203040506080A0C0F1114181C204C
:1008F00024292E33393F464C535B626A7179818AD1
:10090000929AA2AAB2B9C1C8CFD5DCE1E7EBF0F464
:10091000F7FAFCFDFEFFFEFDFCFAF7F4F0EBE7E171
:10092000DCD5CFC8C1B9B2AAA29A928A8179716A7C
:10093000625B534C463F39332E2924201C18141176
:100940000F0C0A0806050403020101000000000064
:100950000000000000AC00AB00AE004B004E0013E6
:10096000504A004D0011500100010001000100013A
:10097000001050010001001250C55CC65CC35CC78A
:100980005CC85C1150CB5CCC5C1350C05CC15CBFDC
:100990005CBB5CBC5C1250BE5CBD5C105000AF0523
:1009A000010902A10185020901A100050919012916
:1009B0000815002501950875018102050109300916
:1009C000311581257F950275088106093815812525
:1009D0007F950175088106050C0A38021581257F6F
:1009E000950175088106C0C005010980A101850334
:1009F00019012AB700150126B7009501751081006D
:100A0000C0050C0901A101850419012AA0021501E4
:100A100026A002950175108100C00660FF0961A142
:100A2000010962150026FF009520750881020963FF
:100A3000150026FF00952075089102C005010906E2
:100A4000A101050719E029E71500250195087501A1
:100A500081029501750881010507190029FF15001C
:100A600026FF0095067508810005081901290595DE
:100A70000575019102950175039101C009025B00A2
:100A8000030100A0FA09040000010301010009218B
:100A9000110100012240000705810308000A090432
:100AA00001000203000000092111010001222200BF
:100AB0000705820320000107050303200001090444
:100AC00002000103000000092111010001227B0046
:100AD0000705840320000A1201100100000008002D
:100AE000CB37130100010200010A03310033003348
:100AF00000370000000A0330007800430042000085
:100B000000040309040000000000003E5B4F5B3E50
:100B1000003E6B4F6B3E001C3E7C3E1C00183C7E32
:100B20003C18001C577D571C001C5E7F5E1C00009B
:100B3000183C180000FFE7C3E7FF00001824180066
:100B400000FFE7DBE7FF0030483A060E0026297970
:100B5000292600407F05050700407F05253F005AF4
:100B60003CE73C5A007F3E1C1C0800081C1C3E7FD2
:100B70000014227F2214005F5F005F5F0006097F80
:100B8000017F00006689956A006060606060009483
:100B9000A2FFA2940008047E04080010207E20100A
:100BA0000008082A1C0800081C2A0808001E10104B
:100BB0001010000C1E0C1E0C0030383E38300006A1
:100BC0000E3E0E060000000000000000005F000066
:100BD00000000700070000147F147F1400242A7F00
:100BE0002A12002313086462003649562050000080
:100BF0000807030000001C224100000041221C00E5
:100C0000002A1C7F1C2A0008083E0808000080708B
:100C1000300000080808080800000060600000209C
:100C200010080402003E5149453E0000427F40004A
:100C3000007249494946002141494D3300181412B8
:100C40007F10002745454539003C4A49493100415C
:100C50002111090700364949493600464949291EEC
:100C600000000014000000004034000000000814E0
:100C7000224100141414141400004122140800022C
:100C800001590906003E415D594E007C1211127C4B
:100C9000007F49494936003E41414122007F4141A0
:100CA000413E007F49494941007F09090901003E51
:100CB00041415173007F0808087F0000417F4100D7
:100CC000002040413F01007F08142241007F404046
:100CD0004040007F021C027F007F0408107F003E1E
:100CE0004141413E007F09090906003E4151215E14
:100CF000007F091929460026494949320003017F2E
:100D00000103003F4040403F001F2040201F003FA4
:100D10004038403F00631408146300030478040360
:100D2000006159494D4300007F41414100020408E0
:100D3000102000004141417F0004020102040040F4
:100D40004040404000000307080000205454784011
:100D5000007F284444380038444444280038444440
:100D6000287F0038545454180000087E09020018E7
:100D700024241C78007F080404780000447D40008F
:100D8000002040403D00007F102844000000417FCB
:100D90004000007C04780478007C08040478003863
:100DA0004444443800FC182424180018242418FC57
:100DB000007C080404080048545454240004043FF0
:100DC0004424003C4040207C001C2040201C003C6F
:100DD0004030403C004428102844004C1010107C47
:100DE000004464544C440000083641000000007781
:100DF0000000000041360800000201020402003C2D
:100E00002623263C0000E0FC1E06C6C6061EFCE0AB
:100E100000000060E080000080E06000000000E072
:100E2000F83C0E0606060E0C000000FEFE868686C6
:100E3000868C787000000E0E0606FEFE0000000094
:100E400000000C8E8686868686CEFE7C0000060616
:100E500006060606E6E63E3E00010101010101012B
:100E60000106788000000000000000E01C02010480
:100E700018000000020C00808071021CE0000000DD
:100E8000000000008078060101010101010101F06C
:100E9000F8F8F8F8F80000FCFCFCFCFCFEFEFEFF95
:100EA000FFFFFFFFFFFF00E0E0E0E0F0F0000040A8
:100EB000F0FCFFFFFCF0C00000FFFFFFFFFF0000A1
:100EC000000000000000073F7860636360783F0720
:100ED000000000607919060619796000000000071B
:100EE0001F3C7060606070300000007F7F61616156
:100EF00061311E0E0000606060607F7F6060606036
:100F0000000030716161616161737F3E000000002B
:100F100000007F7F010100000000000000000000D1
:100F200000000003BC80808080808087384080087B
:100F30000808040402020100008040388780808095
:100F4000808080BC03000000007F7F7F7F7F7F7FE9
:100F50007F7F7F7F7F00007F7F7F7F7F7F7F7F7F9F
:100F60007F7F7F7F7F7F0000000000C0F0FCFEFCE1
:100F7000F8F9F3F7FFFFFFFFFCF0C00000000000EE
:100F8000000000000070D07000070507020282C256
:100F9000427EC0C0C0407E42C282020207050700F6
:100FA00070D07000000080402010C8C88404020285
:100FB0000202C2C2C2C2C4C4C888902040800000DD
:100FC0000000000000000000000000000001FD051E
:100FD0000404041F3040879F1F0181FFFF00001E93
:100FE0009E8640301F04040405FD01000F70800040
:100FF00000000080E0F83E0F0300FFFF0101010147
:10100000010000000080700F00FEFEFEFEFEFEFEEE
:10101000FEFEFEFEFE0000FEFEFEFEFEFEFEFEFEEC
:10102000FEFEFEFEFEFE00C0F0FCFFFFFFFFFFFF26
:10103000070303030307FFFFFFDF9F3F3C704000F0
:101040000000000000C05FD0909090FC0601F8FC0A
:10105000FCC0C0FFFF00003C3C300106FC909090BB
:10106000D05FC000F00E01000000000103071E3C2D
:10107000F0E0FFFF80808080C1C1FF3E00010EF0E4
:10108000000000000000000000000000000705074D
:1010900000705070202020213F01619F9F61013F1F
:1010A0002120202070507000070507000000010279
:1010B0000408101323204040404043434040202078
:1010C000101008040201000000070707070F0F0FA8
:1010D0001F1F1F1F1F00003F3F3F3F3F7F7F7FFFBE
:1010E000FF0080C0707C3F3F1F0F0F0707070303FF
:1010F00002000000000203030707070F0F1E3E3C1B
:101100007C70C080000011241FBECFEFDAE0DEBF8C
:10111000CDBF04B603FE27C08091E4069091E5069A
:10112000A091E606B091E7068730904BA740B04B00
:10113000D1F41092E4061092E5061092E6061092A1
:10114000E70614BE84B7877F84BF0FB6F894A895CE
:1011500080916000886180936000109260000FBEF3
:10116000E0E0F8E3099511E0A0E0B1E0E6E6FCE696
:1011700002C005900D92A83BB107D9F726E0A8EB75
:10118000B1E001C01D92A43EB207E1F70E94CC0875
:101190000C9431360C940000CF93DF93CDB7DEB7BB
:1011A000E0970FB6F894DEBF0FBECDBF84B7877F40
:1011B00084BF0FB6F894A8958091600088618093F1
:1011C0006000109260000FBE90E080E80FB6F894C7
:1011D00080936100909361000FBE85B7806885BFE2
:1011E00085B7806885BF89E796E29093B9018093BF
:1011F000B8010E9451300E9470308091E2008460FA
:101200008093E20078948091CB028823A1F0109122
:10121000E9001F709091EC00892F817090FD80E8AB
:10122000182B1092E9008091E80083FD0E943B2D6D
:101230001F701093E90082E084BD93E095BD9AEFA2
:1012400097BD80936E0044E251E0A1E0B0E020E061
:1012500030E0FA01E20FF31F80818F3FA1F0E82F09
:10126000E295EF70F0E061A18F708D0102C0000F78
:10127000111F8A95E2F7C801902F9095962391A3AC
:1012800092A1892B82A32F5F3F4F2330310509F7AD
:101290004D5F5F4F11E04D325107C9F61092BF010B
:1012A000109235021092C001109236021092C101C4
:1012B0001092370280E090E00E941A358A3E9E4FDD
:1012C00011F00E94D22782E090E00E940C358093BA
:1012D00029020E94C1279093BB018093BA010E940A
:1012E000701F8FE39CE90197F1F700C000000E9496
:1012F000701F8091350280FF17C06FEF83E290E08E
:101300000E9420356FEF84E290E00E9420356FEF5D
:1013100085E290E00E9420356FEF7FEF80E090E063
:101320000E943E350E94002783E090E00E940C3529
:10133000682F70E080E090E00E94E629259A2D98C1
:1013400082E88093800089E1809381008FEF9FEF96
:1013500090938700809386000E94BB2580912D0288
:1013600081FF0BC01092BE011092BD011092BC0112
:1013700080916F00816080936F0083E290E00E9413
:101380000C35813281F484E290E00E940C35873084
:1013900051F485E290E00E940C3591E0883209F02A
:1013A00090E0892F01C080E080FD02C00C94A21162
:1013B0000E9465279093D2018093D101109214026C
:1013C00080E88093D9020E94C2336DE070E08BE325
:1013D00091E00E94122D892B89F58091140263E01F
:1013E00070E081FD28C088E391E00E94122D892BD6
:1013F00029F56DE070E088E291E00E94122D892BC2
:10140000E9F40E945927DC01CB01805A9541AF4F86
:10141000BF4F8093160290931702A0931802B093C7
:1014200019020E94F22381E080931B0280931A022A
:101430001092150203C085E391E0D7CF0E94BB252F
:101440008091C201811136C080E090E00E941A357F
:101450008A3E9E4F21F00E94D2270E94181A88E0EF
:1014600090E00E94143560933002709331028093B3
:101470003202909333026E7F71F40E94181A88E052
:1014800090E00E9414356093300270933102809393
:101490003202909333020E94D11910922F02809150
:1014A000300280FF04C060E086950E94F81E81E053
:1014B0008093C20185988D9A86988E9A8FB185FB0C
:1014C000882780F97E9B02C092E001C090E0892BC2
:1014D0008093CE018BE091E09093D0018093CF0177
:1014E000A0E4CA2E44244394512CFE0131967F017E
:1014F0008091CB02853009F07CC0DD24D39400E1DB
:1015000012E18091CB02853009F05CC08091CB0262
:10151000843009F442C080E00E94E32410922F023C
:101520008091C501811116C0D092C5018091300211
:10153000982F91709093C4018E7F80933002FFEFBB
:1015400020E732E0F15020403040E1F700C00000D9
:101550000E9482191092C30168E170E00FB6F894FE
:10156000A895609360000FBEC092600083B7817F32
:10157000846083BF83B7816083BF7894889583B785
:101580008E7F83BF0FB6F894A89580916000886124
:1015900080936000109260000FBE8091CA02882381
:1015A00009F4AFCF0E94701F809135028111ABC644
:1015B000809136028111A7C680913702882309F4F1
:1015C000A0CFA1C60E94152C0E94BB250E9490238B
:1015D0001092C5018091C401882349F080913002A6
:1015E00081608093300260E086950E94F81E0E9420
:1015F000E21E0E94701FB82E81110E945927E5E358
:10160000F2E0AAE2B2E000E010E0302F21919D91DB
:10161000922721F180E0DD24D394492F4D21D1F090
:1016200089A33AA32D2181E009F480E08BA30E94D5
:1016300065278160782F9DA38CA349A15AA16BA136
:101640008DA10E94C622F801E65DFD4F8081D8265B
:10165000D08219C08F5FDD0C8330F9F60F5F1F4F0A
:101660000330110591F68FEF8EA38FA318A60E9469
:1016700065278160782F9AA789A74EA15FA168A5E9
:101680008AA50E94C62280912F02882309F4A5C052
:1016900080912E02E0913002E695E81BE093C801AC
:1016A000823059F4F0E0E75AFE4FE4910E2F10E03B
:1016B000F2EB8F2EF2E29F2E6BC0863059F4F0E0F1
:1016C000EA5AFE4FE4910E2F10E0E2EA8E2EE2E29B
:1016D0009E2E5EC0893061F4E695F0E0ED5AFE4F33
:1016E000E4910E2F10E078E3872E72E2972E50C01F
:1016F0008F3061F4E695F0E0E05BFE4FE4910E2F51
:1017000010E064ED862E61E2962E42C0853159F4D8
:10171000F0E0E35BFE4FE4910E2F10E056E8852EDB
:1017200051E2952E35C08831F9F0833249F4EBE46B
:10173000F1E00591149142E6842E42E2942E28C0F5
:101740008432C9F08532F1F48E2F63E00E94C735F0
:10175000E92FF0E0E85BFE4FE4910E2F10E031E25C
:10176000832E30E2932E14C008E210E02CEF822E7C
:1017700020E2922E0DC004EF11E092EC892E90E24F
:10178000992E06C000ED17E080E2882E80E2982EA8
:101790008091C901882361F01092C9010E946527D8
:1017A0009093C7018093C6011092CB011092CA0199
:1017B0000E946527E091C601F091C7018E1B9F0B27
:1017C0008F3F9F4750F40E0F1F1F1093C7010093C8
:1017D000C60186EC91E0F40109958091CE01E82FD5
:1017E000EE0FEE0FE093CE018FB185FB222420F89F
:1017F000312C7E9B03C082E090E002C080E090E04C
:10180000822993298E2B8093CE018F70E82FF0E0F0
:10181000E35DFE4F90818091CD01890F8093CD01D2
:10182000843064F08091CC018F5F8093CC0161E0C3
:1018300080E00E94A51EDD24D39401C0D12C8091AC
:10184000CD018D3F5CF48091CC0181508093CC011F
:1018500060E080E00E94A51EDD24D3948091CD013C
:10186000082E000C990B64E070E00E94E73580932D
:10187000CD01D1100E94592780911B02882309F4C1
:101880005FC28CED92E09093E3068093E206809134
:10189000D30181114FC08091D1019091D2010E945A
:1018A0004A27883E934008F040C08091E20690911C
:1018B000E3068C5D92409C013C5F2130344028F06F
:1018C00020E034E0281B390B02C020E034E06091B6
:1018D000DA027091DB02DC01A452BD4FAC01280F8B
:1018E000391F42175307E0F4FA01E81BF90BE35ADA
:1018F000FE4FE491FC91EF1779F0EC93FA0116E0BA
:10190000F695E7951A95E1F7820102C0000F111FC5
:10191000EA95E2F7602B712B4F5F5F4F1196E1CF95
:101920007093DB026093DA02F9C00E94F22381E037
:101930008093D3018DE995E00E94C92C6091D50276
:101940007091D6028091D7029091D8020E94551EC4
:10195000813059F038F0823059F0833061F485E8F5
:1019600095E00BC088E995E008C083E995E005C0E3
:101970008FE895E002C08BE795E00E94D72CE091BC
:10198000CF01F091D001309729F00190F081E02D46
:10199000099501C080E081FB002700F982FB112737
:1019A00010F980FF03C086E795E002C081E795E06B
:1019B0000E94C92C002319F08CE695E002C087E64E
:1019C00095E00E94C92C112319F082E695E002C02F
:1019D0008DE595E00E94D72C8091300280FF96C063
:1019E0006091D5027091D6028091D7029091D80271
:1019F0000E94551E823009F089C00E94C919282F03
:101A000030E01C820AE010E0C901B8010E94D33521
:101A1000FB01805D8B83CB01B8010E94D335009719
:101A200011F0805D06C02436310510F480E201C05B
:101A300080E38A833A9738F0C90164E670E00E9437
:101A4000D335605D01C060E2698383EC95E00E945C
:101A5000C92CC7010E94DC2C8091310286958695A5
:101A6000869590E01C826AE070E00E94D335805D2C
:101A70008B836115710511F0605D01C060E26A83BE
:101A800080E2898381EC95E00E94C92CC7010E9405
:101A9000DC2C8091320286958695869590E01C829A
:101AA0006AE070E00E94D335805D8B83611571051B
:101AB00011F0605D01C060E26A8380E289838FEB90
:101AC00095E00E94C92CC7010E94DC2C8091330252
:101AD00086958695869590E01C826AE070E00E946B
:101AE000D335805D8B836115710511F0605D01C098
:101AF00060E26A8380E289838DEB95E00E94C92CC5
:101B0000C7010E94DC2C87EA95E002C085EA95E0D7
:101B10000E94D72C89EC95E00E94C92C80911B0271
:101B2000882309F4E6C02091DA023091DB02211506
:101B3000310509F4DEC0809115028111DAC0082F49
:101B400010E04201082E02C0880C991C0A94E2F7AA
:101B5000A90148215921452B11F48F5FF0CF9091B5
:101B60001402980166E0220F331F6A95E1F790FD99
:101B700013C08295880F880F807480930601220F0E
:101B8000232F221F330B319520930901815C809311
:101B9000070110920A0112C046E0369527954A9532
:101BA000E1F7220F220F220F209306011092090164
:101BB000295F2093070187E080930A0124E630E043
:101BC00047E050E064E071E088E70E944F34892BE1
:101BD00009F08FC08091140280FD22C0A80126E088
:101BE000440F551F2A95E1F744525D4F04E610E07B
:101BF00020E430E060E488E70E947634892B09F025
:101C000078C00E949C23809490948091DA029091F5
:101C1000DB02882299229092DB028092DA0269C06C
:101C2000E4EDF1E0DF012C2D1D922A95E9F7B801D2
:101C300096E0660F771F9A95E1F77CA76BA785E47E
:101C400091E098AB8FA74DE351E0AFA5B8A98D9176
:101C5000B8ABAFA7FA019191AF012BA53CA5290F15
:101C6000311D890104521D4F1EA70DA790E08C5213
:101C70009E4FFC0107E09F01281B390B742C01C00B
:101C8000770C2A95EAF76DA57EA5A12CDB011D91A5
:101C9000BD011721202F2A192770622E022E000C59
:101CA000330BB12F01C0BB0F6A94EAF76B2E31954D
:101CB000219531092770332701C016952A95EAF737
:101CC000612A1081612A6082A39418E0A112DECFFC
:101CD000015031960F3F79F62FA538A92D54314088
:101CE00009F0B3CF04E610E020E430E044ED51E029
:101CF00081CF80911A02882319F10E9459270091FF
:101D00001602109117022091180230911902DC017D
:101D1000CB01801B910BA20BB30B8F3F9F4FAF4F9B
:101D2000BF4770F480911B02882351F062E070E09D
:101D30008EE196E00E94122D892B11F410921A0266
:101D4000B11001C0D1100E949C2386E0E2E2F2E0D3
:101D5000D70101900D928A95E1F710912402B0907D
:101D6000250200912602D0902702109224021092A0
:101D700025021092260210922702111103C0BB20E7
:101D800009F451C080912002909121020E944A27BB
:101D90009C0190911F02992309F4EEC2233331056F
:101DA00008F441C09F3F19F09F5F90931F021123D9
:101DB00061F00E944B1C111614F491E001C09FEFDA
:101DC000899F802D112480932402BB2061F00E9402
:101DD0004B1C1B1414F491E001C09FEF899F802DD0
:101DE000112480932502309124023323E1F02091C5
:101DF00025022223C1F045EB3403C00111249923AD
:101E000019F09093240203C081E08093240265EBD3
:101E10002603C0011124992319F09093250203C0D1
:101E200081E080932502011103C0DD2009F451C037
:101E300080911D0290911E020E944A279C01909160
:101E40001C02992309F49DC22536310508F441C0CE
:101E50009F3F19F09F5F90931C02002361F00E9446
:101E6000291C101614F491E001C09FEF899F802D6A
:101E7000112480932602DD2061F00E94291C1D148C
:101E800014F491E001C09FEF899F802D112480936D
:101E90002702309126023323E1F0209127022223EA
:101EA000C1F075EB3703C0011124992319F0909309
:101EB000260203C081E08093260235EB2303C00194
:101EC0001124992319F09093270203C081E0809395
:101ED00027028091240281110BC08091250281117B
:101EE00007C080912602811103C0809127028111D1
:101EF0000E94461F1B83BC820D83DE8286E0F701B1
:101F0000A2E2B2E001900D928A95E1F70E9490233F
:101F100090912802891721F00E9490238093280233
:101F20008091CB02843009F0E3CA83E08093E9001A
:101F30008091E80082FFDCCA8091E80085FF21C023
:101F40000E94A63181111BC080E2A82EB12C87010E
:101F500009C08091F100D8018D938D01B1E0AB1AD9
:101F6000B10869F08091E80085FDF3CF8091E80029
:101F70008B778093E8000E94A631882399F391E043
:101F800001C090E08091E8008B778093E80099236E
:101F900009F4AECAE9818E2F90E0FC013197E3315C
:101FA000F10508F088C1EA5AFF4F0C94FB351A82FC
:101FB00089E0F6C08A81823009F4BBC1833051F0D8
:101FC000813009F078C10E9459279B838C837D83DF
:101FD0006E8373C1809135028B83809136028C832E
:101FE000809137028D8369C18A81823009F063C193
:101FF0006B817C818D819E810E94013686E290E01A
:1020000024C04C816B818A810E944B249D8398C19E
:102010000D811E811027012710278C81AB809A81AA
:10202000E6E0AE9E50011124F2E19F9FA00CB11C8E
:102030001124A80EB11CA80EB11C612FC5018796F2
:102040000E942035602FC50188960E94203535C139
:102050000E94172432C18A81893019F08A3071F0C8
:1020600015C08B8107E0809FC00111246FEF70E0E5
:102070000E94D335862F0E943F2508C08B81811195
:1020800003C00E94142502C00E942A258A8181383B
:10209000B1F050F4803809F010C120E04B8160911C
:1020A00032028091310231C0823859F1833809F00F
:1020B00004C120E0409133026C818B8126C060E036
:1020C0008B810E94F81E9B8180913002911111C07A
:1020D0008E7F8093300210922F021FEF20E732E0B4
:1020E000115020403040E1F700C000000E948219EA
:1020F000E4C081608093300260E086950E94F81E03
:10210000DCC08B8180933402D8C00E94DA1AD5C01B
:102110008A81893039F08A30A1F480912D02869528
:1021200081703EC080912D028695869586954FEFF1
:10213000849FC001112467E070E00E94D3356B8357
:10214000BCC0813899F030F4803809F0B6C0809175
:10215000330226C0823869F0833809F0AEC080911E
:1021600031028B83809132028C83A7C00E94C919EF
:1021700017C08091340214C080912D020E940F2557
:10218000609130027091310280913202909133025D
:102190000E94E41992C080E14EC083E08A8381E905
:1021A0008B838BC00A811B81102701271027AC80ED
:1021B000B12C4701C80181599F4F94012E193F0945
:1021C0002A153B0508F079C0013963E0160730F4A1
:1021D0000E940C35D40114968C9302C0F401148231
:1021E0000F5F1F4FFFEF8F1A9F0AE4CF0A811B81F9
:1021F000102701271027AC80B12C4701C801815955
:102200009F4F94012E193F092A153B0508F055C030
:10221000013923E0120728F4D40114966C910E942E
:1022200020350F5F1F4FBFEF8B1A9B0AE7CF0E942D
:10223000072443C084E08A8340C00A811B811027A1
:1022400001271027AC80B12C4701C8018796940163
:102250002E193F092A153B0580F50834110528F48D
:102260000E940C35F401848303C0D40114961C929F
:102270000F5F1F4FBFEF8B1A9B0AE7CF0A811B81AD
:10228000102701271027AC80B12C4701C801879681
:1022900094012E193F092A153B0578F408341105DD
:1022A00020F4F40164810E9420350F5F1F4FFFEF7F
:1022B0008F1A9F0AEBCF8FEF89838091CB028430F6
:1022C00009F016C91091E9001F709091EC00892F58
:1022D000817090FD80E8182B82E08093E900809166
:1022E000E80080FF0CC040E050E060E270E0C70111
:1022F0000E94D9318091E8008E778093E8001F70AA
:102300001093E900F5C809BD19BD09B400FEFDCF61
:102310008091D8008F7D8093D8008091E00082600A
:102320008093E0008091E00081FDFCCF0E94152C9D
:10233000E8C886E290E00E940C351B821C821D8258
:102340008E83BBCF60E086E290E00E9420350E9441
:1023500017240E94072461E283E290E00E94203566
:1023600067E084E290E00E94203568E285E290E038
:102370000E9420350C94D8092D32314008F014CD3C
:1023800052CD2D32314008F065CDA3CD3F924F9212
:102390005F926F927F928F929F92AF92BF92CF92F5
:1023A000DF92EF92FF920F931F93CF93DF93CDB7FE
:1023B000DEB729970FB6F894DEBF0FBECDBFFC0184
:1023C0008081918123813481232B31F09F3F31F42F
:1023D00091E08F3F19F403C091E001C090E090FDBF
:1023E00036C77F0185E0DE01119601900D928A9536
:1023F000E1F7F701228189819A81222349F00E9425
:10240000AC28182F682F89819A810E944E2903C019
:102410000E942229182F69817A81812F0E947124BC
:102420008C01F7018281882309F4F1C098012251BF
:102430003F452031310508F018C18FEF93E00E942D
:102440000C358111EEC002513FE6832E912C002302
:1024500079F08114F4E09F0609F4E3C0C4010E94FE
:102460000C35811101C001501FEF811A910AEFCF85
:102470001E821F8218861986442443942AE0322E35
:1024800084010F5F1F4FC4010E940C358E831F8291
:10249000882309F4C6C09FEF980F933060F48F83B0
:1024A0004E8222E0820E911CC8010E940C35888762
:1024B000811102C0B6C048018E010A5F1F4FF801AA
:1024C00020812223E9F2213009F04CC08181813042
:1024D00049F46801F2E0CF0ED11CF80182810E941C
:1024E000352C0AC0823051F46801F2E0CF0ED11CC5
:1024F000F80182810E946C32860186C0833049F4E3
:102500006801F2E0CF0ED11CF80182810E940532F1
:10251000F3CF843019F00F5F1F4F76C0F80122818E
:102520000E5F1F4F80E090E030E0205331092A30E9
:10253000310568F4389EA001399E500D1124C9015F
:10254000840F951F0F5F1F4FF8012081EDCF00977B
:1025500009F45AC0EFE9FFE03197F1F700C000003D
:102560000197F5CFE22FF0E0E05BF94F5490822F16
:1025700086958695869590E0FC01E05CF94F649025
:102580002770712C022E02C0759467940A94E2F7AA
:10259000F1E06F227724FC01E05DF94FA490B12CAB
:1025A000022E02C0B594A7940A94E2F731E0A32268
:1025B000BB24FC01E05EF94FC490D12C02C0D5943D
:1025C000C7942A95E2F781E0C822DD2461147104E2
:1025D00019F081EE0E946C32A114B10419F086EE5C
:1025E0000E946C32852D0E94352CAB2819F086EEA6
:1025F0000E940532672819F081EE0E940532CD282D
:1026000019F08CE20E94352C0F5F1F4F58CF00311C
:102610003FE5130709F012C681E00E9483290E945A
:10262000F42C8091B102877009F411C6F701828100
:10263000882309F40CC682E029960FB6F894DEBF11
:102640000FBECDBFDF91CF911F910F91FF90EF9003
:10265000DF90CF90BF90AF909F908F907F906F90C2
:102660005F904F903F900C94A8290031FFE51F0721
:1026700011F481E005C001312FE5120721F482E059
:102680000E94C529CCCFF801EB5BFC45E730F10592
:1026900008F482C5033FFCE51F0799F406E221EE2A
:1026A00040EE63EF7CE509C0073DECE51E0711F540
:1026B00006E221EE41EE67ED7CE5C7010E940326AC
:1026C000B0CF043F2CE5120708F03FC1083D3CE5C0
:1026D000130731F407E225EE45EE68ED7CE5EDCF1A
:1026E000093D9CE5190701F708E221E045EE69ED97
:1026F0007CE5E3CF882309F45DC1109238020230F3
:102700009CE5190708F440C10631ECE51E0730F0DE
:10271000C8018A5F9C45099708F036C10E94C1270D
:102720009093BB018093BA010031FCE51F0709F4C7
:10273000C3C008F041C008303CE5130709F49AC053
:10274000F0F404309CE5190709F487C068F40230FE
:10275000FCE51F0709F477C003301C4509F0E5C00C
:102760008091BA01826076C006303CE5130709F417
:102770006EC008F07BC08091BA0188606BC00C30DD
:102780009CE5190709F485C068F40A30FCE51F07C9
:1027900009F474C008F079C00E94152C8091BA0128
:1027A000806858C00E303CE5130709F476C008F085
:1027B0007FC08091BA018BC00B3F9CE5190709F4DB
:1027C0004FC018F50331FCE51F0709F47DC078F40C
:1027D00001313CE5130709F473C002311C4509F0CF
:1027E000A4C00E94152C8091BA018F7733C00531A7
:1027F0009CE5190709F472C008F486C00A3F1C451D
:1028000009F093C08091BB013EC00F3F2CE5120739
:1028100009F45FC058F40D3F8CE5180709F444C073
:1028200008F43FC08091BB0182602DC00130EDE50E
:102830001E0709F475C008F45DC002301D4509F09B
:1028400074C060E06EC08091BA01816003C0809165
:10285000BA0180618093BA0168C08091BA0111C049
:102860008091BB0182608093BB015FC08091BA01FF
:102870008062F0CF8091BA018064ECCF8091BA0180
:1028800088608460E7CF8160EECF8091BA018E7F4F
:10289000E1CF8091BA018D7FDDCF8091BA01877F32
:1028A000D9CF8091BB0118C08091BB018D7FDBCF58
:1028B0008091BA018F7ECECF8091BA018F7DCACF31
:1028C0008091BA018F7BC6CF8091BA01877F8B7FC1
:1028D000C1CF8091BB018D7F8E7FC5CF8091BA0122
:1028E00082FB222720F991E0922790FB82F990FB4E
:1028F00083F9B0CF8091BB01982F909591708E7F16
:10290000892B90FB81F9AFCF0E94152C8091BA01E1
:1029100087FB222720F991E0922790FB87F99ACF35
:1029200061E08EE090E00E9420356091BA01109144
:10293000BB0184E090E00E942035612F82E290E0AC
:102940000E9420350E94152C6CCE053FFCE51F0728
:1029500031F406E221EE42EE65EF7CE5AECE053FB6
:102960002CE5120730F407E225EE44EE64EF7CE537
:10297000A4CE063F3CE5130709F0BCCE07E225EEE6
:1029800046EE66EF7CE599CE8091B40206319CE577
:10299000190709F58A7A91E009F490E090933902D9
:1029A000882311F065E301C069E286E692E00E94A7
:1029B000A7270EC006311C4509F029C180913902B4
:1029C000882309F442C465E386E692E00E949A27D0
:1029D0000E94482826CE82720C3C3CE5130709F47D
:1029E000C4C008F045C0063CECE51E0709F4A9C0C8
:1029F000D8F4033C2CE5120709F499C030F4023CEA
:102A00008CE5180709F46EC0D1C0043C9CE5190799
:102A100009F492C0053CECE51E0709F0C7C040EA86
:102A20005BE169EA7BE1A5C0093CFCE51F0709F40D
:102A300092C078F4073C3CE5130709F487C0083CD2
:102A40009CE5190709F0B2C044E95BE168E87BE165
:102A500090C00A3CECE51E0709F482C00B3CFCE583
:102A60001F0709F0A3C046EF59E167E07AE181C092
:102A7000013D2CE5120709F488C0A0F40E3C8CE55A
:102A8000180709F47CC008F477C00F3CECE51E077A
:102A900009F478C0003DFCE51F0709F087C06EE02F
:102AA00089E081C0043D2CE5120709F474C068F484
:102AB000023D8CE5180709F46BC0033D9CE519073E
:102AC00009F074C061E088E16BC0053DECE51E07CC
:102AD00009F464C00D35FDE51F0709F067C06AE21F
:102AE00085E261C08091300280FF1BC08E7F8093A1
:102AF00030026091300270913102809132029091E7
:102B000033020E94E41910922F020FEF10E722E027
:102B1000015010402040E1F700C000000E948219DF
:102B200080CD81608093300261E0869539C043E3B7
:102B30005FE16CE37FE11DC04CE35FE163E37FE1B4
:102B400018C049EA5BE160EA7BE113C048E85BE159
:102B500064E97BE10EC040E75BE16CE77BE109C023
:102B60004CE75BE160E77BE104C047E05AE166EFD8
:102B700079E10E94FD2555CD61E081E011C065E05D
:102B800082E011C068E086E00EC064E18FE00BC017
:102B900067E185E108C062E289E105C061E083E2A6
:102BA0000E94F81E3ECD0E94E9253BCD0A353DE549
:102BB000130741F150F401159CE51907A9F00E3DEA
:102BC0001C4529F50E94D2272CCD0B35FDE51F07AA
:102BD000D9F00C351D45D9F48091BB0182FB8827C3
:102BE00080F991E0892711C00E94152C3FEF84E302
:102BF0009CE0315080409040E1F700C000000E940E
:102C000000270FCD81E001C080E00E949228F701EB
:102C1000828100811181882349F0C8010E94AC287B
:102C2000D82E682FC8010E944E2904C0C8010E94F6
:102C30002229D82EB8018D2D0E94C61C8C01982EF9
:102C4000F701D280A580A2949FE0A9228091B102D1
:102C5000877099F0DD2089F0812F807F803421F00A
:102C600080E2800F883048F082E00E94A82980919D
:102C7000B1028770CC24C3948111C12CB12EB294BF
:102C80008FE0B8228B2D90E08C30910508F04FC278
:102C9000FC01E759FF4F0C94FB35812F807F1F709B
:102CA000882311F01295107FDD20B9F0112309F46B
:102CB00024C280E2800F883010F0911006C080910D
:102CC000B402182B1093B40205C08091B302182BE4
:102CD0001093B3020E94482810C2802F0E94053230
:102CE000112309F424C2005E1095083010F09110F1
:102CF00006C08091B40218231093B40205C08091DD
:102D0000B30218231093B3020E94482810C2812FE7
:102D1000807F1F70803211F01295107F992021F072
:102D2000F1E09F1611F130C0DD20B1F0AA2081F052
:102D300001E0A0120DC08091BB0182FDF8C180911D
:102D4000B502182B181709F4F2C11093B502EFC1A0
:102D50008091B502812B10C0AA2021F021E0A2169B
:102D600009F4E5C10E94422827C0DD2041F035E08A
:102D70003A1508F4DCC1812F0E942B2CD8C184E0C5
:102D80008A1508F4D4C118C0DD2049F0AA2099F3AF
:102D9000F701858180FFB1C18F708583ECCFAA20B8
:102DA00059F0093309F0BAC1FFEF17EE23E0F150F3
:102DB00010402040E1F7B6C1812F0E94202CB7C1FE
:102DC000812F86958695837019F0813059F0AFC1B7
:102DD000DD2019F0C801937002C080E090E00E94ED
:102DE0007A23ABC1DD2019F0C801937002C080E0E6
:102DF00090E00E946423A1C1802FDD2019F00E9481
:102E00006B1C02C00E94B21B0E94461F96C1812FFC
:102E1000837009F069C0D1108EC1902F929596955C
:102E20009770990F990F802F8F70882E912CA12C5D
:102E3000B12C092E04C0880C991CAA1CBB1C0A9436
:102E4000D2F704FF12C04FE050E060E070E004C031
:102E5000440F551F661F771F9A95D2F7DB01CA01F1
:102E600080959095A095B09503C080E090E0DC013E
:102E700016951695412F4370423019F1C8F4009110
:102E8000B6021091B7022091B8023091B9024130D8
:102E900059F088299929AA29BB29BC01CD016023B1
:102EA0007123822393230AC0802A912AA22AB32A5B
:102EB000BC01CD01682979298A299B290E94E6292C
:102EC0003AC188299929AA29BB290091B6021091F3
:102ED000B7022091B8023091B902BC01CD01602740
:102EE000712782279327EACFDD2019F0812F817087
:102EF00001C08695882309F41EC1902F929596955E
:102F00009770990F990F802F8F70882E912CA12C7C
:102F1000B12C092E04C0880C991CAA1CBB1C0A9455
:102F2000D2F704FF12C04FE050E060E070E004C050
:102F3000440F551F661F771F9A95D2F7DB01CA0110
:102F400080959095A095B09503C080E090E0DC015D
:102F500016951695412F43704230D9F068F50091CF
:102F6000D5021091D6022091D7023091D80241307B
:102F700059F088299929AA29BB29BC01CD016023D0
:102F80007123822393231EC0802A912AA22AB32A66
:102F900013C088299929AA29BB290091D50210912B
:102FA000D6022091D7023091D802BC01CD01602712
:102FB00071278227932706C0BC01CD016829792992
:102FC0008A299B290E947929B6C01F70DD2039F01B
:102FD000812F0E94C529802F0E942B2CACC0802FEE
:102FE0000E94202C812F0E948329A5C0802F92EF60
:102FF000991609F440C0991538F0E0EF9E1661F07B
:10300000F1EF9F1699F174C023EF9216D9F134EFC6
:10301000931609F44EC06CC0DD2019F184E08A15C6
:1030200008F485C01F7181E090E0A0E0B0E0AC0141
:10303000BD0104C0440F551F661F771F1A95D2F7B4
:103040008091D5029091D602A091D702B091D8027A
:103050008A019B01082719272A273B27C901B801A4
:1030600025C025E02A1508F462C0DCCFDD2029F058
:10307000812F8F7130C0DD20D9F3812F8F710E9495
:10308000832955C0DD2079F01F7181E090E0A0E038
:10309000B0E0BC01CD0104C0660F771F881F991FE7
:1030A0001A95D2F703C060E070E0CB010E94792945
:1030B0003EC0DD2099F01F71812F0E94C5298091AB
:1030C000BB0182FD07C038E0139FC001112483605B
:1030D0008093B102812F0E94C52929C081E00E94FE
:1030E000A82981E08A1518F582E00E94A8291FC04E
:1030F000DD2039F0AA2009F4BBCF802F0E946C326A
:1031000016C0AA2009F4B9CF893341F49FEFE7EE46
:10311000F3E09150E040F040E1F704C08FE39CE918
:103120000197F1F700C00000802F0E94053288EF60
:103130008B0D843010F40E949023CC2009F487C0BA
:103140008091B10280FD83C0F7011282859585953B
:1031500085950E94C529C7010E94C6118091B102C0
:1031600085958595859529960FB6F894DEBF0FBE97
:10317000CDBFDF91CF911F910F91FF90EF90DF9026
:10318000CF90BF90AF909F908F907F906F905F9007
:103190004F903F900C948329EB58FF4F0C94FB35D4
:1031A00087E001C080E00E9458253BCA0E94762536
:1031B00038CA0E94982535CA80912D0280FF07C029
:1031C0008E7F80932D020E940F2580E02AC00E94EE
:1031D0005E2527CA90912D02892F86958695869522
:1031E0008F5F8F719770883038F4880F880F880F41
:1031F000892B80932D0202C090932D0280912D0285
:10320000887F91E009F490E080912D0290FB80F995
:1032100080932D020E940F2580912D028695869520
:1032200086950E94E324FDC980912D0281FF03C091
:103230000E941425F6C90E942A25F3C901319FE591
:10324000190709F027CA82E0E8C969E2BDCB2996CF
:103250000FB6F894DEBF0FBECDBFDF91CF911F91A7
:103260000F91FF90EF90DF90CF90BF90AF909F9025
:103270008F907F906F905F904F903F9008959091C6
:10328000BA0192FF0DC0282F2871283019F4877FCA
:10329000846006C0282F2471243011F48B7F88604D
:1032A00093FF0DC0282F2871283119F4877E84617F
:1032B00006C0282F2471243111F48B7E886120915F
:1032C000BB0120FF0DC0382F3871383019F4877FCB
:1032D000816006C0382F3171313011F48E7F8860E3
:1032E00021FF0DC0282F2871283119F4877E8161B4
:1032F00006C0282F2171213111F48E7E886194FD42
:10330000877E08958091300280FF0AC0539A8BB166
:10331000877F9BB198602FB7F894E0E4F2E00BC090
:10332000E0E4F2E0118210821282339632E0EC3453
:10333000F307C1F7EBCF32E0EC34F30789F03191BA
:1033400048E09BB9000000C037FF8BB9330F000085
:1033500000C000C000C08BB900C04A9591F7EBCF08
:103360002FBF8FE594E00197F1F700C000000895AA
:103370009091300290FF0CC0E0E4F2E08183608322
:103380004283339692E0EC34F907C1F70C9482192A
:1033900008958091300280FF02C08695089580E0F4
:1033A000089580913002282F269530E021153105AF
:1033B00019F48170826005C02B32310524F08170D0
:1033C0008465809330020895CF92DF92EF92FF924E
:1033D0006B017C010E94D119B701A60188E090E041
:1033E000FF90EF90DF90CF900C94323580913402B3
:1033F000882319F0815080933402609130027091DB
:10340000310280913202909133020C94E419809140
:103410003402833018F48F5F80933402609130025D
:103420007091310280913202909133020C94E41930
:10343000E0E3F2E085E0808388E9818388EE82839F
:103440008FEF838382E084836081718182819381A5
:103450000C94E419AF92BF92CF92DF92EF92FF9259
:103460000F931F93CF93DF93E82EF62EE901E42FFD
:10347000F0E0611106C0E053F94FE4914E2F2E2F7A
:1034800071C0062F10E0E053F94F4491F42FC42E81
:10349000D12C26E0829FC00111242FEF30E0B9012A
:1034A0000E94D3355BEA5603C001579F900D11244B
:1034B0008E0D911D8E0D911D582F550F580FD9014E
:1034C000A01BB10BAC9DC001AD9D900DBC9D900D9E
:1034D0001124E92FF59ED0011124AB2FBB277901D0
:1034E000EA1AFB0AEC9CD001ED9CB00DFC9CB00DDF
:1034F00011245901A51AB108A09E7001A19EF00CDB
:10350000B09EF00C1124EF2CFF242E193F092C9DA6
:1035100080012D9D100D3C9D100D1124212F623036
:10352000710591F048F461157105E1F061307105A4
:10353000B9F4242F4B2F16C06430710569F040F0A8
:103540006630710579F00CC0242F492FE12F0AC095
:10355000492FEF2F2B2F06C0292FE42F412F02C018
:10356000292FEB2F49832883EA83DF91CF911F9185
:103570000F91FF90EF90DF90CF90BF90AF900895A4
:10358000CF93DF9300D01F92CDB7DEB7909130027A
:1035900090FF0AC09E012F5F3F4F0E942A1A4B8165
:1035A00069818A810E94B8190F900F900F90DF9166
:1035B000CF9108957F928F929F92AF92BF92CF92B8
:1035C000DF92EF92FF920F931F93CF93DF9300D080
:1035D0001F92CDB7DEB7182FD62E042FC22E909192
:1035E000300290FF6CC0E92FE695AE2FB0E0A35BF0
:1035F000BE4F8C9180932E029E7F923061F49E018B
:103600002F5F3F4F812F0E942A1A4B8169818A8147
:103610000E94B81942C0823019F4009133023DC0B3
:10362000863019F41091310238C08930D9F38931CC
:10363000A1F5E9512E2F2170722EE695F0E0E053AE
:10364000F84F8590949030E4A32E32E0B32EE12C15
:10365000F12C99248E9CC0018F9C900D9E9C900D06
:1036600011249695879596958795711002C0810FC4
:1036700003C0212F281B822F9501402F6D2D0E9402
:103680002A1A8FEFE81AF80A23E0A20EB11C84E090
:10369000E816F104F9F60E94821910933102D092D3
:1036A000320200933302CC2051F0609130027091CD
:1036B000310280913202909133020E94E4190F90FE
:1036C0000F900F90DF91CF911F910F91FF90EF908E
:1036D000DF90CF90BF90AF909F908F907F90089594
:1036E000E0E3F2E0438128E0421B08F440E021E0FF
:1036F000628181810C94DA1AE0E3F2E0438128E0F0
:10370000420F08F44FEF21E0628181810C94DA1AB4
:10371000E0E3F2E0628128E0621B08F460E021E06F
:10372000438181810C94DA1AE0E3F2E0628128E0BF
:10373000620F08F46FEF21E0438181810C94DA1A63
:10374000E0E3F2E0818121E04381628188500C94C2
:10375000DA1AE0E3F2E0818121E043816281885F4F
:103760000C94DA1A803F39F49091250297FF35C006
:103770001092250259C0813F29F490912502191613
:10378000BCF32BC090912402823F29F497FF25C0FF
:103790001092240249C0833F19F41916CCF31DC0BE
:1037A00090912602893F29F41916BCF41092260242
:1037B0003BC08A3F19F497FF10C0F8CF8B3F39F414
:1037C0009091270297FF09C0109227022DC08C3FCD
:1037D00021F4909127021916BCF39CE0980F9530C4
:1037E00080F421E030E0A90102C0440F551F9A95F2
:1037F000E2F7CA01809590912302892380932302E6
:1038000013C08D3F21F480916E028E7F0BC08E3FDE
:1038100021F480916E028D7F05C08F3F29F4809145
:103820006E028B7F80936E0280912402811106C00C
:1038300080912502811102C010921F028091260200
:10384000811106C080912702811102C010921C02D2
:10385000089580916E0280FD16C081FD16C082FD24
:1038600018C080911C02882391F0883290F428E0DF
:10387000829FC001112468E270E00E94E735862F24
:10388000672B29F007C082E0089584E0089581E065
:10389000089588E0089580916E0280FD14C081FD36
:1038A00014C082FD16C080911F02882381F08431EC
:1038B00080F422E3829FC001112464E170E00E9441
:1038C000E735862F08958CE0089589E1089585E015
:1038D000089582E30895803F21F40E944B1C819556
:1038E00004C0813F29F40E944B1C80932502089557
:1038F000823F21F40E944B1C819504C0833F29F430
:103900000E944B1C809324020895893F19F40E9461
:10391000291C05C08A3F31F40E94291C819580939F
:10392000260208958B3F21F40E94291C819504C032
:103930008C3F29F40E94291C8093270208959CE063
:10394000980F953078F421E030E0A90102C0440FCF
:10395000551F9A95E2F7CA0190912302892B809313
:10396000230208958D3F21F480916E0281600BC087
:103970008E3F21F480916E02826005C08F3F29F452
:1039800080916E02846080936E020895CF93DF93DE
:103990000E947124EC018238910559F1A0F4813321
:1039A000910509F473C040F48932910509F467C0A8
:1039B0008A9709F472C084C08533910509F458C010
:1039C000C997B9F07DC0833E910571F138F4803E0E
:1039D0009105B1F0823E910511F172C0863E9105CC
:1039E000B9F1873E9105C9F1843E910509F068C09F
:1039F00024C08091BA0180FD5DC081FD5BC060C0C4
:103A00008091BA0180FD50C08091BB0180FF49C107
:103A10008091BA0184FD43C1C3EED0E042C18091E0
:103A2000BA0182FF3EC1F4CF8091BA0182FD3FC04E
:103A30008091BB0180FD3EC0EBCF8091BB0181FF37
:103A400030C18091BA0184FD2AC1C7EED0E029C1FE
:103A50008091BA0183FF25C1F4CF8091BA0183FD23
:103A60002CC08091BB0181FFECCFC4EED0E019C126
:103A70008091BA0185FF15C1C9E2D0E012C18091E1
:103A8000BA0185FF0EC1C5E3D0E00BC18091BA0138
:103A900086FF07C1CAE2D0E004C18091BA0186FF67
:103AA00000C1C1E3D0E0FDC0C9E3D0E0FAC0C2EE7E
:103AB000D0E0F7C0C0EED0E0F4C0C6EED0E0F1C078
:103AC000C11581E5D80708F066C0C11520E5D20709
:103AD000E0F0CE0174E0969587957A95E1F78370D2
:103AE0009C2F937021E030E002C0220F331F9A9583
:103AF000E2F73C68382BCF70C695C69540E2C49F6C
:103B0000E0011124C22BD32BCCC0C83ED10560F5F7
:103B1000C03ED10508F0C5C0C83AD105B0F4C53AD9
:103B2000D10540F0C55AD0E0C957DE4FC881D0E07A
:103B3000D064B7C0C130D10509F4B3C008F4AFC038
:103B4000C430D10508F4ABC0ACC0CF3BD10508F000
:103B5000A6C0C85AD0E0CC0FDD1FC657DE4F099073
:103B6000D881C02DD4649DC0C11540E2D40758F45B
:103B7000C11581E0D80708F094C0C03FD10508F412
:103B80008EC0D0658EC0C11520E4D20708F487C06E
:103B9000DF70D06A86C0C11545E5D40708F042C081
:103BA000C11584E5D80728F0DC2FCC27C46FD06A74
:103BB00078C0C11523E5D207B0F0CE0183709927F4
:103BC00021E030E002C0220F331F8A95E2F78C2FEC
:103BD0008695869540E2849FC0011124E901C82B97
:103BE000D92BDA685EC0C11542E5D40728F4DC2F72
:103BF000CC27C16FD06A55C0CE018370992721E0D0
:103C000030E002C0220F331F8A95E2F78C2F869591
:103C1000869540E2849FC0011124E901C82BD92B6D
:103C2000DC683FC0C11589E5D807B8F4C11528E59F
:103C3000D20728F0DC2FCC27C06FD06A32C0C11564
:103C400046E5D40760F58C2F0E943F198F71C82F6D
:103C5000D0E0DC2FCC27D06224C0C1158AE5D8077C
:103C600080F48C2F8F700E943F1994E0D695C795F1
:103C70009A95E1F7CF70D0E0DC2FCC27D069C82B24
:103C800010C0CE0190568115904248F48D2F8F714F
:103C90000E943F19DD27D0628F71D82B02C0C0E08F
:103CA000D0E0CE01DF91CF910895CF92DF92EF92D5
:103CB000FF926C01EE24FF24C114D104E104F1044D
:103CC00021F0C701B60120E101C020E0C72ED82EA7
:103CD000E92EFF24C114D104E104F10419F0285F96
:103CE000C701B6016B017C0154E0F694E794D794C8
:103CF000C7945A95D1F7C114D104E104F10419F025
:103D00002C5FC701B6016B017C0142E0F694E79499
:103D1000D794C7944A95D1F7C114D104E104F104B2
:103D200019F02E5FC701B601DC01CB01B695A7954E
:103D300097958795892B8A2B8B2B09F02F5F822FE4
:103D4000FF90EF90DF90CF9008950F931F93809195
:103D5000D5029091D602A091D702B091D8020097D7
:103D6000A105B10521F18C019D0142E03695279511
:103D7000179507954A95D1F700FF08C0662319F0FB
:103D80000E947C1B1BC00E94701B18C023E0B695CC
:103D9000A795979587952A95D1F780FF08C0662348
:103DA00019F00E9498250AC00E94762507C0662354
:103DB00011F089EA01C08AEA0E94352C81E01F9146
:103DC0000F91089560913002669570E04BE050E0ED
:103DD00085E191E00E941736892B19F481E08093E8
:103DE0002F020E9465279093C7018093C601089512
:103DF0009091300290FF36C09170811102C09260A4
:103E000006C08B3210F0946502C0880F982B9093F7
:103E10003002662351F0609130027091310280913E
:103E20003202909133020E94E4196091300266954B
:103E300070E04BE050E085E191E00E941736892B5D
:103E400019F010922F0202C00E94E21E81E08093BE
:103E5000C90120E040913302609132028091310229
:103E60000C94DA1A0895809130028695815009F4F5
:103E70008AE261E00C94F81E8091300286958F5F93
:103E80008B3208F081E061E00C94F81E0E946527F7
:103E900020912402211104C020912502222321F027
:103EA000909321028093200220912602211104C0C8
:103EB00020912702222321F090931E0280931D025D
:103EC000E091CF01F091D001309749F082E08093EA
:103ED00022020480F581E02D82E292E009940895A7
:103EE000EF92FF920F931F93CF93DF93EFEBF1E0ED
:103EF00064E271E082ECE82E81E0F82EC0E001E09F
:103F000010E080E090E050E09B01280F391FD901BC
:103F10004C914F3FD1F0242F22952F7030E0D901E2
:103F200090962C9130E04F7002C0359527954A95B8
:103F3000E2F720FD07C09801082E01C0220F0A9465
:103F4000EAF702C020E030E0522B01968330910561
:103F5000D9F68081851719F0508381E001C080E097
:103F6000C82B31966D5F7F4FEE16FF0651F6CC23BE
:103F700049F081E080933C020E94652790933B02C8
:103F800080933A0280913C028823B1F080913A02FA
:103F900090913B020E944A27069770F08091BF01E2
:103FA000809335028091C001809336028091C101D7
:103FB0008093370210923C028C2FDF91CF911F919A
:103FC0000F91FF90EF900895CF92DF92EF92FF92C2
:103FD0008C3724E1920728F469E070E00E94D33521
:103FE00029C0A0E0B0E08A50974DAF4FBF4F662781
:103FF000782F892F9A2F25EF38E241E050E00E9478
:10400000863569017A01CA01B9010E94B7359B0161
:10401000AC01C701B6010E94B735BB27A92F982F65
:10402000872F009721E0A207B10511F0BC0102C063
:104030006FEF7FEFCB01FF90EF90DF90CF9008956F
:1040400008959F92AF92BF92CF92DF92EF92FF922C
:104050000F931F93CF93DF93FC01A280948081E0A4
:104060008483E5EDF7E0B490E4E5F8E0E491CCE496
:10407000D2E0F0E4EF2EF2E0FF2ECC24CA94D12C53
:10408000EB190E2F10E022E02A1530F0809131025A
:104090008883809132028983911003C01B821A8227
:1040A00055C08B818823F9F081508B832FEF829F3D
:1040B000C00111246C8170E00E94D335FB01FF2701
:1040C000EB52F84F8491E82FEB192FEFE29FC001DC
:1040D0001124B8010E94D33580913302689FB0014A
:1040E00011247A8333C00E94F33420913302269541
:1040F000215830E0A901440F551F322F2227240FE9
:10410000351F232F33278217930704F582E08A1582
:1041100088F40E94F334B6010E94E73588830E9438
:10412000F334209132022695622F70E00E94E73529
:10413000280F29831A8280913302843120F0893C30
:1041400018F088EC01C084E18C838B8397014A814D
:10415000698188810E942A1A259623E0E20EF11CCB
:1041600082E0C036D80709F08ECFDF91CF911F9142
:104170000F91FF90EF90DF90CF90BF90AF909F9006
:104180000C948219EF92FF920F931F93CF93DF93BA
:104190008C01C0E4D2E0E12CF12CF8018481F2E042
:1041A000EF16F1041CF4882339F002C0811104C019
:1041B0009E014091330202C09E0140E060913202B4
:1041C000809131020E942A1A8FEFE81AF80A23968A
:1041D00094E0E916F10409F70E948219F80184813C
:1041E00090E00196817099278483DF91CF911F9190
:1041F0000F91FF90EF9008958F929F92AF92BF9290
:10420000CF92DF92EF92FF920F931F93CF93DF93A2
:10421000EC014C81042F10E09801D8010E94A835D0
:104220009B01AC010E9473356B017C01E0E2F0E080
:10423000E01BF10BA5E5B0E09B01AC010E947335DA
:104240004B015C019F01DF010E9408369B01AC011C
:104250000E947E359B01AC012C0D3D1D4E1D5F1D46
:10426000C501B4010E948635822FF22E99E2921781
:1042700028F093E0299F900111240DC025E530E03E
:10428000281B3109C901880F991F280F391F37FFD3
:1042900002C02F5F3F4F35952795122F109590E460
:1042A000C92E92E0D92E00E085E5E82EEF18802F88
:1042B000869511F48E2D01C08F2D9601412F6091AE
:1042C00032020E942A1A0F5F83E0C80ED11C04300C
:1042D00071F70E9482198C81811102C091E003C0A4
:1042E000803219F49FEF9093220190912201890F5F
:1042F0008C83DF91CF911F910F91FF90EF90DF9012
:10430000CF90BF90AF909F908F9008950F931F9381
:10431000CF93DF93C0E4D2E0FE01118210821282BB
:10432000339682E0EC34F807C1F700E010E08091AA
:104330003E02082E000C990B0817190794F0809183
:104340002101082E000C990B8017910754F09E0153
:104350004091330260913202809131020E942A1A08
:1043600003C0198218821A820F5F1F4F23960430F0
:104370001105E9F60E9482198091200190913E0278
:10438000980F90933E0220912101280F2093210144
:10439000121614F493301CF0819580932001DF9164
:1043A000CF911F910F910895CF92DF92EF92FF92DC
:1043B0000F931F93CF93DF93FC01828180FF03C093
:1043C000DD24DA9402C0DD24D394C0E4D2E000E01E
:1043D00010E0198218821A8294E0E92EF12CC12C87
:1043E00080913D028C0D853014F0837002C087FDF2
:1043F0008C5F082E000C990B0817190791F4809117
:1044000033028E9DA0018F9D500D11245595479527
:10441000559547959E0160913202809131020E942C
:104420002A1ACD0CF1E0EF1AF108D1F60F5F1F4FF9
:1044300023960430110569F60E94821980913D028D
:1044400091E0D91206C0811102C083E006C08150FC
:1044500004C090E001968370992780933D02DF911C
:10446000CF911F910F91FF90EF90DF90CF90089523
:10447000EF92FF921F93CF93DF93EC0180E4E82E3D
:1044800082E0F82E10E08C81970140913302609118
:104490003202810F0E942A1A115C83E0E80EF11C9F
:1044A0001C3F89F70E9482199A818C8190FF02C07B
:1044B0008F5F01C081508C83DF91CF911F91FF905E
:1044C000EF9008950F931F93CF93DF9300D01F9227
:1044D000CDB7DEB78C0180913F0281110AC09E01E9
:1044E0002F5F3F4F4FEF6FEF0E942A1A8A81809310
:1044F0003F02F8018481813051F028F0823061F46C
:1045000040913F020AC080913F0240E007C06091A5
:104510003F0240E080E003C040E080E060E00E94B5
:10452000B819F801848190E0019663E070E00E9480
:10453000E73584830F900F900F90DF91CF911F91FB
:104540000F910895CF93DF93EC01E0E3F2E0438114
:1045500062818C810E94C01A8C818F5F8C83DF9175
:10456000CF910895CF93DF93EC01EC81F0E0EB5213
:10457000F84F4491E0E3F2E0628181810E94C01A29
:104580008C818F5F8C83DF91CF9108951F93CF93A0
:10459000DF93CDB7DEB767970FB6F894DEBF0FBED7
:1045A000CDBF342F4B8B252F5C8B6D8B7E8B8F8BF0
:1045B0004E895F8961111092B30286E0FE013D963B
:1045C000DF01982F1D929A95E9F73D872E876F8717
:1045D000598B488BDE01179601900D928A95E1F771
:1045E000CE0107960E94662A81113EC086E0FE0138
:1045F0003796DE01119601900D928A95E1F7FF81C1
:10460000E8856A857B856115710531F0EF3F31F4EE
:1046100081E0FF3F19F403C081E001C080E080FD2C
:1046200023C02091750230E0C90101968770992757
:104630004091A60250E08417950779F1F983EA8347
:104640007D836C8396E0929FD001939FB00D1124DF
:10465000AA58BD4FFE01319601900D929A95E1F74F
:10466000809375020E94F02916E08091A602909135
:1046700075028917F9F0189FC00111248A589D4FBF
:104680000E94662A8823B1F08091A60290E00196EC
:10469000877099278093A602E8CF0E94152C10926C
:1046A00075021092A602EFE6F2E086E0DF011D92AD
:1046B0008A95E9F767960FB6F894DEBF0FBECDBFB7
:1046C000DF91CF911F91089520916402309165028E
:1046D0002817390771F09093650280936402E09186
:1046E000CF01F091D001309721F00084F185E02DC9
:1046F00009940895209162023091630228173907C6
:1047000071F09093630280936202E091CF01F09187
:10471000D001309721F00680F781E02D09940895AB
:10472000E091CF01F091D001309721F00190F0811C
:10473000E02D099480E0089580911B028823F9F010
:104740000E945927DC01CB01805A9541AF4FBF4FE2
:104750008093160290931702A0931802B093190247
:1047600080911A0281110BC062E070E08DE999E03E
:104770000E94122D892B19F481E080931A028091F6
:104780001A020895CF93E82F2091E2063091E306B4
:104790002C5D32404091D902642F70E0C9010E9423
:1047A000D335481B842FEE2351F066E00E94C735B5
:1047B000C82FC150A8F080E20E94512CFACFA90165
:1047C000480F511D4115544018F080E020E030E0C2
:1047D000280F311D24523D4F3093E3062093E2060B
:1047E000CF910895ECEDF2E080E094E0DF019C01D0
:1047F0001D9221503040E1F7F093E306E093E2068A
:104800008FEF9FEF9093DB028093DA020895CF93AE
:10481000DF93CFE6D0E060E0CE010E942035219604
:10482000C11584E0D807B9F7DF91CF910895CF92F1
:10483000DF92EF92FF920F931F93CF93DF93C0E02D
:10484000D0E08E010E5E1F4F6E0186E0C80ED11CB7
:10485000FE01EB5AF64FE590F4906F2DCE0187964E
:104860000E9420356E2DCE0188960E94203522961A
:10487000CC15DD0569F70C171D0731F7E801083481
:104880001105F9F6DF91CF911F910F91FF90EF90F5
:10489000DF90CF9008950F931F93CF93DF93C42F92
:1048A000D0E0CC0FDD1F26E0629FC00DD11D11248A
:1048B00032E1839FC00DD11D1124CE0187960E9445
:1048C0000C35082F10E0102F0027CE0188960E948B
:1048D0000C359801282BC901DF91CF911F910F91C1
:1048E0000895462F843038F4733028F4633018F478
:1048F000672F0C944B2480E090E008951F920F9254
:104900000FB60F9211242F933F934F935F936F93A2
:104910007F938F939F93AF93BF93EF93FF93809178
:10492000BD019091BE01019668EB75E00E94D33500
:104930009093BE018093BD016BE070E00E94D3357F
:104940006F778091BC01823019F4603451F404C057
:10495000813039F46F3729F480916F008E7F809316
:104960006F00E62FF0E0EB52F74FE49121E031E0E9
:10497000E29FC001E39F900D112467E070E00E9468
:10498000D33580912D02869586958695282F269F72
:10499000C001279F900D11240E94E41F909389006D
:1049A00080938800FF91EF91BF91AF919F918F917C
:1049B0007F916F915F914F913F912F910F900FBE1B
:1049C0000F901F901895883048F4811108C090917D
:1049D00080009F77909380002D9806C087E090918B
:1049E0008000906890938000282F30E0AFEFBFEFF9
:1049F0000E94A83527E030E040E050E00E94863574
:104A0000B42FA32F922F8827892F9A2FAB2FBB2744
:104A10000E94E41F90938900809388000895682F76
:104A200086E090E00C94203580912D0281FF11C02A
:104A30008D7F80932D020E940F2580916F008E7FC5
:104A400080936F0080912D028695869586950C94B3
:104A5000E324089580912D0281FD10C0826080932F
:104A60002D020E940F251092BE011092BD011092DE
:104A7000BC0180916F00816080936F000895883041
:104A800008F087E090912D029770282F220F220FB7
:104A9000220F922B90932D02987F21E009F420E0C1
:104AA00090912D0220FB90F990932D020C94E32419
:104AB0000E943F2580912D020C940F2580912D029C
:104AC00080FD13C0816080932D02813019F489E04C
:104AD00080932D0280912D020E940F2580912D023E
:104AE0008695869586950C94E324089580912D02F1
:104AF000982F969596959695A1F0915E990F990F9E
:104B0000990F8770892B80932D02887F91E009F49B
:104B100090E080912D0290FB80F980932D020E94FD
:104B20000F2580912D028695869586950C94E32419
:104B300020912D02822F869586958695482F50E0EC
:104B40004730510554F48F5F982F990F990F990FA3
:104B5000822F8770892B80932D0280912D02816096
:104B600080932D020E940F2580912D0286958695B7
:104B700086950C94E32480E090E00E941A358A3EEA
:104B80009E4F51F00E94D22780912D02847089633C
:104B900080932D020E940F2586E090E00E940C3544
:104BA00080932D02282F26952695269530E02830D3
:104BB000310524F08770886380932D0280912D0247
:104BC00080FF04C086958695869501C080E00C9490
:104BD000E324CF93DF93C82FD62F0E94C9198C17D7
:104BE00030F08D1720F4DF91CF910C943C1F61E0E1
:104BF0008C2FDF91CF910C94F81E882311F0FA01CD
:104C000001C0FB0109940F931F93CF93DF93C42F2F
:104C1000D22FFC0182818823C9F0409338020E9480
:104C20006527909361028093600280E28C0F883048
:104C300008F057C0C77081E001C0880FCA95EAF735
:104C4000DF91CF911F910F910C942B2C8091380202
:104C5000481330C080916002909161020E944A27FF
:104C6000883C910538F510E21D0FCD17B9F080E2B0
:104C70008C0F883040F4C77081E001C0880FCA955E
:104C8000EAF70E94202C183028F581E09D2F9770BC
:104C900001C0880F9A95EAF70E942B2C802F0E9462
:104CA000352C1830F0F4D77081E001C0880FDA9508
:104CB000EAF70AC080E28C0F883098F4C77081E070
:104CC00001C0880FCA95EAF7DF91CF911F910F912C
:104CD0000C94202C802FDF91CF911F910F910C9479
:104CE000352CDF91CF911F910F9108958091C002D3
:104CF000089580E00895CF93DF9300D01F92CDB741
:104D0000DEB79091CB02943011F589837B836A835F
:104D10009093E9008FEF9091E800815095FD06C0D7
:104D200095ED9A95F1F700008111F5CF8091E8009B
:104D300085FF0DC040E050E063E070E0CE010196D9
:104D40000E94D9318091E8008E778093E8000F901F
:104D50000F900F90DF91CF910895BC0184E00C94E7
:104D60007B26BC0183E00C947B2624E02093E900A1
:104D70002FEF3091E800215035FD06C035ED3A9512
:104D8000F1F700002111F5CF2091E80025FF0BC0BD
:104D900040E050E066E070E00E94D9318091E80088
:104DA0008E778093E8000895CF93DF9321E02093DE
:104DB000E9002FEF3091E800215035FD06C035EDB8
:104DC0003A95F1F700002111F5CF2091E80025FF79
:104DD00014C0EC0140E050E068E070E00E94D9317E
:104DE0008091E8008E778093E80088E0FE01A1ECD6
:104DF000B2E001900D928A95E1F7DF91CF9108958D
:104E000081E08093E00080E28093D8001092C90096
:104E10008FE19EE40197F1F700C0000087E090EB7E
:104E2000DC018093E4069093E506A093E606B09338
:104E3000E7069CE088E10FB6F894A895809360009F
:104E40000FBE90936000FFCF78941F920F920FB621
:104E50000F9211248F939F93AF93BF938091BA02C7
:104E60009091BB02A091BC02B091BD020196A11D20
:104E7000B11D8093BA029093BB02A093BC02B09381
:104E8000BD02BF91AF919F918F910F900FBE0F9078
:104E90001F9018959C014FB7F8948091BA02909199
:104EA000BB02A091BC02B091BD024FBF821B930B0D
:104EB00008952FB7F8946091BA027091BB02809167
:104EC000BC029091BD022FBF08952FB7F894809136
:104ED000BA029091BB02A091BC02B091BD022FBF5B
:104EE00008951F920F920FB60F9211248F939F93E4
:104EF000AF93BF938091C301811113C08091BA0217
:104F00009091BB02A091BC02B091BD024196A11D3F
:104F1000B11D8093BA029093BB02A093BC02B093E0
:104F2000BD02BF91AF919F918F910F900FBE0F90D7
:104F30001F9018959C012A5F3F4FFC014281461348
:104F400001C01282019682179307B9F708959C0158
:104F5000FC0132969FEF80E04191461789F09F3F18
:104F600019F4411101C0982F8F5F8630A9F79F3F38
:104F700039F0F901E90FF11D97FDFA956283089563
:104F80000895CF9384E090E00E940C35C82F82E210
:104F900090E00E940C352C2F30E0A901582BCA015B
:104FA000CF9108956AEE7EEF80E090E00E943E355A
:104FB00060E082E090E00E94203560E083E090E0D5
:104FC0000E9420351092B6021092B7021092B802D9
:104FD0001092B90260E084E090E00E94203560E029
:104FE00082E290E00E94203560E085E090E00E943F
:104FF000203560E086E090E00E9420356FEF87E08A
:1050000090E00E94203540E050E0BA0188E090E056
:105010000E94323560E08DE090E00E94203540E053
:1050200050E0BA0188E190E00E94323560E087E10B
:1050300090E00E94203540E050E0BA018CE190E021
:105040000E94323560E070E080E290E00E943E35E0
:1050500040E050E0BA0188E190E00E9432350E94C1
:105060005E2585E00E94582540E050E0BA018FE0BF
:1050700090E00E94323540E050E0BA0183E190E0D8
:105080000C9432358091B50281111092B5020895C9
:105090009091B4028091B302892B2091B202982F93
:1050A000922B909366028091B502882389F0892B18
:1050B00080936602E8E6F2E097E080E0915029F004
:1050C00021912223D9F38F5FF9CF81110E944228C9
:1050D000E091CF01F091D001309731F00280F3815F
:1050E000E02D86E692E00994089580E090E00E9429
:1050F0007A2380E090E00E9464231092B302109221
:10510000B2020E944828E2E2F2E086E0DF011D924E
:105110008A95E9F710921F0210921C0210926E02FB
:105120000C94461FCF93C091BB01C2FB992790F905
:10513000981781F080FBC2F9C093BB016091BA015E
:1051400084E090E00E9420356C2F82E290E0CF91C5
:105150000C942035CF910895BF92CF92DF92EF92B9
:10516000FF920F931F93CF93DF938C01C090D502D2
:10517000D090D602E090D702F090D8028091B6028B
:105180009091B702A091B802B091B902C82AD92A69
:10519000EA2AFB2ACFE1D0E0D701C6010C2E04C0D9
:1051A000B695A795979587950A94D2F780FD04C088
:1051B000219790F7B12C07C0BC2EB8018C2F0E940C
:1051C000C61C0197A9F38B2DDF91CF911F910F91F1
:1051D000FF90EF90DF90CF90BF900895CF93DF9333
:1051E000EC010E94AC28BE010E94C61CDF91CF9149
:1051F00008950E94EE28292F2F70E92FE295EF7075
:105200004E2F50E0FA013297EE30F105B8F4E45831
:10521000FF4F0C94FB35803F99F018F4883E70F4F2
:105220000FC0843F59F40CC0883E50F0813F31F4E8
:1052300007C0822F869586958695089580E008950B
:1052400081E00895292F220F920F890F682F66950C
:1052500066956695982F977085E0689FB001112438
:1052600040E050E080E0FB01E40FF51FE955FD4F01
:10527000208130E0092E02C0369527950A94E2F786
:1052800021703327042E01C0220F0A94EAF7822BE3
:105290004F5F5F4F4530510531F70895292F220F99
:1052A000920F890FE82FE695E695E695877051E015
:1052B00001C0550F8A95EAF785E0E89FF0011124B7
:1052C000E955FD4F20E030E070E04081CB01022E37
:1052D00002C0969587950A94E2F78170819584279C
:1052E0008523842781932F5F3F4F2530310569F750
:1052F00008956093D5027093D6028093D70290935D
:10530000D8020C9475280F931F9341E050E060E0A1
:1053100070E004C0440F551F661F771F8A95D2F7AF
:1053200040955095609570958091D5029091D602E8
:10533000A091D702B091D8028A019B0108231923BA
:105340002A233B23C901B8011F910F910C9479299D
:105350002091B102809582238093B102982F97709B
:1053600041F430E0482F082E000C550B2417350768
:1053700021F49091BB0192FF07C085958595859595
:105380000E9483291092B10208950F931F9341E068
:1053900050E060E070E004C0440F551F661F771FA7
:1053A0008A95D2F78091D5029091D602A091D7022A
:1053B000B091D8028A019B01082B192B2A2B3B2B79
:1053C000C901B8011F910F910C9479296093B6021D
:1053D0007093B7028093B8029093B9020C94752829
:1053E0008091A60290917502891719F08F5F8770DE
:1053F000FBCF08950F931F93CF93DF938091740297
:1054000082958F7009F05DC080917102882309F444
:1054100058C08091A6021091750260916F02709140
:105420007002C0917202D091730291E06F3F09F057
:1054300090E0292F06E0811709F443C0209721F05E
:105440007F3F21F030E003C031E001C0322F90E017
:1054500030FD34C0089FF001099FF00D1124DF01D9
:10546000AA58BD4F11963C911197371327C03C9114
:10547000361324C012963C91129731111FC0139617
:105480004D915C9114974C1B5D0B483C5105B0F459
:10549000809174028F70806180937402E558FD4F93
:1054A00080818F70806180838FE692E00E94C611B8
:1054B000DF91CF911F910F910C94F0290196877085
:1054C000BACFDF91CF911F910F9108959F92AF9224
:1054D000BF92CF92DF92EF92FF920F931F93CF93E1
:1054E000DF93CDB7DEB761970FB6F894DEBF0FBE7E
:1054F000CDBF8C0185E0F801DE011D9601900D9273
:105500008A95E1F7F80190818181E28030916F0204
:1055100060917002409172025091730241155105E1
:1055200031F06F3F31F421E03F3F19F403C021E037
:1055300001C020E0F22FF1709F2E20FD23C1F80161
:10554000C380D4802FE6A22E22E0B22EF09071020A
:10555000F601E41BF50BFF2009F4CEC02091740284
:10556000E83CF10508F099C0422F407F09F051C096
:10557000681311C039130FC0FE2CE1100CC02F703E
:10558000206120937402C5010E94C61180917402AB
:10559000F801858337C1CD2831F08F3F31F421E008
:1055A0009F3F19F403C021E001C020E020FD03C0AB
:1055B00021E02E2502C020E030E0F22FF170FF2E16
:1055C00020FF1DC02091A6024091750256E02417CD
:1055D00009F4F6C030E0529FF001539FF00D112402
:1055E000EA58FD4F6181861306C06081961303C09F
:1055F0006281E61204C02F5F3F4F2770E8CFFE2C78
:10560000EE2009F4FFC080917402816080937402DF
:1056100050C0681307C0391305C0E11003C0F8017A
:1056200025838DC09D878E878D859E850E94F92854
:10563000882369F1EE2059F120917402822F82951E
:105640008F7090E0029774F080916F0290917002D9
:1056500098878F831986DB86CA862C87CE010796AA
:105660000E94C61186E0F801AFE6B2E001900D920B
:105670008A95E1F70E94FA290DC06817E1F09D872D
:105680008E878D859E850E94F92881111EC0C801D4
:105690000E94C611FF24F394B5C0422F407F69F7E2
:1056A0008FE692E00E94C61186E0F50111928A957C
:1056B000E9F7F12CA7C03913E2CFE110E0CFF801F0
:1056C0002583C8010E94C61157C0EE2001F3209126
:1056D0007402822F82958F7090E002971CF2809165
:1056E0006F02909170029A8389831B82DD82CC8243
:1056F0002E83CE010196B4CFE83CF105E8F5FE2CEF
:10570000EE2029F2681327C0391325C020917402B6
:1057100020FD18C0822F82958F70482F50E04115D0
:10572000510581F0F80125834F30510541F08F5F1D
:10573000982F9295907F822F8F70892B8583C80137
:105740000E94C61186E0F801AFE6B2E001900D922A
:105750008A95E1F757C09D878E878D859E850E942B
:10576000F92881117FCF8091740281608093740247
:10577000C8010E94C61146C086E0F50111928A95C3
:10578000E9F740C0EE2009F482CF9D878E878D8592
:105790009E850E94F928F82E882309F478CF86E0A8
:1057A000F801AFE6B2E001900D928A95E1F78091A1
:1057B0006F02909170020E94EE280E94FA2922C086
:1057C0009D878E878D859E850E94EE28292F2295A4
:1057D0002F70223028F49F7039F0811105C00BC062
:1057E000243028F49F7049F4805E883020F0C8018E
:1057F0000E94C6119F2CF92C05C0F8019581907F5D
:1058000099F7F9CF8F2D61960FB6F894DEBF0FBED2
:10581000CDBFDF91CF911F910F91FF90EF90DF905F
:10582000CF90BF90AF909F9008951092B40286E001
:10583000E8E6F2E0DF011D928A95E9F70C947528FD
:10584000882341F080959091B40289238093B4021B
:105850000C9448280895882339F09091B402892B3C
:105860008093B4020C94482808951F93CF93DF933C
:10587000182F893319F0CAE0D0E002C0C0E5D0E0AB
:10588000812F0E946C328FE99FE00197F1F700C0F1
:1058900000002197C1F7812FDF91CF911F910C94C8
:1058A0000532CF93DF938A3011F481E003C08D304D
:1058B00029F480E0DF91CF910C94C223682F80916E
:1058C000E2069091E30626E0FC01ACEDB6E0019023
:1058D0000D922A95E1F726E0629FB00111246B5FDB
:1058E000744F46E050E00E940335C091E206D0912B
:1058F000E30646E050E0BE018CED96E00E942436BF
:10590000892B49F19E012C5D3240A90186E0569514
:1059100047958A95E1F781E090E0BC0102C0660FEF
:10592000771F4A95E2F74091DA025091DB02462B4D
:10593000572B2B5F3F4F66E0369527956A95E1F729
:1059400002C0880F991F2A95E2F7842B952B90931C
:10595000DB028093DA029E01265D32404091D9023B
:10596000642F70E0C9010E94D335481B463010F403
:10597000240F311D211584E0380710F020E030E0BD
:1059800024523D4F3093E3062093E206DF91CF91FE
:105990000895CF93DF93EC01FE018491882321F0D9
:1059A0000E94512C2196F8CFDF91CF9108950E944B
:1059B000C92C81E00C94C2230F931F93CF93DF93E4
:1059C000EC01FC0101900020E9F78F010150110961
:1059D000C017D10720F489910E94512CF9CFDF9193
:1059E000CF911F910F9108950F931F938091D5022E
:1059F0009091D602A091D702B091D8028C019D015E
:105A00000670112722273327BC01CD01063011056E
:105A10002105310511F4686001C0677F1F910F9166
:105A20000C947929EF92FF920F931F93CF93DF93FA
:105A3000EC017B0164E670E088E70E94C8338C01CA
:105A4000EC0EFD1ECE15DF0561F017FD0AC0FE014C
:105A5000849164E670E00E941F348C012196892BAA
:105A600089F30E94A334C801DF91CF911F910F9158
:105A7000FF90EF9008951F93CF93DF93CDB7DEB7DC
:105A8000AA970FB6F894DEBF0FBECDBFEDECF2E0E3
:105A90008091F100819342E0E53DF407C9F78091E0
:105AA000CE02833009F462C030F4813071F082306C
:105AB00009F49CC0B3C08A3009F488C08B3009F463
:105AC0006DC0893009F0AAC020C08091CD02813A12
:105AD00009F0A4C08091E800877F8093E80080915E
