:100000000C9400020C9447020C9447020C94470293
:100010000C9447020C9447020C9447020C9447023C
:100020000C9447020C9447020C9401240C94D324A2
:100030000C94961E0C9447020C9447020C944702B1
:100040000C9447020C94B40B0C9447020C94470296
:100050000C947A0C0C94EF1E0C9447020C944702FB
:100060000C9447020C9447020C9447020C944702EC
:100070000C9447020C9447020C9447020C944702DC
:100080000C9447020C9447020C9447020C944702CC
:100090000C9447020C9447020C9447020C944702BC
:1000A0000C9447020C9447020C9447023E0B400B01
:1000B000450B480B4B0B4E0B510BA00DA30DBD0D6B
:1000C000CE0DD60DE10DE40DE70DEA0D300E300E2C
:1000D000ED0DF00DF50D020E0F0E120E160E230E85
:1000E0003E143E1470147014BD14DB14FC15FC1582
:1000F000E6147B158C158C15EC15FC15FC15F51507
:100100009C169C16AE16AE16A516AE16AE16AE16FC
:100110009C169C16AA16AE16AE16AA164025672582
:100120005F2667255F26B325D6255F262D263C262C
:10013000A8005200AE00500051004F000100010025
:1001400001000100010001000100010001000100A7
:100150000100010001000100010001000100010097
:1001600000000000000000002A2B28000000000012
:100170000000000000000000000000290000000056
:100180002C1E3420212224342627252E362D3738C4
:10019000271E1F202122232425263333362E3738CD
:1001A0001F0405060708090A0B0C0D0E0F1011128B
:1001B000131415161718191A1B1C1D2F3130232D57
:1001C000350405060708090A0B0C0D0E0F10111255
:1001D000131415161718191A1B1C1D2F3130354C06
:1001E000000000000000000000000000000000000F
:1001F00000000000000000000000000000000000FF
:10020000000000007E0F00D4FFFFFFC70000007851
:1002100000000000000000000000000101020304D3
:100220000506080A0C0F1114181C2024292E333936
:100230003F464C535B626A7179818A929AA2AAB254
:10024000B9C1C8CFD5DCE1E7EBF0F4F7FAFCFDFE6D
:10025000FFFEFDFCFAF7F4F0EBE7E1DCD5CFC8C117
:10026000B9B2AAA29A928A8179716A625B534C46AA
:100270003F39332E2924201C1814110F0C0A0806AC
:10028000050403020101000000000000000000005E
:1002900012035300690078002000500061006300E1
:1002A0006B0000000C03640069003000690062000C
:1002B00000000403090409025B00030100A0FA091D
:1002C0000400000103010100092111010001224085
:1002D000000705810308000A090401000203000069
:1002E00000092111010001222200070582032000DC
:1002F00001070503032000010904020001030000B7
:1003000000092111010001227B0007058403200060
:100310000A1201100100000008303450530110018E
:100320000200010660FF0961A1010962150026FFB4
:10033000009520750881020963150026FF009520AD
:1003400075089102C005010902A10185020901A1F8
:100350000005091901290815002501950875018175
:10036000020501093009311581257F950275088143
:100370000609381581257F950175088106050C0A47
:1003800038021581257F950175088106C0C00501D9
:100390000980A101850319012AB700150126B700BC
:1003A000950175108100C0050C0901A10185041992
:1003B000012AA002150126A002950175108100C036
:1003C00005010906A101050719E029E71500250126
:1003D00095087501810295017508810105071900CD
:1003E00029FF150026FF00950675088100050819EC
:1003F000012905950575019102950175039101C0CB
:1004000011241FBECFEFDAE0DEBFCDBF04B603FE7E
:1004100027C08091300290913102A0913202B091B8
:1004200033028730904BA740B04BD1F4109230028A
:1004300010923102109232021092330214BE84B72D
:10044000877F84BF0FB6F894A8958091600088617B
:1004500080936000109260000FBEE0E0F8E3099521
:1004600011E0A0E0B1E0E0EBFEE402C005900D92E7
:10047000AE38B107D9F722E0AEE8B1E001C01D9275
:10048000A033B207E1F70E94C2200C9456270C94C7
:100490000000269A869A879A0C94B90681E00895FE
:1004A00081E008950C94500208950C9454021F9317
:1004B000CF93DF9300D000D01F92CDB7DEB7498332
:1004C0005A836B833091B90189819A81311114C0AB
:1004D000662359F0222349F00E94D51B182F682F5C
:1004E00089819A810E947E1B03C00E94A91B182F3C
:1004F00069817A81812F04C00E94D51B69817A812C
:100500000F900F900F900F900F90DF91CF911F9150
:100510000C94FD0EFC01262F408151816281738174
:1005200084810C945702CF93DF93EC0160E00E942A
:100530008A02BE01DF91CF910C9455028F929F9257
:10054000AF92BF92CF92DF92EF92FF920F931F93E1
:100550006B017C0181E090E0A0E0B0E04C015D0126
:1005600004C0880C991CAA1CBB1C4A95D2F7AC018C
:10057000BD0104C0440F551F661F771F2A95D2F78F
:10058000482959296A297B2904C0880F991FAA1F65
:10059000BB1F0A95D2F78A019B010C211D212E2138
:1005A0003F21401751076207730739F4BC01CD01A1
:1005B0006C297D298E299F290AC080959095A09548
:1005C000B095BC01CD016C217D218E219F211F9111
:1005D0000F91FF90EF90DF90CF90BF90AF909F90E2
:1005E0008F9008950F93382F262F6091F701709107
:1005F000F8018091F9019091FA01042F432F0E9494
:100600009E020F910C94BA1A0E9489060E946804F7
:100610000E94AA0C0C9449020C94B70608950E94FB
:100620008A160E940E032FEF84E39CE02150804045
:100630009040E1F700C000000C94151F0F931F932A
:10064000CF93DF938C0161E00E948A02EC01B80134
:100650000E941D0D882309F44BC0B801CE010E94F1
:100660005202882309F444C0B801CE010E942F0B26
:100670008823F1F1B801CE010E9432108823C1F124
:10068000B801CE010E948410882391F1B801CE01F7
:100690000E94AF11882361F1F8018281882309F15A
:1006A000CA358DE5D807C1F050F4C115FCE5DF0768
:1006B00081F0CE3DDC45A9F40E94E61D19C0CB3582
:1006C000EDE5DE0761F0CC35DD4559F40E94681C8C
:1006D00008C00E940F030CC00E94711C02C00E943F
:1006E000741CC801DF91CF911F910F910C944E02A1
:1006F00080E0DF91CF911F910F910895DF92EF92EB
:10070000FF920F931F93CF93DF93E82FF0E0E05A0F
:10071000FE4FD490282F26952695269530E0F90196
:10072000E050FE4F0491877010E0082E02C015952E
:1007300007950A94E2F701701127F901E051FE4F85
:10074000E490F12C082E02C0F594E7940A94E2F7A5
:1007500091E0E922FF24F901E052FE4FC491D0E07C
:1007600002C0D595C7958A95E2F7C170DD270115BE
:10077000110519F081EE0E945313E114F10419F0F0
:1007800086EE0E9453138D2D0E94F413EF2819F06A
:1007900086EE0E94A913012B19F081EE0E94A91385
:1007A000CD2B51F08CE2DF91CF911F910F91FF90F3
:1007B000EF90DF900C94F413DF91CF911F910F9184
:1007C000FF90EF90DF900895EF92FF920F931F93A9
:1007D000CF93DF93EC01162F0AE08881882309F478
:1007E00055C0813009F043C08981813041F47E01D8
:1007F00082E0E80EF11C8A810E94F41309C0823065
:1008000049F47E01E2E0EE0EF11C8A810E9453134E
:10081000E7012FC0833041F47E01F2E0EF0EF11CBE
:100820008A810E94A913F4CF843011F0219621C04F
:100830002A81229680E090E030E0205331092A306E
:10084000310558F4089FA001099F500D1124C901DA
:10085000840F951F21962881EFCF009751F0EFE983
:10086000FFE03197F1F700C000000197F6CF0E943A
:100870007E032196812F882309F4AFCFEFE9FFE0B3
:100880003197F1F700C000008150F5CFDF91CF9193
:100890001F910F91FF90EF90089560E00C94E40396
:1008A00008950C94500481E00895CF93C82F0E94BE
:1008B0005304882359F0C095C0FF02C05D9A01C05F
:1008C0005D98C1FF02C0289A01C02898CF91089571
:1008D000559A5D9A209A289A0895CF93C82F0E941E
:1008E00051048C2F0E945504CF91089580E090E030
:1008F00008950895880F991FFC01E05FFD4F8591D1
:1009000094910895CF93DF930E94FD0E0E949A0563
:10091000EC018115904508F041C0C11580E4D8076D
:1009200008F0D1C0C83ED10510F5C03ED10508F091
:10093000FDC0C83AD10578F4C53AD10508F0A2C087
:10094000C130D10509F4F2C008F4EEC0C430D105BD
:1009500008F0ECC0E9C0CF3BD10508F49BC0C03C17
:10096000D10508F4E1C0CE01805C91099EC0C1159B
:1009700090E2D90758F4C11521E0D20708F0D6C09B
:10098000C03FD10508F4D0C0D065D0C0C11580E308
:10099000D80708F08EC0CE019F7087C0C11595E5BD
:1009A000D90708F043C0C11524E5D20708F0A2C05A
:1009B000C11582E5D80708F5C11591E5D90708F0FA
:1009C00085C0CE0174E0969587957A95E1F783709E
:1009D0009C2F937021E030E002C0220F331F9A95C4
:1009E000E2F73C68382BCF70C695C69580E2C89F69
:1009F000E0011124C22BD32B99C09E012370332711
:100A00008C2F86958695C115D34508F064C0C1E04A
:100A1000D0E002C0CC0FDD1F2A95E2F720E2829FD2
:100A2000C0011124C82BD92BDC6880C0C11529E571
:100A3000D207A0F4C11588E5D80708F060C0C11539
:100A400096E5D90708F070C08C2F0E942E068F7192
:100A5000C82FD0E0DC2FCC27D06268C0C1152AE5B2
:100A6000D20708F451C0CE0190568115904208F08B
:100A70005BC08D2F8F710E942E06DD27D0628F7193
:100A8000D82B54C0C55AD0E0CC5BDE4FC881D0E033
:100A9000D0644CC0C85AD0E0CC0FDD1FCA5EDE4F18
:100AA0000990D881C02DD46441C00E947A04EC0121
:100AB0003DC0CE019927D3FF03C0EC01D86C36C0EE
:100AC000EC01D06C33C0DF70D06A30C0DC2FCC2793
:100AD000C16FD06A2BC0C1E0D0E002C0CC0FDD1FD7
:100AE0002A95E2F720E2829FC0011124C82BD92B5E
:100AF000DA681CC0DC2FCC27C46FD06A17C0DC2F8B
:100B0000CC27C06FD06A12C08C2F8F700E942E0627
:100B100094E0D695C7959A95E1F7CF70D0E0DC2F99
:100B2000CC27D069C82B02C0C0E0D0E0CE01DF9155
:100B3000CF9108958238910569F1B0F48133910520
:100B400009F46DC048F48932910509F463C08A3212
:100B5000910509F469C008958533910509F455C0DC
:100B600089339105B9F00895833E910569F138F410
:100B7000803E9105B1F0823E910509F10895863ECF
:100B80009105A9F1873E9105B9F1843E910509F0DF
:100B900064C023C02091180220FD4FC021FD4DC02C
:100BA00008958091180280FD44C08091190280FF51
:100BB00044C08091180284FD42C083EE4DC08091F4
:100BC000180282FF38C0F5CF8091180282FD33C031
:100BD0008091190280FD31C0ECCF8091190281FF14
:100BE00032C08091180284FD2AC087EE35C0809102
:100BF000180283FF26C0F5CF8091180283FD21C023
:100C00008091190281FD1FC0ECCF8091180285FDF3
:100C10001CC01DC08091180285FD19C016C08091AE
:100C2000180286FD16C017C08091180286FD13C0F9
:100C300010C089E311C082EE0FC080EE0DC080E0CD
:100C40000BC086EE09C084EE07C089E205C085E3CB
:100C500003C08AE201C081E390E0089590911802F8
:100C600092FF0DC0282F2871283019F4877F8460E7
:100C700006C0282F2471243011F48B7F886093FFE5
:100C80000DC0282F2871283119F4877E846106C091
:100C9000282F2471243111F48B7E88612091190250
:100CA00020FF0DC0382F3871383019F4877F8160EC
:100CB00006C0382F3171313011F48E7F886021FFEA
:100CC0000DC0282F2871283119F4877E816106C054
:100CD000282F2171213111F48E7E886194FD877E49
:100CE00008950C94F70C0E94F7068FE39CE9019796
:100CF000F1F700C000000E94F70680E00E94AD06F8
:100D000080FF04C00E9471060C94151F08950C9476
:100D100073060E943E1D811102C00E94E61D0E94C2
:100D2000491D80930C020E94511D909319028093DB
:100D300018020E9487060E944D1D682F70E080E017
:100D400090E00E94801A6091F7017091F801809103
:100D5000F9019091FA010C94B81AE82FF0E0E45EE2
:100D6000FD4F80810895089508950C94B4060C9465
:100D7000B5060C94B406CF93DF9347E451E0A1E0AD
:100D8000B0E020E030E0FA01E20FF31F80818F3FF6
:100D9000A1F0E82FE295EF70F0E061A18F70ED0116
:100DA00002C0CC0FDD1F8A95E2F7CE019C2F9095F3
:100DB000962391A392A1892B82A32F5F3F4F2330CB
:100DC000310509F74D5F5F4FD1E04D345D07C9F63E
:100DD00010921A0210921C0210921B0210921D0215
:100DE00082E00E944707DF91CF910C9404030F9398
:100DF0001F93CF93DF93EAE1F2E067E471E0C0E094
:100E000001E010E080E090E050E0DB01A80FB91FA6
:100E10004C914F3FC9F0A42FA295AF70B0E09096CF
:100E20002C9130E04F7002C0359527954A95E2F736
:100E300020FD07C09801082E01C0220F0A94EAF78E
:100E400002C020E030E0522B019683309105E9F694
:100E50008081851719F0508381E001C080E0C82BA4
:100E600031966D5F7F4F82E0EC31F80759F62C2FF9
:100E700042E06CE172E08AE192E00E9448070E9441
:100E80000C038C2FDF91CF911F910F91089508953E
:100E9000FF920F931F93CF93DF938C01F62ED72FE2
:100EA000C42F222349F081E0809392010E94C81E42
:100EB0009093910180939001809192018823C1F0D9
:100EC00080919001909191010E94E01E069780F020
:100ED000EF2DFD2FD8014C2F50E0CD01801B910B41
:100EE000841795071CF48D918193F7CF109292018E
:100EF000DF91CF911F910F91FF90089580919901FB
:100F000080FF0BC06091050185E0689FB00111244E
:100F100075956795759567952BC081FF09C06091A0
:100F2000050185E0689FB00111247595679520C083
:100F300082FF07C06091050185E0689FB001112420
:100F400017C0909198019923D1F0609104019617F0
:100F500088F72091050185E0289F90011124929F38
:100F6000A001939F500D112470E0CA010E94B72682
:100F70006038710540F46115710519F406C065E02B
:100F800070E0862F08958FE7089581E0089580919D
:100F9000990180FF08C06091010170E07595679527
:100FA0007595679521C081FF06C06091010170E0D1
:100FB0007595679519C082FF04C06091010170E0CA
:100FC00010C090919701992399F0609100019617B4
:100FD000A0F780910101899FC001112470E00E9457
:100FE000B7266038710540F46115710519F406C023
:100FF00061E070E0862F08958FE7089581E00895FD
:10100000803F21F40E947E07819504C0813F29F42E
:101010000E947E0780939D010895823F21F40E94E3
:101020007E07819504C0833F29F40E947E07809348
:101030009C010895893F19F40E94C70705C08A3FA3
:1010400031F40E94C707819580939E0108958B3FDC
:1010500021F40E94C707819504C08C3F29F40E94A7
:10106000C70780939F0108959CE0980F953078F40E
:1010700021E030E0A90102C0440F551F9A95E2F724
:10108000CA0190919B01892B80939B0108958D3F0C
:1010900021F48091990181600BC08E3F21F48091F1
:1010A0009901826005C08F3F29F480919901846085
:1010B000809399010895803F39F490919D0197FFA5
:1010C00035C010929D0159C0813F29F490919D0136
:1010D0001916BCF32BC090919C01823F29F497FF15
:1010E00025C010929C0149C0833F19F41916CCF316
:1010F0001DC090919E01893F29F41916BCF41092ED
:101100009E013BC08A3F19F497FF10C0F8CF8B3F78
:1011100039F490919F0197FF09C010929F012DC053
:101120008C3F21F490919F011916BCF39CE0980F1D
:10113000953080F421E030E0A90102C0440F551F32
:101140009A95E2F7CA01809590919B01892380933B
:101150009B0113C08D3F21F4809199018E7F0BC0BC
:101160008E3F21F4809199018D7F05C08F3F29F436
:10117000809199018B7F8093990180919C018111CD
:1011800006C080919D01811102C01092980180914A
:101190009E01811106C080919F01811102C01092B1
:1011A000970108950E94C81E20919C01211104C03E
:1011B00020919D01222321F0909396018093950127
:1011C00020919E01211104C020919F01222321F032
:1011D00090939401809393018AE991E00C94FC111F
:1011E000EF92FF920F931F93CF93DF9300D000D025
:1011F00000D0CDB7DEB786E0EAE9F1E0DE01119676
:1012000001900D928A95E1F7E0909C01F0909D018C
:1012100000919E0110919F0110929C0110929D01DE
:1012200010929E0110929F01E11003C0FF2009F46B
:101230005DC080919501909196010E94E01EAC01E5
:1012400090919801992339F02091060130E02417FC
:10125000350758F04BC0209107018AE0289F900184
:1012600011242417350718F041C09F3F19F09F5FE4
:1012700090939801EE2061F00E947E071E1414F0F6
:101280009FEF01C091E0989F902D112490939C01B5
:10129000FF2061F00E947E071F1414F09FEF01C031
:1012A00091E0989F902D112490939D0130919C0185
:1012B0003323E1F020919D012223C1F045EB34035B
:1012C000C0011124992319F090939C0103C081E07F
:1012D00080939C0135EB2303C0011124992319F05D
:1012E00090939D0103C081E080939D01011103C093
:1012F000112309F45DC080919301909194010E94A3
:10130000E01EAC0190919701992339F020910201E0
:1013100030E02417350758F04BC0209103018AE0D4
:10132000289F900111242417350718F041C09F3FD2
:1013300019F09F5F90939701002361F00E94C70707
:10134000101614F09FEF01C091E0989F902D11248A
:1013500090939E01112361F00E94C707111614F0AB
:101360009FEF01C091E0989F902D112490939F01D1
:1013700030919E013323E1F020919F012223C1F09F
:1013800045EB3403C0011124992319F090939E0179
:1013900003C081E080939E0135EB2303C00111243B
:1013A000992319F090939F0103C081E080939F01DE
:1013B00080919C0181110BC080919D01811107C01A
:1013C00080919E01811103C080919F0181110E9433
:1013D000D208EB82FC820D831E8386E0FE013196EB
:1013E000AAE9B1E001900D928A95E1F726960FB631
:1013F000F894DEBF0FBECDBFDF91CF911F910F914B
:10140000FF90EF900895EAE9F1E086E0DF011D9298
:101410008A95E9F71092980110929701109299011C
:10142000089586E090E00C941427682F86E090E001
:101430000C94222780911E020C94150A80911E02A2
:101440008470816380931E020C94150A80911E02A1
:10145000869586958695089580911E0281FD07C028
:10146000826080931E020E94150A0C941F0C08953E
:1014700080911E0281FF07C08D7F80931E020E9413
:10148000150A0C94290C089580911E0281FD0C947C
:10149000380A0C942C0A80911E028695817008955A
:1014A0008091080108950E943E1D811104C00E9490
:1014B000E61D0E941E0A0E94110A80931E02282F18
:1014C00026952695269530E02730310524F0877043
:1014D000806380931E0280911E0280FF04C0869567
:1014E0008695869501C080E00C94D80B20911E0251
:1014F000822F869586958695482F50E04630510577
:1015000054F48F5F982F990F990F990F822F87703E
:10151000892B80931E0280911E02816080931E029F
:101520000E94150A80911E028695869586950C94D8
:10153000D80B80911E02982F969596959695A1F0BE
:10154000915E990F990F990F8770892B80931E02D6
:10155000887F91E009F490E080911E0290FB80F971
:1015600080931E020E94150A80911E028695869520
:1015700086950C94D80B80911E0280FD13C081606B
:1015800080931E02813019F489E080931E028091BD
:101590001E020E94150A80911E02869586958695E8
:1015A0000C94D80B089580911E0280FF08C08E7F96
:1015B00080931E020E94150A80E00C94D80B0895B7
:1015C00080911E0280FD0C94D30A0C94BB0A90916A
:1015D0001E02892F8695869586958F5F8F719770ED
:1015E000873038F4880F880F880F892B80931E026C
:1015F00002C090931E0280911E02887F91E009F440
:1016000090E080911E0290FB80F980931E020E9460
:10161000150A80911E028695869586950C94D80BA6
:10162000873008F086E090911E029770282F220FD5
:10163000220F220F922B90931E02987F21E009F433
:1016400020E090911E0220FB90F990931E020C94D2
:10165000D80B0E94100B80911E020C94150AFC01FD
:10166000DB0112968C918823F9F0EB5BFC45E730A7
:10167000F105D8F4EA5AFF4F0C94ED2686E001C03C
:1016800080E00E94290B80E008950E94990AFBCF18
:101690000E94760AF8CF0E94E00AF5CF0E94E70A7E
:1016A000F2CF0E94440AEFCF81E00895E82FE2953F
:1016B000EF70F0E032A1282F2F7081E090E001C0A0
:1016C000880F2A95EAF78095832382A30895849A48
:1016D00084EF0E94560B859A85EF0C94560B8C9ADA
:1016E0008D9A089584EF0E94560B85EF0C94560B4B
:1016F000CF92DF92EF92FF928C3724E1920728F489
:1017000069E070E00E94A32629C0A0E0B0E08A5002
:10171000974DAF4FBF4F6627782F892F9A2F25EF10
:1017200038E241E050E00E94CB2669017A01CA010B
:10173000B9010E9493269B01AC01C701B6010E942A
:101740009326BB27A92F982F872F009721E0A20768
:10175000B10511F0BC0102C06FEF7FEFCB01FF902C
:10176000EF90DF90CF9008951F920F920FB60F92D7
:1017700011242F933F934F935F936F937F938F9396
:101780009F93AF93BF93EF93FF930E94720BFF91D0
:10179000EF91BF91AF919F918F917F916F915F91E9
:1017A0004F913F912F910F900FBE0F901F90189562
:1017B000CF93C82F8730A8F4811114C0809188007E
:1017C00090918900892B51F080916F008D7F8093DB
:1017D0006F0080916F008E7F80936F000E94720B6C
:1017E00011C0C6E08091880090918900892B51F446
:1017F00080916F00826080936F0080916F008160A4
:1018000080936F002C2F30E0AFEFBFEF0E94FA26DD
:1018100026E030E040E050E00E94CB26B42FA32F1A
:10182000922F8827892F9A2FAB2FBB270E94780BE6
:101830009093890080938800CF9108950895109225
:10184000A2011092A1011092A30181E08093A00156
:1018500008951092A0010E94260A0C94D80BCF93F1
:101860000E94500A4091A1015091A2014F5F5F4F29
:1018700094EF899F90011124CA01B9010E94A32607
:101880009093A2018093A101B901660F672F661F93
:10189000770B71950E94A3266F778091A301823008
:1018A00019F4603439F404C0813021F46F3711F435
:1018B0001092A001E62FF0E0E05FFD4FC4910E947E
:1018C000260A282F41E051E0C49FC001C59F900D1A
:1018D000112466E070E00E94A326269FC001279F86
:1018E000900D11240E94780B9093890080938800BA
:1018F000CF9108951F920F920FB60F9211242F933C
:101900003F934F935F936F937F938F939F93AF9387
:10191000BF93EF93FF938091A00181110E942F0C40
:1019200080918800909189008130914010F00E9450
:101930006F0BFF91EF91BF91AF919F918F917F912D
:101940006F915F914F913F912F910F900FBE0F902C
:101950001F9018950E94670B82E08093800089E1B8
:10196000809381008FEF9FEF909387008093860094
:101970000E94530A0E944B0A81110C941F0C089577
:1019800083E290E00E941427813281F484E290E0A7
:101990000E941427873051F485E290E00E941427BA
:1019A00091E0883209F090E0892F01C080E08170D9
:1019B0000895CF93C82F811102C06FEF01C061E27B
:1019C00083E290E00E942227C11102C06FEF01C0A4
:1019D00067E084E290E00E942227C11102C06FEF0D
:1019E00001C068E285E290E0CF910C94222780E06C
:1019F0000E94D90C0C94381D089586E290E00E9454
:101A00001427682F70E080E090E0089586E290E06F
:101A10000C9422270E94FC0C0E94C00C81110CC067
:101A200060E070E0CB010E94060D0E947A0E0E94D9
:101A3000570F81E00C94D90C0895CF93FB01C2811C
:101A4000CC23E9F09C0122513F452031310520F49F
:101A500082510E94670F0CC08031FFE59F0751F44F
:101A600081E00E94E01A43E062E081E00E94F2021D
:101A7000C0E018C081319F45A9F482E0F2CF8031E7
:101A8000EFE59E0711F481E004C081319F4549F4E0
:101A900082E00E94011B43E062E081E00E94F202CA
:101AA00001C0C1E08C2FCF9108952FEFFC0120835E
:101AB0000895CF93DF93EC018881893031F08A302B
:101AC00079F40E944B0A89830BC00E94260A2FEFEB
:101AD000829FC001112466E070E00E94A326698302
:101AE000DF91CF910895FC018081893019F08A300F
:101AF00069F00895818126E0829FC00111246FEF73
:101B000070E00E94A326862F0C94100B8181811116
:101B100002C00C94380A0C942C0A1F93CF93DF93C5
:101B2000EC01162F0196E8814E2F50E0FA01319713
:101B3000E331F10508F094C0E35AFF4F0C94ED2611
:101B4000198289E050C08981823081F0833029F088
:101B50008130F9F40E94D41E0BC080E00E94AD06D3
:101B60008A8381E00E94AD068B837CC00E94FD0CBD
:101B70009A838B837C836D8375C08981823049F41D
:101B80006A817B818C819D810E94F3260E94060DD3
:101B900069C0612FCE010E94550D64C04B816A81DE
:101BA00089810E944C0E9C838D835CC02C813D8179
:101BB0003227232732274B816A8189810E94650E53
:101BC00051C00E947A0E4EC00E94730D4BC00E94FD
:101BD000590D48C00E941A0A45C00E940A0F24C02D
:101BE0000E940C0F99838A833DC06B8170E08981CC
:101BF0009A81AE014C5F5F4F9827892798270E94F2
:101C00000F0F30C06B8170E089819A81AE014C5F0B
:101C10005F4F9827892798270E94340F23C00E947E
:101C2000570F20C00E94390E89831CC06B8170E061
:101C300089819A81AE014C5F5F4F98278927982749
:101C40000E94B90E0FC06B8170E089819A81AE014C
:101C50004C5F5F4F9827892798270E94DC0E02C0AF
:101C60008FEF8883612FCE01DF91CF911F910C946C
:101C7000B31F84E0089550E0440F551F26E0629F93
:101C8000400D511D11249A016CE0869F200D311DDD
:101C90001124C901879608950F931F93CF93DF9363
:101CA0000E943B0E8C010E941427C82FD0E0DC2F2D
:101CB000CC27C80101960E9414279E01282BC90138
:101CC000DF91CF911F910F9108950F931F93CF93A1
:101CD000DF93122F032F0E943B0EEC01602F0E9416
:101CE0002227612FCE010196DF91CF911F910F9195
:101CF0000C942227AF92BF92CF92DF92EF92FF9285
:101D00000F931F93CF93DF93A12CE12CF12CB12CD7
:101D100000E010E0C0E0D0E06701C00ED11EFE017F
:101D2000EE0FFF1FEC0DFD1DE05DFE4F2591349180
:101D30004C2F6B2D8A2D0E94650E2196C330D10544
:101D400071F70A5F1F4FB39482E0B812E3CF8CE0C3
:101D5000E80EF11CA39484E0A812D9CFDF91CF91B3
:101D60001F910F91FF90EF90DF90CF90BF90AF90B9
:101D70000895EF92FF920F931F93CF93DF93EA01A1
:101D80007A01E60EF71E8C01C8018796CE15DF0595
:101D900061F00033110520F40E941427888301C0EC
:101DA000188221960F5F1F4FEFCFDF91CF911F91C8
:101DB0000F91FF90EF900895EF92FF920F931F9372
:101DC000CF93DF93EA017A01E60EF71E8C01C8017A
:101DD0008796CE15DF0551F00033110518F46881A0
:101DE0000E94222721960F5F1F4FF1CFDF91CF91E5
:101DF0001F910F91FF90EF900895462F843038F493
:101E0000723028F4633018F4672F0C944C0E80E085
:101E100090E0089580E1089589EA93E00895EF92B3
:101E2000FF920F931F93CF93DF93EA017A01E60E9F
:101E3000F71E8C01C801895A9F4FCE15DF0569F046
:101E4000093A23E0120720F40E941427888301C076
:101E5000188221960F5F1F4FEDCFDF91CF911F9119
:101E60000F91FF90EF900895EF92FF920F931F93C1
:101E7000CF93DF93EA017A01E60EF71E8C01C801C9
:101E8000895A9F4FCE15DF0559F0093A23E0120712
:101E900018F468810E94222721960F5F1F4FEFCF11
:101EA000DF91CF911F910F91FF90EF900895CF9305
:101EB000DF93C7E5D0E060E0CE010E9422272196A3
:101EC000C11584E0D807B9F7DF91CF910895DF926B
:101ED000EF92FF920F931F93CF93DF9300D000D028
:101EE000CDB7DEB7F82E8FE08F15E8F18FEF93E0D6
:101EF0000E941427811137C007E510E0FF2069F028
:101F0000011584E0180779F1C8010E941427811196
:101F100001C0FA940F5F1F4FF1CF19821A821B8202
:101F20001C82DD24D39478018FEFE81AF80AC801E7
:101F30000E94142789831A828823A9F09FEF980FA3
:101F4000933058F48A83D9820E5F1F4FC7010E94D5
:101F500014278B83882339F07801CE0101960E94E3
:101F60004D048701E0CF0F900F900F900F90DF91FD
:101F7000CF911F910F91FF90EF90DF9008950F93F5
:101F80001F93CF93DF93C42FD22FFC01828188232C
:101F9000C9F04093A6010E94C81E9093A5018093AA
:101FA000A40180E28C0F883008F057C0C77081E030
:101FB00001C0880FCA95EAF7DF91CF911F910F9169
:101FC0000C94FD138091A601481330C08091A401A8
:101FD0009091A5010E94E01E883C910538F510E221
:101FE0001D0FCD17B9F080E28C0F883040F4C77018
:101FF00081E001C0880FCA95EAF70E9404141830E6
:1020000028F581E09D2F977001C0880F9A95EAF717
:102010000E94FD13802F0E94F4131830F0F4D77043
:1020200081E001C0880FDA95EAF70AC080E28C0FE0
:10203000883098F4C77081E001C0880FCA95EAF72C
:10204000DF91CF911F910F910C940414802FDF9199
:10205000CF911F910F910C94F413DF91CF911F91A9
:102060000F9108950F939C01CB01233F4CE534075A
:1020700031F188F4283DFCE53F07D9F0293D4CE5D6
:10208000340779F1273D3C45A9F506E221EE41EE02
:1020900067ED7CE52BC0253FFCE53F07E1F0A8F0AC
:1020A000263F3C4539F507E225EE46EE66EF7CE536
:1020B0001DC007E225EE45EE68ED7CE517C006E29F
:1020C00021EE40EE63EF7CE511C007E225EE44EE21
:1020D00064EF7CE50BC006E221EE42EE65EF7CE5A5
:1020E00005C008E221E045EE69ED7CE50E94BF0FE6
:1020F00080E008C0FC018281882319F01092A601BB
:1021000001C081E00F910895CF93DF93EC01FB01B3
:102110008281882309F41FC1C230FCE5DF0708F47F
:102120001BC1C6319CE5D90738F09E012A5F3C45AA
:102130002930310508F010C10E94511D90931902F9
:1021400080931802C031ECE5DE0709F4C3C008F043
:1021500041C0C8308CE5D80709F49AC0F0F4C43007
:10216000ECE5DE0709F487C068F4C2308CE5D807D7
:1021700009F477C0C330DC4509F0E3C08091180250
:10218000826076C0C630ECE5DE0709F46EC008F068
:102190007BC08091180288606BC0CC308CE5D8077A
:1021A00009F485C068F4CA30ECE5DE0709F474C0B0
:1021B00008F079C00E948A1680911802806858C081
:1021C000CE308CE5D80709F476C008F07FC0809146
:1021D00018028BC0CB3FECE5DE0709F44FC018F5C1
:1021E000C3318CE5D80709F47DC078F4C131ECE542
:1021F000DE0709F473C0C231DC4509F0A2C00E94B9
:102200008A16809118028F7733C0C5318CE5D807C4
:1022100009F472C008F486C0CA3FDC4509F091C0D9
:10222000809119023EC0CF3FFCE5DF0709F45FC093
:1022300058F4CD3F9CE5D90709F444C008F43FC0E9
:102240008091190282602DC0C130FDE5DF0709F4DD
:1022500075C008F45DC0C230DD4509F072C080E091
:102260006EC080911802816003C080911802806165
:102270008093180266C08091180211C080911902E3
:102280008260809319025DC0809118028062F0CF55
:10229000809118028064ECCF80911802886084607D
:1022A000E7CF8160EECF809118028E7FE1CF8091E1
:1022B00018028D7FDDCF80911802877FD9CF809162
:1022C000190218C0809119028D7FDBCF809118020E
:1022D0008F7ECECF809118028F7DCACF8091180259
:1022E0008F7BC6CF80911802877F8B7FC1CF809173
:1022F00019028D7F8E7FC5CF8091180282FB222725
:1023000020F991E0922790FB82F990FB83F9B0CFFE
:1023100080911902982F909591708E7F892B90FB58
:1023200081F9AFCF0E948A168091180287FB22277D
:1023300020F991E0922790FB87F99ACF81E00E94E3
:10234000E81D80911802909119020E94621D0E945E
:102350008A1680E001C081E0DF91CF910895CF938C
:10236000DF9386319C4541F5EB010E94771C982F45
:102370008A812091090130910A01882379F09A7AA3
:1023800081E009F480E08093A701911102C069E225
:1023900001C065E3C9010E942F1E0AC08091A701F8
:1023A000811102C069E201C065E3C9010E94311ECA
:1023B0000E94C91C80E001C081E0DF91CF910895A7
:1023C0009093AD018093AC010895E091AC01F09140
:1023D000AD01309721F00190F081E02D099480E06B
:1023E0000895E091AC01F091AD01309721F00280A9
:1023F000F381E02D09940895E091AC01F091AD01D5
:10240000309739F022E0DC012C930480F581E02D37
:10241000099408952091AA013091AB01281739073A
:1024200071F09093AB018093AA01E091AC01F0911F
:10243000AD01309721F00680F781E02D09940895D1
:102440002091A8013091A9012817390771F09093C4
:10245000A9018093A801E091AC01F091AD01309702
:1024600021F00084F185E02D099408950E94D41E86
:102470006093B5017093B6018093B7019093B80152
:102480006093B1017093B2018093B3019093B40152
:10249000089585B7806885BF85B7806885BF089532
:1024A00081E008950C94501208950C9454120C94E9
:1024B00054120C9457120C9454120C945B120C94FA
:1024C00054120E94491286E39DE10E94261F0E9439
:1024D0005F120C945D120E9455120C9454120E94CB
:1024E000BF1E0E94BB060E940A0D0E94530A0C9454
:1024F00059129F92AF92BF92CF92DF92EF92FF92CA
:102500000F931F93CF93DF93CDB7DEB72A970FB604
:10251000F894DEBF0FBECDBF0E94F70681110E9466
:1025200036128FEAA82E81E0B82E00E010E0902E3F
:10253000802F0E94AD06D82EF501C1905F01C826FC
:10254000B1F40F5F1F4F0230110589F78FEF8983B8
:102550008A831B820E94C81E8160782F9D838C8392
:1025600049815A816B818D810E9419132FC08091FE
:102570000C0281FD0E94B306E12CFF24F3948C2D04
:102580008F21F1F00E945212882399F0EE829F82EF
:10259000DF2081E009F480E088870E94C81E816006
:1025A000782F9A8789874E815F8168858A850E9406
:1025B0001913F801E155FE4F8081F826F08206C01C
:1025C000E394FF0CF3E0EF12DACFBBCF0E941E0CB6
:1025D0000E94F0080E94E5119091AE018917B9F0B0
:1025E0000E94E5118093AE012A960FB6F894DEBFE3
:1025F0000FBECDBFDF91CF911F910F91FF90EF9054
:10260000DF90CF90BF90AF909F900C946D042A966E
:102610000FB6F894DEBF0FBECDBFDF91CF911F91F3
:102620000F91FF90EF90DF90CF90BF90AF909F9071
:102630000895DF92EF92FF920F931F93CF93DF9352
:10264000CDB7DEB72B970FB6F894DEBF0FBECDBF68
:10265000F42E052F162FE72ED82E61110E94971CFD
:10266000FE01319686E0DF011D928A95E9F77E2D05
:102670004F2D502F612F8D2D9E810E9443192B9637
:102680000FB6F894DEBF0FBECDBFDF91CF911F9183
:102690000F91FF90EF90DF900895FC018081918170
:1026A0000E94171C0895CF93882309F450C0C82FA7
:1026B0008CEF8C0F813AD0F46C2F809109019091AE
:1026C0000A010E94F91D882349F06C2F80910901AD
:1026D00090910A010E94311E0E94C91C6C2F8091AA
:1026E000090190910A010E942F1E0CC080E28C0FFC
:1026F000883058F4C77081E001C0880FCA95EAF7A6
:102700000E947A1CCF910C94C91CEBE5EC0FE330CE
:1027100040F4F0E0E558FE4F808190E0CF910C94BA
:102720000A12E8E5EC0FE73150F4F0E0EE0FFF1F7E
:10273000E35BFE4F80819181CF910C942012C03FCA
:1027400030F08C2F0E940008CF910C94D208CF91CA
:102750000895882389F19CEF980F913A40F4682FEF
:102760008091090190910A010E94311E0DC090E2F2
:10277000980F983058F4877091E001C0990F8A95AE
:10278000EAF7892F0E94801C0C94C91C9BE5980FC6
:10279000933020F480E090E00C940A1298E5980FB2
:1027A000973120F480E090E00C942012803F20F0DC
:1027B0000E945B080C94D20808951F93CF93DF9377
:1027C000182FEB010E945313209741F08FE99FE0EF
:1027D0000197F1F700C000002197F6CF812FDF911C
:1027E000CF911F910C94A913893319F060E070E028
:1027F00002C060E570E00C94DD13882321F00E9494
:102800007A1C0C94C91C0895882321F00E94801C16
:102810000C94C91C0895CF92DF92EF92FF920F9310
:102820001F93CF93DF937C01062FC72FFC01D2812A
:10283000158112951F700E944F1C882399F0DD238B
:1028400089F08C2F807F803421F080E2800F8830E7
:1028500048F082E00E94191D0E944F1C91E0D82E82
:10286000D92601C0D12CCC2EC2948FE0C8228C2D49
:1028700090E0FC01E059FF4F0C94ED268C2F807FF7
:10288000CF70882311F0C295C07FDD2399F0CC234F
:1028900009F48DC180E2800F883010F0011104C06E
:1028A0008C2F0E947A1C03C08C2F0E948A1C0E94CD
:1028B000C91C7DC1802F0E94A913CC2309F49CC19F
:1028C00080E2800F883010F0011104C08C2F0E942C
:1028D000801C03C08C2F0E94901C0E94C91C8CC1BC
:1028E0008C2F807FCF70803211F0C295C07F002383
:1028F00019F00130C9F022C0DD2371F0112341F03D
:10290000113031F40E94AA1C8C2B0E94B21C74C19D
:102910000E94AA1C8C2B1DC0112319F0113009F440
:102920006BC10E94BF1C25C0DD2321F0163008F0CA
:1029300063C10EC0153008F05FC11BC0DD2361F01C
:10294000112331F0F701858180FF31C18F708583BC
:102950008C2F0E94FD1350C1112359F0093309F047
:1029600037C1FFEF27EE83E0F15020408040E1F7D0
:102970002DC18C2F0E9404143FC18C2F8695869503
:10298000837019F0813061F037C1DD2321F0802F91
:102990009C2F937002C080E090E00E940A1234C124
:1029A000DD2321F0802F9C2F937002C080E090E007
:1029B0000E94201229C1802FDD2319F00E940008F7
:1029C00002C00E945B080E94D2081EC18C2F837037
:1029D00009F045C0D11114C1402F4295469547706A
:1029E000440F440F602F6F70862F90E0A0E0B0E09E
:1029F000042E04C0880F991FAA1FBB1F0A94D2F788
:102A000004FF10C00FE010E020E030E004C0000F31
:102A1000111F221F331F4A95D2F70095109520955C
:102A2000309503C000E010E09801C695C695C370CC
:102A3000BC01CD01602B712B822B932BC23049F04E
:102A400058F4C13019F00E94941ADAC00E94821A18
:102A5000D7C00E94A61AD4C00E94801AD1C0DD231C
:102A600019F08C2F817001C08695882309F4C8C0A5
:102A7000402F429546954770440F440F602F6F706A
:102A8000862F90E0A0E0B0E0042E04C0880F991FCC
:102A9000AA1FBB1F0A94D2F704FF10C00FE010E07A
:102AA00020E030E004C0000F111F221F331F4A95A1
:102AB000D2F7009510952095309503C000E010E006
:102AC0009801C695C695C370BC01CD01602B712BD2
:102AD000822B932BC23049F058F4C13019F00E9478
:102AE000591B8EC00E94471B8BC00E946B1B88C065
:102AF0000E94BA1A85C0CF70DD2339F08C2F0E9456
:102B0000E01A802F0E94FD137BC0802F0E940414C6
:102B10008C2F0E94011B74C0023F01F128F4003F7A
:102B200041F0013FA1F03FC0033FF9F0043F39F10C
:102B30003AC0DD2341F0153008F05EC08C2F8F7154
:102B40000E94261B59C0163008F056C0F7CFDD236F
:102B500039F08C2F8F710E94E01A4EC0DD23C9F32B
:102B60008C2F8F710E94011B47C0DD2329F08C2F11
:102B70008F710E94CB1A40C00E94C61A3DC0DD234F
:102B800049F0CF718C2F0E94E01A63E08C2F0E94D5
:102B9000FE1C32C081E00E94191D123068F182E0F3
:102BA0000E94191D29C0DD2331F0112391F2802FDD
:102BB0000E94531321C0112399F2093349F49FEF66
:102BC000E7EEF3E09150E040F040E1F700C0000094
:102BD000802F0E94A91310C04C2F4F70602FC70187
:102BE0000E9476040E94F1190FC04C2F4F70602F85
:102BF000C7010E94790408C088EF8C0D843020F44E
:102C00000E94E5110E946D04DD20C9F00E944B1C5A
:102C100080FD15C0F70112820E94451C0E94E01A37
:102C2000C7010E9440160E94451CDF91CF911F9161
:102C30000F91FF90EF90DF90CF900C94011BDF91EC
:102C4000CF911F910F91FF90EF90DF90CF9008955B
:102C50000F931F93CF93DF93EC01688179818A8171
:102C60000E94221C8C010E947D1B0E946E1AB801DA
:102C7000CE010E940B14DF91CF911F910F91089507
:102C8000CF93DF93EC01988189812B813C81232BA9
:102C900031F08F3F31F481E09F3F19F403C081E0B0
:102CA00001C080E080FD19C0CE010E941E03811189
:102CB0000CC00E944F1C882381F08A81882369F010
:102CC00082E0DF91CF910C94191DCE010E9428164D
:102CD000CE01DF91CF910C949302DF91CF910895B3
:102CE00080E090E00E940A1280E090E00E942012B2
:102CF0000E94971C0E94A71C0E94C91C0E94030AE4
:102D00000C94D2088091090190910A010E94331E0F
:102D10000C9470160E94871C0C948216E92FE29581
:102D2000EF704E2F50E0FA013297EE30F105B0F41B
:102D3000E058FF4F0C94ED26803F91F018F4883E48
:102D400068F40EC0843F51F40BC0883E48F0813FC8
:102D500029F406C093FB882780F9089580E0089540
:102D600081E008950E94171C0E948E160895CF934B
:102D7000DF9300D000D01F92CDB7DEB70F900F9039
:102D80000F900F900F90DF91CF910895CF93DF9325
:102D900000D000D000D0CDB7DEB726960FB6F8949D
:102DA000DEBF0FBECDBFDF91CF9108951F93CF93AC
:102DB000DF93C091BA0116E08091BB01C81799F06A
:102DC000D0E01C9FF0011D9FF00D1124E454FE4F34
:102DD0004081518162817381848195810E94C616F0
:102DE0002196C770E9CFDF91CF911F91089540914F
:102DF000EC015091ED016091EE017091EF01809135
:102E0000F0019091F1010C94C6160F931F93CF938C
:102E1000DF938091F10182958F7009F05DC0809100
:102E2000EE01882309F458C08091BA011091BB01CA
:102E30006091EC017091ED01C091EF01D091F00132
:102E400091E06F3F09F090E0292F06E0811709F427
:102E500043C0209721F07F3F21F030E003C031E0F4
:102E600001C0322F90E030FD34C0089FF001099F6F
:102E7000F00D1124DF01A454BE4F11963C9111971F
:102E8000371327C03C91361324C012963C911297F9
:102E900031111FC013964D915C9114974C1B5D0B23
:102EA000483C5105B0F48091F1018F7080618093AE
:102EB000F101EF53FE4F80818F70806180838CEE33
:102EC00091E00E944016DF91CF911F910F910C94D9
:102ED000D61601968770BACFDF91CF911F910F91CF
:102EE00008959F92AF92BF92CF92DF92EF92FF929E
:102EF0000F931F93CF93DF93CDB7DEB761970FB6D4
:102F0000F894DEBF0FBECDBF8C0185E0F801DE0175
:102F10001D9601900D928A95E1F7F801408151814B
:102F2000E2809091EC016091ED012091EF013091F0
:102F3000F0012115310531F06F3F31F481E09F3F01
:102F400019F403C081E001C080E0F82FF1709F2EDA
:102F500080FD46C1F801A380B4808CEEC82E81E0CC
:102F6000D82EF090EE01F501E21BF30BFF2009F4DF
:102F7000DFC08091F101E83CF10508F09BC0282FEB
:102F8000207F09F052C0561313C0491311C0FE2C04
:102F9000E1100EC08F7080618093F1010E94F716DE
:102FA000C6010E9440168091F101F801858358C145
:102FB000AB2831F05F3F31F481E04F3F19F403C09B
:102FC00081E001C080E080FD03C081E08E2502C069
:102FD00080E090E0F82FF170FF2E80FF1CC0809100
:102FE000BA012091BB0136E0821709F417C190E0C5
:102FF000389FF001399FF00D1124E454FE4F618198
:10300000561306C06081461303C06281E61203C0F6
:1030100001968770E9CFFE2CEE2009F421C1809142
:10302000F10181608093F1015AC0561306C0491323
:1030300004C0E11002C0F8019FC04D875E878D85F6
:103040009E850E94B216882379F1EE2069F12091C5
:10305000F101822F82958F7090E0029774F0809139
:10306000EC019091ED0198878F831986BB86AA8623
:103070002C87CE0107960E94401686E0F801ACEE40
:10308000B1E001900D928A95E1F70E9405170E9428
:10309000F7160DC0561729F14D875E878D859E85E1
:1030A0000E94B21681112CC0C8010E944016FF2454
:1030B000F394D6C0282F207F69F77A2DB98AA88A81
:1030C0006E2D89890E94B7168CEE91E00E94401601
:1030D00086E0F60111928A95E9F70E94F716F12C25
:1030E000BFC04913D9CFE110D7CFF8018583C801FC
:1030F0000E94401686E0F60111928A95E9F7B0C069
:10310000EE2091F22091F101822F82958F7090E054
:1031100002970CF4B2CF8091EC019091ED019A836B
:1031200089831B82BD82AC822E83CE010196A3CF00
:10313000E83CF10508F047C0FE2CEE2009F4B4CFBE
:10314000561330C049132EC02091F10120FD21C03B
:10315000822F82958F70482F50E041155105C9F09C
:10316000F80125834F30510541F08F5F982F9295DC
:10317000907F822F8F70892B8583C8010E94401613
:1031800086E0F801ACEEB1E001900D928A95E1F78E
:1031900042C086E0F801ACEEB1E001900D928A9554
:1031A000E1F75EC04D875E878D859E850E94B216D1
:1031B000811163CF8091F10181608093F101C80199
:1031C0000E9440164DC07A2DB98AA88A6E2D898931
:1031D0000E94B71686E0F60111928A95E9F71BC0A6
:1031E000EE2009F461CF4D875E878D859E850E9414
:1031F000B216F82E882309F457CF86E0F801ACEE1A
:10320000B1E001900D928A95E1F78CEE91E00E9479
:103210004D130E9405170E94F71622C04D875E8746
:103220008D859E850E94171C292F22952F70223094
:1032300028F49F7039F0811105C00BC0243028F4A8
:103240009F7049F4805E883020F0C8010E944016CB
:103250009F2CF92C05C0F8019581907F99F7F9CF43
:103260008F2D61960FB6F894DEBF0FBECDBFDF91F4
:10327000CF911F910F91FF90EF90DF90CF90BF9073
:10328000AF909F9008951F93CF93DF93CDB7DEB794
:103290002C970FB6F894DEBF0FBECDBF4F83588773
:1032A00069877A878B879C87CE0107960E94711762
:1032B0008823D1F09F8188852A853B85232B31F097
:1032C0008F3F31F481E09F3F19F403C081E001C0DA
:1032D00080E080FD47C04F81588569857A858B8560
:1032E0009C850E94C6163EC086E0FE013796DE0130
:1032F000119601900D928A95E1F7FF81E8856A8524
:103300007B856115710531F0EF3F31F481E0FF3FBE
:1033100019F403C081E001C080E080FD23C020914A
:10332000BB0130E0C9010196877099274091BA012D
:1033300050E084179507F1F1F983EA837D836C836C
:1033400096E0929FD001939FB00D1124A454BE4FDC
:10335000FE01319601900D929A95E1F78093BB01A1
:103360000E94D61616E08091BA019091BB01891790
:1033700071F1189FC001112484549E4F0E9471174F
:10338000882329F1E091BA011E9FF0011124E45431
:10339000FE4F4081518162817381848195810E94B9
:1033A000C6168091BA0190E00196877099278093A4
:1033B000BA01D9CF0E948A161092BB011092BA01AD
:1033C000ECEEF1E086E0DF011D928A95E9F72C969C
:1033D0000FB6F894DEBF0FBECDBFDF91CF911F9126
:1033E0000895EF92FF920F931F93CF93DF938C0179
:1033F000892B09F46CC0F12CEE24E394E8012196AA
:10340000F8018491843740F4843008F051C0813051
:1034100081F0823019F15BC0853709F444C0A8F10E
:103420009CE7980F903708F052C08F770E94A9133D
:1034300041C00E5F1F4FFE01849190E2980F9830BB
:1034400050F48770FE2D01C0FF0F8A95EAF78F2F89
:103450000E949A1C14C00E9453132DC00E5F1F4F70
:10346000FE01849190E2980F983060F48770FE2DF1
:1034700001C0FF0F8A95EAF78F2F0E94A01C0E94BF
:10348000C91C19C00E94A91316C00E5F1F4FFE0170
:10349000C491CC2381F08FE99FE00197F1F700C040
:1034A0000000C150F6CF0E5F1F4FFE01F49003C025
:1034B0000E9453138E018F2D882309F49FCFEFE9CB
:1034C000FFE03197F1F700C000008150F5CFDF91A8
:1034D000CF911F910F91FF90EF9008950895089557
:1034E0000C946F1A0C94701A0E94721A6093FB016C
:1034F0007093FC018093FD019093FE010C94701673
:103500000C94741A0F931F930091FB011091FC010E
:103510002091FD013091FE01602B712B822B932BAA
:103520001F910F910C94741A0F931F930091FB013C
:103530001091FC012091FD013091FE016023712367
:10354000822393231F910F910C94741A0F931F934E
:103550000091FB011091FC012091FD013091FE01D1
:1035600060277127822793271F910F910C94741A5B
:103570000C946F1A0E94B81A6093F7017093F801C7
:103580008093F9019093FA010C94701660E070E05A
:10359000CB010C94BA1A0F931F9341E050E060E006
:1035A00070E08A019B0104C0000F111F221F331F0E
:1035B0008A95D2F7C901B8011F910F910C94BA1ADC
:1035C0000F931F9341E050E060E070E004C0440FAF
:1035D000551F661F771F8A95D2F78091F70190914A
:1035E000F801A091F901B091FA018A019B01082B21
:1035F000192B2A2B3B2BC901B8011F910F910C9459
:10360000BA1A0F931F9341E050E060E070E004C0ED
:10361000440F551F661F771F8A95D2F74095509526
:10362000609570958091F7019091F801A091F90152
:10363000B091FA018A019B01082319232A233B2315
:10364000C901B8011F910F910C94BA1A0F931F93DF
:1036500041E050E060E070E004C0440F551F661F79
:10366000771F8A95D2F78091F7019091F801A09188
:10367000F901B091FA018A019B01082719272A272D
:103680003B27C901B8011F910F910C94BA1A0F93EF
:103690001F930091F7011091F8012091F9013091E9
:1036A000FA01602B712B822B932B1F910F910C949D
:1036B000BA1A0F931F930091F7011091F80120910E
:1036C000F9013091FA0160237123822393231F9122
:1036D0000F910C94BA1A0F931F930091F701109158
:1036E000F8012091F9013091FA01602771278227B2
:1036F00093271F910F910C94BA1A0895292F220F26
:10370000920F890FE82FE695E695E695877051E0D0
:1037100001C0550F8A95EAF785E0E89FF001112472
:10372000EE50FE4F20E030E070E04081CB01022EF1
:1037300002C0969587950A94E2F781708195842757
:103740008523842781932F5F3F4F2530310569F70B
:103750000895292F220F920F890F682F669566957D
:103760006695982F977085E0689FB001112440E01E
:1037700050E080E0FB01E40FF51FEE50FE4F20818A
:1037800030E0092E02C0369527950A94E2F72170A1
:103790003327042E01C0220F0A94EAF7822B4F5FD1
:1037A0005F4F4530510531F70895BF92CF92DF92B8
:1037B000EF92FF920F931F93CF93DF938C01C090F2
:1037C000F701D090F801E090F901F090FA018091B2
:1037D000FB019091FC01A091FD01B091FE01C82A6E
:1037E000D92AEA2AFB2ACFE1D0E0D701C6010C2E64
:1037F00004C0B695A795979587950A94D2F780FD52
:1038000004C0219790F7B12C07C0BC2EB8018C2FB3
:103810000E9482040197A9F38B2DDF91CF911F9114
:103820000F91FF90EF90DF90CF90BF900895CF93CE
:10383000DF93EC010E94D51BBE010E948204DF9140
:10384000CF9108951F93CF93DF93EB019091B9012E
:10385000992321F0CB010E94171C13C0882349F043
:10386000CB010E94D51B182F682FCE010E947E1B12
:1038700004C0CB010E94A91B182FBE01812F0E94FA
:103880008204DF91CF911F9108958091FF0185956A
:103890008595859508958091FF0187700895909191
:1038A000FF01977081E009F480E00895909119027A
:1038B00092FB222720F9281751F080FB92F9909370
:1038C000190280911802909119020C94621D0895BA
:1038D0008091190282FB882780F991E089270C9456
:1038E000561C81E00C94561C80E00C94561C809170
:1038F0000B02089590910B02892B80930B0208957F
:10390000809590910B02892380930B020895109269
:103910000B02089590910A02892B80930A02089560
:10392000809590910A02892380930A02089510924B
:103930000A02089590910902892B80930902089543
:10394000809590910902892380930902089510922D
:103950000902089580910002089508950C94AD1C09
:103960000C94AE1C9091190292FD08C09091000237
:10397000981721F0809300020C94B01C0895809158
:103980000002882329F01092000280E00C94B01C01
:103990000895E0910901F0910A0180910B02808362
:1039A000E0910901F0910A01908180910A02892B2E
:1039B0008083E0910901F0910A01908180910902D0
:1039C000892B808380910002882381F0E091090196
:1039D000F0910A019081892B808380910901909157
:1039E0000A010E94ED1D81110E94BF1C80910901F6
:1039F00090910A010C94F1110C94AD1C9091190254
:103A000092FD10C098E0899F90011124262B2093ED
:103A1000FF010E94E01A8091FF01859585958595AB
:103A20000C94FC1C0C94E01A1092FF0180E00C94A2
:103A3000FC1C2091FF01809582238093FF01982F29
:103A4000977041F430E0482F082E000C550B2417D6
:103A5000350721F49091190292FF07C0859585954D
:103A600085950E94011B0C94141D089580E0089513
:103A70006FEF7FEF80E090E00C94402780E090E0D3
:103A80000E941C2721E08A3E9E4F09F020E0822FF1
:103A9000089582E090E00C94142783E090E00C9469
:103AA0001427CF9384E090E00E941427C82F82E26D
:103AB00090E00E9414272C2F30E0A901582BCA0156
:103AC000CF910895CF93C92F682F84E090E00E9492
:103AD00022276C2F82E290E0CF910C942227AB0139
:103AE000BC018FE090E00C943427AB01BC0183E172
:103AF00090E00C94342760E070E0CB010C94751DCD
:103B000060E070E0CB010E946F1D0C947B1D6AEE9B
:103B10007EEF80E090E00E94402760E082E090E04D
:103B20000E94222760E083E090E00E94222710920A
:103B3000FB011092FC011092FD011092FE0160E069
:103B400084E090E00E94222760E082E290E00E9400
:103B5000222760E085E090E00E94222760E086E076
:103B600090E00E9422276FEF87E090E00E942227DA
:103B700040E050E0BA0188E090E00E94342760E025
:103B80008DE090E00E94222740E050E0BA0188E1F9
:103B900090E00E94342760E087E190E00E942227B5
:103BA00040E050E0BA018CE190E00E94342760E0F0
:103BB00070E080E290E00E94402740E050E0BA01CF
:103BC00088E190E00E9434270C94801D0C94871D9E
:103BD000682F8EE090E00C942227FC01329697E04B
:103BE00080E0915029F021912223D9F38F5FF9CF02
:103BF0000895662349F0FC013296089621916217D8
:103C000029F0E817F907D1F780E0089581E00895D9
:103C10009C01FC0132969FEF80E04191461789F0AC
:103C20009F3F19F4411101C0982F8F5F8630A9F78B
:103C30009F3F39F0F901E90FF11D97FDFA95628375
:103C4000089508959C012A5F3F4FFC01428146136D
:103C500001C01282019682179307B9F708950C9458
:103C6000081E0C94221E029626E0FC0111922A9551
:103C7000E9F7089508950C943A1E0C943A1E0E9498
:103C80003D1E0E94F7060E943B1E80E00E94AD068A
:103C9000811108C081E00E94AD0691E0811103C04E
:103CA00090E001C091E0892F08950C943A1E0C9485
:103CB000551E80912702843061F10E94571E80E0DA
:103CC0000E94D80B80E00E946D0410920D0220E447
:103CD00088E190E00FB6F894A895809360000FBE3D
:103CE0002093600083B7817F846083BF83B7816046
:103CF00083BF7894889583B78E7F83BF0FB6F8947F
:103D0000A8958091600088618093600010926000A7
:103D10000FBE08950C943A1E0E948A160E94530A00
:103D20000E94E5110E946D040C948A1E1F920F924E
:103D30000FB60F9211248F939F93AF93BF938091EF
:103D40000D02811113C080911F0290912002A09159
:103D50002102B09122024196A11DB11D80931F0244
:103D600090932002A0932102B0932202BF91AF91C1
:103D70009F918F910F900FBE0F901F90189582E02A
:103D800084BD93E095BD9AEF97BD80936E00089532
:103D90002FB7F89480911F0290912002A0912102E8
:103DA000B09122022FBF08952FB7F89460911F029F
:103DB0007091200280912102909122022FBF0895DC
:103DC0009C014FB7F89480911F0290912002A0911E
:103DD0002102B09122024FBF821B930B0895789469
:103DE0001F920F920FB60F9211248F939F93AF9350
:103DF000BF9380911F0290912002A0912102B09167
:103E000022020196A11DB11D80931F0290932002F2
:103E1000A0932102B0932202BF91AF919F918F9105
:103E20000F900FBE0F901F90189587E797E790931C
:103E30000108809300089AE088E10FB6F894A895ED
:103E4000809360000FBE90936000FFCF90938F012E
:103E500080938E010895809116020895CF93DF9389
:103E600000D01F92CDB7DEB790912702943011F5A4
:103E700089837B836A839093E9008FEF9091E800B8
:103E8000815095FD06C095ED9A95F1F700008111DE
:103E9000F5CF8091E80085FF0DC040E050E063E081
:103EA00070E0CE0101960E94AA218091E8008E77F1
:103EB0008093E8000F900F900F90DF91CF910895BD
:103EC000BC0184E00C942E1FBC0183E00C942E1FD7
:103ED00024E02093E9002FEF3091E800215035FDD8
:103EE00006C035ED3A95F1F700002111F5CF20918C
:103EF000E80025FF0BC040E050E066E070E00E9463
:103F0000AA218091E8008E778093E8000895CF93EE
:103F1000DF9321E02093E9002FEF3091E80021505A
:103F200035FD06C035ED3A95F1F700002111F5CFCA
:103F30002091E80025FF14C0EC0140E050E068E06B
:103F400070E00E94AA218091E8008E778093E800BB
:103F500088E0FE01AEE0B2E001900D928A95E1F7B3
:103F6000DF91CF910895CF93603219F52091270208
:103F70002430F9F4C091E900CF703091EC00232F88
:103F8000217030FD20E8C22B22E02093E90020912F
:103F9000E80020FF0BC040E050E060E270E00E94CB
:103FA000AA218091E8008E778093E800CF70C093BB
:103FB000E900CF91089580912602811109C00E94E5
:103FC00086230E94E3238091E20084608093E200D4
:103FD000089510922602089508950895089542E0E4
:103FE00061EC81E00E94FF2242E261EC84E00E94E9
:103FF000FF2242E261EC82E00E94FF2242E260EC9A
:1040000083E00C94FF2280912902833009F462C07E
:1040100030F4813071F0823009F49BC008958A3009
:1040200009F487C08B3009F46DC0893009F0A9C04C
:1040300020C080912802813A09F0A3C08091E80055
:10404000877F8093E80080912C0290912D02892B2C
:1040500021F468E08EE092E003C060E080E090E050
:1040600070E00E9440228091E8008B778093E80006
:10407000089580912802813209F083C080912C023A
:1040800090912D02009719F0029709F07AC0809163
:10409000E800877F8093E8008091E80082FD05C0FA
:1040A000809127028111F8CF6CC02091F30080919C
:1040B000F20090E0922B029729F48091F1008B7F1F
:1040C000813021F48091F100809316028091E80004
:1040D0008B7753C080912802813A09F052C08091B9
:1040E0002C0290912D02892B09F04BC08091E800A1
:1040F000877F8093E8008091E80080FFFCCF80916B
:10410000150136C0809128028132D9F580912C02A8
:1041100090912D02892BA9F58091E800877F8093EB
:10412000E8000E94342380912A02809315010C94A8
:104130008A1680912802813221F58091E800877FDC
:104140008093E8000E94342380912B028093170211
:10415000089580912802813AA1F48091E800877F38
:104160008093E8008091E80080FFFCCF80911702E7
:104170008093F1008091E8008E778093E8000C94A2
:10418000342308951F93CF93DF93CDB7DEB7A09765
:104190000FB6F894DEBF0FBECDBF84B7877F84BF54
:1041A0000FB6F894A89580916000886180936000B4
:1041B000109260000FBE90E080E80FB6F8948093F4
:1041C0006100909361000FBE0E9461120E948623DD
:1041D0000E94E3238091E20084608093E20078945F
:1041E0000E9478260E946F128BE091E00E94E011FD
:1041F00013E0809127028530A9F480912702853051
:1042000079F40E94591E809125028823B1F30E94FF
:104210003F1E882391F30E9494210E948A16EDCFBD
:104220000E948C1E0E94791280912702843009F529
:104230001093E9008091E80082FF1BC08091E800A4
:1042400085FF0AC040E050E060E270E0CE010196D8
:104250000E94F52191E001C090E08091E8008B7709
:104260008093E800992329F060E2CE0101960E9434
:104270008D0D0E946B12BDCF0C943E21292F332748
:1042800023303105C9F060F42130310581F022304E
:10429000310509F041C08BE590E026EB32E040C0EB
:1042A00021323105E1F02232310531F135C082E1B0
:1042B00090E021E133E034C099278130910549F045
:1042C00028F0029749F5E0E9F2E005C0E2EBF2E000
:1042D00002C0E4EAF2E0849190E09F0121C06330E3
:1042E0007105D0F4660F771FFB01E957FE4F20815F
:1042F000318189E090E014C06330710568F4FB01FE
:10430000EE0FFF1FEF57FE4F20813181FB01E25876
:10431000FE4F808190E004C080E090E020E030E03B
:10432000FA0131832083089580E189BD82E189BD4E
:1043300009B400FEFDCF8091D8008F7D8093D80016
:104340008091E00082608093E0008091E00081FD38
:10435000FCCF0895CF92DF92EF92FF920F931F93BD
:10436000CF93DF93EC018B017A010E9453238111DB
:1043700033C0E114F10439F0F70180819181081B09
:10438000190BC80FD91FC12CD12C0115110519F11A
:104390008091E80085FD16C08091E8008E778093BB
:1043A000E800E114F10449F0F70180819181C80E21
:1043B000D91ED182C08285E00FC00E94532388237A
:1043C00021F30AC089918093F10001501109FFEF98
:1043D000CF1ADF0ADACF80E0DF91CF911F910F91E2
:1043E000FF90EF90DF90CF900895CF92DF92EF9201
:1043F000FF920F931F93CF93DF93EC018B017A0110
:104400000E945323811133C0E114F10439F0F70104
:1044100080819181081B190BC80FD91FC12CD12C89
:104420000115110519F18091E80085FD16C08091F4
:10443000E8008B778093E800E114F10449F0F7017C
:1044400080819181C80ED91ED182C08285E00FC0C3
:104450000E945323882321F30AC08091F10089939D
:1044600001501109FFEFCF1ADF0ADACF80E0DF91A8
:10447000CF911F910F91FF90EF90DF90CF90089513
:1044800020912E0230912F022617370748F0611530
:10449000710539F42091E8002E772093E80001C0DF
:1044A000B901FC0120E06115710579F180912702C5
:1044B0008823F1F18530F1F18091E80083FD3CC063
:1044C0008091E80082FD2EC08091E80080FFEBCF54
:1044D0002091F3008091F20090E0922B611571051C
:1044E00051F08830910538F421912093F10061500A
:1044F00071090196F3CF21E0089709F020E080913F
:10450000E8008E778093E800CECF2111CFCF0AC08C
:1045100080912702882361F0853061F08091E80066
:1045200083FD0AC08091E80082FFF2CF80E0089509
:1045300082E0089583E0089581E0089520912E029D
:1045400030912F022617370748F06115710539F4AD
:104550002091E8002E772093E80001C0B901FC010A
:1045600020E06115710591F180912702882309F4FB
:1045700040C0853009F43FC08091E80083FD3DC014
:104580008091E80082FD2FC08091E80080FFE9CF94
:104590002091F3008091F20090E0922B611571055B
:1045A00059F08830910540F424912093F100319620
:1045B000615071090196F2CF21E0089709F020E0DF
:1045C0008091E8008E778093E800CBCF2111CCCF8B
:1045D0000AC080912702882361F0853061F08091C4
:1045E000E80083FD0AC08091E80082FFF2CF80E0FE
:1045F000089582E0089583E0089581E00895982F5A
:10460000973068F59093E900981739F07091EC00B5
:104610002091ED005091F00003C0242F762F50E040
:1046200021FD02C09F5FECCF3091EB003E7F3093C5
:10463000EB003091ED003D7F3093ED003091EB00C9
:1046400031603093EB007093EC002093ED005093B9
:10465000F0002091EE0027FDE5CF80E008958F70F7
:104660008093E90081E008958091280287FF11C0BE
:104670008091E80082FD05C0809127028111F8CF6A
:1046800011C08091E8008B770BC0809127028823AE
:1046900049F08091E80080FFF8CF8091E8008E77A4
:1046A0008093E80008952091E4003091E50095E6BC
:1046B0004091EC00842F817040FF23C08091E8007E
:1046C00080FD1DC080912702882399F0853099F0E4
:1046D0008091EB0085FD11C04091E4005091E50010
:1046E0002417350729F3915011F09A01E1CF84E0A6
:1046F000089582E0089583E0089581E0089580E0C0
:1047000008954091E80042FFDDCF08950E94F42310
:104710000E94FC23E0EEF0E0808181608083E8ED80
:10472000F0E080818F77808319BCA7EDB0E08C9199
:104730008E7F8C9380818F7E8083109226020895D5
:104740000F931F93CF93DF930E94F4230E94FC23C7
:10475000C8EDD0E088818F778883888180688883DE
:1047600088818F7D888319BC1092270210922302C2
:10477000109225021092240200EE10E0F8018081D0
:104780008B7F808388818160888342E060E080E065
:104790000E94FF22E1EEF0E080818E7F8083E2EED6
:1047A000F0E0808181608083808188608083F8016F
:1047B00080818E7F8083888180618883DF91CF9123
:1047C0001F910F910895E8EDF0E080818F7E808346
:1047D000E7EDF0E080818160808384E082BF81E04A
:1047E000809326020C94A023E8EDF0E080818E7F78
:1047F00080831092E20008951092DA001092E10096
:1048000008951F920F920FB60F9211242F933F938A
:104810004F935F936F937F938F939F93AF93BF93C8
:10482000EF93FF938091E10082FF0BC08091E20043
:1048300082FF07C08091E1008B7F8093E1000E949E
:1048400077268091DA0080FF1FC08091D80080FF1A
:104850001BC08091DA008E7F8093DA008091D900AE
:1048600080FF0DC080E189BD82E189BD09B400FEF1
:10487000FDCF81E0809327020E94DB1F05C019BC99
:10488000109227020E94E91F8091E10080FF19C069
:104890008091E20080FF15C08091E2008E7F8093BE
:1048A000E2008091E20080618093E2008091D80074
:1048B00080628093D80019BC85E0809327020E9413
:1048C000ED1F8091E10084FF30C08091E20084FF01
:1048D0002CC080E189BD82E189BD09B400FEFDCF15
:1048E0008091D8008F7D8093D8008091E1008F7EE9
:1048F0008093E1008091E2008F7E8093E2008091BE
:10490000E20081608093E20080912302882311F00D
:1049100084E007C08091E30087FD02C081E001C010
:1049200083E0809327020E94EE1F8091E10083FFC5
:1049300029C08091E20083FF25C08091E100877F3C
:104940008093E10082E080932702109223028091FD
:10495000E1008E7F8093E1008091E2008E7F809362
:10496000E2008091E20080618093E20042E060E03A
:1049700080E00E94FF228091F00088608093F00028
:104980000E94EC1FFF91EF91BF91AF919F918F918A
:104990007F916F915F914F913F912F910F900FBE3B
:1049A0000F901F9018951F920F920FB60F9211241F
:1049B0002F933F934F935F936F937F938F939F9327
:1049C000AF93BF93CF93DF93EF93FF93C091E90031
:1049D000CF708091EC00D82FD17080FDD0E810927C
:1049E000E9008091F000877F8093F00078940E9426
:1049F00017251092E9008091F00088608093F00004
:104A0000CD2BCF70C093E900FF91EF91DF91CF9153
:104A1000BF91AF919F918F917F916F915F914F91D6
:104A20003F912F910F900FBE0F901F9018951F93DD
:104A3000CF93DF93CDB7DEB7AA970FB6F894DEBF5A
:104A40000FBECDBFE8E2F2E08091F100819322E059
:104A5000E033F207C9F70E9403208091E80083FF4A
:104A60002EC18091280290912902492F50E04A30AE
:104A7000510508F024C1FA01E257FF4F0C94ED26CE
:104A8000803821F0823809F01AC108C080912402D0
:104A900090912502992389F082600FC080912C02A9
:104AA0008F70873008F00BC18093E9008091EB0094
:104AB00085FB882780F91092E9009091E800977FA4
:104AC0009093E8008093F1001092F100D1C0282F5C
:104AD0002D7F09F0F4C0882319F0823061F0EFC017
:104AE00080912A02813009F0EAC0933009F080E019
:104AF000809325022EC080912A0281112AC08091C4
:104B00002C028F702FEF280F263008F0D8C080932A
:104B1000E9002091EB0020FF1CC0933021F480912C
:104B2000EB00806214C09091EB0090619093EB00D9
:104B300021E030E0A90102C0440F551F8A95E2F739
:104B40004093EA001092EA008091EB008860809325
:104B5000EB001092E9008091E800877F8093E800E5
:104B60000E943423ACC08111AAC010912A021F7781
:104B70008091E3008078812B8093E3008091E800AE
:104B8000877F8093E8000E9434238091E80080FFB3
:104B9000FCCF8091E30080688093E300111102C094
:104BA00082E001C083E08093270289C08058823070
:104BB00008F085C080912A0290912B028C3D53E031
:104BC000950779F583E08A838AE289834FB7F89461
:104BD000DE01139620E03EE051E2E32FF0E0509337
:104BE0005700E49120FF03C0E295EF703F5FEF7044
:104BF0008E2F90E0EA3010F0C79601C0C0968D93DA
:104C00009D932F5F243149F74FBF8091E800877F44
:104C10008093E8006AE270E0CE0101960E94402293
:104C200016C060912C0270912D02AE014F5F5F4F54
:104C30000E943C21BC01892B09F441C09091E800FD
:104C4000977F9093E80089819A810E949E228091AB
:104C5000E8008B778093E80032C0803881F580913E
:104C6000E800877F8093E800809123028093F10021
:104C70008091E8008E7772CF811121C080912A0245
:104C800090912B0299270297D4F48091E800877FB6
:104C90008093E80080912A02809323020E943423AB
:104CA00080912302811106C08091E30087FD02C03C
:104CB00081E001C084E0809327020E94EF1F809171
:104CC000E80083FF0AC08091E800877F8093E800B6
:104CD0008091EB0080628093EB00AA960FB6F89467
:104CE000DEBF0FBECDBFDF91CF911F910895089514
:104CF000CF93809127028823A1F0C091E900CF7063
:104D00009091EC00892F817090FD80E8C82B109263
:104D1000E9008091E80083FD0E941725CF70C093C1
:104D2000E900CF910895DB018F939F930E9409279B
:104D3000BF91AF91A29F800D911DA39F900DB29F37
:104D4000900D11240895AA1BBB1B51E107C0AA1F97
:104D5000BB1FA617B70710F0A61BB70B881F991F1C
:104D60005A95A9F780959095BC01CD01089597FBC0
:104D7000072E16F4009407D077FD09D00E94A326D1
:104D800007FC05D03EF4909581959F4F089570954E
:104D900061957F4F0895A1E21A2EAA1BBB1BFD014E
:104DA0000DC0AA1FBB1FEE1FFF1FA217B307E4070A
:104DB000F50720F0A21BB30BE40BF50B661F771F62
:104DC000881F991F1A9469F7609570958095909542
:104DD0009B01AC01BD01CF010895EE0FFF1F0590AF
:104DE000F491E02D0994692796276927782787276A
:104DF00078270895A29FB001B39FC001A39F700DB3
:104E0000811D1124911DB29F700D811D1124911DD2
:104E100008950E94FA26A59F900DB49F900DA49F1F
:104E2000800D911D11240895F999FECF92BD81BD89
:104E3000F89A992780B50895A8E1B0E042E050E0E3
:104E40000C944827262FF999FECF92BD81BDF89A80
:104E5000019700B4021639F01FBA20BD0FB6F894BE
:104E6000FA9AF99A0FBE08950396272F0E942327D6
:104E70000E942227252F0E942327242F0C942327CA
:104E80000196272F0E9423270C942227DC01CB01B7
:104E9000FC01F999FECF06C0F2BDE1BDF89A31964A
:104EA00000B40D9241505040B8F70895F894FFCFE8
:104EB0002808641E140A321E0601022B1F871F6871
:104EC0001F641F601F01E200E900EA00B500B600A0
:104ED000B700CD008301CC008A0192019401210228
:104EE000230224022502260227022A02B300B4006C
:104EF0006F007000818283946697C63435E200E9C2
:104F000000EA00B500B600B700CD008301CC008AEE
:104F10000192019401210223022402250226022784
:104F2000022A02B300B4006F007000818283402225
:0E4F30007BC00323034503C802E10201030016
:00000001FF
