:100000000C9427030C946E030C946E030C946E03F3
:100010000C946E030C946E030C946E030C946E039C
:100020000C946E030C946E030C94A01F0C94DC1EB5
:100030000C9472100C946E030C946E030C946E036B
:100040000C946E030C946E030C946E030C946E036C
:100050000C946E030C9431100C946E030C946E038C
:100060000C946E030C946E030C946E030C946E034C
:100070000C946E030C946E030C946E030C946E033C
:100080000C946E030C946E030C946E030C946E032C
:100090000C946E030C946E030C946E030C946E031C
:1000A0000C946E030C946E030C946E03CC07CC0777
:1000B000060806085F087B08110A110A8608640909
:1000C00075097509A80DAB0DD30DE00DE70D070EF1
:1000D000A10EA10EA10EA10EA10E0A0E0C0E110E64
:1000E000360E580E5B0E5E0E810EEA1C111DBE1EF2
:1000F000111DBE1E5D1D801DBE1E761E861E3A2170
:100100003A214D214D2143214D214D214D213A21AF
:100110003A2148214D214D214821000000000000D6
:1001200000000000000000000000000000000000CF
:1001300000000000000000000000000000007E0F32
:1001400000D4FFFFFFC7000000780000000000009F
:1001500000002A2B28000000000000000000000022
:10016000000000000029000000002C1E3420212285
:1001700024342627252E362D3738271E1F202122EE
:10018000232425263333362E37381F040506070867
:10019000090A0B0C0D0E0F10111213141516171857
:1001A000191A1B1C1D2F3130232D35040506070895
:1001B000090A0B0C0D0E0F10111213141516171837
:1001C000191A1B1C1D2F3130354C44454255473AF6
:1001D0002064697361626C65642E0A00444542556F
:1001E000473A20656E61626C65642E0A000A00253C
:1001F00030313662003A200025303258000A722F22
:100200006320303132333435363738394142434454
:1002100045460A000A0025303258006B6579626F46
:100220006172645F7365745F6C65643A20005B7330
:100230005D004B6579626F617264207374617274E2
:100240002E0A004F6E6573686F743A20616374699B
:1002500076653A2025640A000A00253032582000CD
:100260006B6579626F6172645F7265706F72743A08
:1002700020006164645F6B65795F6269743A206332
:10028000616E2774206164643A20253032580A0078
:1002900064656C5F6B65795F6269743A2063616E57
:1002A00027742064656C3A20253032580A00290AE8
:1002B000002575002F002575005D280025640020AD
:1002C00000256400200025640020002564007C00D7
:1002D00025303258006D6F7573656B6579205B62F0
:1002E000746E7C782079207620685D287265702F86
:1002F00061636C293A205B0029001E001F0020006A
:1003000021002200230024002500260027002D00C4
:100310002E002A00000046002B0014001A000800DE
:10032000150017001C0018000C00120013002F000D
:100330003000000031004B003900040016000700B7
:1003400009000A000B000D000E000F0033003400FE
:100350000000280000004E00E10000001D001B000E
:1003600006001900050011001000360037003800A3
:10037000E500000052004C00E000E300E200000055
:100380000000000000002C0000000000E600015109
:100390000000500051004F00005C3A003B003C0060
:1003A0003D003E003F004000410042004300440049
:1003B00045000100000001000100010001000100F2
:1003C0000100010001000100010001000100010025
:1003D0000100000001000100010001000100010016
:1003E0000100010001000100010001000100010005
:1003F00000000100000001000100000001000100F8
:1004000001000100010001000100010001000100E4
:1004100001000000010001000100010001000000D6
:1004200000000000000001000000000001000100C9
:1004300000000100010001000631FF0974A101095B
:1004400075150026FF0095207508810209761500B4
:1004500026FF00952075089102C005010902A1013F
:1004600085020901A10005091901290815002501C6
:100470009508750181020501093009311581257F33
:1004800095027508810609381581257F9501750843
:100490008106050C0A38021581257F9501750881B2
:1004A00006C0C005010980A101850319012AB70012
:1004B000150126B700950175108100C0050C0901D2
:1004C000A101850419012AA002150126A0029501A7
:1004D00075108100C005010906A1018505050719F0
:1004E000E029E71500250195087501810205071926
:1004F0000029EF1500250195F07501810205081905
:10050000012905950575019102950175039101C0B9
:100510000660FF0961A1010962150026FF00952010
:10052000750881020963150026FF00952075089162
:1005300002C005010906A101050719E029E7150018
:10054000250195087501810295017508810105074E
:10055000190029FF150026FF009506750881000582
:1005600008190129059505750191029501750391F9
:1005700001C05B435D005B445D005B535D005B5706
:100580005D005B525D0009027B00040100A0FA09D6
:1005900004000001030101000921110100012240B2
:1005A000000705810308000A090401000203000096
:1005B0000009211101000122220007058203200009
:1005C00001070503032000010904020001030000E4
:1005D0000009211101000122B60007058403200053
:1005E0000A090403000203000000092111010001AF
:1005F00022220007058503200001070505032000CE
:10060000011201100100000008474C040001000124
:100610000200011E0341006E006F006D0061006C5E
:100620000079004B004200200041003600350049AF
:10063000000000140341006E006F006D0061006C4B
:100640000079004B0042000000040309040011245B
:100650001FBECFEFDAE0DEBFCDBF04B603FE27C07A
:100660008091720290917302A0917402B091750210
:100670008730904BA740B04BD1F410927202109289
:100680007302109274021092750214BE84B7877FB1
:1006900084BF0FB6F894A89580916000886180931C
:1006A0006000109260000FBEE0E0F8E3099511E0F1
:1006B000A0E0B1E0E0E3F8E402C005900D92A636B8
:1006C000B107D9F722E0A6E6B1E001C01D92A2373A
:1006D000B207E1F70E94660A0C9416240C940000FD
:1006E000FF93EF93E0916601F0916701309709F075
:1006F0000995EF91FF910895FC018591803011F0EB
:10070000EFDFFBCF0895FF27E0E230E247FF0CC0A8
:10071000419597FF09C0EDE26095709580959095A1
:10072000611D711D811D911D27FF02C0219530E3C0
:1007300050E2AA27660F771F881F991FAA1FA417C8
:1007400010F0A41B63955A95A9F7AA3008F0A95F89
:10075000A05DAF93F395611571058105910541F792
:10076000ED3211F4EF93F395F21718F43F93F395EC
:10077000FBCF8F91B5DFFA95E1F70895E991F991F3
:100780008591803021F0853219F0AADFF9CF0895E4
:1007900020E0E89455915532C1F3503311F4689438
:1007A00055915A3348F4505390F3220F022E220FE2
:1007B000220F200D250FF4CF0EF4219589919991E8
:1007C000533619F3533729F1533559F1BC018827B2
:1007D0009927E8945C3621F4899199916894559110
:1007E000543639F446EF7EF077FF0DC08FEF9FEF60
:1007F0000AC055374AE039F0583540E121F0523609
:1008000042E009F00895FF93EF937DDFEF91FF91B0
:10081000B7CFFF93EF93FC0181918030B9F360DF94
:10082000FBCFFF93EF9368DFF1CFDF93CF93CDB78B
:10083000DEB72596A3DFCF91DF9108953F924F92C7
:100840005F926F927F928F929F92AF92BF92CF9260
:10085000DF92EF92FF920F931F93CF93DF93CDB769
:10086000DEB729970FB6F894DEBF0FBECDBFFC01EF
:100870008081918123813481232B31F09F3F31F49A
:1008800091E08F3F19F403C091E001C090E090FD2A
:1008900005C67F0185E0DE01119601900D928A95D3
:1008A000E1F7F701228189819A81222349F00E9490
:1008B0004C12182F682F89819A810E94C51203C09B
:1008C0000E949912182F69817A81812F0E94A017A6
:1008D0008C01F7018281882309F4F2C0980122512A
:1008E0003F452031310508F019C18FEF93E00E9498
:1008F00093238111EFC0025137E6832E99249394FC
:10090000002379F08114F4E09F0609F4E3C0C401E8
:100910000E949323811101C001501FEF811A910A97
:10092000EFCF1E821F8218861986442443942AE042
:10093000322E84010F5F1F4FC4010E9493238E83C8
:100940001F82882309F4C6C09FEF980F933060F48C
:100950008F834E8222E0820E911CC8010E94932355
:100960008887811102C0B6C048018E010A5F1F4FFF
:10097000F80120812223E9F2213009F04CC0818165
:10098000813049F46801F2E0CF0ED11CF801828178
:100990000E94C3220AC0823051F46801F2E0CF0EF7
:1009A000D11CF80182810E94FF21860186C083301C
:1009B00049F46801F2E0CF0ED11CF80182810E9457
:1009C0009821F3CF843019F00F5F1F4F76C0F801E4
:1009D00022810E5F1F4F80E090E030E0205331090C
:1009E0002A30310568F4389EA001399E500D11243B
:1009F000C901840F951F0F5F1F4FF8012081EDCFB4
:100A0000009709F45AC0EFE9FFE03197F1F700C011
:100A100000000197F5CFE22FF0E0E65BFE4F549027
:100A2000822F86958695869590E0FC01E65CFE4FC8
:100A300064902770712C022E02C0759467940A94FA
:100A4000E2F7F1E06F227724FC01E65DFE4FA4900F
:100A5000B12C022E02C0B594A7940A94E2F731E0BB
:100A6000A322BB24FC01E65EFE4FC490D12C02C041
:100A7000D594C7942A95E2F781E0C822DD24611459
:100A8000710419F081EE0E94FF21A114B10419F044
:100A900086EE0E94FF21852D0E94C322AB2819F00B
:100AA00086EE0E949821672819F081EE0E94982115
:100AB000CD2819F08CE20E94C3220F5F1F4F58CF40
:100AC00000313FE5130709F0E0C481E00E94FA120B
:100AD0000E94E51B80912902877009F4DFC4F701A9
:100AE0008281882309F4DAC482E029960FB6F8944B
:100AF000DEBF0FBECDBFDF91CF911F910F91FF9051
:100B0000EF90DF90CF90BF90AF909F908F907F90AD
:100B10006F905F904F903F900C941F130031FFE552
:100B20001F0711F481E005C001312FE5120721F400
:100B300082E00E943C13CCCF033FFCE51F0799F4F1
:100B400006E221EE40EE63EF7CE509C0073DECE5EF
:100B50001E0711F506E221EE41EE67ED7CE5C701C7
:100B60000E94A516B7CF043F2CE5120708F03FC13D
:100B7000083D3CE5130731F407E225EE45EE68ED4C
:100B80007CE5EDCF093D9CE5190701F708E221E07E
:100B900045EE69ED7CE5E3CF882309F45DC1109251
:100BA000680102309CE5190708F440C10631ECE504
:100BB0001E0730F0C8018A5F9C45099708F036C1CE
:100BC0000E941A1190936B0180936A010031FCE539
:100BD0001F0709F4C3C008F041C008303CE5130703
:100BE00009F49AC0F0F404309CE5190709F487C0B1
:100BF00068F40230FCE51F0709F477C003301C4598
:100C000009F0E5C080916A01826076C006303CE55B
:100C1000130709F46EC008F07BC080916A018860F8
:100C20006BC00C309CE5190709F485C068F40A30E4
:100C3000FCE51F0709F474C008F079C00E946E211A
:100C400080916A01806858C00E303CE5130709F4B2
:100C500076C008F07FC080916A018BC00B3F9CE595
:100C6000190709F44FC018F50331FCE51F0709F413
:100C70007DC078F401313CE5130709F473C00231FB
:100C80001C4509F0A4C00E946E2180916A018F77F3
:100C900033C005319CE5190709F472C008F486C019
:100CA0000A3F1C4509F093C080916B013EC00F3F85
:100CB0002CE5120709F45FC058F40D3F8CE51807C6
:100CC00009F444C008F43FC080916B0182602DC0DC
:100CD0000130EDE51E0709F475C008F45DC002306F
:100CE0001D4509F074C060E06EC080916A018160AA
:100CF00003C080916A01806180936A0168C080911D
:100D00006A0111C080916B01826080936B015FC0AA
:100D100080916A018062F0CF80916A018064ECCF9B
:100D200080916A0188608460E7CF8160EECF809116
:100D30006A018E7FE1CF80916A018D7FDDCF809146
:100D40006A01877FD9CF80916B0118C080916B01B8
:100D50008D7FDBCF80916A018F7ECECF80916A013B
:100D60008F7DCACF80916A018F7BC6CF80916A0147
:100D7000877F8B7FC1CF80916B018D7F8E7FC5CFA9
:100D800080916A0182FB222720F991E0922790FB53
:100D900082F990FB83F9B0CF80916B01982F9095E9
:100DA00091708E7F892B90FB81F9AFCF0E946E21CD
:100DB00080916A0187FB222720F991E0922790FB1E
:100DC00087F99ACF61E08EE090E00E94A1236091C4
:100DD0006A0110916B0184E090E00E94A123612FD1
:100DE00082E290E00E94A1230E946E2173CE053F13
:100DF000FCE51F0731F406E221EE42EE65EF7CE5EB
:100E0000AECE053F2CE5120730F407E225EE44EEA6
:100E100064EF7CE5A4CE063F3CE5130709F0BCCEA9
:100E200007E225EE46EE66EF7CE599CE06318CE5CD
:100E3000180719F580912C028A7A91E009F490E064
:100E400090936901882311F065E301C069E28FE99D
:100E500091E00E94D4100EC006311C4509F056C026
:100E600080916901882309F417C365E38FE991E054
:100E70000E949B100E949C112DCE0E3D3CE5130755
:100E8000B9F140F401159CE5190789F001301C45C2
:100E9000E1F03CC00B35FDE51F07A9F10C352DE550
:100EA000120749F10A351D4589F581E02DC00E94E0
:100EB0006E218FEF94E3ECE081509040E040E1F749
:100EC00000C000000E940D1005CE80918601982F71
:100ED0009095917090FB80F980938601992319F089
:100EE0008CED91E002C08AEC91E00E947C03F2CD8F
:100EF0000E942B11EFCD80916B0182FB882780F936
:100F000091E0892701C080E00E942012F7018281D0
:100F100000811181882349F0C8010E944C12D82E0B
:100F2000682FC8010E94C51204C0C8010E9499120E
:100F3000D82EB8018D2D0E94441A8C01982EF701ED
:100F4000D280A580A2949FE0A92280912902877077
:100F500099F0DD2089F0812F807F803421F080E2BC
:100F6000800F883048F082E00E941F138091290290
:100F70008770CC24C3948111C12CB12EB2948FE020
:100F8000B8228B2D90E08C30910508F04AC2FC010C
:100F9000EA5AFF4F0C94F523812F807F1F7088231E
:100FA00011F01295107FDD20B9F0112309F424C24D
:100FB00080E2800F883010F0911006C080912C02E2
:100FC000182B10932C0205C080912B02182B109324
:100FD0002B020E949C1110C2802F0E949821112385
:100FE00009F41FC2005E1095083010F0911006C081
:100FF00080912C02182310932C0205C080912B02A3
:10100000182310932B020E949C110BC2812F807F0A
:101010001F70803211F01295107F992021F0F1E0BD
:101020009F1611F130C0DD20B1F0AA2081F001E05F
:10103000A0120DC080916B0182FDF3C180912D0241
:10104000182B181709F4EDC110932D02EAC18091F5
:101050002D02812B10C0AA2021F021E0A21609F454
:10106000E0C10E94961127C0DD2041F035E03A151D
:1010700008F4D7C1812F0E948E21D3C184E08A1544
:1010800008F4CFC118C0DD2049F0AA2099F3F70178
:10109000858180FFB1C18F708583ECCFAA2059F084
:1010A000093309F0BBC1FFEF17EE23E0F150104008
:1010B0002040E1F7B1C1812F0E948321B2C1812F6D
:1010C00086958695837019F0813059F0AAC1DD208C
:1010D00019F0C801937002C080E090E00E9483166E
:1010E000A6C1DD2019F0C801937002C080E090E035
:1010F0000E946D169CC1802FDD2019F00E941219EC
:1011000002C00E9459180E94AD1791C1812F8370AF
:1011100009F069C0D11089C1902F9295969597706A
:10112000990F990F802F8F70882E912CA12CB12CA4
:10113000092E04C0880C991CAA1CBB1C0A94D2F767
:1011400004FF12C04FE050E060E070E004C0440FC4
:10115000551F661F771F9A95D2F7DB01CA0180954C
:101160009095A095B09503C080E090E0DC011695C5
:101170001695412F4370423019F1C8F400912E02A8
:1011800010912F022091300230913102413059F0FC
:1011900088299929AA29BB29BC01CD016023712383
:1011A000822393230AC0802A912AA22AB32ABC014F
:1011B000CD01682979298A299B290E945D1335C1AF
:1011C00088299929AA29BB2900912E0210912F0262
:1011D0002091300230913102BC01CD01602771278E
:1011E00082279327EACFDD2019F0812F817001C07B
:1011F0008695882309F419C1902F9295969597703A
:10120000990F990F802F8F70882E912CA12CB12CC3
:10121000092E04C0880C991CAA1CBB1C0A94D2F786
:1012200004FF12C04FE050E060E070E004C0440FE3
:10123000551F661F771F9A95D2F7DB01CA0180956B
:101240009095A095B09503C080E090E0DC011695E4
:101250001695412F43704230D9F068F500916D0228
:1012600010916E0220916F0230917002413059F05E
:1012700088299929AA29BB29BC01CD0160237123A2
:10128000822393231EC0802A912AA22AB32A13C044
:1012900088299929AA29BB2900916D0210916E0213
:1012A00020916F0230917002BC01CD01602771273F
:1012B0008227932706C0BC01CD01682979298A2994
:1012C0009B290E94F012B1C01F70DD2039F0812FE0
:1012D0000E943C13802F0E948E21A7C0802F0E9465
:1012E0008321812F0E94FA12A0C0802F32EF931623
:1012F00009F440C0391538F090EF991661F0E1EF2C
:101300009E1699F174C0F3EF9F16D9F124EF92164F
:1013100009F44EC06CC0DD2019F134E03A1508F430
:1013200080C01F7181E090E0A0E0B0E0AC01BD01A1
:1013300004C0440F551F661F771F1A95D2F780917E
:101340006D0290916E02A0916F02B09170028A01BD
:101350009B01082719272A273B27C901B80125C067
:1013600025E02A1508F45DC0DCCFDD2029F0812FAF
:101370008F7130C0DD20D9F3812F8F710E94FA1256
:1013800050C0DD2079F01F7181E090E0A0E0B0E076
:10139000BC01CD0104C0660F771F881F991F1A95E5
:1013A000D2F703C060E070E0CB010E94F01239C0B8
:1013B000DD2099F01F71812F0E943C1380916B01F9
:1013C00082FD07C038E0139FC00111248360809321
:1013D0002902812F0E943C1324C081E00E941F1328
:1013E00081E08A15F0F482E00E941F131AC0DD200C
:1013F00039F0AA2009F4BBCF802F0E94FF2111C031
:10140000AA2009F4B9CF893349F49FEFE7EEF3E05E
:101410009150E040F040E1F700C00000802F0E94B2
:10142000982188EF8B0D843010F40E949916CC20FF
:10143000A9F18091290280FD31C0F70112828595C2
:10144000859585950E943C13C7010E941E048091DA
:10145000290285958595859529960FB6F894DEBF66
:101460000FBECDBFDF91CF911F910F91FF90EF90F5
:10147000DF90CF90BF90AF909F908F907F906F90B4
:101480005F904F903F900C94FA1201319FE519073D
:1014900009F052CB82E01ACB69E2E8CC29960FB66C
:1014A000F894DEBF0FBECDBFDF91CF911F910F919A
:1014B000FF90EF90DF90CF90BF90AF909F908F9074
:1014C0007F906F905F904F903F900895CF93DF9300
:1014D000CDB7DEB7AB970FB6F894DEBF0FBECDBF6A
:1014E00084B7877F84BF0FB6F894A8958091600079
:1014F000886180936000109260000FBE90E080E8E9
:101500000FB6F89480936100909361000FBE85B789
:10151000806885BF85B7806885BF80E19FE0909334
:101520006701809366010E94201F0E943F1F8091E7
:10153000E20084608093E2007894809163028823C3
:10154000A1F01091E9001F709091EC00892F81703B
:1015500090FD80E8182B1092E9008091E80083FD4F
:101560000E94031C1F701093E90082E084BD93E089
:1015700095BD9AEF97BD80936E0083E30E946D192D
:1015800082E30E946D1981E30E946D1980E30E943D
:101590006D1985E30E946D1900E111E0F801819158
:1015A0008F010E946D19F1E000321F07B9F7ECE6D8
:1015B000F1E086E791E0A1E9B1E0119211921D926C
:1015C0001D928E179F07C9F780E090E00E949B2331
:1015D0008A3E9E4F11F00E942B1182E090E00E9403
:1015E0009323809386010E941A1190936B0180933C
:1015F0006A010E9484198FE39CE90197F1F700C00A
:1016000000000E9484198091910180FF17C06FEF44
:1016100083E290E00E94A1236FEF84E290E00E94B9
:10162000A1236FEF85E290E00E94A1236FEF7FEF8F
:1016300080E090E00E94BF230E940D1083E090E0C4
:101640000E949323682F70E080E090E00E945D1379
:1016500083E290E00E949323813281F484E290E05F
:101660000E949323873051F485E290E00E949323F7
:1016700091E0883209F090E0892F01C080E080FF7E
:10168000A9C380E091E0909377018093760182E393
:1016900092E00E947C0380916302853009F04CC087
:1016A0008EE292E00E947C03F0E4FF2E00E112E162
:1016B00080916302853009F03BC0809163028430E1
:1016C00019F110927801E8E1F0E00FB6F894A895CE
:1016D000E09360000FBEF092600083B7817F84606A
:1016E00083BF83B7816083BF7894889583B78E7FEB
:1016F00083BF0FB6F894A8958091600088618093AD
:101700006000109260000FBE80916202882309F48D
:10171000CFCF0E948419E1E9F1E081919191892B69
:1017200009F039C32BE931E02E173F07B1F7C0CFDD
:101730000E946E210E9499160E948419882359F0F4
:101740008FB7F89440919B0150919C0160919D014D
:1017500070919E018FBF77E8472E71E0572EE1E927
:101760006E2EE1E07E2E00E010E00BA7F301A190C9
:10177000B1903F01F201C190D1902F01CA24DB2426
:10178000C114D104B1F40F5F1F4F0530110569F783
:101790008FEF8EA38FA318A60E9466108160782F0A
:1017A0009AA789A74EA15FA168A58AA50E94CF1517
:1017B00077C08091860181FD05C080E0EE24E3942E
:1017C000F12C48C08DEF91E00E947C0351E9852EF9
:1017D00051E0952EE12CF12CFF92EF9228EF31E0B1
:1017E0003F932F930E94150485EF91E00E947C03A4
:1017F000F40180812180F2E08F0E911C0E94D31BA6
:10180000382E822D0E94D31B232D30E0322F222729
:10181000A901482BCA019F938F938FEE91E09F936C
:101820008F930E9415048DEE91E00E947C03FFEFE0
:10183000EF1AFF0A0FB6F894DEBF0FBECDBF35E03A
:10184000E316F10449F6B9CF8F5FEE0CFF1C80312F
:1018500009F499CF96012E213F21232BA9F389A3C7
:101860004BA54AA3AE20BF2081E0AB2809F480E05D
:101870008BA30E9466108160782F9DA38CA349A141
:101880005AA16BA18DA10E94CF15000F111FF80165
:10189000E957FE4F80819181E826F926F182E082A6
:1018A00086E0EFE7F1E08E010F5F1F4FD801019056
:1018B0000D928A95E1F7C0908101D0908201E0906D
:1018C0008301F090840110928101109282011092A4
:1018D000830110928401C11003C0DD2009F451C0BE
:1018E00080917D0190917E010E9457109C01909102
:1018F0007C01992309F487C22333310508F441C0E0
:101900009F3F19F09F5F90937C01CC2061F00E9473
:10191000F2181C1414F491E001C09FEF899F802DF0
:10192000112480938101DD2061F00E94F2181D14C2
:1019300014F491E001C09FEF899F802D11248093C2
:101940008201309181013323E1F020918201222331
:10195000C1F055EB3503C0011124992319F0909380
:10196000810103C081E08093810135EB2303C00135
:101970001124992319F09093820103C081E0809390
:101980008201E11003C0FF2009F451C080917A0167
:1019900090917B010E9457109C01909179019923AD
:1019A00009F436C22536310508F441C09F3F19F0CD
:1019B0009F5F90937901EE2061F00E94D0181E1471
:1019C00014F491E001C09FEF899F802D1124809332
:1019D0008301FF2061F00E94D0181F1414F491E0DD
:1019E00001C09FEF899F802D112480938401309145
:1019F00083013323E1F0209184012223C1F045EBE0
:101A00003403C0011124992319F09093830103C07A
:101A100081E08093830155EB2503C00111249923B4
:101A200019F09093840103C081E080938401809138
:101A3000810181110BC080918201811107C08091C9
:101A40008301811103C08091840181110E94AD172F
:101A5000CB82DC82ED82FE8286E0F801AFE7B1E066
:101A600001900D928A95E1F70E9499169091850157
:101A7000891739F10E949916F82E8093850180917B
:101A8000860182FF1EC080FF04C08BE192E00E94AD
:101A90007C038091860180FF0CC01F92FF9286E13B
:101AA00092E09F938F930E9415040F900F900F90D8
:101AB0000F908091860180FF04C084E192E00E9433
:101AC0007C0380916302843009F0E5CD83E080934C
:101AD000E9008091E80082FFDECD8091E80085FF7B
:101AE00021C00E94C92081111BC080E2E82EF12C88
:101AF000680109C08091F100F60181936F01F1E066
:101B0000EF1AF10869F08091E80085FDF3CF80912C
:101B1000E8008B778093E8000E94C920882399F31E
:101B200091E001C090E08091E8008B778093E8001D
:101B3000992309F4B0CDE9818E2F90E0FC01319713
:101B4000E331F10508F0FDC0EE59FF4F0C94F52389
:101B50001A8289E064C08A81823009F432C18330FC
:101B600089F0813009F0EDC02FB7F89480919B0186
:101B700090919C01A0919D01B0919E012FBFBB83CC
:101B8000AC8323C0F801CE010B96A1E9B1E02C9102
:101B900011963C91119712963283238332968E17B9
:101BA0009F07A9F7D0C08A81823009F0CAC06B8133
:101BB0007C818D819E810E94FB2386E290E024C07F
:101BC0004C816B818A810E947A179D8301C1CD80EF
:101BD000DE80DC24CD24DC248C81EB809A8120E221
:101BE000E29E7001112430EA939FE00CF11C112455
:101BF000E80EF11CE80EF11C6D2DC70187960E94BE
:101C0000A1236C2DC70188960E94A1239CC00E942D
:101C1000281799C080E150C082E08A8389E98B83CC
:101C200092C0EA80FB80FE24EF24FE24AC80B12C1D
:101C30006801C70189599E4F9601201B310B2A1557
:101C40003B0508F080C049E9E41642E0F40628F4B8
:101C50000E949323F601848302C0F6011482FFEFF1
:101C6000EF1AFF0A2FEFC21AD20AE3CFEA80FB80F5
:101C7000FE24EF24FE24AC80B12C6801C7018959F1
:101C80009E4F9601201B310B2A153B0508F05BC0C7
:101C900039E9E31632E0F30620F4F60164810E948C
:101CA000A123FFEFEF1AFF0A2FEFC21AD20AE6CFE5
:101CB0000E94181748C082E08A8345C0EA80FB80F2
:101CC000FE24EF24FE24AC80B12C6801C701879666
:101CD0009601201B310B2A153B05A8F530E4E316CD
:101CE00031E0F30628F40E949323F601848302C0B6
:101CF000F6011482FFEFEF1AFF0A2FEFC21AD20A81
:101D0000E5CFEA80FB80FE24EF24FE24AC80B12CDA
:101D10006801C70187969601201B310B2A153B05E8
:101D200090F430E4E31631E0F30620F4F601648128
:101D30000E94A123FFEFEF1AFF0A2FEFC21AD20A67
:101D4000E8CF8FEF898380916302843009F0A3CCC0
:101D50008091E9008F702091EC00922F917020FD0E
:101D600090E8F92EF82A82E08093E9008091E8005B
:101D700080FF0CC040E050E060E270E0C8010E94CB
:101D8000FC208091E8008E778093E8008F2D8F7083
:101D90008093E90080CC09BD19BD09B400FEFDCFD8
:101DA0008091D8008F7D8093D8008091E000826080
:101DB0008093E0008091E00081FDFCCF0E946E21C5
:101DC00077CC86E290E00E9493231B821C821D82C6
:101DD0008E83B9CF60E086E290E00E94A1230E944A
:101DE00028170E94181761E283E290E00E94A12365
:101DF00067E084E290E00E94A12368E285E290E03F
:101E00000E94A1233ECC2D32314008F07BCDB9CDCC
:101E10002D32314008F0CCCD0ACE80914002089599
:101E20009FB7F89410923C029FBF90916302943048
:101E300009F057C09091E9009F703091EC00232F7A
:101E4000217030FD20E8922B25E02093E9002091BD
:101E5000EB0020FF43C02091EE0027FF3FC0209100
:101E60003202222321F02091E80025FF37C0109292
:101E7000320226E03091E80035FD15C03091630252
:101E8000343061F53091EB0035FD28C0215021F44C
:101E900081E08093320222C0EFE9FFE03197F1F751
:101EA00000C00000E7CF8093F1008091E80085FD3D
:101EB0000AC08091E80080FFFCCF8091E8008E7717
:101EC0008093E80006C08FB7F89421E020933C028D
:101ED0008FBF9F709093E90080E008959F7090936A
:101EE000E9008FEF0895CF93DF9300D01F92CDB715
:101EF000DEB790916302943011F589837B836A8306
:101F00009093E9008FEF9091E800815095FD06C015
:101F100095ED9A95F1F700008111F5CF8091E800D9
:101F200085FF0DC040E050E063E070E0CE01019617
:101F30000E94FC208091E8008E778093E8000F904B
:101F40000F900F90DF91CF910895BC0184E00C9425
:101F5000730FBC0183E00C94730F24E02093E9001D
:101F60002FEF3091E800215035FD06C035ED3A9550
:101F7000F1F700002111F5CF2091E80025FF0BC0FB
:101F800040E050E066E070E00E94FC208091E800B4
:101F90008E778093E8000895CF93DF9320910A0114
:101FA000222339F020916A0127FF03C060E224E078
:101FB00002C068E021E02093E9002FEF3091E800B3
:101FC000215035FD06C035ED3A95F1F7000021119D
:101FD000F5CF2091E80025FF1DC0EC0180910A019A
:101FE000811105C040E050E068E070E003C070E09F
:101FF00040E050E0CE010E94FC208091E8008E7706
:102000008093E80080E2FE01A1E4B2E001900D922D
:102010008A95E1F7DF91CF91089581E08093E00008
:1020200080E28093D8001092C9008FE19EE401976E
:10203000F1F700C0000087E090EBDC0180937202B2
:1020400090937302A0937402B09375029CE088E1B0
:102050000FB6F894A895809360000FBE909360002F
:10206000FFCF78941F920F920FB60F9211248F9387
:102070009F93AF93BF9380919B0190919C01A091FE
:102080009D01B0919E010196A11DB11D80939B0100
:1020900090939C01A0939D01B0939E01BF91AF913D
:1020A0009F918F910F900FBE0F901F9018959C01DC
:1020B0004FB7F89480919B0190919C01A0919D0154
:1020C000B0919E014FBF821B930B08952FB7F894D8
:1020D00080919B0190919C01A0919D01B0919E01E6
:1020E0002FBF08951F920F920FB60F9211248F9356
:1020F0009F93AF93BF9380917801811113C080911A
:102100009B0190919C01A0919D01B0919E014196EF
:10211000A11DB11D80939B0190939C01A0939D01F3
:10212000B0939E01BF91AF919F918F910F900FBE81
:102130000F901F90189520910A01222351F12091B0
:102140006A0127FF26C0262F2695269526952E3133
:1021500078F4FC01E20FF11D677081E090E001C0AE
:10216000880F6A95EAF78095928189238283089582
:102170008091860180FF17C01F926F9380E992E0E3
:102180009F938F930E9415040F900F900F900F90C4
:102190000895FC0106962281621301C012823196D5
:1021A000E817F907C1F7089520910A01222349F1A0
:1021B00020916A0127FF25C0262F26952695269572
:1021C0002E3170F4FC01E20FF11D677081E090E0A8
:1021D00001C0880F6A95EAF79281892B828308955E
:1021E0008091860180FF25C01F926F9382E792E065
:1021F0009F938F930E9415040F900F900F900F9054
:102200000895FC0132962FEF30E04191641789F078
:102210002F3F19F4411101C0232F3F5F3630A9F73A
:102220002F3F39F0FC01E20FF11D27FDFA95628383
:1022300008950895CF9384E090E00E949323C82FDF
:1022400082E290E00E9493232C2F30E0A901582BCA
:10225000CA01CF9108956AEE7EEF80E090E00E947F
:10226000BF2360E082E090E00E94A12360E083E071
:1022700090E00E94A12310922E0210922F02109241
:1022800030021092310260E084E090E00E94A123CD
:1022900060E082E290E00E94A12360E085E090E0AF
:1022A0000E94A12360E086E090E00E94A1236FEFEE
:1022B00087E090E00E94A12340E050E0BA0188E06E
:1022C00090E00E94B32360E08DE090E00E94A123A3
:1022D00040E050E0BA0188E190E00E94B32360E062
:1022E00087E190E00E94A12340E050E0BA018CE138
:1022F00090E00E94B32360E070E080E290E00E94F2
:10230000BF2340E050E0BA0188E190E00E94B3238F
:1023100040E050E0BA018FE090E00E94B32340E03B
:1023200050E0BA0183E190E00C94B32380912D0238
:10233000811110922D020895EF92FF920F931F9337
:10234000CF9390912C0280912B02892B20912A020D
:10235000982F922B90939F0180912D028823D9F082
:10236000892B80939F0180910A01882331F080910D
:102370006A0187FF02C08EE101C086E0E1EAF1E078
:1023800090E0815028F021912223D9F39F5FF9CF6B
:1023900091110E949611E0917601F09177013097AA
:1023A00009F448C080910A01882359F080916A019C
:1023B00087FF07C080919F018093A00185E08093F3
:1023C0009F010280F381E02D8FE991E009958091D2
:1023D000860182FF2FC080FF04C080E692E00E9449
:1023E0007C030FE911E0C8E08AE5E82E82E0F82ED0
:1023F0008091860180FF0CC0F80180811F928F932D
:10240000FF92EF920E9415040F900F900F900F9083
:10241000C1500F5F1F4FC111EBCF8091860180FF2C
:1024200009C088E592E0CF911F910F91FF90EF9046
:102430000C947C03CF911F910F91FF90EF90089522
:10244000CF93DF93C0916B01C2FB992790F9981746
:1024500001F1D82F80FBC2F9C0936B0160916A0132
:1024600084E090E00E94A1236C2F82E290E00E9421
:10247000A1238091860180FF0CC01F92DF9383E42B
:1024800092E09F938F930E9415040F900F900F90EE
:102490000F90DF91CF910895BF92CF92DF92EF928C
:1024A000FF920F931F93CF93DF938C01C0906D0227
:1024B000D0906E02E0906F02F090700280912E0238
:1024C00090912F02A0913002B0913102C82AD92AEE
:1024D000EA2AFB2ACFE1D0E0D701C6010C2E04C0C6
:1024E000B695A795979587950A94D2F780FD04C075
:1024F000219790F7B12C07C0BC2EB8018C2F0E94F9
:10250000441A0197A9F38B2DDF91CF911F910F9161
:10251000FF90EF90DF90CF90BF900895CF93DF931F
:10252000EC010E944C12BE010E94441ADF91CF912F
:10253000089520E1929F800D1124682F669566957D
:102540006695982F977085E0689FB001112440E050
:1025500050E080E0FB01E40FF51FE950FE4F2081C1
:1025600030E0092E02C0369527950A94E2F72170D3
:102570003327042E01C0220F0A94EAF7822B4F5F03
:102580005F4F4530510531F7089520E1929F800D4E
:102590001124E82FE695E695E695877051E001C095
:1025A000550F8A95EAF785E0E89FF0011124E9507C
:1025B000FE4F20E030E070E04081CB01022E02C0EF
:1025C000969587950A94E2F78170819584278523F3
:1025D000842781932F5F3F4F2530310569F7089598
:1025E00060936D0270936E0280936F0290937002FD
:1025F0000C9451210F931F9341E050E060E070E094
:1026000004C0440F551F661F771F8A95D2F7409567
:1026100050956095709580916D0290916E02A09199
:102620006F02B09170028A019B01082319232A23AB
:102630003B23C901B8011F910F910C94F012209116
:1026400029028095822380932902982F977041F464
:1026500030E0482F082E000C550B2417350721F4C5
:1026600090916B0192FF07C08595859585950E9495
:10267000FA121092290208950F931F9341E050E03F
:1026800060E070E004C0440F551F661F771F8A95F5
:10269000D2F780916D0290916E02A0916F02B0917D
:1026A00070028A019B01082B192B2A2B3B2BC90195
:1026B000B8011F910F910C94F01260932E02709349
:1026C0002F0280933002909331020C94512180911B
:1026D000F6019091C501891719F08F5F8770FBCFC4
:1026E00008950F931F93CF93DF938091C401829538
:1026F0008F7009F05DC08091C101882309F458C032
:102700008091F6011091C5016091BF017091C001E7
:10271000C091C201D091C30191E06F3F09F090E0F8
:10272000292F06E0811709F443C0209721F07F3F4D
:1027300021F030E003C031E001C0322F90E030FDE5
:1027400034C0089FF001099FF00D1124DF01AA5346
:10275000BE4F11963C911197371327C03C91361309
:1027600024C012963C91129731111FC013964D91BF
:102770005C9114974C1B5D0B483C5105B0F4809163
:10278000C4018F7080618093C401E553FE4F808146
:102790008F70806180838FEB91E00E941E04DF9137
:1027A000CF911F910F910C94671301968770BACF48
:1027B000DF91CF911F910F9108959F92AF92BF9299
:1027C000CF92DF92EF92FF920F931F93CF93DF93FD
:1027D000CDB7DEB761970FB6F894DEBF0FBECDBFA1
:1027E0008C0185E0F801DE011D9601900D928A951D
:1027F000E1F7F80190818181E2803091BF01609121
:10280000C0014091C2015091C3014115510531F001
:102810006F3F31F421E03F3F19F403C021E001C0D4
:1028200020E0F22FF1709F2E20FD23C1F801C3801C
:10283000D4802FEBA22E21E0B22EF090C101F60140
:10284000E41BF50BFF2009F4CEC02091C401E83C45
:10285000F10508F099C0422F407F09F051C068137C
:1028600011C039130FC0FE2CE1100CC02F70206175
:102870002093C401C5010E941E048091C401F80187
:10288000858337C1CD2831F08F3F31F421E09F3F60
:1028900019F403C021E001C020E020FD03C021E0C5
:1028A0002E2502C020E030E0F22FF170FF2E20FF35
:1028B0001DC02091F6014091C50156E0241709F48E
:1028C000F6C030E0529FF001539FF00D1124EA53FF
:1028D000FE4F6181861306C06081961303C062813A
:1028E000E61204C02F5F3F4F2770E8CFFE2CEE208A
:1028F00009F4FFC08091C40181608093C40150C07D
:10290000681307C0391305C0E11003C0F80125831F
:102910008DC09D878E878D859E850E942821882366
:1029200069F1EE2059F12091C401822F82958F70B8
:1029300090E0029774F08091BF019091C001988758
:102940008F831986DB86CA862C87CE0107960E9464
:102950001E0486E0F801AFEBB1E001900D928A957C
:10296000E1F70E9471130DC06817E1F09D878E8713
:102970008D859E850E94282181111EC0C8010E945C
:102980001E04FF24F394B5C0422F407F69F78FEBFC
:1029900091E00E941E0486E0F50111928A95E9F704
:1029A000F12CA7C03913E2CFE110E0CFF801258365
:1029B000C8010E941E0457C0EE2001F32091C401FB
:1029C000822F82958F7090E002971CF28091BF0158
:1029D0009091C0019A8389831B82DD82CC822E83F1
:1029E000CE010196B4CFE83CF105E8F5FE2CEE20CF
:1029F00029F2681327C0391325C02091C40120FD96
:102A000018C0822F82958F70482F50E041155105D4
:102A100081F0F80125834F30510541F08F5F982FE9
:102A20009295907F822F8F70892B8583C8010E9499
:102A30001E0486E0F801AFEBB1E001900D928A959B
:102A4000E1F757C09D878E878D859E850E9428213E
:102A500081117FCF8091C40181608093C401C8013E
:102A60000E941E0446C086E0F50111928A95E9F79E
:102A700040C0EE2009F482CF9D878E878D859E858C
:102A80000E942821F82E882309F478CF86E0F801E7
:102A9000AFEBB1E001900D928A95E1F78091BF0113
:102AA0009091C0010E948E120E94711322C09D87D6
:102AB0008E878D859E850E948E12292F22952F70DC
:102AC000223028F49F7039F0811105C00BC02430EA
:102AD00028F49F7049F4805E883020F0C8010E947D
:102AE0001E049F2CF92C05C0F8019581907F99F761
:102AF000F9CF8F2D61960FB6F894DEBF0FBECDBF14
:102B0000DF91CF911F910F91FF90EF90DF90CF90C9
:102B1000BF90AF909F90089590916A0192FF0DC071
:102B2000282F2871283019F4877F846006C0282F49
:102B30002471243011F48B7F886093FF0DC0282FFF
:102B40002871283119F4877E846106C0282F2471EA
:102B5000243111F48B7E886120916B0120FF0DC020
:102B6000382F3871383019F4877F816006C0382FCC
:102B70003171313011F48E7F886021FF0DC0282F14
:102B80002871283119F4877E816106C0282F2171B0
:102B9000213111F48E7E886194FD877E08951F9304
:102BA000CF93DF93CDB7DEB767970FB6F894DEBF4C
:102BB0000FBECDBF342F4B8B252F5C8B6D8B7E8B47
:102BC0008F8B4E895F89611110922B0286E0FE0186
:102BD0003D96DF01982F1D929A95E9F73D872E8744
:102BE0006F87598B488BDE01179601900D928A955D
:102BF000E1F7CE0107960E94DD1381113EC086E009
:102C0000FE013796DE01119601900D928A95E1F74B
:102C1000FF81E8856A857B856115710531F0EF3F9D
:102C200031F481E0FF3F19F403C081E001C080E08E
:102C300080FD23C02091C50130E0C9010196877055
:102C400099274091F60150E08417950779F1F983AF
:102C5000EA837D836C8396E0929FD001939FB00DB1
:102C60001124AA53BE4FFE01319601900D929A9500
:102C7000E1F78093C5010E94671316E08091F60189
:102C80009091C5018917F9F0189FC00111248A534A
:102C90009E4F0E94DD138823B1F08091F60190E0F1
:102CA0000196877099278093F601E8CF0E946E21E4
:102CB0001092C5011092F601EFEBF1E086E0DF0122
:102CC0001D928A95E9F767960FB6F894DEBF0FBE9E
:102CD000CDBFDF91CF911F91089520913A0230919D
:102CE0003B022817390771F090933B0280933A0218
:102CF000E0917601F0917701309721F00084F18521
:102D0000E02D099408952091380230913902281756
:102D1000390771F09093390280933802E09176017F
:102D2000F0917701309721F00680F781E02D09942A
:102D30000895E0917601F0917701309721F00190AC
:102D4000F081E02D099480E008950F931F93CF93B5
:102D5000DF93C42FD22FFC0182818823C9F04093D6
:102D600068010E946610909337028093360280E2D9
:102D70008C0F883008F057C0C77081E001C0880F01
:102D8000CA95EAF7DF91CF911F910F910C948E2194
:102D900080916801481330C08091360290913702CB
:102DA0000E945710883C910538F510E21D0FCD1791
:102DB000B9F080E28C0F883040F4C77081E001C028
:102DC000880FCA95EAF70E948321183028F581E020
:102DD0009D2F977001C0880F9A95EAF70E948E2167
:102DE000802F0E94C3221830F0F4D77081E001C018
:102DF000880FDA95EAF70AC080E28C0F883098F4E1
:102E0000C77081E001C0880FCA95EAF7DF91CF91C2
:102E10001F910F910C948321802FDF91CF911F91EF
:102E20000F910C94C322DF91CF911F910F910895C0
:102E3000CF93DF93C7E6D1E060E0CE010E94A123EB
:102E40002196C11584E0D807B9F7DF91CF91089595
:102E50006F927F928F929F92AF92BF92CF92DF92AA
:102E6000EF92FF920F931F93CF93DF93C0E0D0E0D8
:102E700000E010E03E0187E2680E711C6301C00EA5
:102E8000D11EE12CF12C4E01800E911EF401EE0DAD
:102E9000FF1DE850FD4FA590B4906B2DC6010E9418
:102EA000A1236A2DC60101960E94A12382E0E80EAB
:102EB000F11C82E0C80ED11C80E2E816F10431F763
:102EC000005E1F4F003A1105C9F6C056DF4FC034EF
:102ED00081E0D80769F6DF91CF911F910F91FF90A4
:102EE000EF90DF90CF90BF90AF909F908F907F90AA
:102EF0006F9008950F931F93CF93DF93C42FD0E06B
:102F0000CC0FDD1F20E2629FC00DD11D112430EADD
:102F1000839FC00DD11D1124CE0187960E9493235B
:102F2000082F10E0102F0027CE0188960E949323CF
:102F30009801282BC901DF91CF911F910F9108951E
:102F4000462F823038F4753028F4603118F4672F3A
:102F50000C947A1780E090E008958091860183FFB9
:102F60007EC085ED92E00E947C03809180011F92DB
:102F70008F9380ED92E09F938F930E9415048EECC7
:102F800092E00E947C0380918101282F082E000C82
:102F9000330B3F938F938BEC92E09F938F930E9420
:102FA000150489EC92E00E947C0380918201282F15
:102FB000082E000C330B3F938F9386EC92E09F9387
:102FC0008F930E94150484EC92E00E947C03809110
:102FD0008301282F082E000C330B3F938F9381EC35
:102FE00092E09F938F930E9415048FEB92E00E94D2
:102FF0007C0380918401282F082E000C330B3F9313
:103000008F938CEB92E09F938F930E94150489EB32
:1030100092E00E947C0380917C011F928F9386EB4B
:1030200092E09F938F930E94150484EB92E00E949C
:103030007C03809171021F928F9381EB92E09F93AA
:103040008F930E9415048EEA92E00E947C038DB754
:103050009EB74C960FB6F8949EBF0FBE8DBF0E94D0
:10306000661020918101211104C020918201222348
:1030700021F090937E0180937D01209183012111A5
:1030800004C020918401222321F090937B0180933E
:103090007A01E0917601F0917701309749F082E072
:1030A00080937F010480F581E02D8FE791E0099402
:1030B0000895803F39F49091820197FF35C01092B6
:1030C000820159C0813F29F4909182011916BCF305
:1030D0002BC090918101823F29F497FF25C0109267
:1030E000810149C0833F19F41916CCF31DC090919A
:1030F0008301893F29F41916BCF4109283013BC067
:103100008A3F19F497FF10C0F8CF8B3F39F49091A4
:10311000840197FF09C0109284012DC08C3F21F4D7
:10312000909184011916BCF39CE0980F953080F4BF
:1031300021E030E0A90102C0440F551F9A95E2F743
:10314000CA0180959091800189238093800113C0EA
:103150008D3F21F4809171028E7F0BC08E3F21F450
:10316000809171028D7F05C08F3F29F4809171029B
:103170008B7F8093710280918101811106C08091C3
:103180008201811102C010927C0180918301811122
:1031900006C080918401811102C0109279010895C6
:1031A0008091710280FD16C081FD16C082FD18C09D
:1031B00080917901882391F0883290F428E0829FF1
:1031C000C001112468E270E00E94E123862F672B82
:1031D00029F007C082E0089584E0089581E0089511
:1031E00088E008958091710280FD14C081FD14C0B3
:1031F00082FD16C080917C01882381F0843180F4A7
:1032000022E3829FC001112464E170E00E94E12367
:10321000862F08958CE0089589E1089585E008954A
:1032200082E30895803F21F40E94F218819504C042
:10323000813F29F40E94F218809382010895823F11
:1032400021F40E94F218819504C0833F29F40E9462
:10325000F218809381010895893F19F40E94D018D3
:1032600005C08A3F31F40E94D01881958093830174
:1032700008958B3F21F40E94D018819504C08C3FA3
:1032800029F40E94D0188093840108959CE0980F3F
:10329000953078F421E030E0A90102C0440F551FB9
:1032A0009A95E2F7CA0190918001892B8093800161
:1032B00008958D3F21F48091710281600BC08E3F93
:1032C00021F480917102826005C08F3F29F48091C2
:1032D00071028460809371020895F894E82FE2955A
:1032E000EF70F0E031A1282F2F7081E090E001C055
:1032F000880F2A95EAF7982F9095932391A392A18E
:10330000892B82A3789408959F92AF92BF92CF9217
:10331000DF92EF92FF920F931F93CF93DF930BE017
:1033200011E0CCE6D1E086E7E82E81E0F82E912C82
:10333000CC24C394D12CB801D8018C91F894E82FF7
:10334000E295EF70F0E021A18F70A60102C0440F5A
:10335000551F8A95E2F7CA01922F982B91A392A14B
:103360008095892382A3789400C0E0E1F1E020E019
:1033700030E0A12CB12C4191842F82958F7090E088
:10338000DC0190968C9190E04F7002C095958795E6
:103390004A95E2F780FD08C0C601022E02C0880FE0
:1033A000991F0A94E2F702C080E090E0A82AB92AA7
:1033B0002F5F3F4F20313105F1F60F5F1F4FFB01AB
:1033C00080810E946D19F0EAFA95F1F78881998160
:1033D000A816B90621F0B982A88281E001C080E078
:1033E000982A2296EC16FD0609F0A5CF992049F0FF
:1033F00081E0809335020E9466109093340280939E
:10340000330280913502882391F1809133029091AB
:1034100034020E945710069750F180916C019091F0
:103420006D01909392018093910180916E01909132
:103430006F0190939401809393018091700190911A
:103440007101909396018093950180917201909102
:1034500073019093980180939701809174019091EA
:10346000750190939A018093990110923502892DEC
:10347000DF91CF911F910F91FF90EF90DF90CF9050
:10348000BF90AF909F900895CF93DF930E94A017B5
:10349000EC018238910559F1A0F48133910509F4CA
:1034A00073C040F48932910509F467C08A9709F422
:1034B00072C084C08533910509F458C0C997B9F02A
:1034C0007DC0833E910571F138F4803E9105B1F0E5
:1034D000823E910511F172C0863E9105B9F1873E99
:1034E0009105C9F1843E910509F068C024C080911E
:1034F0006A0180FD5DC081FD5BC060C080916A0192
:1035000080FD50C080916B0180FF49C180916A01AC
:1035100084FD43C1C3EED0E042C180916A0182FFC5
:103520003EC1F4CF80916A0182FD3FC080916B0162
:1035300080FD3EC0EBCF80916B0181FF30C1809157
:103540006A0184FD2AC1C7EED0E029C180916A01D9
:1035500083FF25C1F4CF80916A0183FD2CC0809147
:103560006B0181FFECCFC4EED0E019C180916A01FC
:1035700085FF15C1C9E2D0E012C180916A0185FFC3
:103580000EC1C5E3D0E00BC180916A0186FF07C17F
:10359000CAE2D0E004C180916A0186FF00C1C1E3A4
:1035A000D0E0FDC0C9E3D0E0FAC0C2EED0E0F7C081
:1035B000C0EED0E0F4C0C6EED0E0F1C0C11581E5A8
:1035C000D80708F066C0C11520E5D207E0F0CE01AB
:1035D00074E0969587957A95E1F783709C2F9370A8
:1035E00021E030E002C0220F331F9A95E2F73C68D9
:1035F000382BCF70C695C69540E2C49FE0011124D8
:10360000C22BD32BCCC0C83ED10560F5C03ED1053E
:1036100008F0C5C0C83AD105B0F4C53AD10540F0AC
:10362000C55AD0E0CC5CDE4FC881D0E0D064B7C0D2
:10363000C130D10509F4B3C008F4AFC0C430D1051E
:1036400008F4ABC0ACC0CF3BD10508F0A6C0C85A47
:10365000D0E0CC0FDD1FC95CDE4F0990D881C02DB2
:10366000D4649DC0C11540E2D40758F4C11581E06F
:10367000D80708F094C0C03FD10508F48EC0D065CB
:103680008EC0C11520E4D20708F487C0DF70D06A6D
:1036900086C0C11545E5D40708F042C0C11584E5D0
:1036A000D80728F0DC2FCC27C46FD06A78C0C115AA
:1036B00023E5D207B0F0CE018370992721E030E0F6
:1036C00002C0220F331F8A95E2F78C2F86958695CC
:1036D00040E2849FC0011124E901C82BD92BDA688C
:1036E0005EC0C11542E5D40728F4DC2FCC27C16F9A
:1036F000D06A55C0CE018370992721E030E002C026
:10370000220F331F8A95E2F78C2F8695869540E22B
:10371000849FC0011124E901C82BD92BDC683FC06C
:10372000C11589E5D807B8F4C11528E5D20728F0F6
:10373000DC2FCC27C06FD06A32C0C11546E5D40754
:1037400060F58C2F0E948C158F71C82FD0E0DC2F74
:10375000CC27D06224C0C1158AE5D80780F48C2F0D
:103760008F700E948C1594E0D695C7959A95E1F7D5
:10377000CF70D0E0DC2FCC27D069C82B10C0CE0191
:1037800090568115904248F48D2F8F710E948C15B0
:10379000DD27D0628F71D82B02C0C0E0D0E0CE010F
:1037A000DF91CF9108958295982F937344E0949F71
:1037B000900111248C7C86958695282B822F857507
:1037C000880F2A7A2695822B08950F931F93809154
:1037D0006D0290916E02A0916F02B09170028C0107
:1037E0009D010670112722273327BC01CD01063029
:1037F00011052105310511F4686001C0677F1F9133
:103800000F910C94F0121F93CF93DF93CDB7DEB7D7
:10381000AA970FB6F894DEBF0FBECDBFE5E6F2E083
:103820008DE692E02091F10021938E179F07D1F74A
:1038300080916602833009F462C030F4813071F007
:10384000823009F49CC0B3C08A3009F488C08B3040
:1038500009F46DC0893009F0AAC020C080916502CA
:10386000813A09F0A4C08091E800877F8093E80046
:103870008091690290916A02892B21F460E281E4CF
:1038800092E003C060E080E090E070E00E943523A9
:103890008091E8008B778093E80089C08091650271
:1038A000813209F084C08091690290916A02009788
:1038B00019F0029709F07BC08091E800877F809320
:1038C000E8008091E80082FD05C0809163028111CB
:1038D000F8CF6DC02091F3008091F20090E0922B20
:1038E000029729F48091F1008B7F813021F480913F
:1038F000F100809340028091E8008B7754C0809162
:103900006502813A09F053C08091690290916A0280
:10391000892B09F04CC08091E800877F8093E800F4
:103920008091E80080FFFCCF80910A0137C0809130
:1039300065028132E1F58091690290916A02892BDA
:10394000B1F58091E800877F8093E8000E94E12232
:103950008091670280930A010E946E2128C08091A5
:103960006502813221F58091E800877F8093E8002D
:103970000E94E1228091680280933F0218C08091EA
:103980006502813AA1F48091E800877F8093E80086
:103990008091E80080FFFCCF80913F028093F1008E
:1039A0008091E8008E778093E8000E94E122809168
:1039B000E80083FFE3C18091650290916602492F80
:1039C00050E04A30510508F0D9C1FA01EB58FF4FD9
:1039D0000C94F523803821F0823809F0CFC108C05B
:1039E0008091610290916202992389F082600FC0F8
:1039F000809169028F70873008F0C0C18093E90020
:103A00008091EB0085FB882780F91092E900909166
:103A1000E800977F9093E8008093F1001092F10006
:103A200071C1282F2D7F09F0A9C1882319F0823098
:103A300061F0A4C180916702813009F09FC1933089
:103A400009F080E0809362022EC0809167028111AC
:103A50002AC0809169028F702FEF280F263008F05E
:103A60008DC18093E9002091EB0020FF1CC09330B2
:103A700021F48091EB00806214C09091EB00906182
:103A80009093EB0021E030E0A90102C0440F551FE4
:103A90008A95E2F74093EA001092EA008091EB00E9
:103AA00088608093EB001092E9008091E800877FA6
:103AB0008093E8000E94E12261C181115FC11091F1
:103AC00067021F778091E3008078812B8093E30069
:103AD0008091E800877F8093E8000E94E122809136
:103AE000E80080FFFCCF8091E30080688093E300D2
:103AF000111102C082E001C083E0809363023EC1E5
:103B00008058823008F03AC12091670230916802F3
:103B10002C3D53E0350779F583E08A838AE2898377
:103B20004FB7F894DE01139620E03EE051E2E32F18
:103B3000F0E050935700E49120FF03C0E295EF704E
:103B40003F5FEF708E2F90E0EA3010F0C79601C013
:103B5000C0968D939D932F5F243149F74FBF80917D
:103B6000E800877F8093E8006AE270E0CE0101966A
:103B70000E943523B5C08091690290916A02432F5B
:103B8000552743305105A9F068F44130510509F437
:103B900004C14230510509F0F1C08BE790E0E6E83E
:103BA000F5E04BC04132510529F14232510589F10E
:103BB000E5C0C901992781309105A1F058F002971D
:103BC00009F0DCC0E3E1F6E0E4918E2F90E0E3E160
:103BD000F6E030C0E9E4F6E0E4918E2F90E0E9E40D
:103BE000F6E028C0E3E3F6E0E4918E2F90E0E3E313
:103BF000F6E020C08430910508F0C0C0880F991FFE
:103C0000FC01E45DFE4F0190F081E02D89E090E041
:103C100014C08430910508F0B1C0FC01EE0FFF1F05
:103C2000EC5DFE4F0190F081E02DDC01A05EBE4F07
:103C30008C9190E0009709F4A1C02091E800277FC3
:103C40002093E80020916B0230916C028217930759
:103C500008F49C0140E02115310589F1809163024F
:103C6000882309F43DC08530D9F18091E80083FDB7
:103C700037C08091E80082FD2FC08091E80080FF6E
:103C8000EACF4091F3008091F20090E0942B21154F
:103C9000310559F08830910540F444914093F1008A
:103CA0003196215031090196F2CF41E0089709F091
:103CB00040E08091E8008E778093E800CCCF4111FE
:103CC000CDCF0AC080916302882351F0853041F046
:103CD0008091E80083FD04C08091E80082FFF2CF6C
:103CE0008091E8008B778093E80048C0803809F025
:103CF00045C08091E800877F8093E800809164024E
:103D00008093F1008091E8008E77D2CE811136C089
:103D10008091670290916802992702977CF58091C3
:103D2000E800877F8093E800109167021093640297
:103D30000E94E122111106C08091E30087FD02C0BC
:103D400081E001C084E08093630242E061EC81E0A5
:103D50000E94002342E261EC84E00E94002342E2E0
:103D600061EC82E00E94002342E260EC83E00E946A
:103D7000002342E261EC85E00E9400238091E8008C
:103D800083FF10C08091E800877F8093E8008091D6
:103D9000EB0080628093EB0005C082E190E0E1E0FF
:103DA000F6E04BCFAA960FB6F894DEBF0FBECDBF9C
:103DB000DF91CF911F9108951F920F920FB60F922E
:103DC00011242F933F934F935F936F937F938F9320
:103DD0009F93AF93BF93CF93DF93EF93FF93C091E4
:103DE000E900CF708091EC00D82FD17080FDD0E831
:103DF0001092E9008091F000877F8093F000789422
:103E00000E94031C1092E9008091F000886080936A
:103E1000F000CD2BCF70C093E900FF91EF91DF91BF
:103E2000CF91BF91AF919F918F917F916F915F9152
:103E30004F913F912F910F900FBE0F901F901895AB
:103E4000E8EDF0E080818E7F80831092E200109296
:103E5000DA001092E100A0EEB0E08C9181608C93CA
:103E600080818F77808319BCA7EDB0E08C918E7F25
:103E70008C9380818F7E808310923E020895CF9232
:103E8000DF92EF92FF920F931F93CF93DF93C8EDD2
:103E9000D0E088818F7E8883E7EDF0E080818160CB
:103EA000808384E082BF81E080933E0288818E7FA0
:103EB000888302EE10E0F80110821092DA0081EEA1
:103EC000C82ED12CF601108288818F778883888153
:103ED0008068888388818F7D888319BC10926302F3
:103EE00010926402109262021092610290EEE92E2A
:103EF000F12CF70180818B7F8083888181608883AA
:103F000042E060E080E00E940023F60180818E7F25
:103F10008083F801808181608083808188608083D4
:103F2000F70180818E7F8083888180618883DF9123
:103F3000CF911F910F91FF90EF90DF90CF90089558
:103F40001F920F920FB60F9211242F933F934F930E
:103F50005F936F937F938F939F93AF93BF93EF93F1
:103F6000FF938091E10082FF49C08091E20082FFCF
:103F700045C08091E1008B7F8093E10020913D025C
:103F80002F5F822F62E30E94D523992319F020939B
:103F90003D0234C010923D0280913C02882371F1B1
:103FA00080916302843041F58091E9008F70209107
:103FB000EC00922F917020FD90E8892B95E0909372
:103FC000E9009091EB0090FF14C09091EE0097FFF4
:103FD00010C09091E80095FF03C01092F100F9CF56
:103FE0009091E80090FF05C09091E8009E77909333
:103FF000E8008F708093E90010923C028091DA0013
:1040000080FF32C08091D80080FF2EC08091DA00FE
:104010008E7F8093DA008091D90080FF1CC080E100
:1040200089BD82E189BD09B400FEFDCF81E08093A6
:10403000630282E795E00E947C0380913E02811139
:1040400013C00E94201F0E943F1F8091E2008460E5
:104050008093E20009C019BC1092630286E795E0E4
:104060000E947C0310923E028091E10080FF1BC001
:104070008091E20080FF17C08091E2008E7F8093E4
:10408000E2008091E20080618093E2008091D8009C
:1040900080628093D80019BC85E0809363028AE730
:1040A00095E00E947C038091E10084FF32C0809102
:1040B000E20084FF2EC080E189BD82E189BD09B4A0
:1040C00000FEFDCF8091D8008F7D8093D800809135
:1040D000E1008F7E8093E1008091E2008F7E8093EB
:1040E000E2008091E20081608093E20080916402AE
:1040F000882311F084E007C08091E30087FD02C0AF
:1041000081E001C083E0809363028EE795E00E9426
:104110007C038091E10083FF2BC08091E20083FF4C
:1041200027C08091E100877F8093E10082E0809347
:104130006302109264028091E1008E7F8093E1001F
:104140008091E2008E7F8093E2008091E2008061A6
:104150008093E20042E060E080E00E9400238091D2
:10416000F00088608093F00082E895E00E947C0374
:10417000FF91EF91BF91AF919F918F917F916F913F
:104180005F914F913F912F910F900FBE0F901F9015
:1041900018952091E4003091E50095E64091EC00FF
:1041A000842F817040FF23C08091E80080FD1DC0F6
:1041B00080916302882399F0853099F08091EB001B
:1041C00085FD11C04091E4005091E50024173507AA
:1041D00029F3915011F09A01E1CF84E0089582E033
:1041E000089583E0089581E0089580E00895409166
:1041F000E80042FFDDCF0895EF92FF920F931F93E7
:10420000CF93DF937C018B010E94C920811119C0DB
:10421000E70101151105A1F08091E80085FD0AC0B4
:104220008091E8008E778093E8000E94C92088235F
:1042300081F307C089918093F10001501109E9CF02
:1042400080E0DF91CF911F910F91FF90EF90089543
:104250000E948E12292F2F70E92FE295EF704E2FBA
:1042600050E0FA013297EE30F105B8F4E158FF4F13
:104270000C94F523803F99F018F4883E70F40FC039
:10428000843F59F40CC0883E50F0813F31F407C0A0
:10429000822F869586958695089580E0089581E021
:1042A000089580E090E00E94831680E090E00E94F4
:1042B0006D1610922B0210922A020E949C11EFE7B9
:1042C000F1E086E0DF011D928A95E9F710927C010A
:1042D00010927901109271020C94AD1710922C0279
:1042E00080910A01882331F080916A0187FF02C022
:1042F0008EE101C086E0E1EAF1E0DF011D928A95DE
:10430000E9F70C945121882341F0809590912C027B
:10431000892380932C020C949C110895882339F0F2
:1043200090912C02892B80932C020C949C1108955F
:10433000882309F463C0823869F40E94991681FFCA
:104340005DC069E38FE991E00E94D4100E949C1146
:1043500069E30EC0833891F40E94991680FF4EC025
:1043600063E58FE991E00E94D4100E949C1163E5FF
:104370008FE991E00E949B100C949C11843869F4A1
:104380000E94991682FF3AC067E48FE991E00E948B
:10439000D4100E949C1167E4EBCF9CEF980F913AE8
:1043A00010F4682FE5CF90E2980F983088F487706A
:1043B00021E030E0A90102C0440F551F8A95E2F7C1
:1043C000CA01809590912C02892380932C02D4CF2E
:1043D0009BE5980F933020F480E090E00C948316D6
:1043E00098E5980F973120F480E090E00C946D16DA
:1043F000803F20F00E9459180C94AD170895CF9378
:10440000882309F4BEC0C82F8238B1F40E949916DF
:1044100081FDB7C069E38FE991E00E94D4100E944A
:104420009C112FEF81EE94E0215080409040E1F705
:1044300000C0000069E317C08338E1F40E949916B8
:1044400080FD9FC063E58FE991E00E94D4100E9437
:104450009C112FEF81EE94E0215080409040E1F7D5
:1044600000C0000063E58FE991E00E949B10CF91AE
:104470000C949C118438B1F40E94991682FD81C07D
:1044800067E48FE991E00E94D4100E949C112FEF05
:1044900081EE94E0215080409040E1F700C00000A0
:1044A00067E4E1CF8CEF8C0F813AC0F580910A016F
:1044B0008823E1F080916A0187FF18C0EC2FE69510
:1044C000E695E695F0E0E156FE4F8281282F30E038
:1044D0004C2F477081E090E002C0880F991F4A95E9
:1044E000E2F782239323892B61F412C0E1EAF1E021
:1044F00087EA91E02191C21721F08E179F07D1F72B
:1045000007C06C2F8FE991E00E949B100E949C11C4
:104510006C2F8FE991E00E94D410A9CF80E28C0F1C
:10452000883068F4C77081E090E001C0880FCA95B8
:10453000EAF790912C02892B80932C0298CFEBE51F
:10454000EC0FE33040F4F0E0EC5CFE4F808190E053
:10455000CF910C948316E8E5EC0FE73150F4F0E0CE
:10456000EE0FFF1FE95CFE4F80819181CF910C948B
:104570006D16C03F30F08C2F0E941219CF910C9411
:10458000AD17CF9108951F93CF93DF93182F8933E1
:1045900019F0C0E0D0E002C0C0E5D0E0812F0E9459
:1045A000FF21209741F08FE99FE00197F1F700C0CC
:1045B00000002197F6CF812FDF91CF911F910C94AE
:1045C00098218091650287FF11C08091E80082FDEB
:1045D00005C0809163028111F8CF11C08091E8007D
:1045E0008B770BC080916302882349F08091E800AB
:1045F00080FFF8CF8091E8008E778093E8000895DF
:10460000982F973068F59093E900981739F07091DA
:10461000EC002091ED005091F00003C0242F762F84
:1046200050E021FD02C09F5FECCF3091EB003E7F58
:104630003093EB003091ED003D7F3093ED003091F1
:10464000EB0031603093EB007093EC002093ED00B1
:104650005093F0002091EE0027FDE5CF80E0089513
:104660008F708093E90081E0089520916B02309172
:104670006C022617370748F06115710539F420914F
:10468000E8002E772093E80001C0B901FC0120E08A
:104690006115710579F1809163028823F1F185300C
:1046A000F1F18091E80083FD3CC08091E80082FD3B
:1046B0002EC08091E80080FFEBCF2091F300809125
:1046C000F20090E0922B6115710551F08830910550
:1046D00038F421912093F100615071090196F3CFD4
:1046E00021E0089709F020E08091E8008E77809320
:1046F000E800CECF2111CFCF0AC08091630288237A
:1047000061F0853061F08091E80083FD0AC08091FE
:10471000E80082FFF2CF80E0089582E0089583E010
:10472000089581E00895F999FECF92BD81BDF89A70
:10473000992780B50895A8E1B0E042E050E00C94DC
:10474000C723262FF999FECF92BD81BDF89A019714
:1047500000B4021639F01FBA20BD0FB6F894FA9AC9
:10476000F99A0FBE08950396272F0E94A2230E9454
:10477000A123252F0E94A223242F0C94A22301966B
:10478000272F0E94A2230C94A123DC01CB01FC0162
:10479000F999FECF06C0F2BDE1BDF89A319600B49A
:1047A0000D9241505040B8F70895991B79E004C02C
:1047B000991F961708F0961B881F7A95C9F7809560
:1047C000089597FB072E16F4009407D077FD09D0C3
:1047D0000E94022407FC05D03EF4909581959F4FDE
:1047E0000895709561957F4F0895EE0FFF1F059016
:1047F000F491E02D09946927962769277827872760
:1048000078270895AA1BBB1B51E107C0AA1FBB1F35
:10481000A617B70710F0A61BB70B881F991F5A954C
:10482000A9F780959095BC01CD010895F894FFCF2C
:104830000D0FCC0FAD0FA90FA50F0133323130355D
:104840009796943436C6F1376667959392F09190B7
:104850004022B622320510055A0438049805B105E5
:10486000D105EA05818283E200E900EA00B500B6DD
:1048700000B700CD008301CC008A01920194012190
:1048800002230224022502260227022A02B300B4D0
:06489000006F0070000043
:00000001FF
