:100000000C9486020C94CD020C94CD020C94CD027B
:100010000C94CD020C94CD020C94CD020C94CD0224
:100020000C94CD020C94CD020C94A5230C945A226E
:100030000C94FA180C94CD020C94CD020C94CD02C1
:100040000C94CD020C94CD020C94CD020C94CD02F4
:100050000C94CD020C94BC180C94CD020C94CD02DF
:100060000C94CD020C94CD020C94CD020C94CD02D4
:100070000C94CD020C94CD020C94CD020C94CD02C4
:100080000C94CD020C94CD020C94CD020C94CD02B4
:100090000C94CD020C94CD020C94CD020C94CD02A4
:1000A0000C94CD020C94CD020C94CD02540557054E
:1000B00080058D059405B4054606460646064606A7
:1000C0004606B705B905BE05E105010604060706A3
:1000D0002806C006CB06F60633077207BA07FD07E7
:1000E00000080308060809080C080F08120815087C
:1000F00018081B081E08210826082B082E0831089E
:1001000036087C08C10808090B09F315F3152D16EC
:100110002D160F180F180F180F1884166217731763
:100120007317721A721A851A851A7B1A851A851A1C
:10013000851A721A721A801A851A851A801A6F2007
:100140009620322296203222DE2001213222F02116
:100150000422000101010101010101010202020268
:100160000202020202030303030303030304040461
:10017000040404040505050505060606060607072A
:1001800007070708080808090909090A0A0A0B0BE2
:100190000B0C0C0C0D0D0D0E0E0E0F0F0F10101181
:1001A0001111121213131414151516161717181807
:1001B00019191A1A1B1B1C1D1D1E1E1F202021226F
:1001C00022232424252626272829292A2B2C2D2DB5
:1001D0002E2F30313232333435363738393A3B3CD2
:1001E0003D3E3F404142434445464748494A4C4DC5
:1001F0004E4F50515354555658595A5B5D5E5F618E
:100200006264656668696B6C6D6F70727375777820
:100210007A7B7D7E8082838587888A8C8E8F91937E
:100220009596989A9C9EA0A2A3A5A7A9ABADAFB1A5
:10023000B3B5B7BABCBEC0C2C4C6C9CBCDCFD1D48A
:10024000D6D8DBDDDFE2E4E7E9EBEEF0F3F5F8FA30
:10025000FDFF2B0014001A000800150017001C00F9
:1002600018000C00120013002A00290000000400EE
:100270001600070009000A000B000D000E000F0019
:100280003300E100E1001D001B000600190005001D
:1002900011001000360052002800C25CE000E200AD
:1002A000025100002C002C000000015150005100B0
:1002B0004F0035021E021F022002210222022302E9
:1002C00024022502260227022A004C0000003A00E0
:1002D0003B003C003D003E003F002D022E022F025D
:1002E0003002C35C4000410042004300440045002E
:1002F000320264024A004D000100005C010001006E
:100300000100000001000100000001000100AB003D
:10031000AA0035001E001F0020002100220023003B
:1003200024002500260027002A004C0000003A0087
:100330003B003C003D003E003F002D002E002F0002
:1003400030000100400041004200430044004500ED
:10035000320064004B004E0001000100010001006A
:100360000100000001000100000001000100AB00DD
:10037000AA000000000000000000000000000000D3
:10038000000000000000000000000000000000006D
:100390000000000000007E0F00D4FFFFFFC7000038
:1003A000007800000000000000002A2B2800000058
:1003B0000000000000000000000000000029000014
:1003C00000002C1E3420212224342627252E362DF1
:1003D0003738271E1F202122232425263333362E8B
:1003E00037381F0405060708090A0B0C0D0E0F10FD
:1003F0001112131415161718191A1B1C1D2F313042
:10040000232D350405060708090A0B0C0D0E0F10E5
:100410001112131415161718191A1B1C1D2F313021
:10042000354C0660FF0961A1010962150026FF0035
:100430009520750881020963150026FF0095207537
:10044000089102C005010906A101050719E029E785
:100450001500250195087501810295017508810136
:100460000507190029FF150026FF0095067508816C
:100470000005081901290595057501910295017579
:10048000039101C009024200020100A0FA09040020
:1004900000010301010009211101000122400007B0
:1004A00005810308000A0904010002030000000995
:1004B000211101000122220007058203200001070B
:1004C000050303200001120110010000000873421F
:1004D0008300010001020001140354006500630061
:1004E00068006E0069006B002D00530000001803C7
:1004F00042006F0061007200640073006F007500BD
:1005000072006300650000000403090411241FBE8B
:10051000CFEFDAE0DEBFCDBF04B603FE27C0809187
:100520006B0390916C03A0916D03B0916E038730C3
:10053000904BA740B04BD1F410926B0310926C0318
:1005400010926D0310926E0314BE84B7877F84BF30
:100550000FB6F894A8958091600088618093600040
:10056000109260000FBEE0E0F8E3099512E0A0E011
:10057000B1E0E6EAFEE402C005900D92A630B107B4
:10058000D9F723E0A6E0B2E001C01D92AB36B20776
:10059000E1F70E94CF020C9451270C940000CF93F6
:1005A000DF93CDB7DEB7AA970FB6F894DEBF0FBEC4
:1005B000CDBF84B7877F84BF0FB6F894A89580918C
:1005C0006000886180936000109260000FBE90E030
:1005D00080E80FB6F89480936100909361000FBE9D
:1005E00085B7806885BF85B7806885BF8AE698E152
:1005F00090930702809306020E949E220E94442349
:100600008091E20084608093E200789480914E03B0
:100610008823A1F01091E9001F709091EC00892FC0
:10062000817090FD80E8182B1092E9008091E8001D
:1006300083FD0E948A1F1F701093E90082E084BD31
:1006400093E095BD9AEF97BD80936E0080E30E9482
:10065000780F81E30E94780F82E30E94780F83E392
:100660000E94780F0CE111E0E8E2EE2EE1E0FE2EB0
:10067000F80181918F010E94780FE016F106C1F711
:1006800010920B0210920A02109228021092270276
:1006900010920D0210920C0210922A02109229025E
:1006A00010920F0210920E0210922C0210922B0246
:1006B000109211021092100210922E0210922D022E
:1006C00080E090E00E947F268A3E9E4F11F00E94BB
:1006D0005B1982E090E00E94772680931E020E94C0
:1006E0004A1990930902809308020E948F0F8FE3AA
:1006F0009CE90197F1F700C000000E948F0F8091E4
:10070000270280FF17C06FEF83E290E00E949526DA
:100710006FEF84E290E00E9495266FEF85E290E013
:100720000E9495266FEF7FEF80E090E00E94B32655
:100730000E94981883E090E00E947726682F70E06E
:1007400080E090E00E94511B80E090E00E947F26B4
:100750008A3E9E4F21F00E945B190E94C40D46E024
:1007600050E06CE170E08CE593E00E946726809198
:100770005C038C7F11F40E94C40D83E290E00E9420
:100780007726813281F484E290E00E9477268730D8
:1007900051F485E290E00E94772691E0883209F0DA
:1007A00090E0892F01C080E080FFB7C286E091E031
:1007B000909313028093120250E4552E6FE2662E3E
:1007C00062E0762E75E0C72ED12C9E012F5F3F4F41
:1007D000790180914E03853009F044C000E112E1B7
:1007E00080914E03853009F039C080914E038430EA
:1007F00019F11092140288E190E00FB6F894A895D0
:10080000809360000FBE5092600083B7817F846048
:1008100083BF83B7816083BF7894889583B78E7FC9
:1008200083BF0FB6F894A89580916000886180938B
:100830006000109260000FBE80914D03882309F480
:10084000CFCF0E948F0FE7E2F2E081919191892B47
:1008500009F044C26E167F06C1F7C2CF0E94841D04
:100860000E949C0C0E948F0F81110E94E218E7E207
:10087000F2E0AFE1B2E000E010E0702F21913191A1
:100880008D919D9182279327009779F160E0AA24AA
:10089000A394B12CAC014A215B21452B09F169A33A
:1008A0007AA32A213B2181E0232B09F480E08BA34A
:1008B0000E94EE188160782F9DA38CA349A15AA1B4
:1008C0006BA18DA10E94FE0B000F111FF801E15ECC
:1008D000FD4F80819181A826B926B182A0821AC0DD
:1008E0006F5FAA0CBB1C6C30A9F60F5F1F4F043062
:1008F000110519F68FEF8EA38FA318A60E94EE188C
:100900008160782F9AA789A74EA15FA168A58AA5C3
:100910000E94FE0B0E94E21860931502709316026B
:10092000809317029093180230915C03232F237059
:1009300021F0932E9694969401C0912C209114014D
:10094000213091F028F0223099F12330E9F159C09B
:1009500010921101609358037093590380935A03C6
:1009600090935B0381E02DC09091050199120DC019
:10097000832F837090E04091040150E021E08417C0
:10098000950709F420E0822F01C081E081708093F7
:1009900013018091610390911201981709F4D6C157
:1009A0008093120140E060E080E00E94A40DCEC17F
:1009B00090920501832F8370809304010E94830B22
:1009C00083E0809314011DC0409158035091590356
:1009D00060915A0370915B032FB7F89480911902CC
:1009E00090911A02A0911B02B0911C022FBF841B90
:1009F000950BA60BB70B4097A105B10510F010920F
:100A000014010E949C0C90911D02891721F00E94F4
:100A10009C0C80931D0280914E03843009F0D9CE46
:100A200083E08093E9008091E80082FFD2CE80913C
:100A3000E80085FF23C00E94BD2281111DC080E215
:100A4000A82EB12C8E010F5F1F4F09C08091F100BD
:100A5000F80181938F01F1E0AF1AB10869F080913C
:100A6000E80085FDF3CF8091E8008B778093E80064
:100A70000E94BD22882399F391E001C090E080910B
:100A8000E8008B778093E800992309F4A2CEE981EE
:100A90008E2F90E0FC013197E331F10508F0F6C0AC
:100AA000EA5AFF4F0C9444271A8289E065C08A8174
:100AB000823009F429C1833051F0813009F0E6C059
:100AC0000E94E2189B838C837D836E83E1C08091BA
:100AD0002702909128029B838C8380912902909118
:100AE0002A029D838E8380912B0290912C029F83FA
:100AF000888780912D0290912E0299878A87C8C09D
:100B00008A81823009F0C2C06B817C818D819E8197
:100B10000E944A2786E290E024C04C816B818A8142
:100B20000E946B0D9D83F7C00D811E811027012748
:100B300010278C81AB809A8128E1A29E500111245C
:100B400030E6939FA00CB11C1124A80EB11CA80E76
:100B5000B11C612FC50187960E949526602FC501A3
:100B600088960E94952694C00E94370D91C080E11E
:100B70004CC082E08A8389E58B838AC00A811B810D
:100B80001027012710278C80912C5701C801895507
:100B90009E4F95012E193F092815390508F078C098
:100BA0000935E2E01E0728F40E947726F5018483C8
:100BB00002C0F50114820F5F1F4FFFEFAF1ABF0A8B
:100BC000E5CF0A811B811027012710278C80912CEB
:100BD0005701C80189559E4F95012E193F092815C7
:100BE000390508F055C0093522E0120720F4F50157
:100BF00064810E9495260F5F1F4FFFEFAF1ABF0A57
:100C0000E8CF0E94270D44C084E08A8341C00A8156
:100C10001B811027012710278C80912C5701C801B8
:100C2000879695012E193F092815390588F5003852
:100C300021E0120728F40E947726F501848302C080
:100C4000F50114820F5F1F4FFFEFAF1ABF0AE7CF06
:100C50000A811B811027012710278C80912C5701B6
:100C6000C801879695012E193F092815390580F48A
:100C7000003821E0120720F4F50164810E949526D6
:100C80000F5F1F4FFFEFAF1ABF0AEACF8FEF8983C5
:100C900080914E03843009F09CCD1091E9001F70C3
:100CA0009091EC00892F817090FD80E8182B82E0F4
:100CB0008093E9008091E80080FF0CC040E050E0A4
:100CC00060E270E0C7010E945E1F8091E8008E77AD
:100CD0008093E8001F701093E9007BCD09BD19BD1A
:100CE00009B400FEFDCF8091D8008F7D8093D8009D
:100CF0008091E00082608093E0008091E00081FDBF
:100D0000FCCF0E94841D6CCD86E290E00E94772685
:100D10001B821C821D828E83BBCF60E086E290E046
:100D20000E9495260E94370D0E94270D61E283E202
:100D300090E00E94952667E084E290E00E9495266C
:100D400068E285E290E00E94952630CD892D90E002
:100D50008C31910580F0809111018F5F809311019A
:100D600082E0809314018091130181114ACE992071
:100D700009F426CE46CEFC01E759FF4F0C944427D8
:100D800080911301882329F040E060E080E00E9418
:100D9000A40D80E044C2109111018BE0189F102D2A
:100DA00011240BE0010F083308F007E360915D03A5
:100DB00070915E0380915F030E94800EB62EA72E75
:100DC000882E101708F020C2E12FF0E0DF01A253B7
:100DD000BE4F8C9190911201982331F0282D4B2D0C
:100DE0006A2DCF010E94A60D1F5FEBCF109111015C
:100DF0008BE0189F102D11240BE0010F083308F031
:100E000007E3A0905E03B0905F0380905D03682DC0
:100E10007A2D8B2D0E94800E462E372E282E609123
:100E20006003680D7A2D8B2D0E94800EB62E872EC2
:100E3000A82E101708F0E8C1812F90E0FC01E253C2
:100E4000FE4F308120911201232359F030FF04C05E
:100E50002A2D4B2D682D03C0222D442D632D0E9479
:100E6000A60D1F5FE6CFB09011018BE0B89EB02CAD
:100E700011240BE0A02EAB0C97E39A1510F417E3A6
:100E8000A12E30905E0340905F0320916003352DCA
:100E9000329F312D1124832EBA1408F065C00B2D1A
:100EA00010E0F801E253FE4F9081809112018923F6
:100EB000B9F0F801EE0FFF1FE05DFE4F81A98295AA
:100EC0008F7060915D03889D600D1124732D842DBA
:100ED0000E94800E462F282F672FC8010E94A60D62
:100EE000B394DACFB09011018BE0B89EB02C1124EE
:100EF000ABE0AA2EAB0CE7E3EA1510F4F7E3AF2E54
:100F000030905E0340905F0320916003352D329F47
:100F1000312D1124832EBA1438F50B2D10E0F80171
:100F2000E253FE4F9081809112018923D9F0F8019C
:100F3000EE0FFF1FE05AFE4F6081869EB001112424
:100F4000E5E075956795EA95E1F780915D03680F97
:100F5000732D842D0E94800E462F282F672FC801E5
:100F60000E94A60DB394D7CF81E096E39A1508F0BE
:100F700056C10FCF109111018BE0189F102D112435
:100F80000BE0010F083308F007E3A0905D03B09079
:100F90005E0380905F036091600366956695669539
:100FA00080915803909159030E94760E0E94D70DAC
:100FB000805887FD8195880F282F382D239F212D5C
:100FC0001124822FB5010E94800EB62EA72E882EE6
:100FD000101708F019C1E12FF0E0DF01A253BE4F56
:100FE0008C9190911201982331F0282D4B2D6A2D70
:100FF000CF010E94A60D1F5FEBCF89E49AE00DC1DF
:101000008DE19AE00AC182E29BE01DC083E09BE093
:101010001AC088EE9AE01CC08CEC9AE019C08BE1F3
:101020009AE0FBC082E19AE0F8C089E09AE0F5C05E
:101030008EEE99E0F2C08FED99E00AC08DE49EE05B
:1010400002C08BEB9AE00E94431EE9C087EA9AE057
:101050000E94C71DE4C081EB99E005C08FE799E0CD
:1010600002C081E499E00E94ED1ED9C08091130175
:1010700081111EC06091600320E1620F08F46FEFE0
:1010800080915803909159030E94760E6AE070E0B7
:101090000E941C27892B09F07CCE0E94572667E30B
:1010A00070E00E943027609112010E94100F71CEF3
:1010B000809111019BE0899F802D11244BE0842EAB
:1010C000880E97E3981510F437E3832EA82EB12CE1
:1010D000082D10E0A016B1064CF460911201C50174
:1010E0000E94100FEFEFAE1ABE0AF4CF81E0F6E3D4
:1010F000F81508F094C04DCE8091130181111DC0E8
:101100006091600320E1620F08F46FEF8091580353
:10111000909159030E94760EB6010E941C27892BDC
:1011200009F037CE0E94572667E370E00E9430270F
:10113000609112010E94560F2CCE809111019BE00C
:10114000899F802D11242BE0822E880E27E32815FD
:1011500010F497E3892EA82EB12C082D10E0A016CC
:10116000B1064CF460911201C5010E94560F3FEF89
:10117000A31AB30AF4CF81E096E3981508F04FC0A4
:1011800008CE109111018BE0189F102D11240BE057
:10119000010F083308F007E3A0905E03B0905F03EF
:1011A00080905D0360916003669566956695809179
:1011B0005803909159030E94760E0E94D70D8058D3
:1011C00087FD8195880F682F2CE0629F612D112487
:1011D000680D7A2D8B2D0E94800EB62EA72E882E9C
:1011E000101790F4E12FF0E0DF01A253BE4F8C9175
:1011F00090911201982331F0282D4B2D6A2DCF01AB
:101200000E94A60D1F5FECCF81E0073340F0C1CDF7
:1012100088EF9DE002C080E399E00E949F1E9091BC
:1012200011019F5F90931101882309F499CDE9CBB7
:10123000E2E3F2E092E0E73DF90729F08183608381
:1012400042833396F7CF0895FC01EE0FFF1F8E0FF8
:101250009F1FFC01EE5CFD4F618340832283089554
:10126000E42FF0E0EE0FFF1FE05AFE4F9081921B3B
:1012700097FD9195292F38E1239F212D1124620F8D
:1012800008950F931F9310E0F801EE0FFF1FE05A2F
:10129000FE4F9081905797FD9195000F111FF80117
:1012A000E05DFE4FE1A9F0E0B097DF01AA0FBB1FA0
:1012B0008D010E0F1F1F2003D001219FB00D11249F
:1012C000E8E3F0E0E91BF10997FDF3959F01220F98
:1012D000331F89010E0F1F1F40039001419F300DE6
:1012E00011242A0F3B1F37FF02C021583F4F220F06
:1012F000232F221F330B620F1F910F9108950F931D
:101300001F93522F10E0F801EE0FFF1FE05DFE4F1C
:10131000E1A9F0E0B097EE0FFF1F9F015203D0014B
:10132000539FB00D1124000F111FF801E05AFE4F1A
:10133000008110E000571109000F111F40039001B8
:10134000419F300D11242A0F3B1F37FF02C0215847
:101350003F4F220F232F221F330B620F1F910F913C
:1013600008950F931F93522F10E0F801EE0FFF1F07
:10137000E05DFE4FE1A9F0E0B0979F015203D0017C
:10138000539FB00D1124000F111FF801E05AFE4FBA
:10139000008110E00057110940039001419F300D7A
:1013A00011242A0F3B1F37FF02C021583F4F220F45
:1013B000232F221F330B620F1F910F910895EF927D
:1013C0000F931F9393E0099F8001112415950795B2
:1013D0006E2D600F1F910F91EF900895A22F50E096
:1013E000FA01EE0FFF1FE05DFE4F91A9905297FDAD
:1013F0009195440F551FFA01E05AFE4F3081232F7B
:1014000030E02A1B3109290F311D97FD3A95620FF3
:101410000895E42FF0E0EE0FFF1FE05DFE4F61A99D
:10142000621B0895E42FF0E0EE0FFF1FE05AFE4F1D
:101430006081621B0895622F0895E42FF0E0EE0FA3
:10144000FF1FE05AFE4F408134EE439F412D11248F
:10145000E82FF0E050E0445E5F4FDA01A21BB109D3
:101460009D01B7FF03C031952195310993E0220F0B
:10147000331F9A95E1F7AF01421B530B9A0157FFB7
:1014800002C020E030E0582F259F212D1124822F0B
:101490000895E42FF0E0EE0FFF1FE05AFE4F408169
:1014A00034EE439F412D1124E72FF0E050E0445EDD
:1014B0005F4FDA01A21BB1099D01B7FF03C031954F
:1014C0002195310993E0220F331F9A95E1F7AF017F
:1014D000421B530B9A0157FF02C020E030E0279FC8
:1014E000212D1124722F0895FC019B01009721F4F6
:1014F00077FF2BC080E80895AC0197FF04C0442714
:101500005527481B590BB901640F751F37FD0CC0D7
:10151000241B350BC901A5E0880F991FAA95E1F797
:101520000E94302780E20CC0CB0165E0880F991F34
:101530006A95E1F7BA01621B730B0E94302780E6BF
:10154000861BF7FF03C08195089580E00895EF9210
:101550000F93CF93DF93D72FC82FC9010E19BA016C
:101560000E94740A602F681B7D2F8C2FDF91CF9112
:101570000F91EF9008950F93CF93DF93D72FC82F3C
:10158000C901BA010E94740A682F600F7D2F8C2F49
:10159000DF91CF910F910895EF920F931F93CF9307
:1015A000DF93D62FC72F182FC9010E19010FBA01CB
:1015B0000E94740A081B202F219F212D1124822FA5
:1015C0006D2F7C2FDF91CF911F910F91EF90089598
:1015D000EF920F931F93CF93DF93D62F172FC82F20
:1015E000C9010E19070FBA010E94740A702F781BE7
:1015F000719F712D11246D2F8C2FDF91CF911F9131
:101600000F91EF900895FF920F931F93CF93DF9365
:10161000F62ED72F182FC901C12FC01BBA010E9467
:10162000740A982F990F890FC81B2C2F219F212DE9
:101630001124822F6F2D7D2FDF91CF911F910F915C
:10164000FF900895FF920F931F93CF93DF93F62E91
:10165000172FD82FC901C72FC01BBA010E94740AC7
:10166000982F990F890F7C2F781B719F712D112452
:101670006F2D8D2FDF91CF911F910F91FF900895C6
:101680009091080292FF0DC0282F2871283019F47C
:10169000877F846006C0282F2471243011F48B7F4B
:1016A000886093FF0DC0282F2871283119F4877E98
:1016B000846106C0282F2471243111F48B7E886147
:1016C0002091090220FF0DC0382F3871383019F4ED
:1016D000877F816006C0382F3171313011F48E7FE1
:1016E000886021FF0DC0282F2871283119F4877ECA
:1016F000816106C0282F2171213111F48E7E88610D
:1017000094FD877E08953E9A88B18F7B98B190644E
:101710002FB7F894E2E3F2E032E0E73DF30789F017
:10172000319148E098B9000000C037FF88B9330F05
:10173000000000C000C000C088B900C04A9591F701
:10174000EBCF2FBF8FE594E00197F1F700C00000C9
:101750000895ECE5F3E0438120E1421B08F440E00A
:101760008181628190E00C944E1FECE5F3E04381AF
:1017700020E1420F08F44FEF8181628190E00C94E8
:101780004E1FECE5F3E0628120E1621B08F460E0AB
:101790008181438190E00C944E1FECE5F3E062817F
:1017A00020E1620F08F46FEF8181438190E00C9497
:1017B0004E1FECE5F3E0818190E043816281089760
:1017C0000C944E1FECE5F3E0818190E0438162814F
:1017D00008960C944E1F80915C03869586958150E7
:1017E00009F48BE10C94B11D80915C03869586957C
:1017F0008F5F8C3108F081E00C94B11D1F93CF9363
:10180000DF93CDB7DEB767970FB6F894DEBF0FBE94
:10181000CDBF342F4B8B252F5C8B6D8B7E8B8F8BAD
:101820004E895F89611110923B0386E0FE013D966F
:10183000DF01982F1D929A95E9F73D872E876F87D4
:10184000598B488BDE01179601900D928A95E1F72E
:10185000CE0107960E94D51B81113EC086E0FE0195
:101860003796DE01119601900D928A95E1F7FF817E
:10187000E8856A857B856115710531F0EF3F31F4AC
:1018800081E0FF3F19F403C081E001C080E080FDEA
:1018900023C02091E90230E0C901019687709927A1
:1018A00040911A0350E08417950779F1F983EA8390
:1018B0007D836C8396E0929FD001939FB00D11249D
:1018C000A651BD4FFE01319601900D929A95E1F718
:1018D0008093E9020E945F1B16E080911A039091A9
:1018E000E9028917F9F0189FC001112486519D4F14
:1018F0000E94D51B8823B1F080911A0390E00196D5
:101900008770992780931A03E8CF0E94841D109254
:10191000E90210921A03E3EEF2E086E0DF011D9285
:101920008A95E9F767960FB6F894DEBF0FBECDBF74
:10193000DF91CF911F910895E0911202F09113026F
:10194000309721F00190F081E02D099480E0089516
:101950000F931F93CF93DF93C42F122FFC0182812B
:101960008823C9F04093D9020E94EE189093D802C0
:101970008093D70280E28C0F883008F063C0C77074
:1019800081E001C0880FCA95EAF7DF91CF911F91DE
:101990000F910C94E3248091D90248133CC020910C
:1019A000D7023091D8024FB7F894809119029091E4
:1019B0001A02A0911B02B0911C024FBF821B930B15
:1019C000883C910540F5D0E2D10FC117B9F080E213
:1019D0008C0F883040F4C77081E001C0880FCA9531
:1019E000EAF70E94D824D83030F581E0912F977023
:1019F00001C0880F9A95EAF70E94E324802F0E9485
:101A0000ED25D830F8F4212F277081E001C0880F30
:101A10002A95EAF70AC080E28C0F883098F4C770E4
:101A200081E001C0880FCA95EAF7DF91CF911F913D
:101A30000F910C94D824802FDF91CF911F910F919B
:101A40000C94ED25DF91CF911F910F910895CF93C5
:101A5000DF93C7EAD1E060E0CE010E94952621968F
:101A6000C11584E0D807B9F7DF91CF910895CF92DF
:101A7000DF92EF92FF920F931F93CF93DF93C0E01B
:101A8000D0E08E01005A1F4F6E0188E1C80ED11CB4
:101A9000FE01EE5AFD4FE590F4906F2DCE01879632
:101AA0000E9495266E2DCE0188960E94952622963C
:101AB000CC15DD0569F70C171D0731F7E801003873
:101AC0001140F9F6DF91CF911F910F91FF90EF90A8
:101AD000DF90CF9008950F931F93CF93DF93C42F80
:101AE000D0E0CC0FDD1F28E1629FC00DD11D112475
:101AF00030E6839FC00DD11D1124CE0187960E9430
:101B00007726082F10E0102F0027CE0188960E941C
:101B100077269801282BC901DF91CF911F910F9152
:101B20000895462F843038F4743028F46C3018F45B
:101B3000672F0C946B0D80E090E00895882311F0DE
:101B4000FA0101C0FB0109940C9418090C942409B2
:101B500046E050E06CE170E08CE593E00C94852663
:101B6000ECE5F3E0248130E1230F08F42FEF248328
:101B70000C94A80DECE5F3E0248130E1231B08F47C
:101B800020E024830C94A80DECE5F3E085E380834A
:101B90008091150190911601A09117018183928384
:101BA000A3838FE784838FEF85830C94A80D482F40
:101BB000982F46FD9095E92FEF739F7046FD9F5F2C
:101BC000E295EF70EE0FF0E0E85DFE4F2181299F76
:101BD000802D212D112482958F702295207F822BBC
:101BE0003081982F930F892F47FD81958058089554
:101BF0000F931F93CF93DF93D62F072F182FC42F48
:101C0000822F0E94D70DEC2FF0E0EE0FFF1FE05A5D
:101C1000FE4F90819058890F87FD8195880F682F1E
:101C20002CE0629F612D11246D0F702F812FDF91A9
:101C3000CF911F910F910895BC018230910508F456
:101C40000895613E8EE1780748F49B0195E0369552
:101C500027959A95E1F748E0420F01C04FEF91E0D8
:101C6000242F30E0290F311D35952795229FF00153
:101C7000239FF00DF00D11246E177F0718F44FEF1E
:101C8000420F04C02F3F39F091E0920F491740F7FF
:101C90008FEF890F08958FEF08950F93CF93DF9300
:101CA000D72FC82F47FD4195E8E3F0E0CF01841B13
:101CB000910947FD9395889FB001899F700D700D24
:101CC0001124229FC001239F900D900D1124860F97
:101CD000971F0E941C0E682F660F860F682F600FDB
:101CE0007D2F8C2FDF91CF910F91089520E030E070
:101CF000869F212D969F200D311D1124C901089525
:101D0000CF92DF92EF92FF920F931F93CF93DF93C7
:101D1000F62E472FE82FF0E0711106C0EE5AFE4F65
:101D20008491782F682F73C0272F30E0EE5AFE4F32
:101D3000E491FE2F0E2F10E056E0659FC0011124A4
:101D4000CFEFD0E0BE010E941C275BEA5603C00122
:101D5000579F900D11248F0D911D8F0D911D982F60
:101D6000990F980F7E01E21AF30AE09ED001E19EDE
:101D7000B00DF09EB00D11248B2F499FA0011124AE
:101D8000452F55277E01E41AF50AE09EA001E19E49
:101D9000500DF09E500D11246E01C91AD108C29E3B
:101DA0007001C39EF00CD29EF00C11242F2D33270E
:101DB000C21BD30BC09F9001C19F300DD09F300D2F
:101DC0001124932F6230710591F048F4611571056B
:101DD000E1F061307105B9F49E2FE52F16C0643033
:101DE000710569F040F06630710579F00CC09E2FE6
:101DF000EB2F832F0AC0EB2F8F2F952F06C09B2F21
:101E00008E2FE32F02C09B2F852F7E2F692FDF910E
:101E1000CF911F910F91FF90EF90DF90CF90089599
:101E2000DF92EF92FF920F931F93CF93DF93EC011A
:101E3000FC01E253FE4F9081692381F1D0905E0353
:101E400000915F0310915D03E12EF12C0E94572653
:101E5000282FC7018C549F4F68E671E00E943027FD
:101E60008E199F0997FD039695958795959587956A
:101E70002370612F289F600D11247D2D802F0E94DB
:101E8000800E462F282F672FCE01DF91CF911F9113
:101E90000F91FF90EF90DF900C94A60DDF91CF9102
:101EA0001F910F91FF90EF90DF9008951F93CF93B4
:101EB000DF93FC01E253FE4F20816223A9F0EC0185
:101EC0000E945726182F0E945726612F782F809145
:101ED0005F030E94800E462F282F672FCE01DF91CF
:101EE000CF911F910C94A60DDF91CF911F91089572
:101EF000F894E82FE295EF70F0E031A1282F2F70D1
:101F000081E090E001C0880F2A95EAF7982F90951C
:101F1000932391A392A1892B82A3789408959F92F1
:101F2000AF92BF92CF92DF92EF92FF920F931F93E7
:101F3000CF93DF9308E111E0CAE0D2E082E1E82E1E
:101F400082E0F82E912CCC24C394D12CB801D80176
:101F50008C91F894E82FE295EF70F0E021A18F705A
:101F6000A60102C0440F551F8A95E2F7CA01922FBD
:101F7000982B91A392A18095892382A3789400C085
:101F8000ECE1F1E020E030E0A12CB12C4191842F74
:101F900082958F7090E0DC0190968C9190E04F706C
:101FA00002C0959587954A95E2F780FD08C0C60165
:101FB000022E02C0880F991F0A94E2F702C080E047
:101FC00090E0A82AB92A2F5F3F4F2C303105F1F657
:101FD0000F5F1F4FFB0180810E94780FF0EAFA9596
:101FE000F1F788819981A816B90621F0B982A882F3
:101FF00081E001C080E0982A2296EC16FD0609F0E7
:10200000A5CF992049F081E0809331020E94EE181B
:102010009093300280932F02809131028823A9F19E
:1020200020912F02309130024FB7F894809119021D
:1020300090911A02A0911B02B0911C024FBF821B0B
:10204000930B069710F180910A0290910B029093E6
:1020500028028093270280910C0290910D029093A8
:102060002A028093290280910E0290910F02909390
:102070002C0280932B028091100290911102909378
:102080002E0280932D0210923102892DDF91CF9183
:102090001F910F91FF90EF90DF90CF90BF90AF9086
:1020A0009F900895CF93DF930E94910DEC018238A9
:1020B000910559F1A0F48133910509F473C040F4FE
:1020C0008932910509F467C08A9709F472C078C013
:1020D0008533910509F458C0C997B9F071C0833EA2
:1020E000910571F138F4803E9105B1F0823E910581
:1020F00011F166C0863E9105B9F1873E9105C9F19F
:10210000843E910509F05CC024C08091080280FDE6
:1021100033C181FD31C154C08091080280FD26C1C8
:102120008091090280FF2DC18091080284FD1BC1AE
:10213000C3EED0E026C18091080282FF22C1F4CF15
:102140008091080282FD15C18091090280FD14C1B1
:10215000EBCF8091090281FF14C18091080284FDB8
:1021600002C1C7EED0E00DC18091080283FF09C112
:10217000F4CF8091080283FD02C18091090281FFA2
:10218000ECCFC4EED0E0FDC08091080285FFF9C01D
:10219000C9E2D0E0F6C08091080285FFF2C0C5E335
:1021A000D0E0EFC08091080286FFEBC0CAE2D0E029
:1021B000E8C08091080286FFE4C0C1E3D0E0E1C03E
:1021C000C11523E5D20798F5C11542E5D40708F0FB
:1021D00095C0C11580E2D807C0F4C11521E0D2072F
:1021E00008F0CFC0C53AD10548F4C430D10508F095
:1021F000C8C0C130D10509F4C4C0B5C0CE01805EED
:102200009109089708F0AFC0BCC0C11541E5D407DB
:1022100008F06FC0C11580E5D80708F04EC0C115A1
:1022200020E4D20708F49FC0DF70D06AAAC0C115AD
:1022300046E5D40700F5C11585E5D80708F079C053
:10224000C11524E5D20708F06FC0CE01837099272D
:1022500021E030E002C0220F331F8A95E2F78C2F75
:102260008695869540E2849FC0011124E901C82B20
:10227000D92BDA6886C0C1154AE5D40778F4C115B0
:1022800089E5D80708F05FC0C11528E5D20708F432
:102290006AC0DC2FCC27C06FD06A73C0CE019056C5
:1022A0008115904208F05FC08D2F8F710E94400B06
:1022B000DD27D0628F71D82B64C0CE0174E0969573
:1022C00087957A95E1F783709C2F937021E030E039
:1022D00002C0220F331F9A95E2F73C68382BCF706B
:1022E000C695C69580E2C89FE0011124C22BD32B6E
:1022F00048C0DC2FCC27C16FD06A43C0CE018370A9
:10230000992721E030E002C0220F331F8A95E2F7BF
:102310008C2F8695869540E2849FC0011124E901A7
:10232000C82BD92BDC682DC0DC2FCC27C46FD06A1A
:1023300028C08C2F0E94400B8F71C82FD0E0DC2F5B
:10234000CC27D0621EC08C2F8F700E94400B94E06F
:10235000D695C7959A95E1F7CF70D0E0DC2FCC27C2
:10236000D069C82B0EC0C0E0D0E00BC0C9E3D0E0FC
:1023700008C0C2EED0E005C0C0EED0E002C0C6EE9C
:10238000D0E0CE01DF91CF9108953F924F925F92BE
:102390006F927F928F929F92AF92BF92CF92DF9275
:1023A000EF92FF920F931F93CF93DF93CDB7DEB7DA
:1023B00029970FB6F894DEBF0FBECDBFFC01808118
:1023C000918123813481232B31F09F3F31F491E0BF
:1023D0008F3F19F403C091E001C090E090FD5CC60E
:1023E0007F0185E0DE01119601900D928A95E1F75B
:1023F000F701228189819A81222349F00E94131AD0
:10240000182F682F89819A810E94B51A03C00E94F3
:10241000891A182F69817A81812F0E94910D8C0170
:10242000F7018281882309F4F2C0980122513F45C7
:102430002031310508F019C18FEF93E00E94772613
:102440008111EFC0025137EA832E9924939400231F
:1024500079F08114F4E09F0609F4E3C0C4010E94FE
:102460007726811101C001501FEF811A910AEFCF29
:102470001E821F8218861986442443942AE0322E35
:1024800084010F5F1F4FC4010E9477268E831F8235
:10249000882309F4C6C09FEF980F933060F48F83B0
:1024A0004E8222E0820E911CC8010E947726888706
:1024B000811102C0B6C048018E010A5F1F4FF801AA
:1024C00020812223E9F2213009F04CC08181813042
:1024D00049F46801F2E0CF0ED11CF80182810E941C
:1024E000ED250AC0823051F46801F2E0CF0ED11C14
:1024F000F80182810E946B25860186C0833049F4F1
:102500006801F2E0CF0ED11CF80182810E94ED2417
:10251000F3CF843019F00F5F1F4F76C0F80122818E
:102520000E5F1F4F80E090E030E0205331092A30E9
:10253000310568F4389EA001399E500D1124C9015F
:10254000840F951F0F5F1F4FF8012081EDCF00977B
:1025500009F45AC0EFE9FFE03197F1F700C000003D
:102560000197F5CFE22FF0E0EE55FC4F5490822F0B
:1025700086958695869590E0FC01EE56FC4F64901A
:102580002770712C022E02C0759467940A94E2F7AA
:10259000F1E06F227724FC01EE57FC4FA490B12CA0
:1025A000022E02C0B594A7940A94E2F731E0A32268
:1025B000BB24FC01EE58FC4FC490D12C02C0D59432
:1025C000C7942A95E2F781E0C822DD2461147104E2
:1025D00019F081EE0E946B25A114B10419F086EE6A
:1025E0000E946B25852D0E94ED25AB2819F086EE03
:1025F0000E94ED24672819F081EE0E94ED24CD2879
:1026000019F08CE20E94ED250F5F1F4F58CF00316B
:102610003FE5130709F037C581E00E94EE1A0E94DA
:10262000931D80913903877009F436C5F7018281C3
:10263000882309F431C582E029960FB6F894DEBFED
:102640000FBECDBFDF91CF911F910F91FF90EF9003
:10265000DF90CF90BF90AF909F908F907F906F90C2
:102660005F904F903F900C94131B0031FFE51F07C4
:1026700011F481E005C001312FE5120721F482E059
:102680000E94301BCCCF033FFCE51F0749F406E254
:1026900021EE40EE63EF7CE5C7010E94A80CC1CF9C
:1026A000043F2CE5120708F049C1083D3CE513073B
:1026B00031F407E225EE45EE68ED7CE5EDCF093D0E
:1026C0009CE5190731F408E221E045EE69ED7CE56F
:1026D000E3CF073DECE51E0731F406E221EE41EEC3
:1026E00067ED7CE5D9CF882309F45DC11092D9024A
:1026F00002309CE5190708F440C10631ECE51E07DD
:1027000030F0C8018A5F9C45099708F036C10E94E5
:102710004A1990930902809308020031FCE51F07D3
:1027200009F4C3C008F041C008303CE5130709F4C0
:102730009AC0F0F404309CE5190709F487C068F4E6
:102740000230FCE51F0709F477C003301C4509F08F
:10275000E5C080910802826076C006303CE5130730
:1027600009F46EC008F07BC08091080288606BC0DD
:102770000C309CE5190709F485C068F40A30FCE5C3
:102780001F0709F474C008F079C00E94841D80916D
:102790000802806858C00E303CE5130709F476C083
:1027A00008F07FC0809108028BC00B3F9CE51907A1
:1027B00009F44FC018F50331FCE51F0709F47DC08B
:1027C00078F401313CE5130709F473C002311C456C
:1027D00009F0A4C00E94841D809108028F7733C045
:1027E00005319CE5190709F472C008F486C00A3F58
:1027F0001C4509F093C0809109023EC00F3F2CE5B3
:10280000120709F45FC058F40D3F8CE5180709F46E
:1028100044C008F43FC08091090282602DC001309D
:10282000EDE51E0709F475C008F45DC002301D45D2
:1028300009F074C060E06EC080910802816003C03E
:102840008091080280618093080268C0809108022C
:1028500011C0809109028260809309025FC080915B
:1028600008028062F0CF809108028064ECCF8091F2
:10287000080288608460E7CF8160EECF8091080213
:102880008E7FE1CF809108028D7FDDCF809108029D
:10289000877FD9CF8091090218C0809109028D7F6E
:1028A000DBCF809108028F7ECECF809108028F7D92
:1028B000CACF809108028F7BC6CF80910802877FA4
:1028C0008B7FC1CF809109028D7F8E7FC5CF809194
:1028D000080282FB222720F991E0922790FB82F9DF
:1028E00090FB83F9B0CF80910902982F9095917059
:1028F0008E7F892B90FB81F9AFCF0E94841D809140
:10290000080287FB222720F991E0922790FB87F9A4
:102910009ACF61E08EE090E00E94952660910802D7
:102920001091090284E090E00E949526612F82E2D6
:1029300090E00E9495260E94841D73CE053FFCE521
:102940001F0731F406E221EE42EE65EF7CE5A4CEEE
:10295000053F2CE5120730F407E225EE44EE64EF64
:102960007CE59ACE063F3CE5130709F0BCCE07E2B2
:1029700025EE46EE66EF7CE58FCE80913C03063176
:102980009CE5190709F58A7A91E009F490E09093A3
:10299000DA02882311F065E301C069E28BED92E071
:1029A0000E9430190EC006311C4509F0D6C0809136
:1029B000DA02882309F46EC365E38BED92E00E948E
:1029C00023190E94CC192DCE82720A3C3CE51307D4
:1029D00009F47BC098F5053CECE51E0709F461C0DD
:1029E000B8F4033C2CE5120709F451C008F054C0B8
:1029F000023C8CE5180709F07FC090915C0381E0F0
:102A0000892780935C03109214010E94A80D09CEBF
:102A1000073C9CE5190709F44EC008F447C0083C80
:102A2000FCE51F0709F44CC0093C2CE5120709F02E
:102A300063C049EA5BE065EB7BE055C00F3C3CE5D9
:102A4000130709F455C098F40C3CECE51E0709F493
:102A500046C008F43FC00D3C2CE5120709F446C0FF
:102A60000E3C3CE5130709F047C085E042C0063D37
:102A70008CE5180730F4013D1C4508F0D2CD82E109
:102A800038C00D35EDE51E0709F4CBCD35C04BEE52
:102A90005BE064EF7BE027C044EF5BE06BEE7BE044
:102AA00022C049ED5BE062EE7BE01DC042EE5BE0E0
:102AB00069ED7BE018C041EC5BE06DEC7BE013C09E
:102AC0004DEC5BE061EC7BE00EC045EB5BE069EA5E
:102AD0007BE009C04AEB5DE060EB7DE004C040EBC9
:102AE0005DE06AEB7DE00E949E0D9BCD81E001C020
:102AF0008DE00E94B11D95CD0A35FDE51F0741F11E
:102B000050F401153CE51307A9F00E3D1C4529F5CD
:102B10000E945B1986CD0B359DE51907D9F00C3560
:102B20001D45D9F48091090282FB882780F991E044
:102B3000892711C00E94841DFFEF04E31CE0F150BF
:102B400000401040E1F700C000000E94981869CDD5
:102B500081E001C080E00E94F919F70182810081C3
:102B60001181882349F0C8010E94131AD82E682FBA
:102B7000C8010E94B51A04C0C8010E94891AD82E43
:102B8000B8018D2D0E9452108C01982EF701A28061
:102B9000B580B2949FE0B92280913903877099F093
:102BA000AA2089F0812F807F803421F080E2800F7D
:102BB000883048F082E00E94131B809139038770AF
:102BC000DD24D3948111D12CC12EC2948FE0C82270
:102BD0008C2D90E08C30910508F021C2FC01EB5760
:102BE000FF4F0C944427812F807F1F70882311F0A2
:102BF0001295107FAA20B9F0112309F4FBC180E2DD
:102C0000800F883010F0911006C080913C03182B83
:102C100010933C0305C080913B03182B10933B039A
:102C20000E94CC19E7C1802F0E94ED24112309F4E2
:102C3000F6C1005E1095083010F0911006C080912A
:102C40003C03182310933C0305C080913B031823D9
:102C500010933B030E94CC19E2C1812F807F1F702B
:102C6000803211F01295107F992021F0F1E09F162B
:102C700001F12EC0AA20A1F080913D03BB2071F08C
:102C800001E0B0120BC0182B9091090292FDC7C150
:102C9000181709F4C4C110933D03C1C1812B10C0A2
:102CA000BB2021F021E0B21609F4B9C10E94C61977
:102CB00027C0AA2041F035E03B1508F4B0C1812FB0
:102CC0000E94E324ACC184E08B1508F4A8C118C0AD
:102CD000AA2049F0BB2099F3F701858180FF8AC1C2
:102CE0008F708583ECCFBB2059F0093309F094C174
:102CF000FFEF17EE23E0F15010402040E1F78AC1CA
:102D0000812F0E94D8248BC1812F837009F069C064
:102D1000A11089C1902F929596959770990F990F50
:102D2000802F8F70882E912CA12CB12C092E04C0DD
:102D3000880C991CAA1CBB1C0A94D2F704FF12C071
:102D40004FE050E060E070E004C0440F551F661F84
:102D5000771F9A95D2F7DB01CA0180959095A095CF
:102D6000B09503C080E090E0DC0116951695412FE8
:102D70004370423019F1C8F400913E0310913F03B3
:102D80002091400330914103413059F0882999291D
:102D9000AA29BB29BC01CD0160237123822393237F
:102DA0000AC0802A912AA22AB32ABC01CD0168292F
:102DB00079298A299B290E94511B35C18829992983
:102DC000AA29BB2900913E0310913F0320914003A3
:102DD00030914103BC01CD016027712782279327E1
:102DE000EACFAA2019F0812F817001C0869588232F
:102DF00009F419C1902F929596959770990F990F94
:102E0000802F8F70882E912CA12CB12C092E04C0FC
:102E1000880C991CAA1CBB1C0A94D2F704FF12C090
:102E20004FE050E060E070E004C0440F551F661FA3
:102E3000771F9A95D2F7DB01CA0180959095A095EE
:102E4000B09503C080E090E0DC0116951695412F07
:102E500043704230D9F068F500916203109163032A
:102E60002091640330916503413059F088299929F4
:102E7000AA29BB29BC01CD0160237123822393239E
:102E80001EC0802A912AA22AB32A13C08829992910
:102E9000AA29BB2900916203109163032091640366
:102EA00030916503BC01CD016027712782279327EC
:102EB00006C0BC01CD01682979298A299B290E9475
:102EC000E01AB1C01F70AA2039F0812F0E94301B78
:102ED000802F0E94E324A7C0802F0E94D824812F36
:102EE0000E94EE1AA0C0802F32EF931609F440C062
:102EF000391538F090EF991661F0E1EF9E1699F1CF
:102F000074C0F3EF9F16D9F124EF921609F44EC066
:102F10006CC0AA2019F134E03B1508F480C01F7181
:102F200081E090E0A0E0B0E0AC01BD0104C0440F3E
:102F3000551F661F771F1A95D2F7809162039091F3
:102F40006303A0916403B09165038A019B01082784
:102F500019272A273B27C901B80125C025E02B15D1
:102F600008F45DC0DCCFAA2029F0812F8F7130C01A
:102F7000AA20D9F3812F8F710E94EE1A50C0AA2087
:102F800079F01F7181E090E0A0E0B0E0BC01CD01DC
:102F900004C0660F771F881F991F1A95D2F703C0C8
:102FA00060E070E0CB010E94E01A39C0AA2099F0DD
:102FB0001F71812F0E94301B8091090282FD07C082
:102FC00038E0139FC0011124836080933903812F5F
:102FD0000E94301B24C081E00E94131B81E08B15EE
:102FE000F0F482E00E94131B1AC0AA2039F0BB2023
:102FF00009F4BBCF802F0E946B2511C0BB2009F4C0
:10300000B9CF893349F49FEFE7EEF3E09150E04008
:10301000F040E1F700C00000802F0E94ED2488EF0F
:103020008C0D843010F40E949C0CDD20A9F180915D
:10303000390380FD31C0F70112828595859585950C
:103040000E94301BC7010E94C511809139038595EC
:103050008595859529960FB6F894DEBF0FBECDBF36
:10306000DF91CF911F910F91FF90EF90DF90CF9064
:10307000BF90AF909F908F907F906F905F904F9098
:103080003F900C94EE1A01319FE5190709F0FBCA35
:1030900082E0C3CA69E291CC29960FB6F894DEBFEC
:1030A0000FBECDBFDF91CF911F910F91FF90EF9099
:1030B000DF90CF90BF90AF909F908F907F906F9058
:1030C0005F904F903F9008950895089508958091DE
:1030D0004303089580E00895CF93DF9321E0209388
:1030E000E9002FEF3091E800215035FD06C035EDA5
:1030F0003A95F1F700002111F5CF2091E80025FF66
:1031000014C0EC0140E050E068E070E00E945E1FF7
:103110008091E8008E778093E80088E0FE01A4E4C7
:10312000B3E001900D928A95E1F7DF91CF91089578
:1031300081E08093E00080E28093D8001092C90083
:103140008FE19EE40197F1F700C0000087E090EB6B
:10315000DC0180936B0390936C03A0936D03B09399
:103160006E039CE088E10FB6F894A8958093600008
:103170000FBE90936000FFCF78941F920F920FB60E
:103180000F9211248F939F93AF93BF938091190255
:1031900090911A02A0911B02B0911C020196A11DF0
:1031A000B11D8093190290931A02A0931B02B09351
:1031B0001C02BF91AF919F918F910F900FBE0F9006
:1031C0001F9018952FB7F8946091190270911A0208
:1031D00080911B0290911C022FBF08952FB7F89485
:1031E0008091190290911A02A0911B02B0911C02C9
:1031F0002FBF08951F920F920FB60F9211248F9335
:103200009F93AF93BF9380911402811113C080915B
:10321000190290911A02A0911B02B0911C024196D2
:10322000A11DB11D8093190290931A02A0931B0255
:10323000B0931C02BF91AF919F918F910F900FBEE1
:103240000F901F9018959C012A5F3F4FFC0142810F
:10325000461301C01282019682179307B9F70895A9
:103260009C01FC0132969FEF80E04191461789F066
:103270009F3F19F4411101C0982F8F5F8630A9F745
:103280009F3F39F0F901E90FF11D97FDFA9562832F
:1032900008950895CF9384E090E00E947726C82F88
:1032A00082E290E00E9477262C2F30E0A901582B73
:1032B000CA01CF9108956AEE7EEF80E090E00E940F
:1032C000B32660E082E090E00E94952660E083E013
:1032D00090E00E94952610923E0310923F031092B8
:1032E00040031092410360E084E090E00E94952644
:1032F00060E082E290E00E94952660E085E090E048
:103300000E94952660E086E090E00E9495266FEF8F
:1033100087E090E00E94952640E050E0BA0188E006
:1033200090E00E94A72660E08DE090E00E94952644
:1033300040E050E0BA0188E190E00E94A72660E0FA
:1033400087E190E00E94952640E050E0BA018CE1D0
:1033500090E00E94A72660E070E080E290E00E948A
:10336000B32640E050E0BA0188E190E00E94A72631
:1033700040E050E0BA018FE090E00E94A72640E0D4
:1033800050E0BA0183E190E00C94A72680913D03C0
:10339000811110923D03089590913C0380913B036D
:1033A000892B20913A03982F922B9093DB028091E6
:1033B0003D03882389F0892B8093DB02EDEDF2E059
:1033C00097E080E0915029F021912223D9F38F5F7B
:1033D000F9CF81110E94C619E0911202F0911302F7
:1033E000309731F00280F381E02D8BED92E009946B
:1033F0000895CF93C0910902C2FB992790F99817BD
:1034000081F080FBC2F9C09309026091080284E058
:1034100090E00E9495266C2F82E290E0CF910C9470
:103420009526CF910895BF92CF92DF92EF92FF92AF
:103430000F931F93CF93DF938C01C0906203D090C2
:103440006303E0906403F090650380913E039091E4
:103450003F03A0914003B0914103C82AD92AEA2A28
:10346000FB2ACFE1D0E0D701C6010C2E04C0B695EF
:10347000A795979587950A94D2F780FD04C0219768
:1034800090F7B12C07C0BC2EB8018C2F0E945210AF
:103490000197A9F38B2DDF91CF911F910F91FF9091
:1034A000EF90DF90CF90BF900895CF93DF93EC0122
:1034B0000E94131ABE010E945210DF91CF9108950D
:1034C0000E94551A292F2F70E92FE295EF704E2F89
:1034D00050E0FA013297EE30F105B8F4EF56FF4FA5
:1034E0000C944427803F99F018F4883E70F40FC084
:1034F000843F59F40CC0883E50F0813F31F407C03E
:10350000822F869586958695089580E0089581E0BE
:1035100008952CE0929F800D1124682F6695669582
:103520006695982F977085E0689FB001112440E060
:1035300050E080E0FB01E40FF51FE55EFC4F2081C9
:1035400030E0092E02C0369527950A94E2F72170E3
:103550003327042E01C0220F0A94EAF7822B4F5F13
:103560005F4F4530510531F708952CE0929F800D53
:103570001124E82FE695E695E695877051E001C0A5
:10358000550F8A95EAF785E0E89FF0011124E55E82
:10359000FC4F20E030E070E04081CB01022E02C001
:1035A000969587950A94E2F7817081958427852303
:1035B000842781932F5F3F4F2530310569F70895A8
:1035C0006093620370936303809364039093650335
:1035D00010923B0310923A030C94CC190F931F9353
:1035E00041E050E060E070E004C0440F551F661FEA
:1035F000771F8A95D2F74095509560957095809188
:10360000620390916303A0916403B09165038A0102
:103610009B01082319232A233B23C901B8011F91C9
:103620000F910C94E01A20913903809582238093A6
:103630003903982F977041F430E0482F082E000C82
:10364000550B2417350721F49091090292FF07C00A
:103650008595859585950E94EE1A109239030895F7
:103660000F931F9341E050E060E070E004C0440F0E
:10367000551F661F771F8A95D2F78091620390913C
:103680006303A0916403B09165038A019B01082B39
:10369000192B2A2B3B2BC901B8011F910F910C94B8
:1036A000E01A60933E0370933F038093400390932E
:1036B000410310923B0310923A030C94CC19809171
:1036C0001A039091E902891719F08F5F8770FBCF79
:1036D00008950F931F93CF93DF938091E802829513
:1036E0008F7009F05DC08091E502882309F458C00D
:1036F00080911A031091E9026091E3027091E40253
:10370000C091E602D091E70291E06F3F09F090E0AE
:10371000292F06E0811709F443C0209721F07F3F4D
:1037200021F030E003C031E001C0322F90E030FDE5
:1037300034C0089FF001099FF00D1124DF01A6514C
:10374000BD4F11963C911197371327C03C9136130A
:1037500024C012963C91129731111FC013964D91BF
:103760005C9114974C1B5D0B483C5105B0F4809163
:10377000E8028F7080618093E802E151FD4F808103
:103780008F708061808383EE92E00E94C511DF918B
:10379000CF911F910F910C945F1B01968770BACF48
:1037A000DF91CF911F910F9108959F92AF92BF9299
:1037B000CF92DF92EF92FF920F931F93CF93DF93FD
:1037C000CDB7DEB761970FB6F894DEBF0FBECDBFA1
:1037D0008C0185E0F801DE011D9601900D928A951D
:1037E000E1F7F80190818181E2803091E3026091FC
:1037F000E4024091E6025091E7024115510531F093
:103800006F3F31F421E03F3F19F403C021E001C0D4
:1038100020E0F22FF1709F2E20FD23C1F801C3801C
:10382000D48023EEA22E22E0B22EF090E502F60123
:10383000E41BF50BFF2009F4CEC02091E802E83C20
:10384000F10508F099C0422F407F09F051C068137C
:1038500011C039130FC0FE2CE1100CC02F70206175
:103860002093E802C5010E94C5118091E802F80189
:10387000858337C1CD2831F08F3F31F421E09F3F60
:1038800019F403C021E001C020E020FD03C021E0C5
:103890002E2502C020E030E0F22FF170FF2E20FF35
:1038A0001DC020911A034091E90256E0241709F443
:1038B000F6C030E0529FF001539FF00D1124E65105
:1038C000FD4F6181861306C06081961303C062813B
:1038D000E61204C02F5F3F4F2770E8CFFE2CEE208A
:1038E00009F4FFC08091E80281608093E80250C033
:1038F000681307C0391305C0E11003C0F801258320
:103900008DC09D878E878D859E850E94601A882335
:1039100069F1EE2059F12091E802822F82958F7093
:1039200090E0029774F08091E3029091E40298870E
:103930008F831986DB86CA862C87CE0107960E9464
:10394000C51186E0F801A3EEB2E001900D928A95D0
:10395000E1F70E94691B0DC06817E1F09D878E8713
:103960008D859E850E94601A81111EC0C8010E942B
:10397000C511FF24F394B5C0422F407F69F783EE51
:1039800092E00E94C51186E0F50111928A95E9F74F
:10399000F12CA7C03913E2CFE110E0CFF801258365
:1039A000C8010E94C51157C0EE2001F32091E80222
:1039B000822F82958F7090E002971CF28091E30233
:1039C0009091E4029A8389831B82DD82CC822E83CC
:1039D000CE010196B4CFE83CF105E8F5FE2CEE20CF
:1039E00029F2681327C0391325C02091E80220FD71
:1039F00018C0822F82958F70482F50E041155105D5
:103A000081F0F80125834F30510541F08F5F982FE9
:103A10009295907F822F8F70892B8583C8010E9499
:103A2000C51186E0F801A3EEB2E001900D928A95EF
:103A3000E1F757C09D878E878D859E850E94601A0D
:103A400081117FCF8091E80281608093E802C801F4
:103A50000E94C51146C086E0F50111928A95E9F7EA
:103A600040C0EE2009F482CF9D878E878D859E858C
:103A70000E94601AF82E882309F478CF86E0F801B6
:103A8000A3EEB2E001900D928A95E1F78091E302F6
:103A90009091E4020E94551A0E94691B22C09D87E2
:103AA0008E878D859E850E94551A292F22952F700D
:103AB000223028F49F7039F0811105C00BC02430EA
:103AC00028F49F7049F4805E883020F0C8010E947D
:103AD000C5119F2CF92C05C0F8019581907F99F7AD
:103AE000F9CF8F2D61960FB6F894DEBF0FBECDBF14
:103AF000DF91CF911F910F91FF90EF90DF90CF90CA
:103B0000BF90AF909F90089510923C0386E0EDED3A
:103B1000F2E0DF011D928A95E9F710923B031092C3
:103B20003A030C94CC190F931F93809162039091E8
:103B30006303A0916403B09165038C019D0106703D
:103B4000112722273327BC01CD010630110521059D
:103B5000310511F4686001C0677F1F910F910C94CB
:103B6000E01A90915C03937089F0811102C0946017
:103B700007C08C3110F09C6603C0880F880F982B0B
:103B800090935C03109214010C94A80D08956F9209
:103B90007F928F929F92AF92BF92CF92DF92EF92DD
:103BA0000F931F93CF93DF933C01C09111018BE0E2
:103BB000C89FC02D1124DBE0DC0FD83308F0D7E319
:103BC00060916003669580915803909159030E941B
:103BD000760E182FCD1708F044C08C2E912CF401CE
:103BE000E253FE4F9081809112018923C1F1F401CB
:103BF000EE0FFF1FE05AFE4FC080D12C80E7C81A9D
:103C0000D108F401EE0FFF1FE05DFE4FA1A8B12C1B
:103C1000E0E2AE1AB108CC9C9001CD9C300D300D85
:103C20001124AA9CC001AB9C900D900D1124820F11
:103C3000931F0E941C0E082F60915D0370915E031C
:103C400080915F03E12E9501A601F30109950E9481
:103C5000800E462F282F672FC4010E94A60DCF5F2C
:103C6000B9CF81E0D73308F080E0DF91CF911F9189
:103C70000F91EF90DF90CF90BF90AF909F908F907B
:103C80007F906F900895CF92DF92EF92FF920F9303
:103C90001F93CF93DF936C01C09111018BE0C89FFC
:103CA000C02D1124DBE0DC0FD83308F0D7E360919E
:103CB0006003669580915803909159030E94760E97
:103CC000182FCD1778F5EC2EF12CF701E253FE4FAB
:103CD000908180911201892319F1F701EE0FFF1FE6
:103CE000E05DFE4F21A930E020523109F701EE0FCF
:103CF000FF1FE05AFE4F408150E04057510960914C
:103D00005D0370915E0380915F03012FF6010995B9
:103D10000E94800E462F282F672FC7010E94A60DF4
:103D2000CF5FCFCF81E0D73308F080E0DF91CF9134
:103D30001F910F91FF90EF90DF90CF900895DF9249
:103D4000EF92FF920F931F93CF93DF938C01C0915B
:103D500011018BE0C89FC02D1124DBE0DC0FD833AC
:103D600008F0D7E3609160036695669521E0620FE5
:103D700008F46FEF80915803909159030E94760EDA
:103D8000D82ECD17F0F4EC2EF12CF701E253FE4FB4
:103D9000908180911201892391F060915D0370916F
:103DA0005E0380915F032D2D4C2FF80109950E9431
:103DB000800E462F282F672FC7010E94A60DCF5FC8
:103DC000E0CF81E0D73308F080E0DF91CF911F9101
:103DD0000F91FF90EF90DF9008959F92AF92BF9266
:103DE000CF92DF92EF92FF920F931F93CF93DF93C7
:103DF0006C01C09111018BE0C89FC02D1124DBE044
:103E0000DC0FD83308F0D7E36091600366956695C0
:103E100080915803909159030E94760E182F80E4E8
:103E2000810F0E94D70D90E8F92EF80E812F0E9485
:103E3000D70D20E8922E980ECD1700F5AC2EB12CA0
:103E4000F501E253FE4F9081809112018923A1F088
:103E500060915D0370915E0380915F03E12E0C2FF2
:103E6000292D4F2DF60109950E94800E462F282FEF
:103E7000672FC5010E94A60DCF5FDECF81E0D7334B
:103E800008F080E0DF91CF911F910F91FF90EF90AC
:103E9000DF90CF90BF90AF909F90089590915C037A
:103EA000937059F080935D0360935E03493708F087
:103EB00048E740935F030C94A80D0895EF92FF929A
:103EC0000F931F93CF93DF937C018B010E94BD2240
:103ED000811119C0E70101151105A1F08091E800D9
:103EE00085FD0AC08091E8008E778093E8000E94EB
:103EF000BD22882381F307C089918093F10001508E
:103F00001109E9CF80E0DF91CF911F910F91FF90D0
:103F1000EF9008951F93CF93DF93CDB7DEB7AA97A5
:103F20000FB6F894DEBF0FBECDBFE0E5F3E088E545
:103F300093E02091F10021938E179F07D1F7809194
:103F40005103833009F460C030F4813071F0823065
:103F500009F49AC0B1C08A3009F486C08B3009F4E4
:103F60006BC0893009F0A8C020C080915003813A0D
:103F700009F0A2C08091E800877F8093E8008091DB
:103F8000540390915503892B21F468E084E493E075
:103F900003C060E080E090E070E00E947A248091AD
:103FA000E8008B778093E80087C0809150038132CE
:103FB00009F082C08091540390915503892B09F038
:103FC0007BC08091E800877F8093E8008091E800C3
:103FD00082FD05C080914E038111F8CF6DC0209104
:103FE000F3008091F20090E0922B029729F48091E7
:103FF000F1008B7F813021F48091F10080934303A5
:104000008091E8008B7754C080915003813A09F089
:1040100053C08091540390915503892B09F04CC0F3
:104020008091E800877F8093E8008091E80080FF1E
:10403000FCCF8091100137C0809150038132E1F5AF
:104040008091540390915503892BB1F58091E8003C
:10405000877F8093E8000E94F02280915203809332
:1040600010010E94841D28C080915003813221F5E7
:104070008091E800877F8093E8000E94F022809181
:1040800053038093420318C080915003813AA1F4F6
:104090008091E800877F8093E8008091E80080FFAE
:1040A000FCCF809142038093F1008091E8008E77ED
:1040B0008093E8000E94F0228091E80083FFD2C143
:1040C0008091500390915103492F50E04A3051059F
:1040D00008F0C8C1FA01E156FF4F0C94442780381C
:1040E00021F0823809F0BEC108C080914C03909144
:1040F0004D03992389F082600FC0809154038F7023
:10410000873008F0AFC18093E9008091EB0085FB18
:10411000882780F91092E9009091E800977F9093AA
:10412000E8008093F1001092F10066C1282F2D7FE6
:1041300009F098C1882319F0823061F093C1809111
:104140005203813009F08EC1933009F080E08093F2
:104150004D032EC08091520381112AC080915403D7
:104160008F702FEF280F263008F07CC18093E90074
:104170002091EB0020FF1CC0933021F48091EB00D4
:10418000806214C09091EB0090619093EB0021E06D
:1041900030E0A90102C0440F551F8A95E2F7409311
:1041A000EA001092EA008091EB0088608093EB00B7
:1041B0001092E9008091E800877F21C1811152C1EE
:1041C000109152031F778091E3008078812B8093B8
:1041D000E3008091E800877F8093E8000E94F0224E
:1041E0008091E80080FFFCCF8091E300806880939D
:1041F000E300111102C082E001C083E080934E030E
:1042000031C18058823008F02DC1809152039091C5
:1042100053038C3D53E0950779F583E08A838AE266
:1042200089834FB7F894DE01139620E03EE051E217
:10423000E32FF0E050935700E49120FF03C0E29594
:10424000EF703F5FEF708E2F90E0EA3010F0C7966E
:1042500001C0C0968D939D932F5F243149F74FBFC6
:104260008091E800877F8093E8006AE270E0CE01E9
:1042700001960E947A24AEC0409154035091550398
:10428000292F332723303105A9F068F42130310577
:1042900009F4F7C02230310509F0E4C082E490E06F
:1042A000E4E8F4E044C02132310521F12232310545
:1042B00071F1D8C0992781309105A1F058F002978B
:1042C00009F0D0C0E8EDF4E0E4918E2F90E0E8ED45
:1042D000F4E02AC0E8E0F5E0E4918E2F90E0E8E019
:1042E000F5E022C0EEEEF4E0E4918E2F90E0EEEEE9
:1042F000F4E01AC04115510509F4C8C04130510518
:1043000009F0B0C089E090E0EFEAF4E010C0411598
:10431000510509F4C0C04130510509F0A3C082E243
:1043200090E0E2E2F4E003C0009709F49BC0209122
:10433000E800277F2093E80020915603309157032F
:104340008217930708F49C0140E02115310589F19B
:1043500080914E03882309F43DC08530D9F18091C6
:10436000E80083FD37C08091E80082FD2FC0809176
:10437000E80080FFEACF4091F3008091F20090E0E6
:10438000942B2115310559F08830910540F4449162
:104390004093F1003196215031090196F2CF41E06E
:1043A000089709F040E08091E8008E778093E8005C
:1043B000CCCF4111CDCF0AC080914E03882351F05C
:1043C000853041F08091E80083FD04C08091E800D1
:1043D00082FFF2CF8091E8008B778093E80042C0A3
:1043E000803809F03FC08091E800877F8093E80023
:1043F00080914F038093F1008091E8008E77809345
:10440000E8000E94F0222EC081112CC0809152033E
:1044100090915303992702972CF58091E800877FAC
:104420008093E8001091520310934F030E94F022F2
:10443000111106C08091E30087FD02C081E001C038
:1044400084E080934E0342E061EC81E00E940F2300
:1044500042E261EC82E00E940F2342E260EC83E0E2
:104460000E940F238091E80083FF1AC08091E8002A
:10447000877F8093E8008091EB0080628093EB005F
:104480000FC082E190E0E6ECF4E051CF89E090E0EB
:10449000E6E9F4E04CCF80E490E0E4E4F4E047CFD8
:1044A000AA960FB6F894DEBF0FBECDBFDF91CF91B5
:1044B0001F9108951F920F920FB60F9211242F9300
:1044C0003F934F935F936F937F938F939F93AF939C
:1044D000BF93CF93DF93EF93FF93C091E900CF7029
:1044E0008091EC00D82FD17080FDD0E81092E900C7
:1044F0008091F000877F8093F00078940E948A1F5B
:104500001092E9008091F00088608093F000CD2B3C
:10451000CF70C093E900FF91EF91DF91CF91BF91F0
:10452000AF919F918F917F916F915F914F913F914B
:104530002F910F900FBE0F901F901895E8EDF0E0AF
:1045400080818E7F80831092E2001092DA001092B8
:10455000E100A0EEB0E08C9181608C9380818F7738
:10456000808319BCA7EDB0E08C918E7F8C93808105
:104570008F7E80831092660308952091E40030912D
:10458000E50095E64091EC00842F817040FF23C048
:104590008091E80080FD1DC080914E03882399F032
:1045A000853099F08091EB0085FD11C04091E400C9
:1045B0005091E5002417350729F3915011F09A0125
:1045C000E1CF84E0089582E0089583E0089581E0DA
:1045D000089580E008954091E80042FFDDCF0895FE
:1045E0008091500387FF11C08091E80082FD05C0D3
:1045F00080914E038111F8CF11C08091E8008B7734
:104600000BC080914E03882349F08091E80080FF21
:10461000F8CF8091E8008E778093E8000895982F76
:10462000973068F59093E900981739F07091EC0095
:104630002091ED005091F00003C0242F762F50E020
:1046400021FD02C09F5FECCF3091EB003E7F3093A5
:10465000EB003091ED003D7F3093ED003091EB00A9
:1046600031603093EB007093EC002093ED00509399
:10467000F0002091EE0027FDE5CF80E008958F70D7
:104680008093E90081E00895CF92DF92EF92FF924C
:104690000F931F93CF93DF93C8EDD0E088818F7E77
:1046A0008883E7EDF0E080818160808384E082BFD1
:1046B00081E08093660388818E7F888302EE10E01C
:1046C000F80110821092DA0081EEC82ED12CF6018A
:1046D000108288818F778883888180688883888129
:1046E0008F7D888319BC10924E0310924F03109255
:1046F0004D0310924C0390EEE92EF12CF7018081CE
:104700008B7F808388818160888342E060E080E0E5
:104710000E940F23F60180818E7F8083F8018081C3
:1047200081608083808188608083F70180818E7FB3
:104730008083888180618883DF91CF911F910F9161
:10474000FF90EF90DF90CF9008951F920F920FB6D9
:104750000F9211242F933F934F935F936F937F9307
:104760008F939F93AF93BF93EF93FF938091E1005B
:1047700082FF09C08091E20082FF05C08091E100C4
:104780008B7F8093E1008091DA0080FF2AC08091C6
:10479000D80080FF26C08091DA008E7F8093DA00F7
:1047A0008091D90080FF18C080E189BD82E189BD78
:1047B00009B400FEFDCF81E080934E038091660333
:1047C00081110FC00E949E220E9444238091E2002A
:1047D00084608093E20005C019BC10924E031092D1
:1047E00066038091E10080FF17C08091E20080FFA6
:1047F00013C08091E2008E7F8093E2008091E200FE
:1048000080618093E2008091D80080628093D8001C
:1048100019BC85E080934E038091E10084FF2EC097
:104820008091E20084FF2AC080E189BD82E189BDD8
:1048300009B400FEFDCF8091D8008F7D8093D80011
:104840008091E1008F7E8093E1008091E2008F7E75
:104850008093E2008091E20081608093E200809189
:104860004F03882311F084E007C08091E30087FDA7
:1048700002C081E001C083E080934E038091E1009B
:1048800083FF27C08091E20083FF23C08091E10075
:10489000877F8093E10082E080934E0310924F0364
:1048A0008091E1008E7F8093E1008091E2008E7F15
:1048B0008093E2008091E20080618093E20042E018
:1048C00060E080E00E940F238091F0008860809378
:1048D000F000FF91EF91BF91AF919F918F917F91E8
:1048E0006F915F914F913F912F910F900FBE0F905D
:1048F0001F901895209156033091570326173707BC
:1049000048F06115710539F42091E8002E77209365
:10491000E80001C0B901FC0120E06115710579F1E1
:1049200080914E038823F1F18530F1F18091E80008
:1049300083FD3CC08091E80082FD2EC08091E8009C
:1049400080FFEBCF2091F3008091F20090E0922B5A
:104950006115710551F08830910538F4219120934B
:10496000F100615071090196F3CF21E0089709F039
:1049700020E08091E8008E778093E800CECF21116F
:10498000CFCF0AC080914E03882361F0853061F05B
:104990008091E80083FD0AC08091E80082FFF2CF99
:1049A00080E0089582E0089583E0089581E008950D
:1049B000882341F0809590913C03892380933C03A8
:1049C0000C94CC190895882339F090913C03892BDD
:1049D00080933C030C94CC190895882309F47AC081
:1049E000682F823869F40E949C0C81FF73C069E3D0
:1049F0008BED92E00E9430190E94CC1969E30EC041
:104A0000833891F40E949C0C80FF64C063E58BEDB9
:104A100092E00E9430190E94CC1963E58BED92E080
:104A20000E9423190C94CC19843869F40E949C0CC0
:104A300082FF50C067E48BED92E00E9430190E9423
:104A4000CC1967E4EBCF8CEF860F813A38F380E224
:104A5000860F883070F4677081E090E001C0880FA5
:104A60006A95EAF7809590913C03892380933C03F3
:104A7000D9CF8BE5860F8330A0F4809167039091A6
:104A80006803892B39F11092680310926703E09153
:104A90001202F09113023097E9F00680F781E02DC1
:104AA00016C0685A6731B0F48091690390916A0327
:104AB000892B81F010926A0310926903E09112022F
:104AC000F0911302309731F00084F185E02D80E001
:104AD00090E009940895CF93882309F47CC0C82FEF
:104AE0008238B1F40E949C0C81FD75C069E38BEDA6
:104AF00092E00E9430190E94CC192FEF81EE94E0D1
:104B0000215080409040E1F700C0000069E317C0E9
:104B10008338D1F40E949C0C80FD5DC063E58BED71
:104B200092E00E9430190E94CC192FEF81EE94E0A0
:104B3000215080409040E1F700C0000063E58BED1C
:104B400092E00E9423193CC08438B1F40E949C0C6E
:104B500082FD41C067E48BED92E00E9430190E9413
:104B6000CC192FEF81EE94E0215080409040E1F786
:104B700000C0000067E4E3CF8CEF8C0F813A80F433
:104B8000EDEDF2E083EE92E02191C217E1F08E1795
:104B90009F07D1F76C2F8BED92E00E94301910C067
:104BA00080E28C0F8830B8F4C77081E090E001C0DB
:104BB000880FCA95EAF790913C03892B80933C03B8
:104BC000CF910C94CC196C2F8BED92E00E9423199D
:104BD0000E94CC19DFCFCF9108951F93CF93DF931D
:104BE000182F893319F0C0E0D0E002C0C0E5D0E052
:104BF000812F0E946B25209741F08FE99FE001975C
:104C0000F1F700C000002197F6CF812FDF91CF91FF
:104C10001F910C94ED248F929F92AF92BF92CF92EE
:104C2000DF92EF92FF92CF93DF93EC01688179815D
:104C30008A819B81611571058105910521F464E2EA
:104C400079ED8BE597E02DE133EF41E050E00E94F4
:104C5000B92649015A019B01AC01A7EAB1E40E94BF
:104C6000D8266B017C01ACEEB4EFA50194010E9443
:104C7000E626DC01CB018C0D9D1DAE1DBF1DB7FFCF
:104C800003C00197A109B04888839983AA83BB8395
:104C90009F77DF91CF91FF90EF90DF90CF90BF9003
:104CA000AF909F908F9008950E940B26089580E00A
:104CB00091E00E940B260895A0E0B0E080930001EF
:104CC00090930101A0930201B09303010895DC01C8
:104CD000CB01FC01F999FECF06C0F2BDE1BDF89A07
:104CE000319600B40D9241505040B8F70895F999AB
:104CF000FECF92BD81BDF89A992780B50895A8E1AD
:104D0000B0E042E050E00C946926DC01A40FB51F2E
:104D10004150504048F0CB01840F951F2E910E94C6
:104D2000962641505040D0F70895262FF999FECF8E
:104D300092BD81BDF89A019700B4021639F01FBAEE
:104D400020BD0FB6F894FA9AF99A0FBE089503960B
:104D5000272F0E9496260E949526252F0E94962690
:104D6000242F0C9496260196272F0E9496260C94A9
:104D70009526052E97FB1EF400940E94D02657FD21
:104D800007D00E94EB2607FC03D04EF40C94D026EB
:104D900050954095309521953F4F4F4F5F4F089567
:104DA00090958095709561957F4F8F4F9F4F089597
:104DB0000E940D27A59F900DB49F900DA49F800D7C
:104DC000911D11240895B7FF0C94D8260E94D8266F
:104DD000821B930B0895A1E21A2EAA1BBB1BFD0197
:104DE0000DC0AA1FBB1FEE1FFF1FA217B307E407CA
:104DF000F50720F0A21BB30BE40BF50B661F771F22
:104E0000881F991F1A9469F7609570958095909501
:104E10009B01AC01BD01CF010895A29FB001B39FDA
:104E2000C001A39F700D811D1124911DB29F700DB3
:104E3000811D1124911D0895AA1BBB1B51E107C0C0
:104E4000AA1FBB1FA617B70710F0A61BB70B881F1A
:104E5000991F5A95A9F780959095BC01CD010895A9
:104E600097FB072E16F4009407D077FD09D00E9417
:104E70001C2707FC05D03EF4909581959F4F08951F
:104E8000709561957F4F0895EE0FFF1F0590F49187
:104E9000E02D09946927962769277827872778279F
:064EA0000895F894FFCF15
:104EA60001000000FFFF67186C1866186418651883
:104EB6000100FF000300FF7830313233353637F515
:104EC6006790919293949596003131295A1B750AF1
:104ED6000B0C0D0E0F101112131415161718191AA4
:104EE6001B1C1D1E1F2021002223242526272829BE
:104EF6002A2B2C2D2E2F3031323334353637000005
:104F06000B000A000900080007000600050004005F
:104F160003000200010000000A010901080107015F
:104F260006010501040103010201010100010B0252
:104F36000A02090208020702060205020402030227
:104F46000202010200020B030A0309030803060317
:104F56000503030302030103000300000000000031
:104F66000000000000000000000000000000020237
:104F760002020202020202020104040404040404FE
:104F860004040401010404040404040404040101E7
:104F960001040404040404040404010101010104DD
:064FA600040101010100FD
:00000001FF
