:100000000C9489030C94D0030C94D0030C94D0036B
:100010000C94D0030C94D0030C94D0030C94D00314
:100020000C94D0030C94D0030C94F02C0C94C22D9F
:100030000C945D270C94D0030C94D0030C94D00343
:100040000C94D0030C94D0030C94D0030C94D003E4
:100050000C94D0030C94B6270C94D0030C94D003CA
:100060000C94D0030C94D0030C94D0030C94D003C4
:100070000C94D0030C94D0030C94D0030C94D003B4
:100080000C94D0030C94D0030C94D0030C94D003A4
:100090000C94D0030C94D0030C94D0030C94D00394
:1000A0000C94D0030C94D0030C94D0034215451546
:1000B000651576157E1589158C158F159215D81531
:1000C000D815951598159D15AA15B715BA15BE150D
:1000D000CB159A1C9A1CCC1CCC1C191D371D581E04
:1000E000581E421DD71DE81DE81D481E581E581EEB
:1000F000511EF81EF81E0A1F0A1F011F0A1F0A1FA1
:100100000A1FF81EF81E061F0A1F0A1F061F2F2EA1
:10011000562E4E2F562E4E2FA22EC52E4E2F1C2F52
:100120002B2F2B0014001A00090013000A000D00E9
:100130000F0018001C0033002A002961040015007C
:100140001600170007000B00110008000C00120039
:100150003400E1001D001B000600190005000E0020
:10016000100036003700380028000000E300E200ED
:1001700000000158000000002C420000E600390099
:10018000000035021E021F02200221022202230269
:1001900024022502260227022A0038001E001F0022
:1001A0002000210022002300240025002600270033
:1001B0003100010001000100010001000100010007
:1001C00057002E0001000100010000004C0529032A
:1001D00000000100000000002C0000006400350059
:1001E0000000C55CC75C0100520001000100010075
:1001F0002D0201002F003000C95CC65CC85C5000B5
:1002000051004F00010001002D0001002F023002BB
:10021000CA5C3A003B003C003D003E003F0040000D
:10022000410042004300440045000000005CC25C05
:10023000000001000000000001000000C35CC45C7D
:100240000000C55CC75C0100520001000100010014
:100250002D0201002F003000C95CC65CC85C500054
:1002600051004F00010001002D0001002F0230025B
:10027000CA5C3A003B003C003D003E003F004000AD
:10028000410042004300440045000000005CC25CA5
:10029000000001000000000001000000C35CC45C1D
:1002A000000000000000000000002A2B28000000D1
:1002B0000000000000000000000000000029000015
:1002C00000002C1E3420212224342627252E362DF2
:1002D0003738271E1F202122232425263333362E8C
:1002E00037381F0405060708090A0B0C0D0E0F10FE
:1002F0001112131415161718191A1B1C1D2F313043
:10030000232D350405060708090A0B0C0D0E0F10E6
:100310001112131415161718191A1B1C1D2F313022
:10032000354C00000000000000000000000000004C
:1003300000000000000000000000000000000000BD
:100340000000000000007E0F00D4FFFFFFC7000088
:1003500000781E0F0500047F3F1F643214643214BE
:10036000783C1E1E140A052223252628292A2C2D16
:100370002F3032333536383A3B3D3E4042434547D5
:10038000494A4C4E5051535557595A5C5E6062640D
:100390006668696B6D6F71737577797B7D7F81831B
:1003A0008587898A8C8E90929496989A9C9E9FA11C
:1003B000A3A5A7A8AAACAEAFB1B3B4B6B8B9BBBC3D
:1003C000BEBFC1C2C3C5C6C7C9CACBCCCDCED0D1B2
:1003D000D2D2D3D4D5D6D7D7D8D9D9DADADBDBDBAA
:1003E000DCDCDCDCDCDDDDDDDDDCDCDCDCDCDBDB4B
:1003F000DBDADAD9D9D8D7D7D6D5D4D3D2D2D1D09F
:10040000CECDCCCBCAC9C7C6C5C3C2C1BFBEBCBB9B
:10041000B9B8B6B4B3B1AFAEACAAA8A7A5A3A19F13
:100420009E9C9A98969492908E8C8A8987858381D7
:100430007F7D7B79777573716F6D6B6968666462B8
:10044000605E5C5A5957555351504E4C4A49474586
:100450004342403E3D3B3A3836353332302F2D2C27
:100460002A292826252322FFAA7F554000010101C1
:100470000101010101010202020202020202020361
:100480000303030303030304040404040404050531
:1004900005050506060606060707070707080808F4
:1004A00008090909090A0A0A0B0B0B0C0C0C0D0DA3
:1004B0000D0E0E0E0F0F0F1010111111121213133B
:1004C0001414151516161717181819191A1A1B1BB4
:1004D0001C1D1D1E1E1F2020212222232424252610
:1004E00026272829292A2B2C2D2D2E2F3031323248
:1004F000333435363738393A3B3C3D3E3F40414254
:10050000434445464748494A4C4D4E4F5051535439
:10051000555658595A5B5D5E5F61626465666869ED
:100520006B6C6D6F7072737577787A7B7D7E80826D
:10053000838587888A8C8E8F91939596989A9C9EB6
:10054000A0A2A3A5A7A9ABADAFB1B3B5B7BABCBEC6
:10055000C0C2C4C6C9CBCDCFD1D4D6D8DBDDDFE293
:10056000E4E7E9EBEEF0F3F5F8FAFDFF0E034100E6
:1005700078006F006E003400300000000A034E0067
:1005800061007300700000000403090409025B00AD
:10059000030100A0FA090400000103010100092180
:1005A000110100012240000705810308000A090427
:1005B00001000203000000092111010001222200B4
:1005C0000705820320000107050303200001090439
:1005D0000200010300000009211101000122B60000
:1005E0000705840320000A120110010000000870B2
:1005F0007019110100010200010660FF0961A101EB
:100600000962150026FF009520750881020963150F
:100610000026FF00952075089102C005010902A17E
:100620000185020901A10005091901290815002504
:1006300001950875018102050109300931158125EF
:100640007F95027508810609381581257F9501750A
:10065000088106050C0A38021581257F9501750869
:100660008106C0C005010980A101850319012AB7CF
:1006700000150126B700950175108100C0050C0911
:1006800001A101850419012AA002150126A00295E5
:100690000175108100C005010906A1018505050746
:1006A00019E029E715002501950875018102050764
:1006B000190029EF1500250195F075018102050843
:1006C000190129059505750191029501750391019F
:1006D000C005010906A101050719E029E715002554
:1006E00001950875018102950175088101050719B9
:1006F0000029FF150026FF009506750881000508F2
:10070000190129059505750191029501750391015E
:10071000C00011241FBECFEFDAE0DEBFCDBF04B6AC
:1007200003FE27C08091C9039091CA03A091CB0317
:10073000B091CC038730904BA740B04BD1F41092CE
:10074000C9031092CA031092CB031092CC0314BEBB
:1007500084B7877F84BF0FB6F894A8958091600016
:10076000886180936000109260000FBEE0E0F8E3C3
:10077000099511E0A0E0B1E0ECEEF1E602C00590D1
:100780000D92A83DB107D9F723E0A8EDB1E001C073
:100790001D92A93CB207E1F70E94B1290C94F430F4
:1007A0000C94000081E0089581E008950C94D40336
:1007B00008950C94D8031F93CF93DF9300D000D0FB
:1007C0001F92CDB7DEB749835A836B833091A20263
:1007D00089819A81311114C0662359F0222349F08E
:1007E0000E943124182F682F89819A810E94DA2370
:1007F00003C00E940524182F69817A81812F04C0CB
:100800000E94312469817A810F900F900F900F9090
:100810000F90DF91CF911F910C94AA16FC01262F07
:10082000408151816281738184810C94DB03CF9379
:10083000DF93EC0160E00E940E04BE01DF91CF91D6
:100840000C94D9038F929F92AF92BF92CF92DF9276
:10085000EF92FF920F931F936B017C0181E090E078
:10086000A0E0B0E04C015D0104C0880C991CAA1CFA
:10087000BB1C4A95D2F7AC01BD0104C0440F551F03
:10088000661F771F2A95D2F7482959296A297B299B
:1008900004C0880F991FAA1FBB1F0A95D2F78A01AF
:1008A0009B010C211D212E213F214017510762077A
:1008B000730739F4BC01CD016C297D298E299F294C
:1008C0000AC080959095A095B095BC01CD016C2192
:1008D0007D218E219F211F910F91FF90EF90DF903E
:1008E000CF90BF90AF909F908F9008950F93382F27
:1008F000262F6091F9027091FA028091FB0290918B
:10090000FC02042F432F0E9422040F910C94162303
:100910000E94F3070C9430080C942C0808950E9450
:10092000E61E0E948E042FEF84E39CE0215080405D
:100930009040E1F700C000000C94DC270F931F9358
:10094000CF93DF938C0161E00E940E04EC01B801AB
:100950000E949A14882309F44BC0B801CE010E946A
:10096000D603882309F444C0B801CE010E94DF17E2
:100970008823F1F1B801CE010E9431188823C1F11A
:10098000B801CE010E945C19882391F1B801CE0113
:100990000E944313882361F1F8018281882309F1C1
:1009A000CA358DE5D807C1F050F4C115FCE5DF0765
:1009B00081F0CE3DDC45A9F40E94422619C0CB351A
:1009C000EDE5DE0761F0CC35DD4559F40E94C42425
:1009D00008C00E948F040CC00E94CD2402C00E9457
:1009E000D024C801DF91CF911F910F910C94D203B5
:1009F00080E0DF91CF911F910F910895DF92EF92E8
:100A0000FF920F931F93CF93DF93E82FF0E0EE5503
:100A1000FD4FD490282F26952695269530E0F90194
:100A2000EE5BFC4F0491877010E0082E02C0159514
:100A300007950A94E2F701701127F901EE5CFC4F6B
:100A4000E490F12C082E02C0F594E7940A94E2F7A2
:100A500091E0E922FF24F901EE5DFC4FC491D0E062
:100A600002C0D595C7958A95E2F7C170DD270115BB
:100A7000110519F081EE0E94271BE114F10419F011
:100A800086EE0E94271B8D2D0E94501CEF2819F026
:100A900086EE0E94D11B012B19F081EE0E94D11B22
:100AA000CD2B51F08CE2DF91CF911F910F91FF90F0
:100AB000EF90DF900C94501CDF91CF911F910F911C
:100AC000FF90EF90DF900895EF92FF920F931F93A6
:100AD000CF93DF93EC01162F0AE08881882309F475
:100AE00055C0813009F043C08981813041F47E01D5
:100AF00082E0E80EF11C8A810E94501C09C08230FD
:100B000049F47E01E2E0EE0EF11C8A810E94271B6F
:100B1000E7012FC0833041F47E01F2E0EF0EF11CBB
:100B20008A810E94D11BF4CF843011F0219621C01C
:100B30002A81229680E090E030E0205331092A306B
:100B4000310558F4089FA001099F500D1124C901D7
:100B5000840F951F21962881EFCF009751F0EFE980
:100B6000FFE03197F1F700C000000197F6CF0E9437
:100B7000FE042196812F882309F4AFCFEFE9FFE02F
:100B80003197F1F700C000008150F5CFDF91CF9190
:100B90001F910F91FF90EF90089560E00C94640511
:100BA00008950C94D00581E008950C94D305CF935B
:100BB000C82F0E94D1058C2F0E94D505CF91089592
:100BC00080E090E008950895880F991FFC01EE5A87
:100BD000FC4F859194910895CF93DF930E94AA16BC
:100BE0000E940407EC018115904508F041C0C11531
:100BF00080E4D80708F0D1C0C83ED10510F5C03E4A
:100C0000D10508F0FDC0C83AD10578F4C53AD10540
:100C100008F0A2C0C130D10509F4F2C008F4EEC05A
:100C2000C430D10508F0ECC0E9C0CF3BD10508F4D1
:100C30009BC0C03CD10508F4E1C0CE01805C9109A5
:100C40009EC0C11590E2D90758F4C11521E0D20722
:100C500008F0D6C0C03FD10508F4D0C0D065D0C0E0
:100C6000C11580E3D80708F08EC0CE019F7087C001
:100C7000C11595E5D90708F043C0C11524E5D20791
:100C800008F0A2C0C11582E5D80708F5C11591E5A5
:100C9000D90708F085C0CE0174E0969587957A95BE
:100CA000E1F783709C2F937021E030E002C0220FA7
:100CB000331F9A95E2F73C68382BCF70C695C695DE
:100CC00080E2C89FE0011124C22BD32B99C09E0162
:100CD000237033278C2F86958695C115D34508F050
:100CE00064C0C1E0D0E002C0CC0FDD1F2A95E2F75E
:100CF00020E2829FC0011124C82BD92BDC6880C060
:100D0000C11529E5D207A0F4C11588E5D80708F078
:100D100060C0C11596E5D90708F070C08C2F0E94FD
:100D200098078F71C82FD0E0DC2FCC27D06268C025
:100D3000C1152AE5D20708F451C0CE01905681159D
:100D4000904208F05BC08D2F8F710E949807DD27BD
:100D5000D0628F71D82B54C0C55AD0E0C65ADE4F2E
:100D6000C881D0E0D0644CC0C85AD0E0CC0FDD1FA1
:100D7000C45DDE4F0990D881C02DD46441C00E946B
:100D8000E405EC013DC0CE019927D3FF03C0EC017F
:100D9000D86C36C0EC01D06C33C0DF70D06A30C084
:100DA000DC2FCC27C16FD06A2BC0C1E0D0E002C0DD
:100DB000CC0FDD1F2A95E2F720E2829FC0011124AB
:100DC000C82BD92BDA681CC0DC2FCC27C46FD06AA3
:100DD00017C0DC2FCC27C06FD06A12C08C2F8F7049
:100DE0000E94980794E0D695C7959A95E1F7CF7041
:100DF000D0E0DC2FCC27D069C82B02C0C0E0D0E007
:100E0000CE01DF91CF9108958238910569F1B0F458
:100E10008133910509F46DC048F48932910509F4D4
:100E200063C08A32910509F469C00895853391053C
:100E300009F455C089339105B9F00895833E9105B1
:100E400069F138F4803E9105B1F0823E910509F1D7
:100E50000895863E9105A9F1873E9105B9F1843E3A
:100E6000910509F064C023C020914A0320FD4FC0C2
:100E700021FD4DC0089580914A0380FD44C08091BA
:100E80004B0380FF44C080914A0384FD42C083EE3F
:100E90004DC080914A0382FF38C0F5CF80914A034C
:100EA00082FD33C080914B0380FD31C0ECCF809137
:100EB0004B0381FF32C080914A0384FD2AC087EE34
:100EC00035C080914A0383FF26C0F5CF80914A0345
:100ED00083FD21C080914B0381FD1FC0ECCF809129
:100EE0004A0385FD1CC01DC080914A0385FD19C0C1
:100EF00016C080914A0386FD16C017C080914A0330
:100F000086FD13C010C089E311C082EE0FC080EED1
:100F10000DC080E00BC086EE09C084EE07C089E2F8
:100F200005C085E303C08AE201C081E390E0089533
:100F300090914A0392FF0DC0282F2871283019F490
:100F4000877F846006C0282F2471243011F48B7FA2
:100F5000886093FF0DC0282F2871283119F4877EEF
:100F6000846106C0282F2471243111F48B7E88619E
:100F700020914B0320FF0DC0382F3871383019F401
:100F8000877F816006C0382F3171313011F48E7F38
:100F9000886021FF0DC0282F2871283119F4877E21
:100FA000816106C0282F2171213111F48E7E886164
:100FB00094FD877E08950C9474140E948C088FE32E
:100FC0009CE90197F1F700C000000E948C0880E0C6
:100FD0000E94170880FF04C00E94DB070C94DC27E6
:100FE00008950C94DD070E949A25811102C00E9489
:100FF00042260E94A525809326030E94AD2590934A
:101000004B0380934A030E94F1070E94A925682F91
:1010100070E080E090E00E94DC226091F902709123
:10102000FA028091FB029091FC020C941423E82FA9
:10103000F0E0EE0FFF1FEC5AFC4F80819181089584
:10104000089580EA8A95F1F7089500C008950C94F8
:10105000210808950C9429080C942A080C94290856
:101060000C942E08F894E82FE295EF70F0E031A18F
:10107000282F2F7081E090E001C0880F2A95EAF7B1
:10108000982F9095932391A392A1892B82A3789472
:1010900008950F931F93CF93DF9382E90E94320844
:1010A00083E90E94320881E90E94320885E90E94A2
:1010B0003208CDE5D1E009E611E089910E943208BD
:1010C0000C171D07D1F710924D0310924C0310928C
:1010D00055031092540310924F0310924E03109236
:1010E000570310925603109251031092500310921E
:1010F0005903109258031092530310925203109206
:101100005B0310925A0384E00E941A09DF91CF9189
:101110001F910F910C9488047F928F929F92AF92AF
:10112000BF92CF92DF92EF92FF920F931F93CF93D4
:10113000DF93C9E6D1E08CE4A82E83E0B82E94E5D5
:10114000E92E93E0F92E712C01E010E06E01888108
:10115000F894E82FE295EF70F0E021A18F70A801DC
:1011600002C0440F551F8A95E2F7CA01922F982BAF
:1011700091A392A18095892382A378940E94250847
:10118000EDE5F1E020E030E0812C912C4191A42F9D
:10119000A295AF70B0E090968C9190E04F7002C035
:1011A000959587954A95E2F780FD08C0C801022E03
:1011B00002C0880F991F0A94E2F702C080E090E015
:1011C000882A992A2F5F3F4F2C303105F9F6219656
:1011D000F60180810E9432080E942708F501808173
:1011E00091818816990621F09182808281E001C068
:1011F00080E0782AF2E0AF0EB11CEA14FB0409F09B
:10120000A5CF272D44E064E573E08CE493E00E94D1
:101210001B090E948C04872DDF91CF911F910F91A4
:10122000FF90EF90DF90CF90BF90AF909F908F9006
:101230007F9008950895FF920F931F93CF93DF93AC
:10124000F82E092F162FD72FC42F222349F081E023
:101250008093DC010E948F279093DB018093DA0159
:101260008091DC018823D9F08091DA019091DB0133
:101270000E94A727069798F0EF2DF02FA12FBD2FE2
:1012800080E090E04C2F50E08417950734F42191D2
:1012900031912D933D930196F7CF1092DC01DF91B0
:1012A000CF911F910F91FF9008958091E30180FFEE
:1012B0000BC06091090185E0689FB001112475950C
:1012C0006795759567952BC081FF09C060910901ED
:1012D00085E0689FB00111247595679520C082FF55
:1012E00007C06091090185E0689FB001112417C013
:1012F0009091E2019923D1F060910801961788F747
:101300002091090185E0289F90011124929FA0015E
:10131000939F500D112470E0CA010E94B02F6038D5
:10132000710540F46115710519F406C065E070E0BF
:10133000862F08958FE7089581E008958091E30155
:1013400080FF08C06091050170E0759567957595FF
:10135000679521C081FF06C06091050170E0759519
:10136000679519C082FF04C06091050170E010C04C
:101370009091E101992399F0609104019617A0F7EB
:1013800080910501899FC001112470E00E94B02F57
:101390006038710540F46115710519F406C061E00B
:1013A00070E0862F08958FE7089581E00895803FCB
:1013B00021F40E945509819504C0813F29F40E94BF
:1013C00055098093E7010895823F21F40E94550951
:1013D000819504C0833F29F40E9455098093E6015A
:1013E0000895893F19F40E949E0905C08A3F31F48F
:1013F0000E949E0981958093E80108958B3F21F416
:101400000E949E09819504C08C3F29F40E949E0988
:101410008093E90108959CE0980F953078F421E0DD
:1014200030E0A90102C0440F551F9A95E2F7CA01A6
:101430009091E501892B8093E50108958D3F21F47A
:101440008091E30181600BC08E3F21F48091E30124
:10145000826005C08F3F29F48091E301846080930E
:10146000E3010895803F39F49091E70197FF35C07B
:101470001092E70159C0813F29F49091E7011916B4
:10148000BCF32BC09091E601823F29F497FF25C061
:101490001092E60149C0833F19F41916CCF31DC020
:1014A0009091E801893F29F41916BCF41092E801E3
:1014B0003BC08A3F19F497FF10C0F8CF8B3F39F437
:1014C0009091E90197FF09C01092E9012DC08C3F6E
:1014D00021F49091E9011916BCF39CE0980F953026
:1014E00080F421E030E0A90102C0440F551F9A9515
:1014F000E2F7CA0180959091E50189238093E50187
:1015000013C08D3F21F48091E3018E7F0BC08E3F8D
:1015100021F48091E3018D7F05C08F3F29F48091F4
:10152000E3018B7F8093E3018091E601811106C086
:101530008091E701811102C01092E2018091E801DF
:10154000811106C08091E901811102C01092E10170
:1015500008950E948F272091E601211104C0209157
:10156000E701222321F09093E0018093DF01209195
:10157000E801211104C02091E901222321F0909378
:10158000DE018093DD0184EE91E00C94B819EF92B6
:10159000FF920F931F93CF93DF9300D000D000D022
:1015A000CDB7DEB786E0E4EEF1E0DE011196019002
:1015B0000D928A95E1F7E090E601F090E701009145
:1015C000E8011091E9011092E6011092E7011092F2
:1015D000E8011092E901E11003C0FF2009F45DC0A9
:1015E0008091DF019091E0010E94A727AC019091CA
:1015F000E201992339F020910A0130E024173507E0
:1016000058F04BC020910B018AE0289F90011124D3
:101610002417350718F041C09F3F19F09F5F909342
:10162000E201EE2061F00E9455091E1414F09FEFB4
:1016300001C091E0989F902D11249093E601FF2026
:1016400061F00E9455091F1414F09FEF01C091E052
:10165000989F902D11249093E7013091E601332358
:10166000E1F02091E7012223C1F045EB3403C001F2
:101670001124992319F09093E60103C081E080932F
:10168000E60135EB2303C0011124992319F090934F
:10169000E70103C081E08093E701011103C011233A
:1016A00009F45DC08091DD019091DE010E94A727C1
:1016B000AC019091E101992339F02091060130E0CD
:1016C0002417350758F04BC0209107018AE0289F66
:1016D000900111242417350718F041C09F3F19F0DD
:1016E0009F5F9093E101002361F00E949E09101614
:1016F00014F09FEF01C091E0989F902D11249093DA
:10170000E801112361F00E949E09111614F09FEF69
:1017100001C091E0989F902D11249093E9013091A0
:10172000E8013323E1F02091E9012223C1F045EBE8
:101730003403C0011124992319F09093E80103C0E8
:1017400081E08093E80135EB2303C0011124992344
:1017500019F09093E90103C081E08093E901809141
:10176000E60181110BC08091E701811107C08091D2
:10177000E801811103C08091E90181110E94A90A49
:10178000EB82FC820D831E8386E0FE013196A4EE7F
:10179000B1E001900D928A95E1F726960FB6F89484
:1017A000DEBF0FBECDBFDF91CF911F910F91FF9094
:1017B000EF900895E4EEF1E086E0DF011D928A9556
:1017C000E9F71092E2011092E1011092E30108950D
:1017D000EF92FF920F931F93CF93DF938B01682FAC
:1017E00011110AC0442329F0E82FF0E0E459FB4F1F
:1017F0006491762F862F75C0212F30E0E82FF0E01E
:10180000442321F0E459FB4FE491F0E046E0049FCB
:10181000C0011124CFEFD0E0BE010E949C2F4BEA03
:101820004603C001479F900D1124800F911D800F2A
:10183000911D982F990F890FAE01421B530B4E9F9C
:10184000D0014F9FB00D5E9FB00D11249B2F189FAC
:10185000A0011124452F55278E01041B150B0E9F47
:10186000A0010F9F500D1E9F500D11247E01E81AFC
:10187000F108E29E8001E39E100DF29E100D1124EE
:10188000212F3327C21BD30BCE9F9001CF9F300D4A
:10189000DE9F300D112462307105A9F048F4611506
:1018A000710569F061307105C9F48B2F752F0DC07A
:1018B0006430710581F058F06630710579F47E2F3F
:1018C0008B2F932F0DC0832F7B2F9E2F09C08E2F20
:1018D0007B2F952F05C08E2F732F02C07E2F852F53
:1018E000692FDF91CF911F910F91FF90EF90089595
:1018F00041E00E94E80B089508950E94780C089535
:10190000CF93DF93762FE901682F842F0E947D0CFF
:10191000798368838A83DF91CF91089580915C03F6
:10192000282F269530E02115310519F48170826049
:1019300005C02B32310524F08170846580935C03EF
:10194000089588E090E00C949530CF92DF92EF926A
:10195000FF926B017C010E948E0CB701A60188E00A
:1019600090E0FF90EF90DF90CF900C94B3306091B7
:101970005C0370915D0380915E0390915F030C9412
:10198000A50CECE5F3E083E0808311828FEF828386
:101990008383148260817181828193810C94A50C70
:1019A00080915C0380FF02C08695089580E00895D1
:1019B00090916003933018F49F5F909360038823A5
:1019C00051F060915C0370915D0380915E03909192
:1019D0005F030C94A50C089581E00C94D80C9091B1
:1019E0006003992319F0915090936003882351F07C
:1019F00060915C0370915D0380915E0390915F0341
:101A00000C94A50C089581E00C94EF0C8091600378
:101A1000089580936003662351F060915C03709198
:101A20005D0380915E0390915F030C94A50C089573
:101A300060E00C94090D80915D03089580915E0330
:101A4000089580915F03089570E00C9412146091E2
:101A5000100180915C0380FF0AC080910F0123E098
:101A6000829FC00111248F599C4F0C94240D8091AA
:101A7000110190911201891780F7E82FF0E09F0182
:101A8000220F331FE20FF31FEF59FC4F1182108218
:101A900012828F5FF0CF90915C0390FF16C09091FF
:101AA000110120911201921770F4E92FF0E0DF018B
:101AB000AA0FBB1FEA0FFB1FEF59FC4F8183608306
:101AC00042839F5FF0CF0C94270D0895CF93DF934F
:101AD00000D01F92CDB7DEB790915C0390FF0AC093
:101AE0009E012F5F3F4F0E94800C4B8169818A814C
:101AF0000E944B0D0F900F900F90DF91CF910895A2
:101B0000CF93DF93EC01EC81F0E0E959FC4F449175
:101B1000ECE5F3E0628181810E94660D8C818F5F2C
:101B20008C83DF91CF910895CF93DF93EC01ECE5A7
:101B3000F3E0438162818C810E94660D8C818F5F0E
:101B40008C83DF91CF9108950F931F93CF93DF93F1
:101B500000D01F92CDB7DEB78C018091EA018111D0
:101B60000AC09E012F5F3F4F4FEF6FEF0E94800C26
:101B70008A818093EA01F8018481813051F028F054
:101B8000823061F44091EA010AC08091EA0140E0AC
:101B900007C06091EA0140E080E003C040E080E0DF
:101BA00060E00E944B0DF801848190E0019663E0B3
:101BB00070E00E94B02F84830F900F900F90DF9100
:101BC000CF911F910F910895AF92BF92CF92DF9264
:101BD000EF92FF920F931F93CF93DF9300D01F924A
:101BE000CDB7DEB7182FF62E042FE22E90915C03AE
:101BF00090FF6DC0E92FE695AE2FB0E0A359BE4F20
:101C00008C91809385029E7F923061F49E012F5FBC
:101C10003F4F812F0E94800C4B8169818A810E94F5
:101C20004B0D43C0823019F400915F033EC08630F3
:101C300019F410915D0339C08930D9F38931A9F5C0
:101C4000E9518E2F8170D82EE695F0E0E959FB4FCF
:101C5000A590B490C12CBB2460911301C61618F551
:101C60002C2D30E0A29EC001A39E900DB29E900D3F
:101C7000112470E00E949C2F812FD11002C0860F8A
:101C800001C0861B90911101290F311DA901440F3C
:101C9000551F240F351F2F593C4F402F6F2D0E9489
:101CA000800CC394D9CF0E94270D10935D03F0924E
:101CB0005E0300935F03EE2051F060915C0370912E
:101CC0005D0380915E0390915F030E94A50C0F90CD
:101CD0000F900F90DF91CF911F910F91FF90EF9098
:101CE000DF90CF90BF90AF900895ECE5F3E0918145
:101CF000282F4381628188E0890F0C94E40D81E0F4
:101D00000C94750EECE5F3E09181282F43816281FC
:101D100088EF890F0C94E40D81E00C94820EECE5C1
:101D2000F3E0628128E0620F08F46FEF282F43810F
:101D300081810C94E40D81E00C948F0EECE5F3E0CE
:101D4000628128E0621B08F460E0282F43818181D2
:101D50000C94E40D81E00C949E0EECE5F3E04381DD
:101D600028E0420F08F44FEF282F628181810C9404
:101D7000E40D81E00C94AD0EECE5F3E0438128E046
:101D8000421B08F440E0282F628181810C94E40D0D
:101D900081E00C94BC0E20E00C94E40DFF920F93B4
:101DA0001F93CF93DF93EC01F12C0FEF10E06091C4
:101DB0001301F616F0F4809111012F2D30E0280F59
:101DC000311DC901880F991F280F391F2F593C4F0A
:101DD00070E0C8010E94B02F962F8C8140915F0364
:101DE00060915E03F99E800D11240E94800CF39493
:101DF000DECF0E94270D9A818C8190FF02C08F5FF9
:101E000001C081508C83DF91CF911F910F91FF9082
:101E10000895AF92BF92CF92DF92EF92FF920F930D
:101E20001F93CF93DF93FC01828180FF02C00FEFED
:101E300001C001E010E04DE1A42E809113011817BC
:101E400008F043C080911101C12ED12CE601C80FCA
:101E5000D11DCE01880F991FC80FD91FCF59DC4F54
:101E6000198218821A8234E0E32EF12CB12C809171
:101E7000EC018B0D8E312CF06A2D0E948E2F892F54
:101E800005C087FF03C090911301890F082E000C35
:101E9000990BC816D90691F480915F038E9DA0011D
:101EA0008F9D500D112455954795559547959E0149
:101EB00060915E0380915D030E94800CB00EF1E0A2
:101EC000EF1AF108A1F61F5FB8CF0E94270D80918D
:101ED000EC01013031F4811102C080911301815075
:101EE00007C090E001966091130170E00E94B02F4E
:101EF0008093EC01DF91CF911F910F91FF90EF90B4
:101F0000DF90CF90BF90AF900895CF938091110153
:101F100090911201891770F4E82FF0E09F01220FD1
:101F2000331FE20FF31FEF59FC4F11821082128210
:101F30008F5FF0CFC0E060911301C617C0F5EC2FA2
:101F4000F0E070E0CF010E94B02F20911101820FCC
:101F50002091EB01022E000C330B90E0E217F30707
:101F6000CCF020910E01022E000C330B2E173F07F0
:101F70008CF09C01220F331F820F931F9C012F595D
:101F80003C4F40915F0360915E0380915D030E942E
:101F9000800C0BC0FC01EE0FFF1F8E0F9F1FFC017A
:101FA000EF59FC4F118210821282CF5FC4CF0E9482
:101FB000270D20910D018091EB01820F8093EB01A1
:101FC00090910E01920F90930E0119165CF4082E59
:101FD000000C990B4091130150E0415051098417B6
:101FE00095071CF0219520930D01CF9108958F92B4
:101FF0009F92AF92BF92CF92DF92EF92FF920F9398
:102000001F93CF93DF938C01FC014481C42FD0E058
:102010009E01DE010E94FB2F9B01AC010E9411304A
:102020006B017C01E0E2F0E0EC1BFD0BA5E5B0E00C
:102030009B01AC010E9411304B015C019F01DF014B
:102040000E94F32F9B01AC010E941C309B01AC014C
:102050002C0D3D1D4E1D5F1DC501B4010E94C42FF6
:10206000C22FD22F2A3228F4F3E02F9F900111249F
:102070000DC025E530E02C1B3109C901880F991FDF
:10208000280F391F37FF02C02F5F3F4F3595279527
:10209000C22FC095F12C85E5E82EED1A8091130131
:1020A000F816C8F4F1FC02C08E2D01C08D2F90915E
:1020B00011012F2D30E0290F311DA901440F551FAB
:1020C000240F351F2F593C4F4C2F60915E030E9407
:1020D000800CF394E3CF0E94270DF80184818111D5
:1020E00002C091E003C0803219F49FEF90930C017D
:1020F00090910C01890FF8018483DF91CF911F919A
:102100000F91FF90EF90DF90CF90BF90AF909F9096
:102110008F9008950F931F93CF93DF93EC0100E00E
:1021200010E080911301282F30E00217130724F5E7
:10213000909111019801290F311DA901440F551FDC
:10214000240F351F2F593C4F869590E04C8108177E
:1021500019071CF4442331F002C0411103C040911F
:102160005F0301C040E060915E0380915D030E94C7
:10217000800C0F5F1F4FD5CF0E94270D8C8190E000
:102180000196817099278C83DF91CF911F910F91D8
:1021900008957F928F929F92AF92BF92CF92DF92DB
:1021A000EF92FF920F931F93CF93DF93FC018280F6
:1021B000748081E08483E7E6F3E09490E6EEF3E058
:1021C000E491A12CF5E0BF2ECC24CA94D12CE919BE
:1021D0000E2F10E080911301A81608F0A2C0EA2C7F
:1021E000F12C22E0281568F0BE9CF001BF9CF00D98
:1021F0001124E351FE4F80915D03808380915E0343
:10220000818371100AC0BE9CF001BF9CF00D1124A7
:10221000E351FE4F138212826AC0BE9CE001BF9C54
:10222000D00D1124C351DE4F8B818823F9F08150EA
:102230008B832FEF829FC00111246C8170E00E947C
:102240009C2FFB01FF27E959FC4F8491E82FE919E6
:102250002FEFE29FC0011124B8010E949C2F8091B2
:102260005F03689FB00111247A8341C00E947030DF
:1022700020915F032695215830E0A901440F551F96
:10228000322F2227240F351F232F3327821793073E
:1022900074F582E0881588F40E947030B6010E94BF
:1022A000B02F88830E94703020915E032695622FA4
:1022B00070E00E94B02F280F2983BE9CF001BF9CC4
:1022C000F00D1124E351FE4F128280915F0384319F
:1022D00020F0893C18F088EC01C084E1BE9CF0013C
:1022E000BF9CF00D1124E351FE4F848383838091C2
:1022F00011019701280F311DC901880F991F280F5F
:10230000391F2F593C4FBE9CF001BF9CF00D11248A
:10231000E351FE4F4281618180810E94800CA39431
:1023200059CFDF91CF911F910F91FF90EF90DF90E8
:10233000CF90BF90AF909F908F907F900C94270D7F
:10234000ECE5F3E080818E7F808360817181828102
:1023500093810E94A50C109286022FEF80E792E0F5
:10236000215080409040E1F700C000000C94270D00
:10237000ECE5F3E080818E7F8083109286022FEF60
:1023800080E792E0215080409040E1F700C00000DB
:102390000C94270D60915C03669570E04BE050E073
:1023A00084E191E00E948030892B19F481E08093D0
:1023B00086020E948F2790937F0280937E02089569
:1023C00090915C0390FF35C09170811102C09260C2
:1023D00006C08B3210F0946502C0880F982B909342
:1023E0005C03662351F060915C0370915D03809102
:1023F0005E0390915F030E94A50C60915C0366955B
:1024000070E04BE050E084E191E00E948030892B45
:1024100019F01092860202C00E94CA1181E08093D6
:10242000810240915F0360915E0380915D030C9493
:10243000CB0E0895682F90915C03969581E0890FEB
:102440008B3208F081E00C94E01181E00C941A12B8
:10245000682F90915C0396958FEF890F09F48AE2BB
:102460000C94E01181E00C94281261E00C94E011CE
:10247000ECE5F3E080818160808386950C943512D1
:1024800080915C0380FD0C94A0110C94381260E0E4
:102490000C94E0118091840281112EC00E949A2533
:1024A000811104C00E9442260E94C10C0E94A10C0E
:1024B00060935C0370935D0380935E0390935F036E
:1024C0006E7F61F40E94C10C0E94A10C60935C03BA
:1024D00070935D0380935E0390935F030E948E0C64
:1024E0001092860280915C0380FF03C086950E9453
:1024F000471281E0809384020895ECE5F3E0808147
:102500008160808386950C9447120F931F93CF931D
:10251000DF9380918602882309F495C0809185021B
:10252000E0915C03E695E81BE0938002823049F479
:10253000F0E0ED59FC4FE491CE2FD0E000E81DE033
:1025400059C0863049F4F0E0E05AFC4FE491CE2FB8
:10255000D0E004E91DE04EC0893051F4E695F0E08A
:10256000E35AFC4FE491CE2FD0E00EEC1EE042C0C7
:102570008F3051F4E695F0E0E65AFC4FE491CE2F0F
:10258000D0E009E01FE036C0853149F4F0E0E95AB7
:10259000FC4FE491CE2FD0E005E81FE02BC088313E
:1025A000D9F0833239F4E5E5F3E0C591D49104EA3A
:1025B0001DE020C08432A9F08532C1F48E2F63E083
:1025C0000E94822FE92FF0E0EE5AFC4FE491CE2FCB
:1025D000D0E009EC10E10EC0C8E2D0E007EF1FE048
:1025E00009C0C4EFD1E00AE810E104C0C0EDD7E0B3
:1025F0000CE71CE080918102882361F01092810237
:102600000E948F2790937F0280937E021092830214
:10261000109282020E948F27E0917E02F0917F0249
:102620008E1B9F0B8F3F9F4770F4EC0FFD1FF093A5
:102630007F02E0937E028EE792E0F801DF91CF9176
:102640001F910F910994DF91CF911F910F910895E0
:10265000882311F0FA0101C0FB010994CF93DF93A5
:10266000C82FD62F0E94D00C8C1740F00E94D00C9F
:102670008D1720F4DF91CF910C9425128C2FDF91D0
:10268000CF910C9435121F93CF93DF93FB011281EE
:10269000112309F4C1C0EC010E94D3248272CC3C06
:1026A000FCE5DF0709F49BC008F043C0C63CECE53D
:1026B000DE0709F480C0D8F4C33C9CE5D90709F4CF
:1026C0006DC038F4C23CDC4509F0A7C00E9440123E
:1026D0006BC0C43C9CE5D90709F468C0C53CDC4527
:1026E00009F09BC04CE85EE06FE77EE05BC0C93C50
:1026F000FCE5DF0709F469C070F4C73CECE5DE07D0
:1027000009F45EC0C83CDC4509F087C04BE95EE0D7
:102710006AEA7EE047C0CA3C9CE5D90709F45AC082
:10272000CB3CDC4509F079C043E05DE06CEE7CE039
:1027300039C0C13DFCE5DF0709F45EC098F4CE3C2A
:102740009CE5D90709F452C008F44EC0CF3CFCE523
:10275000DF0709F44EC0C03DDC4509F05EC06EE005
:1027600089E057C0C43D9CE5D90709F44BC058F433
:10277000C23DFCE5DF0709F442C0C33DDC4509F07A
:102780004CC088E143C0C53D9CE5D907F1F1CD358A
:10279000DD4509F042C06AE285E23BC042E352E116
:1027A00065E272E10E94281310E037C045E252E171
:1027B00062E372E1F7CF4FE75EE06CE87EE0F2CFD4
:1027C0004AEA5EE06BE97EE0EDCF48EC5EE069EB63
:1027D0007EE0E8CF49EB5EE068EC7EE0E3CF4CEED4
:1027E0005CE063E07DE0DECF81E010C065E082E088
:1027F00010C068E086E00DC064E18FE00AC067E1C8
:1028000085E107C062E289E104C083E20E943512DB
:10281000CBCF0E942E13C8CF11E0812FDF91CF9133
:102820001F910895579A2BB12F773BB130684FB75E
:10283000F894FC01CB01880F991F680F791F6E0F68
:102840007F1FE617F70789F0819198E03BB90000F8
:1028500000C087FF2BB9880F000000C000C000C077
:102860002BB900C09A9591F7ECCF4FBF8FE594E05C
:102870000197F1F700C00000089583E290E00E9404
:102880008D30813281F484E290E00E948D30873077
:1028900051F485E290E00E948D3091E0883209F099
:1028A00090E0892F01C080E081700895CF93C82FF8
:1028B000811102C06FEF01C061E283E290E00E94EB
:1028C000A130C11102C06FEF01C067E084E290E067
:1028D0000E94A130C11102C06FEF01C068E285E221
:1028E00090E0CF910C94A13080E00E9456140C949B
:1028F0009425089586E290E00E948D30682F70E064
:1029000080E090E0089586E290E00C94A1300E946F
:1029100079140E943D1481110CC060E070E0CB017D
:102920000E9483140E9425160E94041781E00C94D3
:1029300056140895CF93FB01C281CC23E9F09C018A
:1029400022513F452031310520F482510E94141755
:102950000CC08031FFE59F0751F481E00E943C23C9
:1029600043E062E081E00E947604C0E018C081315B
:102970009F45A9F482E0F2CF8031EFE59E0711F484
:1029800081E004C081319F4549F482E00E945D23CB
:1029900043E062E081E00E94760401C0C1E08C2F38
:1029A000CF9108952FEFFC0120830895CF93DF93FB
:1029B000EC018881813889F028F48038A1F40E94E4
:1029C000210D10C0823861F0833869F40E941B0D1C
:1029D00089830E941E0D8A8306C00E94D00C02C00B
:1029E0000E94060D8983DF91CF910895CF93DF93E5
:1029F000EC0188818138B1F058F4803851F5D981E3
:102A00000E941E0DC82F0E941B0D4D2F6C2F1DC044
:102A10008238B1F08338E9F40E94210D482F6A8191
:102A2000898113C089810E9447128981811104C064
:102A3000DF91CF910C94B811DF91CF910C947D125E
:102A40008981DF91CF910C94180DDF91CF910C9477
:102A5000CB0EDF91CF910895EF92FF920F931F93CA
:102A6000CF93DF93EC01062F0196E8814E2F50E0C3
:102A7000FA013197E331F10508F09AC0EA5AFF4FA5
:102A80000C94E62F198289E056C08981823039F092
:102A9000833061F0813029F50E949B2702C00E949B
:102AA0007A149A838B837C836D8384C07E0110E0CB
:102AB000812F0E941708F701928383831F5FF2E042
:102AC000EF0EF11C1430A1F775C08981823049F4F2
:102AD0006A817B818C819D810E94EC2F0E948314EE
:102AE00069C0602FCE010E94D21464C04B816A81FC
:102AF00089810E94F7159C838D835CC02C813D8168
:102B00003227232732274B816A8189810E94101640
:102B100051C00E9425164EC00E94F6144BC00E9460
:102B2000D61448C00E94B70C45C00E94B71624C0F6
:102B30000E94B91699838A833DC06B8170E08981B8
:102B40009A81AE014C5F5F4F9827892798270E9492
:102B5000BC1630C06B8170E089819A81AE014C5FF8
:102B60005F4F9827892798270E94E11623C00E946B
:102B7000041720C00E94E41589831CC06B8170E09B
:102B800089819A81AE014C5F5F4F982789279827EA
:102B90000E9464160FC06B8170E089819A81AE013A
:102BA0004C5F5F4F9827892798270E94881602C09C
:102BB0008FEF8883602FCE01DF91CF911F910F910E
:102BC000FF90EF900C94A22884E0089550E0440F09
:102BD000551F28E1629F400D511D11249A0160E6A6
:102BE000869F200D311D1124C901879608950F93EA
:102BF0001F93CF93DF930E94E6158C010E948D30C6
:102C0000C82FD0E0DC2FCC27C80101960E948D3060
:102C10009E01282BC901DF91CF911F910F9108953B
:102C20000F931F93CF93DF93122F032F0E94E6156C
:102C3000EC01602F0E94A130612FCE010196DF913F
:102C4000CF911F910F910C94A130AF92BF92CF9270
:102C5000DF92EF92FF920F931F93CF93DF93A12CFC
:102C6000E12CF12CB12C00E010E0C0E0D0E06701D5
:102C7000C00ED11EFE01EE0FFF1FEC0DFD1DEE5D1F
:102C8000FE4F259134914C2F6B2D8A2D0E941016EA
:102C90002196CC30D10571F7085E1F4FB39484E0C4
:102CA000B812E3CF80E6E80EF11CA39484E0A812EA
:102CB000D9CFDF91CF911F910F91FF90EF90DF90CF
:102CC000CF90BF90AF900895EF92FF920F931F9314
:102CD000CF93DF93EA017A01E60EF71E8C01C8015B
:102CE0008796CE15DF0569F0003821E0120720F441
:102CF0000E948D30888301C0188221960F5F1F4F7C
:102D0000EECFDF91CF911F910F91FF90EF9008953B
:102D1000EF92FF920F931F93CF93DF93EA017A0113
:102D2000E60EF71E8C01C8018796CE15DF0559F017
:102D3000003821E0120718F468810E94A130219622
:102D40000F5F1F4FF0CFDF91CF911F910F91FF9039
:102D5000EF900895462F843038F4743028F46C30A6
:102D600018F4672F0C94F71580E090E0089580E147
:102D7000089589E592E00895EF92FF920F931F93D3
:102D8000CF93DF93EA017A01E60EF71E8C01C801AA
:102D900089559E4FCE15DF0569F0093522E01207EF
:102DA00020F40E948D30888301C0188221960F5F25
:102DB0001F4FEDCFDF91CF911F910F91FF90EF90BB
:102DC0000895EF92FF920F931F93CF93DF93EA0141
:102DD0007A01E60EF71E8C01C80189559E4FCE156B
:102DE000DF0559F0093522E0120718F468810E94C6
:102DF000A13021960F5F1F4FEFCFDF91CF911F9131
:102E00000F91FF90EF900895CF93DF93C7EAD1E041
:102E100060E0CE010E94A1302196C11584E0D80760
:102E2000B9F7DF91CF910895DF92EF92FF920F9360
:102E30001F93CF93DF9300D000D0CDB7DEB7F82E2D
:102E40008FE08F15E8F18FEF93E00E948D308111B4
:102E500037C007EA11E0FF2069F0011584E0180788
:102E600079F1C8010E948D30811101C0FA940F5F81
:102E70001F4FF1CF19821A821B821C82DD24D3944A
:102E800078018FEFE81AF80AC8010E948D30898313
:102E90001A828823A9F09FEF980F933058F48A8301
:102EA000D9820E5F1F4FC7010E948D308B8388230C
:102EB00039F07801CE0101960E94CD058701E0CF5F
:102EC0000F900F900F900F90DF91CF911F910F9166
:102ED000FF90EF90DF9008950F931F93CF93DF93B0
:102EE000C42FD22FFC0182818823C9F0409389022C
:102EF0000E948F27909388028093870280E28C0F34
:102F0000883008F057C0C77081E001C0880FCA95AB
:102F1000EAF7DF91CF911F910F910C94591C80918A
:102F20008902481330C080918702909188020E94E4
:102F3000A727883C910538F510E21D0FCD17B9F091
:102F400080E28C0F883040F4C77081E001C0880FA8
:102F5000CA95EAF70E94601C183028F581E09D2F81
:102F6000977001C0880F9A95EAF70E94591C802F2C
:102F70000E94501C1830F0F4D77081E001C0880F17
:102F8000DA95EAF70AC080E28C0F883098F4C770AF
:102F900081E001C0880FCA95EAF7DF91CF911F91B8
:102FA0000F910C94601C802FDF91CF911F910F9196
:102FB0000C94501CDF91CF911F910F9108950F93A6
:102FC0009C01CB01233F4CE5340731F188F4283DC7
:102FD000FCE53F07D9F0293D4CE5340779F1273D61
:102FE0003C45A9F506E221EE41EE67ED7CE52BC0FC
:102FF000253FFCE53F07E1F0A8F0263F3C4539F5C9
:1030000007E225EE46EE66EF7CE51DC007E225EE01
:1030100045EE68ED7CE517C006E221EE40EE63EF79
:103020007CE511C007E225EE44EE64EF7CE50BC0C1
:1030300006E221EE42EE65EF7CE505C008E221E004
:1030400045EE69ED7CE50E946C1780E008C0FC014C
:103050008281882319F01092890201C081E00F91CA
:103060000895CF93DF93EC01FB018281882309F45B
:103070001FC1C230FCE5DF0708F41BC1C6319CE567
:10308000D90738F09E012A5F3C452930310508F008
:1030900010C10E94AD2590934B0380934A03C03129
:1030A000ECE5DE0709F4C3C008F041C0C8308CE588
:1030B000D80709F49AC0F0F4C430ECE5DE0709F44F
:1030C00087C068F4C2308CE5D80709F477C0C330F4
:1030D000DC4509F0E3C080914A03826076C0C630C7
:1030E000ECE5DE0709F46EC008F07BC080914A036E
:1030F00088606BC0CC308CE5D80709F485C068F4D3
:10310000CA30ECE5DE0709F474C008F079C00E940B
:10311000E61E80914A03806858C0CE308CE5D807FF
:1031200009F476C008F07FC080914A038BC0CB3F82
:10313000ECE5DE0709F44FC018F5C3318CE5D8077C
:1031400009F47DC078F4C131ECE5DE0709F473C001
:10315000C231DC4509F0A2C00E94E61E80914A03FC
:103160008F7733C0C5318CE5D80709F472C008F4F5
:1031700086C0CA3FDC4509F091C080914B033EC038
:10318000CF3FFCE5DF0709F45FC058F4CD3F9CE575
:10319000D90709F444C008F43FC080914B03826012
:1031A0002DC0C130FDE5DF0709F475C008F45DC02E
:1031B000C230DD4509F072C080E06EC080914A03E4
:1031C000816003C080914A03806180934A0366C096
:1031D00080914A0311C080914B03826080934B031E
:1031E0005DC080914A038062F0CF80914A03806481
:1031F000ECCF80914A0388608460E7CF8160EECF96
:1032000080914A038E7FE1CF80914A038D7FDDCF8D
:1032100080914A03877FD9CF80914B0318C080915A
:103220004B038D7FDBCF80914A038F7ECECF809181
:103230004A038F7DCACF80914A038F7BC6CF80918E
:103240004A03877F8B7FC1CF80914B038D7F8E7F19
:10325000C5CF80914A0382FB222720F991E0922773
:1032600090FB82F990FB83F9B0CF80914B03982FAC
:10327000909591708E7F892B90FB81F9AFCF0E9442
:10328000E61E80914A0387FB222720F991E09227CE
:1032900090FB87F99ACF81E00E94442680914A03EF
:1032A00090914B030E94BE250E94E61E80E001C063
:1032B00081E0DF91CF910895CF93DF9386319C45D4
:1032C00041F5EB010E94D324982F8A8120911F01A0
:1032D00030912001882379F09A7A81E009F480E026
:1032E00080938A02911102C069E201C065E3C901BD
:1032F0000E94DF260AC080918A02811102C069E221
:1033000001C065E3C9010E94EA260E94252580E0EC
:1033100001C081E0DF91CF91089590939002809356
:103320008F020895E0918F02F0919002309721F082
:103330000190F081E02D099480E00895E0918F02E2
:10334000F0919002309799F020912B01222359F0AF
:1033500020914A0327FF07C0DC012C9111962C9382
:10336000119725E02C930280F381E02D09940895B4
:10337000E0918F02F0919002309739F022E0DC0169
:103380002C930480F581E02D0994089520918D02FD
:1033900030918E022817390771F090938E02809336
:1033A0008D02E0918F02F0919002309721F006801B
:1033B000F781E02D0994089520918B0230918C02C1
:1033C0002817390771F090938C0280938B02E0915B
:1033D0008F02F0919002309721F00084F185E02D6A
:1033E000099408950E949B2760939E0270939F0208
:1033F0008093A0029093A10260939A0270939B0223
:1034000080939C0290939D02089585B7806885BF44
:1034100085B7806885BF089581E008950C940C1AE3
:1034200008950C94101A0C94101A0C94131A0C94FE
:10343000101A0C94171A0C94101A0E94051A82E99B
:1034400095E20E9400280E941B1A0C94191A0E94EF
:10345000111A0C94101A0E9486270E9449080E9493
:1034600087140E944A120C94151A6F927F928F92C1
:103470009F92AF92BF92CF92DF92EF92FF920F9303
:103480001F93CF93DF93CDB7DEB72A970FB6F8948B
:10349000DEBF0FBECDBF0E948C0881110E94F219C1
:1034A00032E9832E32E0932E00E010E0C02E802F10
:1034B0000E9417085C01F401619071904F01682629
:1034C000792661147104B1F40F5F1F4F04301105A8
:1034D00069F78FEF89838A831B820E948F2781601F
:1034E000782F9D838C8349815A816B818D810E94C5
:1034F000ED1A3AC08091260381FD0E942008D12C4C
:10350000EE24E394F12CC3018E219F21892B29F114
:103510000E940E1A8823A9F0DE82CF82AE20BF203F
:1035200081E0AB2809F480E088870E948F278160C2
:10353000782F9A8789874E815F8168858A850E9466
:10354000ED1A000F111FF801EE56FD4F8081918199
:10355000E826F926F182E08207C0D394EE0CFF1C26
:10356000FCE0DF12D0CFB0CF0E9485120E94C70AC4
:103570000E949219909191028917D1F00E9492199C
:10358000809391022A960FB6F894DEBF0FBECDBF8E
:10359000DF91CF911F910F91FF90EF90DF90CF902F
:1035A000BF90AF909F908F907F906F900C94D705B5
:1035B0002A960FB6F894DEBF0FBECDBFDF91CF9134
:1035C0001F910F91FF90EF90DF90CF90BF90AF9041
:1035D0009F908F907F906F900895DF92EF92FF926F
:1035E0000F931F93CF93DF93CDB7DEB72B970FB613
:1035F000F894DEBF0FBECDBFF42E052F162FE72E99
:10360000D82E61110E94F324FE01319686E0DF017D
:103610001D928A95E9F77E2D4F2D502F612F8D2D0C
:103620009E810E949F212B960FB6F894DEBF0FBE9D
:10363000CDBFDF91CF911F910F91FF90EF90DF9061
:103640000895FC01808191810E9473240895CF9395
:10365000882309F4A4C0C82F8238C1F40E949219AB
:1036600081FD9DC069E380911F01909120010E941E
:10367000DF260E9425252FEF81EE94E02150804027
:103680009040E1F700C0000069E319C0833801F5FC
:103690000E94921980FD83C063E580911F01909183
:1036A00020010E94DF260E9425252FEF81EE94E065
:1036B000215080409040E1F700C0000063E5809118
:1036C0001F01909120010E94EA26CF910C9425259C
:1036D0008438C1F40E94921982FD61C067E4809130
:1036E0001F01909120010E94DF260E9425252FEFC7
:1036F00081EE94E0215080409040E1F700C000004E
:1037000067E4DDCF8CEF8C0F813AD0F46C2F809181
:103710001F01909120010E945F26882349F06C2FA1
:1037200080911F01909120010E94EA260E94252588
:103730006C2F80911F01909120010E94DF26C5CF40
:1037400080E28C0F883048F4C77081E001C0880F98
:10375000CA95EAF70E94D624B8CFEBE5EC0FE33028
:1037600040F4F0E0EA53FE4F808190E0CF910C945A
:10377000C619E8E5EC0FE73150F4F0E0EE0FFF1F5B
:10378000E856FE4F80819181CF910C94DC19C03FA7
:1037900030F08C2F0E94D709CF910C94A90ACF91B9
:1037A0000895882309F464C0823879F40E9492193C
:1037B00081FF5EC069E380911F01909120010E940A
:1037C000DF260E94252569E310C08338B1F40E94EA
:1037D000921980FF4DC063E580911F0190912001F7
:1037E0000E94DF260E94252563E580911F019091AC
:1037F00020010E94EA260C942525843879F40E9441
:10380000921982FF35C067E480911F0190912001D9
:103810000E94DF260E94252567E4E7CF9CEF980FE2
:10382000913A10F4682FE1CF90E2980F983050F45D
:10383000877091E001C0990F8A95EAF7892F0E945D
:10384000DC24D9CF9BE5980F933020F480E090E002
:103850000C94C61998E5980F973120F480E090E019
:103860000C94DC19803F20F00E94320A0C94A90AC3
:1038700008951F93CF93DF93182FEB010E94271B0E
:10388000209741F08FE99FE00197F1F700C0000019
:103890002197F6CF812FDF91CF911F910C94D11BEF
:1038A000893319F060E070E002C060E570E00C94CC
:1038B000391C882321F00E94D6240C9425250895D4
:1038C000882321F00E94DC240C9425250895CF92B2
:1038D000DF92EF92FF920F931F93CF93DF937C01C0
:1038E000062FC72FFC01D281158112951F700E94EF
:1038F000AB24882399F0DD2389F08C2F807F8034DE
:1039000021F080E2800F883048F082E00E94752527
:103910000E94AB2491E0D82ED92601C0D12CCC2E08
:10392000C2948FE0C8228C2D90E0FC01E759FF4F34
:103930000C94E62F8C2F807FCF70882311F0C295D6
:10394000C07FDD2399F0CC2309F48DC180E2800F84
:10395000883010F0011104C08C2F0E94D62403C0BF
:103960008C2F0E94E6240E9425257DC1802F0E9475
:10397000D11BCC2309F49CC180E2800F883010F069
:10398000011104C08C2F0E94DC2403C08C2F0E94E4
:10399000EC240E9425258CC18C2F807FCF70803233
:1039A00011F0C295C07F002319F00130C9F022C088
:1039B000DD2371F0112341F0113031F40E9406250E
:1039C0008C2B0E940E2574C10E9406258C2B1DC0D5
:1039D000112319F0113009F46BC10E941B2525C079
:1039E000DD2321F0163008F063C10EC0153008F059
:1039F0005FC11BC0DD2361F0112331F0F701858128
:103A000080FF31C18F7085838C2F0E94591C50C15B
:103A1000112359F0093309F037C1FFEF27EE83E096
:103A2000F15020408040E1F72DC18C2F0E94601C96
:103A30003FC18C2F86958695837019F0813061F097
:103A400037C1DD2321F0802F9C2F937002C080E0CE
:103A500090E00E94C61934C1DD2321F0802F9C2FF5
:103A6000937002C080E090E00E94DC1929C1802F91
:103A7000DD2319F00E94D70902C00E94320A0E9479
:103A8000A90A1EC18C2F837009F045C0D11114C141
:103A9000402F429546954770440F440F602F6F703A
:103AA000862F90E0A0E0B0E0042E04C0880F991F9C
:103AB000AA1FBB1F0A94D2F704FF10C00FE010E04A
:103AC00020E030E004C0000F111F221F331F4A9571
:103AD000D2F7009510952095309503C000E010E0D6
:103AE0009801C695C695C370BC01CD01602B712BA2
:103AF000822B932BC23049F058F4C13019F00E9448
:103B0000F022DAC00E94DE22D7C00E940223D4C075
:103B10000E94DC22D1C0DD2319F08C2F817001C0FE
:103B20008695882309F4C8C0402F42954695477072
:103B3000440F440F602F6F70862F90E0A0E0B0E03C
:103B4000042E04C0880F991FAA1FBB1F0A94D2F726
:103B500004FF10C00FE010E020E030E004C0000FD0
:103B6000111F221F331F4A95D2F7009510952095FB
:103B7000309503C000E010E09801C695C695C3706B
:103B8000BC01CD01602B712B822B932BC23049F0ED
:103B900058F4C13019F00E94B5238EC00E94A323AF
:103BA0008BC00E94C72388C00E94162385C0CF7097
:103BB000DD2339F08C2F0E943C23802F0E94591C5A
:103BC0007BC0802F0E94601C8C2F0E945D2374C0DC
:103BD000023F01F128F4003F41F0013FA1F03FC056
:103BE000033FF9F0043F39F13AC0DD2341F01530CD
:103BF00008F05EC08C2F8F710E94822359C016304E
:103C000008F056C0F7CFDD2339F08C2F8F710E945A
:103C10003C234EC0DD23C9F38C2F8F710E945D239E
:103C200047C0DD2329F08C2F8F710E94272340C0CD
:103C30000E9422233DC0DD2349F0CF718C2F0E94CA
:103C40003C2363E08C2F0E945A2532C081E00E9401
:103C50007525123068F182E00E94752529C0DD23A8
:103C600031F0112391F2802F0E94271B21C01123D4
:103C700099F2093349F49FEFE7EEF3E09150E04009
:103C8000F040E1F700C00000802F0E94D11B10C05F
:103C90004C2F4F70602FC7010E94E0050E944D22FB
:103CA0000FC04C2F4F70602FC7010E94E30508C062
:103CB00088EF8C0D843020F40E9492190E94D70561
:103CC000DD20C9F00E94A72480FD15C0F7011282F3
:103CD0000E94A1240E943C23C7010E949C1E0E94B6
:103CE000A124DF91CF911F910F91FF90EF90DF9072
:103CF000CF900C945D23DF91CF911F910F91FF9096
:103D0000EF90DF90CF9008950F931F93CF93DF93A1
:103D1000EC01688179818A810E947E248C010E9455
:103D2000D9230E94CA22B801CE010E94671CDF91EC
:103D3000CF911F910F910895CF93DF93EC0198815C
:103D400089812B813C81232B31F08F3F31F481E03D
:103D50009F3F19F403C081E001C080E080FD19C0DD
:103D6000CE010E949E0481110CC00E94AB248823C6
:103D700081F08A81882369F082E0DF91CF910C94F1
:103D80007525CE010E94841ECE01DF91CF910C9447
:103D90001704DF91CF91089580E090E00E94C6194A
:103DA00080E090E00E94DC190E94F3240E94032529
:103DB0000E9425250E94DA0B0C94A90A80911F010C
:103DC000909120010E94F5260C94CC1E0E94E324C1
:103DD0000C94DE1EE92FE295EF704E2F50E0FA01B1
:103DE0003297EE30F105B0F4E758FF4F0C94E62F10
:103DF000803F91F018F4883E68F40EC0843F51F47F
:103E00000BC0883E48F0813F29F406C093FB882709
:103E100080F9089580E0089581E008950E94732458
:103E20000E94EA1E0895CF93DF9300D000D01F9226
:103E3000CDB7DEB70F900F900F900F900F90DF91DE
:103E4000CF910895CF93DF9300D000D000D0CDB7AD
:103E5000DEB726960FB6F894DEBF0FBECDBFDF915A
:103E6000CF9108951F93CF93DF93C091A30216E0E3
:103E70008091A402C81799F0D0E01C9FF0011D9F0B
:103E8000F00D1124EB55FD4F40815181628173810A
:103E9000848195810E94221F2196C770E9CFDF910E
:103EA000CF911F9108954091D5025091D602609113
:103EB000D7027091D8028091D9029091DA020C94C5
:103EC000221F0F931F93CF93DF938091DA02829585
:103ED0008F7009F05DC08091D702882309F458C023
:103EE0008091A3021091A4026091D5027091D60234
:103EF000C091D802D091D90291E06F3F09F090E0D3
:103F0000292F06E0811709F443C0209721F07F3F55
:103F100021F030E003C031E001C0322F90E030FDED
:103F200034C0089FF001099FF00D1124DF01AB554B
:103F3000BD4F11963C911197371327C03C91361312
:103F400024C012963C91129731111FC013964D91C7
:103F50005C9114974C1B5D0B483C5105B0F480916B
:103F6000DA028F7080618093DA02E655FD4F80811E
:103F70008F708061808385ED92E00E949C1EDF91AE
:103F8000CF911F910F910C94321F01968770BACF79
:103F9000DF91CF911F910F9108959F92AF92BF92A1
:103FA000CF92DF92EF92FF920F931F93CF93DF9305
:103FB000CDB7DEB761970FB6F894DEBF0FBECDBFA9
:103FC0008C0185E0F801DE011D9601900D928A9525
:103FD000E1F7F80140815181E2809091D502609132
:103FE000D6022091D8023091D9022115310531F045
:103FF0006F3F31F481E09F3F19F403C081E001C0BD
:1040000080E0F82FF1709F2E80FD46C1F801A3805B
:10401000B48085EDC82E82E0D82EF090D702F5014D
:10402000E21BF30BFF2009F4DFC08091DA02E83CC9
:10403000F10508F09BC0282F207F09F052C05613CD
:1040400013C0491311C0FE2CE1100EC08F708061A7
:104050008093DA020E94531FC6010E949C1E809129
:10406000DA02F801858358C1AB2831F05F3F31F4A3
:1040700081E04F3F19F403C081E001C080E080FD82
:1040800003C081E08E2502C080E090E0F82FF1703F
:10409000FF2E80FF1CC08091A3022091A40236E075
:1040A000821709F417C190E0389FF001399FF00D95
:1040B0001124EB55FD4F6181561306C060814613F4
:1040C00003C06281E61203C001968770E9CFFE2C1F
:1040D000EE2009F421C18091DA0281608093DA0236
:1040E0005AC0561306C0491304C0E11002C0F801BB
:1040F0009FC04D875E878D859E850E940E1F8823F9
:1041000079F1EE2069F12091DA02822F82958F7089
:1041100090E0029774F08091D5029091D602988732
:104120008F831986BB86AA862C87CE0107960E94AC
:104130009C1E86E0F801A5EDB2E001900D928A95F3
:10414000E1F70E94611F0E94531F0DC0561729F10D
:104150004D875E878D859E850E940E1F81112CC024
:10416000C8010E949C1EFF24F394D6C0282F207FF4
:1041700069F77A2DB98AA88A6E2D89890E94131F42
:1041800085ED92E00E949C1E86E0F60111928A95D0
:10419000E9F70E94531FF12CBFC04913D9CFE1109A
:1041A000D7CFF8018583C8010E949C1E86E0F601E6
:1041B00011928A95E9F7B0C0EE2091F22091DA02CF
:1041C000822F82958F7090E002970CF4B2CF80918D
:1041D000D5029091D6029A8389831B82BD82AC82DC
:1041E0002E83CE010196A3CFE83CF10508F047C02D
:1041F000FE2CEE2009F4B4CF561330C049132EC064
:104200002091DA0220FD21C0822F82958F70482FE5
:1042100050E041155105C9F0F80125834F30510593
:1042200041F08F5F982F9295907F822F8F70892B0E
:104230008583C8010E949C1E86E0F801A5EDB2E0CE
:1042400001900D928A95E1F742C086E0F801A5ED54
:10425000B2E001900D928A95E1F75EC04D875E87CE
:104260008D859E850E940E1F811163CF8091DA0299
:1042700081608093DA02C8010E949C1E4DC07A2D95
:10428000B98AA88A6E2D89890E94131F86E0F601DB
:1042900011928A95E9F71BC0EE2009F461CF4D8792
:1042A0005E878D859E850E940E1FF82E882309F457
:1042B00057CF86E0F801A5EDB2E001900D928A9506
:1042C000E1F785ED92E00E94211B0E94611F0E9490
:1042D000531F22C04D875E878D859E850E94732463
:1042E000292F22952F70223028F49F7039F08111E8
:1042F00005C00BC0243028F49F7049F4805E8830DC
:1043000020F0C8010E949C1E9F2CF92C05C0F801CA
:104310009581907F99F7F9CF8F2D61960FB6F8941C
:10432000DEBF0FBECDBFDF91CF911F910F91FF90E8
:10433000EF90DF90CF90BF90AF909F9008951F9324
:10434000CF93DF93CDB7DEB72C970FB6F894DEBFCF
:104350000FBECDBF4F83588769877A878B879C872D
:10436000CE0107960E94CD1F8823D1F09F818885BA
:104370002A853B85232B31F08F3F31F481E09F3F2D
:1043800019F403C081E001C080E080FD47C04F8187
:10439000588569857A858B859C850E94221F3EC041
:1043A00086E0FE013796DE01119601900D928A9506
:1043B000E1F7FF81E8856A857B856115710531F03C
:1043C000EF3F31F481E0FF3F19F403C081E001C009
:1043D00080E080FD23C02091A40230E0C901019655
:1043E000877099274091A30250E084179507F1F157
:1043F000F983EA837D836C8396E0929FD001939F3B
:10440000B00D1124AB55BD4FFE01319601900D92B8
:104410009A95E1F78093A4020E94321F16E08091E2
:10442000A3029091A402891771F1189FC001112471
:104430008B559D4F0E94CD1F882329F1E091A30247
:104440001E9FF0011124EB55FD4F40815181628187
:104450007381848195810E94221F8091A30290E044
:104460000196877099278093A302D9CF0E94E61EF8
:104470001092A4021092A302E5EDF2E086E0DF01C3
:104480001D928A95E9F72C960FB6F894DEBF0FBE01
:10449000CDBFDF91CF911F910895EF92FF920F93BF
:1044A0001F93CF93DF938C01892B09F46CC0F12CFF
:1044B000EE24E394E8012196F8018491843740F4D6
:1044C000843008F051C0813081F0823019F15BC036
:1044D000853709F444C0A8F19CE7980F903708F09D
:1044E00052C08F770E94D11B41C00E5F1F4FFE014B
:1044F000849190E2980F983050F48770FE2D01C09F
:10450000FF0F8A95EAF78F2F0E94F62414C00E94AD
:10451000271B2DC00E5F1F4FFE01849190E2980F64
:10452000983060F48770FE2D01C0FF0F8A95EAF77E
:104530008F2F0E94FC240E94252519C00E94D11BA8
:1045400016C00E5F1F4FFE01C491CC2381F08FE98E
:104550009FE00197F1F700C00000C150F6CF0E5F59
:104560001F4FFE01F49003C00E94271B8E018F2D68
:10457000882309F49FCFEFE9FFE03197F1F700C0FE
:1045800000008150F5CFDF91CF911F910F91FF90E7
:10459000EF900895089508950C94CB220C94CC22AA
:1045A0000E94CE226093FD027093FE028093FF0270
:1045B000909300030C94CC1E0C94D0220F931F9365
:1045C0000091FD021091FE022091FF023091000344
:1045D000602B712B822B932B1F910F910C94D02267
:1045E0000F931F930091FD021091FE022091FF0294
:1045F0003091000360237123822393231F910F9135
:104600000C94D0220F931F930091FD021091FE0293
:104610002091FF02309100036027712782279327A2
:104620001F910F910C94D0220C94CB220E94142342
:104630006093F9027093FA028093FB029093FC025C
:104640000C94CC1E60E070E0CB010C9416230F9309
:104650001F9341E050E060E070E08A019B0104C0DC
:10466000000F111F221F331F8A95D2F7C901B8010D
:104670001F910F910C9416230F931F9341E050E06C
:1046800060E070E004C0440F551F661F771F8A95D5
:10469000D2F78091F9029091FA02A091FB02B091B9
:1046A000FC028A019B01082B192B2A2B3B2BC901E9
:1046B000B8011F910F910C9416230F931F9341E0A3
:1046C00050E060E070E004C0440F551F661F771F84
:1046D0008A95D2F740955095609570958091F90232
:1046E0009091FA02A091FB02B091FC028A019B0119
:1046F000082319232A233B23C901B8011F910F91D5
:104700000C9416230F931F9341E050E060E070E09B
:1047100004C0440F551F661F771F8A95D2F78091FA
:10472000F9029091FA02A091FB02B091FC028A0179
:104730009B01082719272A273B27C901B8011F9188
:104740000F910C9416230F931F930091F90210916F
:10475000FA022091FB023091FC02602B712B822B1C
:10476000932B1F910F910C9416230F931F9300917D
:10477000F9021091FA022091FB023091FC026023B1
:104780007123822393231F910F910C9416230F936F
:104790001F930091F9021091FA022091FB023091CF
:1047A000FC0260277127822793271F910F910C9499
:1047B000162308952CE0929F800D1124E82FE69592
:1047C000E695E695877051E001C0550F8A95EAF7A6
:1047D00085E0E89FF0011124E552FD4F20E030E034
:1047E00070E04081CB01022E02C0969587950A9415
:1047F000E2F78170819584278523842781932F5F39
:104800003F4F2530310569F708952CE0929F800DC8
:104810001124682F669566956695982F977085E0A8
:10482000689FB001112440E050E080E0FB01E40FFC
:10483000F51FE552FD4F208130E0092E02C036956C
:1048400027950A94E2F721703327042E01C0220F26
:104850000A94EAF7822B4F5F5F4F4530510531F7DD
:104860000895BF92CF92DF92EF92FF920F931F9322
:10487000CF93DF938C01C090F902D090FA02E090C0
:10488000FB02F090FC028091FD029091FE02A0914B
:10489000FF02B0910003C82AD92AEA2AFB2ACFE1F5
:1048A000D0E0D701C6010C2E04C0B695A795979508
:1048B00087950A94D2F780FD04C0219790F7B12C18
:1048C00007C0BC2EB8018C2F0E94EC050197A9F3FC
:1048D0008B2DDF91CF911F910F91FF90EF90DF9083
:1048E000CF90BF900895CF93DF93EC010E943124C5
:1048F000BE010E94EC05DF91CF9108951F93CF93E5
:10490000DF93EB019091A202992321F0CB010E9449
:10491000732413C0882349F0CB010E943124182F3F
:10492000682FCE010E94DA2304C0CB010E94052427
:10493000182FBE01812F0E94EC05DF91CF911F91AE
:1049400008958091010385958595859508958091B9
:1049500001038770089590910103977081E009F435
:1049600080E0089590914B0392FB222720F92817AD
:1049700051F080FB92F990934B0380914A03909100
:104980004B030C94BE25089580914B0382FB88272E
:1049900080F991E089270C94B22481E00C94B22430
:1049A00080E00C94B2248091250308959091250312
:1049B000892B809325030895809590912503892361
:1049C0008093250308951092250308959091240360
:1049D000892B809324030895809590912403892343
:1049E0008093240308951092240308959091230343
:1049F000892B809323030895809590912303892325
:104A00008093230308951092230308958091020355
:104A1000089508950C9409250C940A2590914B0350
:104A200092FD08C090910203981721F08093020331
:104A30000C940C25089580910203882329F010928C
:104A4000020380E00C940C250895E0911F01F09181
:104A50002001809125038083E0911F01F0912001C6
:104A6000908180912403892B8083E0911F01F09134
:104A70002001908180912303892B80838091020300
:104A8000882381F0E0911F01F09120019081892B12
:104A9000808380911F01909120010E9449268111FD
:104AA0000E941B2580911F01909120010C949E195A
:104AB0000C94092590914B0392FD10C098E0899FBA
:104AC00090011124262B209301030E943C23809106
:104AD00001038595859585950C9458250C943C2368
:104AE0001092010380E00C945825209101038095D9
:104AF000822380930103982F977041F430E0482F70
:104B0000082E000C550B2417350721F490914B0308
:104B100092FF07C08595859585950E945D230C942D
:104B20007025089580E008956FEF7FEF80E090E0BA
:104B30000C94BF3080E090E00E949B3021E08A3EE0
:104B40009E4F09F020E0822F089582E090E00C94BF
:104B50008D3083E090E00C948D30CF9384E090E032
:104B60000E948D30C82F82E290E00E948D302C2F61
:104B700030E0A901582BCA01CF910895CF93C92FD6
:104B8000682F84E090E00E94A1306C2F82E290E0D8
:104B9000CF910C94A130AB01BC018FE090E00C945C
:104BA000B330AB01BC0183E190E00C94B33060E022
:104BB00070E0CB010C94D12560E070E0CB010E9445
:104BC000CB250C94D7256AEE7EEF80E090E00E9422
:104BD000BF3060E082E090E00E94A13060E083E0BE
:104BE00090E00E94A1301092FD021092FE021092FD
:104BF000FF021092000360E084E090E00E94A13088
:104C000060E082E290E00E94A13060E085E090E008
:104C10000E94A13060E086E090E00E94A1306FEF3A
:104C200087E090E00E94A13040E050E0BA0188E0C7
:104C300090E00E94B33060E08DE090E00E94A130EF
:104C400040E050E0BA0188E190E00E94B33060E0BB
:104C500087E190E00E94A13040E050E0BA018CE191
:104C600090E00E94B33060E070E080E290E00E944B
:104C7000BF3040E050E0BA0188E190E00E94B330DC
:104C80000C94DC250C94E325682F8EE090E00C94C6
:104C9000A130FC01329680912B01882331F0809164
:104CA0004A0387FF02C09EE101C096E080E0915078
:104CB00028F021912223D9F38F5FF9CF089566233D
:104CC00051F120912B012223E9F020914A0327FF83
:104CD00019C0462F4695469546954E31E0F46770CB
:104CE00021E030E002C0220F331F6A95E2F7FC0199
:104CF000E40FF11D828190E02823392381E0232BEA
:104D000069F409C0FC01329608962191621729F0D6
:104D1000E817F907D1F780E0089581E008959C0134
:104D2000FC0132969FEF80E04191461789F09F3F4A
:104D300019F4411101C0982F8F5F8630A9F79F3F6A
:104D400039F0F901E90FF11D97FDFA956283089595
:104D500008959C012A5F3F4FFC014281461301C028
:104D60001282019682179307B9F70895262F269588
:104D7000269526952E3168F4FC01E20FF11D67702F
:104D800021E030E001C0220F6A95EAF78281282BEA
:104D900022830895262F2695269526952E3170F488
:104DA000FC01E20FF11D677021E030E001C0220F2D
:104DB0006A95EAF72095828128232283089520911D
:104DC0002B01222329F020914A0327FD0C94B626BB
:104DD0000C948F2620912B01222329F020914A0345
:104DE00027FD0C94CA260C94A92620912B01FC01C6
:104DF0003296222331F080914A0387FF02C08EE170
:104E000001C086E0DF011D928A95E9F708950895B3
:104E10000C9407270C940727CF930E940A270E941F
:104E20008C080E940827C0E08C2F0E941708892B4D
:104E300029F4CF5FC430C1F780E001C081E0CF9199
:104E400008950C9407270C9421278091C003843087
:104E500049F10E94232780E00E94D7051092270382
:104E600020E488E190E00FB6F894A8958093600064
:104E70000FBE2093600083B7817F846083BF83B7B8
:104E8000816083BF7894889583B78E7F83BF0FB688
:104E9000F894A895809160008861809360001092DA
:104EA00060000FBE08950C9407270E94E61E0E9422
:104EB00092190E94D7050C9453271F920F920FB698
:104EC0000F9211248F939F93AF93BF9380912703E9
:104ED000811113C08091B8039091B903A091BA03D6
:104EE000B091BB034196A11DB11D8093B80390936F
:104EF000B903A093BA03B093BB03BF91AF919F9145
:104F00008F910F900FBE0F901F90189582E084BD77
:104F100093E095BD9AEF97BD80936E0008952FB7EB
:104F2000F8948091B8039091B903A091BA03B0911D
:104F3000BB032FBF08952FB7F8946091B803709109
:104F4000B9038091BA039091BB032FBF08959C01D0
:104F50004FB7F8948091B8039091B903A091BA0328
:104F6000B091BB034FBF821B930B089578941F929F
:104F70000F920FB60F9211248F939F93AF93BF930D
:104F80008091B8039091B903A091BA03B091BB038B
:104F90000196A11DB11D8093B8039093B903A0930E
:104FA000BA03B093BB03BF91AF919F918F910F90C4
:104FB0000FBE0F901F90189581E08093E00080E273
:104FC0008093D8001092C9008FE19EE40197F1F719
:104FD00000C0000087E090EBDC018093C903909350
:104FE000CA03A093CB03B093CC039CE088E10FB637
:104FF000F894A895809360000FBE90936000FFCF57
:105000009093D9018093D801089580914803089521
:10501000CF93DF9300D01F92CDB7DEB79091C0033E
:10502000943011F589837B836A839093E9008FEF35
:105030009091E800815095FD06C095ED9A95F1F7A5
:1050400000008111F5CF8091E80085FF0DC040E0A0
:1050500050E063E070E0CE0101960E94992A8091B1
:10506000E8008E778093E8000F900F900F90DF910B
:10507000CF910895BC0184E00C940828BC0183E022
:105080000C94082824E02093E9002FEF3091E800E9
:10509000215035FD06C035ED3A95F1F7000021119C
:1050A000F5CF2091E80025FF0BC040E050E066E01E
:1050B00070E00E94992A8091E8008E778093E80042
:1050C0000895CF93DF9320912B01222339F0209173
:1050D0004A0327FF03C060E224E002C068E021E049
:1050E0002093E9002FEF3091E800215035FD06C0F4
:1050F00035ED3A95F1F700002111F5CF2091E80048
:1051000025FF1DC0EC0180912B01811105C040E0FD
:1051100050E068E070E003C070E040E050E0CE0195
:105120000E94992A8091E8008E778093E80080E2BF
:10513000FE01A8E2B3E001900D928A95E1F7DF91BC
:10514000CF910895CF93603219F52091C003243098
:10515000F9F4C091E900CF703091EC00232F217059
:1051600030FD20E8C22B22E02093E9002091E800E6
:1051700020FF0BC040E050E060E270E00E94992AFE
:105180008091E8008E778093E800CF70C093E900AB
:10519000CF9108958091BF03811109C00E94752CA1
:1051A0000E94D22C8091E20084608093E2000895F6
:1051B0001092BF03089508950895089542E061ECA8
:1051C00081E00E94EE2B42E261EC84E00E94EE2B33
:1051D00042E261EC82E00E94EE2B42E260EC83E06E
:1051E0000C94EE2B8091C203833009F462C030F43A
:1051F000813071F0823009F49BC008958A3009F43F
:1052000087C08B3009F46DC0893009F0A9C020C077
:105210008091C103813A09F0A3C08091E800877FA3
:105220008093E8008091C5039091C603892B21F4F7
:1052300060E288E293E003C060E080E090E070E02C
:105240000E942F2B8091E8008B778093E8000895CF
:105250008091C103813209F083C08091C503909190
:10526000C603009719F0029709F07AC08091E80010
:10527000877F8093E8008091E80082FD05C08091DF
:10528000C0038111F8CF6CC02091F3008091F2002F
:1052900090E0922B029729F48091F1008B7F81306E
:1052A00021F48091F100809348038091E8008B778E
:1052B00053C08091C103813A09F052C08091C50367
:1052C0009091C603892B09F04BC08091E800877F3D
:1052D0008093E8008091E80080FFFCCF80912B0153
:1052E00036C08091C1038132D9F58091C503909178
:1052F000C603892BA9F58091E800877F8093E80099
:105300000E94232C8091C30380932B010C94E61EF2
:105310008091C103813221F58091E800877F8093DD
:10532000E8000E94232C8091C403809349030895D0
:105330008091C103813AA1F48091E800877F809336
:10534000E8008091E80080FFFCCF809149038093C2
:10535000F1008091E8008E778093E8000C94232C74
:1053600008951F93CF93DF93CDB7DEB7A0970FB605
:10537000F894DEBF0FBECDBF84B7877F84BF0FB662
:10538000F894A895809160008861809360001092E5
:1053900060000FBE90E080E80FB6F8948093610043
:1053A000909361000FBE0E941D1A0E94752C0E94EE
:1053B000D22C8091E20084608093E20078940E9475
:1053C000672F0E942B1A81E291E00E948D1913E051
:1053D0008091C0038530A9F48091C003853079F4B1
:1053E0000E9425278091BE038823B1F30E940C27D9
:1053F000882391F30E94832A0E94E61EEDCF0E942B
:1054000055270E94351A8091C003843009F5109306
:10541000E9008091E80082FF1BC08091E80085FFD1
:105420000AC040E050E060E270E0CE0101960E94C8
:10543000E42A91E001C090E08091E8008B778093AE
:10544000E800992329F060E2CE0101960E942C1514
:105450000E94271ABDCF0C942D2A292F33272330E1
:105460003105C9F060F42130310581F02230310579
:1054700009F041C08BE590E02CE835E040C02132D6
:105480003105E1F02232310531F135C082E190E0A1
:1054900027EE35E034C099278130910549F028F096
:1054A000029749F5ECE6F5E005C0E8E8F5E002C052
:1054B000ECE7F5E0849190E09F0121C06330710535
:1054C000D0F4660F771FFB01EE52FE4F2081318131
:1054D00089E090E014C06330710568F4FB01EE0FC1
:1054E000FF1FE453FE4F20813181FB01E753FE4F44
:1054F000808190E004C080E090E020E030E0FA019C
:1055000031832083089580E189BD82E189BD09B49A
:1055100000FEFDCF8091D8008F7D8093D8008091D0
:10552000E00082608093E0008091E00081FDFCCF8C
:105530000895CF92DF92EF92FF920F931F93CF9334
:10554000DF93EC018B017A010E94422C811133C060
:10555000E114F10439F0F70180819181081B190BE6
:10556000C80FD91FC12CD12C0115110519F180913B
:10557000E80085FD16C08091E8008E778093E800F2
:10558000E114F10449F0F70180819181C80ED91E20
:10559000D182C08285E00FC00E94422C882321F373
:1055A0000AC089918093F10001501109FFEFCF1AD1
:1055B000DF0ADACF80E0DF91CF911F910F91FF904A
:1055C000EF90DF90CF900895CF92DF92EF92FF920D
:1055D0000F931F93CF93DF93EC018B017A010E940D
:1055E000422C811133C0E114F10439F0F7018081BC
:1055F0009181081B190BC80FD91FC12CD12C011583
:10560000110519F18091E80085FD16C08091E80030
:105610008B778093E800E114F10449F0F701808171
:105620009181C80ED91ED182C08285E00FC00E9430
:10563000422C882321F30AC08091F1008993015004
:105640001109FFEFCF1ADF0ADACF80E0DF91CF91A7
:105650001F910F91FF90EF90DF90CF9008952091D0
:10566000C7033091C8032617370748F06115710545
:1056700039F42091E8002E772093E80001C0B901A9
:10568000FC0120E06115710579F18091C003882348
:10569000F1F18530F1F18091E80083FD3CC080910B
:1056A000E80082FD2EC08091E80080FFEBCF2091C2
:1056B000F3008091F20090E0922B6115710551F09A
:1056C0008830910538F421912093F10061507109DF
:1056D0000196F3CF21E0089709F020E08091E800DF
:1056E0008E778093E800CECF2111CFCF0AC0809172
:1056F000C003882361F0853061F08091E80083FD6C
:105700000AC08091E80082FFF2CF80E0089582E035
:10571000089583E0089581E008952091C7033091B2
:10572000C8032617370748F06115710539F4209131
:10573000E8002E772093E80001C0B901FC0120E0C9
:105740006115710591F18091C003882309F440C06F
:10575000853009F43FC08091E80083FD3DC0809111
:10576000E80082FD2FC08091E80080FFE9CF209102
:10577000F3008091F20090E0922B6115710559F0D1
:105780008830910540F424912093F10031966150C6
:1057900071090196F2CF21E0089709F020E080918D
:1057A000E8008E778093E800CBCF2111CCCF0AC0E0
:1057B0008091C003882361F0853061F08091E8001A
:1057C00083FD0AC08091E80082FFF2CF80E0089557
:1057D00082E0089583E0089581E00895982F97303E
:1057E00068F59093E900981739F07091EC002091DA
:1057F000ED005091F00003C0242F762F50E021FDE2
:1058000002C09F5FECCF3091EB003E7F3093EB0006
:105810003091ED003D7F3093ED003091EB00316031
:105820003093EB007093EC002093ED005093F00068
:105830002091EE0027FDE5CF80E008958F708093E2
:10584000E90081E008958091C10387FF11C0809134
:10585000E80082FD05C08091C0038111F8CF11C01E
:105860008091E8008B770BC08091C003882349F0BA
:105870008091E80080FFF8CF8091E8008E778093D8
:10588000E80008952091E4003091E50095E640910C
:10589000EC00842F817040FF23C08091E80080FDE0
:1058A0001DC08091C003882399F0853099F08091C4
:1058B000EB0085FD11C04091E4005091E5002417F4
:1058C000350729F3915011F09A01E1CF84E0089552
:1058D00082E0089583E0089581E0089580E00895CE
:1058E0004091E80042FFDDCF08950E94E32C0E9422
:1058F000EB2CE0EEF0E0808181608083E8EDF0E069
:1059000080818F77808319BCA7EDB0E08C918E7F6A
:105910008C9380818F7E80831092BF0308950F93B4
:105920001F93CF93DF930E94E32C0E94EB2CC8EDD2
:10593000D0E088818F778883888180688883888198
:105940008F7D888319BC1092C0031092BC03109203
:10595000BE031092BD0300EE10E0F80180818B7F42
:10596000808388818160888342E060E080E00E94DB
:10597000EE2BE1EEF0E080818E7F8083E2EEF0E0BE
:10598000808181608083808188608083F80180814C
:105990008E7F8083888180618883DF91CF911F9182
:1059A0000F910895E8EDF0E080818F7E8083E7ED30
:1059B000F0E080818160808384E082BF81E0809319
:1059C000BF030C948F2CE8EDF0E080818E7F808304
:1059D0001092E20008951092DA001092E10008950A
:1059E0001F920F920FB60F9211242F933F934F9354
:1059F0005F936F937F938F939F93AF93BF93EF9337
:105A0000FF938091E10082FF0BC08091E20082FF52
:105A100007C08091E1008B7F8093E1000E94662F98
:105A20008091DA0080FF1FC08091D80080FF1BC0EA
:105A30008091DA008E7F8093DA008091D90080FF18
:105A40000DC080E189BD82E189BD09B400FEFDCFB2
:105A500081E08093C0030E94CA2805C019BC10923F
:105A6000C0030E94D8288091E10080FF19C0809176
:105A7000E20080FF15C08091E2008E7F8093E200FB
:105A80008091E20080618093E2008091D800806282
:105A90008093D80019BC85E08093C0030E94DC2865
:105AA0008091E10084FF30C08091E20084FF2CC02F
:105AB00080E189BD82E189BD09B400FEFDCF8091FE
:105AC000D8008F7D8093D8008091E1008F7E8093F5
:105AD000E1008091E2008F7E8093E2008091E200FD
