:100000000C94AB020C94F2020C94F2020C94F202E7
:100010000C94F2020C94F2020C94F2020C94F20290
:100020000C94F2020C94F2020C943E1F0C941020DB
:100030000C94DE190C94F2020C94F2020C94F2026D
:100040000C94F2020C94F2020C94F2020C94F20260
:100050000C94F2020C94371A0C94F2020C94F202F3
:100060000C94F2020C94F2020C94F2020C94F20240
:100070000C94F2020C94F2020C94F2020C94F20230
:100080000C94F2020C94F2020C94F2020C94F20220
:100090000C94F2020C94F2020C94F2020C94F20210
:1000A0000C94F2020C94F2020C94F20207090A0971
:1000B0002A093B0943094E099409940994099409B2
:1000C00094095109540959096609730976097A098D
:1000D00087099B0F9B0FCD0FCD0F1A104E114E119C
:1000E0004E113810CD10DE10DE103E114E114E11A3
:1000F0004711EA11EA11FC11FC11F311FC11FC117A
:10010000FC11EA11EA11F811FC11FC11F8117D2023
:10011000A4209C21A4209C21F02013219C216A2151
:10012000792129001E001F00200021002200230049
:1001300024002500260027002D002E003100350068
:100140002B0014001A000800150017001C001800EE
:100150000C00120013002F0030002A0000003900AC
:1001600004001600070009000A000B000D000E0035
:100170000F0033003400280000000000E1001D00E3
:100180001B000600190005001100100036003700A2
:100190003800E500015100000000E000E300E2004B
:1001A0000000000000002C00000000000000E6003D
:1001B000E700E40000000000005C3A003B003C0067
:1001C0003D003E003F00400041004200430044002B
:1001D000450049004C003900010001000100010008
:1001E00001000100010046004700480052000100E4
:1001F000010000000100AA00A900A800AE00010053
:10020000010001004A004B0050004F0001000000B7
:1002100000000100010001000100010001000100D7
:1002200001004D004E0051000100010000000000DF
:1002300001000100010000000000000001000000BA
:1002400000000000010001000100000000000100AA
:100250000100010001000100010001000100010096
:100260000100010001000100010001000100010086
:100270000100010001000100010001000100010076
:100280000100010001000100000001000100010067
:100290000100010001000100010001000100010056
:1002A0000100010000000000010001000100010048
:1002B0000100010001000100010001000100010036
:1002C000010000000000010001000100000000002A
:1002D000000001000000000000000100010001001A
:1002E0000000000001000100010001000100010008
:1002F00001000100010001000100010001000100F6
:1003000001000100010001000100010001000100E5
:1003100001000100010001000100010001000000D6
:1003200001000100010001000100010001000100C5
:1003300001000100010001000100000000000100B7
:1003400001000100010001000100010001000100A5
:100350000100010001000100000000000100010097
:10036000010000000000000001000000000000008B
:10037000010001000100000000000000000000007A
:1003800000002A2B280000000000000000000000F0
:10039000000000000029000000002C1E3420212253
:1003A00024342627252E362D3738271E1F202122BC
:1003B000232425263333362E37381F040506070835
:1003C000090A0B0C0D0E0F10111213141516171825
:1003D000191A1B1C1D2F3130232D35040506070863
:1003E000090A0B0C0D0E0F10111213141516171805
:1003F000191A1B1C1D2F3130354C00000000000065
:1004000000000000000000000000000000000000EC
:1004100000000000000000000000000000007E0F4F
:1004200000D4FFFFFFC700000078120343006F00F5
:100430006D0070006F0075006E0064000000100316
:100440005300610062006F006D006F0076000000D5
:100450000403090409025B00030100A0FA09040077
:1004600000010301010009211101000122400007E0
:1004700005810308000A09040100020300000009C5
:10048000211101000122220007058203200001073B
:100490000503032000010904020001030000000914
:1004A00021110100012232000705840320000A12F5
:1004B000011001000000080A42BAB0010001020068
:1004C000010660FF0961A1010962150026FF009580
:1004D00020750881020963150026FF009520750824
:1004E0009102C005010980A101850319012AB70005
:1004F000150126B700950175108100C0050C090192
:10050000A101850419012AA002150126A002950166
:1005100075108100C005010906A101050719E02930
:10052000E71500250195087501810295017508817F
:10053000010507190029FF150026FF00950675081B
:10054000810005081901290595057501910295019C
:1005500075039101C00011241FBECFEFDAE0DEBFAA
:10056000CDBF04B603FE27C0809167029091680258
:10057000A0916902B0916A028730904BA740B04BBE
:10058000D1F41092670210926802109269021092E0
:100590006A0214BE84B7877F84BF0FB6F894A8950B
:1005A00080916000886180936000109260000FBEAF
:1005B000E0E0F8E3099511E0A0E0B1E0E2E4F4E462
:1005C00002C005900D92A239B107D9F722E0A2E945
:1005D000B1E001C01D92A736B207E1F70E94FF1BF0
:1005E0000C941F220C94000081E0089581E008958E
:1005F0000C94F60208950C94FA021F93CF93DF93A4
:1006000000D000D01F92CDB7DEB749835A836B83E9
:100610003091B40189819A81311114C0662359F057
:10062000222349F00E942317182F682F89819A816D
:100630000E94CC1603C00E94F716182F69817A8198
:10064000812F04C00E94231769817A810F900F9037
:100650000F900F900F90DF91CF911F910C94660A2D
:10066000FC01262F408151816281738184810C9429
:10067000FD02CF93DF93EC0160E00E943003BE01E6
:10068000DF91CF910C94FB028F929F92AF92BF9219
:10069000CF92DF92EF92FF920F931F936B017C0139
:1006A00081E090E0A0E0B0E04C015D0104C0880C66
:1006B000991CAA1CBB1C4A95D2F7AC01BD0104C011
:1006C000440F551F661F771F2A95D2F748295929CD
:1006D0006A297B2904C0880F991FAA1FBB1F0A958E
:1006E000D2F78A019B010C211D212E213F214017A9
:1006F00051076207730739F4BC01CD016C297D29CC
:100700008E299F290AC080959095A095B095BC012F
:10071000CD016C217D218E219F211F910F91FF9092
:10072000EF90DF90CF90BF90AF909F908F90089503
:100730000F93382F262F60911F0270912002809115
:10074000210290912202042F432F0E9444030F9113
:100750000C9408160E9408070C9445070C94410756
:1007600008950E94D8110E94B0032FEF84E39CE00B
:10077000215080409040E1F700C000000C945D1AC9
:100780000F931F93CF93DF938C0161E00E9430039E
:10079000EC01B8010E94B608882309F444C0B801EE
:1007A000CE010E94F8028823F1F1B801CE010E9427
:1007B0009B0B8823C1F1B801CE010E94ED0B882369
:1007C00091F1B801CE010E94180D882361F1F80162
:1007D0008281882309F1CA358DE5D807C1F050F42C
:1007E000C115FCE5DF0781F0CE3DDC45A9F40E9490
:1007F000341919C0CB35EDE5DE0761F0CC35DD45A8
:1008000059F40E94B61708C00E94B1030CC00E94A0
:10081000BF1702C00E94C217C801DF91CF911F917C
:100820000F910C94F40280E0DF91CF911F910F9112
:100830000895DF92EF92FF920F931F93CF93DF9370
:10084000E82FF0E0E658FC4FD490282F2695269507
:10085000269530E0F901E65EFB4F0491877010E0C9
:10086000082E02C0159507950A94E2F7017011272A
:10087000F901E65FFB4FE490F12C082E02C0F594DD
:10088000E7940A94E2F791E0E922FF24F901E650A7
:10089000FC4FC491D0E002C0D595C7958A95E2F788
:1008A000C170DD270115110519F081EE0E94C00EFF
:1008B000E114F10419F086EE0E94C00E8D2D0E9405
:1008C000510FEF2819F086EE0E940E0F012B19F040
:1008D00081EE0E940E0FCD2B51F08CE2DF91CF9173
:1008E0001F910F91FF90EF90DF900C94510FDF91CB
:1008F000CF911F910F91FF90EF90DF900895EF92AD
:10090000FF920F931F93CF93DF93EC01162F0AE012
:100910008881882309F455C0813009F043C089815A
:10092000813041F47E0182E0E80EF11C8A810E9450
:10093000510F09C0823049F47E01E2E0EE0EF11C55
:100940008A810E94C00EE7012FC0833041F47E01EE
:10095000F2E0EF0EF11C8A810E940E0FF4CF84307A
:1009600011F0219621C02A81229680E090E030E0AB
:10097000205331092A30310558F4089FA001099FFE
:10098000500D1124C901840F951F21962881EFCFA6
:10099000009751F0EFE9FFE03197F1F700C0000058
:1009A0000197F6CF0E9419042196812F882309F41C
:1009B000AFCFEFE9FFE03197F1F700C000008150C1
:1009C000F5CFDF91CF911F910F91FF90EF90089598
:1009D00060E00C947F0408950C94EB0481E008958A
:1009E0000C94EE04CF93C82F0E94EC048C2F0E942D
:1009F000F004CF91089580E090E008950895880F65
:100A0000991FFC01E65DFB4F859194910895CF936A
:100A1000DF930E94660A0E941906EC018115904539
:100A200008F043C0C11580E4D80708F0CBC0C03E31
:100A3000D10528F5C03CD10508F0B3C0C83AD105AE
:100A400078F4C53AD10508F0A4C0C130D10509F445
:100A5000ECC008F4E8C0C430D10508F0E6C0E3C03B
:100A6000CF3BD10508F0DFC0C85AD0E0CC0FDD1F66
:100A7000C35FDE4F0990D881C02DD464D6C0C115A4
:100A800090E2D90750F4C11521E0D20708F0CDC09B
:100A9000C83ED10508F4C9C0C6C0C11580E3D80757
:100AA00008F086C0CE019F707FC0C11595E5D907BB
:100AB00008F043C0C11524E5D20708F09AC0C1155B
:100AC00082E5D80708F5C11591E5D90708F07DC082
:100AD000CE0174E0969587957A95E1F783709C2F07
:100AE000937021E030E002C0220F331F9A95E2F7A5
:100AF0003C68382BCF70C695C69580E2C89FE00150
:100B00001124C22BD32B91C09E01237033278C2F2D
:100B100086958695C115D34508F05CC0C1E0D0E04C
:100B200002C0CC0FDD1F2A95E2F720E2829FC001B0
:100B30001124C82BD92BDC6878C0C11529E5D20750
:100B4000A0F4C11588E5D80708F058C0C11596E58E
:100B5000D90708F068C08C2F0E94AD068F71C82F8E
:100B6000D0E0DC2FCC27D06260C0C1152AE5D207C7
:100B700008F449C0CE0190568115904208F053C048
:100B80008D2F8F710E94AD06DD27D0628F71D82B1B
:100B90004CC0C55AD0E0C55CDE4FC881D0E0D064FF
:100BA00044C0CE01805C91090E94FF04EC013DC06D
:100BB000CE019927D3FF03C0EC01D86C36C0EC01FD
:100BC000D06C33C0DF70D06A30C0DC2FCC27C16F4F
:100BD000D06A2BC0C1E0D0E002C0CC0FDD1F2A9547
:100BE000E2F720E2829FC0011124C82BD92BDA68DA
:100BF0001CC0DC2FCC27C46FD06A17C0DC2FCC27D9
:100C0000C06FD06A12C08C2F8F700E94AD0694E026
:100C1000D695C7959A95E1F7CF70D0E0DC2FCC2719
:100C2000D069C82B02C0C0E0D0E0CE01DF91CF91E7
:100C300008958238910569F1B0F48133910509F482
:100C40006DC048F48932910509F463C08A32910578
:100C500009F469C008958533910509F455C08933B5
:100C60009105B9F00895833E910569F138F4803E0D
:100C70009105B1F0823E910509F10895863E9105F6
:100C8000A9F1873E9105B9F1843E910509F064C050
:100C900023C02091400220FD4FC021FD4DC008958A
:100CA0008091400280FD44C08091410280FF44C099
:100CB0008091400284FD42C083EE4DC0809140028D
:100CC00082FF38C0F5CF8091400282FD33C0809111
:100CD000410280FD31C0ECCF8091410281FF32C0E2
:100CE0008091400284FD2AC087EE35C08091400289
:100CF00083FF26C0F5CF8091400283FD21C0809103
:100D0000410281FD1FC0ECCF8091400285FD1CC0D7
:100D10001DC08091400285FD19C016C0809140021F
:100D200086FD16C017C08091400286FD13C010C01A
:100D300089E311C082EE0FC080EE0DC080E00BC0D1
:100D400086EE09C084EE07C089E205C085E303C0D2
:100D50008AE201C081E390E008959091400292FF01
:100D60000DC0282F2871283019F4877F846006C0B1
:100D7000282F2471243011F48B7F886093FF0DC0DD
:100D8000282F2871283119F4877E846106C0282F06
:100D90002471243111F48B7E88612091410220FF5F
:100DA0000DC0382F3871383019F4877F816006C044
:100DB000382F3171313011F48E7F886021FF0DC0E2
:100DC000282F2871283119F4877E816106C0282FC9
:100DD0002171213111F48E7E886194FD877E089502
:100DE0000C9490080E9490078FE39CE90197F1F71B
:100DF00000C000000E94900780E00E942C0780FF46
:100E000004C00E94F0060C945D1A08950C94F2063A
:100E10000E948C18811102C00E9434190E949718F8
:100E2000809334020E949F18909341028093400265
:100E30000E9406070E949B18682F70E080E090E0F7
:100E40000E94CE1560911F027091200280912102B4
:100E5000909122020C940616E82FF0E0EE0FFF1F8F
:100E6000E45BFD4F808191810895089580EA8A9521
:100E7000F1F7089500C008950C94360708950C9476
:100E80003E070C943F070C943E070C944307F894DC
:100E9000E82FE295EF70F0E031A1282F2F7081E06C
:100EA00090E001C0880F2A95EAF7982F9095932338
:100EB00091A392A1892B82A3789408950F931F93F5
:100EC000CF93DF9380E30E94470787E30E944707A1
:100ED00080E90E94470781E90E94470782E90E9452
:100EE0004707CEE3D1E00DE411E089910E94470766
:100EF0000C171D07D1F7E2E4F2E0ACE4B2E0119286
:100F000011921D921D9282E0EC34F807C1F785E042
:100F10000E941E08DF91CF911F910F910C94AA039C
:100F20007F928F929F92AF92BF92CF92DF92EF9279
:100F3000FF920F931F93CF93DF93CDE4D1E082E430
:100F4000A82E82E0B82E9CE4E92E92E0F92E712CB6
:100F500001E010E06E018881F894E82FE295EF70CF
:100F6000F0E021A18F70A80102C0440F551F8A959F
:100F7000E2F7CA01922F982B91A392A18095892321
:100F800082A378940E943A07EEE3F1E020E030E09B
:100F9000812C912C4191A42FA295AF70B0E0909636
:100FA0008C9190E04F7002C0959587954A95E2F735
:100FB00080FD08C0C801022E02C0880F991F0A9444
:100FC000E2F702C080E090E0882A992A2F5F3F4F25
:100FD0002F303105F9F62196F60180810E944707EE
:100FE0000E943C07F501808191818816990621F0C5
:100FF0009182808281E001C080E0782AF2E0AF0E29
:10100000B11CEA14FB0409F0A5CF272D45E06CE4E0
:1010100072E082E492E00E941F080E94AE03872DD6
:10102000DF91CF911F910F91FF90EF90DF90CF90C4
:10103000BF90AF909F908F907F9008950895FF92FA
:101040000F931F93CF93DF93F82E092F162FD72FCF
:10105000C42F222349F081E0809396010E94101A48
:101060009093950180939401809196018823D9F003
:1010700080919401909195010E94281A069798F00A
:10108000EF2DF02FA12FBD2F80E090E04C2F50E0EE
:101090008417950734F4219131912D933D93019656
:1010A000F7CF10929601DF91CF911F910F91FF9092
:1010B000089583E290E00E94DD21813281F484E290
:1010C00090E00E94DD21873051F485E290E00E949B
:1010D000DD2191E0883209F090E0892F01C080E0A5
:1010E00081700895CF93C82F811102C06FEF01C0A6
:1010F00061E283E290E00E94EB21C11102C06FEF38
:1011000001C067E084E290E00E94EB21C11102C0BF
:101110006FEF01C068E285E290E0CF910C94EB2183
:1011200080E00E9472080C948618089586E290E090
:101130000E94DD21682F70E080E090E0089586E253
:1011400090E00C94EB210E9495080E9459088111AF
:101150000CC060E070E0CB010E949F080E94E10992
:101160000E94C00A81E00C9472080895CF93FB019D
:10117000C281CC23E9F09C0122513F452031310549
:1011800020F482510E94D00A0CC08031FFE59F07F5
:1011900051F481E00E942E1643E062E081E00E945B
:1011A0009803C0E018C081319F45A9F482E0F2CFD6
:1011B0008031EFE59E0711F481E004C081319F4545
:1011C00049F482E00E944F1643E062E081E00E9411
:1011D000980301C0C1E08C2FCF9108952FEFFC013F
:1011E00020830895EF92FF920F931F93CF93DF9385
:1011F000EC01062FE8818E2F90E0FC013197E3315E
:10120000F10508F091C0EA5AFF4F0C94D0211982E1
:1012100089E04DC08981823039F0833061F08130BE
:1012200029F50E941C1A02C00E9496089A838B839B
:101230007C836D837BC07E0110E0812F0E942C0790
:10124000F701928383831F5FF2E0EF0EF11C1530EC
:10125000A1F76CC08981823049F46A817B818C81DD
:101260009D810E94D6210E949F0860C0602FCE0100
:101270000E94EE085BC04B816A8189810E94B3099C
:101280009C838D8353C02C813D81322723273227B5
:101290004B816A8189810E94CC0948C00E94E10982
:1012A00045C00E94730A24C00E94750A99838A83EC
:1012B0003DC06B8170E089819A81AE014C5F5F4FC8
:1012C0009827892798270E94780A30C06B8170E0A0
:1012D00089819A81AE014C5F5F4F982789279827B3
:1012E0000E949D0A23C00E94C00A20C00E94A0093B
:1012F00089831CC06B8170E089819A81AE014C5F4B
:101300005F4F9827892798270E94200A0FC06B817A
:1013100070E089819A81AE014C5F5F4F98278927E1
:1013200098270E94440A02C08FEF8883602FCE0165
:10133000DF91CF911F910F91FF90EF900C94F01AD5
:1013400084E0089550E0440F551F2EE1629F400D48
:10135000511D11249A0166E9869F200D311D11242B
:10136000C901879608950F931F93CF93DF930E942F
:10137000A2098C010E94DD21C82FD0E0DC2FCC27F0
:10138000C80101960E94DD219E01282BC901DF9131
:10139000CF911F910F9108950F931F93CF93DF93D8
:1013A000122F032F0E94A209EC01602F0E94EB2153
:1013B000612FCE010196DF91CF911F910F910C9477
:1013C000EB21AF92BF92CF92DF92EF92FF920F93F9
:1013D0001F93CF93DF93A12CE12CF12CB12C00E0D3
:1013E00010E0C0E0D0E06701C00ED11EFE01EE0F9C
:1013F000FF1FEC0DFD1DEE5DFE4F259134914C2F2E
:101400006B2D8A2D0E94CC092196CF30D10571F722
:10141000025E1F4FB39485E0B812E3CF86E9E80E71
:10142000F11CA39484E0A812D9CFDF91CF911F9132
:101430000F91FF90EF90DF90CF90BF90AF90089505
:10144000EF92FF920F931F93CF93DF93EA017A01FC
:10145000E60EF71E8C01C8018796CE15DF0569F0F0
:10146000083522E0120720F40E94DD21888301C0A4
:10147000188221960F5F1F4FEECFDF91CF911F9102
:101480000F91FF90EF900895EF92FF920F931F93AB
:10149000CF93DF93EA017A01E60EF71E8C01C801B3
:1014A0008796CE15DF0559F0083522E0120718F4AB
:1014B00068810E94EB2121960F5F1F4FF0CFDF91D3
:1014C000CF911F910F91FF90EF900895462F843098
:1014D00038F4753028F46F3018F4672F0C94B30982
:1014E00080E090E0089580E1089581E891E008951A
:1014F000EF92FF920F931F93CF93DF93EA017A014C
:10150000E60EF71E8C01C80181589D4FCE15DF05F0
:1015100069F0013821E0120720F40E94DD21888360
:1015200001C0188221960F5F1F4FEDCFDF91CF9141
:101530001F910F91FF90EF900895EF92FF920F93FC
:101540001F93CF93DF93EA017A01E60EF71E8C0119
:10155000C80181589D4FCE15DF0559F0013821E0B3
:10156000120718F468810E94EB2121960F5F1F4F2C
:10157000EFCFDF91CF911F910F91FF90EF900895E2
:10158000CF93DF93CFE7D2E060E0CE010E94EB2162
:101590002196C11584E0D807B9F7DF91CF9108955E
:1015A000DF92EF92FF920F931F93CF93DF9300D0C0
:1015B00000D0CDB7DEB7F82E8FE08F15E8F18FEFB2
:1015C00093E00E94DD21811137C00FE712E0FF2078
:1015D00069F0011584E0180779F1C8010E94DD2146
:1015E000811101C0FA940F5F1F4FF1CF19821A8247
:1015F0001B821C82DD24D39478018FEFE81AF80A4D
:10160000C8010E94DD2189831A828823A9F09FEFF7
:10161000980F933058F48A83D9820E5F1F4FC70109
:101620000E94DD218B83882339F07801CE01019659
:101630000E94E8048701E0CF0F900F900F900F9069
:10164000DF91CF911F910F91FF90EF90DF90089560
:101650000F931F93CF93DF93C42FD22FFC0182816E
:101660008823C9F0409399010E94101A9093980121
:101670008093970180E28C0F883008F057C0C770C4
:1016800081E001C0880FCA95EAF7DF91CF911F91E1
:101690000F910C945A0F80919901481330C080919A
:1016A0009701909198010E94281A883C910538F57D
:1016B00010E21D0FCD17B9F080E28C0F883040F496
:1016C000C77081E001C0880FCA95EAF70E94610FD8
:1016D000183028F581E09D2F977001C0880F9A95EA
:1016E000EAF70E945A0F802F0E94510F1830F0F431
:1016F000D77081E001C0880FDA95EAF70AC080E26E
:101700008C0F883098F4C77081E001C0880FCA95AB
:10171000EAF7DF91CF911F910F910C94610F802F09
:10172000DF91CF911F910F910C94510FDF91CF91C9
:101730001F910F9108950F939C01CB01233F4CE51E
:10174000340731F188F4283DFCE53F07D9F0293D05
:101750004CE5340779F1273D3C45A9F506E221EE39
:1017600041EE67ED7CE52BC0253FFCE53F07E1F04E
:10177000A8F0263F3C4539F507E225EE46EE66EF38
:101780007CE51DC007E225EE45EE68ED7CE517C05F
:1017900006E221EE40EE63EF7CE511C007E225EEA4
:1017A00044EE64EF7CE50BC006E221EE42EE65EF0D
:1017B0007CE505C008E221E045EE69ED7CE50E948C
:1017C000280B80E008C0FC018281882319F0109268
:1017D000990101C081E00F910895CF93DF93EC014F
:1017E000FB018281882309F41FC1C230FCE5DF07B9
:1017F00008F41BC1C6319CE5D90738F09E012A5F69
:101800003C452930310508F010C10E949F18909383
:10181000410280934002C031ECE5DE0709F4C3C009
:1018200008F041C0C8308CE5D80709F49AC0F0F43C
:10183000C430ECE5DE0709F487C068F4C2308CE5FB
:10184000D80709F477C0C330DC4509F0E3C08091C4
:101850004002826076C0C630ECE5DE0709F46EC057
:1018600008F07BC08091400288606BC0CC308CE572
:10187000D80709F485C068F4CA30ECE5DE0709F43E
:1018800074C008F079C00E94D8118091400280682D
:1018900058C0CE308CE5D80709F476C008F07FC078
:1018A000809140028BC0CB3FECE5DE0709F44FC0CE
:1018B00018F5C3318CE5D80709F47DC078F4C1313F
:1018C000ECE5DE0709F473C0C231DC4509F0A2C0C3
:1018D0000E94D811809140028F7733C0C5318CE5CA
:1018E000D80709F472C008F486C0CA3FDC4509F085
:1018F00091C0809141023EC0CF3FFCE5DF0709F473
:101900005FC058F4CD3F9CE5D90709F444C008F402
:101910003FC08091410282602DC0C130FDE5DF07EC
:1019200009F475C008F45DC0C230DD4509F072C02D
:1019300080E06EC080914002816003C080914002CF
:1019400080618093400266C08091400211C0809106
:1019500041028260809341025DC0809140028062BA
:10196000F0CF809140028064ECCF8091400288608B
:101970008460E7CF8160EECF809140028E7FE1CF1F
:10198000809140028D7FDDCF80914002877FD9CF4B
:101990008091410218C0809141028D7FDBCF809100
:1019A00040028F7ECECF809140028F7DCACF809142
:1019B00040028F7BC6CF80914002877F8B7FC1CF53
:1019C000809141028D7F8E7FC5CF8091400282FB46
:1019D000222720F991E0922790FB82F990FB83F96E
:1019E000B0CF80914102982F909591708E7F892B76
:1019F00090FB81F9AFCF0E94D8118091400287FB04
:101A0000222720F991E0922790FB87F99ACF81E075
:101A10000E94361980914002909141020E94B018B4
:101A20000E94D81180E001C081E0DF91CF9108953C
:101A3000CF93DF9386319C4541F5EB010E94C5179A
:101A4000982F8A812091000130910101882379F03B
:101A50009A7A81E009F480E080939A01911102C0A2
:101A600069E201C065E3C9010E947D190AC0809145
:101A70009A01811102C069E201C065E3C9010E94B7
:101A80007F190E94171880E001C081E0DF91CF919B
:101A900008959093A00180939F010895E0919F0184
:101AA000F091A001309721F00190F081E02D099490
:101AB00080E00895E0919F01F091A001309721F01E
:101AC0000280F381E02D0994089520919D013091C9
:101AD0009E012817390771F090939E0180939D0114
:101AE000E0919F01F091A001309721F00680F781ED
:101AF000E02D0994089520919B0130919C012817B5
:101B0000390771F090939C0180939B01E0919F01B4
:101B1000F091A001309721F00084F185E02D099427
:101B200008950E941C1A6093B0017093B1018093D4
:101B3000B2019093B3016093AC017093AD018093B7
:101B4000AE019093AF01089585B7806885BF85B7D2
:101B5000806885BF089581E008950C94AB0D0895C9
:101B60000C94AF0D0C94AF0D0C94B20D0C94AF0D02
:101B70000C94B60D0C94AF0D0E94A40D84E898E16E
:101B80000E94811A0E94BA0D0C94B80D0E94B00DEB
:101B90000C94AF0D0E94071A0E945E070E94A308D2
:101BA0000C94B40D6F927F928F929F92AF92BF92DE
:101BB000CF92DF92EF92FF920F931F93CF93DF9319
:101BC000CDB7DEB72A970FB6F894DEBF0FBECDBFF4
:101BD0000E94900781110E94910D32EA832E31E01C
:101BE000932E00E010E0C02E802F0E942C075C0195
:101BF000F401619071904F01682679266114710497
:101C0000B1F40F5F1F4F0530110569F78FEF89831E
:101C10008A831B820E94101A8160782F9D838C8397
:101C200049815A816B818D810E94860E3AC08091D4
:101C3000340281FD0E943507D12CEE24E394F12C6F
:101C4000C3018E219F21892B29F10E94AD0D88238C
:101C5000A9F0DE82CF82AE20BF2081E0AB2809F45C
:101C600080E088870E94101A8160782F9A87898780
:101C70004E815F8168858A850E94860E000F111F44
:101C8000F801EE55FE4F80819181E826F926F18218
:101C9000E08207C0D394EE0CFF1CFFE0DF12D0CF30
:101CA000B0CF0E944E0D9091A1018917D1F00E94F2
:101CB0004E0D8093A1012A960FB6F894DEBF0FBE99
:101CC000CDBFDF91CF911F910F91FF90EF90DF90EB
:101CD000CF90BF90AF909F908F907F906F900C941B
:101CE000F2042A960FB6F894DEBF0FBECDBFDF9187
:101CF000CF911F910F91FF90EF90DF90CF90BF9009
:101D0000AF909F908F907F906F900895DF92EF92A9
:101D1000FF920F931F93CF93DF93CDB7DEB72B972F
:101D20000FB6F894DEBF0FBECDBFF42E052F162FD1
:101D3000E72ED82E61110E94E517FE01319686E04C
:101D4000DF011D928A95E9F77E2D4F2D502F612FCF
:101D50008D2D9E810E9491142B960FB6F894DEBFB4
:101D60000FBECDBFDF91CF911F910F91FF90EF90EC
:101D7000DF900895FC01808191810E94651708958C
:101D8000CF93882309F448C0C82F8CEF8C0F813A79
:101D9000D0F46C2F80910001909101010E944719AD
:101DA000882349F06C2F80910001909101010E94DD
:101DB0007F190E9417186C2F8091000190910101EA
:101DC0000E947D190CC080E28C0F883058F4C770D7
:101DD00081E001C0880FCA95EAF70E94C817CF9129
:101DE0000C941718EBE5EC0FE33040F4F0E0E0580A
:101DF000FE4F808190E0CF910C94650DC85AC73199
:101E000058F4EC2FF0E0EE0FFF1FEE5AFE4F8081EA
:101E10009181CF910C947B0DCF910895882349F146
:101E2000682F8CEF860F813A38F4809100019091F1
:101E300001010E947F190CC080E2860F883050F4A7
:101E4000677081E001C0880F6A95EAF70E94CE179B
:101E50000C9417188BE5860F833020F480E090E017
:101E60000C94650D685A673120F480E090E00C9482
:101E70007B0D08951F93CF93DF93182FEB010E94E2
:101E8000C00E209741F08FE99FE00197F1F700C065
:101E900000002197F6CF812FDF91CF911F910C94F5
:101EA0000E0F893319F060E070E002C060E570E069
:101EB0000C943A0F882321F00E94C8170C9417182D
:101EC0000895882321F00E94CE170C9417180895C6
:101ED000CF92DF92EF92FF920F931F93CF93DF93F6
:101EE0007C01062FC72FFC01D281158112951F702E
:101EF0000E949D17882399F0DD2389F08C2F807F25
:101F0000803421F080E2800F883048F082E00E9427
:101F100067180E949D1791E0D82ED92601C0D12CB8
:101F2000CC2EC2948FE0C8228C2D90E0FC01E759A2
:101F3000FF4F0C94D0218C2F807FCF70882311F01D
:101F4000C295C07FDD2399F0CC2309F482C180E2E1
:101F5000800F883010F0011104C08C2F0E94C81728
:101F600003C08C2F0E94D8170E94171872C1802FAF
:101F70000E940E0FCC2309F491C180E2800F8830BB
:101F800010F0011104C08C2F0E94CE1703C08C2FBB
:101F90000E94DE170E94171881C18C2F807FCF709E
:101FA000803211F0C295C07F002319F00130C9F0D2
:101FB00022C0DD2371F0112341F0113031F40E9471
:101FC000F8178C2B0E94001869C10E94F8178C2BFF
:101FD0001DC0112319F0113009F460C10E940D18C1
:101FE00025C0DD2321F0163008F058C10EC0153091
:101FF00008F054C11BC0DD2361F0112331F0F7015B
:10200000858180FF26C18F7085838C2F0E945A0F97
:1020100045C1112359F0093309F02CC1FFEF27EE18
:1020200083E0F15020408040E1F722C18C2F0E94D4
:10203000610F34C18C2F86958695837019F081309D
:1020400061F02CC1DD2321F0802F9C2F937002C002
:1020500080E090E00E94650D29C1DD2321F0802FF2
:102060009C2F937002C080E090E00E947B0D1EC107
:102070008C2F837009F045C0D11114C1402F4295B7
:1020800046954770440F440F602F6F70862F90E085
:10209000A0E0B0E0042E04C0880F991FAA1FBB1F48
:1020A0000A94D2F704FF10C00FE010E020E030E007
:1020B00004C0000F111F221F331F4A95D2F700954D
:1020C00010952095309503C000E010E09801C6956A
:1020D000C695C370BC01CD01602B712B822B932B55
:1020E000C23049F058F4C13019F00E94E215DAC04C
:1020F0000E94D015D7C00E94F415D4C00E94CE15FE
:10210000D1C0DD2319F08C2F817001C08695882302
:1021100009F4C8C0402F429546954770440F440FBC
:10212000602F6F70862F90E0A0E0B0E0042E04C016
:10213000880F991FAA1FBB1F0A94D2F704FF10C073
:102140000FE010E020E030E004C0000F111F221F5C
:10215000331F4A95D2F7009510952095309503C00E
:1021600000E010E09801C695C695C370BC01CD0192
:10217000602B712B822B932BC23049F058F4C13065
:1021800019F00E94A7168EC00E9495168BC00E945F
:10219000B91688C00E94081685C0CF70DD2339F0BB
:1021A0008C2F0E942E16802F0E945A0F7BC0802FEA
:1021B0000E94610F8C2F0E944F1674C0023F01F1E4
:1021C00028F4003F41F0013FA1F03FC0033FF9F088
:1021D000043F39F13AC0DD2341F0153008F05EC00C
:1021E0008C2F8F710E94741659C0163008F056C09B
:1021F000F7CFDD2339F08C2F8F710E942E164EC041
:10220000DD23C9F38C2F8F710E944F1647C0DD2349
:1022100029F08C2F8F710E94191640C00E9414164D
:102220003DC0DD2349F0CF718C2F0E942E1663E054
:102230008C2F0E944C1832C081E00E946718123027
:1022400068F182E00E94671829C0DD2331F0112374
:1022500091F2802F0E94C00E21C0112399F2093300
:1022600049F49FEFE7EEF3E09150E040F040E1F7F2
:1022700000C00000802F0E940E0F10C04C2F4F7026
:10228000602FC7010E94FB040E943F150FC04C2F16
:102290004F70602FC7010E94FE0408C088EF8C0DAC
:1022A000843020F40E944E0D0E94F204DD20C9F01B
:1022B0000E94991780FD15C0F70112820E949317A2
:1022C0000E942E16C7010E9492110E949317DF915F
:1022D000CF911F910F91FF90EF90DF90CF900C94D2
:1022E0004F16DF91CF911F910F91FF90EF90DF90EC
:1022F000CF9008950F931F93CF93DF93EC016881E4
:1023000079818A810E9470178C010E94CB160E94ED
:10231000BC15B801CE010E94680FDF91CF911F91CB
:102320000F910895CF93DF93EC01988189812B81E0
:102330003C81232B31F08F3F31F481E09F3F19F432
:1023400003C081E001C080E080FD19C0CE010E9481
:10235000C00381110CC00E949D17882381F08A81DF
:10236000882369F082E0DF91CF910C946718CE0149
:102370000E947A11CE01DF91CF910C943903DF9145
:10238000CF91089580E090E00E94650D80E090E09C
:102390000E947B0D0E94E5170E94F5170C941718F8
:1023A00080910001909101010E9481190C94C21149
:1023B0000E94D5170C94D011E92FE295EF704E2FA3
:1023C00050E0FA013297EE30F105B0F4E758FF4FD4
:1023D0000C94D021803F91F018F4883E68F40EC030
:1023E000843F51F40BC0883E48F0813F29F406C079
:1023F00093FB882780F9089580E0089581E008958F
:102400000E9465170E94DC110895CF93DF9300D0DE
:1024100000D01F92CDB7DEB70F900F900F900F90A6
:102420000F90DF91CF910895CF93DF9300D000D02C
:1024300000D0CDB7DEB726960FB6F894DEBF0FBE3C
:10244000CDBFDF91CF9108951F93CF93DF93C091BC
:10245000B50116E08091B601C81799F0D0E01C9F35
:10246000F0011D9FF00D1124E954FE4F4081518170
:1024700062817381848195810E9414122196C770B4
:10248000E9CFDF91CF911F9108954091E7015091DD
:10249000E8016091E9017091EA018091EB0190916E
:1024A000EC010C9414120F931F93CF93DF93809140
:1024B000EC0182958F7009F05DC08091E90188235D
:1024C00009F458C08091B5011091B6016091E701FF
:1024D0007091E801C091EA01D091EB0191E06F3F6A
:1024E00009F090E0292F06E0811709F443C02097F6
:1024F00021F07F3F21F030E003C031E001C0322FF6
:1025000090E030FD34C0089FF001099FF00D1124C8
:10251000DF01A954BE4F11963C911197371327C084
:102520003C91361324C012963C91129731111FC072
:1025300013964D915C9114974C1B5D0B483C5105D3
:10254000B0F48091EC018F7080618093EC01E454D1
:10255000FE4F80818F708061808387EE91E00E94C2
:102560009211DF91CF911F910F910C94241201963B
:102570008770BACFDF91CF911F910F9108959F92ED
:10258000AF92BF92CF92DF92EF92FF920F931F9381
:10259000CF93DF93CDB7DEB761970FB6F894DEBF68
:1025A0000FBECDBF8C0185E0F801DE011D960190C4
:1025B0000D928A95E1F7F80140815181E280909176
:1025C000E7016091E8012091EA013091EB012115CA
:1025D000310531F06F3F31F481E09F3F19F403C0C2
:1025E00081E001C080E0F82FF1709F2E80FD46C190
:1025F000F801A380B48087EEC82E81E0D82EF09039
:10260000E901F501E21BF30BFF2009F4DFC0809123
:10261000EC01E83CF10508F09BC0282F207F09F071
:1026200052C0561313C0491311C0FE2CE1100EC046
:102630008F7080618093EC010E944512C6010E9458
:1026400092118091EC01F801858358C1AB2831F0DB
:102650005F3F31F481E04F3F19F403C081E001C0D6
:1026600080E080FD03C081E08E2502C080E090E024
:10267000F82FF170FF2E80FF1CC08091B5012091D2
:10268000B60136E0821709F417C190E0389FF001D7
:10269000399FF00D1124E954FE4F6181561306C095
:1026A0006081461303C06281E61203C00196877001
:1026B000E9CFFE2CEE2009F421C18091EC0181606C
:1026C0008093EC015AC0561306C0491304C0E110B0
:1026D00002C0F8019FC04D875E878D859E850E9450
:1026E0000012882379F1EE2069F12091EC01822F0C
:1026F00082958F7090E0029774F08091E70190913D
:10270000E80198878F831986BB86AA862C87CE011D
:1027100007960E94921186E0F801A7EEB1E00190C1
:102720000D928A95E1F70E9453120E9445120DC046
:10273000561729F14D875E878D859E850E94001270
:1027400081112CC0C8010E949211FF24F394D6C0BD
:10275000282F207F69F77A2DB98AA88A6E2D89895A
:102760000E94051287EE91E00E94921186E0F60128
:1027700011928A95E9F70E944512F12CBFC04913C6
:10278000D9CFE110D7CFF8018583C8010E949211FB
:1027900086E0F60111928A95E9F7B0C0EE2091F239
:1027A0002091EC01822F82958F7090E002970CF4BB
:1027B000B2CF8091E7019091E8019A8389831B82CF
:1027C000BD82AC822E83CE010196A3CFE83CF105F9
:1027D00008F047C0FE2CEE2009F4B4CF561330C0E9
:1027E00049132EC02091EC0120FD21C0822F82953B
:1027F0008F70482F50E041155105C9F0F80125832D
:102800004F30510541F08F5F982F9295907F822F26
:102810008F70892B8583C8010E94921186E0F80190
:10282000A7EEB1E001900D928A95E1F742C086E0F3
:10283000F801A7EEB1E001900D928A95E1F75EC034
:102840004D875E878D859E850E940012811163CF22
:102850008091EC0181608093EC01C8010E9492118B
:102860004DC07A2DB98AA88A6E2D89890E940512D9
:1028700086E0F60111928A95E9F71BC0EE2009F473
:1028800061CF4D875E878D859E850E940012F82E50
:10289000882309F457CF86E0F801A7EEB1E0019054
:1028A0000D928A95E1F787EE91E00E94BA0E0E94A0
:1028B00053120E94451222C04D875E878D859E85EA
:1028C0000E946517292F22952F70223028F49F70BF
:1028D00039F0811105C00BC0243028F49F7049F4F1
:1028E000805E883020F0C8010E9492119F2CF92C44
:1028F00005C0F8019581907F99F7F9CF8F2D6196EA
:102900000FB6F894DEBF0FBECDBFDF91CF911F9100
:102910000F91FF90EF90DF90CF90BF90AF909F907E
:1029200008951F93CF93DF93CDB7DEB72C970FB6E3
:10293000F894DEBF0FBECDBF4F83588769877A8773
:102940008B879C87CE0107960E94BF128823D1F007
:102950009F8188852A853B85232B31F08F3F31F479
:1029600081E09F3F19F403C081E001C080E080FD59
:1029700047C04F81588569857A858B859C850E94E3
:1029800014123EC086E0FE013796DE0111960190DA
:102990000D928A95E1F7FF81E8856A857B8561154F
:1029A000710531F0EF3F31F481E0FF3F19F403C0CE
:1029B00081E001C080E080FD23C02091B60130E0BD
:1029C000C9010196877099274091B50150E084179D
:1029D0009507F1F1F983EA837D836C8396E0929FFA
:1029E000D001939FB00D1124A954BE4FFE01319622
:1029F00001900D929A95E1F78093B6010E942412FE
:102A000016E08091B5019091B601891771F1189F78
:102A1000C001112489549E4F0E94BF12882329F1BE
:102A2000E091B5011E9FF0011124E954FE4F408151
:102A3000518162817381848195810E9414128091F9
:102A4000B50190E00196877099278093B501D9CFA1
:102A50000E94D8111092B6011092B501E7EEF1E094
:102A600086E0DF011D928A95E9F72C960FB6F8945F
:102A7000DEBF0FBECDBFDF91CF911F910895EF92C2
:102A8000FF920F931F93CF93DF938C01892B09F44F
:102A90006CC0F12CEE24E394E8012196F8018491B6
:102AA000843740F4843008F051C0813081F08230A6
:102AB00019F15BC0853709F444C0A8F19CE7980F71
:102AC000903708F052C08F770E940E0F41C00E5F02
:102AD0001F4FFE01849190E2980F983050F4877058
:102AE000FE2D01C0FF0F8A95EAF78F2F0E94E8178D
:102AF00014C00E94C00E2DC00E5F1F4FFE018491B6
:102B000090E2980F983060F48770FE2D01C0FF0F9F
:102B10008A95EAF78F2F0E94EE170E94171819C0A6
:102B20000E940E0F16C00E5F1F4FFE01C491CC23F2
:102B300081F08FE99FE00197F1F700C00000C150DC
:102B4000F6CF0E5F1F4FFE01F49003C00E94C00E2F
:102B50008E018F2D882309F49FCFEFE9FFE0319795
:102B6000F1F700C000008150F5CFDF91CF911F91A8
:102B70000F91FF90EF900895089508950C94BD155E
:102B80000C94BE150E94C01560932302709324021A
:102B900080932502909326020C94C2110C94C215C6
:102BA0000F931F930091230210912402209125027C
:102BB00030912602602B712B822B932B1F910F914A
:102BC0000C94C2150F931F930091230210912402BD
:102BD00020912502309126026023712382239323C2
:102BE0001F910F910C94C2150F931F930091230214
:102BF000109124022091250230912602602771272E
:102C0000822793271F910F910C94C2150C94BD1528
:102C10000E94061660931F02709320028093210287
:102C2000909322020C94C21160E070E0CB010C94EE
:102C300008160F931F9341E050E060E070E08A01B6
:102C40009B0104C0000F111F221F331F8A95D2F76A
:102C5000C901B8011F910F910C9408160F931F938F
:102C600041E050E060E070E004C0440F551F661F73
:102C7000771F8A95D2F780911F0290912002A09130
:102C80002102B09122028A019B01082B192B2A2BC9
:102C90003B2BC901B8011F910F910C9408160F939B
:102CA0001F9341E050E060E070E004C0440F551F06
:102CB000661F771F8A95D2F740955095609570955D
:102CC00080911F0290912002A0912102B0912202D6
:102CD0008A019B01082319232A233B23C901B80138
:102CE0001F910F910C9408160F931F9341E050E031
:102CF00060E070E004C0440F551F661F771F8A957F
:102D0000D2F780911F0290912002A0912102B091F0
:102D100022028A019B01082719272A273B27C9017C
:102D2000B8011F910F910C9408160F931F930091F7
:102D30001F02109120022091210230912202602B6B
:102D4000712B822B932B1F910F910C9408160F93CC
:102D50001F9300911F0210912002209121023091B7
:102D6000220260237123822393231F910F910C94DD
:102D700008160F931F9300911F02109120022091BB
:102D800021023091220260277127822793271F9109
:102D90000F910C94081608952FE0929F800D112436
:102DA000E82FE695E695E695877051E001C0550F4E
:102DB0008A95EAF785E0E89FF0011124E351FE4F80
:102DC00020E030E070E04081CB01022E02C09695F9
:102DD00087950A94E2F7817081958427852384275B
:102DE00081932F5F3F4F2530310569F708952FE01C
:102DF000929F800D1124682F669566956695982F91
:102E0000977085E0689FB001112440E050E080E0B9
:102E1000FB01E40FF51FE351FE4F208130E0092E46
:102E200002C0369527950A94E2F721703327042EC5
:102E300001C0220F0A94EAF7822B4F5F5F4F4530A3
:102E4000510531F70895BF92CF92DF92EF92FF9232
:102E50000F931F93CF93DF938C01C0901F02D090EC
:102E60002002E0902102F0902202809123029091B2
:102E70002402A0912502B0912602C82AD92AEA2A62
:102E8000FB2ACFE1D0E0D701C6010C2E04C0B695D5
:102E9000A795979587950A94D2F780FD04C021974E
:102EA00090F7B12C07C0BC2EB8018C2F0E940705EB
:102EB0000197A9F38B2DDF91CF911F910F91FF9077
:102EC000EF90DF90CF90BF900895CF93DF93EC0108
:102ED0000E942317BE010E940705DF91CF9108953C
:102EE0001F93CF93DF93EB019091B401992321F0CD
:102EF000CB010E94651713C0882349F0CB010E94C3
:102F00002317182F682FCE010E94CC1604C0CB01C6
:102F10000E94F716182FBE01812F0E940705DF912E
:102F2000CF911F910895809127028595859585956C
:102F300008958091270287700895909127029770D5
:102F400081E009F480E008959091410292FB2227EC
:102F500020F9281751F080FB92F99093410280915B
:102F60004002909141020C94B01808958091410262
:102F700082FB882780F991E089270C94A41781E0CF
:102F80000C94A41780E00C94A41780913302089548
:102F900090913302892B809333020895809590910C
:102FA00033028923809333020895109233020895E7
:102FB00090913202892B80933202089580959091EE
:102FC00032028923809332020895109232020895CA
:102FD00090913102892B80933102089580959091D0
:102FE00031028923809331020895109231020895AD
:102FF00080912802089508950C94FB170C94FC17F7
:103000009091410292FD08C090912802981721F0FA
:10301000809328020C94FE1708958091280288233B
:1030200029F01092280280E00C94FE170895E09198
:103030000001F0910101809133028083E091000151
:10304000F0910101908180913202892B8083E0917F
:103050000001F0910101908180913102892B8083E0
:1030600080912802882381F0E0910001F091010114
:103070009081892B808380910001909101010E94B1
:103080003B1981110E940D1880910001909101015E
:103090000C945A0D0C94FB179091410292FD10C0B4
:1030A00098E0899F90011124262B209327020E94EB
:1030B0002E16809127028595859585950C944A1842
:1030C0000C942E161092270280E00C944A1820913E
:1030D00027028095822380932702982F977041F4CE
:1030E00030E0482F082E000C550B2417350721F42B
:1030F0009091410292FF07C08595859585950E9424
:103100004F160C946218089580E008956FEF7FEFDA
:1031100080E090E00C94092280E090E00E94E5219C
:1031200021E08A3E9E4F09F020E0822F089582E040
:1031300090E00C94DD2183E090E00C94DD21CF93AE
:1031400084E090E00E94DD21C82F82E290E00E949E
:10315000DD212C2F30E0A901582BCA01CF91089511
:10316000CF93C92F682F84E090E00E94EB216C2F51
:1031700082E290E0CF910C94EB21AB01BC018FE097
:1031800090E00C94FD21AB01BC0183E190E00C9434
:10319000FD2160E070E0CB010C94C31860E070E0AA
:1031A000CB010E94BD180C94C9186AEE7EEF80E036
:1031B00090E00E94092260E082E090E00E94EB2112
:1031C00060E083E090E00E94EB21109223021092D5
:1031D0002402109225021092260260E084E090E022
:1031E0000E94EB2160E082E290E00E94EB2160E02F
:1031F00085E090E00E94EB2160E086E090E00E9494
:10320000EB216FEF87E090E00E94EB2140E050E07F
:10321000BA0188E090E00E94FD2160E08DE090E03E
:103220000E94EB2140E050E0BA0188E190E00E946A
:10323000FD2160E087E190E00E94EB2140E050E05A
:10324000BA018CE190E00E94FD2160E070E080E234
:1032500090E00E94092240E050E0BA0188E190E04D
:103260000E94FD210C94CE180C94D518682F8EE086
:1032700090E00C94EB21FC01329697E080E09150B5
:1032800029F021912223D9F38F5FF9CF0895662386
:1032900049F0FC01329608962191621729F0E8174F
:1032A000F907D1F780E0089581E008959C01FC01C1
:1032B00032969FEF80E04191461789F09F3F19F4C5
:1032C000411101C0982F8F5F8630A9F79F3F39F0D9
:1032D000F901E90FF11D97FDFA95628308950895AC
:1032E0009C012A5F3F4FFC014281461301C01282BC
:1032F000019682179307B9F708950C9456190C9408
:103300007019029626E0FC0111922A95E9F70895BA
:1033100008950C9488190C948819CF930E948B19E6
:103320000E9490070E948919C0E08C2F0E942C07F0
:10333000892B29F4CF5FC530C1F780E001C081E05F
:10334000CF9108950C9488190C94A21980915E0273
:10335000843049F10E94A41980E00E94F204109286
:10336000350220E488E190E00FB6F894A8958093A8
:1033700060000FBE2093600083B7817F846083BFAD
:1033800083B7816083BF7894889583B78E7F83BF2E
:103390000FB6F894A89580916000886180936000D2
:1033A000109260000FBE08950C9488190E94D811E5
:1033B0000E944E0D0E94F2040C94D4191F920F9299
:1033C0000FB60F9211248F939F93AF93BF93809169
:1033D0003502811113C08091560290915702A0913D
:1033E0005802B09159024196A11DB11D8093560219
:1033F00090935702A0935802B0935902BF91AF9196
:103400009F918F910F900FBE0F901F90189582E0A3
:1034100084BD93E095BD9AEF97BD80936E000895AB
:103420002FB7F8948091560290915702A0915802BC
:10343000B09159022FBF08952FB7F89460915602AA
:103440007091570280915802909159022FBF0895B0
:103450009C014FB7F8948091560290915702A09129
:103460005802B09159024FBF821B930B0895789474
:103470001F920F920FB60F9211248F939F93AF93C9
:10348000BF938091560290915702A0915802B0913B
:1034900059020196A11DB11D8093560290935702C7
:1034A000A0935802B0935902BF91AF919F918F9111
:1034B0000F900FBE0F901F90189581E08093E00051
:1034C00080E28093D8001092C9008FE19EE40197BA
:1034D000F1F700C0000087E090EBDC018093670209
:1034E00090936802A0936902B0936A029CE088E11D
:1034F0000FB6F894A895809360000FBE909360007B
:10350000FFCF9093930180939201089580913E02A2
:1035100008950895CF93DF9300D01F92CDB7DEB703
:1035200090915E02943011F589837B836A83909336
:10353000E9008FEF9091E800815095FD06C095ED70
:103540009A95F1F700008111F5CF8091E80085FF91
:103550000DC040E050E063E070E0CE0101960E94B3
:10356000E71C8091E8008E778093E8000F900F9021
:103570000F90DF91CF910895BC0184E00C948A1ADA
:10358000BC0183E00C948A1ACF93DF9321E020934F
:10359000E9002FEF3091E800215035FD06C035EDF0
:1035A0003A95F1F700002111F5CF2091E80025FFB1
:1035B00014C0EC0140E050E068E070E00E94E71CBD
:1035C0008091E8008E778093E80088E0FE01A6E312
:1035D000B2E001900D928A95E1F7DF91CF910895C5
:1035E000CF93603219F520915E022430F9F4C09136
:1035F000E900CF703091EC00232F217030FD20E8DE
:10360000C22B22E02093E9002091E80020FF0BC0AC
:1036100040E050E060E270E00E94E71C8091E8002A
:103620008E778093E800CF70C093E900CF91089522
:1036300080915D02811109C00E94C31E0E94201F5B
:103640008091E20084608093E200089510925D0210
:10365000089508950895089542E061EC81E00E9484
:103660003C1E42E261EC84E00E943C1E42E261ECBE
:1036700082E00E943C1E42E260EC83E00C943C1E1F
:1036800080916002833009F462C030F4813071F0BF
:10369000823009F49BC008958A3009F487C08B30CA
:1036A00009F46DC0893009F0A9C020C080915F0283
:1036B000813A09F0A3C08091E800877F8093E800F9
:1036C0008091630290916402892B21F468E086E383
:1036D00092E003C060E080E090E070E00E947D1D19
:1036E0008091E8008B778093E800089580915F02D5
:1036F000813209F083C08091630290916402009747
:1037000019F0029709F07AC08091E800877F8093D2
:10371000E8008091E80082FD05C080915E02811181
:10372000F8CF6CC02091F3008091F20090E0922BD2
:10373000029729F48091F1008B7F813021F48091F0
:10374000F10080933E028091E8008B7753C0809116
:103750005F02813A09F052C0809163029091640245
:10376000892B09F04BC08091E800877F8093E800A7
:103770008091E80080FFFCCF80910C0136C08091E1
:103780005F028132D9F58091630290916402892BA6
:10379000A9F58091E800877F8093E8000E94711E60
:1037A0008091610280930C010C94D81180915F028A
:1037B000813221F58091E800877F8093E8000E94A4
:1037C000711E8091620280933F02089580915F0292
:1037D000813AA1F48091E800877F8093E80080918E
:1037E000E80080FFFCCF80913F028093F100809140
:1037F000E8008E778093E8000C94711E08951F9363
:10380000CF93DF93CDB7DEB7A0970FB6F894DEBFA6
:103810000FBECDBF84B7877F84BF0FB6F894A8953D
:1038200080916000886180936000109260000FBEFC
:1038300090E080E80FB6F894809361009093610067
:103840000FBE0E94BC0D0E94C31E0E94201F8091CB
:10385000E20084608093E20078940E94B5210E9487
:10386000CA0D82E091E00E94490D13E080915E0252
:103870008530A9F480915E02853079F40E94A61902
:1038800080915C028823B1F30E948D19882391F303
:103890000E94D11C0E94D811EDCF0E94D6190E941F
:1038A000D20D80915E02843009F51093E900809179
:1038B000E80082FF1BC08091E80085FF0AC040E05D
:1038C00050E060E270E0CE0101960E94321D91E06E
:1038D00001C090E08091E8008B778093E800992305
:1038E00029F060E2CE0101960E94F2080E94C60D06
:1038F000BDCF0C947B1C292F332723303105C9F011
:1039000060F42130310581F02230310509F041C0E9
:103910008BE590E024E534E040C021323105E1F050
:103920002232310531F135C082E190E02FEA34E0F6
:1039300034C099278130910549F028F0029749F564
:10394000EAE2F4E005C0E0E5F4E002C0EEE3F4E012
:10395000849190E09F0121C063307105D0F4660F1F
:10396000771FFB01E457FE4F2081318189E090E011
:1039700014C06330710568F4FB01EE0FFF1FEA57B6
:10398000FE4F20813181FB01ED57FE4F808190E099
:1039900004C080E090E020E030E0FA013183208331
:1039A000089580E189BD82E189BD09B400FEFDCFA3
:1039B0008091D8008F7D8093D8008091E000826054
:1039C0008093E0008091E00081FDFCCF0895CF92CC
:1039D000DF92EF92FF920F931F93CF93DF93EC014F
:1039E0008B017A010E94901E811133C0E114F10411
:1039F00039F0F70180819181081B190BC80FD91F7D
:103A0000C12CD12C0115110519F18091E80085FD1B
:103A100016C08091E8008E778093E800E114F104ED
:103A200049F0F70180819181C80ED91ED182C082F0
:103A300085E00FC00E94901E882321F30AC089915F
:103A40008093F10001501109FFEFCF1ADF0ADACF9E
:103A500080E0DF91CF911F910F91FF90EF90DF9069
:103A6000CF900895CF92DF92EF92FF920F931F9322
:103A7000CF93DF93EC018B017A010E94901E81119C
:103A800033C0E114F10439F0F70180819181081B02
:103A9000190BC80FD91FC12CD12C0115110519F113
:103AA0008091E80085FD16C08091E8008B778093B7
:103AB000E800E114F10449F0F70180819181C80E1A
:103AC000D91ED182C08285E00FC00E94901E88233B
:103AD00021F30AC08091F100899301501109FFEF91
:103AE000CF1ADF0ADACF80E0DF91CF911F910F91DB
:103AF000FF90EF90DF90CF90089520916502309174
:103B000066022617370748F06115710539F42091D0
:103B1000E8002E772093E80001C0B901FC0120E005
:103B20006115710579F180915E028823F1F185308C
:103B3000F1F18091E80083FD3CC08091E80082FDB6
:103B40002EC08091E80080FFEBCF2091F3008091A0
:103B5000F20090E0922B6115710551F088309105CB
:103B600038F421912093F100615071090196F3CF4F
:103B700021E0089709F020E08091E8008E7780939B
:103B8000E800CECF2111CFCF0AC080915E028823FA
:103B900061F0853061F08091E80083FD0AC080917A
:103BA000E80082FFF2CF80E0089582E0089583E08C
:103BB000089581E0089520916502309166022617EC
:103BC000370748F06115710539F42091E8002E7728
:103BD0002093E80001C0B901FC0120E061157105E6
:103BE00091F180915E02882309F440C0853009F488
:103BF0003FC08091E80083FD3DC08091E80082FDD8
:103C00002FC08091E80080FFE9CF2091F3008091E0
:103C1000F20090E0922B6115710559F08830910502
:103C200040F424912093F10031966150710901967E
:103C3000F2CF21E0089709F020E08091E8008E772C
:103C40008093E800CBCF2111CCCF0AC080915E02D7
:103C5000882361F0853061F08091E80083FD0AC01F
:103C60008091E80082FFF2CF80E0089582E008951D
:103C700083E0089581E00895982F973068F5909338
:103C8000E900981739F07091EC002091ED00509107
:103C9000F00003C0242F762F50E021FD02C09F5F6B
:103CA000ECCF3091EB003E7F3093EB003091ED0094
:103CB0003D7F3093ED003091EB0031603093EB00AD
:103CC0007093EC002093ED005093F0002091EE00F3
:103CD00027FDE5CF80E008958F708093E90081E0B3
:103CE000089580915F0287FF11C08091E80082FDF6
:103CF00005C080915E028111F8CF11C08091E8006B
:103D00008B770BC080915E02882349F08091E80098
:103D100080FFF8CF8091E8008E778093E8000895C7
:103D20002091E4003091E50095E64091EC00842F6D
:103D3000817040FF23C08091E80080FD1DC080910C
:103D40005E02882399F0853099F08091EB0085FD23
:103D500011C04091E4005091E5002417350729F384
:103D6000915011F09A01E1CF84E0089582E0089526
:103D700083E0089581E0089580E008954091E8008F
:103D800042FFDDCF08950E94311F0E94391FE0EEEF
:103D9000F0E0808181608083E8EDF0E080818F77C2
:103DA000808319BCA7EDB0E08C918E7F8C938081CD
:103DB0008F7E808310925D0208950F931F93CF939F
:103DC000DF930E94311F0E94391FC8EDD0E0888127
:103DD0008F77888388818068888388818F7D8883B6
:103DE00019BC10925E0210925A0210925C0210925C
:103DF0005B0200EE10E0F80180818B7F8083888178
:103E00008160888342E060E080E00E943C1EE1EE39
:103E1000F0E080818E7F8083E2EEF0E0808181603F
:103E20008083808188608083F80180818E7F808399
:103E3000888180618883DF91CF911F910F910895D0
:103E4000E8EDF0E080818F7E8083E7EDF0E0808117
:103E50008160808384E082BF81E080935D020C9466
:103E6000DD1EE8EDF0E080818E7F80831092E2001D
:103E700008951092DA001092E10008951F920F92B7
:103E80000FB60F9211242F933F934F935F936F932D
:103E90007F938F939F93AF93BF93EF93FF93809103
:103EA000E10082FF0BC08091E20082FF07C0809199
:103EB000E1008B7F8093E1000E94B4218091DA00C1
:103EC00080FF1FC08091D80080FF1BC08091DA0066
:103ED0008E7F8093DA008091D90080FF0DC080E151
:103EE00089BD82E189BD09B400FEFDCF81E08093E8
:103EF0005E020E94181B05C019BC10925E020E944F
:103F0000261B8091E10080FF19C08091E20080FFB4
:103F100015C08091E2008E7F8093E2008091E200E4
:103F200080618093E2008091D80080628093D80005
:103F300019BC85E080935E020E942A1B8091E100FB
:103F400084FF30C08091E20084FF2CC080E189BDF5
:103F500082E189BD09B400FEFDCF8091D8008F7D3C
:103F60008093D8008091E1008F7E8093E100809162
:103F7000E2008F7E8093E2008091E2008160809376
:103F8000E20080915A02882311F084E007C08091FA
:103F9000E30087FD02C081E001C083E080935E0200
:103FA0000E942B1B8091E10083FF29C08091E200D9
:103FB00083FF25C08091E100877F8093E10082E04C
:103FC00080935E0210925A028091E1008E7F80936E
:103FD000E1008091E2008E7F8093E2008091E20018
:103FE00080618093E20042E060E080E00E943C1E3D
:103FF0008091F00088608093F0000E94291BFF915F
:10400000EF91BF91AF919F918F917F916F915F9150
:104010004F913F912F910F900FBE0F901F901895C9
:104020001F920F920FB60F9211242F933F934F932D
:104030005F936F937F938F939F93AF93BF93CF9330
:10404000DF93EF93FF93C091E900CF708091EC0074
:10405000D82FD17080FDD0E81092E9008091F00057
:10406000877F8093F00078940E9454201092E9009A
:104070008091F00088608093F000CD2BCF70C093CA
:10408000E900FF91EF91DF91CF91BF91AF919F91A7
:104090008F917F916F915F914F913F912F910F90F1
:1040A0000FBE0F901F9018951F93CF93DF93CDB73E
:1040B000DEB7AA970FB6F894DEBF0FBECDBFEFE50F
:1040C000F2E08091F100819322E0E736F207C9F730
:1040D0000E94401B8091E80083FF2EC180915F0207
:1040E00090916002492F50E04A30510508F024C1F8
:1040F000FA01E957FF4F0C94D021803821F0823823
:1041000009F01AC108C080915B0290915C0299236A
:1041100089F082600FC0809163028F70873008F051
:104120000BC18093E9008091EB0085FB882780F923
:104130001092E9009091E800977F9093E8008093B7
:10414000F1001092F100D1C0282F2D7F09F0F4C0AA
:10415000882319F0823061F0EFC0809161028130D4
:1041600009F0EAC0933009F080E080935C022EC031
:104170008091610281112AC0809163028F702FEFBC
:10418000280F263008F0D8C08093E9002091EB007A
:1041900020FF1CC0933021F48091EB00806214C09A
:1041A0009091EB0090619093EB0021E030E0A90149
:1041B00002C0440F551F8A95E2F74093EA0010921F
:1041C000EA008091EB0088608093EB001092E90098
:1041D0008091E800877F8093E8000E94711EACC048
:1041E0008111AAC0109161021F778091E30080784D
:1041F000812B8093E3008091E800877F8093E80023
:104200000E94711E8091E80080FFFCCF8091E30046
:1042100080688093E300111102C082E001C083E056
:1042200080935E0289C08058823008F085C08091FA
:104230006102909162028C3D53E0950779F583E02D
:104240008A838AE289834FB7F894DE01139620E0CF
:104250003EE051E2E32FF0E050935700E49120FF5D
:1042600003C0E295EF703F5FEF708E2F90E0EA3071
:1042700010F0C79601C0C0968D939D932F5F243197
:1042800049F74FBF8091E800877F8093E8006AE29A
:1042900070E0CE0101960E947D1D16C06091630200
:1042A00070916402AE014F5F5F4F0E94791CBC01A8
:1042B000892B09F441C09091E800977F9093E80022
:1042C00089819A810E94DB1D8091E8008B77809321
:1042D000E80032C0803881F58091E800877F8093C4
:1042E000E80080915A028093F1008091E8008E7777
:1042F00072CF811121C08091610290916202992751
:104300000297D4F48091E800877F8093E800809141
:10431000610280935A020E94711E80915A0281119B
:1043200006C08091E30087FD02C081E001C084E007
:1043300080935E020E942C1B8091E80083FF0AC0DC
:104340008091E800877F8093E8008091EB00806295
:104350008093EB00AA960FB6F894DEBF0FBECDBFD8
:10436000DF91CF911F9108950895CF9380915E02C0
:104370008823A1F0C091E900CF709091EC00892FC3
:10438000817090FD80E8C82B1092E9008091E800D0
:1043900083FD0E945420CF70C093E900CF9108950F
:1043A000EE0FFF1F0590F491E02D099469279627E1
:1043B00069277827872778270895F999FECF92BD36
:1043C00081BDF89A992780B50895A8E1B0E042E050
:1043D00050E00C941122262FF999FECF92BD81BD99
:1043E000F89A019700B4021639F01FBA20BD0FB633
:1043F000F894FA9AF99A0FBE08950396272F0E940F
:10440000EC210E94EB21252F0E94EC21242F0C94FB
:10441000EC210196272F0E94EC210C94EB21DC016A
:10442000CB01FC01F999FECF06C0F2BDE1BDF89ABF
:10443000319600B40D9241505040B8F70895F89469
:02444000FFCFAC
:104442002902861AC41A891AC01ABC1A01E200E9A2
:1044520000EA00B500B600B700CD008301CC008AA7
:10446200019201940121022302240225022602273D
:10447200022A02B300B4006F007000818283F095BB
:104482009496973435366667F7F6F5F4F13037903F
:104492009192E200E900EA00B500B600B700CD0053
:1044A2008301CC008A019201940121022302240299
:1044B2002502260227022A02B300B4006F00700010
:1044C2008182834022321505C104E30466047F041D
:0244D2009F0445
:00000001FF
