:100000000C9419040C9460040C9460040C94600427
:100010000C9460040C9460040C9460040C946004D0
:100020000C9460040C9460040C94EC270C94282726
:100030000C94B2190C9460040C9460040C94600449
:100040000C9460040C9460040C9460040C946004A0
:100050000C9460040C9471190C9460040C9460046A
:100060000C9460040C9460040C9460040C94600480
:100070000C9460040C9460040C9460040C94600470
:100080000C9460040C9460040C9460040C94600460
:100090000C9460040C9460040C9460040C94600450
:1000A0000C9460040C9460040C946004B608B908C5
:1000B000F9081009180938093B098C09C2096C0AAA
:1000C0006C0AD109D309D809FE09210A240A270A92
:1000D0004B0AA00FA00FDA0FDA0F33104F10E51103
:1000E000E5115A10381149114911961B961BA91B8D
:1000F000A91B9F1BA91BA91BA91B961B961BA41B15
:10010000A91BA91BA41B3C2563250A2763250A27D5
:10011000AF25D2250A27C726D7261E0F0500047F44
:100120003F1F643214643214783C1E1E140A05000A
:1001300000000000000000000000000000000000BF
:1001400000000000000000000000000000000000AF
:100150000000007E0F00D4FFFFFFC7000000780002
:10016000000000000000002A2B2800000000000012
:100170000000000000000000000029000000002C2A
:100180001E3420212224342627252E362D373827C9
:100190001E1F202122232425263333362E37381FD5
:1001A0000405060708090A0B0C0D0E0F1011121397
:1001B0001415161718191A1B1C1D2F3130232D3535
:1001C0000405060708090A0B0C0D0E0F1011121377
:1001D0001415161718191A1B1C1D2F3130354C0019
:1001E00001010101010101010102020202020202F8
:1001F00002020303030303030303040404040404CB
:100200000405050505050606060606070707070790
:1002100008080808090909090A0A0A0B0B0B0C0C43
:100220000C0D0D0D0E0E0E0F0F0F101011111112DF
:100230001213131414151516161717181819191A5E
:100240001A1B1B1C1D1D1E1E1F20202122222324C1
:1002500024252626272829292A2B2C2D2D2E2F3000
:10026000313232333435363738393A3B3C3D3E3F14
:10027000404142434445464748494A4C4D4E4F5001
:10028000515354555658595A5B5D5E5F61626465BF
:100290006668696B6C6D6F7072737577787A7B7D49
:1002A0007E8082838587888A8C8E8F91939596989D
:1002B0009A9C9EA0A2A3A5A7A9ABADAFB1B3B5B7B9
:1002C000BABCBEC0C2C4C6C9CBCDCFD1D4D6D8DB90
:1002D000DDDFE2E4E7E9EBEEF0F3F5F8FAFDFFFF2E
:1002E000AA7F55402223252628292A2C2D2F30325B
:1002F000333536383A3B3D3E4042434547494A4C08
:100300004E5051535557595A5C5E60626466686935
:100310006B6D6F71737577797B7D7F81838587893D
:100320008A8C8E90929496989A9C9E9FA1A3A5A742
:10033000A8AAACAEAFB1B3B4B6B8B9BBBCBEBFC16E
:10034000C2C3C5C6C7C9CACBCCCDCED0D1D2D2D3F9
:10035000D4D5D6D7D7D8D9D9DADADBDBDBDCDCDC0D
:10036000DCDCDDDDDDDDDCDCDCDCDCDBDBDBDADAD0
:10037000D9D9D8D7D7D6D5D4D3D2D2D1D0CECDCC47
:10038000CBCAC9C7C6C5C3C2C1BFBEBCBBB9B8B65C
:10039000B4B3B1AFAEACAAA8A7A5A3A19F9E9C9AE7
:1003A00098969492908E8C8A89878583817F7D7BB5
:1003B00079777573716F6D6B6968666462605E5C96
:1003C0005A5957555351504E4C4A4947454342405C
:1003D0003E3D3B3A3836353332302F2D2C2A2928F2
:1003E000262523223A003B0029001E001F00200082
:1003F00021002200230024002500260027002D00D4
:100400002E002A004A003C003D002B0014001A0078
:100410000800150017001C0018000C001200130043
:100420002F00300031004B003E003F003900040037
:100430001600070009000A000B000D000E000F0057
:1004400033003400280000004E0040004100E1006D
:100450001D001B00060019000500110010003600E9
:1004600037003800E500000052004D004200430014
:10047000E000E300E200310000002C00000000007A
:100480000000E600E4005000350051004F0000007D
:10049000000000000000000000000000000000005C
:1004A000000000000000000000000000000000004C
:1004B000000000000000000000000000000000003C
:1004C000000000000000000000000000000000002C
:1004D000000000000000000000000000000000001C
:1004E000000000000000000000000000000000000C
:1004F00000000000000000000000000000000000FC
:1005000000000000000000000000000000000000EB
:1005100000000000000000000000000000000000DB
:1005200000000000000000000000000000000000CB
:1005300000000000000000000000000000000000BB
:1005400000000000000000000000000000000000AB
:10055000000000000000000000000000000000009B
:10056000000000000000000000000000000000008B
:10057000000000000000000000000000000000007B
:10058000000000000000000000000000000000006B
:10059000000000000000000000000000000000005B
:1005A000000000000000000000000000000000004B
:1005B000000000000000000000000000000000003B
:1005C000000000000000000000000000000000002B
:1005D000000000000000000000000000000000001B
:1005E000000000000000000000000000000000000B
:1005F00000000000000000000000000000000000FB
:1006000000000000000000000000000000000000EA
:1006100000000000000000000000000000000000DA
:1006200000000000000000000000000000000000CA
:1006300000000000000000000000000000000000BA
:1006400000000000000000000000000000000000AA
:10065000000000000000000000000000000000009A
:10066000000000000000000000000000000000008A
:10067000000000000000000000000000000000007A
:100680000000000000000000000000000501090259
:10069000A10185020901A100050919012908150018
:1006A000250195087501810205010930093115817F
:1006B000257F95027508810609381581257F9501EA
:1006C00075088106050C0A38021581257F9501758C
:1006D000088106C0C005010980A101850319012A0E
:1006E000B700150126B700950175108100C0050CF3
:1006F0000901A101850419012AA002150126A00201
:10070000950175108100C005010906A10185050547
:100710000719E029E71500250195087501810205F3
:1007200007190029EF1500250195F07501810205D3
:100730000819012905950575019102950175039127
:1007400001C00660FF0961A1010962150026FF00D2
:100750009520750881020963150026FF0095207514
:10076000089102C005010906A101050719E029E762
:100770001500250195087501810295017508810113
:100780000507190029FF150026FF00950675088149
:100790000005081901290595057501910295017556
:1007A000039101C009025B00030100A0FA090400E3
:1007B000000103010100092111010001224000078D
:1007C00005810308000A0904010002030000000972
:1007D00021110100012222000705820320000107E8
:1007E00005030320000109040200010300000009C1
:1007F000211101000122B6000705840320000A121E
:10080000011001000000085A44101001000102000C
:10081000010A0342004F004300430000000E03445E
:10082000005A0074006500630068000000040309BA
:10083000040011241FBECFEFDAE0DEBFCDBF04B647
:1008400003FE27C080917E0390917F03A0918003D7
:10085000B09181038730904BA740B04BD1F41092F8
:100860007E0310927F03109280031092810314BEC6
:1008700084B7877F84BF0FB6F894A89580916000F5
:10088000886180936000109260000FBEE0E0F8E3A2
:10089000099511E0A0E0B1E0E8E6F9E502C00590B5
:1008A0000D92AE39B107D9F723E0AEE9B1E001C04E
:1008B0001D92AE37B207E1F70E9462040C94B22C8D
:1008C0000C940000CF93DF93CDB7DEB7E2970FB65D
:1008D000F894DEBF0FBECDBF84B7877F84BF0FB64D
:1008E000F894A895809160008861809360001092D0
:1008F00060000FBE90E080E80FB6F894809361002E
:10090000909361000FBE85B7806885BF85B780680A
:1009100085BF81EB98E190939F0180939E010E9497
:100920006C270E948B278091E20084608093E20014
:100930007894809170038823A1F01091E9001F70D2
:100940009091EC00892F817090FD80E8182B109217
:10095000E9008091E80083FD0E9456241F701093E7
:10096000E90082E084BD93E095BD9AEF97BD809346
:100970006E0080E30E94281681E30E94281682E31D
:100980000E94281683E30E94281680EF0E942816F2
:1009900002E211E0A3E3EA2EA1E0FA2ED8018D9144
:1009A0008D010E942816E016F106C1F7E2EAF1E097
:1009B00086EB91E0ACEEB1E011921192119211929E
:1009C0001D921D921D921D928E179F07A9F780E020
:1009D00090E00E949A2B8A3E9E4F11F00E94491A85
:1009E00082E090E00E948C2B8093CF010E94381A05
:1009F0009093A1018093A0010E943F16EFE3FCE9D0
:100A00003197F1F700C000000E943F168091EC0181
:100A100080FF17C06FEF83E290E00E94A02B6FEF82
:100A200084E290E00E94A02B6FEF85E290E00E94AC
:100A3000A02B6FEF7FEF80E090E00E94BE2B0E9422
:100A40004D1983E090E00E948C2B682F70E080E0CD
:100A500090E00E94711C279A2F988AE08093800072
:100A600089E1809381008FEF9FEF909387008093BF
:100A700086000E945D216E9A83E290E00E948C2B9A
:100A8000813281F484E290E00E948C2B873051F413
:100A900085E290E00E948C2B91E0883209F090E092
:100AA000892F01C080E080FD1DC060E087E290E0FA
:100AB0000E94A02B60E086E290E00E94A02B0E94A2
:100AC00073200E94632061E283E290E00E94A02BE9
:100AD00067E084E290E00E94A02B68E285E290E06B
:100AE0000E94A02B0E945D218091B601811136C029
:100AF00080E090E00E949A2B8A3E9E4F21F00E9457
:100B0000491A0E94001388E090E00E94942B6093A1
:100B1000E7017093E8018093E9019093EA016E7F09
:100B200071F40E94001388E090E00E94942B60937F
:100B3000E7017093E8018093E9019093EA010E9434
:100B4000B9121092E6018091E70180FF04C060E0D5
:100B500086950E949C1481E08093B60184E091E028
:100B60009093B8018093B701F8E1CF2ED12C8E017C
:100B70000F5F1F4F1E0120E1220E311C8091700378
:100B8000853009F085C0BB24B39470E1E72EE2E123
:100B9000FE2E80917003853009F061C08091700352
:100BA000843009F444C080E00E94DA2080E00E9492
:100BB000A8181092E6018091BB01811116C0B09275
:100BC000BB018091E701982F91709093BA018E7FBD
:100BD0008093E7013FEF40E752E031504040504002
:100BE000E1F700C000000E94B9211092B90180E431
:100BF0000FB6F894A895C09260000FBE8093600075
:100C000083B7817F846083BF83B7816083BF78941B
:100C1000889583B78E7F83BF0FB6F894A89580918F
:100C20006000886180936000109260000FBE809128
:100C30006F03882309F4ADCF0E943F16ECEEF1E07C
:100C400081919191A191B191892B8A2B8B2B09F0E4
:100C50006DC4A0E0B2E0AE17BF0791F79ACF0E9433
:100C6000A01E0E945D210E94E41F0E94A8181092FD
:100C7000BB018091BA01882349F08091E70181602E
:100C80008093E70160E086950E949C140E94A32156
:100C90000E943F16882359F08FB7F89440910002C4
:100CA0005091010260910202709103028FBFA0ED8A
:100CB000B1E0ECEEF1E0E12CF12C9E2D4190519051
:100CC000619071904D915D916D917D914A015B01B3
:100CD00084249524A624B7248FA698AAA9AABAAAE0
:100CE00089288A288B2809F446C080E0812C912C21
:100CF000540183942FA538A949A95AA9282139213B
:100D00004A215B21232B242B252B69F189A39AA34C
:100D1000482059206A207B2081E045284628472822
:100D200009F480E08BA30E94A6198160782F9DA30F
:100D30008CA349A15AA16BA18DA10E941A1FF70192
:100D4000EE0FFF1FEE0FFF1FE053FE4F80819181DA
:100D5000A281B38188269926AA26BB268082918209
:100D6000A282B38220C08F5F880C991CAA1CBB1C76
:100D7000813109F0BFCF3FEFE31AF30A45E0E416F3
:100D8000F10409F09ACF8FEF8EA38FA318A60E94CB
:100D9000A6198160782F9AA789A74EA15FA168A59F
:100DA0008AA50E941A1F8091E601882309F4AAC02F
:100DB0008091E501E091E701E695E81BE093BE0133
:100DC000823059F4F0E0E55DFE4FE491EE2EF12C17
:100DD00036E0A32E3FE1B32E70C0863059F4F0E028
:100DE000E85DFE4FE491EE2EF12C26EFA22E2EE1CF
:100DF000B22E63C0893061F4E695F0E0EB5DFE4F02
:100E0000E491EE2EF12C9EE0A92E94E2B92E55C06D
:100E10008F3061F4E695F0E0EE5DFE4FE491EE2E4A
:100E2000F12C81EAA82E83E2B82E47C0853159F40F
:100E3000F0E0E15EFE4FE491EE2EF12CB3E5AB2E37
:100E4000B3E2BB2E3AC08831F9F0833249F4EDE1C8
:100E5000F1E0E590F490A6EBAA2EAEE1BA2E2DC0FB
:100E60008432D1F0853209F58E2F63E00E94472C41
:100E7000E92FF0E0E65EFE4FE491EE2EF12CFFEE5E
:100E8000AF2EF1E2BF2E19C078E2E72EF12CEAEC8A
:100E9000AE2EE2E2BE2E11C054EFE52EFF24F394F5
:100EA00060E9A62E62E2B62E08C030EDE32E37E0F0
:100EB000F32E45EBA42E4EE1B42E8091BF01882382
:100EC00061F01092BF010E94A6199093BD0180931A
:100ED000BC011092C1011092C0010E94A619E091BC
:100EE000BC01F091BD018E1B9F0B8F3F9F4750F4BB
:100EF000EE0EFF1EF092BD01E092BC018CEB91E082
:100F0000F501099586E0E8ECF1E0D80101900D9239
:100F10008A95E1F7A090CA01B090CB01E090CC0196
:100F2000F090CD011092CA011092CB011092CC0129
:100F30001092CD01A11003C0BB2009F451C08091D3
:100F4000C6019091C7010E9497199C019091C5011B
:100F5000992309F401C32333310508F441C09F3FAD
:100F600019F09F5F9093C501AA2061F00E94AD1512
:100F70001A1414F491E001C09FEF899F802D112471
:100F80008093CA01BB2061F00E94AD151B1414F4BC
:100F900091E001C09FEF899F802D11248093CB01A8
:100FA0003091CA013323E1F02091CB012223C1F01B
:100FB00045EB3403C0011124992319F09093CA0121
:100FC00003C081E08093CA0155EB2503C0011124C1
:100FD000992319F09093CB0103C081E08093CB015A
:100FE000E11003C0FF2009F451C08091C30190912A
:100FF000C4010E9497199C019091C201992309F4A0
:10100000B0C22536310508F441C09F3F19F09F5FFB
:101010009093C201EE2061F00E948B151E1414F40F
:1010200091E001C09FEF899F802D11248093CC0116
:10103000FF2061F00E948B151F1414F491E001C091
:101040009FEF899F802D11248093CD013091CC0199
:101050003323E1F02091CD012223C1F045EB34038D
:10106000C0011124992319F09093CC0103C081E0B1
:101070008093CC0155EB2503C0011124992319F06D
:101080009093CD0103C081E08093CD018091CA018E
:1010900081110BC08091CB01811107C08091CC01DF
:1010A000811103C08091CD0181110E94EA14AB82AD
:1010B000BC82ED82FE8286E0F801A8ECB1E00190EE
:1010C0000D928A95E1F70E94E41F9091CE01891755
:1010D00031F00E94E41F8093CE010E94A8188091F5
:1010E0007003843009F04ACD83E08093E900809159
:1010F000E80082FF43CD8091E80085FF21C00E9477
:10110000C12881111BC020E2A22EB12C780109C098
:101110008091F100D7018D937D01B1E0AB1AB10848
:1011200069F08091E80085FDF3CF8091E8008B772E
:101130008093E8000E94C128882399F391E001C0C0
:1011400090E08091E8008B778093E800992309F480
:1011500015CDE9818E2F90E0FC013197E331F10547
:1011600008F0BAC1EA5AFF4F0C94892C1A8289E020
:101170001DC18A81823099F0833051F1813009F0AC
:10118000ABC12FB7F8948091000290910102A09119
:101190000202B09103022FBFBB83AC8346C086E23C
:1011A00090E00E948C2BF82E87E290E00E948C2B1E
:1011B0004F2D50E060E070E0762F652F542F4427CC
:1011C0004A015B01882AD501C4011B821C822DC003
:1011D000F8012CEE31E0D9014D915D916D917D9139
:1011E0009D016283538344833396E215F30599F797
:1011F00075C18A81823009F06FC16B817C818D81DC
:101200009E810E948F2C4B015C0187E290E00E943E
:10121000A02B99278B2D7A2D692D86E290E025C091
:101220004C816B818A810E94A7209D838E8356C149
:10123000ED80FE80FE24EF24FE248C81AB809A8119
:10124000B2E2AB9E50011124EAEA9E9FA00CB11CB1
:101250001124A80EB11CA80EB11C6F2DC5018896D3
:101260000E94A02B6E2DC50189960E94A02B36C12D
:101270000E94732033C18A81893061F48B81F5E04B
:101280008F9FC00111246FEF70E00E94612C862FA8
:101290000E9444218A818138B1F050F4803809F0ED
:1012A0001DC120E04B816091E9018091E80131C0CE
:1012B000823859F1833809F011C120E04091EA01E8
:1012C0006C818B8126C060E08B810E949C149B8185
:1012D0008091E701911111C08E7F8093E7011092F8
:1012E000E6012FEF30E742E0215030404040E1F787
:1012F00000C000000E94B921F1C081608093E70125
:1013000060E086950E949C14E9C08B818093EB017C
:10131000E5C00E94BF13E2C08A81893021F08A3083
:1013200089F41B82DBC08091E401869586958695C1
:101330005FEF859FC001112465E070E00E94612C81
:101340006B83CCC0813899F030F4803809F0C6C086
:101350008091EA012BC0823891F0833809F0BEC039
:101360008091E8018B838091E9018C83B7C08091E3
:10137000E70180FF02C0869519C080E017C0809108
:10138000EB0114C08091E4010E943F216091E701CC
:101390007091E8018091E9019091EA010E94CC12DC
:1013A0009DC080E152C081E08A8380E38B8396C038
:1013B000EA80FB80FE24EF24FE24AC80B12C48019F
:1013C000C70180539D4F9401201B310B2A153B050B
:1013D00008F084C0A0E3EA16A1E0FA0628F40E940F
:1013E0008C2BF401848303C0D40114961C92BFEFAC
:1013F000EB1AFB0AEFEF8E1A9E0AE2CFEA80FB801F
:10140000FE24EF24FE24AC80B12C4801C701805398
:101410009D4F9401201B310B2A153B0508F05EC03F
:10142000F0E3EF16F1E0FF0628F4D40114966C9176
:101430000E94A02BBFEFEB1AFB0AEFEF8E1A9E0A59
:10144000E5CF0E9463204AC084E08A8347C0EA80D7
:10145000FB80FE24EF24FE24AC80B12C4801C701A0
:1014600088969401201B310B2A153B05B8F5F8EA44
:10147000EF16F2E0FF0630F40E948C2BD401149694
:101480008C9302C0F4011482FFEFEF1AFF0A2FEFD2
:10149000821A920AE4CFEA80FB80FE24EF24FE2425
:1014A000AC80B12C4801C70188969401201B310BF8
:1014B0002A153B0598F438EAE31632E0F30628F4DF
:1014C000D40114966C910E94A02BBFEFEB1AFB0A7B
:1014D000EFEF8E1A9E0AE7CF8FEF8983809170031A
:1014E000843009F04BCB8091E9008F702091EC00A3
:1014F000922F917020FD90E8F92EF82A82E08093D7
:10150000E9008091E80080FF0CC040E050E060E21C
:1015100070E0C8010E94F4288091E8008E778093E3
:10152000E8008F2D8F708093E90028CBE9BCF9BCCF
:1015300009B400FEFDCF8091D8008F7D8093D80044
:101540008091E00082608093E0008091E00081FD66
:10155000FCCF0E94A01E1DCB2D32314008F001CDE2
:101560003FCD2D32314008F052CD90CD3F924F9279
:101570005F926F927F928F929F92AF92BF92CF9223
:10158000DF92EF92FF920F931F93CF93DF93CDB72C
:10159000DEB729970FB6F894DEBF0FBECDBFFC01B2
:1015A0008081918123813481232B31F09F3F31F45D
:1015B00091E08F3F19F403C091E001C090E090FDED
:1015C0006CC77F0185E0DE01119601900D928A952E
:1015D000E1F7F701228189819A81222349F00E9453
:1015E000371B182F682F89819A810E94D91B03C04D
:1015F0000E94AD1B182F69817A81812F0E94CD2016
:101600008C01F7018281882309F4F2C098012251EC
:101610003F452031310508F019C18FEF93E00E945A
:101620008C2B8111EFC0025130ED832E32E0932ECE
:10163000002379F08114F4E09F0609F4E3C0C401AB
:101640000E948C2B811101C001501FEF811A910A59
:10165000EFCF1E821F8218861986442443942AE005
:10166000322E84010F5F1F4FC4010E948C2B8E838A
:101670001F82882309F4C6C09FEF980F933060F44F
:101680008F834E8222E0820E911CC8010E948C2B17
:101690008887811102C0B6C048018E010A5F1F4FC2
:1016A000F80120812223E9F2213009F04CC0818128
:1016B000813049F46801F2E0CF0ED11CF80182813B
:1016C0000E94602A0AC0823051F46801F2E0CF0E15
:1016D000D11CF80182810E949C29860186C083303A
:1016E00049F46801F2E0CF0ED11CF80182810E941A
:1016F0003529F3CF843019F00F5F1F4F76C0F80102
:1017000022810E5F1F4F80E090E030E020533109CE
:101710002A30310568F4389EA001399E500D1124FD
:10172000C901840F951F0F5F1F4FF8012081EDCF76
:10173000009709F45AC0EFE9FFE03197F1F700C0D4
:1017400000000197F5CFE22FF0E0E15AFE4F5490F0
:10175000822F86958695869590E0FC01E15BFE4F91
:1017600064902770712C022E02C0759467940A94BD
:10177000E2F7F1E06F227724FC01E15CFE4FA490D8
:10178000B12C022E02C0B594A7940A94E2F731E07E
:10179000A322BB24FC01E15DFE4FC490D12C02C00A
:1017A000D594C7942A95E2F781E0C822DD2461141C
:1017B000710419F081EE0E949C29A114B10419F062
:1017C00086EE0E949C29852D0E94602AAB2819F084
:1017D00086EE0E943529672819F081EE0E9435298E
:1017E000CD2819F08CE20E94602A0F5F1F4F58CF5E
:1017F0000031EFE51E0709F047C681E00E940E1C8C
:101800000E94382480919902877009F446C6F70136
:101810008281882309F441C682E029960FB6F894A4
:10182000DEBF0FBECDBFDF91CF911F910F91FF9013
:10183000EF90DF90CF90BF90AF909F908F907F9070
:101840006F905F904F903F900C94331C00313FE5B8
:10185000130711F481E005C001319FE5190721F458
:1018600082E00E94501CCCCF0D3BFCE51F0781F4A9
:101870008091E401982F969596959695C9F1915E81
:10188000990F990F990F8770892B8093E40124C0D9
:101890000E3B2CE5120708F43EC00F3BECE51E079B
:1018A00069F108F4D4C5003C2CE5120709F045C0E5
:1018B0009091E401892F8695869586958F5F8F712B
:1018C000863008F0DDC5880F880F880F9770892B48
:1018D0008093E4018091E401887F91E009F490E035
:1018E0008091E40190FB80F98093E4010E943F2104
:1018F0008091E4018695869586950AC08091E401E1
:1019000080FF9AC58E7F8093E4010E943F2180E092
:101910000E94DA2077CF0B3B3CE5130711F485E0FA
:1019200005C00C3B9CE5190741F480E00E9444216E
:101930008091E4010E943F2165CF033FFCE51F0732
:1019400099F406E221EE40EE63EF7CE509C0073D25
:10195000ECE51E0711F506E221EE41EE67ED7CE5B0
:10196000C7010E94F01F4ECF043F2CE5120708F07C
:101970003FC1083D3CE5130731F407E225EE45EE93
:1019800068ED7CE5EDCF093D9CE5190701F708E21C
:1019900021E045EE69ED7CE5E3CF882309F45DC1E4
:1019A0001092040202309CE5190708F440C1063188
:1019B000ECE51E0730F0C8018A5F9C45099708F0E6
:1019C00036C10E94381A9093A1018093A001003182
:1019D000FCE51F0709F4C3C008F041C008303CE52E
:1019E000130709F49AC0F0F404309CE5190709F4D0
:1019F00087C068F40230FCE51F0709F477C00330A4
:101A00001C4509F0E5C08091A001826076C00630D7
:101A10003CE5130709F46EC008F07BC08091A0017B
:101A200088606BC00C309CE5190709F485C068F428
:101A30000A30FCE51F0709F474C008F079C00E9461
:101A4000A01E8091A001806858C00E303CE51307AD
:101A500009F476C008F07FC08091A0018BC00B3FD5
:101A60009CE5190709F44FC018F50331FCE51F0781
:101A700009F47DC078F401313CE5130709F473C023
:101A800002311C4509F0A4C00E94A01E8091A00153
:101A90008F7733C005319CE5190709F472C008F44B
:101AA00086C00A3F1C4509F093C08091A1013EC049
:101AB0000F3F2CE5120709F45FC058F40D3F8CE589
:101AC000180709F444C008F43FC08091A101826066
:101AD0002DC00130EDE51E0709F475C008F45DC0A6
:101AE00002301D4509F074C060E06EC08091A00115
:101AF000816003C08091A00180618093A00168C0D3
:101B00008091A00111C08091A10182608093A10108
:101B10005FC08091A0018062F0CF8091A0018064BD
:101B2000ECCF8091A00188608460E7CF8160EECF28
:101B30008091A0018E7FE1CF8091A0018D7FDDCFCC
:101B40008091A001877FD9CF8091A10118C0809199
:101B5000A1018D7FDBCF8091A0018F7ECECF8091C0
:101B6000A0018F7DCACF8091A0018F7BC6CF8091CD
:101B7000A001877F8B7FC1CF8091A1018D7F8E7F58
:101B8000C5CF8091A00182FB222720F991E0922706
:101B900090FB82F990FB83F9B0CF8091A101982F3F
:101BA000909591708E7F892B90FB81F9AFCF0E9429
:101BB000A01E8091A00187FB222720F991E09227A7
:101BC00090FB87F99ACF61E08EE090E00E94A02B15
:101BD0006091A0011091A10184E090E00E94A02BEF
:101BE000612F82E290E00E94A02B0E94A01E0ACEEC
:101BF000053FFCE51F0731F406E221EE42EE65EFFA
:101C00007CE5AECE053F2CE5120730F407E225EE69
:101C100044EE64EF7CE5A4CE063F3CE5130709F0F3
:101C2000BCCE07E225EE46EE66EF7CE599CE8091CC
:101C30009C0206319CE5190709F58A7A91E009F4BE
:101C400090E090930502882311F065E301C069E2FA
:101C500089E092E00E94031A0EC006311C4509F08B
:101C600029C180910502882309F415C465E389E040
:101C700092E00E94DB190E94BA1AC4CD82720C3C19
:101C80003CE5130709F4C4C008F045C0063CECE588
:101C90001E0709F4A9C0D8F4033C2CE5120709F487
:101CA00099C030F4023C8CE5180709F46EC0D1C02D
:101CB000043C9CE5190709F492C0053CECE51E07BD
:101CC00009F0C7C04AE854E163E974E1A5C0093CE2
:101CD000FCE51F0709F492C078F4073C3CE51307C4
:101CE00009F487C0083C9CE5190709F0B2C04EE72B
:101CF00054E162E774E190C00A3CECE51E0709F488
:101D000082C00B3CFCE51F0709F0A3C04EED52E179
:101D10006FEE72E181C0013D2CE5120709F488C025
:101D2000A0F40E3C8CE5180709F47CC008F477C0D9
:101D30000F3CECE51E0709F478C0003DFCE51F07E9
:101D400009F087C06EE089E081C0043D2CE51207F0
:101D500009F474C068F4023D8CE5180709F46BC0FF
:101D6000033D9CE5190709F074C061E088E16BC090
:101D7000053DECE51E0709F464C00D35FDE51F07C0
:101D800009F067C06AE285E261C08091E70180FFE7
:101D90001BC08E7F8093E7016091E7017091E8019D
:101DA0008091E9019091EA010E94CC121092E60123
:101DB0000FEF10E722E0015010402040E1F700C093
:101DC00000000E94B9211ECD81608093E70161E08F
:101DD000869539C047ED54E160EE74E11DC040EED8
:101DE00054E167ED74E118C043E954E16AE874E135
:101DF00013C042E754E16EE774E10EC04AE554E1D6
:101E000066E674E109C046E654E16AE574E104C09F
:101E10004FEE52E16EED72E10E949D21F3CC61E044
:101E200081E011C065E082E011C068E086E00EC08C
:101E300064E18FE00BC067E185E108C062E289E1FF
:101E400005C061E083E20E949C14DCCC0E948B21DF
:101E5000D9CC0A353DE5130741F150F401159CE555
:101E60001907A9F00E3D1C4529F50E94491ACACC54
:101E70000B35FDE51F07D9F00C351D45D9F48091D0
:101E8000A10182FB882780F991E0892711C00E9477
:101E9000A01E3FEF84E39CE0315080409040E1F78A
:101EA00000C000000E944D19ADCC81E001C080E06F
:101EB0000E941D1BF701828100811181882349F056
:101EC000C8010E94371BD82E682FC8010E94D91B59
:101ED00004C0C8010E94AD1BD82EB8018D2D0E94F0
:101EE00019178C01982EF701D280A580A2949FE04B
:101EF000A92280919902877099F0DD2089F0812FC5
:101F0000807F803421F080E2800F883048F082E0CA
:101F10000E94331C809199028770CC24C394811154
:101F2000C12CB12EB2948FE0B8228B2D90E08C3072
:101F3000910508F04AC2FC01E759FF4F0C94892C27
:101F4000812F807F1F70882311F01295107FDD2074
:101F5000B9F0112309F424C280E2800F883010F018
:101F6000911006C080919C02182B10939C0205C012
:101F700080919B02182B10939B020E94BA1A10C2E8
:101F8000802F0E943529112309F41FC2005E10958D
:101F9000083010F0911006C080919C021823109315
:101FA0009C0205C080919B02182310939B020E9403
:101FB000BA1A0BC2812F807F1F70803211F01295E8
:101FC000107F992021F0F1E09F1611F130C0DD2043
:101FD000B1F0AA2081F001E0A0120DC08091A10112
:101FE00082FDF3C180919D02182B181709F4EDC1F1
:101FF00010939D02EAC180919D02812B10C0AA20FE
:1020000021F021E0A21609F4E0C10E94B41A27C011
:10201000DD2041F035E03A1508F4D7C1812F0E9448
:102020002B29D3C184E08A1508F4CFC118C0DD2064
:1020300049F0AA2099F3F701858180FFB1C18F7023
:102040008583ECCFAA2059F0093309F0BBC1FFEF1B
:1020500017EE23E0F15010402040E1F7B1C1812F8D
:102060000E942029B2C1812F86958695837019F030
:10207000813059F0AAC1DD2019F0C801937002C067
:1020800080E090E00E94CE1FA8C1DD2019F0C801B9
:10209000937002C080E090E00E94B81F9EC1802F24
:1020A000DD2019F00E94CD1502C00E9414150E9477
:1020B000EA1493C1812F837009F069C0D11089C1DE
:1020C000902F929596959770990F990F802F8F70FA
:1020D000882E912CA12CB12C092E04C0880C991C9F
:1020E000AA1CBB1C0A94D2F704FF12C04FE050E0B8
:1020F00060E070E004C0440F551F661F771F9A957B
:10210000D2F7DB01CA0180959095A095B09503C0E8
:1021100080E090E0DC0116951695412F4370423027
:1021200019F1C8F400919E0210919F022091A00223
:102130003091A102413059F088299929AA29BB2957
:10214000BC01CD0160237123822393230AC0802A1E
:10215000912AA22AB32ABC01CD01682979298A29AA
:102160009B290E94711C35C188299929AA29BB295C
:1021700000919E0210919F022091A0023091A10235
:10218000BC01CD016027712782279327EACFDD208C
:1021900019F0812F817001C08695882309F419C137
:1021A000902F929596959770990F990F802F8F7019
:1021B000882E912CA12CB12C092E04C0880C991CBE
:1021C000AA1CBB1C0A94D2F704FF12C04FE050E0D7
:1021D00060E070E004C0440F551F661F771F9A959A
:1021E000D2F7DB01CA0180959095A095B09503C008
:1021F00080E090E0DC0116951695412F4370423047
:10220000D9F068F500917A0310917B0320917C034B
:1022100030917D03413059F088299929AA29BB2999
:10222000BC01CD0160237123822393231EC0802A29
:10223000912AA22AB32A13C088299929AA29BB293D
:1022400000917A0310917B0320917C0330917D03F0
:10225000BC01CD01602771278227932706C0BC01EE
:10226000CD01682979298A299B290E94041CB1C0C3
:102270001F70DD2039F0812F0E94501C802F0E949A
:102280002B29A7C0802F0E942029812F0E940E1C7D
:10229000A0C0802F32EF931609F440C0391538F0F2
:1022A00090EF991661F0E1EF9E1699F174C0F3EF8B
:1022B0009F16D9F124EF921609F44EC06CC0DD20B0
:1022C00019F134E03A1508F480C01F7181E090E004
:1022D000A0E0B0E0AC01BD0104C0440F551F661F73
:1022E000771F1A95D2F780917A0390917B03A09182
:1022F0007C03B0917D038A019B01082719272A27B7
:102300003B27C901B80125C025E02A1508F45DC0A6
:10231000DCCFDD2029F0812F8F7130C0DD20D9F393
:10232000812F8F710E940E1C50C0DD2079F01F712B
:1023300081E090E0A0E0B0E0BC01CD0104C0660FF8
:10234000771F881F991F1A95D2F703C060E070E0CD
:10235000CB010E94041C39C0DD2099F01F71812F30
:102360000E94501C8091A10182FD07C038E0139F9C
:10237000C0011124836080939902812F0E94501C18
:1023800024C081E00E94331C81E08A15F0F482E0D1
:102390000E94331C1AC0DD2039F0AA2009F4BBCFFB
:1023A000802F0E949C2911C0AA2009F4B9CF89333B
:1023B00049F49FEFE7EEF3E09150E040F040E1F7A1
:1023C00000C00000802F0E94352988EF8B0D8430DB
:1023D00020F40E94E41F0E94A818CC2009F45DC0DC
:1023E0008091990280FD59C0F701128285958595EB
:1023F00085950E94501CC7010E94B60A80919902DF
:1024000085958595859529960FB6F894DEBF0FBE04
:10241000CDBFDF91CF911F910F91FF90EF90DF9093
:10242000CF90BF90AF909F908F907F906F905F9074
:102430004F903F900C940E1C81608093E40181309A
:1024400019F489E08093E4018091E4014FCA20915E
:10245000E401822F869586958695482F50E0453079
:10246000510554F48F5F982F990F990F990F822F70
:102470008770892B8093E4018091E401816034CAE4
:1024800097709093E40126CA0131FFE51F0709F018
:1024900054CA82E0B3C969E2EACB29960FB6F89430
:1024A000DEBF0FBECDBFDF91CF911F910F91FF9087
:1024B000EF90DF90CF90BF90AF909F908F907F90E4
:1024C0006F905F904F903F9008959091A00192FF80
:1024D0000DC0282F2871283019F4877F846006C02A
:1024E000282F2471243011F48B7F886093FF0DC056
:1024F000282F2871283119F4877E846106C0282F7F
:102500002471243111F48B7E88612091A10120FF78
:102510000DC0382F3871383019F4877F816006C0BC
:10252000382F3171313011F48E7F886021FF0DC05A
:10253000282F2871283119F4877E816106C0282F41
:102540002171213111F48E7E886194FD877E08957A
:102550009091E70190FF0CC0E5EAF2E0818360838F
:102560004283339692E0E13EF907C1F70C94B9211A
:1025700008958091E701282F269530E02115310537
:1025800019F48170826005C02B32310524F081700E
:1025900084658093E7010895CF92DF92EF92FF92D6
:1025A0006B017C010E94B912B701A60188E090E09E
:1025B000FF90EF90DF90CF900C94B22B8091EB01C5
:1025C000882319F081508093EB016091E7017091AD
:1025D000E8018091E9019091EA010C94CC1280917C
:1025E000EB01833018F48F5F8093EB016091E7017A
:1025F0007091E8018091E9019091EA010C94CC126C
:10260000E7EEF1E083E0808311828FEF82838383A2
:10261000148260817181828193810C94CC12AF927B
:10262000BF92CF92DF92EF92FF920F931F93CF93BF
:10263000DF93E82EF62EE901E42FF0E0611106C0E9
:10264000E152FE4FE4914E2F2E2F71C0062F10E065
:10265000E152FE4F4491F42FC42ED12C26E0829FEC
:10266000C00111242FEF30E0B9010E94612C5BEA18
:102670005603C001579F900D11248E0D911D8E0D94
:10268000911D582F550F580FD901A01BB10BAC9DB0
:10269000C001AD9D900DBC9D900D1124E92FF59EBC
:1026A000D0011124AB2FBB277901EA1AFB0AEC9C5D
:1026B000D001ED9CB00DFC9CB00D11245901A51A60
:1026C000B108A09E7001A19EF00CB09EF00C1124E8
:1026D000EF2CFF242E193F092C9D80012D9D100DFC
:1026E0003C9D100D1124212F6230710591F048F4AA
:1026F00061157105E1F061307105B9F4242F4B2F9C
:1027000016C06430710569F040F06630710579F0EB
:102710000CC0242F492FE12F0AC0492FEF2F2B2F58
:1027200006C0292FE42F412F02C0292FEB2F498308
:102730002883EA83DF91CF911F910F91FF90EF9053
:10274000DF90CF90BF90AF900895CF93DF9300D0EC
:102750001F92CDB7DEB79091E70190FF0AC09E01AE
:102760002F5F3F4F0E940F134B8169818A810E9426
:10277000A8120F900F900F90DF91CF9108955F9264
:102780006F927F928F929F92AF92BF92CF92DF9281
:10279000EF92FF920F931F93CF93DF9300D01F927E
:1027A000CDB7DEB7182F762E042F622E9091E70159
:1027B00090FF6DC0E92FE695AE2FB0E0AD5CBE4F47
:1027C0008C918093E5019E7F923061F49E012F5F92
:1027D0003F4F812F0E940F134B8169818A810E9494
:1027E000A81243C0823019F40091EA013EC086303D
:1027F00019F41091E80139C08930D9F38931A9F56C
:10280000E9518E2F8170582EE695F0E0E152FD4F90
:10281000A590B49085EAC82E82E0D82EE12CF12C48
:10282000BB2494E1892E912CAE9CC001AF9C900DED
:10283000BE9C900D1124B4010E94612C812F511077
:1028400002C0860F01C0861B9601402F672D0E9493
:102850000F138FEFE81AF80A83E0C80ED11C84E149
:10286000E816F10409F70E94B9211093E80170926B
:10287000E9010093EA01662051F06091E70170914F
:10288000E8018091E9019091EA010E94CC120F9039
:102890000F900F90DF91CF911F910F91FF90EF90CC
:1028A000DF90CF90BF90AF909F908F907F906F9070
:1028B0005F900895E7EEF1E0438128E0421B08F4C1
:1028C00040E021E0628181810C94BF13E7EEF1E0EA
:1028D000438128E0420F08F44FEF21E062818181BB
:1028E0000C94BF13E7EEF1E0628128E0621B08F46C
:1028F00060E021E0438181810C94BF13E7EEF1E0B9
:10290000628128E0620F08F46FEF21E0438181814A
:102910000C94BF13E7EEF1E0818121E043816281F5
:1029200088500C94BF13E7EEF1E0818121E04381F0
:102930006281885F0C94BF139091E70190FF36C0CD
:102940009170811102C0926006C08B3210F09465C4
:1029500002C0880F982B9093E701662351F0609195
:10296000E7017091E8018091E9019091EA010E94EC
:10297000CC126091E701669570E04BE050E08EE08C
:1029800091E00E94A52C892B19F01092E60102C05B
:102990000E94A32181E08093BF0120E04091EA01E1
:1029A0006091E9018091E8010C94BF130895809132
:1029B000E7018695815009F48AE261E00C949C1449
:1029C0008091E70186958F5F8B3208F081E061E0AE
:1029D0000C949C140E94A6192091CA01211104C0D4
:1029E0002091CB01222321F09093C7018093C6014F
:1029F0002091CC01211104C02091CD01222321F08E
:102A00009093C4018093C301E091B701F091B801A4
:102A1000309749F082E08093C8010480F581E02D71
:102A200088EC91E009940895803F39F49091CB01AE
:102A300097FF35C01092CB0159C0813F29F4909186
:102A4000CB011916BCF32BC09091CA01823F29F427
:102A500097FF25C01092CA0149C0833F19F4191687
:102A6000CCF31DC09091CC01893F29F41916BCF418
:102A70001092CC013BC08A3F19F497FF10C0F8CFE9
:102A80008B3F39F49091CD0197FF09C01092CD0191
:102A90002DC08C3F21F49091CD011916BCF39CE020
:102AA000980F953080F421E030E0A90102C0440F76
:102AB000551F9A95E2F7CA0180959091C901892323
:102AC0008093C90113C08D3F21F4809129028E7F2C
:102AD0000BC08E3F21F4809129028D7F05C08F3F6E
:102AE00029F4809129028B7F809329028091CA0169
:102AF000811106C08091CB01811102C01092C501E5
:102B00008091CC01811106C08091CD01811102C05C
:102B10001092C20108958091290280FD16C081FDA6
:102B200016C082FD18C08091C201882391F08832BE
:102B300090F428E0829FC001112468E270E00E94B6
:102B4000752C862F672B29F007C082E0089584E05A
:102B5000089581E0089588E008958091290280FD1C
:102B600014C081FD14C082FD16C08091C501882368
:102B700081F0843180F422E3829FC001112464E15A
:102B800070E00E94752C862F08958CE0089589E1ED
:102B9000089585E0089582E30895803F21F40E941E
:102BA000AD15819504C0813F29F40E94AD15809335
:102BB000CB010895823F21F40E94AD15819504C098
:102BC000833F29F40E94AD158093CA010895893F7F
:102BD00019F40E948B1505C08A3F31F40E948B15B1
:102BE00081958093CC0108958B3F21F40E948B1531
:102BF000819504C08C3F29F40E948B158093CD01F0
:102C000008959CE0980F953078F421E030E0A90118
:102C100002C0440F551F9A95E2F7CA019091C9016D
:102C2000892B8093C90108958D3F21F48091290259
:102C300081600BC08E3F21F480912902826005C023
:102C40008F3F29F48091290284608093290208959E
:102C5000F894E82FE295EF70F0E031A1282F2F7063
:102C600081E090E001C0880F2A95EAF7982F9095AF
:102C7000932391A392A1892B82A3789408953F92E4
:102C80004F925F926F927F928F929F92AF92BF927C
:102C9000CF92DF92EF92FF920F931F93CF93DF9328
:102CA00000D000D0CDB7DEB70DE111E082EAE82E0A
:102CB00081E0F82E96EBC92E91E0D92EFC82EB82B2
:102CC000312C812C912C540183941A830983D801CF
:102CD0008C91F894E82FE295EF70F0E021A18F70CD
:102CE00041E050E002C0440F551F8A95E2F7CA0147
:102CF000922F982B91A392A18095892382A37894F7
:102D000000C0E2E2F1E020E030E0412C512C320141
:102D10005191852F82958F7090E0DC0190968C9177
:102D200090E05F7002C0959587955A95E2F780FD17
:102D30000DC0D501C401022E04C0880F991FAA1F1F
:102D4000BB1F0A94D2F7AC01BD0103C040E050E0C4
:102D5000BA01442A552A662A772A2F5F3F4F21312C
:102D60003105B1F60F5F1F4FA981BA818C910E9486
:102D70002816B0EABA95F1F7EB81FC818081918148
:102D8000A281B381481659066A067B0631F040825B
:102D900051826282738281E001C080E0382AEB8137
:102DA000FC813496FC83EB83CE16DF0609F08DCFD1
:102DB000332049F081E0809308020E94A619909385
:102DC000070280930602809108028823D9F080913F
:102DD0000602909107020E949719069798F02CEE30
:102DE00031E0F70181919191A191B1917F01F901B8
:102DF00081939193A193B1939F01CE14DF0489F73E
:102E000010920802832D0F900F900F900F90DF917A
:102E1000CF911F910F91FF90EF90DF90CF90BF90D7
:102E2000AF909F908F907F906F905F904F903F906A
:102E30000895CF93DF930E94CD20EC018238910555
:102E400059F1A0F48133910509F473C040F489323B
:102E5000910509F467C08A9709F472C084C085336C
:102E6000910509F458C0C997B9F07DC0833E91051A
:102E700071F138F4803E9105B1F0823E910511F177
:102E800072C0863E9105B9F1873E9105C9F1843E35
:102E9000910509F068C024C08091A00180FD5DC04B
:102EA00081FD5BC060C08091A00180FD50C0809119
:102EB000A10180FF49C18091A00184FD43C1C3EEFF
:102EC000D0E042C18091A00182FF3EC1F4CF809149
:102ED000A00182FD3FC08091A10180FD3EC0EBCFEB
:102EE0008091A10181FF30C18091A00184FD2AC1A0
:102EF000C7EED0E029C18091A00183FF25C1F4CFA6
:102F00008091A00183FD2CC08091A10181FFECCFB5
:102F1000C4EED0E019C18091A00185FF15C1C9E2BE
:102F2000D0E012C18091A00185FF0EC1C5E3D0E0C1
:102F30000BC18091A00186FF07C1CAE2D0E004C1A5
:102F40008091A00186FF00C1C1E3D0E0FDC0C9E3CC
:102F5000D0E0FAC0C2EED0E0F7C0C0EED0E0F4C0DE
:102F6000C6EED0E0F1C0C11581E5D80708F066C013
:102F7000C11520E5D207E0F0CE0174E09695879563
:102F80007A95E1F783709C2F937021E030E002C0C6
:102F9000220F331F9A95E2F73C68382BCF70C69505
:102FA000C69540E2C49FE0011124C22BD32BCCC0B4
:102FB000C83ED10560F5C03ED10508F0C5C0C83A8D
:102FC000D105B0F4C53AD10540F0C55AD0E0C35997
:102FD000DE4FC881D0E0D064B7C0C130D10509F45C
:102FE000B3C008F4AFC0C430D10508F4ABC0ACC066
:102FF000CF3BD10508F0A6C0C85AD0E0CC0FDD1FEA
:10300000C059DE4F0990D881C02DD4649DC0C11530
:1030100040E2D40758F4C11581E0D80708F094C005
:10302000C03FD10508F48EC0D0658EC0C11520E424
:10303000D20708F487C0DF70D06A86C0C11545E5A5
:10304000D40708F042C0C11584E5D80728F0DC2F6A
:10305000CC27C46FD06A78C0C11523E5D207B0F081
:10306000CE018370992721E030E002C0220F331F88
:103070008A95E2F78C2F8695869540E2849FC00161
:103080001124E901C82BD92BDA685EC0C11542E5CD
:10309000D40728F4DC2FCC27C16FD06A55C0CE01ED
:1030A0008370992721E030E002C0220F331F8A95F8
:1030B000E2F78C2F8695869540E2849FC00111240B
:1030C000E901C82BD92BDC683FC0C11589E5D807B9
:1030D000B8F4C11528E5D20728F0DC2FCC27C06F43
:1030E000D06A32C0C11546E5D40760F58C2F0E9426
:1030F00065128F71C82FD0E0DC2FCC27D06224C09E
:10310000C1158AE5D80780F48C2F8F700E94651254
:1031100094E0D695C7959A95E1F7CF70D0E0DC2F73
:10312000CC27D069C82B10C0CE0190568115904293
:1031300048F48D2F8F710E946512DD27D0628F7148
:10314000D82B02C0C0E0D0E0CE01DF91CF9108952E
:1031500081FD02C0769A08957698089580914D0376
:10316000089580E00895CF93DF9300D01F92CDB7EC
:10317000DEB790917003943011F589837B836A8365
:103180009093E9008FEF9091E800815095FD06C083
:1031900095ED9A95F1F700008111F5CF8091E80047
:1031A00085FF0DC040E050E063E070E0CE01019685
:1031B0000E94F4288091E8008E778093E8000F90B9
:1031C0000F900F90DF91CF910895BC0184E00C9493
:1031D000B318BC0183E00C94B31824E02093E900F9
:1031E0002FEF3091E800215035FD06C035ED3A95BE
:1031F000F1F700002111F5CF2091E80025FF0BC069
:1032000040E050E066E070E00E94F4288091E80021
:103210008E778093E8000895CF93DF9320911C016F
:10322000222339F02091A00127FF03C060E224E0AF
:1032300002C068E021E02093E9002FEF3091E80020
:10324000215035FD06C035ED3A95F1F7000021110A
:10325000F5CF2091E80025FF1DC0EC0180911C01F5
:10326000811105C040E050E068E070E003C070E00C
:1032700040E050E0CE010E94F4288091E8008E7773
:103280008093E80080E2FE01AEE4B3E001900D928D
:103290008A95E1F7DF91CF91089581E08093E00076
:1032A00080E28093D8001092C9008FE19EE40197DC
:1032B000F1F700C0000087E090EBDC0180937E0313
:1032C00090937F03A0938003B09381039CE088E1F7
:1032D0000FB6F894A895809360000FBE909360009D
:1032E000FFCF78941F920F920FB60F9211248F93F5
:1032F0009F93AF93BF938091000290910102A091A0
:103300000202B09103020196A11DB11D809300023B
:1033100090930102A0930202B0930302BF91AF9178
:103320009F918F910F900FBE0F901F9018959C0149
:103330004FB7F8948091000290910102A09102028F
:10334000B09103024FBF821B930B08952FB7F894DF
:103350008091000290910102A0910202B0910302BB
:103360002FBF08951F920F920FB60F9211248F93C3
:103370009F93AF93BF938091B901811113C0809146
:10338000000290910102A0910202B09103024196C5
:10339000A11DB11D8093000290930102A09302022F
:1033A000B0930302BF91AF919F918F910F900FBE89
:1033B0000F901F90189520911C012223C9F0209195
:1033C000A00127FF15C0262F2695269526952E317C
:1033D000C8F4FC01E20FF11D677081E090E001C0CC
:1033E000880F6A95EAF780959281892382830895F0
:1033F000FC0106962281621301C012823196E81701
:10340000F907C1F7089520911C012223C1F02091F2
:10341000A00127FF14C0262F2695269526952E312C
:1034200030F5FC01E20FF11D677081E090E001C012
:10343000880F6A95EAF79281892B82830895FC01AF
:1034400032962FEF30E04191641789F02F3F19F445
:10345000411101C0232F3F5F3630A9F72F3F39F0CC
:10346000FC01E20FF11D27FDFA956283089508958E
:10347000CF9384E090E00E948C2BC82F82E290E0F2
:103480000E948C2B2C2F30E0A901582BCA01CF9120
:1034900008956AEE7EEF80E090E00E94BE2B60E02F
:1034A00082E090E00E94A02B60E083E090E00E9428
:1034B000A02B10929E0210929F021092A0021092D6
:1034C000A10260E084E090E00E94A02B60E082E234
:1034D00090E00E94A02B60E085E090E00E94A02B8D
:1034E00060E086E090E00E94A02B6FEF87E090E024
:1034F0000E94A02B40E050E0BA0188E090E00E94DA
:10350000B22B60E08DE090E00E94A02B40E050E004
:10351000BA0188E190E00E94B22B60E087E190E080
:103520000E94A02B40E050E0BA018CE190E00E94A4
:10353000B22B60E070E080E290E00E94BE2B40E0A1
:1035400050E0BA0188E190E00E94B22B40E050E0E8
:10355000BA018FE090E00E94B22B40E050E0BA0147
:1035600083E190E00C94B22B80919D028111109226
:103570009D02089590919C0280919B02892B20913D
:103580009A02982F922B9093090280919D02882392
:10359000D9F0892B8093090280911C01882331F096
:1035A0008091A00187FF02C08EE101C086E0EBE0C0
:1035B000F2E090E0815028F021912223D9F39F5F1F
:1035C000F9CF91110E94B41AE091B701F091B801BE
:1035D0003097A9F080911C01882359F08091A001B7
:1035E00087FF07C08091090280930A0285E08093DB
:1035F00009020280F381E02D89E092E009940895A8
:1036000080E090E00E94CE1F80E090E00E94B81F12
:1036100010929B0210929A020E94BA1AE8ECF1E012
:1036200086E0DF011D928A95E9F71092C50110929C
:10363000C201109229020C94EA14CF93C091A10107
:10364000C2FB992790F9981781F080FBC2F9C093CB
:10365000A1016091A00184E090E00E94A02B6C2F5A
:1036600082E290E0CF910C94A02BCF910895BF926D
:10367000CF92DF92EF92FF920F931F93CF93DF933E
:103680008C01C0907A03D0907B03E0907C03F09093
:103690007D0380919E0290919F02A091A002B09123
:1036A000A102C82AD92AEA2AFB2ACFE1D0E0D70111
:1036B000C6010C2E04C0B695A795979587950A94D8
:1036C000D2F780FD04C0219790F7B12C07C0BC2E23
:1036D000B8018C2F0E9419170197A9F38B2DDF9148
:1036E000CF911F910F91FF90EF90DF90CF90BF90FF
:1036F0000895CF93DF93EC010E94371BBE010E9417
:103700001917DF91CF9108950E94791B292F2F70EF
:10371000E92FE295EF704E2F50E0FA013297EE302C
:10372000F105B8F4EB58FF4F0C94892C803F99F0C9
:1037300018F4883E70F40FC0843F59F40CC0883EE2
:1037400050F0813F31F407C0822F8695869586958B
:10375000089580E0089581E0089521E1929F800D11
:103760001124682F669566956695982F977085E069
:10377000689FB001112440E050E080E0FB01E40FBD
:10378000F51FEE59FD4F208130E0092E02C036951D
:1037900027950A94E2F721703327042E01C0220FE7
:1037A0000A94EAF7822B4F5F5F4F4530510531F79E
:1037B000089521E1929F800D1124E82FE695E6956A
:1037C000E695877051E001C0550F8A95EAF785E0CC
:1037D000E89FF0011124EE59FD4F20E030E070E049
:1037E0004081CB01022E02C0969587950A94E2F79C
:1037F0008170819584278523842781932F5F3F4F94
:103800002530310569F7089560937A0370937B033F
:1038100080937C0390937D030C94001B0F931F9364
:1038200041E050E060E070E004C0440F551F661FA7
:10383000771F8A95D2F74095509560957095809145
:103840007A0390917B03A0917C03B0917D038A0160
:103850009B01082319232A233B23C901B8011F9187
:103860000F910C94041C20919902809582238093DF
:103870009902982F977041F430E0482F082E000CE1
:10388000550B2417350721F49091A10192FF07C031
:103890008595859585950E940E1C10929902089534
:1038A0000F931F9341E050E060E070E004C0440FCC
:1038B000551F661F771F8A95D2F780917A039091E2
:1038C0007B03A0917C03B0917D038A019B01082BAF
:1038D000192B2A2B3B2BC901B8011F910F910C9476
:1038E000041C60939E0270939F028093A0029093A9
:1038F000A1020C94001B8091610290913002891703
:1039000019F08F5F8770FBCF08950F931F93CF93AC
:10391000DF9380912F0282958F7009F05DC08091B6
:103920002C02882309F458C0809161021091300262
:1039300060912A0270912B02C0912D02D0912E022B
:1039400091E06F3F09F090E0292F06E0811709F41C
:1039500043C0209721F07F3F21F030E003C031E0E9
:1039600001C0322F90E030FD34C0089FF001099F64
:10397000F00D1124DF01AF5CBD4F11963C91119702
:10398000371327C03C91361324C012963C911297EE
:1039900031111FC013964D915C9114974C1B5D0B18
:1039A000483C5105B0F480912F028F708061809364
:1039B0002F02EA5CFD4F80818F70806180838AE2F4
:1039C00092E00E94B60ADF91CF911F910F910C9463
:1039D0007B1C01968770BACFDF91CF911F910F9119
:1039E00008959F92AF92BF92CF92DF92EF92FF9293
:1039F0000F931F93CF93DF93CDB7DEB761970FB6C9
:103A0000F894DEBF0FBECDBF8C0185E0F801DE016A
:103A10001D9601900D928A95E1F7F80190818181C0
:103A2000E28030912A0260912B0240912D02509148
:103A30002E024115510531F06F3F31F421E03F3F37
:103A400019F403C021E001C020E0F22FF1709F2E95
:103A500020FD23C1F801C380D4802AE2A22E22E0F7
:103A6000B22EF0902C02F601E41BF50BFF2009F4B6
:103A7000CEC020912F02E83CF10508F099C0422FFA
:103A8000407F09F051C0681311C039130FC0FE2CDC
:103A9000E1100CC02F70206120932F02C5010E94FD
:103AA000B60A80912F02F801858337C1CD2831F005
:103AB0008F3F31F421E09F3F19F403C021E001C0A2
:103AC00020E020FD03C021E02E2502C020E030E0F0
:103AD000F22FF170FF2E20FF1DC020916102409156
:103AE000300256E0241709F4F6C030E0529FF0018E
:103AF000539FF00D1124EF5CFD4F6181861306C0CA
:103B00006081961303C06281E61204C02F5F3F4FAD
:103B10002770E8CFFE2CEE2009F4FFC080912F0221
:103B2000816080932F0250C0681307C0391305C00D
:103B3000E11003C0F80125838DC09D878E878D8598
:103B40009E850E94841B882369F1EE2059F1209103
:103B50002F02822F82958F7090E0029774F08091EF
:103B60002A0290912B0298878F831986DB86CA865A
:103B70002C87CE0107960E94B60A86E0F801AAE2D9
:103B8000B2E001900D928A95E1F70E94851C0DC06C
:103B90006817E1F09D878E878D859E850E94841B26
:103BA00081111EC0C8010E94B60AFF24F394B5C05B
:103BB000422F407F69F78AE292E00E94B60A86E0CF
:103BC000F50111928A95E9F7F12CA7C03913E2CFDC
:103BD000E110E0CFF8012583C8010E94B60A57C062
:103BE000EE2001F320912F02822F82958F7090E0BA
:103BF00002971CF280912A0290912B029A8389836A
:103C00001B82DD82CC822E83CE010196B4CFE83CAC
:103C1000F105E8F5FE2CEE2029F2681327C03913D0
:103C200025C020912F0220FD18C0822F82958F7011
:103C3000482F50E04115510581F0F80125834F30A0
:103C4000510541F08F5F982F9295907F822F8F7052
:103C5000892B8583C8010E94B60A86E0F801AAE292
:103C6000B2E001900D928A95E1F757C09D878E874B
:103C70008D859E850E94841B81117FCF80912F02AC
:103C8000816080932F02C8010E94B60A46C086E078
:103C9000F50111928A95E9F740C0EE2009F482CF30
:103CA0009D878E878D859E850E94841BF82E882394
:103CB00009F478CF86E0F801AAE2B2E001900D9213
:103CC0008A95E1F780912A0290912B020E94791B3C
:103CD0000E94851C22C09D878E878D859E850E94AF
:103CE000791B292F22952F70223028F49F7039F0EC
:103CF000811105C00BC0243028F49F7049F4805E08
:103D0000883020F0C8010E94B60A9F2CF92C05C00B
:103D1000F8019581907F99F7F9CF8F2D61960FB6B5
:103D2000F894DEBF0FBECDBFDF91CF911F910F91F1
:103D3000FF90EF90DF90CF90BF90AF909F9008954D
:103D400010929C0280911C01882331F08091A00187
:103D500087FF02C08EE101C086E0EBE0F2E0DF0108
:103D60001D928A95E9F70C94001B08950F931F93F9
:103D7000CF93DF9300D01F92CDB7DEB78C01809137
:103D8000A40281110AC09E012F5F3F4F4FEF6FEFDA
:103D90000E940F138A818093A402F80184818130EC
:103DA00051F028F0823061F44091A4020AC0809161
:103DB000A40240E007C06091A40240E080E003C09C
:103DC00040E080E060E00E94A812F801848190E069
:103DD000019663E070E00E94752C84830F900F9031
:103DE0000F90DF91CF911F910F910895CF93DF93A3
:103DF000EC01E7EEF1E0438162818C810E94A51322
:103E00008C818F5F8C83DF91CF910895CF93DF9367
:103E1000EC01EC81F0E0EC51FD4F4491E7EEF1E074
:103E2000628181810E94A5138C818F5F8C83DF91D9
:103E3000CF9108951F93CF93DF93CDB7DEB76797E8
:103E40000FB6F894DEBF0FBECDBF342F4B8B252F9E
:103E50005C8B6D8B7E8B8F8B4E895F89611110928D
:103E60009B0286E0FE013D96DF01982F1D929A95F8
:103E7000E9F73D872E876F87598B488BDE011796B0
:103E800001900D928A95E1F7CE0107960E94F11CF0
:103E900081113EC086E0FE013796DE011196019049
:103EA0000D928A95E1F7FF81E8856A857B8561152A
:103EB000710531F0EF3F31F481E0FF3F19F403C0A9
:103EC00081E001C080E080FD23C02091300230E01D
:103ED000C9010196877099274091610250E08417CB
:103EE000950779F1F983EA837D836C8396E0929F4D
:103EF000D001939FB00D1124AF5CBD4FFE013196F0
:103F000001900D929A95E1F7809330020E947B1CFC
:103F100016E080916102909130028917F9F0189FA4
:103F2000C00111248F5C9D4F0E94F11C8823B1F0C9
:103F30008091610290E001968770992780936102D9
:103F4000E8CF0E94A01E1092300210926102EAE2B5
:103F5000F2E086E0DF011D928A95E9F767960FB6D9
:103F6000F894DEBF0FBECDBFDF91CF911F910895B2
:103F70002091490330914A032817390771F0909333
:103F80004A0380934903E091B701F091B80130975B
:103F900021F00084F185E02D0994089520914703D4
:103FA000309148032817390771F0909348038093A4
:103FB0004703E091B701F091B801309721F00680F6
:103FC000F781E02D09940895E091B701F091B801CF
:103FD000309721F00190F081E02D099480E0089560
:103FE0000F931F93CF93DF93C42FD22FFC018281B5
:103FF0008823C9F0409304020E94A61990934603B7
:104000008093450380E28C0F883008F057C0C7705A
:1040100081E001C0880FCA95EAF7DF91CF911F9127
:104020000F910C942B2980910402481330C0809189
:104030004503909146030E949719883C910538F5F5
:1040400010E21D0FCD17B9F080E28C0F883040F4DC
:10405000C77081E001C0880FCA95EAF70E94202945
:10406000183028F581E09D2F977001C0880F9A9530
:10407000EAF70E942B29802F0E94602A1830F0F462
:10408000D77081E001C0880FDA95EAF70AC080E2B4
:104090008C0F883098F4C77081E001C0880FCA95F2
:1040A000EAF7DF91CF911F910F910C942029802F77
:1040B000DF91CF911F910F910C94602ADF91CF91E6
:1040C0001F910F910895CF93DF93C0EDD2E060E090
:1040D000CE010E94A02B2196C11584E0D807B9F724
:1040E000DF91CF910895CF92DF92EF92FF920F93DD
:1040F0001F93CF93DF93C0E0D0E08E0106551F4F92
:104100006E0182E2C80ED11CFE01EC51FC4FE5901D
:10411000F4906F2DCE0188960E94A02B6E2DCE01BB
:1041200089960E94A02B2296CC15DD0569F70C1705
:104130001D0731F7E801083A1240F9F6DF91CF91F7
:104140001F910F91FF90EF90DF90CF9008950F9304
:104150001F93CF93DF93C42FD0E0CC0FDD1F22E25B
:10416000629FC00DD11D11243AEA839FC00DD11D5D
:104170001124CE0188960E948C2B082F10E0102F5E
:104180000027CE0189960E948C2B9801282BC9010B
:10419000DF91CF911F910F910895462F843038F40D
:1041A000753028F4613118F4672F0C94A72080E053
:1041B00090E00895CF92DF92EF92FF92863048F41C
:1041C000811108C090918000977F909380002F9874
:1041D00006C085E090918000986090938000282F21
:1041E00030E0AFEFBFEF0E94282C25E030E040E048
:1041F00050E00E94062CB42FA32F922F8827492F1E
:104200005A2F6B2F7727CA014C3724E1520728F425
:1042100069E070E00E94612C29C0DB01CA018A506C
:10422000974DAF4FBF4F6627782F892F9A2F25EFD5
:1042300038E241E050E00E94062C69017A01CA018F
:10424000B9010E94372C9B01AC01C701B6010E9445
:10425000372CBB27A92F982F872F009721E0A20783
:10426000B10511F0BC0102C06FEF7FEF70938D00BC
:1042700060938C00FF90EF90DF90CF900895682FAF
:1042800086E090E00C94A02B863008F085E09091B9
:10429000E4019770282F220F220F220F922B909368
:1042A000E401987F21E009F420E09091E40120FBF3
:1042B00090F99093E4010C94DA2080E090E00E9461
:1042C0009A2B8A3E9E4F51F00E94491A8091E40138
:1042D000847089628093E4010E943F2186E090E02F
:1042E0000E948C2B8093E401282F269526952695F5
:1042F00030E02630310524F0877088628093E40135
:104300008091E40180FF04C086958695869501C062
:1043100080E00C94DA209091E70190FF04C096951C
:10432000981740F003C0811105C090E0961710F473
:104330000C94E01461E00C949C14882311F0FA01B1
:1043400001C0FB0109946091E701669570E04BE0C4
:1043500050E08EE091E00E94A52C892B19F481E0B9
:104360008093E6010E94A6199093BD018093BC0141
:1043700008958091E70180FF0AC06A9A8EB18B7F11
:104380009EB194602FB7F894E5EAF2E00BC0E5EA3D
:10439000F2E0118210821282339632E0E13EF3079E
:1043A000C1F7EBCF32E0E13EF30789F0319148E00D
:1043B0009EB9000000C037FF8EB9330F000000C067
:1043C00000C000C08EB900C04A9591F7EBCF2FBF57
:1043D0008FE594E00197F1F700C0000008959F92E7
:1043E000AF92BF92CF92DF92EF92FF920F931F9303
:1043F000CF93DF93FC01A280948081E08483E4EE7C
:10440000F2E0B490E3E6F3E0E491C1EED2E0F5EA45
:10441000EF2EF2E0FF2ECC24CA94D12CEB190E2FF4
:1044200010E022E02A1530F08091E8018883809125
:10443000E9018983911003C01B821A8255C08B81C8
:104440008823F9F081508B832FEF829FC0011124C4
:104450006C8170E00E94612CFB01FF27EC51FD4F45
:104460008491E82FEB192FEFE29FC0011124B801CE
:104470000E94612C8091EA01689FB00111247A8327
:1044800033C00E947C2B2091EA012695215830E010
:10449000A901440F551F322F2227240F351F232F28
:1044A00033278217930704F582E08A1588F40E9467
:1044B0007C2BB6010E94752C88830E947C2B209156
:1044C000E9012695622F70E00E94752C280F298340
:1044D0001A828091EA01843120F0893C18F088EC3E
:1044E00001C084E18C838B8397014A816981888133
:1044F0000E940F13259623E0E20EF11C83E0C534E1
:10450000D80709F08ECFDF91CF911F910F91FF90C7
:10451000EF90DF90CF90BF90AF909F900C94B92117
:10452000EF92FF920F931F93CF93DF938C01C5EA15
:10453000D2E0E12CF12CF8018481FAE0EF16F104CD
:104540001CF4882339F002C0811104C09E014091FF
:10455000EA0102C09E0140E06091E9018091E8011A
:104560000E940F138FEFE81AF80A239694E1E916D8
:10457000F10409F70E94B921F801848190E00196C5
:10458000817099278483DF91CF911F910F91FF90C4
:10459000EF9008958F929F92AF92BF92CF92DF9249
:1045A000EF92FF920F931F93CF93DF93EC014C8117
:1045B000042F10E09801D8010E94282C9B01AC0127
:1045C0000E94F32B6B017C01E0E2F0E0E01BF10BB9
:1045D000A5E5B0E09B01AC010E94F32B4B015C010F
:1045E0009F01DF010E94962C9B01AC010E94FE2BD3
:1045F0009B01AC012C0D3D1D4E1D5F1DC501B4017D
:104600000E94062C822FF22E99E2921728F093E056
:10461000299F900111240DC025E530E0281B3109A8
:10462000C901880F991F280F391F37FF02C02F5F5C
:104630003F4F35952795122F109595EAC92E92E098
:10464000D92E00E085E5E82EEF1801FD02C08E2D81
:1046500001C08F2D9601412F6091E9010E940F1337
:104660000F5F83E0C80ED11C043179F70E94B92195
:104670008C81811102C091E003C0803219F49FEF58
:1046800090931B0190911B01890F8C83DF91CF9137
:104690001F910F91FF90EF90DF90CF90BF90AF9060
:1046A0009F908F9008950F931F93CF93DF93C5EA48
:1046B000D2E0FE01118210821282339682E0E13E46
:1046C000F807C1F700E010E08091A302082E000C6B
:1046D000990B0817190794F080911A01082E000C05
:1046E000990B8017910754F09E014091EA01609167
:1046F000E9018091E8010E940F1303C0198218821A
:104700001A820F5F1F4F239604311105E9F60E94AC
:10471000B921809119019091A302980F9093A3025F
:1047200020911A01280F20931A01121614F49331C4
:104730001CF0819580931901DF91CF911F910F910A
:104740000895BF92CF92DF92EF92FF920F931F9343
:10475000CF93DF93FC01828180FF03C0DD24DA94D4
:1047600002C0DD24D39405EA12E0C0E0D0E024E1E9
:10477000B22EF80111821082128294E0E92EF12CFF
:10478000C12C8091A2028C0D85312CF06B2D0E94E2
:10479000532C892F02C087FD8C5E082E000C990BCC
:1047A000C817D90791F48091EA018E9DA0018F9DD1
:1047B000500D112455954795559547959801609151
:1047C000E9018091E8010E940F13CD0CF1E0EF1A8E
:1047D000F108B9F621960D5F1F4FC431D10549F696
:1047E0000E94B9218091A20291E0D91206C08111E4
:1047F00002C083E107C0815005C090E00196BE0170
:104800000E94752C8093A202DF91CF911F910F918E
:10481000FF90EF90DF90CF90BF900895EF92FF92BE
:104820001F93CF93DF93EC0185EAE82E82E0F82E08
:1048300010E08C8197014091EA016091E901810FBC
:104840000E940F13145F83E0E80EF11C103F89F7FC
:104850000E94B9219A818C8190FF02C08F5F01C0B4
:1048600081508C83DF91CF911F91FF90EF9008953D
:104870000F931F9380917A0390917B03A0917C0307
:10488000B0917D038C019D010670112722273327EB
:10489000BC01CD01063011052105310511F4686018
:1048A00001C0677F1F910F910C94041C1F93CF933D
:1048B000DF93CDB7DEB7AA970FB6F894DEBF0FBE71
:1048C000CDBFE2E7F3E08091F100819343E0EA3766
:1048D000F407C9F780917303833009F462C030F4A0
:1048E000813071F0823009F49CC0B3C08A3009F481
:1048F00088C08B3009F46DC0893009F0AAC020C08F
:1049000080917203813A09F0A4C08091E800877F0A
:104910008093E8008091760390917703892B21F4AE
:1049200060E28EE493E003C060E080E090E070E03D
:104930000E94D22A8091E8008B778093E80089C09A
:1049400080917203813209F084C080917603909146
:104950007703009719F0029709F07BC08091E80077
:10496000877F8093E8008091E80082FD05C08091F8
:1049700070038111F8CF6DC02091F3008091F20097
:1049800090E0922B029729F48091F1008B7F813087
:1049900021F48091F10080934D038091E8008B77A2
:1049A00054C080917203813A09F053C0809176031C
:1049B00090917703892B09F04CC08091E800877FA4
:1049C0008093E8008091E80080FFFCCF80911C017B
:1049D00037C0809172038132E1F580917603909126
:1049E0007703892BB1F58091E800877F8093E800F9
:1049F0000E947E2A8091740380931C010E94A01E55
:104A000028C080917203813221F58091E800877F70
:104A10008093E8000E947E2A8091750380934C0366
:104A200018C080917203813AA1F48091E800877FD9
:104A30008093E8008091E80080FFFCCF80914C03D8
:104A40008093F1008091E8008E778093E8000E94C7
:104A50007E2A8091E80083FFDDC1809172039091EE
:104A60007303492F50E04A30510508F0D3C1FA01D1
:104A7000ED57FF4F0C94892C803821F0823809F0D3
:104A8000C9C108C080916E0390916F03992389F08A
:104A900082600FC0809176038F70873008F0BAC1B2
:104AA0008093E9008091EB0085FB882780F91092C4
:104AB000E9009091E800977F9093E8008093F100DF
:104AC0001092F10070C1282F2D7F09F0A3C1882317
:104AD00019F0823061F09EC180917403813009F039
:104AE00099C1933009F080E080936F032EC08091CC
:104AF000740381112AC0809176038F702FEF280FE5
:104B0000263008F087C18093E9002091EB0020FF58
:104B10001CC0933021F48091EB00806214C090910E
:104B2000EB0090619093EB0021E030E0A90102C01E
:104B3000440F551F8A95E2F74093EA001092EA006D
:104B40008091EB0088608093EB001092E9008091E7
:104B5000E800877F8093E8000E947E2A5BC1811174
:104B600059C1109174031F778091E3008078812BE5
:104B70008093E3008091E800877F8093E8000E94A3
:104B80007E2A8091E80080FFFCCF8091E30080685E
:104B90008093E300111102C082E001C083E08093A2
:104BA000700338C18058823008F034C120917403FA
:104BB000309175032C3D53E0350779F583E08A8306
:104BC0008AE289834FB7F894DE01139620E03EE035
:104BD00051E2E32FF0E050935700E49120FF03C02F
:104BE000E295EF703F5FEF708E2F90E0EA3010F0AB
:104BF000C79601C0C0968D939D932F5F243149F7CE
:104C00004FBF8091E800877F8093E8006AE270E000
:104C1000CE0101960E94D22AB4C080917603909171
:104C20007703432F552743305105A9F068F44130ED
:104C3000510509F4FEC04230510509F0EBC08BE587
:104C400090E0E4EAF7E04BC04132510529F14232ED
:104C5000510589F1DFC0C901992781309105A1F083
:104C600058F0029709F0D6C0E1E1F8E0E4918E2F08
:104C700090E0E1E1F8E030C0EDE2F8E0E4918E2F61
:104C800090E0EDE2F8E028C0EDE1F8E0E4918E2F4D
:104C900090E0EDE1F8E020C08330910508F0BAC063
:104CA000880F991FFC01E959FE4F0190F081E02D1A
:104CB00089E090E014C08330910508F0ABC0FC019E
:104CC000EE0FFF1FEF59FE4F0190F081E02DDC0148
:104CD000A25ABE4F8C9190E0009709F49BC020919E
:104CE000E800277F2093E800209178033091790332
:104CF0002817390708F4C90140E0009789F120918D
:104D00007003222309F43DC02530D9F12091E80039
:104D100023FD37C02091E80022FD2FC02091E8003C
:104D200020FFEBCF4091F3002091F20030E0342BD4
:104D3000009759F02830310540F444914093F10038
:104D4000319601972F5F3F4FF3CF41E02830310577
:104D500009F040E02091E8002E772093E800CDCFC5
:104D60004111CDCF0AC080917003882351F0853066
:104D700041F08091E80083FD04C08091E80082FF4B
:104D8000F2CF8091E8008B778093E80043C08038B1
:104D900009F040C08091E800877F8093E80080910F
:104DA00071038093F1008091E8008E77D3CE81115A
:104DB00031C080917403909175039927029754F53F
:104DC0008091E800877F8093E8001091740310932E
:104DD00071030E947E2A111106C08091E30087FDB5
:104DE00002C081E001C084E08093700342E061EC86
:104DF00081E00E949D2A42E261EC84E00E949D2AAB
:104E000042E261EC82E00E949D2A42E260EC83E093
:104E10000E949D2A8091E80083FF10C08091E800E5
:104E2000877F8093E8008091EB0080628093EB00A5
:104E300005C082E190E0EFEFF7E051CFAA960FB600
:104E4000F894DEBF0FBECDBFDF91CF911F910895C3
:104E50001F920F920FB60F9211242F933F934F93EF
:104E60005F936F937F938F939F93AF93BF93CF93F2
:104E7000DF93EF93FF93C091E900CF708091EC0036
:104E8000D82FD17080FDD0E81092E9008091F00019
:104E9000877F8093F00078940E9456241092E90056
:104EA0008091F00088608093F000CD2BCF70C0938C
:104EB000E900FF91EF91DF91CF91BF91AF919F9169
:104EC0008F917F916F915F914F913F912F910F90B3
:104ED0000FBE0F901F901895E8EDF0E080818E7F57
:104EE00080831092E2001092DA001092E100A0EEAE
:104EF000B0E08C9181608C9380818F77808319BC26
:104F0000A7EDB0E08C918E7F8C9380818F7E808323
:104F100010924B030895CF92DF92EF92FF920F937E
:104F20001F93CF93DF93C8EDD0E088818F7E888375
:104F3000E7EDF0E080818160808384E082BF81E0E2
:104F400080934B0388818E7F888302EE10E0F80106
:104F500010821092DA0081EEC82ED12CF601108258
:104F600088818F77888388818068888388818F7D16
:104F7000888319BC109270031092710310926F0312
:104F800010926E0390EEE92EF12CF70180818B7F59
:104F9000808388818160888342E060E080E00E94B5
:104FA0009D2AF60180818E7F8083F8018081816057
:104FB0008083808188608083F70180818E7F8083F9
:104FC000888180618883DF91CF911F910F91FF903D
:104FD000EF90DF90CF9008951F920F920FB60F922F
:104FE00011242F933F934F935F936F937F938F93EE
:104FF0009F93AF93BF93EF93FF938091E10082FF64
:1050000009C08091E20082FF05C08091E1008B7FA2
:105010008093E1008091DA0080FF2AC08091D8005F
:1050200080FF26C08091DA008E7F8093DA00809125
:10503000D90080FF18C080E189BD82E189BD09B433
:1050400000FEFDCF81E08093700380914B038111BE
:105050000FC00E946C270E948B278091E200846021
:105060008093E20005C019BC1092700310924B03AC
:105070008091E10080FF17C08091E20080FF13C0A3
:105080008091E2008E7F8093E2008091E200806157
:105090008093E2008091D80080628093D80019BC90
:1050A00085E0809370038091E10084FF2EC08091A1
:1050B000E20084FF2AC080E189BD82E189BD09B494
:1050C00000FEFDCF8091D8008F7D8093D800809125
:1050D000E1008F7E8093E1008091E2008F7E8093DB
:1050E000E2008091E20081608093E2008091710390
:1050F000882311F084E007C08091E30087FD02C09F
:1051000081E001C083E0809370038091E10083FF20
:1051100027C08091E20083FF23C08091E100877F58
:105120008093E10082E0809370031092710380917C
:10513000E1008E7F8093E1008091E2008E7F80937A
:10514000E2008091E20080618093E20042E060E052
:1051500080E00E949D2A8091F00088608093F0009A
:10516000FF91EF91BF91AF919F918F917F916F913F
:105170005F914F913F912F910F900FBE0F901F9015
:1051800018952091E4003091E50095E64091EC00FF
:10519000842F817040FF23C08091E80080FD1DC0F6
:1051A00080917003882399F0853099F08091EB000D
:1051B00085FD11C04091E4005091E50024173507AA
:1051C00029F3915011F09A01E1CF84E0089582E033
:1051D000089583E0089581E0089580E00895409166
:1051E000E80042FFDDCF0895EF92FF920F931F93E7
:1051F000CF93DF937C018B010E94C128811119C0DC
:10520000E70101151105A1F08091E80085FD0AC0B4
:105210008091E8008E778093E8000E94C12888235F
:1052200081F307C089918093F10001501109E9CF02
:1052300080E0DF91CF911F910F91FF90EF90089543
:10524000882341F0809590919C02892380939C0251
:105250000C94BA1A0895882339F090919C02892BF6
:1052600080939C020C94BA1A0895882309F463C0B1
:10527000823869F40E94E41F81FF5DC069E389E020
:1052800092E00E94031A0E94BA1A69E30EC08338A2
:1052900091F40E94E41F80FF4EC063E589E092E034
:1052A0000E94031A0E94BA1A63E589E092E00E9404
:1052B000DB190C94BA1A843869F40E94E41F82FF47
:1052C0003AC067E489E092E00E94031A0E94BA1A89
:1052D00067E4EBCF9CEF980F913A10F4682FE5CF7D
:1052E00090E2980F983088F4877021E030E0A901AF
:1052F00002C0440F551F8A95E2F7CA01809590912C
:105300009C02892380939C02D4CF9BE5980F933015
:1053100020F480E090E00C94CE1F98E5980F973130
:1053200020F480E090E00C94B81F803F20F00E94B1
:1053300014150C94EA140895CF93882309F4BEC081
:10534000C82F8238B1F40E94E41F81FDB7C069E321
:1053500089E092E00E94031A0E94BA1A2FEF81EEB0
:1053600094E0215080409040E1F700C0000069E3E4
:1053700017C08338E1F40E94E41F80FD9FC063E5FD
:1053800089E092E00E94031A0E94BA1A2FEF81EE80
:1053900094E0215080409040E1F700C0000063E5B8
:1053A00089E092E00E94DB19CF910C94BA1A8438FC
:1053B000B1F40E94E41F82FD81C067E489E092E0BD
:1053C0000E94031A0E94BA1A2FEF81EE94E0215036
:1053D00080409040E1F700C0000067E4E1CF8CEF2F
:1053E0008C0F813AC0F580911C018823E1F08091F7
:1053F000A00187FF18C0EC2FE695E695E695F0E052
:10540000E75FFD4F8281282F30E04C2F477081E00D
:1054100090E002C0880F991F4A95E2F782239323F8
:10542000892B61F412C0EBE0F2E081E192E021917E
:10543000C21721F08E179F07D1F707C06C2F89E0A4
:1054400092E00E94DB190E94BA1A6C2F89E092E068
:105450000E94031AA9CF80E28C0F883068F4C770CD
:1054600081E090E001C0880FCA95EAF790919C0214
:10547000892B80939C0298CFEBE5EC0FE33040F44E
:10548000F0E0E359FE4F808190E0CF910C94CE1F65
:10549000E8E5EC0FE73150F4F0E0EE0FFF1FE059C4
:1054A000FE4F80819181CF910C94B81FC03F30F0A6
:1054B0008C2F0E94CD15CF910C94EA14CF910895B2
:1054C0001F93CF93DF93182F893319F0C0E0D0E0FA
:1054D00002C0C0E5D0E0812F0E949C29209741F0B6
:1054E0008FE99FE00197F1F700C000002197F6CF08
:1054F000812FDF91CF911F910C94352980917203F8
:1055000087FF11C08091E80082FD05C08091700383
:105510008111F8CF11C08091E8008B770BC080918A
:105520007003882349F08091E80080FFF8CF8091D4
:10553000E8008E778093E8000895982F973068F5FB
:105540009093E900981739F07091EC002091ED00EC
:105550005091F00003C0242F762F50E021FD02C0AF
:105560009F5FECCF3091EB003E7F3093EB003091AA
:10557000ED003D7F3093ED003091EB0031603093D2
:10558000EB007093EC002093ED005093F00020911D
:10559000EE0027FDE5CF80E008958F708093E9004D
:1055A00081E0089520917803309179032617370719
:1055B00048F06115710539F42091E8002E772093A9
:1055C000E80001C0B901FC0120E06115710579F125
:1055D000809170038823F1F18530F1F18091E8002A
:1055E00083FD3CC08091E80082FD2EC08091E800E0
:1055F00080FFEBCF2091F3008091F20090E0922B9E
:105600006115710551F08830910538F4219120938E
:10561000F100615071090196F3CF21E0089709F07C
:1056200020E08091E8008E778093E800CECF2111B2
:10563000CFCF0AC080917003882361F0853061F07C
:105640008091E80083FD0AC08091E80082FFF2CFDC
:1056500080E0089582E0089583E0089581E0089550
:105660008F929F92AF92BF92CF92DF92EF92FF9272
:10567000CF93DF93EC01688179818A819B816115E9
:1056800071058105910521F464E279ED8BE597E0E0
:105690002DE133EF41E050E00E94D42B49015A0143
:1056A0009B01AC01A7EAB1E40E94F32B6B017C01E2
:1056B000ACEEB4EFA50194010E94012CDC01CB01FA
:1056C0008C0D9D1DAE1DBF1DB7FF03C00197A10925
:1056D000B04888839983AA83BB839F77DF91CF915A
:1056E000FF90EF90DF90CF90BF90AF909F908F9002
:1056F00008950E94302B089580E091E00E94302BA5
:105700000895A0E0B0E08093000190930101A09380
:105710000201B09303010895F999FECF92BD81BDB6
:10572000F89A992780B50895A6E1B0E044E050E0EA
:105730000C94C62BA8E1B0E042E050E00C94C62BDC
:10574000262FF999FECF92BD81BDF89A019700B43A
:10575000021639F01FBA20BD0FB6F894FA9AF99ADA
:105760000FBE08950396272F0E94A12B0E94A02B05
:10577000252F0E94A12B242F0C94A12B0196272FBB
:105780000E94A12B0C94A02BDC01CB01FC01F99908
:10579000FECF06C0F2BDE1BDF89A319600B40D927D
:1057A00041505040B8F70895052E97FB1EF4009421
:1057B0000E94EB2B57FD07D00E94062C07FC03D05C
:1057C0004EF40C94EB2B50954095309521953F4F1E
:1057D0004F4F5F4F089590958095709561957F4FDD
:1057E0008F4F9F4F08950E94282CA59F900DB49F26
:1057F000900DA49F800D911D11240895B7FF0C9466
:10580000F32B0E94F32B821B930B0895A1E21A2E17
:10581000AA1BBB1BFD010DC0AA1FBB1FEE1FFF1F54
:10582000A217B307E407F50720F0A21BB30BE40BA4
:10583000F50B661F771F881F991F1A9469F76095EB
:105840007095809590959B01AC01BD01CF010895A5
:10585000A29FB001B39FC001A39F700D811D1124B1
:10586000911DB29F700D811D1124911D0895DB01C2
:105870008F939F930E94F32BBF91AF91A29F800DB6
:10588000911DA39F900DB29F900D11240895991B17
:1058900079E004C0991F961708F0961B881F7A9527
:1058A000C9F78095089587FB082E062687FD819508
:1058B00067FD61950E94472C0EF4919507FC819538
:1058C0000895AA1BBB1B51E107C0AA1FBB1FA61747
:1058D000B70710F0A61BB70B881F991F5A95A9F799
:1058E00080959095BC01CD01089597FB072E16F485
:1058F000009407D077FD09D00E94612C07FC05D0E9
:105900003EF4909581959F4F0895709561957F4FD6
:105910000895EE0FFF1F0590F491E02D099469277B
:105920009627692778278727782708950E94282CAB
:10593000332312F48A1B9B0B0C94A02C0E94282C5E
:10594000B7FF0895821B930B0895FC01415050400E
:1059500030F001900616D1F73197CF0108958827CE
:0859600099270895F894FFCF88
:1059680001000000AE180C19ED18E918E518011926
:105978001A1B1C1D1E1F2021220102010130313279
:1059880033F035366667F7F6F5F4F191929395940E
:10599800969734000102020202060606090909095F
:1059A80009090F0F0F0F0F0F1515151819191919C8
:1059B80019191919191923242525252525254022C2
:1059C800B6640742078C06B607CF07EF07818283C4
:1059D800E200E900EA00B500B600B700CD00830197
:1059E800CC008A019201940121022302240225029B
:0E59F800260227022A02B300B4006F007000DE
:00000001FF
