:100000000C9451030C94531B0C9498030C94980378
:100010000C9498030C9498030C9498030C949803F4
:100020000C9498030C9498030C94382F0C940A3079
:100030000C948E290C9498030C9498030C949803B8
:100040000C9498030C9498030C9498030C949803C4
:100050000C9498030C94E7290C9498030C9498033F
:100060000C9498030C9498030C9498030C949803A4
:100070000C9498030C9498030C9498030C94980394
:100080000C9498030C9498030C9498030C94980384
:100090000C9498030C9498030C9498030C94980374
:1000A0000C9498030C9498030C949803DA15DD15BE
:1000B000FD150E1616162116241627162A1670166A
:1000C00070162D163016351642164F165216561645
:1000D00063164A1F4A1F7C1F7C1FC91FFD20FD207D
:1000E000FD20E71F7C208D208D20ED20FD20FD20B0
:1000F000F62099219921AB21AB21A221AB21AB2183
:10010000AB2199219921A721AB21AB21A7217730E0
:100110009E3096319E309631EA300D319631643101
:100120007331290014001A000800150017002B0075
:1001300004001600070009000A00E1001D001B0072
:10014000060019000500E000E300E2004C00015148
:100150002C00A800130012000C0018001C0028003E
:1001600033000F000E000D000B00E50038003700D3
:100170003600100011002D00340030002F00025115
:100180002A0035001E001F0020002100220001006F
:1001900001000100520001000100010001005000B7
:1001A00051004F0001000100010001000100015158
:1001B0000100010027002600250024002300010083
:1001C0000100230022002100010001003100200075
:1001D0001F001E0001002E003100370027002700FD
:1001E00001003A003B003C003D003E003F00C55C82
:1001F000C75CC95CC35C0100C25CC65CC85CCA5C0D
:10020000C45C0100C25C01000100010001000100AA
:10021000010045004400430042004100400001004D
:100220000100010001000100010001005200010075
:100230000100010001004F00510050000100025177
:1002400001000100010001000100010001000100A6
:100250000100010001000100010001000100010096
:100260000100010001000100010001000100010086
:100270000100010001000100010001000100010076
:100280000100010001000100010001000100010066
:100290000100010001000100010001000100010056
:1002A000010000000000000000002A2B28000000D0
:1002B0000000000000000000000000000029000015
:1002C00000002C1E3420212224342627252E362DF2
:1002D0003738271E1F202122232425263333362E8C
:1002E00037381F0405060708090A0B0C0D0E0F10FE
:1002F0001112131415161718191A1B1C1D2F313043
:10030000232D350405060708090A0B0C0D0E0F10E6
:100310001112131415161718191A1B1C1D2F313022
:10032000354C00000000000000000000000000004C
:1003300000000000000000000000000000000000BD
:100340000000000000007E0F00D4FFFFFFC7000088
:1003500000781E0F0500047F3F1F643214643214BE
:10036000783C1E1E140A052223252628292A2C2D16
:100370002F3032333536383A3B3D3E4042434547D5
:10038000494A4C4E5051535557595A5C5E6062640D
:100390006668696B6D6F71737577797B7D7F81831B
:1003A0008587898A8C8E90929496989A9C9E9FA11C
:1003B000A3A5A7A8AAACAEAFB1B3B4B6B8B9BBBC3D
:1003C000BEBFC1C2C3C5C6C7C9CACBCCCDCED0D1B2
:1003D000D2D2D3D4D5D6D7D7D8D9D9DADADBDBDBAA
:1003E000DCDCDCDCDCDDDDDDDDDCDCDCDCDCDBDB4B
:1003F000DBDADAD9D9D8D7D7D6D5D4D3D2D2D1D09F
:10040000CECDCCCBCAC9C7C6C5C3C2C1BFBEBCBB9B
:10041000B9B8B6B4B3B1AFAEACAAA8A7A5A3A19F13
:100420009E9C9A98969492908E8C8A8987858381D7
:100430007F7D7B79777573716F6D6B6968666462B8
:10044000605E5C5A5957555351504E4C4A49474586
:100450004342403E3D3B3A3836353332302F2D2C27
:100460002A292826252322FFAA7F554000010203BE
:10047000040506070F0E0D0C0B0A09080001010107
:100480000101010101010202020202020202020351
:100490000303030303030304040404040404050521
:1004A00005050506060606060707070707080808E4
:1004B00008090909090A0A0A0B0B0B0C0C0C0D0D93
:1004C0000D0E0E0E0F0F0F1010111111121213132B
:1004D0001414151516161717181819191A1A1B1BA4
:1004E0001C1D1D1E1E1F2020212222232424252600
:1004F00026272829292A2B2C2D2D2E2F3031323238
:10050000333435363738393A3B3C3D3E3F40414243
:10051000434445464748494A4C4D4E4F5051535429
:10052000555658595A5B5D5E5F61626465666869DD
:100530006B6C6D6F7072737577787A7B7D7E80825D
:10054000838587888A8C8E8F91939596989A9C9EA6
:10055000A0A2A3A5A7A9ABADAFB1B3B5B7BABCBEB6
:10056000C0C2C4C6C9CBCDCFD1D4D6D8DBDDDFE283
:10057000E4E7E9EBEEF0F3F5F8FAFDFF0C037A009F
:1005800070006C00690074000000100366006C00CD
:10059000750078006C00610062000000040309042B
:1005A00009025B00030100A0FA0904000001030135
:1005B0000100092111010001224000070581030803
:1005C000000A0904010002030000000921110100D2
:1005D00001222200070582032000010705030320F2
:1005E00000010904020001030000000921110100BB
:1005F000012232000705840320000A1201100100C5
:10060000000008767001000100010200010660FF91
:100610000961A1010962150026FF00952075088176
:10062000020963150026FF00952075089102C00598
:10063000010980A101850319012AB700150126B718
:1006400000950175108100C0050C0901A101850408
:1006500019012AA002150126A0029501751081003A
:10066000C005010906A101050719E029E7150025C4
:100670000195087501810295017508810105071929
:100680000029FF150026FF00950675088100050862
:1006900019012905950575019102950175039101CF
:1006A000C00011241FBECFEFDAE0DEBFCDBF04B61D
:1006B00003FE27C08091690390916A03A0916B03A8
:1006C000B0916C038730904BA740B04BD1F410929F
:1006D000690310926A0310926B0310926C0314BEAC
:1006E00084B7877F84BF0FB6F894A8958091600087
:1006F000886180936000109260000FBEE0E0F8E334
:10070000099511E0A0E0B1E0E6E7F6E602C0059049
:100710000D92A03FB107D9F723E0A0EFB1E001C0EF
:100720001D92A936B207E1F70E94F92B0C943933D8
:100730000C9400000F9303E022E041E00E94FB03D1
:100740000F910895662311F08AEA01C089EA0E9498
:10075000001F81E0089581E0089581E008950C94E0
:10076000AD0308950C94B1031F93CF93DF9300D092
:1007700000D01F92CDB7DEB749835A836B83309187
:10078000930289819A81311114C0662359F0222382
:1007900049F00E94D426182F682F89819A810E94DF
:1007A0007B2603C00E94A726182F69817A81812F9A
:1007B00004C00E94D42669817A810F900F900F9017
:1007C0000F900F90DF91CF911F910C944217FC0175
:1007D000262F408151816281738184810C94B403FE
:1007E000CF93DF93EC0160E00E94E703BE01DF914D
:1007F000CF910C94B2038F929F92AF92BF92CF92FF
:10080000DF92EF92FF920F931F936B017C0181E0C7
:1008100090E0A0E0B0E04C015D0104C0880C991CA0
:10082000AA1CBB1C4A95D2F7AC01BD0104C0440F01
:10083000551F661F771F2A95D2F7482959296A291B
:100840007B2904C0880F991FAA1FBB1F0A95D2F7E6
:100850008A019B010C211D212E213F2140175107A8
:100860006207730739F4BC01CD016C297D298E29FB
:100870009F290AC080959095A095B095BC01CD01A7
:100880006C217D218E219F211F910F91FF90EF9070
:10089000DF90CF90BF90AF909F908F9008950F936F
:1008A000382F262F6091EA027091EB028091EC02C2
:1008B0009091ED02042F432F0E94FB030F910C94A3
:1008C000B7250E94C6070C9400080C94FC070895F5
:1008D0000E9487210E9467042FEF84E39CE021504F
:1008E00080409040E1F700C000000C94572A0F931D
:1008F0001F93CF93DF938C0161E00E94E703EC012B
:10090000B8010E943215882309F44BC0B801CE010A
:100910000E94AF03882309F444C0B801CE010E94AD
:1009200077188823F1F1B801CE010E94C9188823F5
:10093000C1F1B801CE010E94F419882391F1B801E8
:10094000CE010E942713882361F1F8018281882358
:1009500009F1CA358DE5D807C1F050F4C115FCE5A1
:10096000DF0781F0CE3DDC45A9F40E94E52819C0DF
:10097000CB35EDE5DE0761F0CC35DD4559F40E945D
:10098000672708C00E9468040CC00E94702702C03C
:100990000E947327C801DF91CF911F910F910C9492
:1009A000AB0380E0DF91CF911F910F910895DF920B
:1009B000EF92FF920F931F93CF93DF93E82FF0E016
:1009C000EE55FD4FD490282F26952695269530E09C
:1009D000F901EE5BFC4F0491877010E0082E02C015
:1009E000159507950A94E2F701701127F901EE5C5D
:1009F000FC4FE490F12C082E02C0F594E7940A9481
:100A0000E2F791E0E922FF24F901EE5DFC4FC49189
:100A1000D0E002C0D595C7958A95E2F7C170DD2771
:100A20000115110519F081EE0E94E31DE114F10496
:100A300019F086EE0E94E31D8D2D0E94001FEF2805
:100A400019F086EE0E948A1E012B19F081EE0E9499
:100A50008A1ECD2B51F08CE2DF91CF911F910F9127
:100A6000FF90EF90DF900C94001FDF91CF911F91CA
:100A70000F91FF90EF90DF900895EF92FF920F9308
:100A80001F93CF93DF93EC01162F0AE08881882310
:100A900009F455C0813009F043C08981813041F4A7
:100AA0007E0182E0E80EF11C8A810E94001F09C0CD
:100AB000823049F47E01E2E0EE0EF11C8A810E9450
:100AC000E31DE7012FC0833041F47E01F2E0EF0E19
:100AD000F11C8A810E948A1EF4CF843011F0219685
:100AE00021C02A81229680E090E030E02053310935
:100AF0002A30310558F4089FA001099F500D112498
:100B0000C901840F951F21962881EFCF009751F0DE
:100B1000EFE9FFE03197F1F700C000000197F6CF51
:100B20000E94D7042196812F882309F4AFCFEFE9E3
:100B3000FFE03197F1F700C000008150F5CFDF9161
:100B4000CF911F910F91FF90EF90089560E00C946A
:100B50003D0508950C94A90581E008950C94AC0519
:100B6000CF93C82F0E94AA058C2F0E94AE05CF916B
:100B7000089580E090E008950895880F991FFC0182
:100B8000EE5AFC4F859194910895CF93DF930E9484
:100B900042170E94D706EC018115904508F043C02A
:100BA000C11580E4D80708F0CBC0C03ED10528F5B8
:100BB000C03CD10508F0B3C0C83AD10578F4C53AB5
:100BC000D10508F0A4C0C130D10509F4ECC008F487
:100BD000E8C0C430D10508F0E6C0E3C0CF3BD10582
:100BE00008F0DFC0C85AD0E0CC0FDD1FCB5CDE4F71
:100BF0000990D881C02DD464D6C0C11590E2D90720
:100C000050F4C11521E0D20708F0CDC0C83ED1058F
:100C100008F4C9C0C6C0C11580E3D80708F086C073
:100C2000CE019F707FC0C11595E5D90708F043C07C
:100C3000C11524E5D20708F09AC0C11582E5D8078E
:100C400008F5C11591E5D90708F07DC0CE0174E023
:100C5000969587957A95E1F783709C2F937021E0A4
:100C600030E002C0220F331F9A95E2F73C68382B20
:100C7000CF70C695C69580E2C89FE0011124C22BB3
:100C8000D32B91C09E01237033278C2F8695869598
:100C9000C115D34508F05CC0C1E0D0E002C0CC0F64
:100CA000DD1F2A95E2F720E2829FC0011124C82BA4
:100CB000D92BDC6878C0C11529E5D207A0F4C1158D
:100CC00088E5D80708F058C0C11596E5D90708F09F
:100CD00068C08C2F0E946B078F71C82FD0E0DC2F6B
:100CE000CC27D06260C0C1152AE5D20708F449C0FC
:100CF000CE0190568115904208F053C08D2F8F7110
:100D00000E946B07DD27D0628F71D82B4CC0C55A6B
:100D1000D0E0CD59DE4FC881D0E0D06444C0CE01D0
:100D2000805C91090E94BD05EC013DC0CE01992770
:100D3000D3FF03C0EC01D86C36C0EC01D06C33C0DB
:100D4000DF70D06A30C0DC2FCC27C16FD06A2BC0D7
:100D5000C1E0D0E002C0CC0FDD1F2A95E2F720E20F
:100D6000829FC0011124C82BD92BDA681CC0DC2F4C
:100D7000CC27C46FD06A17C0DC2FCC27C06FD06AD5
:100D800012C08C2F8F700E946B0794E0D695C79588
:100D90009A95E1F7CF70D0E0DC2FCC27D069C82B33
:100DA00002C0C0E0D0E0CE01DF91CF91089582383B
:100DB000910569F1B0F48133910509F46DC048F4EF
:100DC0008932910509F463C08A32910509F469C03A
:100DD00008958533910509F455C089339105B9F01B
:100DE0000895833E910569F138F4803E9105B1F094
:100DF000823E910509F10895863E9105A9F1873E4D
:100E00009105B9F1843E910509F064C023C0209199
:100E10000B0320FD4FC021FD4DC0089580910B03B1
:100E200080FD44C080910C0380FF44C080910B037F
:100E300084FD42C083EE4DC080910B0382FF38C019
:100E4000F5CF80910B0382FD33C080910C0380FDB0
:100E500031C0ECCF80910C0381FF32C080910B0335
:100E600084FD2AC087EE35C080910B0383FF26C026
:100E7000F5CF80910B0383FD21C080910C0381FD90
:100E80001FC0ECCF80910B0385FD1CC01DC080915D
:100E90000B0385FD19C016C080910B0386FD16C09B
:100EA00017C080910B0386FD13C010C089E311C0E9
:100EB00082EE0FC080EE0DC080E00BC086EE09C050
:100EC00084EE07C089E205C085E303C08AE201C061
:100ED00081E390E0089590910B0392FF0DC0282FBD
:100EE0002871283019F4877F846006C0282F247168
:100EF000243011F48B7F886093FF0DC0282F287158
:100F0000283119F4877E846106C0282F247124318A
:100F100011F48B7E886120910C0320FF0DC0382FC7
:100F20003871383019F4877F816006C0382F3171ED
:100F3000313011F48E7F886021FF0DC0282F287179
:100F4000283119F4877E816106C0282F2171213153
:100F500011F48E7E886194FD877E08950C940C15A3
:100F60000E94C2088FE39CE90197F1F700C00000DE
:100F70000E94C20880E00E94EA0780FF04C00E942D
:100F8000AE070C94572A08950C94B0070E943D2890
:100F9000811102C00E94E5280E9448288093FF0228
:100FA0000E94502890930C0380930B030E94C40767
:100FB0000E944C28682F70E080E090E00E947D2520
:100FC0006091EA027091EB028091EC029091ED0247
:100FD0000C94B525E82FF0E0EB5EFC4F808108957E
:100FE000089580EA8A95F1F7089500C008950C9459
:100FF000F10708950C94F9070C94FA070C94F9077B
:101000000C94FE07F894E82FE295EF70F0E031A120
:10101000282F2F7081E090E001C0880F2A95EAF711
:10102000982F9095932391A392A1892B82A37894D2
:10103000089508950C9419080F931F93CF93DF938D
:101040000E94A9098091040180910401811102C0CC
:1010500094E001C090E090931E0384E0891B80938C
:101060001D0384E90E94020885EF0E94020884EFB4
:101070000E94020881EF0E940208C6E6D1E00CE659
:1010800011E089910E9402080C171D07D1F7EDE0CD
:10109000F3E0A5E1B3E011921D9283E0E531F8079A
:1010A000D1F784E00E944D090E946104DF91CF9145
:1010B0001F910F910C94BD091F93CF93DF9300D024
:1010C00000D0CDB7DEB70E94840960911E0388234B
:1010D00009F442C019821A821B821C82862F90E07A
:1010E000BE016F5F7F4F8B5E9C4F0E944E1A811135
:1010F00017C08091F2018F5F8093F201863040F13A
:10110000E0911D03F0E0EB5EFC4FDE011196CE0195
:10111000059611921D92A817B907D9F711E019C0C9
:101120001092F201E0911D03F0E0EB5EFC4FDE0156
:1011300011969E012B5F3F4F10E08D919081981783
:1011400011F0808311E03196A217B307B1F701C007
:1011500010E00E9465040DC070E06B5E7C4F8091D2
:101160001D0390E08B5E9C4F0E94801A0E941A081B
:1011700010E0812F0F900F900F900F90DF91CF9183
:101180001F9108958F929F92AF92BF92CF92DF925C
:10119000EF92FF920F931F93CF93DF938CE6A82ECD
:1011A00081E0B82ECDE0D3E090E7E92E91E0F92E72
:1011B000912C01E010E06501F5018081F894E82FA1
:1011C000E295EF70F0E021A18F70A80102C0440FFA
:1011D000551F8A95E2F7CA01922F982B91A392A1ED
:1011E0008095892382A378940E94F507E6E6F1E0D2
:1011F00020E030E0812C4191A42FA295AF70B0E0A7
:1012000090968C9190E04F7002C0959587954A9585
:10121000E2F780FD07C0802F022E01C0880F0A94DC
:10122000EAF701C080E0882A2F5F3F4F2630310562
:1012300011F75FEFA51AB50AF60180810E94020836
:101240000E94F7078881881619F0888281E001C022
:1012500080E0982A2196EA14FB0409F0ACCF609153
:101260001E0370E06B5E7C4F292D44E08DE093E01F
:101270000E944E090E945C08992011F081E090E0E4
:10128000DF91CF911F910F91FF90EF90DF90CF9062
:10129000BF90AF909F908F9008950895FF920F9305
:1012A0001F93CF93DF938C01F62ED72FC42F2223C9
:1012B00049F081E08093F5010E94C0299093F401E8
:1012C0008093F3018091F5018823C1F08091F301AF
:1012D0009091F4010E94D829069780F0EF2DFD2F00
:1012E000D8014C2F50E0CD01801B910B841795073E
:1012F0001CF48D918193F7CF1092F501DF91CF917E
:101300001F910F91FF900895CF938091F601811165
:1013100016C0C2E30E94CF3181110AC08FE39CE95D
:101320000197F1F700C00000C150A1F782E001C0B1
:1013300081E08093F601823011F40E94CA3181E08D
:101340009091F601913009F080E0CF9108950C94CE
:1013500084090E94A709809304018091040168E038
:10136000882311F080E001C088E00E94410B0E94B8
:10137000840981110C94251A08950E948409811111
:1013800002C00C942B1A08950F931F9341E050E074
:1013900060E070E08A019B0104C0000F111F221F52
:1013A000331F8A95D2F7C901B8010E947D251F918C
:1013B0000F910C9487218B3109F468C058F58B305C
:1013C00009F486C078F4863009F445C020F48530ED
:1013D00009F44BC07FC0873009F44AC0883009F453
:1013E00077C078C0803109F464C068F48E3009F0A9
:1013F00071C08091FF0282FB222720F991E09227A1
:1014000090FB82F94CC0863109F462C0893109F43D
:101410005FC060C08A32E1F060F4873209F455C0E1
:1014200028F48E3108F456C08D5150C08932E9F04D
:1014300051C0833450F48A3308F045C0853309F431
:1014400044C0883309F444C045C08334F1F142C03C
:101450000E94E5283DC08091FF02817F8E7F8093AE
:10146000FF0281E08093F70108950E94680430C074
:101470008091FF02982F9095917090FB80F9809356
:10148000FF02911125C0897F877F10C08091FF02E4
:1014900081FB222720F991E0922790FB81F980932C
:1014A000FF029923A9F08091FF0281608093FF02DF
:1014B0000FC08091FF0283FB222720F991E0922741
:1014C00090FB83F9ECCF895301C080E00E94C409EE
:1014D00081E0089580E0089580E008950C946C0AFE
:1014E000CF93C82F8091F701882319F0813031F014
:1014F0002BC00E947627823249F504C00E947627CD
:10150000823261F48C2F0E946E0A811104C08C2FEC
:101510000E94DB0917C081E090E014C08C2F0E946C
:101520006C0A81110EC0C43149F018F4CB3049F077
:101530000FC0C93219F0C83321F00AC01092F70168
:1015400007C081E0817006C01092F70180E002C000
:1015500080E0F8CFCF910895EF92FF920F931F9301
:10156000CF93DF938B01682F11110AC0442329F018
:10157000E82FF0E0E458FB4F6491762F862F75C07A
:10158000212F30E0E82FF0E0442321F0E458FB4F16
:10159000E491F0E046E0049FC0011124CFEFD0E0D9
:1015A000BE010E94E1314BEA4603C001479F900D06
:1015B0001124800F911D800F911D982F990F890F75
:1015C000AE01421B530B4E9FD0014F9FB00D5E9F4B
:1015D000B00D11249B2F189FA0011124452F5527D2
:1015E0008E01041B150B0E9FA0010F9F500D1E9F17
:1015F000500D11247E01E81AF108E29E8001E39E5D
:10160000100DF29E100D1124212F3327C21BD30B76
:10161000CE9F9001CF9F300DDE9F300D11246230A0
:101620007105A9F048F46115710569F06130710523
:10163000C9F48B2F752F0DC06430710581F058F0FF
:101640006630710579F47E2F8B2F932F0DC0832F79
:101650007B2F9E2F09C08E2F7B2F952F05C08E2F9D
:10166000732F02C07E2F852F692FDF91CF911F919D
:101670000F91FF90EF90089541E00E94AC0A089509
:101680000895E8E0F1E08083618308950E943C0BB7
:101690000895CF93DF93762FE901682F842F0E945E
:1016A000460B798368838A83DF91CF910895809177
:1016B0001F03282F269530E02115310519F481707C
:1016C000826005C02B32310524F0817084658093DF
:1016D0001F03089588E090E00C94DA32CF92DF92F5
:1016E000EF92FF926B017C010E94570BB701A6019C
:1016F00088E090E0FF90EF90DF90CF900C94F8326C
:1017000060911F0370912003809121039091220327
:101710000C946E0BEFE1F3E083E0808311828FEF96
:10172000828383831482A5E5B2E012968C9112978E
:10173000836012968C9360817181828193810C9475
:101740006E0B80911F0380FF02C08695089580E094
:10175000089590912303933018F49F5F909323038F
:10176000882351F060911F03709120038091210321
:10177000909122030C946E0B089581E00C94A90BB8
:1017800090912303992319F0915090932303882378
:1017900051F060911F03709120038091210390917B
:1017A00022030C946E0B089581E00C94C00B809181
:1017B0002303089580932303662351F060911F0350
:1017C0007091200380912103909122030C946E0B61
:1017D000089560E00C94DA0B8091200308958091C5
:1017E0002103089580912203089570E00C94F4136E
:1017F000CF92DF92EF920F931F93CF93DF93CDB7EA
:10180000DEB7E0970FB6F894DEBF0FBECDBF609194
:10181000090180911F0380FF0AC0ECE6F4E0AE01ED
:101820004F5F5F4F8E010F5C1F4FCA0114C0809144
:101830000A0190910B01891780F7E82FF0E09F01D2
:10184000220F331FE20FF31FEC5DFC4F1182108259
:1018500012828F5FF0CF249130E0D901AA0FBB1F15
:101860002A0F3B1FD901AC5DBC4FCD90DD90EC90B1
:10187000DA01CD92DD92ED92AD013196A017B1075C
:1018800051F720910801B3E02B9F800D911D112489
:101890000E94F50BE0960FB6F894DEBF0FBECDBFE9
:1018A000DF91CF911F910F91EF90DF90CF9008952E
:1018B00090911F0390FF16C090910A0120910B0197
:1018C000921770F4E92FF0E0DF01AA0FBB1FEA0FB7
:1018D000FB1FEC5DFC4F8183608342839F5FF0CFF1
:1018E0000C94F80B0895CF93DF9300D01F92CDB7DF
:1018F000DEB790911F0390FF0AC09E012F5F3F4FFC
:101900000E94490B4B8169818A810E94580C0F907B
:101910000F900F90DF91CF910895CF93DF93EC015B
:10192000EC81F0E0E959FC4F4491EFE1F3E0628192
:1019300081810E94730C8C818F5F8C83DF91CF91AA
:101940000895CF93DF93EC01EFE1F3E043816281EF
:101950008C810E94730C8C818F5F8C83DF91CF917F
:1019600008950F931F93CF93DF9300D01F92CDB7AD
:10197000DEB78C018091F80181110AC09E012F5FB2
:101980003F4F4FEF6FEF0E94490B8A818093F80120
:10199000F8018481813051F028F0823061F4409167
:1019A000F8010AC08091F80140E007C06091F80199
:1019B00040E080E003C040E080E060E00E94580C1E
:1019C000F801848190E0019663E070E00E94F531B7
:1019D00084830F900F900F90DF91CF911F910F9103
:1019E0000895AF92BF92CF92DF92EF92FF920F9342
:1019F0001F93CF93DF9300D01F92CDB7DEB7182F80
:101A0000F62E042FE22E90911F0390FF7EC0E92F47
:101A1000E695AE2FB0E0AC58BE4F8C918093550246
:101A20009E7F923061F49E012F5F3F4F812F0E9475
:101A3000490B4B8169818A810E94580C43C08230D6
:101A400019F4009122033EC0863019F4109120034E
:101A500039C08930D9F38931A9F5E9518E2F8170C8
:101A6000D82EE695F0E0E959FB4FA590B490C12C33
:101A7000BB2460910C01C61618F52C2D30E0A29EF7
:101A8000C001A39E900DB29E900D112470E00E94A3
:101A9000E131812FD11002C0860F01C0861B9091C9
:101AA0000A01290F311DA901440F551F240F351FAD
:101AB0002C5D3C4F402F6F2D0E94490BC394D9CF12
:101AC0000E94F80B80912003181308C08091210315
:101AD000F81204C080912203081729F08091570260
:101AE00082608093570210932003F09221030093A9
:101AF0002203EE2051F060911F037091200380912A
:101B00002103909122030E946E0B0F900F900F9073
:101B1000DF91CF911F910F91FF90EF90DF90CF90C9
:101B2000BF90AF900895EFE1F3E09181282F4381BA
:101B3000628188E0890F0C94F10C81E00C94930D84
:101B4000EFE1F3E09181282F4381628188EF890FD3
:101B50000C94F10C81E00C94A00DEFE1F3E06281B4
:101B600021E1620F08F46FEF282F438181810C94EB
:101B7000F10C81E00C94AD0DEFE1F3E0628121E125
:101B8000621B08F460E0282F438181810C94F10CE2
:101B900081E00C94BC0DEFE1F3E0438121E1420FC1
:101BA00008F44FEF282F628181810C94F10C81E0C1
:101BB0000C94CB0DEFE1F3E0438121E1421B08F4EB
:101BC00040E0282F628181810C94F10C81E00C941B
:101BD000DA0D20E00C94F10CFF920F931F93CF933A
:101BE000DF93EC01F12C0FEF10E060910C01F61681
:101BF000F0F480910A012F2D30E0280F311DC9012A
:101C0000880F991F280F391F2C5D3C4F70E0C801C9
:101C10000E94F531962F8C8140912203609121031F
:101C2000F99E800D11240E94490BF394DECF0E948F
:101C3000F80B9A818C8190FF02C08F5F01C08150A8
:101C40008C83DF91CF911F910F91FF9008959F9208
:101C5000AF92BF92CF92DF92EF92FF920F931F93BA
:101C6000CF93DF93EC018A8180FF03C0BB24BA9439
:101C700002C0BB24B3948C8181110DC081E0B812E5
:101C800006C080910C0181508093FA0102C010922D
:101C9000FA0181E08C83A12C80910C01A81608F038
:101CA00041C080910A01CA2CD12C8601080F111D58
:101CB000C801880F991F080F191F0C5D1C4FF801F0
:101CC00011821082128234E0E32EF12C912C80914B
:101CD000FA01890D813114F08F7005C087FF03C0B0
:101CE00090910C01890F082E000C990BC816D9068B
:101CF00091F4809122038E9DA0018F9D500D11249F
:101D00005595479555954795980160912103809188
:101D100020030E94490B9B0CF1E0EF1AF108B9F681
:101D2000A394BACF0E94F80B8091FA0191E0B91206
:101D30000EC0811107C080910C0181508093FA017F
:101D40001C820FC081508093FA01BC820AC090E0CF
:101D5000019660910C0170E00E94F5318093FA01C8
:101D60008C83DF91CF911F910F91FF90EF90DF90C7
:101D7000CF90BF90AF909F9008951F93CF93DF9324
:101D8000EC018C81811109C081E08C831092F901F2
:101D900092E0909307018093060180910A0190914F
:101DA0000B01891770F4E82FF0E09F01220F331F19
:101DB000E20FF31FEC5DFC4F1182108212828F5FE5
:101DC000F0CF10E060910C011617C0F5E12FF0E0A4
:101DD00070E0CF010E94F53120910A01820F20911D
:101DE000F901022E000C330B90E0E217F307CCF060
:101DF00020910701022E000C330B2E173F078CF0A9
:101E00009C01220F331F820F931F9C012C5D3C4FBE
:101E10004091220360912103809120030E94490B8D
:101E20000BC0FC01EE0FFF1F8E0F9F1FFC01EC5D2E
:101E3000FC4F1182108212821F5FC4CF0E94F80BE8
:101E4000809106012091F901280F2093F9019091CA
:101E50000701980F9093070119165CF4022E000CED
:101E6000330B40910C0150E04150510924173507C4
:101E700034F0819580930601813009F41C82DF9152
:101E8000CF911F9108958F929F92AF92BF92CF9260
:101E9000DF92EF92FF920F931F93CF93DF938C010A
:101EA000FC014481C42FD0E09E01DE010E9440323B
:101EB0009B01AC010E9456326B017C01E0E2F0E034
:101EC000EC1BFD0BA5E5B0E09B01AC010E94563276
:101ED0004B015C019F01DF010E9438329B01AC0184
:101EE0000E9461329B01AC012C0D3D1D4E1D5F1DFA
:101EF000C501B4010E940932C22FD22F2A3228F420
:101F0000F3E02F9F900111240DC025E530E02C1B3C
:101F10003109C901880F991F280F391F37FF02C0E7
:101F20002F5F3F4F35952795C22FC095F12C85E542
:101F3000E82EED1A80910C01F816C8F4F1FC02C0ED
:101F40008E2D01C08D2F90910A012F2D30E0290F89
:101F5000311DA901440F551F240F351F2C5D3C4F27
:101F60004C2F609121030E94490BF394E3CF0E9410
:101F7000F80BF8018481811102C091E003C0803226
:101F800019F49FEF9093050190910501890FF801D5
:101F90008483DF91CF911F910F91FF90EF90DF909D
:101FA000CF90BF90AF909F908F9008950F931F9305
:101FB000CF93DF93EC0100E010E080910C01282F1B
:101FC00030E00217130724F590910A019801290FB8
:101FD000311DA901440F551F240F351F2C5D3C4FA7
:101FE000869590E04C81081719071CF4442331F0C2
:101FF00002C0411103C04091220301C040E0609142
:102000002103809120030E94490B0F5F1F4FD5CF02
:102010000E94F80B8C8190E00196817099278C8347
:10202000DF91CF911F910F9108957F928F929F9290
:10203000AF92BF92CF92DF92EF92FF920F931F93D6
:10204000CF93DF93FC018280748081E08483E7E694
:10205000F3E09490E6EEF3E0E491A12CF5E0BF2EDE
:10206000CC24CA94D12CE9190E2F10E080910C01D8
:10207000A81608F0A2C0EA2CF12C22E0281568F07E
:10208000BE9CF001BF9CF00D1124E250FE4F8091E8
:102090002003808380912103818371100AC0BE9C3C
:1020A000F001BF9CF00D1124E250FE4F138212820A
:1020B0006AC0BE9CE001BF9CD00D1124C250DE4F0F
:1020C0008B818823F9F081508B832FEF829FC00191
:1020D00011246C8170E00E94E131FB01FF27E95976
:1020E000FC4F8491E82FE9192FEFE29FC0011124E2
:1020F000B8010E94E13180912203689FB001112450
:102100007A8341C00E94B53220912203269521583E
:1021100030E0A901440F551F322F2227240F351F0D
:10212000232F33278217930774F582E0881588F4EC
:102130000E94B532B6010E94F53188830E94B53203
:10214000209121032695622F70E00E94F531280F1F
:102150002983BE9CF001BF9CF00D1124E250FE4F7C
:10216000128280912203843120F0893C18F088EC9F
:1021700001C084E1BE9CF001BF9CF00D1124E2502F
:10218000FE4F8483838380910A019701280F311DBC
:10219000C901880F991F280F391F2C5D3C4FBE9C29
:1021A000F001BF9CF00D1124E250FE4F428161818D
:1021B00080810E94490BA39459CFDF91CF911F9149
:1021C0000F91FF90EF90DF90CF90BF90AF909F90D6
:1021D0008F907F900C94F80B809157020895109285
:1021E0005702089525E0EFE1F3E0DC0101900D9244
:1021F0002A95E1F7209155023091560240915702FD
:10220000FC01258336834783089560911F036695FB
:1022100070E04BE050E08DE091E00E94C532892BE8
:1022200019F481E0809356020E944E2A90934F0247
:1022300080934E02809157028460809357020895E4
:10224000E5E5F2E0118282818460828308959091B5
:102250001F0390FF3AC09170811102C0926006C0C6
:102260008B3210F0946502C0880F982B90931F0357
:1022700080915702816080935702662351F06091EC
:102280001F037091200380912103909122030E94EB
:102290006E0B60911F03669570E04BE050E08DE09F
:1022A00091E00E94C532892B19F00E94201102C0D2
:1022B0000E94051181E080935102409122036091B8
:1022C0002103809120030C94E90D0895682F9091CB
:1022D0001F03969581E0890F8B3208F081E00C9402
:1022E000271181E00C946611682F90911F03969539
:1022F0008FEF890F09F48AE20C94271181E00C9486
:10230000741161E00C942711EFE1F3E080818160AA
:10231000808386950C94811160E00C942711EFE185
:10232000F3E080818160808386950C948C11EFE1CD
:10233000F3E080818E7F80836081718182819381CF
:102340000E946E0B0E942011E5E5F2E0828181601F
:1023500082832FEF80E792E0215080409040E1F7A8
:1023600000C000000C94F80B80911F0380FD0C94BA
:1023700097110C948411EFE1F3E080818E7F8083CC
:102380000E942011E5E5F2E08281816082832FEFD7
:1023900080E792E0215080409040E1F700C00000CB
:1023A0000C94F80B1F93CF93DF93EC01162F8F81C2
:1023B00080FF0FC0888180FF0AC080911F03816069
:1023C00080931F03888186950E94271102C00E9476
:1023D000BB118F8181FF06C0212F4B816A818981CA
:1023E0000E94F10C8F8182FF08C08E81882319F032
:1023F0000E94051102C00E9420118F8183FF03C03B
:1024000081E080935102DF91CF911F9108958091D7
:102410005402811133C00E943D28811104C00E94E2
:10242000E5280E948A0B0E946A0B60931F03709339
:1024300020038093210390932203809157028360AD
:10244000809357026E7F61F40E948A0B0E946A0B90
:1024500060931F03709320038093210390932203C2
:102460000E94570B0E94201180911F0380FF03C020
:1024700086950E948C1181E0809354020895EF921A
:10248000FF920F931F93CF93DF938091560288237F
:1024900009F4BBC080915502E0911F03E695E81B4B
:1024A000E0935002823049F4F0E0ED59FC4FE491A2
:1024B000CE2FD0E00DE81CE059C0863049F4F0E0A2
:1024C000E05AFC4FE491CE2FD0E001EA1CE04EC070
:1024D000893051F4E695F0E0E35AFC4FE491CE2FB9
:1024E000D0E00CEE1DE042C08F3051F4E695F0E0F4
:1024F000E65AFC4FE491CE2FD0E007E21EE036C052
:10250000853149F4F0E0E95AFC4FE491CE2FD0E058
:102510000DEB1EE02BC08831D9F0833239F4E5E5AC
:10252000F3E0C591D49101EB1CE020C08432A9F006
:102530008532C1F48E2F63E00E94D531E92FF0E09F
:10254000EE5AFC4FE491CE2FD0E005E110E10EC031
:10255000C8E2D0E003E41FE009C0C4EFD1E006ED1B
:102560001FE004C0C0EDD7E000E41BE08091510201
:10257000882361F0109251020E944E2A90934F02DC
:1025800080934E0210925302109252020E944E2AE1
:10259000E0914E02F0914F029C012E1B3F0B2F3F0A
:1025A0003F4798F52091FD012223B1F01092FD01E3
:1025B0002091FB013091FC01821B930B8F3F9F47C1
:1025C00058F4205D3A483093FC012093FB01809140
:1025D0005702886080935702E0905202F0905302B5
:1025E000EC0FFD1FF0934F02E0934E028EE492E059
:1025F000F80109958091520290915302892B29F498
:10260000EF2819F081E08093FD01DF91CF911F91B8
:102610000F91FF90EF900895882311F0FA0101C007
:10262000FB010994CF93DF93C82FD62F0E94A10BF3
:102630008C1740F00E94A10B8D1720F4DF91CF91F1
:102640000C9471118C2FDF91CF910C9481111F93F9
:10265000CF93DF93FB0112811111C1C0EC010E94E5
:1026600076278272CC3CFCE5DF0709F49AC008F0BB
:1026700043C0C63CECE5DE0709F47FC0D8F4C33C98
:102680009CE5D90709F46DC038F4C23CDC4509F07B
:10269000A5C00E94B411A3C0C43C9CE5D90709F4AD
:1026A00065C0C53CDC4509F099C04AEA5DE06DE9CA
:1026B0007DE060C0C93CFCE5DF0709F468C070F448
:1026C000C73CECE5DE0709F45DC0C83CDC4509F019
:1026D00085C049EB5DE068EC7DE04CC0CA3C9CE500
:1026E000D90709F459C0CB3CDC4509F077C044ED6B
:1026F0005BE06DEB7BE03EC0C13DFCE5DF0709F42C
:102700005DC098F4CE3C9CE5D90709F451C008F4AB
:102710004DC0CF3CFCE5DF0709F44DC0C03DDC45B2
:1027200009F05CC06EE089E056C0C43D9CE5D90765
:1027300009F44AC058F4C23DFCE5DF0709F441C082
:10274000C33DDC4509F04AC088E142C0C53D9CE577
:10275000D907E9F1CD35DD4509F040C06AE285E2EF
:102760003AC04EE751E161E771E104C041E751E150
:102770006EE771E10E940C1332C04DE95DE06AEA38
:102780007DE0F8CF48EC5DE069EB7DE0F3CF46EE0D
:102790005DE067ED7DE0EECF47ED5DE066EE7DE06C
:1027A000E9CF4DEB5BE064ED7BE0E4CF81E010C06E
:1027B00065E082E010C068E086E00DC064E18FE073
:1027C0000AC067E185E107C062E289E104C083E2F3
:1027D0000E94811104C00E94121301C011E0812FD8
:1027E000DF91CF911F910895539A2BB1277F3BB171
:1027F00038604FB7F894FC01CB01880F991F680F20
:10280000791F6E0F7F1FE617F70789F0819198E017
:102810003BB9000000C087FF2BB9880F000000C043
:1028200000C000C02BB900C09A9591F7ECCF4FBF04
:102830008FE594E00197F1F700C0000008950C9433
:10284000A2032098289A52985A9A83B181704A9983
:1028500002C090E001C092E0892B80935D029091CC
:10286000040181E0982790935902891B80935802B4
:102870000895CF93E0915D02EE0FEE0FE0935D02BD
:1028800043B1842F817090E049B142FB222720F9A7
:1028900030E042FF02C022E030E0822B932B8E2BEF
:1028A00080935D02C09159028F70E82FF0E0E156ED
:1028B000FE4F908180915C02890F80935C0284308E
:1028C0006CF0EC2FF0E0E65AFD4F80818F5F808343
:1028D00060E08C2F0E941F1421E001C020E0809155
:1028E0005C028D3F64F4EC2FF0E0E65AFD4F8081EE
:1028F0008150808361E08C2F0E941F1421E0809121
:102900005C02082E000C990B64E070E00E94F53127
:1029100080935C02822FCF910895E0915902F0E0FC
:10292000E65AFD4F2081FC0120830895FF920F930A
:102930001F93CF93DF93D09158020D2F10E0065ACA
:102940001D4FFC01C081F8018081C81BFC2E80E076
:102950001F145CF4FA94F80180818F5F808360E03B
:102960008D2F0E941F1481E0F3CF9C2FC7FD90E0B4
:10297000C91BCC2359F0CF5FF8018081815080833F
:1029800061E08D2F0E941F1481E0F3CF882339F07E
:10299000DF91CF911F910F91FF900C94C11CDF919B
:1029A000CF911F910F91FF90089583E290E00E94D4
:1029B000D232813281F484E290E00E94D2328730B8
:1029C00051F485E290E00E94D23291E0883209F021
:1029D00090E0892F01C080E081700895CF93C82FC7
:1029E000811102C06FEF01C061E283E290E00E94BA
:1029F000E632C11102C06FEF01C067E084E290E0EF
:102A00000E94E632C11102C06FEF01C068E285E2A8
:102A100090E0CF910C94E63280E00E94EE140C948A
:102A20003728089586E290E00E94D232682F70E045
:102A300080E090E0089586E290E00C94E6320E94F7
:102A400011150E94D51481110CC060E070E0CB011B
:102A50000E941B150E94BD160E949C1781E00C94D9
:102A6000EE140895CF93FB01C281CC23E9F09C01C1
:102A700022513F452031310520F482510E94AC178C
:102A80000CC08031FFE59F0751F481E00E94DD25F5
:102A900043E062E081E00E944F04C0E018C0813151
:102AA0009F45A9F482E0F2CF8031EFE59E0711F453
:102AB00081E004C081319F4549F482E00E94FE25F7
:102AC00043E062E081E00E944F0401C0C1E08C2F2E
:102AD000CF9108952FEFFC0120830895CF93DF93CA
:102AE000EC018881813889F028F48038A1F40E94B3
:102AF000F20B10C0823861F0833869F40E94EC0B4D
:102B000089830E94EF0B8A8306C00E94A10B02C03A
:102B10000E94D70B8983DF91CF910895CF93DF93E4
:102B2000EC0188818138B1F058F4803851F5D981B1
:102B30000E94EF0BC82F0E94EC0B4D2F6C2F1DC075
:102B40008238B1F08338E9F40E94F20B482F6A8191
:102B5000898113C089810E948C118981811104C0EF
:102B6000DF91CF910C94BB11DF91CF910C948F1119
:102B70008981DF91CF910C94E90BDF91CF910C9477
:102B8000E90DDF91CF910895EF92FF920F931F937C
:102B9000CF93DF93EC01062F0196E8814E2F50E092
:102BA000FA013197E331F10508F09AC0EA5AFF4F74
:102BB0000C942B32198289E056C08981823039F019
:102BC000833061F0813029F50E94CC2902C00E9437
:102BD00012159A838B837C836D8384C07E0182E08F
:102BE000E80EF11C10E0812F0E94EA07F7018193A3
:102BF0007F011F5F1830B9F775C08981823049F4B1
:102C00006A817B818C819D810E9431320E941B15DB
:102C100069C0602FCE010E946A1564C04B816A8131
:102C200089810E948F169C838D835CC02C813D819D
:102C30003227232732274B816A8189810E94A81677
:102C400051C00E94BD164EC00E948E154BC00E94FE
:102C50006E1548C00E94800B45C00E944F1724C0CB
:102C60000E94511799838A833DC06B8170E08981EE
:102C70009A81AE014C5F5F4F9827892798270E9461
:102C8000541730C06B8170E089819A81AE014C5F2E
:102C90005F4F9827892798270E94791723C00E94A1
:102CA0009C1720C00E947C1689831CC06B8170E039
:102CB00089819A81AE014C5F5F4F982789279827B9
:102CC0000E94FC160FC06B8170E089819A81AE0171
:102CD0004C5F5F4F9827892798270E94201702C0D2
:102CE0008FEF8883602FCE01DF91CF911F910F91DD
:102CF000FF90EF900C94EA2A84E0089550E0440F8E
:102D0000551F2CE0629F400D511D11249A0160E671
:102D1000869F200D311D1124C901879608950F93B8
:102D20001F93CF93DF930E947E168C010E94D232B4
:102D3000C82FD0E0DC2FCC27C80101960E94D232E8
:102D40009E01282BC901DF91CF911F910F9108950A
:102D50000F931F93CF93DF93122F032F0E947E16A2
:102D6000EC01602F0E94E632612FCE010196DF91C7
:102D7000CF911F910F910C94E632AF92BF92CF92F8
:102D8000DF92EF92FF920F931F93CF93DF93A12CCB
:102D9000E12CF12CB12C00E010E0C0E0D0E06701A4
:102DA000C00ED11EFE01EE0FFF1FEC0DFD1DEE5DEE
:102DB000FE4F259134914C2F6B2D8A2D0E94A81621
:102DC0002196C630D10571F7045F1F4FB39488E098
:102DD000B812E3CF80E6E80EF11CA39484E0A812B9
:102DE000D9CFDF91CF911F910F91FF90EF90DF909E
:102DF000CF90BF90AF900895EF92FF920F931F93E3
:102E0000CF93DF93EA017A01E60EF71E8C01C80129
:102E10008796CE15DF0569F0003821E0120720F40F
:102E20000E94D232888301C0188221960F5F1F4F03
:102E3000EECFDF91CF911F910F91FF90EF9008950A
:102E4000EF92FF920F931F93CF93DF93EA017A01E2
:102E5000E60EF71E8C01C8018796CE15DF0559F0E6
:102E6000003821E0120718F468810E94E6322196AA
:102E70000F5F1F4FF0CFDF91CF911F910F91FF9008
:102E8000EF900895462F843038F4783028F4663077
:102E900018F4672F0C948F1680E090E0089580E17D
:102EA000089589E592E00895EF92FF920F931F93A2
:102EB000CF93DF93EA017A01E60EF71E8C01C80179
:102EC00089559E4FCE15DF0569F0093522E01207BE
:102ED00020F40E94D232888301C0188221960F5FAD
:102EE0001F4FEDCFDF91CF911F910F91FF90EF908A
:102EF0000895EF92FF920F931F93CF93DF93EA0110
:102F00007A01E60EF71E8C01C80189559E4FCE1539
:102F1000DF0559F0093522E0120718F468810E9494
:102F2000E63221960F5F1F4FEFCFDF91CF911F91B8
:102F30000F91FF90EF900895CF93DF93C7EAD1E010
:102F400060E0CE010E94E6322196C11584E0D807E8
:102F5000B9F7DF91CF910895DF92EF92FF920F932F
:102F60001F93CF93DF9300D000D0CDB7DEB7F82EFC
:102F70008FE08F15E8F18FEF93E00E94D23281113C
:102F800037C007EA11E0FF2069F0011584E0180757
:102F900079F1C8010E94D232811101C0FA940F5F09
:102FA0001F4FF1CF19821A821B821C82DD24D39419
:102FB00078018FEFE81AF80AC8010E94D23289839B
:102FC0001A828823A9F09FEF980F933058F48A83D0
:102FD000D9820E5F1F4FC7010E94D2328B83882394
:102FE00039F07801CE0101960E94A6058701E0CF55
:102FF0000F900F900F900F90DF91CF911F910F9135
:10300000FF90EF90DF9008950F931F93CF93DF937E
:10301000C42FD22FFC0182818823C9F04093600223
:103020000E94C02990935F0280935E0280E28C0F21
:10303000883008F057C0C77081E001C0880FCA957A
:10304000EAF7DF91CF911F910F910C94091F8091A6
:103050006002481330C080915E0290915F020E942E
:10306000D829883C910538F510E21D0FCD17B9F02D
:1030700080E28C0F883040F4C77081E001C0880F77
:10308000CA95EAF70E94101F183028F581E09D2F9D
:10309000977001C0880F9A95EAF70E94091F802F48
:1030A0000E94001F1830F0F4D77081E001C0880F33
:1030B000DA95EAF70AC080E28C0F883098F4C7707E
:1030C00081E001C0880FCA95EAF7DF91CF911F9187
:1030D0000F910C94101F802FDF91CF911F910F91B2
:1030E0000C94001FDF91CF911F910F9108950F93C2
:1030F0009C01CB01233F4CE5340731F188F4283D96
:10310000FCE53F07D9F0293D4CE5340779F1273D2F
:103110003C45A9F506E221EE41EE67ED7CE52BC0CA
:10312000253FFCE53F07E1F0A8F0263F3C4539F597
:1031300007E225EE46EE66EF7CE51DC007E225EED0
:1031400045EE68ED7CE517C006E221EE40EE63EF48
:103150007CE511C007E225EE44EE64EF7CE50BC090
:1031600006E221EE42EE65EF7CE505C008E221E0D3
:1031700045EE69ED7CE50E94041880E008C0FC0182
:103180008281882319F01092600201C081E00F91C2
:103190000895CF93DF93EC01FB018281882309F42A
:1031A0001FC1C230FCE5DF0708F41BC1C6319CE536
:1031B000D90738F09E012A5F3C452930310508F0D7
:1031C00010C10E94502890930C0380930B03C031D0
:1031D000ECE5DE0709F4C3C008F041C0C8308CE557
:1031E000D80709F49AC0F0F4C430ECE5DE0709F41E
:1031F00087C068F4C2308CE5D80709F477C0C330C3
:10320000DC4509F0E3C080910B03826076C0C630D4
:10321000ECE5DE0709F46EC008F07BC080910B037B
:1032200088606BC0CC308CE5D80709F485C068F4A1
:10323000CA30ECE5DE0709F474C008F079C00E94DA
:10324000872180910B03806858C0CE308CE5D80769
:1032500009F476C008F07FC080910B038BC0CB3F90
:10326000ECE5DE0709F44FC018F5C3318CE5D8074B
:1032700009F47DC078F4C131ECE5DE0709F473C0D0
:10328000C231DC4509F0A2C00E94872180910B0366
:103290008F7733C0C5318CE5D80709F472C008F4C4
:1032A00086C0CA3FDC4509F091C080910C033EC046
:1032B000CF3FFCE5DF0709F45FC058F4CD3F9CE544
:1032C000D90709F444C008F43FC080910C03826020
:1032D0002DC0C130FDE5DF0709F475C008F45DC0FD
:1032E000C230DD4509F072C080E06EC080910B03F2
:1032F000816003C080910B03806180930B0366C0E3
:1033000080910B0311C080910C03826080930C03A9
:103310005DC080910B038062F0CF80910B038064CD
:10332000ECCF80910B0388608460E7CF8160EECFA3
:1033300080910B038E7FE1CF80910B038D7FDDCFDA
:1033400080910B03877FD9CF80910C0318C08091A7
:103350000C038D7FDBCF80910B038F7ECECF8091CE
:103360000B038F7DCACF80910B038F7BC6CF8091DB
:103370000B03877F8B7FC1CF80910C038D7F8E7F66
:10338000C5CF80910B0382FB222720F991E0922781
:1033900090FB82F990FB83F9B0CF80910C03982FBA
:1033A000909591708E7F892B90FB81F9AFCF0E9411
:1033B000872180910B0387FB222720F991E0922738
:1033C00090FB87F99ACF81E00E94E72880910B0358
:1033D00090910C030E9461280E94872180E001C027
:1033E00081E0DF91CF910895CF93DF9386319C45A3
:1033F00041F5EB010E947627982F8A8120912801C0
:1034000030912901882379F09A7A81E009F480E0EB
:1034100080936102911102C069E201C065E3C901B4
:103420000E942E290AC080916102811102C069E2C6
:1034300001C065E3C9010E9430290E94C82780E0CD
:1034400001C081E0DF91CF91089562E070E088E1F2
:1034500091E00C94011B62E070E088E191E00C9433
:103460000A1B0E94EC10882361F08DE692E00E9416
:10347000F21081E090E00E94E31B892B11F40C9480
:10348000EF10089580916C02883039F460E08DE689
:1034900092E00E94D21110926C020895CF93DF93B4
:1034A000D62FC72F0E94311A80E090E00E94E31BC4
:1034B000892B11F5ED2FFC2F80E090E0DC01A9595C
:1034C000BD4F2C912193019684309105B9F78BE67D
:1034D00092E00E9496140E94332ADC01CB010296EE
:1034E000A11DB11D8093630290936402A0936502B5
:1034F000B093660281E001C080E0DF91CF91089532
:10350000CF93DF93D62FC72F0E94421A6091630298
:103510007091640280916502909166020E94162A61
:10352000ED2FFC2F80E090E02191DC01A959BD4FE7
:103530002C93019684309105B9F78BE692E0DF91E8
:10354000CF910C948D148EE1489B02C08150E1F71D
:10355000489BFECF0895589880E28A95F1F7589AD3
:103560000895FC012AE02A95F1F790E020E080E040
:1035700031E0261779F040E14A95F1F7880F489B32
:1035800002C08160932700C0000040E14A95F1F736
:103590002F5FEFCF20E12A95F1F729B100C000009D
:1035A00030E13A95F1F7217092272081920F9083B4
:1035B0000895EF92FF920F931F93CF93DF931F9283
:1035C000CDB7DEB719828C017C01E60EF11C0E1519
:1035D0001F0559F00E94A31A68E0CE0101960E94CF
:1035E000B11AF80181938F01F2CF81E09981911195
:1035F00080E00F90DF91CF911F910F91FF90EF909E
:103600000895909377028093760260937502509AA2
:10361000589A08959093770280937602609375028A
:103620005098589AE89AE9E6F0E080818C7F808390
:103630000895615091E001C0990F6A95EAF720E082
:1036400031E0992361F0492F482319F0589A232734
:1036500001C0589840E24A95F1F79695F2CF22239F
:1036600011F0589A01C0589880E28A95F1F758985D
:103670000895FF920F931F93CF93DF93EC018C017A
:10368000060F111DC017D10741F0F9900E94AB1A27
:1036900068E08F2D0E94191BF5CFDF91CF911F910C
:1036A0000F91FF9008951F920F920FB60F92112461
:1036B0000F931F932F933F934F935F936F937F933A
:1036C0008F939F93AF93BF93EF93FF93CF93DF932A
:1036D0001F92CDB7DEB719820E94A31A67E0CE0110
:1036E00001960E94B11A382F369536953695932F4C
:1036F00096959570232F2570920F292F23709695FC
:1037000096958770920F891348C08981811145C0B1
:1037100080917502831708F440C080E18A95F1F723
:10372000589A509AA2E0AA95F1F700C0009176024B
:1037300010917702B8E03B9F000D111D112458989D
:10374000F8016581662321F0868197810E94391BEB
:103750000E94AB1AF0E1FA95F1F758985098589AF0
:1037600080E18A95F1F7D80112966C911297662341
:1037700069F013968D919C9114970E94D91AD801E3
:10378000ED91FC91811105C082E004C0D801ED915A
:10379000FC9188E080830E94A31A0F90DF91CF9163
:1037A000FF91EF91BF91AF919F918F917F916F9119
:1037B0005F914F913F912F911F910F910F900FBEED
:1037C0000F901F9018950F931F93CF93DF93209125
:1037D000750230E0281739070CF471C09C0193E0A2
:1037E000220F331F9A95E1F7C0917602D0917702AC
:1037F000C20FD31FF894509A589845E04A95F1F7B4
:103800000000982F969595708570890F982F93706A
:1038100086958695890F8901082B0E94AB1A84E052
:103820008A95F1F700C067E0802F0E94191B40E1E4
:103830004A95F1F75098589A489902C000C0FCCFB9
:1038400087E090E0489B0EC0019751F4509A589A37
:10385000E881F98181E08083789481E090E031C053
:1038600000C0F0CF6D81662381F08E819F810E9420
:10387000D91A81110AC0509A589AE881F98182E0D8
:103880008083789482E090E01CC00E94A31A80E2BA
:103890008A95F1F75898509A40E14A95F1F76A8174
:1038A000662321F08B819C810E94391B0E94AB1AF8
:1038B000E881F9811082789480E090E002C084E091
:1038C00090E0DF91CF911F910F91089590937D0229
:1038D00080937C020895E0917C02F0917D02309704
:1038E00021F00190F081E02D099480E00895E091AD
:1038F0007C02F0917D02309721F00280F381E02D6F
:103900000994089520917A0230917B022817390793
:1039100071F090937B0280937A02E0917C02F091A7
:103920007D02309721F00680F781E02D09940895FB
:1039300020917802309179022817390771F090931D
:10394000790280937802E0917C02F0917D023097B9
:1039500021F00084F185E02D099408950E94CC297E
:1039600060938F02709390028093910290939202E1
:1039700060938B0270938C0280938D0290938E02E1
:1039800008950E94CC2960938F02709390028093D7
:1039900091029093920260938702709388028093C1
:1039A000890290938A02089585B7806885BF85B79C
:1039B000806885BF08950C94840908950C94DD1CDB
:1039C0000C94DD1C0C94E01C0C94DD1C0C94E41C89
:1039D0000C94DD1C0E94D41C85E398E20E947B2A93
:1039E0000E94E81C0C94E61C0E94DE1C0C94DD1C5A
:1039F0000E94B7290E940D2A0E941C080E941F15D0
:103A00000E9407120E9421140C94E21C9F92AF9214
:103A1000BF92CF92DF92EF92FF920F931F93CF93BB
:103A2000DF93CDB7DEB72A970FB6F894DEBF0FBE8F
:103A3000CDBF0E94C20881110E94AE1C8FE7A82E44
:103A400082E0B82E00E010E0902E802F0E94EA075E
:103A5000D82EF501C1905F01C826B1F40F5F1F4F4A
:103A60000830110589F78FEF89838A831B820E94B2
:103A7000C0298160782F9D838C8349815A816B8115
:103A80008D810E94A91D2FC08091FF0281FD0E949F
:103A9000F007E12CFF24F3948C2D8F21F1F00E948C
:103AA000DB1C882399F0EE829F82DF2081E009F4FD
:103AB00080E088870E94C0298160782F9A87898753
:103AC0004E815F8168858A850E94A91DF801E158B1
:103AD000FD4F8081F826F08206C0E394FF0CF6E0EB
:103AE000EF12DACFBBCF0E943F120E94391481112E
:103AF0000E94C11C0E946B1C90917E028917B9F034
:103B00000E946B1C80937E022A960FB6F894DEBF4B
:103B10000FBECDBFDF91CF911F910F91FF90EF901E
:103B2000DF90CF90BF90AF909F900C94B0052A96F5
:103B30000FB6F894DEBF0FBECDBFDF91CF911F91BE
:103B40000F91FF90EF90DF90CF90BF90AF909F903C
:103B50000895DF92EF92FF920F931F93CF93DF931D
:103B6000CDB7DEB72B970FB6F894DEBF0FBECDBF33
:103B7000F42E052F162FE72ED82E61110E949627BE
:103B8000FE01319686E0DF011D928A95E9F77E2DD0
:103B90004F2D502F612F8D2D9E810E9440242B96FA
:103BA0000FB6F894DEBF0FBECDBFDF91CF911F914E
:103BB0000F91FF90EF90DF900895FC01808191813B
:103BC0000E9416270895CF93882309F4A1C0C82F17
:103BD0008238C1F40E946B1C81FD9AC069E3809118
:103BE0002801909129010E942E290E94C8272FEFB9
:103BF00081EE94E0215080409040E1F700C0000049
:103C000069E319C0833801F50E946B1C80FD80C0F8
:103C100063E580912801909129010E942E290E943C
:103C2000C8272FEF81EE94E0215080409040E1F7CB
:103C300000C0000063E580912801909129010E9455
:103C40003029CF910C94C8278438C1F40E946B1C92
:103C500082FD5EC067E480912801909129010E9455
:103C60002E290E94C8272FEF81EE94E0215080403A
:103C70009040E1F700C0000067E4DDCF8CEF8C0FCF
:103C8000813AF8F48C2F0E94700A811141C06C2F88
:103C900080912801909129010E94F828882349F0F9
:103CA0006C2F80912801909129010E9430290E9457
:103CB000C8276C2F80912801909129010E942E29FC
:103CC000C0CF80E28C0F883048F4C77081E001C01B
:103CD000880FCA95EAF70E947927B3CFEBE5EC0F7E
:103CE000E33040F4F0E0E352FE4F808190E0CF916A
:103CF0000C94821CC85AC73158F4EC2FF0E0EE0F38
:103D0000FF1FE155FE4F80819181CF910C94981C4B
:103D1000CF910895882309F45BC0682F823879F425
:103D20000E946B1C81FF54C069E38091280190912F
:103D300029010E942E290E94C82769E310C08338F8
:103D4000B1F40E946B1C80FF43C063E580912801A1
:103D5000909129010E942E290E94C82763E5809135
:103D60002801909129010E9430290C94C827843899
:103D700079F40E946B1C82FF2BC067E480912801BC
:103D8000909129010E942E290E94C82767E4E7CF5D
:103D90008CEF860F813A18F380E2860F883048F462
:103DA000677081E001C0880F6A95EAF70E947F275B
:103DB000DCCF8BE5860F833020F480E090E00C941C
:103DC000821C685A673120F480E090E00C94981CC3
:103DD00008951F93CF93DF93182FEB010E94E31DEB
:103DE000209741F08FE99FE00197F1F700C00000B4
:103DF0002197F6CF812FDF91CF911F910C948A1ECE
:103E0000893319F060E070E002C060E570E00C9466
:103E1000E91E882321F00E9479270C94C827089571
:103E2000882321F00E947F270C94C8270895CF9201
:103E3000DF92EF92FF920F931F93CF93DF937C015A
:103E4000062FC72FFC01D281158112951F700E9489
:103E50004E27882399F0DD2389F08C2F807F8034D2
:103E600021F080E2800F883048F082E00E9418281C
:103E70000E944E2791E0D82ED92601C0D12CCC2EFD
:103E8000C2948FE0C8228C2D90E0FC01E759FF4FCF
:103E90000C942B328C2F807FCF70882311F0C29529
:103EA000C07FDD2399F0CC2309F482C180E2800F2A
:103EB000883010F0011104C08C2F0E94792703C0B4
:103EC0008C2F0E9489270E94C82772C1802F0E94D0
:103ED0008A1ECC2309F491C180E2800F883010F053
:103EE000011104C08C2F0E947F2703C08C2F0E94D9
:103EF0008F270E94C82781C18C2F807FCF7080328E
:103F000011F0C295C07F002319F00130C9F022C022
:103F1000DD2371F0112341F0113031F40E94A92703
:103F20008C2B0E94B12769C10E94A9278C2B1DC030
:103F3000112319F0113009F460C10E94BE2725C079
:103F4000DD2321F0163008F058C10EC0153008F0FE
:103F500054C11BC0DD2361F0112331F0F7018581CD
:103F600080FF26C18F7085838C2F0E94091F45C159
:103F7000112359F0093309F02CC1FFEF27EE83E03C
:103F8000F15020408040E1F722C18C2F0E94101F89
:103F900034C18C2F86958695837019F0813061F03D
:103FA0002CC1DD2321F0802F9C2F937002C080E074
:103FB00090E00E94821C29C1DD2321F0802F9C2FDC
:103FC000937002C080E090E00E94981C1EC18C2F6C
:103FD000837009F045C0D11114C1402F4295469518
:103FE0004770440F440F602F6F70862F90E0A0E061
:103FF000B0E0042E04C0880F991FAA1FBB1F0A94AB
:10400000D2F704FF10C00FE010E020E030E004C061
:10401000000F111F221F331F4A95D2F700951095EC
:104020002095309503C000E010E09801C695C69534
:10403000C370BC01CD01602B712B822B932BC2303E
:1040400049F058F4C13019F00E949125DAC00E945D
:104050007F25D7C00E94A325D4C00E947D25D1C052
:10406000DD2319F08C2F817001C08695882309F417
:10407000C8C0402F429546954770440F440F602FAB
:104080006F70862F90E0A0E0B0E0042E04C0880F8F
:10409000991FAA1FBB1F0A94D2F704FF10C00FE09C
:1040A00010E020E030E004C0000F111F221F331F7A
:1040B0004A95D2F7009510952095309503C000E001
:1040C00010E09801C695C695C370BC01CD01602B68
:1040D000712B822B932BC23049F058F4C13019F068
:1040E0000E9456268EC00E9444268BC00E946826DD
:1040F00088C00E94B72585C0CF70DD2339F08C2F92
:104100000E94DD25802F0E94091F7BC0802F0E9406
:10411000101F8C2F0E94FE2574C0023F01F128F46D
:10412000003F41F0013FA1F03FC0033FF9F0043FE1
:1041300039F13AC0DD2341F0153008F05EC08C2F14
:104140008F710E94232659C0163008F056C0F7CF51
:10415000DD2339F08C2F8F710E94DD254EC0DD23C9
:10416000C9F38C2F8F710E94FE2547C0DD2329F0F3
:104170008C2F8F710E94C82540C00E94C3253DC06E
:10418000DD2349F0CF718C2F0E94DD2563E08C2F59
:104190000E94FD2732C081E00E941828123068F189
:1041A00082E00E94182829C0DD2331F0112391F20A
:1041B000802F0E94E31D21C0112399F2093349F495
:1041C0009FEFE7EEF3E09150E040F040E1F700C0F0
:1041D0000000802F0E948A1E10C04C2F4F70602F4D
:1041E000C7010E94B9050E94EE240FC04C2F4F70EA
:1041F000602FC7010E94BC0508C088EF8C0D843079
:1042000020F40E946B1C0E94B005DD20C9F00E94C2
:104210004A2780FD15C0F70112820E9444270E94A0
:10422000DD25C7010E9441210E944427DF91CF91E3
:104230001F910F91FF90EF90DF90CF900C94FE258F
:10424000DF91CF911F910F91FF90EF90DF90CF9072
:1042500008950F931F93CF93DF93EC0168817981C9
:104260008A810E9421278C010E947A260E946B2558
:10427000B801CE010E94171FDF91CF911F910F91BE
:104280000895CF93DF93EC01988189812B813C8144
:10429000232B31F08F3F31F481E09F3F19F403C0AD
:1042A00081E001C080E080FD19C0CE010E9477044A
:1042B00081110CC00E944E27882381F08A818823B7
:1042C00069F082E0DF91CF910C941828CE010E9412
:1042D0002921CE01DF91CF910C94F003DF91CF9192
:1042E000089580E090E00E94821C80E090E00E94AF
:1042F000981C0E9496270E94A6270C94C82780919C
:104300002801909129010E9432290C9471210E9468
:1043100086270C947F21E92FE295EF704E2F50E015
:10432000FA013297EE30F105B0F4E758FF4F0C94E4
:104330002B32803F91F018F4883E68F40EC0843F21
:1043400051F40BC0883E48F0813F29F406C093FB2E
:10435000882780F9089580E0089581E008950E94FB
:1043600016270E948B210895CF93DF9300D000D0B1
:104370001F92CDB7DEB70F900F900F900F900F9058
:10438000DF91CF910895CF93DF9300D000D000D07C
:10439000CDB7DEB726960FB6F894DEBF0FBECDBF01
:1043A000DF91CF9108951F93CF93DF93C091940233
:1043B00016E080919502C81799F0D0E01C9FF0019B
:1043C0001D9FF00D1124EA56FD4F408151816281FD
:1043D0007381848195810E94C3212196C770E9CFA2
:1043E000DF91CF911F9108954091C6025091C7026D
:1043F0006091C8027091C9028091CA029091CB026B
:104400000C94C3210F931F93CF93DF938091CB0222
:1044100082958F7009F05DC08091C802882309F4ED
:1044200058C080919402109195026091C6027091DB
:10443000C702C091C902D091CA0291E06F3F09F052
:1044400090E0292F06E0811709F443C0209721F05E
:104450007F3F21F030E003C031E001C0322F90E017
:1044600030FD34C0089FF001099FF00D1124DF01D9
:10447000AA56BD4F11963C911197371327C03C9116
:10448000361324C012963C91129731111FC0139617
:104490004D915C9114974C1B5D0B483C5105B0F459
:1044A0008091CB028F7080618093CB02E556FD4FE7
:1044B00080818F708061808386EC92E00E94412130
:1044C000DF91CF911F910F910C94D32101968770AA
:1044D000BACFDF91CF911F910F9108959F92AF9224
:1044E000BF92CF92DF92EF92FF920F931F93CF93E1
:1044F000DF93CDB7DEB761970FB6F894DEBF0FBE7E
:10450000CDBF8C0185E0F801DE011D9601900D9272
:104510008A95E1F7F80140815181E2809091C602CD
:104520006091C7022091C9023091CA02211531055C
:1045300031F06F3F31F481E09F3F19F403C081E017
:1045400001C080E0F82FF1709F2E80FD46C1F80178
:10455000A380B48086ECC82E82E0D82EF090C802EA
:10456000F501E21BF30BFF2009F4DFC08091CB02C1
:10457000E83CF10508F09BC0282F207F09F052C0CD
:10458000561313C0491311C0FE2CE1100EC08F70DA
:1045900080618093CB020E94F421C6010E944121D8
:1045A0008091CB02F801858358C1AB2831F05F3F81
:1045B00031F481E04F3F19F403C081E001C080E095
:1045C00080FD03C081E08E2502C080E090E0F82FDE
:1045D000F170FF2E80FF1CC0809194022091950203
:1045E00036E0821709F417C190E0389FF001399F37
:1045F000F00D1124EA56FD4F6181561306C060810B
:10460000461303C06281E61203C001968770E9CFAA
:10461000FE2CEE2009F421C18091CB0281608093B1
:10462000CB025AC0561306C0491304C0E11002C0A1
:10463000F8019FC04D875E878D859E850E94AF21C2
:10464000882379F1EE2069F12091CB02822F8295A7
:104650008F7090E0029774F08091C6029091C7022B
:1046600098878F831986BB86AA862C87CE010796EA
:104670000E94412186E0F801A6ECB2E001900D9283
:104680008A95E1F70E9402220E94F4210DC056177C
:1046900029F14D875E878D859E850E94AF2181110E
:1046A0002CC0C8010E944121FF24F394D6C0282FBA
:1046B000207F69F77A2DB98AA88A6E2D89890E9490
:1046C000B42186EC92E00E94412186E0F60111922D
:1046D0008A95E9F70E94F421F12CBFC04913D9CF84
:1046E000E110D7CFF8018583C8010E94412186E0FF
:1046F000F60111928A95E9F7B0C0EE2091F220916F
:10470000CB02822F82958F7090E002970CF4B2CF8B
:104710008091C6029091C7029A8389831B82BD82D1
:10472000AC822E83CE010196A3CFE83CF10508F0C0
:1047300047C0FE2CEE2009F4B4CF561330C0491305
:104740002EC02091CB0220FD21C0822F82958F7038
:10475000482F50E041155105C9F0F80125834F302D
:10476000510541F08F5F982F9295907F822F8F7027
:10477000892B8583C8010E94412186E0F801A6ECBF
:10478000B2E001900D928A95E1F742C086E0F8010F
:10479000A6ECB2E001900D928A95E1F75EC04D87DC
:1047A0005E878D859E850E94AF21811163CF8091A8
:1047B000CB0281608093CB02C8010E9441214DC091
:1047C0007A2DB98AA88A6E2D89890E94B42186E043
:1047D000F60111928A95E9F71BC0EE2009F461CF2A
:1047E0004D875E878D859E850E94AF21F82E882398
:1047F00009F457CF86E0F801A6ECB2E001900D92E3
:104800008A95E1F786EC92E00E94DD1D0E9402226B
:104810000E94F42122C04D875E878D859E850E946F
:104820001627292F22952F70223028F49F7039F0F7
:10483000811105C00BC0243028F49F7049F4805EBC
:10484000883020F0C8010E9441219F2CF92C05C01E
:10485000F8019581907F99F7F9CF8F2D61960FB66A
:10486000F894DEBF0FBECDBFDF91CF911F910F91A6
:10487000FF90EF90DF90CF90BF90AF909F90089502
:104880001F93CF93DF93CDB7DEB72C970FB6F89475
:10489000DEBF0FBECDBF4F83588769877A878B876E
:1048A0009C87CE0107960E946E228823D1F09F81BB
:1048B00088852A853B85232B31F08F3F31F481E0B9
:1048C0009F3F19F403C081E001C080E080FD47C034
:1048D0004F81588569857A858B859C850E94C32187
:1048E0003EC086E0FE013796DE01119601900D92E2
:1048F0008A95E1F7FF81E8856A857B8561157105F9
:1049000031F0EF3F31F481E0FF3F19F403C081E063
:1049100001C080E080FD23C02091950230E0C901F4
:104920000196877099274091940250E0841795076B
:10493000F1F1F983EA837D836C8396E0929FD00145
:10494000939FB00D1124AA56BD4FFE0131960190E0
:104950000D929A95E1F7809395020E94D32116E07B
:104960008091940290919502891771F1189FC0016E
:1049700011248A569D4F0E946E22882329F1E091CE
:1049800094021E9FF0011124EA56FD4F408151818F
:1049900062817381848195810E94C32180919402F8
:1049A00090E001968770992780939402D9CF0E9456
:1049B00087211092950210929402E6ECF2E086E0D4
:1049C000DF011D928A95E9F72C960FB6F894DEBFA9
:1049D0000FBECDBFDF91CF911F910895EF92FF924F
:1049E0000F931F93CF93DF938C01892B09F46CC035
:1049F000F12CEE24E394E8012196F80184918437A8
:104A000040F4843008F051C0813081F0823019F1D7
:104A10005BC0853709F444C0A8F19CE7980F903734
:104A200008F052C08F770E948A1E41C00E5F1F4F50
:104A3000FE01849190E2980F983050F48770FE2D1B
:104A400001C0FF0F8A95EAF78F2F0E94992714C0A3
:104A50000E94E31D2DC00E5F1F4FFE01849190E266
:104A6000980F983060F48770FE2D01C0FF0F8A9573
:104A7000EAF78F2F0E949F270E94C82719C00E9423
:104A80008A1E16C00E5F1F4FFE01C491CC2381F019
:104A90008FE99FE00197F1F700C00000C150F6CF09
:104AA0000E5F1F4FFE01F49003C00E94E31D8E01B4
:104AB0008F2D882309F49FCFEFE9FFE03197F1F7BD
:104AC00000C000008150F5CFDF91CF911F910F9171
:104AD000FF90EF900895089508950C946C250C9420
:104AE0006D250E946F256093EE027093EF02809314
:104AF000F0029093F1020C9471210C9471250F93A4
:104B00001F930091EE021091EF022091F00230917C
:104B1000F102602B712B822B932B1F910F910C9420
:104B200071250F931F930091EE021091EF022091D7
:104B3000F0023091F10260237123822393231F91AD
:104B40000F910C9471250F931F930091EE02109119
:104B5000EF022091F0023091F10260277127822745
:104B600093271F910F910C9471250C949A030E9426
:104B7000B5256093EA027093EB028093EC02909368
:104B8000ED020C94712160E070E0CB010C94B7252C
:104B90000F931F9341E050E060E070E08A019B01B9
:104BA00004C0000F111F221F331F8A95D2F7C901BD
:104BB000B8011F910F910C94B7250F931F9341E0FB
:104BC00050E060E070E004C0440F551F661F771F7F
:104BD0008A95D2F78091EA029091EB02A091EC02C3
:104BE000B091ED028A019B01082B192B2A2B3B2B3C
:104BF000C901B8011F910F910C94B7250F931F9312
:104C000041E050E060E070E004C0440F551F661FB3
:104C1000771F8A95D2F74095509560957095809151
:104C2000EA029091EB02A091EC02B091ED028A01B0
:104C30009B01082319232A233B23C901B8011F9193
:104C40000F910C94B7250F931F9341E050E060E063
:104C500070E004C0440F551F661F771F8A95D2F776
:104C60008091EA029091EB02A091EC02B091ED02EA
:104C70008A019B01082719272A273B27C901B80168
:104C80001F910F910C94B7250F931F930091EA0287
:104C90001091EB022091EC023091ED02602B712B10
:104CA000822B932B1F910F910C94B7250F931F9379
:104CB0000091EA021091EB022091EC023091ED029A
:104CC00060237123822393231F910F910C94B725A6
:104CD0000F931F930091EA021091EB022091EC02D6
:104CE0003091ED0260277127822793271F910F9142
:104CF0000C94B7250895292F220F920F990F890F31
:104D0000E82FE695E695E695877051E001C0550FCE
:104D10008A95EAF785E0E89FF0011124E453FD4FFE
:104D200020E030E070E04081CB01022E02C0969579
:104D300087950A94E2F781708195842785238427DB
:104D400081932F5F3F4F2530310569F70895292F53
:104D5000220F920F990F890F682F669566956695B9
:104D6000982F977085E0689FB001112440E050E0D3
:104D700080E0FB01E40FF51FE453FD4F208130E09C
:104D8000092E02C0369527950A94E2F72170332741
:104D9000042E01C0220F0A94EAF7822B4F5F5F4F67
:104DA0004530510531F70895BF92CF92DF92EF92CF
:104DB000FF920F931F93CF93DF938C01C090EA0271
:104DC000D090EB02E090EC02F090ED028091EE02C8
:104DD0009091EF02A091F002B091F102C82AD92A75
:104DE000EA2AFB2ACFE1D0E0D701C6010C2E04C08D
:104DF000B695A795979587950A94D2F780FD04C03C
:104E0000219790F7B12C07C0BC2EB8018C2F0E94BF
:104E1000C5050197A9F38B2DDF91CF911F910F91BC
:104E2000FF90EF90DF90CF90BF900895CF93DF93E6
:104E3000EC010E94D426BE010E94C505DF91CF91EE
:104E400008951F93CF93DF93EB01909193029923E1
:104E500021F0CB010E94162713C0882349F0CB0113
:104E60000E94D426182F682FCE010E947B2604C0F2
:104E7000CB010E94A726182FBE01812F0E94C505D5
:104E8000DF91CF911F9108958091F20285958595CC
:104E9000859508958091F202877008959091F202AD
:104EA000977081E009F480E0089590910C0392FBE3
:104EB000222720F9281751F080FB92F990930C03D8
:104EC00080910B0390910C030C94612808958091BC
:104ED0000C0382FB882780F991E089270C945527E1
:104EE00081E00C94552780E00C9455278091FE02B8
:104EF00008959091FE02892B8093FE02089580957B
:104F00009091FE0289238093FE0208951092FE0282
:104F100008959091FD02892B8093FD02089580955C
:104F20009091FD0289238093FD0208951092FD0265
:104F300008959091FC02892B8093FC02089580953E
:104F40009091FC0289238093FC0208951092FC0248
:104F500008958091F302089508950C94AC270C9461
:104F6000AD2790910C0392FD08C09091F302981721
:104F700021F08093F3020C94AF2708958091F302FF
:104F8000882329F01092F30280E00C94AF27089553
:104F9000E0912801F09129018091FE028083E09147
:104FA0002801F091290190818091FD02892B808355
:104FB000E0912801F091290190818091FC02892BD8
:104FC00080838091F302882381F0E0912801F091A1
:104FD00029019081892B808380912801909129015A
:104FE0000E94EC2881110E94BE2780912801909197
:104FF00029010C94771C0C94AC2790910C0392FD22
:1050000010C098E0899F90011124262B2093F20272
:105010000E94DD258091F2028595859585950C94F9
:10502000FB270C94DD251092F20280E00C94FB2704
:105030002091F202809582238093F202982F97703C
:1050400041F430E0482F082E000C550B241735078B
:1050500021F490910C0392FF07C085958595859565
:105060000E94FE250C941328089580E008956FEFA8
:105070007FEF80E090E00C94043380E090E00E94A9
:10508000E03221E08A3E9E4F09F020E0822F089511
:1050900082E090E00C94D23283E090E00C94D23223
:1050A000CF9384E090E00E94D232C82F82E290E059
:1050B0000E94D2322C2F30E0A901582BCA01CF9187
:1050C0000895CF93C92F682F84E090E00E94E632C4
:1050D0006C2F82E290E0CF910C94E632AB01BC01E0
:1050E0008FE090E00C94F832AB01BC0183E190E0DA
:1050F0000C94F83260E070E0CB010C94742860E00E
:1051000070E0CB010E946E280C947A286AEE7EEF44
:1051100080E090E00E94043360E082E090E00E9432
:10512000E63260E083E090E00E94E6321092EE0208
:105130001092EF021092F0021092F10260E084E00F
:1051400090E00E94E63260E082E290E00E94E63267
:1051500060E085E090E00E94E63260E086E090E06A
:105160000E94E6326FEF87E090E00E94E63240E076
:1051700050E0BA0188E090E00E94F83260E08DE0F3
:1051800090E00E94E63240E050E0BA0188E190E011
:105190000E94F83260E087E190E00E94E63240E051
:1051A00050E0BA018CE190E00E94F83260E070E0DB
:1051B00080E290E00E94043340E050E0BA0188E1D0
:1051C00090E00E94F8320C947F280C948628682F77
:1051D0008EE090E00C94E632FC01329697E080E09D
:1051E000915029F021912223D9F38F5FF9CF0895AF
:1051F000662349F0FC01329608962191621729F046
:10520000E817F907D1F780E0089581E008959C013F
:10521000FC0132969FEF80E04191461789F09F3F55
:1052200019F4411101C0982F8F5F8630A9F79F3F75
:1052300039F0F901E90FF11D97FDFA9562830895A0
:1052400008959C012A5F3F4FFC014281461301C033
:105250001282019682179307B9F708950C940729D3
:105260000C942129029626E0FC0111922A95E9F777
:10527000089508950C9439290C943929CF930E94EC
:105280003C290E94C2080E943A29C0E08C2F0E944B
:10529000EA07811104C0CF5FC830C1F701C081E0C7
:1052A000CF9108950C9439290C9452298091600370
:1052B000843049F10E94542980E00E94B005109288
:1052C000000320E488E190E00FB6F894A89580935D
:1052D00060000FBE2093600083B7817F846083BF2E
:1052E00083B7816083BF7894889583B78E7F83BFAF
:1052F0000FB6F894A8958091600088618093600053
:10530000109260000FBE08950C9439290E948721E5
:105310000E946B1C0E94B0050C9484291F920F926E
:105320000FB60F9211248F939F93AF93BF938091E9
:105330000003811113C08091540390915503A091F3
:105340005603B09157034196A11DB11D809354039C
:1053500090935503A0935603B0935703BF91AF9119
:105360009F918F910F900FBE0F901F90189582E024
:1053700084BD93E095BD9AEF97BD80936E0008952C
:105380002FB7F8948091540390915503A091560340
:10539000B09157032FBF08952FB7F894609154032D
:1053A0007091550380915603909157032FBF089534
:1053B0009C014FB7F8948091540390915503A091AC
:1053C0005603B09157034FBF821B930B08957894F7
:1053D0001F920F920FB60F9211248F939F93AF934A
:1053E000BF938091540390915503A0915603B091BF
:1053F00057030196A11DB11D80935403909355034B
:10540000A0935603B0935703BF91AF919F918F9193
:105410000F900FBE0F901F90189510925803109286
:10542000590310925A0310925B030895CF92DF92B2
:10543000EF92FF926B017C010E94840981110EC0E2
:105440000E94CC29C61AD70AE80AF90AC092580362
:10545000D0925903E0925A03F0925B03FF90EF90D1
:10546000DF90CF9008950F931F930E9484098823A3
:1054700021F01F910F910C94CC290E94CC2900910E
:1054800058031091590320915A0330915B03600F28
:10549000711F821F931F1F910F9108950E9484090D
:1054A00081110C94C0290E94332ACB01089581E018
:1054B0008093E00080E28093D8001092C9008FE1D1
:1054C0009EE40197F1F700C0000087E090EBDC015B
:1054D0008093690390936A03A0936B03B0936C036A
:1054E0009CE088E10FB6F894A895809360000FBE09
:1054F00090936000FFCF9093F1018093F0010895A5
:105500008091090308950895CF93DF9300D01F92EF
:10551000CDB7DEB790916003943011F589837B831A
:105520006A839093E9008FEF9091E800815095FD98
:1055300006C095ED9A95F1F700008111F5CF8091A5
:10554000E80085FF0DC040E050E063E070E0CE0170
:1055500001960E94E12C8091E8008E778093E8000C
:105560000F900F900F90DF91CF910895BC0184E0D0
:105570000C94842ABC0183E00C94842ACF93DF939B
:1055800021E02093E9002FEF3091E800215035FD14
:1055900006C035ED3A95F1F700002111F5CF2091C5
:1055A000E80025FF14C0EC0140E050E068E070E046
:1055B0000E94E12C8091E8008E778093E80088E0DB
:1055C000FE01A1E0B3E001900D928A95E1F7DF9131
:1055D000CF910895CF93603219F520916003243064
:1055E000F9F4C091E900CF703091EC00232F2170C5
:1055F00030FD20E8C22B22E02093E9002091E80052
:1056000020FF0BC040E050E060E270E00E94E12C1F
:105610008091E8008E778093E800CF70C093E90016
:10562000CF91089580915F03811109C00E94BD2E22
:105630000E941A2F8091E20084608093E200089516
:1056400010925F03089508950895089542E061EC73
:1056500081E00E94362E42E261EC84E00E94362E08
:1056600042E261EC82E00E94362E42E260EC83E08E
:105670000C94362E80916203833009F462C030F4BA
:10568000813071F0823009F49BC008958A3009F4AA
:1056900087C08B3009F46DC0893009F0A9C020C0E3
:1056A00080916103813A09F0A3C08091E800877F6F
:1056B0008093E8008091650390916603892B21F423
:1056C00068E081E093E003C060E080E090E070E09B
:1056D0000E94772D8091E8008B778093E8000895F1
:1056E00080916103813209F083C0809165039091BC
:1056F0006603009719F0029709F07AC08091E800DC
:10570000877F8093E8008091E80082FD05C080914A
:1057100060038111F8CF6CC02091F3008091F200FA
:1057200090E0922B029729F48091F1008B7F8130D9
:1057300021F48091F100809309038091E8008B7738
:1057400053C080916103813A09F052C08091650392
:1057500090916603892B09F04BC08091E800877F08
:105760008093E8008091E80080FFFCCF80913401B5
:1057700036C0809161038132D9F5809165039091A3
:105780006603892BA9F58091E800877F8093E80064
:105790000E946B2E80916303809334010C948721C7
:1057A00080916103813221F58091E800877F8093A9
:1057B000E8000E946B2E8091640380930A03089591
:1057C00080916103813AA1F48091E800877F809302
:1057D000E8008091E80080FFFCCF80910A0380936D
:1057E000F1008091E8008E778093E8000C946B2E96
:1057F00008951F93CF93DF93CDB7DEB7A0970FB671
:10580000F894DEBF0FBECDBF84B7877F84BF0FB6CD
:10581000F894A89580916000886180936000109250
:1058200060000FBE90E080E80FB6F89480936100AE
:10583000909361000FBE0E94EA1C0E94BD2E0E9440
:105840001A2F8091E20084608093E20078940E9495
:10585000AF310E94F81C8AE291E00E94661C13E0BE
:10586000809160038530A9F480916003853079F4DC
:105870000E94562980915E038823B1F30E943E293D
:10588000882391F30E94CB2C0E948721EDCF0E94A8
:1058900086290E94061D80916003843009F51093CB
:1058A000E9008091E80082FF1BC08091E80085FF3D
:1058B0000AC040E050E060E270E0CE0101960E9434
:1058C0002C2D91E001C090E08091E8008B778093CF
:1058D000E800992329F060E2CE0101960E94C415E8
:1058E0000E94F41CBDCF0C94752C292F3327233034
:1058F0003105C9F060F42130310581F022303105E5
:1059000009F041C08BE590E020EA35E040C021324B
:105910003105E1F02232310531F135C082E190E00C
:105920002BEF35E034C099278130910549F028F0FC
:10593000029749F5ECE7F5E005C0ECE9F5E002C0B7
:10594000EAE8F5E0849190E09F0121C063307105A1
:10595000D0F4660F771FFB01E751FE4F20813181A4
:1059600089E090E014C06330710568F4FB01EE0F2C
:10597000FF1FED51FE4F20813181FB01E052FE4FB0
:10598000808190E004C080E090E020E030E0FA0107
:1059900031832083089580E189BD82E189BD09B406
:1059A00000FEFDCF8091D8008F7D8093D80080913C
:1059B000E00082608093E0008091E00081FDFCCFF8
:1059C0000895CF92DF92EF92FF920F931F93CF93A0
:1059D000DF93EC018B017A010E948A2E811133C082
:1059E000E114F10439F0F70180819181081B190B52
:1059F000C80FD91FC12CD12C0115110519F18091A7
:105A0000E80085FD16C08091E8008E778093E8005D
:105A1000E114F10449F0F70180819181C80ED91E8B
:105A2000D182C08285E00FC00E948A2E882321F394
:105A30000AC089918093F10001501109FFEFCF1A3C
:105A4000DF0ADACF80E0DF91CF911F910F91FF90B5
:105A5000EF90DF90CF900895CF92DF92EF92FF9278
:105A60000F931F93CF93DF93EC018B017A010E9478
:105A70008A2E811133C0E114F10439F0F7018081DD
:105A80009181081B190BC80FD91FC12CD12C0115EE
:105A9000110519F18091E80085FD16C08091E8009C
:105AA0008B778093E800E114F10449F0F7018081DD
:105AB0009181C80ED91ED182C08285E00FC00E949C
:105AC0008A2E882321F30AC08091F1008993015026
:105AD0001109FFEFCF1ADF0ADACF80E0DF91CF9113
