:100000000C940F040C9456040C9456040C9456044F
:100010000C9456040C9456040C9456040C945604F8
:100020000C9456040C9456040C946C250C94A8243F
:100030000C94261C0C9456040C9456040C945604F0
:100040000C9456040C9456040C9456040C945604C8
:100050000C9456040C94E51B0C9456040C94560412
:100060000C9456040C9456040C9456040C945604A8
:100070000C9456040C9456040C9456040C94560498
:100080000C9456040C9456040C9456040C94560488
:100090000C9456040C9456040C9456040C94560478
:1000A0000C9456040C9456040C9456046A0A6A0A7A
:1000B000A40AA40AF50A110BA50CA50C1C0BFA0B3B
:1000C0000B0C0B0C311934195C1969197019901942
:1000D0009319A419BB19571A571AC019C219C7196D
:1000E000EC190E1A111A141A371AB622DD228A24B4
:1000F000DD228A2429234C238A24422452240627E1
:100100000627192719270F2719271927192706271F
:1001100006271427192719271427686F74646F7826
:100120002F766961204020302E31332E3237006225
:1001300061636B6C69676874206465637265617381
:10014000653A2025750A006261636B6C69676874A3
:1001500020696E6372656173653A2025750A0062D5
:1001600061636B6C696768742064697361626C6554
:100170000A006261636B6C6967687420656E616216
:100180006C650A006261636B6C6967687420746FE8
:1001900067676C653A2025750A006261636B6C695C
:1001A00067687420737465703A2025750A00556E6F
:1001B00069636F646520696E707574206D6F646526
:1001C0002073657420746F3A2025750A00444542F7
:1001D00055473A2064697361626C65642E0A004475
:1001E000454255473A20656E61626C65642E0A008F
:1001F0006D637032333031372064656174746163CC
:100200006865642121210A006D6370323330313713
:100210002061747461636865642121210A00000013
:1002200000000000000000000000000000000000CE
:1002300000000000000000000000000000000000BE
:1002400000007E0F00D4FFFFFFC700000078000011
:100250000000000000002A2B280000000000000021
:1002600000000000000000000029000000002C1E1B
:100270003420212224342627252E362D3738271ED8
:100280001F202122232425263333362E37381F04FE
:1002900005060708090A0B0C0D0E0F101112131496
:1002A00015161718191A1B1C1D2F3130232D350454
:1002B00005060708090A0B0C0D0E0F101112131476
:1002C00015161718191A1B1C1D2F3130354C290A09
:1002D000002575002F002575005D2800256400208D
:1002E00000256400200025640020002564007C00B7
:1002F00025303258006D6F7573656B6579205B62D0
:10030000746E7C782079207620685D287265702F65
:1003100061636C293A205B002E001E001F00200044
:100320002100220050004F00230024002500260059
:1003300027002D004C0014001A00080015001700BB
:10034000015301531C0018000C001200130031006F
:100350002A0004001600070009000A00000000003F
:100360000B000D000E000F0033423468E1001D61E8
:100370001B00060019000500006F00671100100047
:10038000360037003861E50035413400E1045000A3
:100390004F000000000000000000520051002F003C
:1003A0003000C10000002C002A004D004A006564A6
:1003B000E300E20029614B004E002B002800000002
:1003C00001003A003B003C003D003E0001000100FE
:1003D0003F004000410042004300440001001E0273
:1003E0001F022F02300231020100010052002400DE
:1003F00025002600250245000100200221022602D8
:1004000027023500000000005100210022002300D7
:100410002E0201000100220223022F0030003502CB
:100420000100010024021E001F0020003100010015
:1004300001000100010001000100000000000000B7
:1004400000000100370027002E0001000000CA5CF8
:10045000C95C01000100C35C010001000100010052
:100460000100010001000000010001000100010085
:100470000100010001000100010001000100010074
:1004800001000100010001000100F0000100010075
:100490000100010001000100010001000100010054
:1004A00001000100F200F100F30001000000000073
:1004B00001000100010001000100AE000100010087
:1004C0000100010001000100010001000100010024
:1004D000AC00AB0001000100010001000100F400CC
:1004E000F5000000000000000000A900AA00A8001C
:1004F00001000100000001000100010001000100F5
:10050000010001000100010001000100B60000002F
:10051000556E69636F646520696E707574206D6FC8
:10052000646520696E697420746F3A2025750A002D
:100530000A002530313662003A200025303258005A
:100540000A722F632030313233343536373839412F
:1005500042434445460A000A0025303258006B6584
:1005600079626F6172645F7365745F6C65643A2071
:10057000005B735D004B6579626F61726420737418
:100580006172742E0A004F6E6573686F743A206151
:1005900063746976653A2025640A000A00253032C2
:1005A0005820006B6579626F6172645F7265706F6D
:1005B00072743A20006164645F6B65795F6269748C
:1005C0003A2063616E2774206164643A20253032DA
:1005D000580A0064656C5F6B65795F6269743A20E4
:1005E00063616E27742064656C3A20253032580AA6
:1005F000000631FF0974A1010975150026FF009559
:1006000020750881020976150026FF0095207508DF
:100610009102C005010902A10185020901A100059D
:1006200009190129081500250195087501810205A0
:1006300001093009311581257F9502750881060968
:10064000381581257F950175088106050C0A380249
:100650001581257F950175088106C0C005010980B7
:10066000A101850319012AB700150126B7009501DC
:1006700075108100C0050C0901A101850419012A2A
:10068000A002150126A002950175108100C0050188
:100690000906A1018505050719E029E715002501CF
:1006A0009508750181020507190029EF150025013C
:1006B00095F0750181020508190129059505750157
:1006C0009102950175039101C00660FF0961A101C6
:1006D0000962150026FF009520750881020963153F
:1006E0000026FF00952075089102C005010906A1AA
:1006F00001050719E029E715002501950875018115
:10070000029501750881010507190029FF150026CA
:10071000FF00950675088100050819012905950552
:1007200075019102950175039101C05B435D005B0A
:10073000445D005B535D005B575D005B525D0009EB
:10074000027B00040100A0FA09040000010301017A
:100750000009211101000122400007058103080062
:100760000A0904010002030000000921110100012F
:100770002222000705820320000107050303200051
:100780000109040200010300000009211101000118
:1007900022B6000705840320000A090403000203AF
:1007A0000000000921110100012222000705850334
:1007B00020000107050503200001120110010000BF
:1007C00000084B410100010001020001280345001F
:1007D000720067006F0044006F007800200037004F
:1007E00036002000220048006F00740044006F00B3
:1007F000780022000000220341006C0070006100BC
:100800006300610020004B006500790062006F000A
:1008100061007200640073000000040309041124E5
:100820001FBECFEFDAE0DEBFCDBF04B603FE27C0A8
:100830008091B4029091B502A091B602B091B70236
:100840008730904BA740B04BD1F41092B402109275
:10085000B5021092B6021092B70214BE84B7877F19
:1008600084BF0FB6F894A89580916000886180934A
:100870006000109260000FBEE0E0F8E3099511E01F
:10088000A0E0B1E0EAE8F4E502C005900D92A035E1
:10089000B107D9F722E0A0E5B1E001C01D92A43B69
:1008A000B207E1F70E9452150C94432A0C94000001
:1008B000FF93EF93E0915001F0915101309709F0CF
:1008C0000995EF91FF910895FC018591803011F019
:1008D000EFDFFBCF0895FF27E0E230E247FF0CC0D7
:1008E000419597FF09C0EDE26095709580959095D0
:1008F000611D711D811D911D27FF02C0219530E3EF
:1009000050E2AA27660F771F881F991FAA1FA417F6
:1009100010F0A41B63955A95A9F7AA3008F0A95FB7
:10092000A05DAF93F395611571058105910541F7C0
:10093000ED3211F4EF93F395F21718F43F93F3951A
:10094000FBCF8F91B5DFFA95E1F70895E991F99121
:100950008591803021F0853219F0AADFF9CF089512
:1009600020E0E89455915532C1F3503311F4689466
:1009700055915A3348F4505390F3220F022E220F10
:10098000220F200D250FF4CF0EF421958991999116
:10099000533619F3533729F1533559F1BC018827E0
:1009A0009927E8945C3621F489919991689455913E
:1009B000543639F446EF7EF077FF0DC08FEF9FEF8E
:1009C0000AC055374AE039F0583540E121F0523637
:1009D00042E009F00895FF93EF937DDFEF91FF91DF
:1009E000B7CFFF93EF93FC0181918030B9F360DFC3
:1009F000FBCFFF93EF9368DFF1CFDF93CF93CDB7BA
:100A0000DEB72596A3DFCF91DF9108958F929F9255
:100A1000AF92BF92CF92DF92EF92FF920F931F930C
:100A2000CF93DF93CDB7DEB729970FB6F894DEBF2B
:100A30000FBECDBFFC018081918123813481232BA6
:100A400031F09F3F31F491E08F3F19F403C091E002
:100A500001C090E090FDB1C77F0185E0DE011196F5
:100A600001900D928A95E1F7F701228189819A819F
:100A7000222349F00E94001E182F682F89819A8135
:100A80000E94791E03C00E944D1E182F69817A8131
:100A9000812F0E94380F8C01F7018281882309F48D
:100AA000A1C0980122513F452031310508F0C3C053
:100AB0008FEF93E00E94742981119EC002516FE173
:100AC000C62E62E0D62E002379F0C114F4E0DF06D2
:100AD00009F492C0C6010E947429811101C001501D
:100AE0001FEFC11AD10AEFCF1E821F821886198606
:100AF000BB24B3945AE0A52E86010F5F1F4FC60199
:100B00000E9474298E831F82882309F475C09FEF89
:100B1000980F933060F48F83BE8222E0C20ED11C06
:100B2000C8010E9474298887811102C065C06801CC
:100B30008E010A5F1F4FF80180818823E9F281301E
:100B400009F04BC08181813049F44801F2E08F0EF9
:100B5000911CF80182810E94A4280AC0823051F4BD
:100B60004801F2E08F0E911CF80182810E94E0277B
:100B7000840135C0833049F44801F2E08F0E911CA6
:100B8000F80182810E947927F3CF843019F00F5F3A
:100B90001F4F25C0F80122810E5F1F4F80E090E0BB
:100BA00030E0205331092A30310568F4A89EA001B5
:100BB000A99E500D1124C901840F951F0F5F1F4F6F
:100BC000F8012081EDCF009751F0EFE9FFE0319778
:100BD000F1F700C000000197F6CF0E945A130F5F93
:100BE0001F4FA9CF00313FE5130709F0DDC681E0B3
:100BF0000E94AE1E0E94B12180917402877009F498
:100C0000DCC6F7018281882309F4D7C682E02996E1
:100C10000FB6F894DEBF0FBECDBFDF91CF911F910D
:100C20000F91FF90EF90DF90CF90BF90AF909F908B
:100C30008F900C94D31E0031FFE51F0711F481E063
:100C400005C001312FE5120721F482E00E94F01E59
:100C5000D1CF0E35FDE51F0709F060C0882361F292
:100C60003AE1C32E31E0D32E4AE0B42EF60184914E
:100C7000882309F4C1CF813009F048C086010F5F95
:100C80001F4FF8018491813039F40F5F1F4FF80135
:100C900084910E94A4283DC0823041F486010E5FF9
:100CA0001F4FF80184910E94E02733C0833041F444
:100CB00086010E5F1F4FF80184910E94792729C099
:100CC000843039F586010E5F1F4FF801249180E0D2
:100CD00090E030E0205331092A30310568F4B89EA5
:100CE000A001B99E500D1124C901840F951F0F5FFB
:100CF0001F4FF8012491EDCF009759F0EFE9FFE085
:100D00003197F1F700C000000197F6CF0E945A1307
:100D100086016801FFEFCF1ADF0AA8CF0F352DE556
:100D2000120709F469CF882309F41CC10D3B2CE597
:100D3000120701F158F40B3B8CE5180799F00C3BB6
:100D40009CE5190709F0EFC080E00DC00F3BECE512
:100D50001E0709F462C0B8F1003C2CE5120709F443
:100D6000A3C0E1C083E00E94AF0F8091D4010E9434
:100D7000AA0F42CF8091D401982F9695969596957B
:100D8000A1F0915E990F990F990F8770892B80932D
:100D9000D401887F91E009F490E08091D40190FB28
:100DA00080F98093D4010E94AA0F8091C70180FF2F
:100DB000B2C08091D4018695869586951F928F93B7
:100DC0008FE291E0A0C02091D401822F8695869574
:100DD0008695482F50E04330510554F48F5F982F8B
:100DE000990F990F990F822F8770892B8093D401C7
:100DF0008091D40181608093D4010E94AA0F8091D8
:100E0000C70180FF88C08091D4018695869586951C
:100E10001F928F9387E491E076C01091D4011170F6
:100E20008091C70180FF0CC01F921F9384E891E05E
:100E30009F938F930E94FD040F900F900F900F903F
:100E40008091D4011123A9F080FFD6CE8E7F8093AC
:100E5000D4010E94AA0F8091C70180FF08C08FE5CE
:100E600091E09F938F930E94FD040F900F9080E07C
:100E700057C080FDC1CE81608093D401813019F4C8
:100E800089E08093D4018091D4010E94AA0F8091BF
:100E9000C70180FF40C082E791E09F938F930E943B
:100EA000FD040F900F9037C09091D401892F869543
:100EB000869586958F5F8F719770843038F4880F90
:100EC000880F880F892B8093D40102C09093D4019E
:100ED0008091D401887F91E009F490E08091D40161
:100EE00090FB80F98093D4010E94AA0F8091C701E2
:100EF00080FF11C08091D4018695869586951F92BA
:100F00008F938AE991E09F938F930E94FD040F9045
:100F10000F900F900F908091D401869586958695BD
:100F20000E94450F69CEC801815E9C450597D0F4AB
:100F30006FE1600F60935F018CE090E00E94822976
:100F40008091C70180FF0EC080915F011F928F9337
:100F50008EEA91E09F938F930E94FD040F900F9073
:100F60000F900F9017FF8CC0F7018281882309F43E
:100F700087C0E091B701F091B801309729F0019056
:100F8000F081E02D099501C080E086958170809305
:100F9000530190915F01913029F4882319F089E37E
:100FA0000E94A428809177028093520110927702C8
:100FB00080915F01813071F048F08230C1F084305F
:100FC000E1F486EE0E94A42888E115C082EE0E941A
:100FD000E02713C083E00E945A2788E10E94E0279F
:100FE00088E10E94792783E00E944F2706C082EEA5
:100FF0000E94E02787E50E94A4288FE39CE90197DF
:10100000F1F700C000005801E894B7F82CE0C22EB8
:10101000D12CC5010C2C02C0969587950A94E2F755
:101020008F7096EF980F963010F0805D01C0895A4E
:101030000E945A1394E0C91AD108ECEFCE16EFEFD4
:10104000DE0639F780915F01813039F078F0823027
:1010500069F0843089F488E20DC08CE20E94A428F3
:1010600080915301882341F089E304C082EE0E94FD
:10107000792702C00E94A4288091520180937702B0
:10108000033FFCE51F0741F190F4083D3CE51307E1
:10109000E9F0093D8CE5180789F1073D9CE5190742
:1010A000B1F506E221EE41EE67ED7CE52CC0053F8F
:1010B000ECE51E07E9F0B0F0063F2CE5120739F524
:1010C00007E225EE46EE66EF7CE51DC007E225EE61
:1010D00045EE68ED7CE517C006E221EE40EE63EFD9
:1010E0007CE511C007E225EE44EE64EF7CE50BC021
:1010F00006E221EE42EE65EF7CE505C008E221E064
:1011000045EE69ED7CE5C7010E945B0E75CDF701E8
:101110008281882309F43EC1109254010230FCE51B
:101120001F0708F421C106312CE5120730F0C80171
:101130008A5F9C45099708F017C10E94CE1C9093C6
:101140005E0180935D0100313CE5130709F4C3C0E3
:1011500008F041C008309CE5190709F49AC0F0F482
:101160000430FCE51F0709F487C068F402303CE551
:10117000130709F477C003301C4509F0E5C08091DE
:101180005D01826076C006309CE5190709F46EC0E7
:1011900008F07BC080915D0188606BC00C30FCE57D
:1011A0001F0709F485C068F40A303CE5130709F409
:1011B00074C008F079C00E943A2780915D01806870
:1011C00058C00E309CE5190709F476C008F07FC0BE
:1011D00080915D018BC00B3FFCE51F0709F44FC0F8
:1011E00018F503313CE5130709F47DC078F40131AB
:1011F0009CE5190709F473C002311C4509F0A4C02D
:101200000E943A2780915D018F7733C00531FCE55C
:101210001F0709F472C008F486C00A3F1C4509F094
:1012200093C080915E013EC00F3F8CE5180709F422
:101230005FC058F40D3FECE51E0709F444C008F404
:101240003FC080915E0182602DC001302DE5120704
:1012500009F475C008F45DC002301D4509F074C082
:1012600060E06EC080915D01816003C080915D018E
:10127000806180935D0168C080915D0111C08091A3
:101280005E01826080935E015FC080915D0180623B
:10129000F0CF80915D018064ECCF80915D0188602A
:1012A0008460E7CF8160EECF80915D018E7FE1CFDA
:1012B00080915D018D7FDDCF80915D01877FD9CFEA
:1012C00080915E0118C080915E018D7FDBCF80919F
:1012D0005D018F7ECECF80915D018F7DCACF8091E1
:1012E0005D018F7BC6CF80915D01877F8B7FC1CFF2
:1012F00080915E018D7F8E7FC5CF80915D0182FBE5
:10130000222720F991E0922790FB82F990FB83F944
:10131000B0CF80915E01982F909591708E7F892B30
:1013200090FB81F9AFCF0E943A2780915D0187FB46
:10133000222720F991E0922790FB87F99ACF61E06C
:101340008EE090E00E94822960915D0110915E0123
:1013500084E090E00E948229612F82E290E00E9466
:1013600082290E943A2748CC06313CE5130719F53B
:10137000809177028A7A91E009F490E09093550188
:10138000882311F065E301C069E285EE91E00E94D7
:10139000881C0EC006311C4509F056C080915501CD
:1013A000882309F408C365E385EE91E00E944F1C91
:1013B0000E94501D21CC0E3D9CE51907B9F140F467
:1013C0000115FCE51F0789F001301C45E1F03CC028
:1013D0000B353DE51307A9F10C358DE5180749F1EB
:1013E0000A351D4589F581E02DC00E943A27EFEFAF
:1013F000F4E30CE0E150F0400040E1F700C00000F1
:101400000E94C11BF9CB8091C701982F90959170D4
:1014100090FB80F98093C701992319F08FED91E03B
:1014200002C08DEC91E00E946404E6CB0E94DF1CB8
:10143000E3CB80915E0182FB882780F991E08927C8
:1014400001C080E00E94D41DF701828100811181DA
:10145000882349F0C8010E94001ED82E682FC801B9
:101460000E94791E04C0C8010E944D1ED82EB801EA
:101470008D2D0E94B9118C01982EF701D280A58084
:10148000A2949FE0A92280917402877099F0DD20D8
:1014900089F0812F807F803421F080E2800F8830B6
:1014A00048F082E00E94D31E809174028770CC24A1
:1014B000C3948111C12CB12EB2948FE0B8228B2D30
:1014C00090E08C30910508F040C2FC01EA5AFF4FD1
:1014D0000C941C2A812F807F1F70882311F0129595
:1014E000107FDD20B9F0112309F41AC280E2800FC9
:1014F000883010F0911006C080917702182B10935D
:10150000770205C080917602182B109376020E9414
:10151000501D06C2802F0E947927112309F415C29D
:10152000005E1095083010F0911006C0809177028F
:1015300018231093770205C0809176021823109328
:1015400076020E94501D01C2812F807F1F70803261
:1015500011F01295107F992021F0F1E09F1611F102
:101560002EC0DD20B1F0AA2081F001E0A0120DC054
:1015700080915E0182FDE9C180917802182B1817D5
:1015800009F4E3C110937802E0C180917802812BC5
:1015900010C0AA2021F021E0A21609F4D6C10E94B1
:1015A0004A1D1FC0DD2041F031E03A1508F4CDC1DD
:1015B000812F0E946F27C9C1A110C7C112C0DD20B1
:1015C00019F0AA20A9F3ACC1AA2059F0093309F0F7
:1015D000B9C18FEF97EEE3E081509040E040E1F732
:1015E000AFC1812F0E946427B0C1812F8695869557
:1015F000837019F0813059F0A8C1DD2019F0C801BD
:10160000937002C080E090E00E94390EA4C1DD20FA
:1016100019F0C801937002C080E090E00E94230E90
:101620009AC1802FDD2019F00E945E1102C00E9435
:10163000A2100E94F60F8FC1812F837009F069C03C
:10164000D11087C1902F929596959770990F990F09
:10165000802F8F70882E912CA12CB12C092E04C0C4
:10166000880C991CAA1CBB1C0A94D2F704FF12C058
:101670004FE050E060E070E004C0440F551F661F6B
:10168000771F9A95D2F7DB01CA0180959095A095B6
:10169000B09503C080E090E0DC0116951695412FCF
:1016A0004370423019F1C8F40091790210917A0226
:1016B00020917B0230917C02413059F08829992990
:1016C000AA29BB29BC01CD01602371238223932366
:1016D0000AC0802A912AA22AB32ABC01CD01682916
:1016E00079298A299B290E94111F33C188299929A8
:1016F000AA29BB290091790210917A0220917B02DC
:1017000030917C02BC01CD0160277127822793278D
:10171000EACFDD2019F0812F817001C086958823E2
:1017200009F417C1902F929596959770990F990F7C
:10173000802F8F70882E912CA12CB12C092E04C0E3
:10174000880C991CAA1CBB1C0A94D2F704FF12C077
:101750004FE050E060E070E004C0440F551F661F8A
:10176000771F9A95D2F7DB01CA0180959095A095D5
:10177000B09503C080E090E0DC0116951695412FEE
:1017800043704230D9F068F50091AF021091B00279
:101790002091B1023091B202413059F08829992943
:1017A000AA29BB29BC01CD01602371238223932385
:1017B0001EC0802A912AA22AB32A13C088299929F7
:1017C000AA29BB290091AF021091B0022091B10269
:1017D0003091B202BC01CD01602771278227932787
:1017E00006C0BC01CD01682979298A299B290E945C
:1017F000A41EAFC01F70DD2039F0812F0E94F01EA3
:10180000802F0E946F27A5C0802F0E946427812F00
:101810000E94AE1E9EC0802FF2EF9F1609F43EC0BC
:10182000F91538F020EF921661F031EF931689F137
:1018300072C093EF9916C9F1E4EF9E1609F44CC0FB
:101840006AC0DD2009F1A11080C01F7181E090E025
:10185000A0E0B0E0AC01BD0104C0440F551F661FFD
:10186000771F1A95D2F78091AF029091B002A091A4
:10187000B102B091B2028A019B01082719272A27D9
:101880003B27C901B80125C021E02A1508F45DC035
:10189000DCCFDD2029F0812F8F7130C0DD20D9F31E
:1018A000812F8F710E94AE1E50C0DD2079F01F7114
:1018B00081E090E0A0E0B0E0BC01CD0104C0660F83
:1018C000771F881F991F1A95D2F703C060E070E058
:1018D000CB010E94A41E39C0DD2099F01F71812F19
:1018E0000E94F01E80915E0182FD07C038E0139FC8
:1018F000C0011124836080937402812F0E94F01E26
:1019000024C081E00E94D31E81E08A15F0F482E0B9
:101910000E94D31E1AC0DD2039F0AA2009F4BBCFE3
:10192000802F0E94E02711C0AA2009F4B9CF893383
:1019300049F49FEFE7EEF3E09150E040F040E1F72B
:1019400000C00000802F0E94792788EF8B0D843023
:1019500010F40E944F0ECC2081F18091740280FD22
:101960002CC0F70112828595859585950E94F01E01
:10197000C7010E940605809174028595859585951D
:1019800029960FB6F894DEBF0FBECDBFDF91CF9181
:101990001F910F91FF90EF90DF90CF90BF90AF908D
:1019A0009F908F900C94AE1E01319FE5190709F0AE
:1019B00050C982E01DC969E2F7CC29960FB6F894A8
:1019C000DEBF0FBECDBFDF91CF911F910F91FF9072
:1019D000EF90DF90CF90BF90AF909F908F90089541
:1019E00090915D0192FF0DC0282F2871283019F4C5
:1019F000877F846006C0282F2471243011F48B7FE8
:101A0000886093FF0DC0282F2871283119F4877E34
:101A1000846106C0282F2471243111F48B7E8861E3
:101A200020915E0120FF0DC0382F3871383019F435
:101A3000877F816006C0382F3171313011F48E7F7D
:101A4000886021FF0DC0282F2871283119F4877E66
:101A5000816106C0282F2171213111F48E7E8861A9
:101A600094FD877E0895CF93DF939091560199233B
:101A700099F0C62FD82F80E40E946721811108C0F9
:101A80008D2F0E944021811103C08C2F0E94402184
:101A900094E99093BC0001C080E0DF91CF9108955C
:101AA00080E40E946721811123C084E98093BC00F7
:101AB00080915601811128C081E0809356016FE723
:101AC00080E00E94330D6FE782E00E94330D6FE7E4
:101AD0008CE00E94330D6FEF81E00E94330D60ECCB
:101AE00083E10E94330D0E943A2788E092E00AC009
:101AF00080915601882341F0109256010E943A27A6
:101B000080EF91E00C94640408951F93CF93DF93CA
:101B1000CDB7DEB767970FB6F894DEBF0FBECDBF67
:101B2000342F4B8B252F5C8B6D8B7E8B8F8B4E894F
:101B30005F8961111092760286E0FE013D96DF0119
:101B4000982F1D929A95E9F73D872E876F87598BBD
:101B5000488BDE01179601900D928A95E1F7CE0130
:101B600007960E94911F81113EC086E0FE013796C4
:101B7000DE01119601900D928A95E1F7FF81E885CB
:101B80006A857B856115710531F0EF3F31F481E0A5
:101B9000FF3F19F403C081E001C080E080FD23C055
:101BA00020910B0230E0C90101968770992740917E
:101BB0003C0250E08417950779F1F983EA837D832D
:101BC0006C8396E0929FD001939FB00D1124A45F87
:101BD000BD4FFE01319601900D929A95E1F78093E9
:101BE0000B020E941B1F16E080913C0290910B0299
:101BF0008917F9F0189FC0011124845F9D4F0E943E
:101C0000911F8823B1F080913C0290E0019687708B
:101C1000992780933C02E8CF0E943A2710920B024A
:101C200010923C02E5E0F2E086E0DF011D928A9529
:101C3000E9F767960FB6F894DEBF0FBECDBFDF9110
:101C4000CF911F91089520915B0130915C0128177D
:101C5000390771F090935C0180935B01E091B701CB
:101C6000F091B801309721F00084F185E02D0994BE
:101C700008952091590130915A012817390771F0C0
:101C800090935A0180935901E091B701F091B80106
:101C9000309721F00680F781E02D09940895E091B6
:101CA000B701F091B801309721F00190F081E02D5B
:101CB000099480E008950F931F93CF93DF93C42F6F
:101CC000D22FFC0182818823C9F0409354010E94E5
:101CD0001A1C909358018093570180E28C0F883032
:101CE00008F057C0C77081E001C0880FCA95EAF7B5
:101CF000DF91CF911F910F910C946F278091540128
:101D0000481330C080915701909158010E940B1CDC
:101D1000883C910538F510E21D0FCD17B9F080E22F
:101D20008C0F883040F4C77081E001C0880FCA95DD
:101D3000EAF70E946427183028F581E09D2F9770FC
:101D400001C0880F9A95EAF70E946F27802F0E94A2
:101D5000A4281830F0F4D77081E001C0880FDA951C
:101D6000EAF70AC080E28C0F883098F4C77081E0EF
:101D700001C0880FCA95EAF7DF91CF911F910F91AB
:101D80000C946427802FDF91CF911F910F910C94B9
:101D9000A428DF91CF911F910F910895CF93DF93E6
:101DA000CFE1D2E060E0CE010E9482292196C115E8
:101DB00084E0D807B9F7DF91CF910895CF92DF92F1
:101DC000EF92FF920F931F93CF93DF93C0E0D0E089
:101DD0008E0108551F4F6E018CE1C80ED11CFE010B
:101DE000E85EFC4FE590F4906F2DCE0187960E943F
:101DF00082296E2DCE0188960E9482292296CC15CA
:101E0000DD0569F70C171D0731F7E801083F1140A0
:101E1000F9F6DF91CF911F910F91FF90EF90DF9036
:101E2000CF9008950F931F93CF93DF93C42FD0E0EB
:101E3000CC0FDD1F2CE1629FC00DD11D112438EAAB
:101E4000839FC00DD11D1124CE0187960E94742955
:101E5000082F10E0102F0027CE0188960E947429C9
:101E60009801282BC901DF91CF911F910F910895FF
:101E7000462F833038F4763028F46E3018F4672F0C
:101E80000C94120F80E090E00895CF92DF92EF92D1
:101E9000FF92843048F4811108C090918000977FB0
:101EA000909380002F9806C083E090918000986006
:101EB00090938000282F30E0AFEFBFEF0E94292AD7
:101EC00023E030E040E050E00E94FA29B42FA32F35
:101ED000922F8827492F5A2F6B2F7727CA014C370B
:101EE00024E1520728F469E070E00E94D22929C059
:101EF000DB01CA018A50974DAF4FBF4F6627782F3D
:101F0000892F9A2F25EF38E241E050E00E94FA290C
:101F100069017A01CA01B9010E94B6299B01AC018D
:101F2000C701B6010E94B629BB27A92F982F872F7A
:101F3000009721E0A207B10511F0BC0102C06FEFCC
:101F40007FEF70938D0060938C00FF90EF90DF9097
:101F5000CF900895682F86E090E00C948229843019
:101F600008F083E09091D4019770282F220F220F60
:101F7000220F922B9093D401987F21E009F420E066
:101F80009091D40120FB90F99093D4010C94450FCB
:101F900080E090E00E947C298A3E9E4F51F00E9492
:101FA000DF1C8091D401847089618093D4010E94E8
:101FB000AA0F86E090E00E9474298093D401282F14
:101FC00026952695269530E02430310524F087703B
:101FD00088618093D4018091D40180FF04C08695EC
:101FE0008695869501C080E00C94450F8091C701CD
:101FF00083FF7EC085EF92E00E9464048091C1015E
:102000001F928F9380EF92E09F938F930E94FD0425
:102010008EEE92E00E9464048091C201282F082E67
:10202000000C330B3F938F938BEE92E09F938F9333
:102030000E94FD0489EE92E00E9464048091C30135
:10204000282F082E000C330B3F938F9386EE92E0DF
:102050009F938F930E94FD0484EE92E00E9464049B
:102060008091C401282F082E000C330B3F938F93CF
:1020700081EE92E09F938F930E94FD048FED92E09A
:102080000E9464048091C501282F082E000C330B98
:102090003F938F938CED92E09F938F930E94FD046A
:1020A00089ED92E00E9464048091BD011F928F939C
:1020B00086ED92E09F938F930E94FD0484ED92E061
:1020C0000E9464048091B3021F928F9381ED92E08D
:1020D0009F938F930E94FD048EEC92E00E94640413
:1020E0008DB79EB74C960FB6F8949EBF0FBE8DBFAE
:1020F0000E941A1C2091C201211104C02091C30129
:10210000222321F09093BF018093BE012091C4014E
:10211000211104C02091C501222321F09093BC011C
:102120008093BB01E091B701F091B801309749F07D
:1021300082E08093C0010480F581E02D80EC91E085
:1021400009940895803F39F49091C30197FF35C0F9
:102150001092C30159C0813F29F49091C30119160F
:10216000BCF32BC09091C201823F29F497FF25C098
:102170001092C20149C0833F19F41916CCF31DC057
:102180009091C401893F29F41916BCF41092C4013E
:102190003BC08A3F19F497FF10C0F8CF8B3F39F44A
:1021A0009091C50197FF09C01092C5012DC08C3FC9
:1021B00021F49091C5011916BCF39CE0980F95305D
:1021C00080F421E030E0A90102C0440F551F9A9528
:1021D000E2F7CA0180959091C10189238093C101E2
:1021E00013C08D3F21F48091B3028E7F0BC08E3FD0
:1021F00021F48091B3028D7F05C08F3F29F4809137
:10220000B3028B7F8093B3028091C201811106C01B
:102210008091C301811102C01092BD018091C4015F
:10222000811106C08091C501811102C01092BA01CE
:1022300008958091B30280FD16C081FD16C082FD15
:1022400018C08091BA01882391F0883290F428E078
:10225000829FC001112468E270E00E94E629862F67
:10226000672B29F007C082E0089584E0089581E09B
:10227000089588E008958091B30280FD17C081FD24
:1022800017C082FD19C08091BD01882399F08C335D
:1022900098F423E2829FC00111246CE370E00E9455
:1022A000E629862F672B49F481E0089588E0089598
:1022B00081E1089585E0089583E20895803F21F447
:1022C0000E943B11819504C0813F29F40E943B117B
:1022D0008093C3010895823F21F40E943B118195B0
:1022E00004C0833F29F40E943B118093C2010895EA
:1022F000893F19F40E94191105C08A3F31F40E94E8
:10230000191181958093C40108958B3F21F40E9497
:102310001911819504C08C3F29F40E9419118093F2
:10232000C50108959CE0980F953078F421E030E0E5
:10233000A90102C0440F551F9A95E2F7CA01909176
:10234000C101892B8093C10108958D3F21F48091B3
:10235000B30281600BC08E3F21F48091B302826092
:1023600005C08F3F29F48091B30284608093B3024B
:102370000895CF93DF930E94380FEC0182389105C6
:1023800059F1A0F48133910509F473C040F4893206
:10239000910509F467C08A9709F472C084C0853337
:1023A000910509F458C0C997B9F07DC0833E9105E5
:1023B00071F138F4803E9105B1F0823E910511F142
:1023C00072C0863E9105B9F1873E9105C9F1843E00
:1023D000910509F068C024C080915D0180FD5DC059
:1023E00081FD5BC060C080915D0180FD50C0809127
:1023F0005E0180FF49C180915D0184FD43C1C3EE50
:10240000D0E042C180915D0182FF3EC1F4CF809156
:102410005D0182FD3FC080915E0180FD3EC0EBCF3B
:1024200080915E0181FF30C180915D0184FD2AC1F0
:10243000C7EED0E029C180915D0183FF25C1F4CFB3
:1024400080915D0183FD2CC080915E0181FFECCF06
:10245000C4EED0E019C180915D0185FF15C1C9E2CC
:10246000D0E012C180915D0185FF0EC1C5E3D0E0CF
:102470000BC180915D0186FF07C1CAE2D0E004C1B3
:1024800080915D0186FF00C1C1E3D0E0FDC0C9E3DA
:10249000D0E0FAC0C2EED0E0F7C0C0EED0E0F4C0A9
:1024A000C6EED0E0F1C0C11581E5D80708F066C0DE
:1024B000C11520E5D207E0F0CE0174E0969587952E
:1024C0007A95E1F783709C2F937021E030E002C091
:1024D000220F331F9A95E2F73C68382BCF70C695D0
:1024E000C69540E2C49FE0011124C22BD32BCCC07F
:1024F000C83ED10560F5C03ED10508F0C5C0C83A58
:10250000D105B0F4C53AD10540F0C55AD0E0C15E5E
:10251000DE4FC881D0E0D064B7C0C130D10509F426
:10252000B3C008F4AFC0C430D10508F4ABC0ACC030
:10253000CF3BD10508F0A6C0C85AD0E0CC0FDD1FB4
:10254000CE5DDE4F0990D881C02DD4649DC0C115E9
:1025500040E2D40758F4C11581E0D80708F094C0D0
:10256000C03FD10508F48EC0D0658EC0C11520E4EF
:10257000D20708F487C0DF70D06A86C0C11545E570
:10258000D40708F042C0C11584E5D80728F0DC2F35
:10259000CC27C46FD06A78C0C11523E5D207B0F04C
:1025A000CE018370992721E030E002C0220F331F53
:1025B0008A95E2F78C2F8695869540E2849FC0012C
:1025C0001124E901C82BD92BDA685EC0C11542E598
:1025D000D40728F4DC2FCC27C16FD06A55C0CE01B8
:1025E0008370992721E030E002C0220F331F8A95C3
:1025F000E2F78C2F8695869540E2849FC0011124D6
:10260000E901C82BD92BDC683FC0C11589E5D80783
:10261000B8F4C11528E5D20728F0DC2FCC27C06F0D
:10262000D06A32C0C11546E5D40760F58C2F0E94F0
:10263000F00C8F71C82FD0E0DC2FCC27D06224C0E3
:10264000C1158AE5D80780F48C2F8F700E94F00C9A
:1026500094E0D695C7959A95E1F7CF70D0E0DC2F3E
:10266000CC27D069C82B10C0CE019056811590425E
:1026700048F48D2F8F710E94F00CDD27D0628F718E
:10268000D82B02C0C0E0D0E0CE01DF91CF910895F9
:102690008295982F937344E0949F900111248C7C31
:1026A00086958695282B822F8575880F2A7A269500
:1026B000822B0895DF92EF92FF920F931F93CF9397
:1026C000DF93E82FF0E0E25BFD4FD490282F2695B2
:1026D0002695269530E0F901E25CFD4F0491877064
:1026E00010E0082E02C0159507950A94E2F70170D4
:1026F0001127F901E25DFD4FE490F12C082E02C094
:10270000F594E7940A94E2F791E0E922FF24F901B5
:10271000E25EFD4FC491D0E002C0D595C7958A9581
:10272000E2F7C170DD270115110519F081EE0E9455
:10273000E027E114F10419F086EE0E94E0278D2DC8
:102740000E94A428EF2819F086EE0E947927012B19
:1027500019F081EE0E947927CD2B51F08CE2DF91A8
:10276000CF911F910F91FF90EF90DF900C94A428D0
:10277000DF91CF911F910F91FF90EF90DF9008951F
:1027800080B38C7080BB81B38C7081BB6FE381E0C0
:102790000C94330D84B1807F84B985B18F6085B985
:1027A0008AB1837F8AB98BB18C608BB93E98469A87
:1027B000109256011092B9008CE08093B8002FEF70
:1027C00083ED90E3215080409040E1F700C000008D
:1027D0000C94500D7F928F929F92AF92BF92CF92A6
:1027E000DF92EF92FF920F931F93CF93DF930E949C
:1027F000500DC5EDCC2EC1E0DC2ED3E6ED2ED1E0A0
:10280000FD2EC0E0D0E0AA24A394B12C05E0702EE8
:10281000C33091F038F4C13091F0C23099F4859A08
:102820008D9812C0C43029F0C53061F4809A889820
:102830000BC0819A899808C0849A8C9805C0869AA2
:102840008E9802C0879A8F98B5010C2E01C0660F32
:102850000A94EAF7609581E00E94330D80EA8A9538
:10286000F1F7F70180E090E000E010E02081222302
:1028700019F02150208309C09501082E02C0220FB3
:10288000331F0A94E2F7022B132B019631968E30F8
:10289000910561F780915601882359F180E40E94E7
:1028A0006721882311F080E020C082E10E9440214E
:1028B0008111F9CF81E40E9467218111F4CF84E86E
:1028C0008093BC000E941A1C4C018091BC0087FDC3
:1028D0000AC00E941A1C8819990984369105A8F328
:1028E0008EEF9FEF02C08091BB0094E99093BC00F3
:1028F00001C080E0482F50E0369903C020E830E066
:1029000002C020E030E04B9903C080E091E002C0BB
:1029100080E090E0822B932B4A9903C020E032E0C4
:1029200002C020E030E0822B932B1B9903C060E0B3
:1029300074E002C060E070E0862B972B1A9903C008
:10294000E0E0F8E002C0E0E0F0E08E2B9F2B199968
:1029500003C020E030E102C020E030E0822B932B66
:10296000189903C060E070E202C060E070E0F60118
:1029700020813181862B972B842B952B82279327BF
:1029800008231923022713272027312780E090E00E
:10299000A501082E02C0440F551F0A94E2F74223F6
:1029A0005323452B21F0F701E80FF91F70820196A0
:1029B0008E30910569F7F601019311936F010E9422
:1029C000C0132196FEE0EF0EF11CC630D10509F0D0
:1029D0001FCF4091AF025091B0026091B10270914F
:1029E000B202CB01AA27BB270097A105B10521F0B0
:1029F000AC01BD0180E101C080E0052F162F272F1B
:102A00003327011511052105310519F0885FB9013A
:102A1000A8018A019B01F4E0369527951795079543
:102A2000FA95D1F7011511052105310519F08C5FD3
:102A3000B901A8018A019B01E2E036952795179517
:102A40000795EA95D1F7011511052105310519F012
:102A50008E5FB901A8017695679557954795452BE7
:102A6000462B472B09F08F5F259A2D9A269A2E9A8E
:102A7000249A2C9A813029F0823029F4269A2E98B3
:102A800002C0259A2D9881E0DF91CF911F910F917F
:102A9000FF90EF90DF90CF90BF90AF909F908F907E
:102AA0007F900895CF93DF93CDB7DEB7AB970FB686
:102AB000F894DEBF0FBECDBF84B7877F84BF0FB64B
:102AC000F894A895809160008861809360001092CE
:102AD00060000FBE90E080E80FB6F894809361002C
:102AE000909361000FBE85B7806885BF85B7806809
:102AF00085BF84EC9AE190935101809350010E942C
:102B0000EC240E940B258091E20084608093E20017
:102B100078948091A5028823A1F01091E9001F709C
:102B20009091EC00892F817090FD80E8182B109215
:102B3000E9008091E80083FD0E94CF211F7010936F
:102B4000E90082E084BD93E095BD9AEF97BD809344
:102B50006E000E94C0130E94CA1383E691E047EB07
:102B600051E0E5EDF1E011921192DC0120E01D92BF
:102B70002F5F2E30E1F70E9648175907A1F780E036
:102B800090E00E947C298A3E9E4F11F00E94DF1C3B
:102B900082E090E00E9474298093C7010E94CE1CBD
:102BA00090935E0180935D010E94EA138FE39CE99C
:102BB0000197F1F700C000000E94EA138091D5014F
:102BC00080FF17C06FEF83E290E00E9482296FEFD1
:102BD00084E290E00E9482296FEF85E290E00E94FB
:102BE00082296FEF7FEF80E090E00E94A0290E9491
:102BF000C11B83E090E00E947429682F70E080E0A0
:102C000090E00E94111F279A2F988AE080938000FD
:102C100089E1809381008FEF9FEF909387008093ED
:102C200086000E94C80F8CE090E00E94742990E01A
:102C3000A0E0B0E080935F0190936001A0936101F8
:102C4000B09362018091C70180FF0EC080915F0147
:102C50001F928F9380E195E09F938F930E94FD04D4
:102C60000F900F900F900F90279A2F98259A2D9ADA
:102C7000269A2E9A249A2C9A259A2D989FEFE0E76F
:102C8000F2E09150E040F040E1F700C00000269AE9
:102C90002E982FEF30E742E0215030404040E1F7DE
:102CA00000C00000249A2C985FEF80E792E051501A
:102CB00080409040E1F700C00000259A2D9AEFEF88
:102CC000F0E722E0E150F0402040E1F700C00000D2
:102CD000269A2E9A3FEF40E752E031504040504054
:102CE000E1F700C00000249A2C9A279A2F9A259A7F
:102CF0002D98269A2E98249A2C988FE792E4E0E15A
:102D000081509040E040E1F700C00000279A2F98E2
:102D1000259A2D9A269A2E9A249A2C9A83E290E04C
:102D20000E947429813281F484E290E00E94742927
:102D3000873051F485E290E00E94742991E0883256
:102D400009F090E0892F01C080E080FFF9C30E9464
:102D5000C80F80E091E09093B8018093B70185E7B8
:102D600095E00E9464048091A502853009F06DC051
:102D700081E795E00E946404F0E4FF2E00E112E197
:102D80008091A502853009F05AC08091A502843057
:102D900031F180E00E94450F1092B90128E130E046
:102DA0000FB6F894A895209360000FBEF0926000D3
:102DB00083B7817F846083BF83B7816083BF78944A
:102DC000889583B78E7F83BF0FB6F894A8958091BE
:102DD0006000886180936000109260000FBE809157
:102DE000A402882309F4CCCF0E94C0130E94CA1306
:102DF0001092D6011092D5011092D8011092D701ED
:102E00001092DA011092D9011092DC011092DB01CC
:102E10001092DE011092DD011092E0011092DF01AC
:102E20000E94EA13E5EDF1E081919191892B09F07F
:102E300068C341EE51E04E175F07B1F7A1CF0E9482
:102E40003A270E94C80F0E944F0E0E94EA1388235F
:102E500059F08FB7F8944091E1015091E2016091EF
:102E6000E3017091E4018FBF78EC672E71E0772E5B
:102E7000E5ED4E2EE1E05E2E00E010E00BA7F20142
:102E8000A190B1902F01F301C190D1903F01CA24CC
:102E9000DB24C114D104B1F40F5F1F4F06301105BC
:102EA00069F78FEF8EA38FA318A60E941A1C81606A
:102EB000782F9AA789A74EA15FA168A58AA50E942D
:102EC000850D77C08091C70181FD05C080E0EE24AB
:102ED000E394F12C48C080E495E00E94640455ED31
:102EE000852E51E0952EE12CF12CFF92EF922BE3F1
:102EF00035E03F932F930E94FD0488E395E00E9404
:102F00006404F40180812180F2E08F0E911C0E9404
:102F10004813382E822D0E944813232D30E0322F83
:102F20002227A901482BCA019F938F9382E395E042
:102F30009F938F930E94FD0480E395E00E946404B8
:102F4000FFEFEF1AFF0A0FB6F894DEBF0FBECDBF3A
:102F500036E0E316F10449F6B9CF8F5FEE0CFF1CA3
:102F60008E3009F499CF96012E213F21232BA9F30E
:102F700089A34BA54AA3AE20BF2081E0AB2809F46A
:102F800080E08BA30E941A1C8160782F9DA38CA3E4
:102F900049A15AA16BA18DA10E94850D000F111F9F
:102FA000F801E853FE4F80819181E826F926F182ED
:102FB000E08286E0E0ECF1E08E010F5F1F4FD80168
:102FC00001900D928A95E1F7C090C201D090C301A3
:102FD000E090C401F090C5011092C2011092C301AB
:102FE0001092C4011092C501C11003C0DD2009F484
:102FF00051C08091BE019091BF010E940B1C9C01A9
:103000009091BD01992309F4B4C22531310508F42A
:1030100041C09F3F19F09F5F9093BD01CC2061F0AC
:103020000E943B111C1414F491E001C09FEF899F92
:10303000802D11248093C201DD2061F00E943B119C
:103040001D1414F491E001C09FEF899F802D11247D
:103050008093C3013091C2013323E1F02091C30179
:103060002223C1F055EB3503C0011124992319F037
:103070009093C20103C081E08093C20135EB23032A
:10308000C0011124992319F09093C30103C081E07A
:103090008093C301E11003C0FF2009F451C0809167
:1030A000BB019091BC010E940B1C9C019091BA0144
:1030B000992309F462C22536310508F441C09F3FC7
:1030C00019F09F5F9093BA01EE2061F00E941911F0
:1030D0001E1414F491E001C09FEF899F802D1124EC
:1030E0008093C401FF2061F00E9419111F1414F491
:1030F00091E001C09FEF899F802D11248093C5012D
:103100003091C4013323E1F02091C5012223C1F0A5
:1031100045EB3403C0011124992319F09093C401A5
:1031200003C081E08093C40155EB2503C001112445
:10313000992319F09093C50103C081E08093C501E4
:103140008091C20181110BC08091C301811107C020
:103150008091C401811103C08091C50181110E9439
:10316000F60FCB82DC82ED82FE8286E0F801A0ECD5
:10317000B1E001900D928A95E1F70E944F0E909177
:10318000C601891739F10E944F0EF82E8093C601AF
:103190008091C70182FF1EC080FF04C08EE595E0CC
:1031A0000E9464048091C70180FF0CC01F92FF92AF
:1031B00089E595E09F938F930E94FD040F900F90F7
:1031C0000F900F908091C70180FF04C087E595E0C4
:1031D0000E9464048091A502843009F0C4CD83E08C
:1031E0008093E9008091E80082FFBDCD8091E800E6
:1031F00085FF21C00E94952681111BC080E2E82E28
:10320000F12C680109C08091F100F60181936F01F2
:10321000F1E0EF1AF10869F08091E80085FDF3CF45
:103220008091E8008B778093E8000E9495268823A0
:1032300099F391E001C090E08091E8008B77809352
:10324000E800992309F48FCDE9818E2F90E0FC01ED
:103250003197E331F10508F02AC1EE59FF4F0C9484
:103260001C2A1A8289E091C08A81823009F45FC1E8
:10327000833089F0813009F01AC12FB7F89480911A
:10328000E1019091E201A091E301B091E4012FBF2F
:10329000BB83AC8323C0F801CE010D96A5EDB1E050
:1032A0002C9111963C91119712963283238332967A
:1032B0008E179F07A9F7FDC08A81823009F0F7C0F9
:1032C0006B817C818D819E810E94222A86E290E022
:1032D00024C04C816B818A810E94120F9D832EC174
:1032E000CD80DE80DC24CD24DC248C81EB809A81AF
:1032F0002CE1E29E7001112438EA939FE00CF11C4E
:103300001124E80EF11CE80EF11C6D2DC701879603
:103310000E9482296C2DC70188960E948229C9C00B
:103320000E94DE0EC6C08A81893009F0C2C08B813E
:1033300043E0849FC00111246FEF70E00E94D22906
:10334000862F0E94AF0FB5C08A81893029F08A305C
:1033500009F0AFC01B82ADC08091D40186958695DF
:1033600086955FEF859FC001112463E070E00E94A5
:10337000D2296B839EC08091D4010E94AA0F99C06C
:1033800080E150C081E08A8381EE8B8392C0EA8025
:10339000FB80FE24EF24FE24AC80B12C6801C70121
:1033A000815E9D4F9601201B310B2A153B0508F0CD
:1033B00080C0E1EEEE16E1E0FE0628F40E947429DA
:1033C000F601848302C0F6011482FFEFEF1AFF0AB0
:1033D0002FEFC21AD20AE3CFEA80FB80FE24EF244B
:1033E000FE24AC80B12C6801C701815E9D4F96011F
:1033F000201B310B2A153B0508F05BC031EEE316AC
:1034000031E0F30620F4F60164810E948229FFEF87
:10341000EF1AFF0A2FEFC21AD20AE6CF0E94CE0E91
:1034200048C083E08A8345C0EA80FB80FE24EF2405
:10343000FE24AC80B12C6801C70187969601201B41
:10344000310B2A153B05A8F538EFE31631E0F306FA
:1034500028F40E947429F601848302C0F6011482C4
:10346000FFEFEF1AFF0A2FEFC21AD20AE5CFEA8068
:10347000FB80FE24EF24FE24AC80B12C6801C70140
:1034800087969601201B310B2A153B0590F438EFE7
:10349000E31631E0F30620F4F60164810E948229EC
:1034A000FFEFEF1AFF0A2FEFC21AD20AE8CF8FEF11
:1034B00089838091A502843009F055CC8091E90080
:1034C0008F702091EC00922F917020FD90E8F92EE2
:1034D000F82A82E08093E9008091E80080FF0CC028
:1034E00040E050E060E270E0C8010E94C826809190
:1034F000E8008E778093E8008F2D8F708093E9002D
:1035000032CC09BD19BD09B400FEFDCF8091D800B1
:103510008F7D8093D8008091E00082608093E000EE
:103520008091E00081FDFCCF0E943A2729CC86E201
:1035300090E00E9474291B821C821D828E83B9CF69
:1035400060E086E290E00E9482290E94DE0E0E94E6
:10355000CE0E61E283E290E00E94822967E084E27D
:1035600090E00E94822968E285E290E00E94822930
:10357000EECB232B09F04FCD8DCD232B09F0A1CD20
:10358000DFCD8091820208959FB7F89410927E0259
:103590009FBF9091A502943009F057C09091E90027
:1035A0009F703091EC00232F217030FD20E8922B8A
:1035B00025E02093E9002091EB0020FF43C02091FB
:1035C000EE0027FF3FC020917D02222321F02091B1
:1035D000E80025FF37C010927D0226E03091E80018
:1035E00035FD15C03091A502343061F53091EB0006
:1035F00035FD28C0215021F481E080937D0222C056
:10360000EFE9FFE03197F1F700C00000E7CF8093CA
:10361000F1008091E80085FD0AC08091E80080FFFC
:10362000FCCF8091E8008E778093E80006C08FB7CA
:10363000F89421E020937E028FBF9F709093E90061
:1036400080E008959F709093E9008FEF0895CF93E5
:10365000DF9300D01F92CDB7DEB79091A5029430D2
:1036600011F589837B836A839093E9008FEF9091B2
:10367000E800815095FD06C095ED9A95F1F70000A0
:103680008111F5CF8091E80085FF0DC040E050E04A
:1036900063E070E0CE0101960E94C8268091E800A8
:1036A0008E778093E8000F900F900F90DF91CF916D
:1036B0000895BC0184E00C94271BBC0183E00C94AA
:1036C000271B24E02093E9002FEF3091E8002150E0
:1036D00035FD06C035ED3A95F1F700002111F5CF23
:1036E0002091E80025FF0BC040E050E066E070E06C
:1036F0000E94C8268091E8008E778093E8000895A4
:10370000CF93DF9320910A01222339F020915D01AC
:1037100027FF03C060E224E002C068E021E02093BC
:10372000E9002FEF3091E800215035FD06C035ED5E
:103730003A95F1F700002111F5CF2091E80025FF1F
:103740001DC0EC0180910A01811105C040E050E0EC
:1037500068E070E003C070E040E050E0CE010E94FD
:10376000C8268091E8008E778093E80080E2FE0111
:10377000A3E8B2E001900D928A95E1F7DF91CF9135
:10378000089581E08093E00080E28093D800109259
:10379000C9008FE19EE40197F1F700C0000087E0C7
:1037A00090EBDC018093B4029093B502A093B60233
:1037B000B093B7029CE088E10FB6F894A895809387
:1037C00060000FBE90936000FFCF78941F920F921D
:1037D0000FB60F9211248F939F93AF93BF93809155
:1037E000E1019091E201A091E301B091E401019621
:1037F000A11DB11D8093E1019093E201A093E3012B
:10380000B093E401BF91AF919F918F910F900FBE44
:103810000F901F9018959C014FB7F8948091E1018B
:103820009091E201A091E301B091E4014FBF821BAE
:10383000930B08952FB7F8948091E1019091E201E4
:10384000A091E301B091E4012FBF08951F920F9260
:103850000FB60F9211248F939F93AF93BF938091D4
:10386000B901811113C08091E1019091E201A09111
:10387000E301B091E4014196A11DB11D8093E101E6
:103880009093E201A093E301B093E401BF91AF9163
:103890009F918F910F900FBE0F901F9018952091C0
:1038A0000A01222351F120915D0127FF26C0262F16
:1038B0002695269526952E3178F4FC01E20FF11D10
:1038C000677081E090E001C0880F6A95EAF7809503
:1038D00092818923828308958091C70180FF17C058
:1038E0001F926F9383ED95E09F938F930E94FD0449
:1038F0000F900F900F900F900895FC010696228173
:10390000621301C012823196E817F907C1F70895D2
:1039100020910A01222349F120915D0127FF25C052
:10392000262F2695269526952E3170F4FC01E20F60
:10393000F11D677081E090E001C0880F6A95EAF799
:103940009281892B828308958091C70180FF25C0D1
:103950001F926F9385EB95E09F938F930E94FD04D8
:103960000F900F900F900F900895FC0132962FEF5B
:1039700030E04191641789F02F3F19F4411101C0E3
:10398000232F3F5F3630A9F72F3F39F0FC01E20FBC
:10399000F11D27FDFA95628308950895CF9384E081
:1039A00090E00E947429C82F82E290E00E9474295E
:1039B0002C2F30E0A901582BCA01CF9108956AEE4F
:1039C0007EEF80E090E00E94A02960E082E090E03D
:1039D0000E94822960E083E090E00E948229109298
:1039E000790210927A0210927B0210927C0260E0BF
:1039F00084E090E00E94822960E082E290E00E94F0
:103A0000822960E085E090E00E94822960E086E003
:103A100090E00E9482296FEF87E090E00E94822967
:103A200040E050E0BA0188E090E00E94942960E014
:103A30008DE090E00E94822940E050E0BA0188E1E8
:103A400090E00E94942960E087E190E00E94822942
:103A500040E050E0BA018CE190E00E94942960E0DF
:103A600070E080E290E00E94A02940E050E0BA01BE
:103A700088E190E00E94942940E050E0BA018FE094
:103A800090E00E94942940E050E0BA0183E190E088
:103A90000C949429809178028111109278020895F3
:103AA000EF92FF920F931F93CF93909177028091A3
:103AB0007602892B20917502982F922B9093E50125
:103AC000809178028823D9F0892B8093E501809139
:103AD0000A01882331F080915D0187FF02C08EE1E9
:103AE00001C086E0E7EEF1E090E0815028F02191FE
:103AF0002223D9F39F5FF9CF91110E944A1DE091D3
:103B0000B701F091B801309709F448C080910A01DB
:103B1000882359F080915D0187FF07C08091E501FE
:103B20008093E60185E08093E5010280F381E02D3A
:103B300085EE91E009958091C70182FF2FC080FF3B
:103B400004C083EA95E00E94640405EE11E0C8E039
:103B50008DE9E82E85E0F82E8091C70180FF0CC02A
:103B6000F80180811F928F93FF92EF920E94FD04D3
:103B70000F900F900F900F90C1500F5F1F4FC1110A
:103B8000EBCF8091C70180FF09C08BE995E0CF9111
:103B90001F910F91FF90EF900C946404CF911F91AF
:103BA0000F91FF90EF900895CF93DF93C0915E0146
:103BB000C2FB992790F9981701F1D82F80FBC2F921
:103BC000C0935E0160915D0184E090E00E948229D3
:103BD0006C2F82E290E00E9482298091C70180FFD1
:103BE0000CC01F92DF9386E895E09F938F930E940D
:103BF000FD040F900F900F900F90DF91CF910895DB
:103C0000BF92CF92DF92EF92FF920F931F93CF93C9
:103C1000DF938C01C090AF02D090B002E090B1026F
:103C2000F090B2028091790290917A02A0917B0289
:103C3000B0917C02C82AD92AEA2AFB2ACFE1D0E037
:103C4000D701C6010C2E04C0B695A7959795879508
:103C50000A94D2F780FD04C0219790F7B12C07C0D9
:103C6000BC2EB8018C2F0E94B9110197A9F38B2D9E
:103C7000DF91CF911F910F91FF90EF90DF90CF9048
:103C8000BF900895CF93DF93EC010E94001EBE0108
:103C90000E94B911DF91CF9108952EE0929F800D7F
:103CA0001124682F669566956695982F977085E024
:103CB000689FB001112440E050E080E0FB01E40F78
:103CC000F51FE35CFD4F208130E0092E02C03695E0
:103CD00027950A94E2F721703327042E01C0220FA2
:103CE0000A94EAF7822B4F5F5F4F4530510531F759
:103CF00008952EE0929F800D1124E82FE695E69519
:103D0000E695877051E001C0550F8A95EAF785E086
:103D1000E89FF0011124E35CFD4F20E030E070E00B
:103D20004081CB01022E02C0969587950A94E2F756
:103D30008170819584278523842781932F5F3F4F4E
:103D40002530310569F708956093AF027093B00292
:103D50008093B1029093B2020C941D270F931F938E
:103D600041E050E060E070E004C0440F551F661F62
:103D7000771F8A95D2F74095509560957095809100
:103D8000AF029091B002A091B102B091B2028A014B
:103D90009B01082319232A233B23C901B8011F9142
:103DA0000F910C94A41E209174028095822380931D
:103DB0007402982F977041F430E0482F082E000CC1
:103DC000550B2417350721F490915E0192FF07C02F
:103DD0008595859585950E94AE1E10927402089572
:103DE0000F931F9341E050E060E070E004C0440F87
:103DF000551F661F771F8A95D2F78091AF02909169
:103E0000B002A091B102B091B2028A019B01082BCD
:103E1000192B2A2B3B2BC901B8011F910F910C9430
:103E2000A41E6093790270937A0280937B02909330
:103E30007C020C941D2780913C0290910B02891703
:103E400019F08F5F8770FBCF08950F931F93CF9367
:103E5000DF9380910A0282958F7009F05DC0809196
:103E60000702882309F458C080913C0210910B028C
:103E70006091050270910602C0910802D09109027A
:103E800091E06F3F09F090E0292F06E0811709F4D7
:103E900043C0209721F07F3F21F030E003C031E0A4
:103EA00001C0322F90E030FD34C0089FF001099F1F
:103EB000F00D1124DF01A45FBD4F11963C911197C5
:103EC000371327C03C91361324C012963C911297A9
:103ED00031111FC013964D915C9114974C1B5D0BD3
:103EE000483C5105B0F480910A028F708061809344
:103EF0000A02EF5EFD4F80818F708061808385E0D4
:103F000092E00E940605DF91CF911F910F910C94D2
:103F10001B1F01968770BACFDF91CF911F910F9130
:103F200008959F92AF92BF92CF92DF92EF92FF924D
:103F30000F931F93CF93DF93CDB7DEB761970FB683
:103F4000F894DEBF0FBECDBF8C0185E0F801DE0125
:103F50001D9601900D928A95E1F7F801908181817B
:103F6000E280309105026091060240910802509172
:103F700009024115510531F06F3F31F421E03F3F17
:103F800019F403C021E001C020E0F22FF1709F2E50
:103F900020FD23C1F801C380D48025E0A22E22E0B9
:103FA000B22EF0900702F601E41BF50BFF2009F496
:103FB000CEC020910A02E83CF10508F099C0422FDA
:103FC000407F09F051C0681311C039130FC0FE2C97
:103FD000E1100CC02F70206120930A02C5010E94DD
:103FE000060580910A02F801858337C1CD2831F09A
:103FF0008F3F31F421E09F3F19F403C021E001C05D
:1040000020E020FD03C021E02E2502C020E030E0AA
:10401000F22FF170FF2E20FF1DC020913C02409135
:104020000B0256E0241709F4F6C030E0529FF0016D
:10403000539FF00D1124E45FFD4F6181861306C08C
:104040006081961303C06281E61204C02F5F3F4F68
:104050002770E8CFFE2CEE2009F4FFC080910A0201
:10406000816080930A0250C0681307C0391305C0ED
:10407000E11003C0F80125838DC09D878E878D8553
:104080009E850E94F426882369F1EE2059F1209143
:104090000A02822F82958F7090E0029774F08091CF
:1040A00005029091060298878F831986DB86CA865F
:1040B0002C87CE0107960E94060586E0F801A5E050
:1040C000B2E001900D928A95E1F70E94251F0DC084
:1040D0006817E1F09D878E878D859E850E94F42666
:1040E00081111EC0C8010E940605FF24F394B5C0CB
:1040F000422F407F69F785E092E00E94060586E046
:10410000F50111928A95E9F7F12CA7C03913E2CF96
:10411000E110E0CFF8012583C8010E94060557C0D1
:10412000EE2001F320910A02822F82958F7090E099
:1041300002971CF280910502909106029A8389836E
:104140001B82DD82CC822E83CE010196B4CFE83C67
:10415000F105E8F5FE2CEE2029F2681327C039138B
:1041600025C020910A0220FD18C0822F82958F70F1
:10417000482F50E04115510581F0F80125834F305B
:10418000510541F08F5F982F9295907F822F8F700D
:10419000892B8583C8010E94060586E0F801A5E009
:1041A000B2E001900D928A95E1F757C09D878E8706
:1041B0008D859E850E94F42681117FCF80910A0211
:1041C000816080930A02C8010E94060546C086E00D
:1041D000F50111928A95E9F740C0EE2009F482CFEB
:1041E0009D878E878D859E850E94F426F82E8823D4
:1041F00009F478CF86E0F801A5E0B2E001900D92D5
:104200008A95E1F780910502909106020E94421E74
:104210000E94251F22C09D878E878D859E850E94C6
:10422000421E292F22952F70223028F49F7039F0DA
:10423000811105C00BC0243028F49F7049F4805EC2
:10424000883020F0C8010E9406059F2CF92C05C07B
:10425000F8019581907F99F7F9CF8F2D61960FB670
:10426000F894DEBF0FBECDBFDF91CF911F910F91AC
:10427000FF90EF90DF90CF90BF90AF909F90089508
:10428000CF93DF938093BB0084E88093BC000E94AF
:104290001A1CEC018091BC0087FD0AC00E941A1C08
:1042A0008C1B9D0B84369105A8F38EEF9FEF0CC0FD
:1042B0002091B900287F81E090E0283211F480E05D
:1042C00090E0919581959109DF91CF9108950F9399
:1042D0001F93CF93DF93C82F1092BC0084EA809382
:1042E000BC000E941A1C8C018091BC0087FD0AC092
:1042F0000E941A1C801B910B84369105A8F38EEF47
:104300009FEF2AC08091B900887F883041F080916A
:10431000B900887F803119F08FEF9FEF1DC0C093E7
:10432000BB0084E88093BC000E941A1CEC018091C1
:10433000BC0087FD08C00E941A1C8C1B9D0B843694
:104340009105A8F3DCCF8091B900887F883111F006
:10435000803411F780E090E0DF91CF911F910F91B1
:1043600008950F931F938091AF029091B002A09196
:10437000B102B091B2028C019D0106701127222773
:104380003327BC01CD01063011052105310511F49B
:10439000686001C0677F1F910F910C94A41E1F934A
:1043A000CF93DF93CDB7DEB7AA970FB6F894DEBFF1
:1043B0000FBECDBFE7EAF2E08FEA92E02091F10074
:1043C00021938E179F07D1F78091A802833009F4BB
:1043D00062C030F4813071F0823009F49CC0B3C007
:1043E0008A3009F488C08B3009F46DC0893009F037
:1043F000AAC020C08091A702813A09F0A4C0809190
:10440000E800877F8093E8008091AB029091AC0236
:10441000892B21F460E283E892E003C060E080E051
:1044200090E070E00E9416298091E8008B778093DD
:10443000E80089C08091A702813209F084C0809190
:10444000AB029091AC02009719F0029709F07BC083
:104450008091E800877F8093E8008091E80082FDEA
:1044600005C08091A5028111F8CF6DC02091F300A5
:104470008091F20090E0922B029729F48091F10054
:104480008B7F813021F48091F100809382028091B2
:10449000E8008B7754C08091A702813A09F053C09D
:1044A0008091AB029091AC02892B09F04CC08091B5
:1044B000E800877F8093E8008091E80080FFFCCFD0
:1044C00080910A0137C08091A7028132E1F5809185
:1044D000AB029091AC02892BB1F58091E800877F07
:1044E0008093E8000E94C2288091A90280930A016B
:1044F0000E943A2728C08091A702813221F580913D
:10450000E800877F8093E8000E94C2288091AA0279
:104510008093810218C08091A702813AA1F4809112
:10452000E800877F8093E8008091E80080FFFCCF5F
:10453000809181028093F1008091E8008E778093D2
:10454000E8000E94C2288091E80083FFE3C18091C7
:10455000A7029091A802492F50E04A30510508F077
:10456000D9C1FA01EB58FF4F0C941C2A803821F076
:10457000823809F0CFC108C08091A3029091A402B3
:10458000992389F082600FC08091AB028F708730D1
:1045900008F0C0C18093E9008091EB0085FB88277B
:1045A00080F91092E9009091E800977F9093E800DD
:1045B0008093F1001092F10071C1282F2D7F09F036
:1045C000A9C1882319F0823061F0A4C18091A902A9
:1045D000813009F09FC1933009F080E08093A402FC
:1045E0002EC08091A90281112AC08091AB028F70E8
:1045F0002FEF280F263008F08DC18093E90020911D
:10460000EB0020FF1CC0933021F48091EB0080620E
:1046100014C09091EB0090619093EB0021E030E0AA
:10462000A90102C0440F551F8A95E2F74093EA00A2
:104630001092EA008091EB0088608093EB0010926A
:10464000E9008091E800877F8093E8000E94C228FB
:1046500061C181115FC11091A9021F778091E300B0
:104660008078812B8093E3008091E800877F80939E
:10467000E8000E94C2288091E80080FFFCCF809172
:10468000E30080688093E300111102C082E001C062
:1046900083E08093A5023EC18058823008F03AC181
:1046A0002091A9023091AA022C3D53E0350779F5FB
:1046B00083E08A838AE289834FB7F894DE011396F8
:1046C00020E03EE051E2E32FF0E050935700E49108
:1046D00020FF03C0E295EF703F5FEF708E2F90E0F8
:1046E000EA3010F0C79601C0C0968D939D932F5F5E
:1046F000243149F74FBF8091E800877F8093E8001D
:104700006AE270E0CE0101960E941629B5C0809140
:10471000AB029091AC02432F552743305105A9F0CD
:1047200068F44130510509F404C14230510509F0E3
:10473000F1C08BE790E0EFE3F7E04BC04132510569
:1047400029F14232510589F1E5C0C901992781302B
:104750009105A1F058F0029709F0DCC0ECECF7E00D
:10476000E4918E2F90E0ECECF7E030C0EAE1F8E065
:10477000E4918E2F90E0EAE1F8E028C0E6EFF7E060
:10478000E4918E2F90E0E6EFF7E020C084309105B1
:1047900008F0C0C0880F991FFC01E95EFE4F019030
:1047A000F081E02D89E090E014C08430910508F09C
:1047B000B1C0FC01EE0FFF1FE15FFE4F0190F081E1
:1047C000E02DDC01A55FBE4F8C9190E0009709F4CD
:1047D000A1C02091E800277F2093E8002091AD023E
:1047E0003091AE028217930708F49C0140E0211536
:1047F000310589F18091A502882309F43DC08530F7
:10480000D9F18091E80083FD37C08091E80082FDF6
:104810002FC08091E80080FFEACF4091F3008091A3
:10482000F20090E0942B2115310559F08830910564
:1048300040F444914093F1003196215031090196A2
:10484000F2CF41E0089709F040E08091E8008E77D0
:104850008093E800CCCF4111CDCF0AC08091A50252
:10486000882351F0853041F08091E80083FD04C039
:104870008091E80082FFF2CF8091E8008B778093EF
:10488000E80048C0803809F045C08091E800877F83
:104890008093E8008091A6028093F1008091E80067
:1048A0008E77D2CE811136C08091A9029091AA0252
:1048B000992702977CF58091E800877F8093E80034
:1048C0001091A9021093A6020E94C228111106C0DD
:1048D0008091E30087FD02C081E001C084E0809305
:1048E000A50242E061EC81E00E94E12842E261EC35
:1048F00084E00E94E12842E261EC82E00E94E1282B
:1049000042E260EC83E00E94E12842E261EC85E053
:104910000E94E1288091E80083FF10C08091E800A8
:10492000877F8093E8008091EB0080628093EB00AA
:1049300005C082E190E0EAEBF7E04BCFAA960FB614
:10494000F894DEBF0FBECDBFDF91CF911F910895C8
:104950001F920F920FB60F9211242F933F934F93F4
:104960005F936F937F938F939F93AF93BF93CF93F7
:10497000DF93EF93FF93C091E900CF708091EC003B
:10498000D82FD17080FDD0E81092E9008091F0001E
:10499000877F8093F00078940E94CF211092E900E5
:1049A0008091F00088608093F000CD2BCF70C09391
:1049B000E900FF91EF91DF91CF91BF91AF919F916E
:1049C0008F917F916F915F914F913F912F910F90B8
:1049D0000FBE0F901F901895E8EDF0E080818E7F5C
:1049E00080831092E2001092DA001092E100A0EEB3
:1049F000B0E08C9181608C9380818F77808319BC2B
:104A0000A7EDB0E08C918E7F8C9380818F7E808328
:104A1000109280020895CF92DF92EF92FF920F934F
:104A20001F93CF93DF93C8EDD0E088818F7E88837A
:104A3000E7EDF0E080818160808384E082BF81E0E7
:104A40008093800288818E7F888302EE10E0F801D7
:104A500010821092DA0081EEC82ED12CF60110825D
:104A600088818F77888388818068888388818F7D1B
:104A7000888319BC1092A5021092A6021092A4027B
:104A80001092A30290EEE92EF12CF70180818B7F2A
:104A9000808388818160888342E060E080E00E94BA
:104AA000E128F60180818E7F8083F801808181601A
:104AB0008083808188608083F70180818E7F8083FE
:104AC000888180618883DF91CF911F910F91FF9042
:104AD000EF90DF90CF9008951F920F920FB60F9234
:104AE00011242F933F934F935F936F937F938F93F3
:104AF0009F93AF93BF93EF93FF938091E10082FF69
:104B000049C08091E20082FF45C08091E1008B7F27
:104B10008093E10020917F022F5F822F62E30E9449
:104B2000C629992319F020937F0234C010927F0286
:104B300080917E02882371F18091A502843041F535
:104B40008091E9008F702091EC00922F917020FDF0
:104B500090E8892B95E09093E9009091EB0090FF0D
:104B600014C09091EE0097FF10C09091E80095FF5F
:104B700003C01092F100F9CF9091E80090FF05C0BA
:104B80009091E8009E779093E8008F708093E90001
:104B900010927E028091DA0080FF32C08091D800AE
:104BA00080FF2EC08091DA008E7F8093DA008091A2
:104BB000D90080FF1CC080E189BD82E189BD09B4B4
:104BC00000FEFDCF81E08093A5028BE297E00E947A
:104BD000640480918002811113C00E94EC240E9421
:104BE0000B258091E20084608093E20009C019BC2B
:104BF0001092A5028FE297E00E9464041092800256
:104C00008091E10080FF1BC08091E20080FF17C00F
:104C10008091E2008E7F8093E2008091E2008061CB
:104C20008093E2008091D80080628093D80019BC04
:104C300085E08093A50283E397E00E94640480915D
:104C4000E10084FF32C08091E20084FF2EC080E149
:104C500089BD82E189BD09B400FEFDCF8091D800F5
:104C60008F7D8093D8008091E1008F7E8093E1005A
:104C70008091E2008F7E8093E2008091E20081606B
:104C80008093E2008091A602882311F084E007C09F
:104C90008091E30087FD02C081E001C083E0809342
:104CA000A50287E397E00E9464048091E10083FFFE
:104CB0002BC08091E20083FF27C08091E100877FB5
:104CC0008093E10082E08093A5021092A602809179
:104CD000E1008E7F8093E1008091E2008E7F8093DF
:104CE000E2008091E20080618093E20042E060E0B7
:104CF00080E00E94E1288091F00088608093F000BD
:104D00008BE397E00E946404FF91EF91BF91AF9114
:104D10009F918F917F916F915F914F913F912F91D3
:104D20000F900FBE0F901F9018952091E4003091C6
:104D3000E50095E64091EC00842F817040FF23C090
:104D40008091E80080FD1DC08091A502882399F024
:104D5000853099F08091EB0085FD11C04091E40011
:104D60005091E5002417350729F3915011F09A016D
:104D7000E1CF84E0089582E0089583E0089581E022
:104D8000089580E008954091E80042FFDDCF089546
:104D9000EF92FF920F931F93CF93DF937C018B01D0
:104DA0000E949526811119C0E70101151105A1F096
:104DB0008091E80085FD0AC08091E8008E7780939D
:104DC000E8000E949526882381F307C0899180938B
:104DD000F10001501109E9CF80E0DF91CF911F91DF
:104DE0000F91FF90EF9008950E94421E292F2F707F
:104DF000E92FE295EF704E2F50E0FA013297EE3036
:104E0000F105B8F4E158FF4F0C941C2A803F99F04B
:104E100018F4883E70F40FC0843F59F40CC0883EEB
:104E200050F0813F31F407C0822F86958695869594
:104E3000089580E0089581E0089580E090E00E9468
:104E4000390E80E090E00E94230E109276021092BC
:104E500075020E94501DE0ECF1E086E0DF011D923A
:104E60008A95E9F71092BD011092BA011092B3022F
:104E70000C94F60F1092770280910A01882331F08A
:104E800080915D0187FF02C08EE101C086E0E7EE00
:104E9000F1E0DF011D928A95E9F70C941D27882324
:104EA00041F08095909176028923809376020C944C
:104EB000501D0895882339F090917602892B8093B4
:104EC00076020C94501D0895882341F080959091AE
:104ED00077028923809377020C94501D08958823CC
:104EE00039F090917702892B809377020C94501DB2
:104EF0000895882309F463C0823869F40E944F0E34
:104F000081FF5DC069E385EE91E00E94881C0E94EC
:104F1000501D69E30EC0833891F40E944F0E80FF4C
:104F20004EC063E585EE91E00E94881C0E94501DF2
:104F300063E585EE91E00E944F1C0C94501D84386F
:104F400069F40E944F0E82FF3AC067E485EE91E05B
:104F50000E94881C0E94501D67E4EBCF9CEF980FC5
:104F6000913A10F4682FE5CF90E2980F983088F4CA
:104F7000877021E030E0A90102C0440F551F8A95D7
:104F8000E2F7CA0180959091770289238093770296
:104F9000D4CF9BE5980F933020F480E090E00C9400
:104FA000390E98E5980F973120F480E090E00C944A
:104FB000230E803F20F00E94A2100C94F60F08955B
:104FC000CF93882309F4BEC0C82F8238B1F40E9461
:104FD0004F0E81FDB7C069E385EE91E00E94881C09
:104FE0000E94501D2FEF81EE94E0215080409040B0
:104FF000E1F700C0000069E317C08338E1F40E94C4
:105000004F0E80FD9FC063E585EE91E00E94881CF5
:105010000E94501D2FEF81EE94E02150804090407F
:10502000E1F700C0000063E585EE91E00E944F1CAF
:10503000CF910C94501D8438B1F40E944F0E82FD24
:1050400081C067E485EE91E00E94881C0E94501D9B
:105050002FEF81EE94E0215080409040E1F700C0B6
:10506000000067E4E1CF8CEF8C0F813AC0F58091AE
:105070000A018823E1F080915D0187FF18C0EC2FC1
:10508000E695E695E695F0E0EB51FE4F8281282FFC
:1050900030E04C2F477081E090E002C0880F991FEC
:1050A0004A95E2F782239323892B61F412C0E7EE3D
:1050B000F1E08DEE91E02191C21721F08E179F074C
:1050C000D1F707C06C2F85EE91E00E944F1C0E9423
:1050D000501D6C2F85EE91E00E94881CA9CF80E2C4
:1050E0008C0F883068F4C77081E090E001C0880FB1
:1050F000CA95EAF790917702892B8093770298CF2F
:10510000EBE5EC0FE33040F4F0E0E15EFE4F808130
:1051100090E0CF910C94390EE8E5EC0FE73150F4B4
:10512000F0E0EE0FFF1FEE5DFE4F80819181CF9189
:105130000C94230EC03F30F08C2F0E945E11CF9153
:105140000C94F60FCF9108951F93CF93DF93182FF0
:10515000893319F0C0E0D0E002C0C0E5D0E0812F73
:105160000E94E027209741F08FE99FE00197F1F737
:1051700000C000002197F6CF812FDF91CF911F91C2
:105180000C9479278091A70287FF11C08091E800D5
:1051900082FD05C08091A5028111F8CF11C08091D8
:1051A000E8008B770BC08091A502882349F080919D
:1051B000E80080FFF8CF8091E8008E778093E800C8
:1051C0000895982F973068F59093E900981739F073
:1051D0007091EC002091ED005091F00003C0242F5D
:1051E000762F50E021FD02C09F5FECCF3091EB00A5
:1051F0003E7F3093EB003091ED003D7F3093ED002A
:105200003091EB0031603093EB007093EC00209311
:10521000ED005093F0002091EE0027FDE5CF80E0F7
:1052200008958F708093E90081E008952091AD0288
:105230003091AE022617370748F06115710539F431
:105240002091E8002E772093E80001C0B901FC010D
:1052500020E06115710579F18091A5028823F1F1B3
:105260008530F1F18091E80083FD3CC08091E80039
:1052700082FD2EC08091E80080FFEBCF2091F300EB
:105280008091F20090E0922B6115710551F0883009
:10529000910538F421912093F10061507109019634
:1052A000F3CF21E0089709F020E08091E8008E77A5
:1052B0008093E800CECF2111CFCF0AC08091A50204
:1052C000882361F0853061F08091E80083FD0AC099
:1052D0008091E80082FFF2CF80E0089582E0089597
:1052E00083E0089581E00895F999FECF92BD81BDD4
:1052F000F89A992780B50895A8E1B0E042E050E01F
:105300000C94A829262FF999FECF92BD81BDF89A59
:10531000019700B4021639F01FBA20BD0FB6F894F9
:10532000FA9AF99A0FBE08950396272F0E948329AF
:105330000E948229252F0E948329242F0C948329DF
:105340000196272F0E9483290C948229DC01CB012E
:10535000FC01F999FECF06C0F2BDE1BDF89A319685
:1053600000B40D9241505040B8F70895DB018F937F
:105370009F930E94382ABF91AF91A29F800D911DEB
:10538000A39F900DB29F900D11240895991B79E071
:1053900004C0991F961708F0961B881F7A95C9F7C5
:1053A00080950895AA1BBB1B51E107C0AA1FBB1F14
:1053B000A617B70710F0A61BB70B881F991F5A95A1
:1053C000A9F780959095BC01CD01089597FB072E14
:1053D00016F4009407D077FD09D00E94D22907FC6B
:1053E00005D03EF4909581959F4F089570956195F5
:1053F0007F4F0895A1E21A2EAA1BBB1BFD010DC011
:10540000AA1FBB1FEE1FFF1FA217B307E407F50774
:1054100020F0A21BB30BE40BF50B661F771F881F50
:10542000991F1A9469F760957095809590959B01E6
:10543000AC01BD01CF010895EE0FFF1F0590F4915F
:10544000E02D0994692796276927782787277827E9
:105450000895A29FB001B39FC001A39F700D811D4D
:105460001124911DB29F700D811D1124911D08956D
:105470000E94292AA59F900DB49F900DA49F800D96
:0A548000911D11240895F894FFCF48
:10548A00C11A801B611B5D1B591B014022B622EB0E
:10549A0006C9061306F10551076A078A07A3078199
:1054AA008283E200E900EA00B500B600B700CD0049
:1054BA008301CC008A019201940121022302240271
:1054CA002502260227022A02B300B4006F007000E8
:00000001FF
