:100000000C94A4030C94EB030C94EB030C94EB03FF
:100010000C94EB030C94EB030C94EB030C94EB03A8
:100020000C94EB030C94EB030C94932F0C9465301D
:100030000C94022A0C94EB030C94EB030C94EB034A
:100040000C94EB030C94EB030C94EB030C94EB0378
:100050000C94EB030C94772A0C94EB030C94EB03B5
:100060000C94EB030C94EB030C94EB030C94EB0358
:100070000C94EB030C94EB030C94EB030C94EB0348
:100080000C94EB030C94EB030C94EB030C94EB0338
:100090000C94EB030C94EB030C94EB030C94EB0328
:1000A0000C94EB030C94EB030C94EB03BF12AB1218
:1000B000CA12CF12D412D912DE12E312E812ED12D4
:1000C000F212F712FC12011306130B13101315137F
:1000D0001A131F13241329132E13331338133D132C
:1000E0004213471395179817B817C917D117DC177C
:1000F00022182218221822182218DF17E217E717F1
:10010000F4170118041808181518481F481F7A1FFB
:100110007A1FC71FFB20FB20FB20E51F7A208B20C6
:100120008B20EB20FB20FB20F42097219721A92195
:10013000A921A021A921A921A92197219721A521A0
:10014000A921A921A521D230F930F131F930F131BD
:1001500045316831F131BF31CE3129000000BE0098
:10016000BD003C003D00CA5CC95CAC00AE00AB0009
:10017000A800AA00A900490035001E001F002000A9
:1001800021002200230024002500260027002D0046
:100190002E002A004B002B0014001A000800150046
:1001A00017001C0018000C00120013002F00300074
:1001B00031004E00390004001600070009000A0053
:1001C0000B000D000E000F00330034005200280019
:1001D0004A00E10000001D001B0006001900050098
:1001E000110010003600370038005100E5004C00C7
:1001F000E000E200E3000000000000002C0000002E
:1002000000000000E7000151E40050004F00010031
:1002100000003A003B003C003D003E003F00400033
:10022000410042004300440045000100010001007C
:1002300001000100010001000100010001000100B6
:1002400001000100010001000100C25CC35CC95C47
:10025000C55CC75CCB5C010001000100010001002E
:1002600001000100010001000100C45CCA5CC65C21
:10027000C85CCC5C0100010001000100010001002C
:100280000100010001000100000001000100010067
:100290000100010001000100010001000100010056
:1002A0000100010001000100010000000000000049
:1002B0000100000000000000010001000100010039
:1002C0000100290000003A003B003C003D003E00D8
:1002D0003F00400041004200430044004500490007
:1002E00035001E001F0020002100220023002400F2
:1002F0002500260027002D002E002A004B002B0091
:1003000014001A000800150017001C0018000C004B
:10031000120013002F00300031004E00390004009D
:100320001600070009000A000B000D000E000F0068
:1003300033003400520028004A00E10000001D0094
:100340001B000600190005001100100036003700E0
:1003500038005100E5004C00E000E300E20000003E
:10036000000000002C00000000000000E600035127
:10037000E40050004F0001000000BE00BD002B084B
:100380000808CA5CC95CAC00AE00AB00A800AA00BB
:10039000A9000100010001000100010001000100AD
:1003A0000100010001000100010001000100010045
:1003B0000100C25CC35CC95CC55CC75CCB5C01006E
:1003C0000100010001000100010001000100010025
:1003D0000100C45CCA5CC65CC85CCC5C0100010066
:1003E0000100010001000100010001000100010005
:1003F00000000100010001000100010001000100F6
:1004000001000100010001000100010001000100E4
:1004100001000000000000000100000000000000DA
:1004200001000100010001000100000000000000C7
:1004300000002A2B2800000000000000000000003F
:10044000000000000029000000002C1E34202122A2
:1004500024342627252E362D3738271E1F2021220B
:10046000232425263333362E37381F040506070884
:10047000090A0B0C0D0E0F10111213141516171874
:10048000191A1B1C1D2F3130232D350405060708B2
:10049000090A0B0C0D0E0F10111213141516171854
:1004A000191A1B1C1D2F3130354C000000000000B4
:1004B000000000000000000000000000000000003C
:1004C00000000000000000000000000000007E0F9F
:1004D00000D4FFFFFFC70000007800010101010107
:1004E00001010101020202020202020202030303ED
:1004F00003030303030404040404040405050505BD
:10050000050606060606070707070708080808097C
:100510000909090A0A0A0B0B0B0C0C0C0D0D0D0E28
:100520000E0E0F0F0F1010111111121213131414BD
:10053000151516161717181819191A1A1B1B1C1D32
:100540001D1E1E1F2020212222232424252626278B
:100550002829292A2B2C2D2D2E2F303132323334BD
:1005600035363738393A3B3C3D3E3F4041424344C3
:1005700045464748494A4C4D4E4F505153545556A5
:1005800058595A5B5D5E5F616264656668696B6C51
:100590006D6F7072737577787A7B7D7E80828385CC
:1005A00087888A8C8E8F91939596989A9C9EA0A20C
:1005B000A3A5A7A9ABADAFB1B3B5B7BABCBEC0C216
:1005C000C4C6C9CBCDCFD1D4D6D8DBDDDFE2E4E7DA
:1005D000E9EBEEF0F3F5F8FAFDFF18034B006500C8
:1005E00079006300680072006F006E002000510007
:1005F0003100000012034B006500790063006800C1
:1006000072006F006E0000000403090409025B0021
:10061000030100A0FA0904000001030101000921FF
:10062000110100012240000705810308000A0904A6
:100630000100020300000009211101000122220033
:1006400007058203200001070503032000010904B8
:1006500002000103000000092111010001226D00C8
:100660000705840320000A1201100100000008346D
:100670003400010100010200010660FF0961A101CF
:100680000962150026FF009520750881020963158F
:100690000026FF00952075089102C005010980A180
:1006A00001850319012AB700150126B700950175C8
:1006B000108100C0050C0901A101850419012AA0BF
:1006C00002150126A002950175108100C0050109DF
:1006D00006A1018505050719E029E7150025019503
:1006E00008750181020507190029EF1500250195FC
:1006F000F07501810205081901290595057501911B
:1007000002950175039101C005010906A1010507C4
:1007100019E029E715002501950875018102950169
:10072000750881010507190029FF150026FF0095AE
:1007300006750881000508190129059505750191BF
:1007400002950175039101C011241FBECFEFDAE0BD
:10075000DEBFCDBF04B603FE27C080914307909152
:100760004407A0914507B09146078730904BA740BA
:10077000B04BD1F4109243071092440710924507F2
:100780001092460714BE84B7877F84BF0FB6F894D3
:10079000A89580916000886180936000109260004D
:1007A0000FBEE0E0F8E3099514E0A0E0B1E0EAED67
:1007B000F6E602C005900D92A435B107D9F727E0FF
:1007C000A4E5B4E001C01D92A334B207E1F70E9492
:1007D000542C0C946B330C940000CF93DF93C82FF0
:1007E000D62F81110DC0611105C061E070E080E07D
:1007F00090E004C064E070E080E090E00E947B251F
:100800006D2F8C2FDF91CF910C94B61981E0089554
:1008100081E008950C94080408950C940C041F932F
:10082000CF93DF9300D000D01F92CDB7DEB74983BE
:100830005A836B833091B40489819A81311114C039
:10084000662359F0222349F00E94D026182F682FE2
:1008500089819A810E94792603C00E94A426182FBC
:1008600069817A81812F04C00E94D02669817A81B2
:100870000F900F900F900F900F90DF91CF911F91DD
:100880000C94F418FC01262F408151816281738100
:1008900084810C940F04CF93DF93EC0160E00E94FD
:1008A0004204BE01DF91CF910C940D048F929F9270
:1008B000AF92BF92CF92DF92EF92FF920F931F936E
:1008C0006B017C0181E090E0A0E0B0E04C015D01B3
:1008D00004C0880C991CAA1CBB1C4A95D2F7AC0119
:1008E000BD0104C0440F551F661F771F2A95D2F71C
:1008F000482959296A297B2904C0880F991FAA1FF2
:10090000BB1F0A95D2F78A019B010C211D212E21C4
:100910003F21401751076207730739F4BC01CD012D
:100920006C297D298E299F290AC080959095A095D4
:10093000B095BC01CD016C217D218E219F211F919D
:100940000F91FF90EF90DF90CF90BF90AF909F906E
:100950008F9008950F93382F262F6091290570915D
:100960002A0580912B0590912C05042F432F0E947E
:1009700056040F910C94B5250E9426080E9450132E
:100980000C946A0880E00E94BF190C9466080895D0
:100990000E9485210E94C7042FEF84E39CE0215030
:1009A00080409040E1F700C000000C949D2A0F9316
:1009B0001F93CF93DF938C0161E00E944204EC010E
:1009C000B8010E944417882309F44BC0B801CE0136
:1009D0000E940A04882309F444C0B801CE010E9491
:1009E0006D1A8823F1F1B801CE010E94BF1A882345
:1009F000C1F1B801CE010E94EA1B882391F1B80130
:100A0000CE010E944B16882361F1F8018281882370
:100A100009F1CA358DE5D807C1F050F4C115FCE5E0
:100A2000DF0781F0CE3DDC45A9F40E94E12819C022
:100A3000CB35EDE5DE0761F0CC35DD4559F40E949C
:100A4000632708C00E94C8040CC00E946C2702C023
:100A50000E946F27C801DF91CF911F910F910C94D5
:100A6000060480E0DF91CF911F910F910895DF92EE
:100A7000EF92FF920F931F93CF93DF93E82FF0E055
:100A8000E65DFB4FD490282F26952695269530E0DD
:100A9000F901E653FB4F0491877010E0082E02C065
:100AA000159507950A94E2F701701127F901E654AC
:100AB000FB4FE490F12C082E02C0F594E7940A94C1
:100AC000E2F791E0E922FF24F901E655FB4FC491DA
:100AD000D0E002C0D595C7958A95E2F7C170DD27B1
:100AE0000115110519F081EE0E946D1EE114F1044B
:100AF00019F086EE0E946D1E8D2D0E94FE1EEF28BD
:100B000019F086EE0E94BB1E012B19F081EE0E94A7
:100B1000BB1ECD2B51F08CE2DF91CF911F910F9135
:100B2000FF90EF90DF900C94FE1EDF91CF911F910C
:100B30000F91FF90EF90DF900895EF92FF920F9347
:100B40001F93CF93DF93EC01162F0AE0888188234F
:100B500009F455C0813009F043C08981813041F4E6
:100B60007E0182E0E80EF11C8A810E94FE1E09C00F
:100B7000823049F47E01E2E0EE0EF11C8A810E948F
:100B80006D1EE7012FC0833041F47E01F2E0EF0ECD
:100B9000F11C8A810E94BB1EF4CF843011F0219693
:100BA00021C02A81229680E090E030E02053310974
:100BB0002A30310558F4089FA001099F500D1124D7
:100BC000C901840F951F21962881EFCF009751F01E
:100BD000EFE9FFE03197F1F700C000000197F6CF91
:100BE0000E9437052196812F882309F4AFCFEFE9C2
:100BF000FFE03197F1F700C000008150F5CFDF91A1
:100C0000CF911F910F91FF90EF90089560E00C94A9
:100C10009D0508950C94090681E008950C940C0636
:100C2000CF93C82F0E940A068C2F0E940E06CF91E8
:100C3000089580E090E008950895880F991FFC01C1
:100C4000E652FB4F859194910895CF93DF930E94D4
:100C5000F4180E943707EC018115904508F043C055
:100C6000C11580E4D80708F0CBC0C03ED10528F5F7
:100C7000C03CD10508F0B3C0C83AD10578F4C53AF4
:100C8000D10508F0A4C0C130D10509F4ECC008F4C6
:100C9000E8C0C430D10508F0E6C0E3C0CF3BD105C1
:100CA00008F0DFC0C85AD0E0CC0FDD1FC254DC4FC3
:100CB0000990D881C02DD464D6C0C11590E2D9075F
:100CC00050F4C11521E0D20708F0CDC0C83ED105CF
:100CD00008F4C9C0C6C0C11580E3D80708F086C0B3
:100CE000CE019F707FC0C11595E5D90708F043C0BC
:100CF000C11524E5D20708F09AC0C11582E5D807CE
:100D000008F5C11591E5D90708F07DC0CE0174E062
:100D1000969587957A95E1F783709C2F937021E0E3
:100D200030E002C0220F331F9A95E2F73C68382B5F
:100D3000CF70C695C69580E2C89FE0011124C22BF2
:100D4000D32B91C09E01237033278C2F86958695D7
:100D5000C115D34508F05CC0C1E0D0E002C0CC0FA3
:100D6000DD1F2A95E2F720E2829FC0011124C82BE3
:100D7000D92BDC6878C0C11529E5D207A0F4C115CC
:100D800088E5D80708F058C0C11596E5D90708F0DE
:100D900068C08C2F0E94CB078F71C82FD0E0DC2F4A
:100DA000CC27D06260C0C1152AE5D20708F449C03B
:100DB000CE0190568115904208F053C08D2F8F714F
:100DC0000E94CB07DD27D0628F71D82B4CC0C55A4B
:100DD000D0E0C451DC4FC881D0E0D06444C0CE0123
:100DE000805C91090E941D06EC013DC0CE0199274F
:100DF000D3FF03C0EC01D86C36C0EC01D06C33C01B
:100E0000DF70D06A30C0DC2FCC27C16FD06A2BC016
:100E1000C1E0D0E002C0CC0FDD1F2A95E2F720E24E
:100E2000829FC0011124C82BD92BDA681CC0DC2F8B
:100E3000CC27C46FD06A17C0DC2FCC27C06FD06A14
:100E400012C08C2F8F700E94CB0794E0D695C79567
:100E50009A95E1F7CF70D0E0DC2FCC27D069C82B72
:100E600002C0C0E0D0E0CE01DF91CF91089582387A
:100E7000910569F1B0F48133910509F46DC048F42E
:100E80008932910509F463C08A32910509F469C079
:100E900008958533910509F455C089339105B9F05A
:100EA0000895833E910569F138F4803E9105B1F0D3
:100EB000823E910509F10895863E9105A9F1873E8C
:100EC0009105B9F1843E910509F064C023C02091D9
:100ED0007A0520FD4FC021FD4DC0089580917A050F
:100EE00080FD44C080917B0580FF44C080917A05DD
:100EF00084FD42C083EE4DC080917A0582FF38C0E8
:100F0000F5CF80917A0582FD33C080917B0580FD0D
:100F100031C0ECCF80917B0581FF32C080917A0592
:100F200084FD2AC087EE35C080917A0583FF26C0F4
:100F3000F5CF80917A0583FD21C080917B0581FDED
:100F40001FC0ECCF80917A0585FD1CC01DC080912B
:100F50007A0585FD19C016C080917A0586FD16C0F8
:100F600017C080917A0586FD13C010C089E311C0B7
:100F700082EE0FC080EE0DC080E00BC086EE09C08F
:100F800084EE07C089E205C085E303C08AE201C0A0
:100F900081E390E0089590917A0592FF0DC0282F8B
:100FA0002871283019F4877F846006C0282F2471A7
:100FB000243011F48B7F886093FF0DC0282F287197
:100FC000283119F4877E846106C0282F24712431CA
:100FD00011F48B7E886120917B0520FF0DC0382F96
:100FE0003871383019F4877F816006C0382F31712D
:100FF000313011F48E7F886021FF0DC0282F2871B9
:10100000283119F4877E816106C0282F2171213192
:1010100011F48E7E886194FD877E08950C941E17CE
:101020000E94C6088FE39CE90197F1F700C0000019
:101030000E94C60880E00E944A0880FF04C00E9407
:101040000E080C949D2A08950C9410080E943928CB
:10105000811102C00E94E1280E9444288093560515
:101060000E944C2890937B0580937A050E94240867
:101070000E944828682F70E080E090E00E947B2565
:101080006091290570912A0580912B0590912C057E
:101090000C94B32590E0880F991FDC01A857BA4F34
:1010A000FC01EE54FC4F2D913C9180819181822373
:1010B00093230895089580EA8A95F1F7089500C072
:1010C00008950C945B0808950C9463080C946408CC
:1010D0000C9463080C94680890E0880F991FFC0139
:1010E000442319F0E458FA4F02C0E857FA4F8081C0
:1010F000918121E030E002C0220F331F6A95E2F7B0
:101100002823392381E0232B09F480E00895F89403
:10111000E82FE295EF70F0E031A1282F2F7081E0E9
:1011200090E001C0880F2A95EAF7982F90959323B5
:1011300091A392A1892B82A378940895CF93DF93F2
:10114000CFEED3E089910E94870883E0CE3FD80795
:10115000C9F7CEEFD3E089910E94870884E0C430BC
:10116000D807C9F7ECE7F5E0A8E8B5E088E895E02E
:10117000119211921D921D928E179F07C9F786E05A
:101180000E946109DF91CF910C94BC044F925F9251
:101190007F928F929F92AF92BF92CF92DF92EF9207
:1011A000FF920F931F93CF93DF939FEEE92E93E06F
:1011B000F92E00E010E0C0E0CC24C394D12C38E834
:1011C000A32E35E0B32E4701D7018C91F894E82F78
:1011D000E295EF70F0E021A18F70A60102C0440FEC
:1011E000551F8A95E2F7CA01922F982B91A392A1DD
:1011F0008095892382A378940E945F08A601002E1F
:1012000002C0440F551F0A94E2F7BA016095709529
:10121000ECE7F5E08EEF482E83E0582ED0E02081F9
:101220003181D2017D902D01872D82958F7090E0C4
:10123000DC0190968C9190E0B72DBF7002C095951F
:101240008795BA95E2F780FD04C0C901842B952BE0
:1012500003C0C901862397232817390719F0918302
:101260008083D1E03296AE16BF06C9F6EFEFEE1AD4
:10127000FE0AD4018C910E9487080E946108CD2B40
:101280000F5F1F4F0F30110509F09DCF2C2F46E047
:1012900068E875E08CE795E00E9462090E94C2044C
:1012A0008C2FDF91CF911F910F91FF90EF90DF90E6
:1012B000CF90BF90AF909F908F907F905F904F9016
:1012C00008950895FF920F931F93CF93DF93F82E05
:1012D000092F162FD72FC42F222349F081E08093A6
:1012E00058040E94342A90935704809356048091A6
:1012F00058048823D9F080915604909157040E9495
:101300004C2A069798F0EF2DF02FA12FBD2F80E0EB
:1013100090E04C2F50E08417950734F421913191DF
:101320002D933D930196F7CF10925804DF91CF9102
:101330001F910F91FF900895EF92FF920F931F93CB
:10134000CF93DF938B01682F11110AC0442329F03A
:10135000E82FF0E0E652FB4F6491762F862F75C0A0
:10136000212F30E0E82FF0E0442321F0E652FB4F3C
:10137000E491F0E046E0049FC0011124CFEFD0E0FB
:10138000BE010E9425324BEA4603C001479F900DE3
:101390001124800F911D800F911D982F990F890F97
:1013A000AE01421B530B4E9FD0014F9FB00D5E9F6D
:1013B000B00D11249B2F189FA0011124452F5527F4
:1013C0008E01041B150B0E9FA0010F9F500D1E9F39
:1013D000500D11247E01E81AF108E29E8001E39E7F
:1013E000100DF29E100D1124212F3327C21BD30B99
:1013F000CE9F9001CF9F300DDE9F300D11246230C3
:101400007105A9F048F46115710569F06130710545
:10141000C9F48B2F752F0DC06430710581F058F021
:101420006630710579F47E2F8B2F932F0DC0832F9B
:101430007B2F9E2F09C08E2F7B2F952F05C08E2FBF
:10144000732F02C07E2F852F692FDF91CF911F91BF
:101450000F91FF90EF90089541E00E949C0908953C
:1014600020E030E0869F212D969F200D311D112414
:10147000C9010895BC018230910508F40895613EC8
:101480008EE1780748F49B0195E0369527959A956B
:10149000E1F748E0420F01C04FEF91E0242F30E028
:1014A000290F311D35952795229FF001239FF00DBF
:1014B000F00D11246E177F0718F44FEF420F04C090
:1014C0002F3F39F091E0920F491740F78FEF890FC6
:1014D00008958FEF0895482F982F46FD9095E92F96
:1014E000EF739F7046FD9F5FE295EF70EE0FF0E0A7
:1014F000EC5FFB4F2181299F802D212D11248295A6
:101500008F702295207F822B3081982F930F892F07
:1015100047FD819580580895E42FF0E0EE0FFF1FFE
:10152000E25AFE4F408134EE439F412D1124E72FB4
:10153000F0E050E0445E5F4FDA01A21BB1099D016B
:10154000B7FF03C031952195310993E0220F331F76
:101550009A95E1F7AF01421B530B9A0157FF02C066
:1015600020E030E0279F212D1124722F0895E42FD1
:10157000F0E0EE0FFF1FE25AFE4F408134EE439F32
:10158000412D1124E82FF0E050E0445E5F4FDA0176
:10159000A21BB1099D01B7FF03C031952195310907
:1015A00093E0220F331F9A95E1F7AF01421B530BD3
:1015B0009A0157FF02C020E030E0582F259F212DCF
:1015C0001124822F0895622F0895E42FF0E0EE0F8A
:1015D000FF1FE25AFE4F6081621B0895E42FF0E086
:1015E000EE0FFF1FE15AFE4F6081621B0895A22F8C
:1015F00050E0FA01EE0FFF1FE15AFE4F908190522A
:1016000097FD9195440F551FFA01E25AFE4F308124
:10161000232F30E02A1B3109290F311D97FD3A9500
:10162000620F0895EF920F931F9393E0099F80013B
:101630001124159507956E2D600F1F910F91EF9056
:1016400008950F93CF93DF93D72FC82F47FD419570
:10165000E8E3F0E0CF01841B910947FD9395889F53
:10166000B001899F700D700D1124229FC001239F2E
:10167000900D900D1124860F971F0E943A0A682F33
:10168000660F860F682F600F7D2F8C2FDF91CF9113
:101690000F9108950F931F93522F10E0F801EE0F52
:1016A000FF1FE15AFE4FE081F0E0B0979F01520327
:1016B000D001539FB00D1124000F111FF801E25A01
:1016C000FE4F008110E00057110940039001419F37
:1016D000300D11242A0F3B1F37FF02C021583F4F06
:1016E000220F232F221F330B620F1F910F9108959A
:1016F0000F931F93522F10E0F801EE0FFF1FE15AD6
:10170000FE4FE081F0E0B097EE0FFF1F9F01520304
:10171000D001539FB00D1124000F111FF801E25AA0
:10172000FE4F008110E000571109000F111F400308
:101730009001419F300D11242A0F3B1F37FF02C03B
:1017400021583F4F220F232F221F330B620F1F916F
:101750000F9108950F931F9310E0F801EE0FFF1FF4
:10176000E25AFE4F9081905797FD9195000F111FFF
:10177000F801E15AFE4FE081F0E0B097DF01AA0FD7
:10178000BB1F8D010E0F1F1F2003D001219FB00D25
:101790001124E8E3F0E0E91BF10997FDF3959F01BF
:1017A000220F331F89010E0F1F1F40039001419F1D
:1017B000300D11242A0F3B1F37FF02C021583F4F25
:1017C000220F232F221F330B620F1F910F910895B9
:1017D0000F931F93CF93DF93D62F072F182FC42F6C
:1017E000822F0E946B0AEC2FF0E0EE0FFF1FE25AEF
:1017F000FE4F90819058890F87FD8195880F682F43
:101800002CE0629F612D11246D0F702F812FDF91CD
:10181000CF911F910F910895E42FF0E0EE0FFF1F7D
:10182000E25AFE4F9081921B97FD9195292F38E146
:10183000239F212D1124620F0895FC019B01009725
:1018400021F477FF2BC080E80895AC0197FF04C016
:1018500044275527481B590BB901640F751F37FDE5
:101860000CC0241B350BC901A5E0880F991FAA9550
:10187000E1F70E94393280E20CC0CB0165E0880FAD
:10188000991F6A95E1F7BA01621B730B0E94393206
:1018900080E6861BF7FF03C08195089580E00895D8
:1018A000FF920F931F93CF93DF93F62E172FD82F0E
:1018B000C901C72FC01BBA010E941D0C982F990F98
:1018C000890F7C2F781B719F712D11246F2D8D2F07
:1018D000DF91CF911F910F91FF900895FF920F9389
:1018E0001F93CF93DF93F62ED72F182FC901C12F47
:1018F000C01BBA010E941D0C982F990F890FC81B9D
:101900002C2F219F212D1124822F6F2D7D2FDF91D0
:10191000CF911F910F91FF900895EF920F931F9316
:10192000CF93DF93D62F172FC82FC9010E19070F9A
:10193000BA010E941D0C702F781B719F712D11240C
:101940006D2F8C2FDF91CF911F910F91EF90089504
:10195000EF920F931F93CF93DF93D62FC72F182F9C
:10196000C9010E19010FBA010E941D0C081B202F7E
:10197000219F212D1124822F6D2F7C2FDF91CF915C
:101980001F910F91EF9008950F93CF93DF93D72F6F
:10199000C82FC901BA010E941D0C682F600F7D2F4E
:1019A0008C2FDF91CF910F910895EF920F93CF93EA
:1019B000DF93D72FC82FC9010E19BA010E941D0C41
:1019C000602F681B7D2F8C2FDF91CF910F91EF90AF
:1019D00008950E942C0A089546E050E06CE170E002
:1019E00084E995E00C94B63246E050E06CE170E09A
:1019F00084E995E00C94D432E4E9F5E085E3808352
:101A00008091670290916802A0916902818392831C
:101A1000A3838FE784838FEF85830C94F40CE0918C
:101A20001204F09113040994E0910E04F0910F0454
:101A300009944F925F926F927F928F929F92AF9292
:101A4000BF92CF92DF92EF920F931F93CF93DF93CA
:101A50002C013B01FC01C08181E1C89FC02D1124F4
:101A6000D1E1DC0FD33508F0D2E560919805669599
:101A700080919A0590919B050E94300A182FCD17EE
:101A800008F044C08C2E912CF401EE5FFD4F908144
:101A9000F20181818923C1F1F401EE0FFF1FE25AA7
:101AA000FE4FC080D12CF0E7CF1AD108F401EE0F21
:101AB000FF1FE15AFE4FA080B12C80E2A81AB108A6
:101AC000CC9C9001CD9C300D300D1124AA9CC001FE
:101AD000AB9C900D900D1124820F931F0E943A0A27
:101AE000082F609195057091960580919705E12EDC
:101AF0009501A601F30109950E94E90C462F282FB4
:101B0000672FC4010E94140DCF5FB9CF81E0D23599
:101B100008F080E0DF91CF911F910F91EF90DF905F
:101B2000CF90BF90AF909F908F907F906F905F907D
:101B30004F9008956DE87CE00C94190D68EA7CE004
:101B40000C94190D62E17BE00C94190D65ED7CE0BD
:101B50000C94190DAF92BF92CF92DF92EF92FF9249
:101B60000F931F93CF93DF936C015B01FC01C08146
:101B700081E1C89FC02D1124D1E1DC0FD33508F0DD
:101B8000D2E560919805669580919A0590919B05A4
:101B90000E94300A182FCD1778F5EC2EF12CF701A2
:101BA000EE5FFD4F9081F6018181892319F1F701E4
:101BB000EE0FFF1FE15AFE4F208130E02052310925
:101BC000F701EE0FFF1FE25AFE4F408150E04057F1
:101BD0005109609195057091960580919705012FA7
:101BE000F50109950E94E90C462F282F672FC701A0
:101BF0000E94140DCF5FCFCF81E0D23508F080E096
:101C0000DF91CF911F910F91FF90EF90DF90CF90D8
:101C1000BF90AF90089560E57CE00C94AA0D6EE64D
:101C20007CE00C94AA0D61E27BE00C94AA0D64ECBC
:101C30007CE00C94AA0DBF92CF92DF92EF92FF92BC
:101C40000F931F93CF93DF938C017B01FC01C08125
:101C500081E1C89FC02D1124D1E1DC0FD33508F0FC
:101C6000D2E5609198056695669521E0620F08F4CB
:101C70006FEF80919A0590919B050E94300AB82ED3
:101C8000CD17F0F4CC2ED12CF601EE5FFD4F9081F4
:101C9000F8018181892391F06091950570919605F5
:101CA000809197052B2D4C2FF70109950E94E90C87
:101CB000462F282F672FC6010E94140DCF5FE0CF5B
:101CC00081E0D23508F080E0DF91CF911F910F9134
:101CD000FF90EF90DF90CF90BF9008956CE87AE08E
:101CE0000C941B0E67EB7AE00C941B0E63EE7AE00B
:101CF0000C941B0E65EE7AE00C941B0E6EEE7AE0EF
:101D00000C941B0E67EF7AE00C941B0E68EE7BE0E0
:101D10000C941B0E6CE07CE00C941B0E7F928F9257
:101D20009F92AF92BF92CF92DF92EF92FF920F936A
:101D30001F93CF93DF936C015B01FC01C08181E1B4
:101D4000C89FC02D1124D1E1DC0FD33508F0D2E5B6
:101D5000609198056695669580919A0590919B058E
:101D60000E94300A182F80E4810F0E946B0A90E8CD
:101D7000F92EF80E812F0E946B0A20E8722E780E41
:101D8000CD1700F58C2E912CF401EE5FFD4F908164
:101D9000F60181818923A1F06091950570919605E6
:101DA00080919705E12E0C2F272D4F2DF5010995D8
:101DB0000E94E90C462F282F672FC4010E94140DA2
:101DC000CF5FDECF81E0D23508F080E0DF91CF91A8
:101DD0001F910F91FF90EF90DF90CF90BF90AF9049
:101DE0009F908F907F9008956AE47BE00C948E0E14
:101DF00068E77BE00C948E0E6AEA7BE00C948E0E12
:101E0000DF92EF92FF920F931F93CF93DF938C019A
:101E1000DC018C91C1E18C9FC02D1124D1E1DC0F3C
:101E2000D33508F0D2E560919505709196058091C3
:101E300097050E94E90CF62EE72ED82ECD1798F4C0
:101E4000EC2FF0E0DF01AE5FBD4F8C91D801119611
:101E50009C91982331F02D2D4F2D6E2DCF010E9496
:101E6000140DCF5FEBCF81E0D23508F080E0DF9139
:101E7000CF911F910F91FF90EF90DF900895AF9257
:101E8000BF92CF92DF92EF92FF920F931F93CF9367
:101E9000DF938C01FC01C08181E1C89FC02D11241A
:101EA000D1E1DC0FD33508F0D2E5E0909605F09053
:101EB0009705D09095056D2D7E2D8F2D0E94E90CF4
:101EC000C62EB72EA82E609198056D0D7E2D8F2DF4
:101ED0000E94E90CF62EE72ED82ECD17B8F48C2FE1
:101EE00090E0FC01EE5FFD4F3081F801218123235A
:101EF00059F030FF04C02D2D4F2D6E2D03C02A2D1B
:101F00004C2D6B2D0E94140DCF5FE7CF81E0D235B1
:101F100008F080E0DF91CF911F910F91FF90EF903B
:101F2000DF90CF90BF90AF900895BF92CF92DF9295
:101F3000EF92FF920F931F93CF93DF936C01FC01FD
:101F4000C08181E1C89FC02D1124D1E1DC0FD335C0
:101F500008F0D2E500919605B0909705209198057C
:101F600010E4129F112D1124CD1718F5EC2EF12C31
:101F7000F701EE5FFD4F9081F60181818923B9F071
:101F8000F701EE0FFF1FE15AFE4F808182958F709F
:101F900060919505819F600D1124702F8B2D0E94FB
:101FA000E90C462F282F672FC7010E94140DCF5F21
:101FB000DBCF81E0D23508F080E0DF91CF911F9137
:101FC0000F91FF90EF90DF90CF90BF900895BF9258
:101FD000CF92DF92EF92FF920F931F93CF93DF93F5
:101FE0007C01FC01C08181E1C89FC02D1124D1E199
:101FF000DC0FD33508F0D2E5C0909605B090970578
:102000002091980530E4D32E3D2D329F312D11249F
:10201000D32ECD1738F50C2F10E0F801EE5FFD4FF1
:102020009081F70181818923D9F0F801EE0FFF1F1C
:10203000E25AFE4F6081D69EB001112495E075955D
:1020400067959A95E1F780919505680F7C2D8B2D0A
:102050000E94E90C462F282F672FC8010E94140DFB
:10206000CF5FD7CF81E0D23508F080E0DF91CF910C
:102070001F910F91FF90EF90DF90CF90BF90089548
:10208000DF92EF92FF920F931F93CF93DF938C0118
:10209000DC01CC9181E1C89FC02D1124D1E1DC0F7E
:1020A000D33508F0D2E5E0909505F0909605D090F4
:1020B00097056091980566956695669580919A0555
:1020C00090919B050E94300A0E946B0A805887FD00
:1020D0008195880F282F3D2D239F212D1124822F9C
:1020E000B7010E94E90CF62EE72ED82ECD1798F4F2
:1020F000EC2FF0E0DF01AE5FBD4F8C91D80111965F
:102100009C91982331F02D2D4F2D6E2DCF010E94E3
:10211000140DCF5FEBCF81E0D23508F080E0DF9186
:10212000CF911F910F91FF90EF90DF900895DF9274
:10213000EF92FF920F931F93CF93DF93EC01FC017B
:10214000EE5FFD4F9081692381F1D090960500915B
:10215000970510919505E12EF12C0E94A632282FAB
:10216000C7018C549F4F68E671E00E9439328E1986
:102170009F0997FD0396959587959595879523706B
:10218000612F289F600D11247D2D802F0E94E90C66
:10219000462F282F672FCE01DF91CF911F910F91EE
:1021A000FF90EF90DF900C94140DDF91CF911F9171
:1021B0000F91FF90EF90DF900895CF92DF92FF9202
:1021C0000F931F93CF93DF938C01FC01C281C11148
:1021D0001DC06091980520E1620F08F46FEF8091B7
:1021E0009A0590919B050E94300A6AE070E00E9477
:1021F0002532892B59F50E94A63262E570E00E94D3
:102200003932F80161810E94971020C0FC01808161
:10221000C1E18C9FC02D112491E1F92EFC0EF2E555
:10222000FF1510F482E5F82ED0E0CF2CD12CCC1580
:10223000DD053CF4F8016181CE010E9497102196E2
:10224000F6CFC1E0F1E5FF1508F4C0E08C2FDF9177
:10225000CF911F910F91FF90DF90CF9008951F9322
:10226000CF93DF93FC01EE5FFD4F20816223A9F045
:10227000EC010E94A632182F0E94A632612F782FFF
:10228000809197050E94E90C462F282F672FCE01D9
:10229000DF91CF911F910C94140DDF91CF911F917D
:1022A0000895CF92DF92FF920F931F93CF93DF9306
:1022B0008C01FC01C281C1111DC06091980520E113
:1022C000620F08F46FEF80919A0590919B050E9430
:1022D000300A65E070E00E942532892B59F50E9492
:1022E000A63262E570E00E943932F80161810E94F5
:1022F0002F1120C0FC018081C1E18C9FC02D1124D1
:1023000091E1F92EFC0EF2E5FF1510F482E5F82EAE
:10231000D0E0CF2CD12CCC15DD053CF4F801618147
:10232000CE010E942F112196F6CFC1E0F1E5FF15F5
:1023300008F4C0E08C2FDF91CF911F910F91FF9097
:10234000DF90CF900895DF92EF92FF920F931F934B
:10235000CF93DF938C01DC01CC9181E1C89FC02D2C
:102360001124D1E1DC0FD33508F0D2E5E0909605D9
:10237000F0909705D09095056091980566956695C3
:10238000669580919A0590919B050E94300A0E9463
:102390006B0A805887FD8195880F682F2CE0629F1B
:1023A000612D11246D0D7E2D8F2D0E942C0AF62E8D
:1023B000E72ED82ECD1798F4EC2FF0E0DF01AE5FBA
:1023C000BD4F8C91D80111969C91982331F02D2D01
:1023D0004F2D6E2DCF010E94140DCF5FEBCF81E00A
:1023E000D23508F080E0DF91CF911F910F91FF90DF
:1023F000EF90DF900895E0911004F091110409949A
:102400000C94401D08950C9402120E9403120C9427
:10241000021208950C940912CF93DF93FC01C0813E
:10242000C15081E1C89FC02D1124D1E1DC0FD3350B
:1024300008F0D2E56D2F8C2F0E940A126D2F8C2F81
:10244000DF91CF910C940912CF930E94402A6093A0
:10245000590470935A0480935B0490935C04309108
:102460009405232F237021F0C32FC695C69501C074
:10247000C0E020915402213091F028F0223091F1F7
:102480002330E1F10BC11092550260939A057093CD
:102490009B0580939C0590939D0581E02CC09091B5
:1024A0005802C9130DC0832F837090E040915902E8
:1024B00050E021E08417950709F420E0822F01C045
:1024C00081E0817080935702809199059091560226
:1024D000981739F18093560240E060E080E00E9456
:1024E000FB111FC0C0935802832F83708093590241
:1024F0000E940F0D83E080935402D0C060919A0532
:1025000070919B0580919C0590919D050E945B2A8E
:10251000603171058105910508F4C0C01092540224
:10252000BDC08C2F90E08C31910520F18091550237
:102530008F5F8093550282E080935402809157020E
:10254000811114C0CC23B1F20E94051285E592E0FE
:10255000CF910C940C1285E592E00E94000F9091AF
:1025600055029F5F90935502882329F3CC2309F4E9
:1025700095C0EACFFC01EA5AFF4F0C944D3280918E
:102580005702882309F488C040E060E080E00E94A0
:10259000FB1182C085E592E00E943F0FE0CF85E508
:1025A00092E00E94950FDBCF85E592E00E94E70F55
:1025B000D6CF85E592E00E944010D1CF85E592E02C
:1025C0000E946E0ECCCF85E592E00E94720EC7CFBE
:1025D00085E592E00E940B0EC2CF85E592E00E9455
:1025E0000F0EBDCF85E592E00E949A0DB8CF85E52C
:1025F00092E00E949E0DB3CF85E592E00E94760E98
:10260000AECF85E592E00E947A0EA9CF85E592E0F3
:102610000E947E0EA4CF85E592E00E94820E9FCF9D
:1026200085E592E00E94A20D9ACF85E592E00E9496
:10263000130E95CF85E592E00E94170E90CF85E5A9
:1026400092E00E94A60D8BCF85E592E00E94F40EE9
:1026500086CF85E592E00E94F80E81CF85E592E075
:102660000E94FC0E7CCF85E592E00E94DD1077CFC2
:1026700085E592E00E94511172CF85E592E00E94BB
:10268000A3116DCF85E592E00E94860E68CF85E5A7
:1026900092E00E948A0E63CF80E061CFCF910895CF
:1026A000E0910C04F0910D0409950E9439288111E4
:1026B00004C00E94E1280E94FC0C0E94EC0C809156
:1026C00094058C7F11F40C94FC0C089508952091CE
:1026D000940591E0922790939405109254028111F1
:1026E0000C94F40C089581E00C9467139091940578
:1026F000937091F0811102C0946007C08C3110F08A
:102700009C6603C0880F880F982B909394051092B5
:10271000540261110C94F40C089561E00C9476134A
:10272000682F90919405969596959F5F9C3110F433
:10273000892F01C081E00C94761381E00C949013F2
:10274000682F9091940596959695915011F0892F48
:1027500001C08BE10C94761381E00C94A01390914E
:102760009405937049F08093950560939605409386
:10277000970521110C94F40C0895A4E9B5E0119685
:10278000EC911197F0E0282F13964C911397129625
:102790006C91CF0108960C94AF1381E00C94BD139B
:1027A000A4E9B5E01196EC911197F0E0282F13966B
:1027B0004C91139712966C91CF0108970C94AF131C
:1027C00081E00C94D013E4E9F5E0628120E1620F2E
:1027D00008F46FEF9181282F4381892F90E00C94AA
:1027E000AF1381E00C94E313E4E9F5E0628120E1AA
:1027F000621B08F460E09181282F4381892F90E0CB
:102800000C94AF1381E00C94F413E4E9F5E04381F8
:1028100020E1420F08F44FEF9181282F6281892F28
:1028200090E00C94AF1381E00C940514E4E9F5E01A
:10283000438120E1421B08F440E09181282F62810E
:10284000892F90E00C94AF1381E00C941614209122
:10285000980530E1230F08F42FEF2093980581119C
:102860000C94F40C089581E00C94271420919805A1
:1028700030E1231B08F420E02093980581110C948B
:10288000F40C089581E00C94361460E080E50E9419
:10289000D71561E08FE50C94D715CF930E941B1CD0
:1028A00060E080E50E94AD1460E08FE50E94AD1409
:1028B000C0E021E041E061E08C2F0E943B15CF5F3A
:1028C000C235B9F760E080E50E94091661E08FE546
:1028D000CF910C94091660931E0740931F0724E6BE
:1028E00030E042E050E06EE177E0880F0E94A81CE3
:1028F00021E0892B09F020E0822F0895EF92FF92CA
:102900001F93CF93DF937B01182F110FC0E0D0E00E
:10291000C0931E07D701AC0FBD1FEFE1F7E08D910B
:10292000819387E0EF32F807D1F724E630E041E108
:1029300050E06EE177E0812F0E94A81C892B31F4D2
:102940006096C03CD10521F781E001C080E0DF91B5
:10295000CF911F91FF90EF9008951F93CF93DF9336
:10296000C82FD62F45EC6EEF0E946B1440E06DEF40
:102970008C2F0E946B1410E040E0612F8C2F0E947E
:102980006B141F5F1831C1F745EC6EEF8C2F0E945E
:102990006B1441E06DEF8C2F0E946B1410E040E04F
:1029A000612F8C2F0E946B141F5F103CC1F745EC08
:1029B0006EEF8C2F0E946B1443E06DEF8C2F0E9402
:1029C0006B144FEF61E08C2F0E946B1480E4D89F52
:1029D000A0011124416060E08C2F0E946B148FE3F2
:1029E0009CE90197F1F700C00000DF91CF911F91A2
:1029F00008958235910520F5880F991F880F991F3A
:102A0000FC01E659FD4F52813381808183707181D1
:102A1000E82FF0E0A0EC8A9FC001112482569A4F63
:102A2000DC01A70FB11D6C93DC01A50FB11D4C9308
:102A3000DC01A30FB11D2C93E157FB4F81E0808394
:102A40000895FF920F931F93CF93DF93182F062FB4
:102A5000F42EC0E0D0E02F2D402F612FCE010E9438
:102A6000F9142196C235D105B1F7DF91CF911F91AD
:102A70000F91FF900895CF93DF9334E0839FC001BF
:102A80001124FC01E659FD4F8081837051819281B0
:102A9000C381A52FA695A695A695392F369536956F
:102AA0003695EC2FE695E695E6955770F92FF77079
:102AB000C77090E0B0E0D8E1662391F0D89FB001F4
:102AC000D99F700D1124615A7B4FA60FB71F61E08B
:102AD00070E001C0660F5A95EAF75C91652B12C051
:102AE000D89FB001D99F700D1124615A7B4FA60F5A
:102AF000B71F61E070E001C0660F5A95EAF7609574
:102B00005C9165236C93632F70E038E1389FD001AE
:102B1000399FB00D1124A15ABB4FA60FB71F4423F4
:102B200049F041E050E001C0440FFA95EAF73C91CA
:102B3000432B09C041E050E001C0440FFA95EAF789
:102B400040953C9143234C934E2F50E0222399F023
:102B500028E1289FF001299FF00D1124E15AFB4F35
:102B6000E40FF51F21E030E001C0220FCA95EAF71B
:102B70003081232B13C028E1289FF001299FF00DFD
:102B80001124E15AFB4FE40FF51F21E030E001C0B2
:102B9000220FCA95EAF72095308123232083FC0178
:102BA000E35AFB4F21E02083DF91CF910895EF920C
:102BB000FF921F93CF93DF93C62FD0E09E01215742
:102BC0003B4F7901F90190819923D9F0182F45ECF9
:102BD0006EEF0E946B1441E06DEF812F0E946B1429
:102BE00080EC8C9FB0018D9F700D112462567A4F3E
:102BF000812F0E947E14811104C0C35ADB4F81E0F3
:102C00008883F7011082DF91CF911F91FF90EF90A1
:102C10000895CF92DF92FF920F931F93CF93DF938C
:102C2000262F30E0A901435A5B4F6A01FA019081D7
:102C300091110AC0F6011082DF91CF911F910F917F
:102C4000FF90DF90CF900895C62FF82E45EC6EEFE1
:102C50000E946B1440E06DEF8F2D0E946B14F8E121
:102C6000CF9FE001112400E010E0F801EC0FFD1F00
:102C7000E15AFB4F4081602F8F2D0E946B140F5F34
:102C80001F4F0831110589F7D5CF882311F0FA01BC
:102C900001C0FB0109941F93CF93DF93FB011281C5
:102CA000112309F48CC0EC010E9472278272CA3C85
:102CB000FCE5DF0709F46EC048F5C53CECE5DE072E
:102CC00009F454C070F4C33C9CE5D90709F442C030
:102CD00008F045C0C23CDC4509F074C00E94731383
:102CE00070C0C73C9CE5D90709F44AC008F443C04A
:102CF000C83CFCE5DF0709F448C0C93CDC4509F0E5
:102D000061C044E254E163E174E12DC0CF3CECE5E5
:102D1000DE0709F450C088F4CC3C9CE5D90709F4DF
:102D200043C0E8F1CD3CFCE5DF0709F442C0CE3CEE
:102D3000DC4509F047C085E03FC0C63D9CE5D907AA
:102D400028F4C13DDC45E8F582E136C0CD35DD45EE
:102D5000C1F138C04CEA53E16DE973E104C04DE9BB
:102D600053E16CEA73E10E9445162BC040EE53E13B
:102D70006DEC73E1F8CF4DEC53E160EE73E1F3CF0E
:102D800042E054E161EF73E1EECF41EF53E162E0E5
:102D900074E1E9CF43E154E164E274E1E4CF42E459
:102DA00054E163E374E1DFCF43E354E162E474E1AF
:102DB000DACF81E001C08DE00E948D1302C011E0E6
:102DC00001C010E0812FDF91CF911F91089583E220
:102DD00090E00E94C632813281F484E290E00E9449
:102DE000C632873051F485E290E00E94C63291E00D
:102DF000883209F090E0892F01C080E08170089549
:102E0000CF93C82F811102C06FEF01C061E283E24E
:102E100090E00E94E432C11102C06FEF01C067E090
:102E200084E290E00E94E432C11102C06FEF01C061
:102E300068E285E290E0CF910C94E43280E00E9459
:102E400000170C943328089586E290E00E94C63261
:102E5000682F70E080E090E0089586E290E00C94A6
:102E6000E4320E9423170E94E71681110CC060E033
:102E700070E0CB010E942D170E946F180E944E191E
:102E800081E00C9400170895CF93FB01C281CC23FD
:102E9000E9F09C0122513F452031310520F4825157
:102EA0000E945E190CC08031FFE59F0751F481E05C
:102EB0000E94DB2543E062E081E00E94AA04C0E0BA
:102EC00018C081319F45A9F482E0F2CF8031EFE54F
:102ED0009E0711F481E004C081319F4549F482E0EE
:102EE0000E94FC2543E062E081E00E94AA0401C048
:102EF000C1E08C2FCF9108952FEFFC01208308951E
:102F0000EF92FF920F931F93CF93DF93EC01062F65
:102F1000E8818E2F90E0FC013197E331F10508F054
:102F200091C0EE58FF4F0C944D32198289E04DC08C
:102F30008981823039F0833061F0813029F50E9437
:102F4000402A02C00E9424179A838B837C836D835E
:102F50007BC07E0110E0812F0E944A08F701928316
:102F600083831F5FF2E0EF0EF11C1630A1F76CC0F7
:102F70008981823049F46A817B818C819D810E94A4
:102F800053320E942D1760C0602FCE010E947C1723
:102F90005BC04B816A8189810E9441189C838D832B
:102FA00053C02C813D813227232732274B816A81F0
:102FB00089810E945A1848C00E946F1845C00E941B
:102FC000011924C00E94031999838A833DC06B8133
:102FD00070E089819A81AE014C5F5F4F9827892705
:102FE00098270E94061930C06B8170E089819A8110
:102FF000AE014C5F5F4F9827892798270E942B19B5
:1030000023C00E944E1920C00E942E1889831CC024
:103010006B8170E089819A81AE014C5F5F4F982788
:10302000892798270E94AE180FC06B8170E08981B4
:103030009A81AE014C5F5F4F9827892798270E949D
:10304000D21802C08FEF8883602FCE01DF91CF911D
:103050001F910F91FF90EF900C94452B84E0089501
:1030600050E0440F551F2EE1629F400D511D112469
:103070009A0164EB869F200D311D1124C9018796AA
:1030800008950F931F93CF93DF930E9430188C0104
:103090000E94C632C82FD0E0DC2FCC27C801019691
:1030A0000E94C6329E01282BC901DF91CF911F914A
:1030B0000F9108950F931F93CF93DF93122F032F38
:1030C0000E943018EC01602F0E94E432612FCE0183
:1030D0000196DF91CF911F910F910C94E432AF9242
:1030E000BF92CF92DF92EF92FF920F931F93CF93F5
:1030F000DF93A12CE12CF12CB12C00E010E0C0E01A
:10310000D0E06701C00ED11EFE01EE0FFF1FEC0DD7
:10311000FD1DE65AFE4F259134914C2F6B2D8A2DC3
:103120000E945A182196CF30D10571F7025E1F4FC9
:10313000B39486E0B812E3CF84EBE80EF11CA394BD
:1031400084E0A812D9CFDF91CF911F910F91FF900A
:10315000EF90DF90CF90BF90AF900895EF92FF92E5
:103160000F931F93CF93DF93EA017A01E60EF71EC8
:103170008C01C8018796CE15DF0569F0003D22E07D
:10318000120720F40E94C632888301C0188221965B
:103190000F5F1F4FEECFDF91CF911F910F91FF90E7
:1031A000EF900895EF92FF920F931F93CF93DF93C9
:1031B000EA017A01E60EF71E8C01C8018796CE154A
:1031C000DF0559F0003D22E0120718F468810E94E3
:1031D000E43221960F5F1F4FF0CFDF91CF911F9107
:1031E0000F91FF90EF900895462F843038F4763099
:1031F00028F46F3018F4672F0C94411880E090E0A9
:10320000089580E1089589E091E00895EF92FF929A
:103210000F931F93CF93DF93EA017A01E60EF71E17
:103220008C01C80189509D4FCE15DF0569F009302A
:1032300021E0120720F40E94C632888301C0188260
:1032400021960F5F1F4FEDCFDF91CF911F910F910F
:10325000FF90EF900895EF92FF920F931F93CF93FB
:10326000DF93EA017A01E60EF71E8C01C80189504E
:103270009D4FCE15DF0559F0093021E0120718F4F3
:1032800068810E94E43221960F5F1F4FEFCFDF91DC
:10329000CF911F910F91FF90EF900895CF93DF93FF
:1032A000C7EFD2E060E0CE010E94E4322196C11562
:1032B00084E0D807B9F7DF91CF910895DF92EF92BC
:1032C000FF920F931F93CF93DF9300D000D0CDB721
:1032D000DEB7F82E8FE08F15E8F18FEF93E00E94B4
:1032E000C632811137C007EF12E0FF2069F00115E7
:1032F00084E0180779F1C8010E94C632811101C02B
:10330000FA940F5F1F4FF1CF19821A821B821C8221
:10331000DD24D39478018FEFE81AF80AC8010E94DF
:10332000C63289831A828823A9F09FEF980F9330C1
:1033300058F48A83D9820E5F1F4FC7010E94C6329C
:103340008B83882339F07801CE0101960E9406060E
:103350008701E0CF0F900F900F900F90DF91CF91EA
:103360001F910F91FF90EF90DF90089508950895B9
:103370000C94B71910929404109293040895CF926C
:10338000DF92EF92FF92CF93C82F80919304909198
:103390009404843F21E0920750F4019690939404A2
:1033A000809393040A9701F541E0C1E001C040E039
:1033B00061E080E00E946C0880939204C82ED12CBA
:1033C000E12CF12C90919104891302C0CC2361F07F
:1033D000682F80E00E94ED03C701B6010E94B81972
:1033E0008091920480939104CF91FF90EF90DF90B1
:1033F000CF9008950F931F93CF93DF93C42FD22FB5
:10340000FC0182818823C9F0409397040E94342AEA
:10341000909396048093950480E28C0F883008F096
:1034200057C0C77081E001C0880FCA95EAF7DF91E5
:10343000CF911F910F910C94071F8091970448130F
:1034400030C080919504909196040E944C2A883C4B
:10345000910538F510E21D0FCD17B9F080E28C0F01
:10346000883040F4C77081E001C0880FCA95EAF740
:103470000E940E1F183028F581E09D2F977001C023
:10348000880F9A95EAF70E94071F802F0E94FE1E60
:103490001830F0F4D77081E001C0880FDA95EAF7B0
:1034A0000AC080E28C0F883098F4C77081E001C0B8
:1034B000880FCA95EAF7DF91CF911F910F910C9475
:1034C0000E1F802FDF91CF911F910F910C94FE1E44
:1034D000DF91CF911F910F9108950F939C01CB0124
:1034E000233F4CE5340731F188F4283DFCE53F07E4
:1034F000D9F0293D4CE5340779F1273D3C45A9F544
:1035000006E221EE41EE67ED7CE52BC0253FFCE5B0
:103510003F07E1F0A8F0263F3C4539F507E225EEEC
:1035200046EE66EF7CE51DC007E225EE45EE68ED50
:103530007CE517C006E221EE40EE63EF7CE511C0AA
:1035400007E225EE44EE64EF7CE50BC006E221EED7
:1035500042EE65EF7CE505C008E221E045EE69ED4D
:103560007CE50E94FA1980E008C0FC018281882372
:1035700019F01092970401C081E00F910895CF9344
:10358000DF93EC01FB018281882309F41FC1C23063
:10359000FCE5DF0708F41BC1C6319CE5D90738F00C
:1035A0009E012A5F3C452930310508F010C10E9478
:1035B0004C2890937B0580937A05C031ECE5DE07BB
:1035C00009F4C3C008F041C0C8308CE5D80709F43D
:1035D0009AC0F0F4C430ECE5DE0709F487C068F463
:1035E000C2308CE5D80709F477C0C330DC4509F058
:1035F000E3C080917A05826076C0C630ECE5DE07D4
:1036000009F46EC008F07BC080917A0588606BC0B9
:10361000CC308CE5D80709F485C068F4CA30ECE5F5
:10362000DE0709F474C008F079C00E9485218091FA
:103630007A05806858C0CE308CE5D80709F476C08A
:1036400008F07FC080917A058BC0CB3FECE5DE07A8
:1036500009F44FC018F5C3318CE5D80709F47DC0D3
:1036600078F4C131ECE5DE0709F473C0C231DC4502
:1036700009F0A2C00E94852180917A058F7733C01E
:10368000C5318CE5D80709F472C008F486C0CA3F7A
:10369000DC4509F091C080917B053EC0CF3FFCE541
:1036A000DF0709F45FC058F4CD3F9CE5D90709F462
:1036B00044C008F43FC080917B0582602DC0C130BA
:1036C000FDE5DF0709F475C008F45DC0C230DD45D3
:1036D00009F072C080E06EC080917A05816003C0FD
:1036E00080917A05806180937A0566C080917A0521
:1036F00011C080917B05826080937B055DC08091C5
:103700007A058062F0CF80917A058064ECCF809159
:103710007A0588608460E7CF8160EECF80917A057A
:103720008E7FE1CF80917A058D7FDDCF80917A0504
:10373000877FD9CF80917B0518C080917B058D7FD5
:10374000DBCF80917A058F7ECECF80917A058F7DF9
:10375000CACF80917A058F7BC6CF80917A05877F0B
:103760008B7FC1CF80917B058D7F8E7FC5CF809170
:103770007A0582FB222720F991E0922790FB82F9BB
:1037800090FB83F9B0CF80917B05982F9095917035
:103790008E7F892B90FB81F9AFCF0E94852180918C
:1037A0007A0587FB222720F991E0922790FB87F981
:1037B0009ACF81E00E94E32880917A0590917B0561
:1037C0000E945D280E94852180E001C081E0DF9198
:1037D000CF910895CF93DF9386319C4541F5EB015E
:1037E0000E947227982F8A8120915A0230915B02A1
:1037F000882379F09A7A81E009F480E08093980434
:10380000911102C069E201C065E3C9010E947E29ED
:103810000AC080919804811102C069E201C065E389
:10382000C9010E9489290E94C42780E001C081E06B
:10383000DF91CF9108951092B9008CE08093B80089
:103840000895EF92FF920F931F93CF93DF93182F5A
:10385000EB011092BC0084EA8093BC000E94342AE1
:103860007C018091BC0087FD0EC0CF3F8FEFD80751
:10387000C1F30E94342A8E199F098C179D0788F383
:103880008EEF9FEF2EC08091B900887F883041F085
:103890008091B900887F803119F08FEF9FEF21C0B0
:1038A0001093BB0084E88093BC000E94342A8C01F2
:1038B0008091BC0087FD0CC0CF3F8FEFD807C1F3CC
:1038C0000E94342A801B910B8C179D0788F3D8CF58
:1038D0008091B900887F883111F08034F1F680E062
:1038E00090E0DF91CF911F910F91FF90EF9008959D
:1038F0000F931F93CF93DF93EB018093BB0084E87A
:103900008093BC000E94342A8C018091BC0087FD0A
:103910000EC0CF3F8FEFD807C1F30E94342A801B1F
:10392000910B8C179D0788F38EEF9FEF0CC02091B1
:10393000B900287F81E090E0283211F480E090E027
:10394000919581959109DF91CF911F910F910895E4
:10395000CF92DF92EF92FF920F931F93CF93DF935B
:103960006B018A017901B9010E94211CE6010C0D4D
:103970001D1DC017D10761F424E92093BC00DF911D
:10398000CF911F910F91FF90EF90DF90CF9008950E
:1039900097FDF2CFB70189910E94781CEACF9093EE
:1039A0009E0480939D040895E0919D04F0919E04EF
:1039B000309721F00190F081E02D099480E0089586
:1039C000E0919D04F0919E04309799F02091660259
:1039D000222359F020917A0527FF07C0DC012C91A2
:1039E00011962C93119725E02C930280F381E02D02
:1039F0000994089520919B0430919C04281739075D
:103A000071F090939C0480939B04E0919D04F0914D
:103A10009E04309721F00680F781E02D09940895E7
:103A20002091990430919A042817390771F09093E6
:103A30009A0480939904E0919D04F0919E0430973C
:103A400021F00084F185E02D099408950E94402A18
:103A50006093B0047093B1048093B2049093B30464
:103A60006093AC047093AD048093AE049093AF0464
:103A7000089585B7806885BF85B7806885BF08953C
:103A800081E008950C94401D08950C94441D0C94FD
:103A9000441D0C94471D0C94441D0C944B1D0C9418
:103AA000441D0E94391D81E398E20E94C12A0E94B0
:103AB0004F1D0C944D1D0E94451D0C94441D0E94E9
:103AC0002B2A0E949E080E943117EAE7F5E08081C8
:103AD0008068808380917A0590917B050E945D28A3
:103AE0000E94BA190C94491D6F927F928F929F92F7
:103AF000AF92BF92CF92DF92EF92FF920F931F93FC
:103B0000CF93DF93CDB7DEB72A970FB6F894DEBF19
:103B10000FBECDBF0E94C60881110E94261D30EA4B
:103B2000832E34E0932E00E010E0E02E802F0E94E0
:103B30004A085C01F401619071904F016826792672
:103B400061147104B1F40F5F1F4F0630110569F75E
:103B50008FEF89838A831B820E94342A8160782FA9
:103B60009D838C8349815A816B818D810E94331E94
:103B700043C08091560581FD0E945A08F12CCC2447
:103B8000C394D12CC3018C219D21892B71F10E94FA
:103B9000421DAC20BD208823A1F0FE82EF8281E08F
:103BA000A114B10409F480E088870E94342A81605E
:103BB000782F9A8789874E815F8168858A850E94E0
:103BC000331E000F111FF801E056FB4F80819181D9
:103BD000C826D926D182C08241E0AB2809F440E052
:103BE0006F2D8E2D0E94001207C0F394CC0CDD1CAB
:103BF000FFE0FF12C7CFA7CF0E9424120E94D41C5F
:103C000090919F048917D1F00E94D41C80939F0447
:103C10002A960FB6F894DEBF0FBECDBFDF91CF91CD
:103C20001F910F91FF90EF90DF90CF90BF90AF90DA
:103C30009F908F907F906F900C9410062A960FB6ED
:103C4000F894DEBF0FBECDBFDF91CF911F910F91D2
:103C5000FF90EF90DF90CF90BF90AF909F908F90AC
:103C60007F906F900895DF92EF92FF920F931F93D2
:103C7000CF93DF93CDB7DEB72B970FB6F894DEBFA7
:103C80000FBECDBFF42E052F162FE72ED82E6111B3
:103C90000E949227FE01319686E0DF011D928A95EF
:103CA000E9F77E2D4F2D502F612F8D2D9E810E9483
:103CB0003E242B960FB6F894DEBF0FBECDBFDF912A
:103CC000CF911F910F91FF90EF90DF900895FC012D
:103CD000808191810E9412270895CF93882309F44F
:103CE00048C0C82F8CEF8C0F813AD0F46C2F809194
:103CF0005A0290915B020E94FE28882349F06C2FA3
:103D000080915A0290915B020E9489290E94C427E7
:103D10006C2F80915A0290915B020E947E290CC008
:103D200080E28C0F883058F4C77081E001C0880FA2
:103D3000CA95EAF70E947527CF910C94C427EBE54A
:103D4000EC0FE33040F4F0E0EE5BFB4F808190E05D
:103D5000CF910C94FA1CC85AC73158F4EC2FF0E0FC
:103D6000EE0FFF1FEC5EFB4F80819181CF910C9491
:103D7000101DCF910895882349F1682F8CEF860F8D
:103D8000813A38F480915A0290915B020E9489290D
:103D90000CC080E2860F883050F4677081E001C06B
:103DA000880F6A95EAF70E947B270C94C4278BE55D
:103DB000860F833020F480E090E00C94FA1C685A5F
:103DC000673120F480E090E00C94101D08951F935B
:103DD000CF93DF93182FEB010E946D1E209741F0C7
:103DE0008FE99FE00197F1F700C000002197F6CF1F
:103DF000812FDF91CF911F910C94BB1E893319F055
:103E000060E070E002C060E570E00C94E71E88237B
:103E100021F00E9475270C94C4270895882321F06F
:103E20000E947B270C94C4270895CF92DF92EF92D3
:103E3000FF920F931F93CF93DF937C01062FC72F21
:103E4000FC01D281158112951F700E944A27882398
:103E500099F0DD2389F08C2F807F803421F080E27F
:103E6000800F883048F082E00E9414280E944A2780
:103E700091E0D82ED92601C0D12CCC2EC2948FE04F
:103E8000C8228C2D90E0FC01EB57FF4F0C944D3273
:103E90008C2F807FCF70882311F0C295C07FDD23E7
:103EA00099F0CC2309F482C180E2800F883010F0B1
:103EB000011104C08C2F0E94752703C08C2F0E9413
:103EC00085270E94C42772C1802F0E94BB1ECC236D
:103ED00009F491C180E2800F883010F0011104C014
:103EE0008C2F0E947B2703C08C2F0E948B270E945F
:103EF000C42781C18C2F807FCF70803211F0C29592
:103F0000C07F002319F00130C9F022C0DD2371F019
:103F1000112341F0113031F40E94A5278C2B0E940F
:103F2000AD2769C10E94A5278C2B1DC0112319F054
:103F3000113009F460C10E94BA2725C0DD2321F0A9
:103F4000163008F058C10EC0153008F054C11BC01F
:103F5000DD2361F0112331F0F701858180FF26C157
:103F60008F7085838C2F0E94071F45C1112359F044
:103F7000093309F02CC1FFEF27EE83E0F150204018
:103F80008040E1F722C18C2F0E940E1F34C18C2F7C
:103F900086958695837019F0813061F02CC1DD2300
:103FA00021F0802F9C2F937002C080E090E00E944F
:103FB000FA1C29C1DD2321F0802F9C2F937002C0B1
:103FC00080E090E00E94101D1EC18C2F837009F0CC
:103FD00045C0D11114C1402F429546954770440FFA
:103FE000440F602F6F70862F90E0A0E0B0E0042EA9
:103FF00004C0880F991FAA1FBB1F0A94D2F704FFA1
:1040000010C00FE010E020E030E004C0000F111FEE
:10401000221F331F4A95D2F70095109520953095B1
:1040200003C000E010E09801C695C695C370BC01BE
:10403000CD01602B712B822B932BC23049F058F4A9
:10404000C13019F00E948F25DAC00E947D25D7C0AB
:104050000E94A125D4C00E947B25D1C0DD2319F088
:104060008C2F817001C08695882309F4C8C0402F29
:10407000429546954770440F440F602F6F70862F0E
:1040800090E0A0E0B0E0042E04C0880F991FAA1FA2
:10409000BB1F0A94D2F704FF10C00FE010E020E02D
:1040A00030E004C0000F111F221F331F4A95D2F7C2
:1040B000009510952095309503C000E010E0980120
:1040C000C695C695C370BC01CD01602B712B822BA8
:1040D000932BC23049F058F4C13019F00E94542695
:1040E0008EC00E9442268BC00E94662688C00E9415
:1040F000B52585C0CF70DD2339F08C2F0E94DB25DC
:10410000802F0E94071F7BC0802F0E940E1F8C2FC4
:104110000E94FC2574C0023F01F128F4003F41F0E9
:10412000013FA1F03FC0033FF9F0043F39F13AC02D
:10413000DD2341F0153008F05EC08C2F8F710E9496
:10414000212659C0163008F056C0F7CFDD2339F0CC
:104150008C2F8F710E94DB254EC0DD23C9F38C2F7D
:104160008F710E94FC2547C0DD2329F08C2F8F71B1
:104170000E94C62540C00E94C1253DC0DD2349F0F4
:10418000CF718C2F0E94DB2563E08C2F0E94F927D2
:1041900032C081E00E941428123068F182E00E944F
:1041A000142829C0DD2331F0112391F2802F0E94C1
:1041B0006D1E21C0112399F2093349F49FEFE7EEF8
:1041C000F3E09150E040F040E1F700C00000802FA4
:1041D0000E94BB1E10C04C2F4F70602FC7010E9461
:1041E00019060E94EC240FC04C2F4F70602FC7019E
:1041F0000E941C0608C088EF8C0D843020F40E94B9
:10420000D41C0E941006DD20C9F00E94462780FDC4
:1042100015C0F70112820E9440270E94DB25C701CA
:104220000E943F210E944027DF91CF911F910F9163
:10423000FF90EF90DF90CF900C94FC25DF91CF9111
:104240001F910F91FF90EF90DF90CF9008950F9303
:104250001F93CF93DF93EC01688179818A810E945B
:104260001D278C010E9478260E946925B801CE0185
:104270000E94151FDF91CF911F910F910895CF9349
:10428000DF93EC01988189812B813C81232B31F0D4
:104290008F3F31F481E09F3F19F403C081E001C0FA
:1042A00080E080FD19C0CE010E94D70481110CC0AE
:1042B0000E944A27882381F08A81882369F082E05E
:1042C000DF91CF910C941428CE010E942721CE01BA
:1042D000DF91CF910C944B04DF91CF91089580E052
:1042E00090E00E94FA1C80E090E00E94101D0E9465
:1042F00092270E94A2270C94C42780915A02909181
:104300005B020E9494290C946F210E9482270C94D6
:104310007D21E92FE295EF704E2F50E0FA013297A0
:10432000EE30F105B0F4EB56FF4F0C944D32803F68
:1043300091F018F4883E68F40EC0843F51F40BC02D
:10434000883E48F0813F29F406C093FB882780F916
:10435000089580E0089581E008950E9412270E9448
:1043600089210895CF93DF9300D000D01F92CDB75D
:10437000DEB70F900F900F900F900F90DF91CF91BD
:104380000895CF93DF9300D000D000D0CDB7DEB733
:1043900026960FB6F894DEBF0FBECDBFDF91CF914A
:1043A00008951F93CF93DF93C091B50416E08091D9
:1043B000B604C81799F0D0E01C9FF0011D9FF00DC6
:1043C0001124E954FB4F40815181628173818481C2
:1043D00095810E94C1212196C770E9CFDF91CF91CD
:1043E0001F9108954091E7045091E8046091E90419
:1043F0007091EA048091EB049091EC040C94C1213B
:104400000F931F93CF93DF938091EC0482958F706D
:1044100009F05DC08091E904882309F458C08091B7
:10442000B5041091B6046091E7047091E804C0915E
:10443000EA04D091EB0491E06F3F09F090E0292F5E
:1044400006E0811709F443C0209721F07F3F21F057
:1044500030E003C031E001C0322F90E030FD34C0C5
:10446000089FF001099FF00D1124DF01A954BB4FF3
:1044700011963C911197371327C03C91361324C0F5
:1044800012963C91129731111FC013964D915C9179
:1044900014974C1B5D0B483C5105B0F48091EC0423
:1044A0008F7080618093EC04E454FB4F80818F70A7
:1044B0008061808387EE94E00E943F21DF91CF915D
:1044C0001F910F910C94D12101968770BACFDF9183
:1044D000CF911F910F9108959F92AF92BF92CF926B
:1044E000DF92EF92FF920F931F93CF93DF93CDB79D
:1044F000DEB761970FB6F894DEBF0FBECDBF8C015B
:1045000085E0F801DE011D9601900D928A95E1F794
:10451000F80140815181E2809091E7046091E804C4
:104520002091EA043091EB042115310531F06F3F01
:1045300031F481E09F3F19F403C081E001C080E0C5
:10454000F82FF1709F2E80FD46C1F801A380B48042
:1045500087EEC82E84E0D82EF090E904F501E21B26
:10456000F30BFF2009F4DFC08091EC04E83CF10577
:1045700008F09BC0282F207F09F052C0561313C0AB
:10458000491311C0FE2CE1100EC08F708061809322
:10459000EC040E94F221C6010E943F218091EC04AC
:1045A000F801858358C1AB2831F05F3F31F481E0D9
:1045B0004F3F19F403C081E001C080E080FD03C0DB
:1045C00081E08E2502C080E090E0F82FF170FF2E90
:1045D00080FF1CC08091B5042091B60436E082179C
:1045E00009F417C190E0389FF001399FF00D1124B4
:1045F000E954FB4F6181561306C06081461303C026
:104600006281E61203C001968770E9CFFE2CEE208E
:1046100009F421C18091EC0481608093EC045AC0BC
:10462000561306C0491304C0E11002C0F8019FC030
:104630004D875E878D859E850E94AD21882379F107
:10464000EE2069F12091EC04822F82958F7090E02A
:10465000029774F08091E7049091E80498878F8323
:104660001986BB86AA862C87CE0107960E943F2119
:1046700086E0F801A7EEB4E001900D928A95E1F78B
:104680000E9400220E94F2210DC0561729F14D8789
:104690005E878D859E850E94AD2181112CC0C80149
:1046A0000E943F21FF24F394D6C0282F207F69F772
:1046B0007A2DB98AA88A6E2D89890E94B22187EE47
:1046C00094E00E943F2186E0F60111928A95E9F775
:1046D0000E94F221F12CBFC04913D9CFE110D7CFEE
:1046E000F8018583C8010E943F2186E0F6011192FE
:1046F0008A95E9F7B0C0EE2091F22091EC04822F68
:1047000082958F7090E002970CF4B2CF8091E7040D
:104710009091E8049A8389831B82BD82AC822E83A8
:10472000CE010196A3CFE83CF10508F047C0FE2C6E
:10473000EE2009F4B4CF561330C049132EC0209197
:10474000EC0420FD21C0822F82958F70482F50E00D
:1047500041155105C9F0F80125834F30510541F04D
:104760008F5F982F9295907F822F8F70892B8583F2
:10477000C8010E943F2186E0F801A7EEB4E0019055
:104780000D928A95E1F742C086E0F801A7EEB4E009
:1047900001900D928A95E1F75EC04D875E878D8509
:1047A0009E850E94AD21811163CF8091EC048160D0
:1047B0008093EC04C8010E943F214DC07A2DB98A34
:1047C000A88A6E2D89890E94B22186E0F601119295
:1047D0008A95E9F71BC0EE2009F461CF4D875E870B
:1047E0008D859E850E94AD21F82E882309F457CF30
:1047F00086E0F801A7EEB4E001900D928A95E1F70A
:1048000087EE94E00E94671E0E9400220E94F2211F
:1048100022C04D875E878D859E850E941227292F95
:1048200022952F70223028F49F7039F0811105C035
:104830000BC0243028F49F7049F4805E883020F04B
:10484000C8010E943F219F2CF92C05C0F8019581D9
:10485000907F99F7F9CF8F2D61960FB6F894DEBF50
:104860000FBECDBFDF91CF911F910F91FF90EF90C1
:10487000DF90CF90BF90AF909F9008951F93CF93FC
:10488000DF93CDB7DEB72C970FB6F894DEBF0FBE1F
:10489000CDBF4F83588769877A878B879C87CE01E6
:1048A00007960E946C228823D1F09F8188852A85F3
:1048B0003B85232B31F08F3F31F481E09F3F19F48A
:1048C00003C081E001C080E080FD47C04F81588572
:1048D00069857A858B859C850E94C1213EC086E0D2
:1048E000FE013796DE01119601900D928A95E1F74F
:1048F000FF81E8856A857B856115710531F0EF3FA1
:1049000031F481E0FF3F19F403C081E001C080E091
:1049100080FD23C02091B60430E0C9010196877064
:1049200099274091B50450E084179507F1F1F98378
:10493000EA837D836C8396E0929FD001939FB00DB4
:104940001124A954BB4FFE01319601900D929A9506
:10495000E1F78093B6040E94D12116E08091B5045E
:104960009091B604891771F1189FC00111248954E0
:104970009B4F0E946C22882329F1E091B5041E9F71
:10498000F0011124E954FB4F408151816281738110
:10499000848195810E94C1218091B50490E00196A7
:1049A000877099278093B504D9CF0E9485211092F2
:1049B000B6041092B504E7EEF4E086E0DF011D9244
:1049C0008A95E9F72C960FB6F894DEBF0FBECDBFDF
:1049D000DF91CF911F910895EF92FF920F931F9354
:1049E000CF93DF938C01892B09F46CC0F12CEE245A
:1049F000E394E8012196F8018491843740F48430EF
:104A000008F051C0813081F0823019F15BC08537E8
:104A100009F444C0A8F19CE7980F903708F052C001
:104A20008F770E94BB1E41C00E5F1F4FFE01849115
:104A300090E2980F983050F48770FE2D01C0FF0F60
:104A40008A95EAF78F2F0E94952714C00E946D1E49
:104A50002DC00E5F1F4FFE01849190E2980F983099
:104A600060F48770FE2D01C0FF0F8A95EAF78F2F43
:104A70000E949B270E94C42719C00E94BB1E16C01B
:104A80000E5F1F4FFE01C491CC2381F08FE99FE0A0
:104A90000197F1F700C00000C150F6CF0E5F1F4F25
:104AA000FE01F49003C00E946D1E8E018F2D88239D
:104AB00009F49FCFEFE9FFE03197F1F700C0000064
:104AC0008150F5CFDF91CF911F910F91FF90EF9023
:104AD0000895089508950C946A250C946B250E94FE
:104AE0006D2560932D0570932E0580932F0590936F
:104AF00030050C946F210C946F250F931F93009138
:104B00002D0510912E0520912F0530913005602B39
:104B1000712B822B932B1F910F910C946F250F9368
:104B20001F9300912D0510912E0520912F05309196
:104B3000300560237123822393231F910F910C94DE
:104B40006F250F931F9300912D0510912E05209135
:104B50002F053091300560277127822793271F91F9
:104B60000F910C946F250C946A250E94B3256093D5
:104B7000290570932A0580932B0590932C050C949E
:104B80006F2160E070E0CB010C94B5250F931F936B
:104B900041E050E060E070E08A019B0104C0000F3A
:104BA000111F221F331F8A95D2F7C901B8011F9127
:104BB0000F910C94B5250F931F9341E050E060E0F6
:104BC00070E004C0440F551F661F771F8A95D2F707
:104BD0008091290590912A05A0912B05B0912C0573
:104BE0008A019B01082B192B2A2B3B2BC901B801E9
:104BF0001F910F910C94B5250F931F9341E050E046
:104C000060E070E004C0440F551F661F771F8A954F
:104C1000D2F74095509560957095809129059091B7
:104C20002A05A0912B05B0912C058A019B01082330
:104C300019232A233B23C901B8011F910F910C941A
:104C4000B5250F931F9341E050E060E070E004C091
:104C5000440F551F661F771F8A95D2F7809129054B
:104C600090912A05A0912B05B0912C058A019B01FA
:104C7000082719272A273B27C901B8011F910F913F
:104C80000C94B5250F931F930091290510912A05C7
:104C900020912B0530912C05602B712B822B932BAF
:104CA0001F910F910C94B5250F931F930091290527
:104CB00010912A0520912B0530912C05602371233A
:104CC000822393231F910F910C94B5250F931F936B
:104CD0000091290510912A0520912B0530912C0572
:104CE00060277127822793271F910F910C94B52578
:104CF00008952FE0929F800D1124E82FE695E69508
:104D0000E695877051E001C0550F8A95EAF785E076
:104D1000E89FF0011124E351FB4F20E030E070E008
:104D20004081CB01022E02C0969587950A94E2F746
:104D30008170819584278523842781932F5F3F4F3E
:104D40002530310569F708952FE0929F800D1124D9
:104D5000682F669566956695982F977085E0689F91
:104D6000B001112440E050E080E0FB01E40FF51FAA
:104D7000E351FB4F208130E0092E02C03695279584
:104D80000A94E2F721703327042E01C0220F0A94FF
:104D9000EAF7822B4F5F5F4F4530510531F7089599
:104DA000BF92CF92DF92EF92FF920F931F93CF9318
:104DB000DF938C01C0902905D0902A05E0902B0547
:104DC000F0902C0580912D0590912E05A0912F0536
:104DD000B0913005C82AD92AEA2AFB2ACFE1D0E0CF
:104DE000D701C6010C2E04C0B695A7959795879557
:104DF0000A94D2F780FD04C0219790F7B12C07C028
:104E0000BC2EB8018C2F0E9425060197A9F38B2D8B
:104E1000DF91CF911F910F91FF90EF90DF90CF9096
:104E2000BF900895CF93DF93EC010E94D026BE017E
:104E30000E942506DF91CF9108951F93CF93DF93B2
:104E4000EB019091B404992321F0CB010E94122729
:104E500013C0882349F0CB010E94D026182F682F59
:104E6000CE010E94792604C0CB010E94A426182FEF
:104E7000BE01812F0E942506DF91CF911F910895D9
:104E800080913105859585958595089580913105A9
:104E90008770089590913105977081E009F480E062
:104EA000089590917B0592FB222720F9281751F055
:104EB00080FB92F990937B0580917A0590917B0518
:104EC0000C945D28089580917B0582FB882780F9EA
:104ED00091E089270C94512781E00C94512780E0C0
:104EE0000C94512780915505089590915505892B73
:104EF0008093550508958095909155058923809359
:104F00005505089510925505089590915405892BE3
:104F1000809354050895809590915405892380933A
:104F20005405089510925405089590915305892BC6
:104F3000809353050895809590915305892380931C
:104F400053050895109253050895809132050895F0
:104F500008950C94A8270C94A92790917B0592FDA5
:104F600008C090913205981721F0809332050C9477
:104F7000AB27089580913205882329F010923205DD
:104F800080E00C94AB270895E0915A02F0915B0207
:104F9000809155058083E0915A02F0915B029081E7
:104FA00080915405892B8083E0915A02F0915B0235
:104FB000908180915305892B8083809132058823CD
:104FC00081F0E0915A02F0915B029081892B8083FD
:104FD00080915A0290915B020E94E82881110E9400
:104FE000BA2780915A0290915B020C94E01C0C94B9
:104FF000A82790917B0592FD10C098E0899F9001B1
:105000001124262B209331050E94DB258091310548
:105010008595859585950C94F7270C94DB25109242
:10502000310580E00C94F72720913105809582238B
:1050300080933105982F977041F430E0482F082E67
:10504000000C550B2417350721F490917B0592FF36
:1050500007C08595859585950E94FC250C940F28A1
:10506000089580E008956FEF7FEF80E090E00C946A
:10507000023380E090E00E94CE3221E08A3E9E4FD3
:1050800009F020E0822F089582E090E00C94C6326F
:1050900083E090E00C94C632CF9384E090E00E94CD
:1050A000C632C82F82E290E00E94C6322C2F30E038
:1050B000A901582BCA01CF910895CF93C92F682F0A
:1050C00084E090E00E94E4326C2F82E290E0CF9185
:1050D0000C94E432AB01BC018FE090E00C94F6320A
:1050E000AB01BC0183E190E00C94F63260E070E02B
:1050F000CB010C94702860E070E0CB010E946A281C
:105100000C9476286AEE7EEF80E090E00E940233F5
:1051100060E082E090E00E94E43260E083E090E0B2
:105120000E94E43210922D0510922E0510922F0548
:105130001092300560E084E090E00E94E43260E08C
:1051400082E290E00E94E43260E085E090E00E941C
:10515000E43260E086E090E00E94E4326FEF87E0A6
:1051600090E00E94E43240E050E0BA0188E090E034
:105170000E94F63260E08DE090E00E94E43240E070
:1051800050E0BA0188E190E00E94F63260E087E1E9
:1051900090E00E94E43240E050E0BA018CE190E0FF
:1051A0000E94F63260E070E080E290E00E940233FC
:1051B00040E050E0BA0188E190E00E94F6320C94A1
:1051C0007B280C948228682F8EE090E00C94E432C7
:1051D000FC01329680916602882331F080917A0535
:1051E00087FF02C09EE101C096E080E0915028F068
:1051F00021912223D9F38F5FF9CF0895662351F1CE
:10520000209166022223E9F020917A0527FF19C038
:10521000462F4695469546954E31E0F4677021E05D
:1052200030E002C0220F331F6A95E2F7FC01E40F61
:10523000F11D828190E02823392381E0232B69F43A
:1052400009C0FC01329608962191621729F0E817EF
:10525000F907D1F780E0089581E008959C01FC01F1
:1052600032969FEF80E04191461789F09F3F19F4F5
:10527000411101C0982F8F5F8630A9F79F3F39F009
:10528000F901E90FF11D97FDFA95628308950895DC
:105290009C012A5F3F4FFC014281461301C01282EC
:1052A000019682179307B9F70895262F269526951C
:1052B00026952E3168F4FC01E20FF11D677021E0A4
:1052C00030E001C0220F6A95EAF78281282B228301
:1052D0000895262F2695269526952E3170F4FC01EB
:1052E000E20FF11D677021E030E001C0220F6A95E6
:1052F000EAF720958281282322830895209166026F
:10530000222329F020917A0527FD0C9455290C942D
:105310002E2920916602222329F020917A0527FD6B
:105320000C9469290C94482920916602FC0132965C
:10533000222331F080917A0587FF02C08EE101C0FF
:1053400086E0DF011D928A95E9F7089508950C948F
:10535000A6290C94A629CF930E94A9290E94C608C9
:105360000E94A729C0E08C2F0E944A08892B29F4AB
:10537000CF5FC630C1F780E001C081E0CF910895D2
:105380000C94A6290C94C02980913A07843061F1CD
:105390000E94C22980E00E94100681E00E946613EC
:1053A0001092570520E488E190E00FB6F894A89594
:1053B000809360000FBE2093600083B7817F84607C
:1053C00083BF83B7816083BF7894889583B78E7FCE
:1053D00083BF0FB6F894A895809160008861809390
:1053E0006000109260000FBE08950C94A6290E94E0
:1053F00085210E94D41C0E94100680E00E94661342
:105400000C94F5291F920F920FB60F9211248F93CF
:105410009F93AF93BF9380915705811113C08091E3
:10542000320790913307A0913407B0913507419628
:10543000A11DB11D8093320790933307A0933407C9
:10544000B0933507BF91AF919F918F910F900FBE91
:105450000F901F90189582E084BD93E095BD9AEF60
:1054600097BD80936E0008952FB7F894809132070E
:1054700090913307A0913407B09135072FBF08955D
:105480002FB7F894609132077091330780913407F9
:10549000909135072FBF08959C014FB7F8948091E4
:1054A000320790913307A0913407B09135074FBF71
:1054B000821B930B0895CF92DF92EF92FF922FB74A
:1054C000F894C0903207D0903307E0903407F09002
:1054D00035072FBFA7019601261B370B480B590B29
:1054E000CA01B901FF90EF90DF90CF9008957894B2
:1054F0001F920F920FB60F9211248F939F93AF9329
:10550000BF938091320790913307A0913407B091F7
:1055100035070196A11DB11D809332079093330783
:10552000A0933407B0933507BF91AF919F918F91AE
:105530000F900FBE0F901F90189581E08093E000B0
:1055400080E28093D8001092C9008FE19EE4019719
:10555000F1F700C0000087E090EBDC018093430787
:1055600090934407A0934507B09346079CE088E1D9
:105570000FB6F894A895809360000FBE90936000DA
:10558000FFCF90935504809354040895809178053B
:1055900008950895CF93DF9300D01F92CDB7DEB763
:1055A00090913A07943011F589837B836A839093B5
:1055B000E9008FEF9091E800815095FD06C095EDD0
:1055C0009A95F1F700008111F5CF8091E80085FFF1
:1055D0000DC040E050E063E070E0CE0101960E9413
:1055E0003C2D8091E8008E778093E8000F900F901B
:1055F0000F90DF91CF910895BC0184E00C94CA2AEA
:10560000BC0183E00C94CA2ACF93DF9320916602F9
:10561000222339F020917A0527FF03C060E224E0BD
:1056200002C068E021E02093E9002FEF3091E8000C
:10563000215035FD06C035ED3A95F1F700002111F6
:10564000F5CF2091E80025FF1DC0EC018091660296
:10565000811105C040E050E068E070E003C070E0F8
:1056600040E050E0CE010E943C2D8091E8008E7712
:105670008093E80080E2FE01A8E5B5E001900D927C
:105680008A95E1F7DF91CF910895CF93603219F5B4
:1056900020913A072430F9F4C091E900CF7030919D
:1056A000EC00232F217030FD20E8C22B22E0209354
:1056B000E9002091E80020FF0BC040E050E060E2EC
:1056C00070E00E943C2D8091E8008E778093E80086
:1056D000CF70C093E900CF9108958091390781116F
:1056E00009C00E94182F0E94752F8091E2008460EB
:1056F0008093E2000895109239070895089508955F
:10570000089542E061EC81E00E94912E42E261EC5A
:1057100084E00E94912E42E261EC82E00E94912E90
:1057200042E260EC83E00C94912E80913C07833040
:1057300009F462C030F4813071F0823009F49BC00A
:1057400008958A3009F487C08B3009F46DC0893020
:1057500009F0A9C020C080913B07813A09F0A3C09D
:105760008091E800877F8093E80080913F079091C7
:105770004007892B21F460E288E595E003C060E0F2
:1057800080E090E070E00E94D22D8091E8008B775D
:105790008093E800089580913B07813209F083C02F
:1057A00080913F0790914007009719F0029709F008
:1057B0007AC08091E800877F8093E8008091E800BC
:1057C00082FD05C080913A078111F8CF6CC020910D
:1057D000F3008091F20090E0922B029729F48091DF
:1057E000F1008B7F813021F48091F1008093780566
:1057F0008091E8008B7753C080913B07813A09F094
:1058000052C080913F0790914007892B09F04BC00F
:105810008091E800877F8093E8008091E80080FF16
:10582000FCCF8091660236C080913B078132D9F56A
:1058300080913F0790914007892BA9F58091E8005E
:10584000877F8093E8000E94C62E80913D07809359
:1058500066020C94852180913B07813221F580916D
:10586000E800877F8093E8000E94C62E80913E0763
:1058700080937905089580913B07813AA1F4809146
:10588000E800877F8093E8008091E80080FFFCCFEC
:10589000809179058093F1008091E8008E77809364
:1058A000E8000C94C62E08951F93CF93DF93CDB7D5
:1058B000DEB7A0970FB6F894DEBF0FBECDBF84B79A
:1058C000877F84BF0FB6F894A895809160008861A7
:1058D00080936000109260000FBE90E080E80FB6E9
:1058E000F89480936100909361000FBE0E94511D57
:1058F0000E94182F0E94752F8091E200846080938F
:10590000E20078940E940A320E945F1D8CE592E0CA
:105910000E94CF1C13E080913A078530A9F4809152
:105920003A07853079F40E94C4298091380788238A
:10593000B1F30E94AB29882391F30E94262D0E9487
:105940008521EDCF0E94F7290E94741D80913A07AE
:10595000843009F51093E9008091E80082FF1BC0B4
:105960008091E80085FF0AC040E050E060E270E00E
:10597000CE0101960E94872D91E001C090E08091B8
:10598000E8008B778093E800992329F060E2CE014C
:1059900001960E9480170E945B1DBDCF0C94D02CF5
:1059A000292F332723303105C9F060F42130310528
:1059B00081F02230310509F041C08BE590E02CE008
:1059C00036E040C021323105E1F02232310531F1BB
:1059D00035C082E190E027E636E034C09927813077
:1059E000910549F028F0029749F5EAEDF5E005C088
:1059F000E8E0F6E002C0E4EFF5E0849190E09F017A
:105A000021C063307105D0F4660F771FFB01E25BA4
:105A1000FB4F2081318189E090E014C06330710533
:105A200068F4FB01EE0FFF1FE85BFB4F2081318123
:105A3000FB01EB5BFB4F808190E004C080E090E0D5
:105A400020E030E0FA0131832083089580E189BDB0
:105A500082E189BD09B400FEFDCF8091D8008F7D21
:105A60008093D8008091E00082608093E000809174
:105A7000E00081FDFCCF0895CF92DF92EF92FF927C
:105A80000F931F93CF93DF93EC018B017A010E9458
:105A9000E52E811133C0E114F10439F0F701808162
:105AA0009181081B190BC80FD91FC12CD12C0115CE
:105AB000110519F18091E80085FD16C08091E8007C
:105AC0008E778093E800E114F10449F0F7018081BA
:105AD0009181C80ED91ED182C08285E00FC00E947C
