:100000000C94BE020C9405030C9405030C94050398
:100010000C9405030C9405030C9405030C94050340
:100020000C9405030C9405030C944F160C948B153B
:100030000C940D0E0C9405030C9405030C9405030D
:100040000C9405030C9405030C9405030C94050310
:100050000C9405030C94DB0D0C9405030C94050320
:100060000C9405030C9405030C9405030C940503F0
:100070000C9405030C9405030C9405030C940503E0
:100080000C9405030C9405030C9405030C940503D0
:100090000C9405030C9405030C9405030C940503C0
:1000A0000C9405030C9405030C940503A406A40604
:1000B000DE06DE063707DE08DE08DE0853073108F5
:1000C00042084208000C030C2C0C390C400C600C4C
:1000D000F30CF30CF30CF30CF30C630C650C690CD0
:1000E0008C0CAC0CAF0CB20CD40C860F860F990F95
:1000F000990F8F0F990F990F990F860F860F940FF5
:10010000990F990F940F9F13C6136D15C6136D1594
:10011000121435146D152A153A1500000000000060
:1001200000000000000000000000000000000000CF
:1001300000000000000000000000000000007E0F32
:1001400000D4FFFFFFC7000000780000000000009F
:1001500000002A2B28000000000000000000000022
:10016000000000000029000000002C1E3420212285
:1001700024342627252E362D3738271E1F202122EE
:10018000232425263333362E37381F040506070867
:10019000090A0B0C0D0E0F10111213141516171857
:1001A000191A1B1C1D2F3130232D35040506070895
:1001B000090A0B0C0D0E0F10111213141516171837
:1001C000191A1B1C1D2F3130354C05010980A10166
:1001D000850319012AB700150126B700950175108E
:1001E0008100C0050C0901A101850419012AA002A2
:1001F000150126A002950175108100C00660FF0957
:1002000061A1010962150026FF0095207508810291
:100210000963150026FF00952075089102C00501AD
:100220000906A101050719E029E715002501950830
:10023000750181029501750881010507190029FFE3
:10024000150026FF0095067508810005081901298B
:1002500005950575019102950175039101C009028B
:100260005B00030100A0FA09040000010301010082
:100270000921110100012240000705810308000A3D
:1002800009040100020300000009211101000122FC
:100290002200070582032000010705030320000157
:1002A00009040200010300000009211101000122DC
:1002B00032000705840320000A120110010000002B
:1002C0000815E086C3010001020001080345006D26
:1002D000007500000018034B0069006E0065007493
:1002E00000690063006C006100620073000000049C
:1002F000030904290000003A003B003C003D003E99
:10030000003F00400041000000420043004400451F
:100310000046004700480035001E001F0020002155
:10032000002200230024002500260027002D002E97
:10033000002A002A0049004A004B002B0014001A32
:10034000000800150017001C0018000C0012001314
:10035000002F003000000031004C004D004E0039ED
:100360000004001600070009000A000B000D000E33
:10037000000F0033003400000000002800000000DF
:10038000000000E1001D001B00060019000500111F
:10039000001000360037003800000000000000E5C3
:1003A00000000052000000E000E300E20000000056
:1003B000002C000000000000000000E600E7000044
:1003C000000151E400500051004F00010000000105
:1003D0000001000100010001000100010001000016
:1003E0000001000100010001000100010001000105
:1003F00000010001000100010001000100010001F5
:1004000000010001000100010001000100A800AA94
:1004100000A900010001000100010001000100012C
:1004200000010001000100010001000100000001C5
:1004300000AC00AE00AB00010001000100010001B2
:1004400000010001000100010001000100010000A5
:100450000000000100000000000000010001000198
:100460000001000100010001000100010001000184
:100470000000000000000001000000010000000179
:100480000001000100000000000100000000000069
:100490000000000100010000000100010001000156
:1004A0000001000100000001000100010001000145
:1004B0000001000100010000000100010001000135
:1004C0000001000100010001000100010001000124
:1004D0000001000100010001000100010001000114
:1004E0000001000100A800AA00A90001000100010C
:1004F00000010001000100010001000100010001F4
:10050000000100010000000100AC00AE00AB0001E2
:1005100000010001000100010001000100010001D3
:1005200000010001000100000000000100000000C7
:1005300000000001000100010001000100010001B4
:1005400000010001000100010000000000000001A6
:100550000000000100000001000100010000000097
:100560000001000000000000000000010001000088
:1005700000010001000100010001000011241FBE64
:10058000CFEFDAE0DEBFCDBF04B603FE27C0809117
:100590006E0290916F02A0917002B091710287304B
:1005A000904BA740B04BD1F410926E0210926F02A4
:1005B000109270021092710214BE84B7877F84BFBC
:1005C0000FB6F894A89580916000886180936000D0
:1005D000109260000FBEE0E0F8E3099511E0A0E0A2
:1005E000B1E0E8E3FAE302C005900D92A436B1074A
:1005F000D9F722E0A4E6B1E001C01D92AE36B20701
:10060000E1F70E94ED090C941A1D0C9400003F9232
:100610004F925F926F927F928F929F92AF92BF9212
:10062000CF92DF92EF92FF920F931F93CF93DF93BE
:10063000CDB7DEB729970FB6F894DEBF0FBECDBF9A
:10064000FC018081918123813481232B31F09F3FF4
:1006500031F491E08F3F19F403C091E001C090E0C4
:1006600090FDE9C57F0185E0DE01119601900D92B4
:100670008A95E1F7F701228189819A81222349F045
:100680000E94270F182F682F89819A810E94C90F15
:1006900003C00E949D0F182F69817A81812F0E94CB
:1006A00085198C01F7018281882309F4F2C0980131
:1006B00022513F452031310508F019C18FEF93E0F9
:1006C0000E94CB1C8111EFC0025137E8832E33E02A
:1006D000932E002379F08114F4E09F0609F4E3C01F
:1006E000C4010E94CB1C811101C001501FEF811A6F
:1006F000910AEFCF1E821F821886198644244394E4
:100700002AE0322E84010F5F1F4FC4010E94CB1CD0
:100710008E831F82882309F4C6C09FEF980F933001
:1007200060F48F834E8222E0820E911CC8010E94E9
:10073000CB1C8887811102C0B6C048018E010A5FB8
:100740001F4FF80120812223E9F2213009F04CC02B
:100750008181813049F46801F2E0CF0ED11CF801AB
:1007600082810E94AD1C0AC0823051F46801F2E01F
:10077000CF0ED11CF80182810E94541C860186C0D4
:10078000833049F46801F2E0CF0ED11CF801828178
:100790000E941C1CF3CF843019F00F5F1F4F76C0EE
:1007A000F80122810E5F1F4F80E090E030E020537F
:1007B00031092A30310568F4389EA001399E500D68
:1007C0001124C901840F951F0F5F1F4FF80120816D
:1007D000EDCF009709F45AC0EFE9FFE03197F1F748
:1007E00000C000000197F5CFE22FF0E0E65BFE4F7E
:1007F0005490822F86958695869590E0FC01E65C64
:10080000FE4F64902770712C022E02C0759467947D
:100810000A94E2F7F1E06F227724FC01E65DFE4FD7
:10082000A490B12C022E02C0B594A7940A94E2F7CA
:1008300031E0A322BB24FC01E65EFE4FC490D12C24
:1008400002C0D594C7942A95E2F781E0C822DD243E
:100850006114710419F081EE0E94541CA114B104BA
:1008600019F086EE0E94541C852D0E94AD1CAB2809
:1008700019F086EE0E941C1C672819F081EE0E9478
:100880001C1CCD2819F08CE20E94AD1C0F5F1F4F7D
:1008900058CF00313FE5130709F0C4C481E00E943E
:1008A000FE0F0E949B1280914102877009F4C3C41D
:1008B000F7018281882309F4BEC482E029960FB62D
:1008C000F894DEBF0FBECDBFDF91CF911F910F9186
:1008D000FF90EF90DF90CF90BF90AF909F908F9060
:1008E0007F906F905F904F903F900C942310003159
:1008F000FFE51F0711F481E005C001312FE5120764
:1009000021F482E00E944010CCCF033FFCE51F079A
:1009100099F406E221EE40EE63EF7CE509C0073D65
:10092000ECE51E0711F506E221EE41EE67ED7CE5F0
:10093000C7010E949C18B7CF043F2CE5120708F0AE
:100940003FC1083D3CE5130731F407E225EE45EED3
:1009500068ED7CE5EDCF093D9CE5190701F708E25C
:1009600021E045EE69ED7CE5E3CF882309F45DC124
:100970001092660102309CE5190708F440C1063167
:10098000ECE51E0730F0C8018A5F9C45099708F026
:1009900036C10E94500E9093690180936801003126
:1009A000FCE51F0709F4C3C008F041C008303CE56E
:1009B000130709F49AC0F0F404309CE5190709F410
:1009C00087C068F40230FCE51F0709F477C00330E4
:1009D0001C4509F0E5C080916801826076C0063050
:1009E0003CE5130709F46EC008F07BC080916801F4
:1009F00088606BC00C309CE5190709F485C068F469
:100A00000A30FCE51F0709F474C008F079C00E94A1
:100A1000901280916801806858C00E303CE5130741
:100A200009F476C008F07FC0809168018BC00B3F4D
:100A30009CE5190709F44FC018F50331FCE51F07C1
:100A400009F47DC078F401313CE5130709F473C063
:100A500002311C4509F0A4C00E94901280916801E7
:100A60008F7733C005319CE5190709F472C008F48B
:100A700086C00A3F1C4509F093C0809169013EC0C1
:100A80000F3F2CE5120709F45FC058F40D3F8CE5C9
:100A9000180709F444C008F43FC0809169018260DE
:100AA0002DC00130EDE51E0709F475C008F45DC0E6
:100AB00002301D4509F074C060E06EC0809168018D
:100AC000816003C08091680180618093680168C083
:100AD0008091680111C080916901826080936901F1
:100AE0005FC0809168018062F0CF8091680180646E
:100AF000ECCF8091680188608460E7CF8160EECFA1
:100B0000809168018E7FE1CF809168018D7FDDCF7C
:100B100080916801877FD9CF8091690118C0809149
:100B200069018D7FDBCF809168018F7ECECF809170
:100B300068018F7DCACF809168018F7BC6CF80917D
:100B40006801877F8B7FC1CF809169018D7F8E7F08
:100B5000C5CF8091680182FB222720F991E092277E
:100B600090FB82F990FB83F9B0CF80916901982FB7
:100B7000909591708E7F892B90FB81F9AFCF0E9469
:100B800090128091680187FB222720F991E092273B
:100B900090FB87F99ACF61E08EE090E00E94D91C2B
:100BA000609168011091690184E090E00E94D91C75
:100BB000612F82E290E00E94D91C0E94901273CEB5
:100BC000053FFCE51F0731F406E221EE42EE65EF3A
:100BD0007CE5AECE053F2CE5120730F407E225EEAA
:100BE00044EE64EF7CE5A4CE063F3CE5130709F034
:100BF000BCCE07E225EE46EE66EF7CE599CE0631E7
:100C00008CE5180751F5809144028A7A91E009F445
:100C100090E090936701882311F065E301C069E2D9
:100C20008BEB91E00E94360E15C006311C4509F091
:100C300045C080916701882309F4FBC285E3EBEB93
:100C4000F1E09281891301C01282319631E0E13CDA
:100C5000F307B9F70E94D20E26CE0A358DE51807A4
:100C600041F150F40115ECE51E07A9F00E3D1C45BD
:100C700029F50E94610E17CE0B352DE51207D9F02C
:100C80000C351D45D9F48091690182FB882780F9D4
:100C900091E0892711C00E9490128FEF94E3ECE05D
:100CA00081509040E040E1F700C000000E94B70D85
:100CB000FACD81E001C080E00E940D0FF701828132
:100CC00000811181882349F0C8010E94270FD82E86
:100CD000682FC8010E94C90F04C0C8010E949D0F5F
:100CE000D82EB8018D2D0E948B1A8C01982EF701F9
:100CF000B280A580A2949FE0A922809141028770D2
:100D000099F0BB2089F0812F807F803421F080E230
:100D1000800F883048F082E00E94231080914102C9
:100D20008770DD24D3948111D12CC12EC2948FE021
:100D3000C8228C2D90E08C30910508F03FC2FC0158
:100D4000EA5AFF4F0C940D1D812F807F1F7088235E
:100D500011F01295107FBB20B9F0112309F419C2CC
:100D600080E2800F883010F0911006C0809144021C
:100D7000182B1093440205C080914302182B109346
:100D800043020E94D20E05C2802F0E941C1C112318
:100D900009F414C2005E1095083010F0911006C0DE
:100DA0008091440218231093440205C080914302AD
:100DB0001823109343020E94D20E00C2812F807F1D
:100DC0001F70803211F01295107F992021F0F1E010
:100DD0009F1611F130C0BB20B1F0AA2081F001E0D4
:100DE000A0120DC08091690182FDE8C18091450289
:100DF000182B181709F4E2C110934502DFC1809146
:100E00004502812B10C0AA2021F021E0A21609F48E
:100E1000D5C10E94CC0E27C0BB2041F035E03A1569
:100E200008F4CCC1812F0E94121CC8C184E08A152D
:100E300008F4C4C118C0BB2049F0AA2099F3F701F7
:100E4000858180FFA6C18F708583ECCFAA2059F0E1
:100E5000093309F0B0C1FFEF17EE23E0F150104065
:100E60002040E1F7A6C1812F0E94071CA7C1812F56
:100E700086958695837019F0813059F09FC1BB200B
:100E800019F0C801937002C080E090E00E947A18C7
:100E90009BC1BB2019F0C801937002C080E090E0B4
:100EA0000E94641891C1812F837009F069C0B1104C
:100EB00089C1902F929596959770990F990F802FD1
:100EC0008F70882E912CA12CB12C092E04C0880C77
:100ED000991CAA1CBB1C0A94D2F704FF12C04FE055
:100EE00050E060E070E004C0440F551F661F771F9C
:100EF0009A95D2F7DB01CA0180959095A095B0959F
:100F000003C080E090E0DC0116951695412F4370F8
:100F1000423019F1C8F40091460210914702209125
:100F2000480230914902413059F088299929AA296B
:100F3000BB29BC01CD0160237123822393230AC006
:100F4000802A912AA22AB32ABC01CD0168297929D5
:100F50008A299B290E94611035C188299929AA29CB
:100F6000BB2900914602109147022091480230911E
:100F70004902BC01CD016027712782279327EACF60
:100F8000BB2019F0812F817001C08695882309F458
:100F900019C1902F929596959770990F990F802F60
:100FA0008F70882E912CA12CB12C092E04C0880C96
:100FB000991CAA1CBB1C0A94D2F704FF12C04FE074
:100FC00050E060E070E004C0440F551F661F771FBB
:100FD0009A95D2F7DB01CA0180959095A095B095BE
:100FE00003C080E090E0DC0116951695412F437018
:100FF0004230D9F068F500916102109162022091AF
:10100000630230916402413059F088299929AA2954
:10101000BB29BC01CD0160237123822393231EC011
:10102000802A912AA22AB32A13C088299929AA2999
:10103000BB290091610210916202209163023091FC
:101040006402BC01CD01602771278227932706C067
:10105000BC01CD01682979298A299B290E94F40FB6
:10106000B1C01F70BB2039F0812F0E944010802F2B
:101070000E94121CA7C0802F0E94071C812F0E9473
:10108000FE0FA0C0802F32EF931609F440C039152F
:1010900038F090EF991661F0E1EF9E1699F174C067
:1010A000F3EF9F16D9F124EF921609F44EC06CC0ED
:1010B000BB2019F134E03A1508F480C01F7181E0BB
:1010C00090E0A0E0B0E0AC01BD0104C0440F551FAA
:1010D000661F771F1A95D2F7809161029091620284
:1010E000A0916302B09164028A019B01082719272D
:1010F0002A273B27C901B80125C025E02A1508F495
:101100005DC0DCCFBB2029F0812F8F7130C0BB20A8
:10111000D9F3812F8F710E94FE0F50C0BB2079F050
:101120001F7181E090E0A0E0B0E0BC01CD0104C0FF
:10113000660F771F881F991F1A95D2F703C060E0CA
:1011400070E0CB010E94F40F39C0BB2099F01F71F1
:10115000812F0E9440108091690182FD07C038E014
:10116000139FC0011124836080934102812F0E944C
:10117000401024C081E00E94231081E08A15F0F421
:1011800082E00E9423101AC0BB2039F0AA2009F483
:10119000BBCF802F0E94541C11C0AA2009F4B9CFE4
:1011A000893349F49FEFE7EEF3E09150E040F040DF
:1011B000E1F700C00000802F0E941C1C88EF8C0DFE
:1011C000843010F40E949018DD20A9F18091410232
:1011D00080FD31C0F70112828595859585950E9425
:1011E0004010C7010E9407038091410285958595B3
:1011F000859529960FB6F894DEBF0FBECDBFDF915F
:10120000CF911F910F91FF90EF90DF90CF90BF9003
:10121000AF909F908F907F906F905F904F903F9096
:101220000C94FE0F01319FE5190709F06ECB82E0A7
:1012300036CB89E204CD29960FB6F894DEBF0FBEF7
:10124000CDBFDF91CF911F910F91FF90EF90DF9075
:10125000CF90BF90AF909F908F907F906F905F9056
:101260004F903F900895BC0184E00C94850DBC0123
:1012700083E00C94850D8091590287FF11C0809105
:10128000E80082FD05C0809157028111F8CF11C09E
:101290008091E8008B770BC080915702882349F03A
:1012A0008091E80080FFF8CF8091E8008E778093EE
:1012B000E8000895982F973068F59093E900981703
:1012C00039F07091EC002091ED005091F00003C0D6
:1012D000242F762F50E021FD02C09F5FECCF30918C
:1012E000EB003E7F3093EB003091ED003D7F30937B
:1012F000ED003091EB0031603093EB007093EC0027
:101300002093ED005093F0002091EE0027FDE5CFF3
:1013100080E008958F708093E90081E00895209126
:101320005F02309160022617370748F0611571059A
:1013300039F42091E8002E772093E80001C0B9012C
:10134000FC0120E06115710579F180915702882335
:10135000F1F18530F1F18091E80083FD3CC080918E
:10136000E80082FD2EC08091E80080FFEBCF209145
:10137000F3008091F20090E0922B6115710551F01D
:101380008830910538F421912093F1006150710962
:101390000196F3CF21E0089709F020E08091E80062
:1013A0008E778093E800CECF2111CFCF0AC08091F5
:1013B0005702882361F0853061F08091E80083FD59
:1013C0000AC08091E80082FFF2CF80E0089582E0B9
:1013D000089583E0089581E00895CF93DF93CDB71A
:1013E000DEB7E0970FB6F894DEBF0FBECDBF84B76F
:1013F000877F84BF0FB6F894A895809160008861BC
:1014000080936000109260000FBE90E080E80FB6FD
:10141000F89480936100909361000FBE85B7806857
:1014200085BF85B7806885BF87E59DE0909365019E
:10143000809364010E94CF150E94EE158091E20016
:1014400084608093E2007894809157028823A1F011
:101450001091E9001F709091EC00892F817090FD30
:1014600080E8182B1092E9008091E80083FD0E942B
:10147000B9121F701093E90082E084BD93E095BD1E
:101480009AEF97BD80936E000BE011E0D8018D912B
:101490008D010E949219B1E001311B07B9F701E1FA
:1014A00011E0F80181918F010E949219F1E003325D
:1014B0001F07B9F7EAE6F1E0AFE9B1E01192119246
:1014C000119211921D921D921D921D9201E0E2381F
:1014D000F007A1F780E090E00E94D31C8A3E9E4F67
:1014E00011F00E94610E82E090E00E94CB1C80937C
:1014F00086010E94500E90936901809368010E94BA
:10150000A9198FE39CE90197F1F700C000000E9440
:10151000A91980919F0180FF17C06FEF83E290E0CF
:101520000E94D91C6FEF84E290E00E94D91C6FEFFB
:1015300085E290E00E94D91C6FEF7FEF80E090E0A1
:101540000E94F71C0E94B70D83E090E00E94CB1C24
:10155000682F70E080E090E00E94611083E290E0EC
:101560000E94CB1C813281F484E290E00E94CB1C6B
:10157000873051F485E290E00E94CB1C91E08832E4
:1015800009F090E0892F01C080E080FF73C280E005
:1015900091E0909383018093820108E1C02ED12CC9
:1015A000DE0111967D011E01B3E12B0E311C8091ED
:1015B0005702853009F049C000E112E180915702DD
:1015C000853009F03EC080915702843011F11092AD
:1015D0008401E0E40FB6F894A895C09260000FBEB5
:1015E000E093600083B7817F846083BF83B78160AD
:1015F00083BF7894889583B78E7F83BF0FB6F894A6
:10160000A8958091600088618093600010926000CE
:101610000FBE80915602882309F4D0CF0E94A919E9
:10162000EFE9F1E081919191A191B191892B8A2B00
:101630008B2B09F000C227EB31E02E173F0791F703
:10164000BDCF0E9490120E9490180E94A919882371
:1016500059F08FB7F8944091B7015091B80160915B
:10166000B9017091BA018FBFA7E8B1E0EFE9F1E0ED
:1016700018AA1FA69FA541905190619071904D911D
:101680005D916D917D914425552566257725411500
:1016900051056105710509F446C080E0812C912C4B
:1016A00054018394950184010423152326233723B1
:1016B000012B022B032B79F189A39AA348205920EF
:1016C0006A207B2081E045284628472809F480E0ED
:1016D0008BA30E94010E8160782F9DA38CA349A14A
:1016E0005AA16BA18DA10E94C6170FA518A9000FC2
:1016F000111F000F111FF801E957FE4F80819181E2
:10170000A281B38188269926AA26BB26808291824F
:10171000A282B38222C08F5F880C991CAA1CBB1CBA
:10172000823109F0BFCF0FA518A90F5F1F4F18AB6B
:101730000FA70630110509F09DCF8FEF8EA38FA361
:1017400018A60E94010E8160782F9AA789A74EA142
:101750005FA168A58AA50E94C6170E949018909163
:101760008501891721F00E9490188093850180914E
:101770005702843009F01BCF83E08093E900809109
:10178000E80082FF14CF8091E80085FF23C00E940B
:10179000241781111DC080E2A82EB12C8E010F5F8D
:1017A0001F4F09C08091F100D8018D938D01B1E0E8
:1017B000AB1AB10869F08091E80085FDF3CF809104
:1017C000E8008B778093E8000E942417882399F320
:1017D00091E001C090E08091E8008B778093E80071
:1017E000992309F4E4CEE9818E2F90E0FC01319732
:1017F000E331F10508F0F7C0EE59FF4F0C940D1DD1
:101800001A8289E064C08A81823009F42AC1833057
:1018100089F0813009F0E7C02FB7F8948091B701C3
:101820009091B801A091B901B091BA012FBFBB83CB
:10183000AC8324C0FE0131962FE931E0D9014D91EE
:101840005D916D917D919D016283538344833396B5
:101850002E163F0699F7C9C08A81823009F0C3C0AD
:101860006B817C818D819E810E94131D86E290E0B8
:1018700024C04C816B818A810E945F199D83F8C0CE
:101880000D811E811027012710278C81AB809A8142
:10189000B4E2AB9E50011124E8ED9E9FA00CB11C58
:1018A0001124A80EB11CA80EB11C612FC50187968A
:1018B0000E94D91C602FC50188960E94D91C95C032
:1018C0000E942B1992C080E14BC01A8289E78B835A
:1018D0008CC00A811B81102701271027AC80B12CF6
:1018E0004701C80189579C4F94012E193F092A15B9
:1018F0003B0508F07AC00937110530F40E94CB1C73
:10190000D40114968C9302C0F40114820F5F1F4F10
:10191000FFEF8F1A9F0AE5CF0A811B81102701274D
:101920001027AC80B12C4701C80189579C4F940106
:101930002E193F092A153B0508F057C00937110534
:1019400028F4D40114966C910E94D91C0F5F1F4F8C
:10195000BFEF8B1A9B0AE8CF0E941B1946C084E098
:101960008A8343C00A811B81102701271027AC807E
:10197000B12C4701C801879694012E193F092A15F9
:101980003B0598F50036E3E01E0730F40E94CB1CBF
:10199000D40114968C9302C0F40114820F5F1F4F80
:1019A000FFEF8F1A9F0AE6CF0A811B8110270127BC
:1019B0001027AC80B12C4701C801879694012E19DD
:1019C0003F092A153B0588F4003623E0120728F466
:1019D000D40114966C910E94D91C0F5F1F4FBFEF6A
:1019E0008B1A9B0AE9CF8FEF89838091570284304D
:1019F00009F0DDCD1091E9001F709091EC00892F66
:101A0000817090FD80E8182B82E08093E90080913E
:101A1000E80080FF0CC040E050E060E270E0C701E9
:101A20000E9457178091E8008E778093E8001F701E
:101A30001093E900BCCD09BD19BD09B400FEFDCF6E
:101A40008091D8008F7D8093D8008091E0008260E3
:101A50008093E0008091E00081FDFCCF0E94901215
:101A6000ADCD86E290E00E94CB1C1B821C821D82C1
:101A70008E83BBCF60E086E290E00E94D91C0E947A
:101A80002B190E941B1961E283E290E00E94D91C8D
:101A900067E084E290E00E94D91C68E285E290E071
:101AA0000E94D91C74CD089580914C02089580E065
:101AB0000895CF93DF9321E02093E9002FEF309139
:101AC000E800215035FD06C035ED3A95F1F70000EC
:101AD0002111F5CF2091E80025FF14C0EC0140E072
:101AE00050E068E070E00E9457178091E8008E7720
:101AF0008093E80088E0FE01ADE4B2E001900D9231
:101B00008A95E1F7DF91CF910895CF93DF9300D0CD
:101B10001F92CDB7DEB790915702943011F58983AB
:101B20007B836A839093E9008FEF9091E800815066
:101B300095FD06C095ED9A95F1F700008111F5CF5E
:101B40008091E80085FF0DC040E050E063E070E068
:101B5000CE0101960E9457178091E8008E778093FE
:101B6000E8000F900F900F90DF91CF91089581E0E2
:101B70008093E00080E28093D8001092C9008FE14A
:101B80009EE40197F1F700C0000087E090EBDC01D4
:101B900080936E0290936F02A0937002B0937102D3
:101BA0009CE088E10FB6F894A895809360000FBE82
:101BB00090936000FFCF78941F920F920FB60F9210
:101BC00011248F939F93AF93BF938091B70190910E
:101BD000B801A091B901B091BA010196A11DB11D42
:101BE0008093B7019093B801A093B901B093BA0163
:101BF000BF91AF919F918F910F900FBE0F901F904B
:101C000018952FB7F8948091B7019091B801A091E1
:101C1000B901B091BA012FBF08951F920F920FB66C
:101C20000F9211248F939F93AF93BF938091840160
:101C3000811113C08091B7019091B801A091B901B1
:101C4000B091BA014196A11DB11D8093B701909347
:101C5000B801A093B901B093BA01BF91AF919F9120
:101C60008F910F900FBE0F901F9018959C01FC0153
:101C700032969FEF80E04191461789F09F3F19F41B
:101C8000411101C0982F8F5F8630A9F79F3F39F02F
:101C9000F901E90FF11D97FDFA9562830895089502
:101CA000CF9384E090E00E94CB1CC82F82E290E0AA
:101CB0000E94CB1C2C2F30E0A901582BCA01CF91D8
:101CC00008956AEE7EEF80E090E00E94F71C60E0ED
:101CD00082E090E00E94D91C60E083E090E00E94E6
:101CE000D91C10924602109247021092480210929C
:101CF000490260E084E090E00E94D91C60E082E24A
:101D000090E00E94D91C60E085E090E00E94D91C20
:101D100060E086E090E00E94D91C6FEF87E090E0E1
:101D20000E94D91C40E050E0BA0188E090E00E9497
:101D3000EB1C60E08DE090E00E94D91C40E050E098
:101D4000BA0188E190E00E94EB1C60E087E190E03E
:101D50000E94D91C40E050E0BA018CE190E00E9462
:101D6000EB1C60E070E080E290E00E94F71C40E035
:101D700050E0BA0188E190E00E94EB1C40E050E0A6
:101D8000BA018FE090E00E94EB1C40E050E0BA0105
:101D900083E190E00C94EB1C80914502811110923C
:101DA000450208959091440280914302892B20912D
:101DB0004202982F922B9093BB0180914502882379
:101DC00089F0892B8093BB01EDEBF1E097E080E097
:101DD000915029F021912223D9F38F5FF9CF8111FE
:101DE0000E94CC0EE0918201F0918301309731F096
:101DF0000280F381E02D8BEB91E00994089580E05F
:101E000090E00E947A1880E090E00E94641810929E
:101E10004302109242020C94D20ECF93C0916901FA
:101E2000C2FB992790F9981781F080FBC2F9C09303
:101E300069016091680184E090E00E94D91C6C2FD8
:101E400082E290E0CF910C94D91CCF910895BF927B
:101E5000CF92DF92EF92FF920F931F93CF93DF9376
:101E60008C01C0906102D0906202E0906302F09019
:101E700064028091460290914702A0914802B0917D
:101E80004902C82AD92AEA2AFB2ACFE1D0E0D701A1
:101E9000C6010C2E04C0B695A795979587950A9410
:101EA000D2F780FD04C0219790F7B12C07C0BC2E5B
:101EB000B8018C2F0E948B1A0197A9F38B2DDF910B
:101EC000CF911F910F91FF90EF90DF90CF90BF9037
:101ED0000895CF93DF93EC010E94270FBE010E946B
:101EE0008B1ADF91CF9108950E94690F292F2F70CF
:101EF000E92FE295EF704E2F50E0FA013297EE3065
:101F0000F105B8F4EB58FF4F0C940D1D803F99F08C
:101F100018F4883E70F40FC0843F59F40CC0883E1A
:101F200050F0813F31F407C0822F869586958695C3
:101F3000089580E0089581E0089522E1929F800D48
:101F40001124682F669566956695982F977085E0A1
:101F5000689FB001112440E050E080E0FB01E40FF5
:101F6000F51FE550FE4F208130E0092E02C0369566
:101F700027950A94E2F721703327042E01C0220F1F
:101F80000A94EAF7822B4F5F5F4F4530510531F7D6
:101F9000089522E1929F800D1124E82FE695E695A1
:101FA000E695877051E001C0550F8A95EAF785E004
:101FB000E89FF0011124E550FE4F20E030E070E092
:101FC0004081CB01022E02C0969587950A94E2F7D4
:101FD0008170819584278523842781932F5F3F4FCC
:101FE0002530310569F708956093610270936202AC
:101FF00080936302909364020C94FF0E0F931F93DF
:1020000041E050E060E070E004C0440F551F661FDF
:10201000771F8A95D2F7409550956095709580917D
:10202000610290916202A0916302B09164028A0100
:102030009B01082319232A233B23C901B8011F91BF
:102040000F910C94F40F209141028095822380938C
:102050004102982F977041F430E0482F082E000C71
:10206000550B2417350721F49091690192FF07C0A1
:102070008595859585950E94FE0F109241020895E1
:102080000F931F9341E050E060E070E004C0440F04
:10209000551F661F771F8A95D2F780916102909134
:1020A0006202A0916302B09164028A019B01082B35
:1020B000192B2A2B3B2BC901B8011F910F910C94AE
:1020C000F40F609346027093470280934802909306
:1020D00049020C94FF0E8091FA019091C901891771
:1020E00019F08F5F8770FBCF08950F931F93CF93E5
:1020F000DF938091C80182958F7009F05DC0809157
:10210000C501882309F458C08091FA011091C901D2
:102110006091C3017091C401C091C601D091C70103
:1021200091E06F3F09F090E0292F06E0811709F454
:1021300043C0209721F07F3F21F030E003C031E021
:1021400001C0322F90E030FD34C0089FF001099F9C
:10215000F00D1124DF01A653BE4F11963C9111974B
:10216000371327C03C91361324C012963C91129726
:1021700031111FC013964D915C9114974C1B5D0B50
:10218000483C5105B0F48091C8018F708061809304
:10219000C801E153FE4F80818F708061808383ECA2
:1021A00091E00E940703DF91CF911F910F910C9452
:1021B0006B1001968770BACFDF91CF911F910F916D
:1021C00008959F92AF92BF92CF92DF92EF92FF92CB
:1021D0000F931F93CF93DF93CDB7DEB761970FB601
:1021E000F894DEBF0FBECDBF8C0185E0F801DE01A3
:1021F0001D9601900D928A95E1F7F80190818181F9
:10220000E2803091C3016091C4014091C6015091B8
:10221000C7014115510531F06F3F31F421E03F3FD7
:1022200019F403C021E001C020E0F22FF1709F2ECD
:1022300020FD23C1F801C380D48023ECA22E21E02D
:10224000B22EF090C501F601E41BF50BFF2009F456
:10225000CEC02091C801E83CF10508F099C0422F9A
:10226000407F09F051C0681311C039130FC0FE2C14
:10227000E1100CC02F7020612093C801C5010E949D
:1022800007038091C801F801858337C1CD2831F05B
:102290008F3F31F421E09F3F19F403C021E001C0DA
:1022A00020E020FD03C021E02E2502C020E030E028
:1022B000F22FF170FF2E20FF1DC02091FA014091F6
:1022C000C90156E0241709F4F6C030E0529FF0012E
:1022D000539FF00D1124E653FE4F6181861306C013
:1022E0006081961303C06281E61204C02F5F3F4FE6
:1022F0002770E8CFFE2CEE2009F4FFC08091C801C2
:1023000081608093C80150C0681307C0391305C0AD
:10231000E11003C0F80125838DC09D878E878D85D0
:102320009E850E94740F882369F1EE2059F1209157
:10233000C801822F82958F7090E0029774F080918F
:10234000C3019091C40198878F831986DB86CA8662
:102350002C87CE0107960E94070386E0F801A3ECC4
:10236000B1E001900D928A95E1F70E9475100DC0C1
:102370006817E1F09D878E878D859E850E94740F7A
:1023800081111EC0C8010E940703FF24F394B5C049
:10239000422F407F69F783EC91E00E94070386E0BB
:1023A000F50111928A95E9F7F12CA7C03913E2CF14
:1023B000E110E0CFF8012583C8010E94070357C050
:1023C000EE2001F32091C801822F82958F7090E05A
:1023D00002971CF28091C3019091C4019A83898372
:1023E0001B82DD82CC822E83CE010196B4CFE83CE5
:1023F000F105E8F5FE2CEE2029F2681327C0391309
:1024000025C02091C80120FD18C0822F82958F70B1
:10241000482F50E04115510581F0F80125834F30D8
:10242000510541F08F5F982F9295907F822F8F708A
:10243000892B8583C8010E94070386E0F801A3EC7D
:10244000B1E001900D928A95E1F757C09D878E8784
:102450008D859E850E94740F81117FCF8091C80168
:1024600081608093C801C8010E94070346C086E0CE
:10247000F50111928A95E9F740C0EE2009F482CF68
:102480009D878E878D859E850E94740FF82E8823E8
:1024900009F478CF86E0F801A3ECB1E001900D9249
:1024A0008A95E1F78091C3019091C4010E94690F60
:1024B0000E94751022C09D878E878D859E850E9403
:1024C000690F292F22952F70223028F49F7039F040
:1024D000811105C00BC0243028F49F7049F4805E40
:1024E000883020F0C8010E9407039F2CF92C05C0FA
:1024F000F8019581907F99F7F9CF8F2D61960FB6EE
:10250000F894DEBF0FBECDBFDF91CF911F910F9129
:10251000FF90EF90DF90CF90BF90AF909F90089585
:102520001092440286E0EDEBF1E0DF011D928A9506
:10253000E9F70C94FF0E0F931F9380916102909125
:102540006202A0916302B09164028C019D01067049
:10255000112722273327BC01CD01063011052105A3
:10256000310511F4686001C0677F1F910F910C94D1
:10257000F40F1F93CF93DF93CDB7DEB7AA970FB6B3
:10258000F894DEBF0FBECDBFE9E5F2E08091F10027
:10259000819342E0E136F407C9F780915A02833013
:1025A00009F462C030F4813071F0823009F49CC0CB
:1025B000B3C08A3009F488C08B3009F46DC089300B
:1025C00009F0AAC020C080915902813A09F0A4C044
:1025D0008091E800877F8093E80080915D02909170
:1025E0005E02892B21F468E08DE492E003C060E094
:1025F00080E090E070E00E948F098091E8008B7786
:102600008093E80089C080915902813209F084C02A
:1026100080915D0290915E02009719F0029709F097
:102620007BC08091E800877F8093E8008091E8007C
:1026300082FD05C0809157028111F8CF6DC02091B5
:10264000F3008091F20090E0922B029729F48091A0
:10265000F1008B7F813021F48091F10080934C0256
:102660008091E8008B7754C080915902813A09F03B
:1026700053C080915D0290915E02892B09F04CC09D
:102680008091E800877F8093E8008091E80080FFD8
:10269000FCCF80910A0137C0809159028132E1F567
:1026A00080915D0290915E02892BB1F58091E800E6
:1026B000877F8093E8000E943B0980915B028093B2
:1026C0000A010E94901228C080915902813221F59E
:1026D0008091E800877F8093E8000E943B09809109
:1026E0005C0280934B0218C080915902813AA1F498
:1026F0008091E800877F8093E8008091E80080FF68
:10270000FCCF80914B028093F1008091E8008E779E
:102710008093E8000E943B098091E80083FFDDC1BF
:102720008091590290915A02492F50E04A30510548
:1027300008F0D3C1FA01ED57FF4F0C940D1D8038FE
:1027400021F0823809F0C9C108C0809155029091EA
:102750005602992389F082600FC080915D028F70CC
:10276000873008F0BAC18093E9008091EB0085FBC7
:10277000882780F91092E9009091E800977F909364
:10278000E8008093F1001092F10070C1282F2D7F96
:1027900009F0A3C1882319F0823061F09EC18091B5
:1027A0005B02813009F099C1933009F080E0809399
:1027B00056022EC080915B0281112AC080915D0279
:1027C0008F702FEF280F263008F087C18093E90023
:1027D0002091EB0020FF1CC0933021F48091EB008E
:1027E000806214C09091EB0090619093EB0021E027
:1027F00030E0A90102C0440F551F8A95E2F74093CB
:10280000EA001092EA008091EB0088608093EB0070
:102810001092E9008091E800877F8093E8000E9491
:102820003B095BC1811159C110915B021F778091F7
:10283000E3008078812B8093E3008091E800877F1C
:102840008093E8000E943B098091E80080FFFCCF64
:102850008091E30080688093E300111102C082E060
:1028600001C083E08093570238C18058823008F05D
:1028700034C120915B0230915C022C3D53E035075E
:1028800079F583E08A838AE289834FB7F894DE0181
:10289000139620E03EE051E2E32FF0E05093570022
:1028A000E49120FF03C0E295EF703F5FEF708E2F41
:1028B00090E0EA3010F0C79601C0C0968D939D93CA
:1028C0002F5F243149F74FBF8091E800877F8093C5
:1028D000E8006AE270E0CE0101960E948F09B4C060
:1028E00080915D0290915E02432F55274330510540
:1028F000A9F068F44130510509F4FEC04230510599
:1029000009F0EBC08BE590E0EEE5F2E04BC0413220
:10291000510529F14232510589F1DFC0C9019927DA
:1029200081309105A1F058F0029709F0D6C0EBEC88
:10293000F2E0E4918E2F90E0EBECF2E030C0EFEEAD
:10294000F2E0E4918E2F90E0EFEEF2E028C0E5EDAA
:10295000F2E0E4918E2F90E0E5EDF2E020C08330CC
:10296000910508F0BAC0880F991FFC01E45DFE4F85
:102970000190F081E02D89E090E014C08330910552
:1029800008F0ABC0FC01EE0FFF1FEA5DFE4F0190A7
:10299000F081E02DDC01AD5DBE4F8C9190E00097A1
:1029A00009F49BC02091E800277F2093E800209144
:1029B0005F02309160022817390708F4C90140E02E
:1029C000009789F120915702222309F43DC0253058
:1029D000D9F12091E80023FD37C02091E80022FDC5
:1029E0002FC02091E80020FFEBCF4091F300209111
:1029F000F20030E0342B009759F02830310540F4D4
:102A000044914093F100319601972F5F3F4FF3CFF0
:102A100041E02830310509F040E02091E8002E77B0
:102A20002093E800CDCF4111CDCF0AC0809157024D
:102A3000882351F0853041F08091E80083FD04C087
:102A40008091E80082FFF2CF8091E8008B7780933D
:102A5000E80043C0803809F040C08091E800877FDB
:102A60008093E800809158028093F1008091E80003
:102A70008E77D3CE811131C080915B0290915C0240
:102A80009927029754F58091E800877F8093E800AA
:102A900010915B02109358020E943B09111106C06D
:102AA0008091E30087FD02C081E001C084E0809353
:102AB000570242E061EC81E00E945A0942E261EC77
:102AC00084E00E945A0942E261EC82E00E945A09C5
:102AD00042E260EC83E00E945A098091E80083FFA3
:102AE00010C08091E800877F8093E8008091EB0020
:102AF00080628093EB0005C082E190E0E9EBF2E0B8
:102B000051CFAA960FB6F894DEBF0FBECDBFDF91AE
:102B1000CF911F9108951F920F920FB60F9211241B
:102B20002F933F934F935F936F937F938F939F93D5
:102B3000AF93BF93CF93DF93EF93FF93C091E900DF
:102B4000CF708091EC00D82FD17080FDD0E810922A
:102B5000E9008091F000877F8093F00078940E94D4
:102B6000B9121092E9008091F00088608093F00023
:102B7000CD2BCF70C093E900FF91EF91DF91CF9102
:102B8000BF91AF919F918F917F916F915F914F9185
:102B90003F912F910F900FBE0F901F901895E8ED69
:102BA000F0E080818E7F80831092E2001092DA0044
:102BB0001092E100A0EEB0E08C9181608C93808156
:102BC0008F77808319BCA7EDB0E08C918E7F8C93BA
:102BD00080818F7E808310924A020895CF92DF9287
:102BE000EF92FF920F931F93CF93DF93C8EDD0E046
:102BF00088818F7E8883E7EDF0E08081816080832B
:102C000084E082BF81E080934A0288818E7F88833E
:102C100002EE10E0F80110821092DA0081EEC82E68
:102C2000D12CF601108288818F7788838881806813
:102C3000888388818F7D888319BC109257021092F7
:102C40005802109256021092550290EEE92EF12C85
:102C5000F70180818B7F808388818160888342E057
:102C600060E080E00E945A09F60180818E7F8083B7
:102C7000F801808181608083808188608083F70192
:102C800080818E7F8083888180618883DF91CF916E
:102C90001F910F91FF90EF90DF90CF9008951F92BA
:102CA0000F920FB60F9211242F933F934F935F9380
:102CB0006F937F938F939F93AF93BF93EF93FF9304
:102CC0008091E10082FF09C08091E20082FF05C08F
:102CD0008091E1008B7F8093E1008091DA0080FF9A
:102CE0002AC08091D80080FF26C08091DA008E7FB4
:102CF0008093DA008091D90080FF18C080E189BDFF
:102D000082E189BD09B400FEFDCF81E080935702C6
:102D100080914A0281110FC00E94CF150E94EE15CA
:102D20008091E20084608093E20005C019BC10929B
:102D3000570210924A028091E10080FF17C08091F3
:102D4000E20080FF13C08091E2008E7F8093E2005A
:102D50008091E20080618093E2008091D8008062DF
:102D60008093D80019BC85E0809357028091E100E0
:102D700084FF2EC08091E20084FF2AC080E189BDDB
:102D800082E189BD09B400FEFDCF8091D8008F7D1E
:102D90008093D8008091E1008F7E8093E100809144
:102DA000E2008F7E8093E2008091E2008160809358
:102DB000E20080915802882311F084E007C08091DE
:102DC000E30087FD02C081E001C083E080935702E9
:102DD0008091E10083FF27C08091E20083FF23C040
:102DE0008091E100877F8093E10082E08093570229
:102DF000109258028091E1008E7F8093E1008091D3
:102E0000E2008E7F8093E2008091E20080618093F7
:102E1000E20042E060E080E00E945A098091F00008
:102E200088608093F000FF91EF91BF91AF919F91E7
:102E30008F917F916F915F914F913F912F910F9063
:102E40000FBE0F901F9018952091E4003091E5007F
:102E500095E64091EC00842F817040FF23C0809163
:102E6000E80080FD1DC080915702882399F08530CD
:102E700099F08091EB0085FD11C04091E4005091E4
:102E8000E5002417350729F3915011F09A01E1CF9D
:102E900084E0089582E0089583E0089581E0089534
:102EA00080E008954091E80042FFDDCF0895EF9261
:102EB000FF920F931F93CF93DF937C018B010E94AE
:102EC0002417811119C0E70101151105A1F08091A6
:102ED000E80085FD0AC08091E8008E778093E800C5
:102EE0000E942417882381F307C089918093F10001
:102EF00001501109E9CF80E0DF91CF911F910F912F
:102F0000FF90EF9008959091680192FF0DC0282FD7
:102F10002871283019F4877F846006C0282F247117
:102F2000243011F48B7F886093FF0DC0282F287107
:102F3000283119F4877E846106C0282F247124313A
:102F400011F48B7E88612091690120FF0DC0382F1C
:102F50003871383019F4877F816006C0382F31719D
:102F6000313011F48E7F886021FF0DC0282F287129
:102F7000283119F4877E816106C0282F2171213103
:102F800011F48E7E886194FD877E08951F93CF9300
:102F9000DF93CDB7DEB767970FB6F894DEBF0FBEED
:102FA000CDBF342F4B8B252F5C8B6D8B7E8B8F8B06
:102FB0004E895F8961111092430286E0FE013D96C1
:102FC000DF01982F1D929A95E9F73D872E876F872D
:102FD000598B488BDE01179601900D928A95E1F787
:102FE000CE0107960E94E11081113EC086E0FE01ED
:102FF0003796DE01119601900D928A95E1F7FF81D7
:10300000E8856A857B856115710531F0EF3F31F404
:1030100081E0FF3F19F403C081E001C080E080FD42
:1030200023C02091C90130E0C9010196877099271A
:103030004091FA0150E08417950779F1F983EA830A
:103040007D836C8396E0929FD001939FB00D1124F5
:10305000A653BE4FFE01319601900D929A95E1F76D
:103060008093C9010E946B1016E08091FA01909143
:10307000C9018917F9F0189FC001112486539E4F8A
:103080000E94E1108823B1F08091FA0190E001964E
:10309000877099278093FA01E8CF0E9490121092CE
:1030A000C9011092FA01E3ECF1E086E0DF011D9224
:1030B0008A95E9F767960FB6F894DEBF0FBECDBFCD
:1030C000DF91CF911F91089520916C0230916D0294
:1030D0002817390771F090936D0280936C02E0918C
:1030E0008201F0918301309721F00084F185E02D79
:1030F0000994089520916A0230916B0228173907CC
:1031000071F090936B0280936A02E0918201F091DA
:103110008301309721F00680F781E02D099408950E
:10312000E0918201F0918301309721F00190F081CC
:10313000E02D099480E008950F931F93CF93DF93C0
:10314000C42F122FFC0182818823C9F040936601AD
:103150000E94010E909369028093680280E28C0FB6
:10316000883008F063C0C77081E001C0880FCA953D
:10317000EAF7DF91CF911F910F910C94121C80916F
:10318000660148133CC020916802309169024FB734
:10319000F8948091B7019091B801A091B901B091D4
:1031A000BA014FBF821B930B883C910540F5D0E2DA
:1031B000D10FC117B9F080E28C0F883040F4C7708E
:1031C00081E001C0880FCA95EAF70E94071CD83039
:1031D00030F581E0912F977001C0880F9A95EAF73A
:1031E0000E94121C802F0E94AD1CD830F8F4212FB1
:1031F000277081E001C0880F2A95EAF70AC080E2B3
:103200008C0F883098F4C77081E001C0880FCA9590
:10321000EAF7DF91CF911F910F910C94071C802F3B
:10322000DF91CF911F910F910C94AD1CDF91CF9145
:103230001F910F910895CF93DF93C7E8D3E060E02B
:10324000CE010E94D91C2196C11584E0D807B9F798
:10325000DF91CF910895CF92DF92EF92FF920F937B
:103260001F93CF93DF93C0E0D0E08E0108521F4F31
:103270006E0184E2C80ED11CFE01ED50FD4FE590B9
:10328000F4906F2DCE0187960E94D91C6E2DCE0131
:1032900088960E94D91C2296CC15DD0569F70C177B
:1032A0001D0731F7E80100361340F9F6DF91CF91A1
:1032B0001F910F91FF90EF90DF90CF9008950F93A3
:1032C0001F93CF93DF93C42FD0E0CC0FDD1F24E2F8
:1032D000629FC00DD11D112438ED839FC00DD11DFB
:1032E0001124CE0187960E94CB1C082F10E0102FCE
:1032F0000027CE0188960E94CB1C9801282BC9017B
:10330000DF91CF911F910F910895462F843038F4AB
:10331000763028F4623118F4672F0C945F1980E03E
:1033200090E00895F894E82FE295EF70F0E031A175
:10333000282F2F7081E090E001C0880F2A95EAF7CE
:10334000982F9095932391A392A1892B82A378948F
:1033500008952F923F924F925F926F927F928F9239
:103360009F92AF92BF92DF92EF92FF920F931F93C3
:10337000CF93DF9300D000D0CDB7DEB70BE011E0E4
:103380004AE6E42E41E0F42E52E8252E51E0352E97
:10339000FC82EB82D12C1A830983F8018081F89496
:1033A000E82FE295EF70F0E021A18F7088248394DC
:1033B000912C02C0880C991C8A95E2F7C401922FC7
:1033C000982B91A392A18095892382A3789400C021
:1033D000A1E1B1E080E090E0412C512C32014D910F
:1033E000E42FE295EF70F0E020A130E04F7002C0D2
:1033F000359527954A95E2F720FD0FC0812C912C39
:1034000054018394082E04C0880C991CAA1CBB1C70
:103410000A94D2F7B501A40103C040E050E0BA011C
:10342000442A552A662A772A019682319105B9F6EF
:103430000F5F1F4FE981FA8180810E949219F0EAA3
:10344000FA95F1F7EB81FC8180819181A281B381B2
:10345000481659066A067B0631F040825182628224
:10346000738281E001C080E0D82A4B815C814C5F8F
:103470005F4F5C834B832416350609F08CCFDD202B
:1034800049F081E0809367020E94010E90936602EA
:103490008093650280916702882331F12091650253
:1034A000309166024FB7F8948091B7019091B801BE
:1034B000A091B901B091BA014FBF821B930B06973F
:1034C00098F02FE931E0F70181919191A191B191AB
:1034D0007F01F90181939193A193B1939F012E14E0
:1034E0003F0489F7109267028D2D0F900F900F9077
:1034F0000F90DF91CF911F910F91FF90EF90DF9090
:10350000BF90AF909F908F907F906F905F904F9003
:103510003F902F900895CF93DF930E948519EC017F
:103520008238910559F1A0F48133910509F473C0F3
:1035300040F48932910509F467C08A9709F472C092
:1035400084C08533910509F458C0C997B9F07DC08E
:10355000833E910571F138F4803E9105B1F0823ED1
:10356000910511F172C0863E9105B9F1873E910532
:10357000C9F1843E910509F068C024C080916801BA
:1035800080FD5DC081FD5BC060C08091680180FDF1
:1035900050C08091690180FF36C18091680184FD2F
:1035A00030C1C3EED0E02FC18091680182FF2BC1F2
:1035B000F4CF8091680182FD3FC08091690180FD58
:1035C0003EC0EBCF8091690181FF1DC180916801F0
:1035D00084FD17C1C7EED0E016C18091680183FF5A
:1035E00012C1F4CF8091680183FD2CC080916901E4
:1035F00081FFECCFC4EED0E006C18091680185FF69
:1036000002C1C9E2D0E0FFC08091680185FFFBC024
:10361000C5E3D0E0F8C08091680186FFF4C0CAE23B
:10362000D0E0F1C08091680186FFEDC0C1E3D0E039
:10363000EAC0C9E3D0E0E7C0C2EED0E0E4C0C0EE2B
:10364000D0E0E1C0C6EED0E0DEC0C11582E5D8070B
:1036500008F066C0C11591E5D90728F0DC2FCC270A
:10366000C16FD06AD0C0C83ED10560F5C03ED1055B
:1036700008F0C9C0C83AD105B0F4C53AD10540F048
:10368000C55AD0E0CE5CDE4FC881D0E0D064BBC06C
:10369000C130D10509F4B7C008F4B3C0C430D105B6
:1036A00008F4AFC0B0C0CF3BD10508F0AAC0C85ADB
:1036B000D0E0CC0FDD1FCB5CDE4F0990D881C02D50
:1036C000D464A1C0C11520E5D207E0F0CE0174E0BA
:1036D000969587957A95E1F783709C2F937021E0FA
:1036E00030E002C0220F331F9A95E2F73C68382B76
:1036F000CF70C695C69580E2C89FE0011124C22B09
:10370000D32B81C0C11580E4D80718F0DF70D06AD0
:103710007AC0CE019A9581159F4108F474C071C09A
:10372000C11586E5D807F0F5C11595E5D90750F024
:103730008C2F0E9483178F71C82FD0E0DC2FCC27ED
:10374000D06261C0C11524E5D20728F0DC2FCC2758
:10375000C46FD06A58C09E01237033278C2F869582
:103760008695C115D34578F4C1E0D0E002C0CC0FF6
:10377000DD1F2A95E2F720E2829FC0011124C82BA9
:10378000D92BDC6840C0C1E0D0E002C0CC0FDD1F07
:103790002A95E2F720E2829FC0011124C82BD92B81
:1037A000DA6831C0C1152AE5D207E8F4C11589E508
:1037B000D80780F08C2F8F700E94831794E0D695E5
:1037C000C7959A95E1F7CF70D0E0DC2FCC27D06970
:1037D000C82B19C0C11598E5D90798F0DC2FCC2764
:1037E000C06FD06A10C0CE0190568115904248F447
:1037F0008D2F8F710E948317DD27D0628F71D82B98
:1038000002C0C0E0D0E0CE01DF91CF9108958823BF
:1038100041F08095909144028923809344020C9456
:10382000D20E0895882339F090914402892B809319
:1038300044020C94D20E08958823A9F19CEF980FAE
:10384000913A60F4EBEBF1E09281891301C01282AE
:10385000319641E0E13CF407B9F714C090E2980FCB
:10386000983090F4877021E030E0A90102C0440F45
:10387000551F8A95E2F7CA018095909144028923E9
:10388000809344020C94D20E9BE5980F933020F461
:1038900080E090E00C947A18885A873120F480E018
:1038A00090E00C9464180895CF93882309F453C0D2
:1038B0009CEF980F913AF8F4C82FEDEBF1E083EC10
:1038C00091E02191C21721F08E179F07D1F70DC00B
:1038D000EBEBF1E08281C81301C01282319641E026
:1038E000E13CF407B9F70E94D20E6C2F8BEB91E00C
:1038F0000E94360E13C090E2980F983090F48770B3
:1039000021E030E0A90102C0440F551F8A95E2F77B
:10391000CA0190914402892B80934402CF910C9468
:10392000D20EEBE5E80FE33040F4F0E0EE5CFE4F42
:10393000808190E0CF910C947A18885A873158F49E
:10394000E82FF0E0EE0FFF1FEB5CFE4F80819181CE
:10395000CF910C946418CF9108951F93CF93DF9368
:10396000182F893319F0C0E0D0E002C0C0E5D0E0E4
:10397000812F0E94541C209741F08FE99FE001970E
:10398000F1F700C000002197F6CF812FDF91CF9192
:103990001F910C941C1CF999FECF92BD81BDF89A21
:1039A000992780B50895A8E1B0E042E050E00C947A
:1039B000FF1C262FF999FECF92BD81BDF89A019781
:1039C00000B4021639F01FBA20BD0FB6F894FA9A67
:1039D000F99A0FBE08950396272F0E94DA1C0E94C1
:1039E000D91C252F0E94DA1C242F0C94DA1C019676
:1039F000272F0E94DA1C0C94D91CDC01CB01FC019E
:103A0000F999FECF06C0F2BDE1BDF89A319600B437
:103A10000D9241505040B8F70895EE0FFF1F0590EA
:103A2000F491E02D0994692796276927782787273D
:083A300078270895F894FFCFF8
:103A3800540D590D530D3709330901C694333130EC
:103A480037F0F1F4F5F6F7676636353497969593BF
:103A58009291904022321E02FC01CA017002890232
:103A6800A902818283E200E900EA00B500B600B746
:103A780000CD008301CC008A019201940121022328
:103A88000224022502260227022A02B300B4006F8C
:043A980000700000BA
:00000001FF
