:100000000C946E030C94B5030C94B5030C94B503D7
:100010000C94B5030C94B5030C94B5030C94B50380
:100020000C94B5030C94B5030C94E2240C941E2498
:100030000C94BF170C94B5030C94B5030C94B50342
:100040000C94B5030C94B5030C94B5030C94B50350
:100050000C94B5030C947E170C94B5030C94B50363
:100060000C94B5030C94B5030C94B5030C94B50330
:100070000C94B5030C94B5030C94B5030C94B50320
:100080000C94B5030C94B5030C94B5030C94B50310
:100090000C94B5030C94B5030C94B5030C94B50300
:1000A0000C94B5030C94B5030C94B503B207B507D3
:1000B000E507F207F90719081C085E087F082109FF
:1000C00021098A088C089108B608D808DB08DE08E0
:1000D0000109150E150E4F0E4F0EA80EC40E5A1024
:1000E0005A10CF0EAD0FBE0FBE0F471947195A1940
:1000F0005A1950195A195A195A194719471955199D
:100100005A195A1955193222592200245922002409
:10011000A522C8220024BD23CD231E0F0500047F85
:100120003F1F643214643214783C1E1E140A05000A
:1001300000000000000000000000000000000000BF
:1001400000000000000000000000000000000000AF
:100150000000007E0F00D4FFFFFFC7000000780002
:10016000000000000000002A2B2800000000000012
:100170000000000000000000000029000000002C2A
:100180001E3420212224342627252E362D373827C9
:100190001E1F202122232425263333362E37381FD5
:1001A0000405060708090A0B0C0D0E0F1011121397
:1001B0001415161718191A1B1C1D2F3130232D3535
:1001C0000405060708090A0B0C0D0E0F1011121377
:1001D0001415161718191A1B1C1D2F3130354C0019
:1001E00001010101010101010102020202020202F8
:1001F00002020303030303030303040404040404CB
:100200000405050505050606060606070707070790
:1002100008080808090909090A0A0A0B0B0B0C0C43
:100220000C0D0D0D0E0E0E0F0F0F101011111112DF
:100230001213131414151516161717181819191A5E
:100240001A1B1B1C1D1D1E1E1F20202122222324C1
:1002500024252626272829292A2B2C2D2D2E2F3000
:10026000313232333435363738393A3B3C3D3E3F14
:10027000404142434445464748494A4C4D4E4F5001
:10028000515354555658595A5B5D5E5F61626465BF
:100290006668696B6C6D6F7072737577787A7B7D49
:1002A0007E8082838587888A8C8E8F91939596989D
:1002B0009A9C9EA0A2A3A5A7A9ABADAFB1B3B5B7B9
:1002C000BABCBEC0C2C4C6C9CBCDCFD1D4D6D8DB90
:1002D000DDDFE2E4E7E9EBEEF0F3F5F8FAFDFFFF2E
:1002E000AA7F55402223252628292A2C2D2F30325B
:1002F000333536383A3B3D3E4042434547494A4C08
:100300004E5051535557595A5C5E60626466686935
:100310006B6D6F71737577797B7D7F81838587893D
:100320008A8C8E90929496989A9C9E9FA1A3A5A742
:10033000A8AAACAEAFB1B3B4B6B8B9BBBCBEBFC16E
:10034000C2C3C5C6C7C9CACBCCCDCED0D1D2D2D3F9
:10035000D4D5D6D7D7D8D9D9DADADBDBDBDCDCDC0D
:10036000DCDCDDDDDDDDDCDCDCDCDCDBDBDBDADAD0
:10037000D9D9D8D7D7D6D5D4D3D2D2D1D0CECDCC47
:10038000CBCAC9C7C6C5C3C2C1BFBEBCBBB9B8B65C
:10039000B4B3B1AFAEACAAA8A7A5A3A19F9E9C9AE7
:1003A00098969492908E8C8A89878583817F7D7BB5
:1003B00079777573716F6D6B6968666462605E5C96
:1003C0005A5957555351504E4C4A4947454342405C
:1003D0003E3D3B3A3836353332302F2D2C2A2928F2
:1003E00026252322165C14001A00080015001700A9
:1003F0001C0018000C00120013002A002B0004003F
:100400001600070009000A000B000D000E000F0087
:1004100033002800E1001D001B0006001900050044
:10042000050011001000360037005200E000E20025
:100430000000E3002C0000002C000151500051008E
:100440004F000251005C1E001F002000210022000E
:1004500023002400250026002700000049003A0060
:100460003B003C003D003E003F002D002E002F00D1
:1004700030003100000040004100420043004400D1
:10048000450000000000000000000000AA00A800D5
:100490000000A900010000000100000000000000B1
:1004A00000000000005C00000000000000000000F0
:1004B000000000000000000000000000000000003C
:1004C000000000000000000000000000000000002C
:1004D000000000000000000000000000000000001C
:1004E000000000000000000000000000000000000C
:1004F00000000000000000000000000000000000FC
:1005000000000000000000000000000000000000EB
:1005100000000000000000000000000000000000DB
:1005200000000000000000000000000000000000CB
:1005300000000000000000000000000000000000BB
:1005400000000000000000000000000000000000AB
:10055000000000000000000000000000000000009B
:100560000000000005010902A10185020901A100A6
:100570000509190129081500250195087501810251
:100580000501093009311581257F9502750881061D
:1005900009381581257F950175088106050C0A38F3
:1005A000021581257F950175088106C0C0050109E6
:1005B00080A101850319012AB700150126B700950E
:1005C0000175108100C0050C0901A1018504190104
:1005D0002AA002150126A002950175108100C0060F
:1005E00060FF0961A1010962150026FF00952075D1
:1005F0000881020963150026FF0095207508910205
:10060000C005010906A101050719E029E715002524
:100610000195087501810295017508810105071989
:100620000029FF150026FF009506750881000508C2
:10063000190129059505750191029501750391012F
:10064000C009025B00030100A0FA090400000103D5
:100650000101000921110100012240000705810369
:1006600008000A0904010002030000000921110129
:100670000001222200070582032000010705030371
:1006800020000109040200010300000009211101FA
:100690000001227B000705840320000A12011001DB
:1006A00000000008444C41000100010200010A035F
:1006B00042006F006C00740000001C034C004100FD
:1006C0005A005900440045005300490047004E00BD
:1006D00045005200530000000403090411241FBE0A
:1006E000CFEFDAE0DEBFCDBF04B603FE27C08091B6
:1006F000D2029091D302A091D402B091D50287305A
:10070000904BA740B04BD1F41092D2021092D3027A
:100710001092D4021092D50214BE84B7877F84BF92
:100720000FB6F894A895809160008861809360006E
:10073000109260000FBEE0E0F8E3099511E0A0E040
:10074000B1E0EAE1F2E502C005900D92A839B107E7
:10075000D9F722E0A8E9B1E001C01D92A23DB2079D
:10076000E1F70E94B7030C940B290C940000CF937F
:10077000DF93CDB7DEB7AA970FB6F894DEBF0FBEF2
:10078000CDBF84B7877F84BF0FB6F894A8958091BA
:100790006000886180936000109260000FBE90E05E
:1007A00080E80FB6F89480936100909361000FBECB
:1007B00085B7806885BF85B7806885BF83ED96E182
:1007C00090939901809398010E9462240E94812451
:1007D0008091E20084608093E20078948091C4026A
:1007E0008823A1F01091E9001F709091EC00892FEF
:1007F000817090FD80E8182B1092E9008091E8004C
:1008000083FD0E944C211F701093E90082E084BD9B
:1008100093E095BD9AEF97BD80936E0080EF0E94A4
:10082000721487E60E94721486E30E94721485E9AE
:100830000E94721401E211E0ADE2EA2EA1E0FA2E6C
:10084000F80181918F010E947214E016F106C1F740
:1008500010929D0110929C011092CE011092CD0138
:1008600010929F0110929E011092D0011092CF0120
:100870001092A1011092A0011092D2011092D10108
:100880001092A3011092A2011092D4011092D301F0
:1008900080E090E00E9403288A3E9E4F11F00E9463
:1008A000131882E090E00E94F5278093BD010E941A
:1008B000021890939B0180939A010E9489142FEF54
:1008C00036E741E0215030404040E1F700C00000F1
:1008D0000E9489148091CD0180FF17C06FEF83E2E1
:1008E00090E00E9409286FEF84E290E00E940928BE
:1008F0006FEF85E290E00E9409286FEF7FEF80E0C4
:1009000090E00E9427280E945A1783E090E00E94FE
:10091000F527682F70E080E090E00E94221A83E2C1
:1009200090E00E94F527813281F484E290E00E94F9
:10093000F527873051F485E290E00E94F52791E099
:10094000883209F090E0892F01C080E080FFC2C4A6
:100950008091A401811136C080E090E00E940328BC
:100960008A3E9E4F21F00E9413180E944A1188E08F
:1009700090E00E94FD276093C8017093C9018093A5
:10098000CA019093CB016E7F71F40E944A1188E0F6
:1009900090E00E94FD276093C8017093C901809385
:1009A000CA019093CB010E9403111092C70180915C
:1009B000C80180FF04C060E086950E94E61281E0D5
:1009C0008093A40184E091E09093A6018093A50117
:1009D00078E1672E712CE0E45E2EF5EDCF2EF1E08C
:1009E000DF2E8E010F5F1F4F8091C402853009F00A
:1009F00074C0BB24B39450E1E52E62E1F62E8091E1
:100A0000C402853009F054C08091C402843009F4D6
:100A10003DC01092C7018091A901811116C0B0920A
:100A2000A9018091C801982F91709093A8018E7FA1
:100A30008093C801FFEF20E732E0F15020403040C2
:100A4000E1F700C000000E94AF1E1092A7010FB690
:100A5000F894A895609260000FBE5092600083B732
:100A6000817F846083BF83B7816083BF78948895DA
:100A700083B78E7F83BF0FB6F894A89580916000EE
:100A8000886180936000109260000FBE8091C30265
:100A9000882309F4B4CF0E948914EDECF1E0819130
:100AA0009191892B09F0F7C3CE16DF06C1F7A7CFC6
:100AB0000E94511C0E948B1D1092A9018091A801D7
:100AC000882349F08091C80181608093C80160E06B
:100AD00086950E94E6120E94991E0E94891488231E
:100AE00059F08FB7F8944091D5015091D60160919B
:100AF000D7017091D8018FBFEDECF1E0AEEBB1E022
:100B0000E12CF12C7E2D219131918D919D918227A7
:100B10009327009779F160E0AA24A394B12CAC014B
:100B20004A215B21452B09F169A37AA32A213B21A4
:100B300081E0232B09F480E08BA30E94B31781602E
:100B4000782F9DA38CA349A15AA16BA18DA10E94CE
:100B5000C11CF701EE0FFF1FE254FE4F808191810F
:100B6000A826B926B182A0821CC06F5FAA0CBB1C4C
:100B70006C30A9F64FEFE41AF40A84E0E816F104A9
:100B800009F68FEF8EA38FA318A60E94B31781607A
:100B9000782F9AA789A74EA15FA168A58AA50E9470
:100BA000C11C8091C701882309F4AAC08091C601A5
:100BB000E091C801E695E81BE093AC01823059F45E
:100BC000F0E0E55DFE4FE491EE2EF12C9DEAA92EBA
:100BD0009CE1B92E70C0863059F4F0E0E85DFE4F1C
:100BE000E491EE2EF12C8DE9A82E8CE1B82E63C095
:100BF000893061F4E695F0E0EB5DFE4FE491EE2E76
:100C0000F12CB4E0AB2EB1E2BB2E55C08F3061F4B5
:100C1000E695F0E0EE5DFE4FE491EE2EF12CA7E9B3
:100C2000AA2EA0E2BA2E47C0853159F4F0E0E15E69
:100C3000FE4FE491EE2EF12CF9E4AF2EF0E2BF2E40
:100C40003AC08831F9F0833249F4EDE1F1E0E59002
:100C5000F490EDE5AE2EECE1BE2E2DC08432D1F045
:100C6000853209F58E2F63E00E94A028E92FF0E07D
:100C7000E65EFE4FE491EE2EF12C75EEA72E7EE19E
:100C8000B72E19C058E2E52EF12C60ECA62E6FE1CC
:100C9000B62E11C034EFE32EFF24F39446E8A42EC1
:100CA0004FE1B42E08C090EDE92E97E0F92E2CE527
:100CB000A22E2CE1B22E8091AD01882361F010921A
:100CC000AD010E94B3179093AB018093AA011092DB
:100CD000AF011092AE010E94B317E091AA01F0910A
:100CE000AB018E1B9F0B8F3F9F4750F4EE0EFF1EF4
:100CF000F092AB01E092AA018AEA91E0F501099530
:100D000086E0E6EBF1E0D80101900D928A95E1F7DB
:100D1000A090B801B090B901E090BA01F090BB0189
:100D20001092B8011092B9011092BA011092BB0151
:100D3000A11003C0BB2009F451C08091B40190916F
:100D4000B5010E94A4179C019091B301992309F465
:100D5000DAC22333310508F441C09F3F19F09F5F89
:100D60009093B301AA2061F00E94F7131A1414F4AF
:100D700091E001C09FEF899F802D11248093B801DD
:100D8000BB2061F00E94F7131B1414F491E001C022
:100D90009FEF899F802D11248093B9013091B80174
:100DA0003323E1F02091B9012223C1F045EB340354
:100DB000C0011124992319F09093B80103C081E078
:100DC0008093B80135EB2303C0011124992319F056
:100DD0009093B90103C081E08093B901E11003C091
:100DE000FF2009F451C08091B1019091B2010E949D
:100DF000A4179C019091B001992309F489C225366A
:100E0000310508F441C09F3F19F09F5F9093B001F6
:100E1000EE2061F00E94D5131E1414F491E001C07D
:100E20009FEF899F802D11248093BA01FF2061F0EC
:100E30000E94D5131F1414F491E001C09FEF899F05
:100E4000802D11248093BB013091BA013323E1F04E
:100E50002091BB012223C1F045EB3403C0011124D2
:100E6000992319F09093BA0103C081E08093BA01ED
:100E700035EB2303C0011124992319F09093BB0192
:100E800003C081E08093BB018091B80181110BC048
:100E90008091B901811107C08091BA01811103C00D
:100EA0008091BB0181110E943413AB82BC82ED8220
:100EB000FE8286E0F801A6EBB1E001900D928A95E2
:100EC000E1F70E948B1D9091BC01891721F00E94CF
:100ED0008B1D8093BC018091C402843009F084CDC5
:100EE00083E08093E9008091E80082FF7DCD8091CE
:100EF000E80085FF21C00E94B72581111BC080E258
:100F0000A82EB12C780109C08091F100F7018193DE
:100F10007F01F1E0AF1AB10869F08091E80085FD2A
:100F2000F3CF8091E8008B778093E8000E94B7258B
:100F3000882399F391E001C090E08091E8008B77DD
:100F40008093E800992309F44FCDE9818E2F90E03A
:100F5000FC013197E331F10508F073C1EA5AFF4F04
:100F60000C94E2281A8289E0DAC08A81823009F47E
:100F7000A8C1833089F0813009F063C12FB7F8949C
:100F80008091D5019091D601A091D701B091D8015F
:100F90002FBFBB83AC832BC08091CD019091CE013C
:100FA0009B838C838091CF019091D0019D838E8310
:100FB0008091D1019091D2019F8388878091D30144
:100FC0009091D40199878A873EC18A81823009F045
:100FD00038C16B817C818D819E810E94E82886E2E8
:100FE00090E024C04C816B818A810E944E1E9D83BB
:100FF0006FC1ED80FE80FE24EF24FE248C81AB8047
:101000009A8128E1A29E5001112430E6939FA00C02
:10101000B11C1124A80EB11CA80EB11C6F2DC50166
:1010200087960E9409286E2DC50188960E9409287E
:101030000AC10E941A1E07C18A818138B1F050F49A
:10104000803809F000C120E04B816091CA01809195
:10105000C90131C0823859F1833809F0F4C020E069
:101060004091CB016C818B8126C060E08B810E9416
:10107000E6129B818091C801911111C08E7F8093EF
:10108000C8011092C7014FEF80E792E041508040C5
:101090009040E1F700C000000E94AF1ED4C0816004
:1010A0008093C80160E086950E94E612CCC08B81D7
:1010B0008093CC01C8C00E940912C5C08A818138C2
:1010C00099F030F4803809F0BEC08091CB0127C080
:1010D000823891F0833809F0B6C08091C9018B83C2
:1010E0008091CA018C83AFC08091C80180FF02C08B
:1010F000869515C080E013C08091CC0110C060912E
:10110000C8017091C9018091CA019091CB010E94E0
:10111000161199C080E150C082E08A8389E58B83F3
:1011200092C0EA80FB80FE24EF24FE248C80912C68
:101130005801C70189559E4F9501201B310B281579
:10114000390508F080C0E9E5EE16E2E0FE0628F475
:101150000E94F527F501848302C0F5011482FFEF98
:10116000EF1AFF0A2FEFA21AB20AE3CFEA80FB8040
:10117000FE24EF24FE248C80912C5801C701895550
:101180009E4F9501201B310B2815390508F05BC0D7
:1011900039E5E31632E0F30620F4F50164810E949C
:1011A0000928FFEFEF1AFF0A2FEFA21AB20AE6CFC3
:1011B0000E940A1E48C084E08A8345C0EA80FB8002
:1011C000FE24EF24FE248C80912C5801C7018796C1
:1011D0009501201B310B28153905A8F530E8E316D9
:1011E00031E0F30628F40E94F527F501848302C05C
:1011F000F5011482FFEFEF1AFF0A2FEFA21AB20ACD
:10120000E5CFEA80FB80FE24EF24FE248C80912C25
:101210005801C70187969501201B310B2815390508
:1012200090F430E8E31631E0F30620F4F501648130
:101230000E940928FFEFEF1AFF0A2FEFA21AB20A45
:10124000E8CF8FEF89838091C402843009F0CCCB42
:101250008091E9008F702091EC00922F917020FD19
:1012600090E8F92EF82A82E08093E9008091E80066
:1012700080FF0CC040E050E060E270E0C8010E94D6
:10128000EA258091E8008E778093E8008F2D8F709B
:101290008093E900A9CBE9BCF9BC09B400FEFDCFFD
:1012A0008091D8008F7D8093D8008091E00082608B
:1012B0008093E0008091E00081FDFCCF0E94511CF2
:1012C0009ECB86E290E00E94F5271B821C821D8245
:1012D0008E83B9CF60E086E290E00E9409280E94E8
:1012E0001A1E0E940A1E61E283E290E00E94092811
:1012F00067E084E290E00E94092868E285E290E0DD
:101300000E94092825CB2D32314008F028CD66CD2A
:101310002D32314008F079CDB7CD3F924F925F9298
:101320006F927F928F929F92AF92BF92CF92DF92F5
:10133000EF92FF920F931F93CF93DF93CDB7DEB75A
:1013400029970FB6F894DEBF0FBECDBFFC01808198
:10135000918123813481232B31F09F3F31F491E03F
:101360008F3F19F403C091E001C090E090FDDFC60B
:101370007F0185E0DE01119601900D928A95E1F7DB
:10138000F701228189819A81222349F00E94E8187D
:10139000182F682F89819A810E948A1903C00E94A0
:1013A0005E19182F69817A81812F0E94741E8C0129
:1013B000F7018281882309F4F2C0980122513F4548
:1013C0002031310508F019C18FEF93E00E94F52715
:1013D0008111EFC0025137EA832E992493940023A0
:1013E00079F08114F4E09F0609F4E3C0C4010E947F
:1013F000F527811101C001501FEF811A910AEFCF2B
:101400001E821F8218861986442443942AE0322EB5
:1014100084010F5F1F4FC4010E94F5278E831F8236
:10142000882309F4C6C09FEF980F933060F48F8330
:101430004E8222E0820E911CC8010E94F527888707
:10144000811102C0B6C048018E010A5F1F4FF8012A
:1014500020812223E9F2213009F04CC081818130C2
:1014600049F46801F2E0CF0ED11CF80182810E949C
:10147000C9260AC0823051F46801F2E0CF0ED11CB7
:10148000F80182810E946A26860186C0833049F471
:101490006801F2E0CF0ED11CF80182810E942B2658
:1014A000F3CF843019F00F5F1F4F76C0F80122810F
:1014B0000E5F1F4F80E090E030E0205331092A306A
:1014C000310568F4389EA001399E500D1124C901E0
:1014D000840F951F0F5F1F4FF8012081EDCF0097FC
:1014E00009F45AC0EFE9FFE03197F1F700C00000BE
:1014F0000197F5CFE22FF0E0E15AFE4F5490822F92
:1015000086958695869590E0FC01E15BFE4F6490A0
:101510002770712C022E02C0759467940A94E2F72A
:10152000F1E06F227724FC01E15CFE4FA490B12C26
:10153000022E02C0B594A7940A94E2F731E0A322E8
:10154000BB24FC01E15DFE4FC490D12C02C0D594B8
:10155000C7942A95E2F781E0C822DD246114710462
:1015600019F081EE0E946A26A114B10419F086EEEA
:101570000E946A26852D0E94C926AB2819F086EEA6
:101580000E942B26672819F081EE0E942B26CD2879
:1015900019F08CE20E94C9260F5F1F4F58CF00310F
:1015A0003FE5130709F0BAC581E00E94BF190E9408
:1015B0002E2180913D02877009F4B9C5F70182811F
:1015C000882309F4B4C582E029960FB6F894DEBFEB
:1015D0000FBECDBFDF91CF911F910F91FF90EF9084
:1015E000DF90CF90BF90AF909F908F907F906F9043
:1015F0005F904F903F900C94E4190031FFE51F0776
:1016000011F481E005C001312FE5120721F482E0D9
:101610000E94011ACCCF033FFCE51F0749F406E204
:1016200021EE40EE63EF7CE5C7010E94971DC1CF1C
:10163000043F2CE5120708F049C1083D3CE51307BB
:1016400031F407E225EE45EE68ED7CE5EDCF093D8E
:101650009CE5190731F408E221E045EE69ED7CE5EF
:10166000E3CF073DECE51E0731F406E221EE41EE43
:1016700067ED7CE5D9CF882309F45DC11092D901CB
:1016800002309CE5190708F440C10631ECE51E075D
:1016900030F0C8018A5F9C45099708F036C10E9466
:1016A000021890939B0180939A010031FCE51F077B
:1016B00009F4C3C008F041C008303CE5130709F441
:1016C0009AC0F0F404309CE5190709F487C068F467
:1016D0000230FCE51F0709F477C003301C4509F010
:1016E000E5C080919A01826076C006303CE5130720
:1016F00009F46EC008F07BC080919A0188606BC0CD
:101700000C309CE5190709F485C068F40A30FCE543
:101710001F0709F474C008F079C00E94511C809121
:101720009A01806858C00E303CE5130709F476C072
:1017300008F07FC080919A018BC00B3F9CE5190790
:1017400009F44FC018F50331FCE51F0709F47DC00B
:1017500078F401313CE5130709F473C002311C45EC
:1017600009F0A4C00E94511C80919A018F7733C068
:1017700005319CE5190709F472C008F486C00A3FD8
:101780001C4509F093C080919B013EC00F3F2CE5A2
:10179000120709F45FC058F40D3F8CE5180709F4EF
:1017A00044C008F43FC080919B0182602DC001308D
:1017B000EDE51E0709F475C008F45DC002301D4553
:1017C00009F074C060E06EC080919A01816003C02E
:1017D00080919A01806180939A0168C080919A01FA
:1017E00011C080919B01826080939B015FC08091BA
:1017F0009A018062F0CF80919A018064ECCF809151
:101800009A0188608460E7CF8160EECF80919A0171
:101810008E7FE1CF80919A018D7FDDCF80919A01FB
:10182000877FD9CF80919B0118C080919B018D7FCC
:10183000DBCF80919A018F7ECECF80919A018F7DF0
:10184000CACF80919A018F7BC6CF80919A01877F02
:101850008B7FC1CF80919B018D7F8E7FC5CF809183
:101860009A0182FB222720F991E0922790FB82F9CE
:1018700090FB83F9B0CF80919B01982F9095917048
:101880008E7F892B90FB81F9AFCF0E94511C8091F4
:101890009A0187FB222720F991E0922790FB87F994
:1018A0009ACF61E08EE090E00E94092860919A0151
:1018B00010919B0184E090E00E940928612F82E250
:1018C00090E00E9409280E94511C73CE053FFCE560
:1018D0001F0731F406E221EE42EE65EF7CE5A4CE6F
:1018E000053F2CE5120730F407E225EE44EE64EFE5
:1018F0007CE59ACE063F3CE5130709F0BCCE07E233
:1019000025EE46EE66EF7CE58FCE809140020631F3
:101910009CE5190741F58A7A91E009F490E09093EB
:10192000DA01882311F065E301C069E28EED91E0F0
:101930000E94E81715C006311C4509F030C180919E
:10194000DA01882309F4F1C385E3EEEDF1E0928139
:10195000891301C01282319631E0E43EF307B9F7F2
:101960000E94841826CE82720C3C9CE5190709F46B
:10197000C4C008F045C0063CFCE51F0709F4A9C037
:10198000D8F4033C3CE5130709F499C030F4023C59
:10199000ECE51E0709F46EC0D1C0043CFCE51F074E
:1019A00009F492C0053C2CE5120709F0C7C044EDCC
:1019B00052E16DED72E1A5C0093C3CE5130709F465
:1019C00092C078F4073CECE51E0709F487C0083C98
:1019D000FCE51F0709F0B2C048EC52E16CEB72E184
:1019E00090C00A3C2CE5120709F482C00B3C3CE590
:1019F000130709F0A3C048E251E169E371E181C036
:101A0000013D8CE5180709F488C0A0F40E3CECE514
:101A10001E0709F47CC008F477C00F3C2CE51207C0
:101A200009F478C0003D3CE5130709F087C06EE07B
:101A300089E081C0043D8CE5180709F474C068F49E
:101A4000023DECE51E0709F46BC0033DFCE51F07F2
:101A500009F074C061E088E16BC0053D2CE5120718
:101A600009F464C00D353DE5130709F067C06AE26B
:101A700085E261C08091C80180FF1BC08E7F80938A
:101A8000C8016091C8017091C9018091CA0190910B
:101A9000CB010E9416111092C7018FEF90E7E2E090
:101AA00081509040E040E1F700C000000E94AF1E6E
:101AB00080CD81608093C80161E0869539C041E2A4
:101AC00053E16AE273E11DC04AE253E161E273E16E
:101AD00018C04DED52E164ED72E113C04CEB52E1E0
:101AE00068EC72E10EC044EA52E160EB72E109C0B9
:101AF00040EB52E164EA72E104C049E351E168E27B
:101B000071E10E94931E55CD61E081E011C065E056
:101B100082E011C068E086E00EC064E18FE00BC097
:101B200067E185E108C062E289E105C061E083E226
:101B30000E94E6123ECD0E94811E3BCD0A35FDE596
:101B40001F0741F150F401153CE51307A9F00E3DC4
:101B50001C4529F50E9413182CCD0B359DE519075E
:101B6000D9F00C351D45D9F480919B0182FB882763
:101B700080F991E0892711C00E94511CFFEF04E316
:101B80001CE0F15000401040E1F700C000000E944E
:101B90005A170FCD81E001C080E00E94CE18F701F6
:101BA000828100811181882349F0C8010E94E818D0
:101BB000D82E682FC8010E948A1904C0C8010E944B
:101BC0005E19D82EB8018D2D0E9441158C01982EDA
:101BD000F701D280A580A2949FE0A92280913D02C6
:101BE000877099F0DD2089F0812F807F803421F08B
:101BF00080E2800F883048F082E00E94E4198091F2
:101C00003D028770CC24C3948111C12CB12EB294B3
:101C10008FE0B8228B2D90E08C30910508F04AC2FD
:101C2000FC01E759FF4F0C94E228812F807F1F7041
:101C3000882311F01295107FDD20B9F0112309F4EB
:101C400024C280E2800F883010F0911006C080918D
:101C50004002182B1093400205C080913F02182BC0
:101C600010933F020E94841810C2802F0E942B26DE
:101C7000112309F41FC2005E1095083010F0911076
:101C800006C08091400218231093400205C0809145
:101C90003F02182310933F020E9484180BC2812F29
:101CA000807F1F70803211F01295107F992021F0F3
:101CB000F1E09F1611F130C0DD20B1F0AA2081F0D3
:101CC00001E0A0120DC080919B0182FDF3C18091C3
:101CD0004102182B181709F4EDC110934102EAC113
:101CE00080914102812B10C0AA2021F021E0A21690
:101CF00009F4E0C10E947E1827C0DD2041F035E0E4
:101D00003A1508F4D7C1812F0E942126D3C184E05F
:101D10008A1508F4CFC118C0DD2049F0AA2099F334
:101D2000F701858180FFB1C18F708583ECCFAA2038
:101D300059F0093309F0BBC1FFEF17EE23E0F15072
:101D400010402040E1F7B1C1812F0E941626B2C198
:101D5000812F86958695837019F0813059F0AAC13C
:101D6000DD2019F0C801937002C080E090E00E946D
:101D7000751DA6C1DD2019F0C801937002C080E076
:101D800090E00E945F1D9CC1802FDD2019F00E9411
:101D9000171402C00E945E130E94341391C1812F58
:101DA000837009F069C0D11089C1902F92959695E2
:101DB0009770990F990F802F8F70882E912CA12CDE
:101DC000B12C092E04C0880C991CAA1CBB1C0A94B7
:101DD000D2F704FF12C04FE050E060E070E004C0B2
:101DE000440F551F661F771F9A95D2F7DB01CA0172
:101DF00080959095A095B09503C080E090E0DC01BF
:101E000016951695412F4370423019F1C8F4009190
:101E10004202109143022091440230914502413028
:101E200059F088299929AA29BB29BC01CD01602331
:101E30007123822393230AC0802A912AA22AB32ADB
:101E4000BC01CD01682979298A299B290E94221A7F
:101E500035C188299929AA29BB29009142021091EC
:101E600043022091440230914502BC01CD0160271C
:101E7000712782279327EACFDD2019F0812F817007
:101E800001C08695882309F419C1902F92959695E3
:101E90009770990F990F802F8F70882E912CA12CFD
:101EA000B12C092E04C0880C991CAA1CBB1C0A94D6
:101EB000D2F704FF12C04FE050E060E070E004C0D1
:101EC000440F551F661F771F9A95D2F7DB01CA0191
:101ED00080959095A095B09503C080E090E0DC01DE
:101EE00016951695412F43704230D9F068F5009150
:101EF000CE021091CF022091D0023091D102413018
:101F000059F088299929AA29BB29BC01CD01602350
:101F10007123822393231EC0802A912AA22AB32AE6
:101F200013C088299929AA29BB290091CE021091B2
:101F3000CF022091D0023091D102BC01CD016027A7
:101F400071278227932706C0BC01CD016829792912
:101F50008A299B290E94B519B1C01F70DD2039F074
:101F6000812F0E94011A802F0E942126A7C0802F56
:101F70000E941626812F0E94BF19A0C0802F32EF29
:101F8000931609F440C0391538F090EF991661F0B6
:101F9000E1EF9E1699F174C0F3EF9F16D9F124EF8B
:101FA000921609F44EC06CC0DD2019F134E03A15E8
:101FB00008F480C01F7181E090E0A0E0B0E0AC01C7
:101FC000BD0104C0440F551F661F771F1A95D2F735
:101FD0008091CE029091CF02A091D002B091D10217
:101FE0008A019B01082719272A273B27C901B80125
:101FF00025C025E02A1508F45DC0DCCFDD2029F0DE
:10200000812F8F7130C0DD20D9F3812F8F710E9415
:10201000BF1950C0DD2079F01F7181E090E0A0E091
:10202000B0E0BC01CD0104C0660F771F881F991F67
:102030001A95D2F703C060E070E0CB010E94B51999
:1020400039C0DD2099F01F71812F0E94011A809103
:102050009B0182FD07C038E0139FC00111248360FB
:1020600080933D02812F0E94011A24C081E00E94CA
:10207000E41981E08A15F0F482E00E94E4191AC0A4
:10208000DD2039F0AA2009F4BBCF802F0E946A26F8
:1020900011C0AA2009F4B9CF893349F49FEFE7EEC4
:1020A000F3E09150E040F040E1F700C00000802FE5
:1020B0000E942B2688EF8B0D843010F40E948B1D1C
:1020C000CC20A9F180913D0280FD31C0F701128240
:1020D0008595859585950E94011AC7010E948D09F5
:1020E00080913D0285958595859529960FB6F89442
:1020F000DEBF0FBECDBFDF91CF911F910F91FF903B
:10210000EF90DF90CF90BF90AF909F908F907F9097
:102110006F905F904F903F900C94BF1901319FE5F5
:10212000190709F078CA82E040CA89E20ECC2996E4
:102130000FB6F894DEBF0FBECDBFDF91CF911F91D8
:102140000F91FF90EF90DF90CF90BF90AF909F9056
:102150008F907F906F905F904F903F9008959091F7
:102160009A0192FF0DC0282F2871283019F4877F1B
:10217000846006C0282F2471243011F48B7F88607E
:1021800093FF0DC0282F2871283119F4877E8461B0
:1021900006C0282F2471243111F48B7E8861209190
:1021A0009B0120FF0DC0382F3871383019F4877F1C
:1021B000816006C0382F3171313011F48E7F886014
:1021C00021FF0DC0282F2871283119F4877E8161E5
:1021D00006C0282F2171213111F48E7E886194FD73
:1021E000877E08959091C80190FF0CC0E9E4F2E069
:1021F000818360834283339692E0E037F907C1F729
:102200000C94AF1E08958091C801282F269530E0C8
:102210002115310519F48170826005C02B3231051A
:1022200024F0817084658093C8010895CF92DF9275
:10223000EF92FF926B017C010E940311B701A6018E
:1022400088E090E0FF90EF90DF90CF900C941B28F7
:102250008091CC01882319F081508093CC0160914A
:10226000C8017091C9018091CA019091CB010C9471
:1022700016118091CC01833018F48F5F8093CC01CC
:102280006091C8017091C9018091CA019091CB0100
:102290000C941611E8ECF1E083E0808311828FEF5B
:1022A00082838383148260817181828193810C9403
:1022B0001611AF92BF92CF92DF92EF92FF920F93DF
:1022C0001F93CF93DF93E82EF62EE901E42FF0E081
:1022D000611106C0E152FE4FE4914E2F2E2F71C0C6
:1022E000062F10E0E152FE4F4491F42FC42ED12C62
:1022F00026E0829FC00111242FEF30E0B9010E9437
:10230000BA285BEA5603C001579F900D11248E0D29
:10231000911D8E0D911D582F550F580FD901A01BDF
:10232000B10BAC9DC001AD9D900DBC9D900D1124D5
:10233000E92FF59ED0011124AB2FBB277901EA1AB2
:10234000FB0AEC9CD001ED9CB00DFC9CB00D11245F
:102350005901A51AB108A09E7001A19EF00CB09E73
:10236000F00C1124EF2CFF242E193F092C9D800125
:102370002D9D100D3C9D100D1124212F62307105F3
:1023800091F048F461157105E1F061307105B9F41F
:10239000242F4B2F16C06430710569F040F0663071
:1023A000710579F00CC0242F492FE12F0AC0492F65
:1023B000EF2F2B2F06C0292FE42F412F02C0292FEA
:1023C000EB2F49832883EA83DF91CF911F910F91EF
:1023D000FF90EF90DF90CF90BF90AF900895CF9394
:1023E000DF9300D01F92CDB7DEB79091C80190FF68
:1023F0000AC09E012F5F3F4F0E9459114B81698196
:102400008A810E94F2100F900F900F90DF91CF9170
:1024100008955F926F927F928F929F92AF92BF9238
:10242000CF92DF92EF92FF920F931F93CF93DF93A0
:1024300000D01F92CDB7DEB7182F762E042F622E54
:102440009091C80190FF6DC0E92FE695AE2FB0E0E6
:10245000A35DBE4F8C918093C6019E7F923061F444
:102460009E012F5F3F4F812F0E9459114B8169813F
:102470008A810E94F21043C0823019F40091CB018E
:102480003EC0863019F41091C90139C08930D9F3A2
:102490008931A9F5E9518E2F8170582EE695F0E02B
:1024A000E152FD4FA590B49089E4C82E82E0D82E69
:1024B000E12CF12CBB249DE0892E912CAE9CC00117
:1024C000AF9C900DBE9C900D1124B4010E94BA28BF
:1024D000812F511002C0860F01C0861B9601402F2C
:1024E000672D0E9459118FEFE81AF80A83E0C80E91
:1024F000D11C8DE0E816F10409F70E94AF1E10937D
:10250000C9017092CA010093CB01662051F060911D
:10251000C8017091C9018091CA019091CB010E94BC
:1025200016110F900F900F90DF91CF911F910F9187
:10253000FF90EF90DF90CF90BF90AF909F908F90E3
:102540007F906F905F900895E8ECF1E0438121E186
:10255000421B08F440E021E0628181810C94091261
:10256000E8ECF1E0438121E1420F08F44FEF21E074
:10257000628181810C940912E8ECF1E0628121E131
:10258000621B08F460E021E0438181810C94091210
:10259000E8ECF1E0628121E1620F08F46FEF21E0E5
:1025A000438181810C940912E8ECF1E0818121E002
:1025B0004381628188500C940912E8ECF1E081813A
:1025C00021E043816281885F0C9409129091C801D7
:1025D00090FF36C09170811102C0926006C08B32AC
:1025E00010F0946502C0880F982B9093C801662361
:1025F00051F06091C8017091C9018091CA01909118
:10260000CB010E9416116091C801669570E04BE005
:1026100050E08EE091E00E94FE28892B19F0109284
:10262000C70102C00E94991E81E08093AD0120E0A5
:102630004091CB016091CA018091C9010C940912AB
:1026400008958091C8018695815009F48AE261E07D
:102650000C94E6128091C80186958F5F8B3208F04A
:1026600081E061E00C94E6120E94B3172091B8015A
:10267000211104C02091B901222321F09093B501CA
:102680008093B4012091BA01211104C02091BB01B3
:10269000222321F09093B2018093B101E091A50132
:1026A000F091A601309749F082E08093B601048052
:1026B000F581E02D86EB91E009940895803F39F48F
:1026C0009091B90197FF35C01092B90159C0813F6F
:1026D00029F49091B9011916BCF32BC09091B8015F
:1026E000823F29F497FF25C01092B80149C0833F6B
:1026F00019F41916CCF31DC09091BA01893F29F441
:102700001916BCF41092BA013BC08A3F19F497FF26
:1027100010C0F8CF8B3F39F49091BB0197FF09C0EF
:102720001092BB012DC08C3F21F49091BB01191672
:10273000BCF39CE0980F953080F421E030E0A901D3
:1027400002C0440F551F9A95E2F7CA0180959091F7
:10275000B70189238093B70113C08D3F21F4809185
:10276000E6018E7F0BC08E3F21F48091E6018D7FC4
:1027700005C08F3F29F48091E6018B7F8093E601AD
:102780008091B801811106C08091B901811102C008
:102790001092B3018091BA01811106C08091BB01F2
:1027A000811102C01092B00108958091E60180FD70
:1027B00016C081FD16C082FD18C08091B00188232B
:1027C00091F0883290F428E0829FC001112468E2E1
:1027D00070E00E94CE28862F672B29F007C082E088
:1027E000089584E0089581E0089588E00895809137
:1027F000E60180FD14C081FD14C082FD16C08091E9
:10280000B301882381F0843180F422E3829FC001E8
:10281000112464E170E00E94CE28862F08958CE098
:10282000089589E1089585E0089582E30895803F41
:1028300021F40E94F713819504C0813F29F40E947E
:10284000F7138093B9010895823F21F40E94F71392
:10285000819504C0833F29F40E94F7138093B80147
:102860000895893F19F40E94D51305C08A3F31F4B9
:102870000E94D51381958093BA0108958B3F21F46E
:102880000E94D513819504C08C3F29F40E94D51372
:102890008093BB0108959CE0980F953078F421E077
:1028A00030E0A90102C0440F551F9A95E2F7CA0112
:1028B0009091B701892B8093B70108958D3F21F442
:1028C0008091E60181600BC08E3F21F48091E6018A
:1028D000826005C08F3F29F48091E6018460809377
:1028E000E6010895F894E82FE295EF70F0E031A149
:1028F000282F2F7081E090E001C0880F2A95EAF719
:10290000982F9095932391A392A1892B82A37894D9
:1029100008959F92AF92BF92CF92DF92EF92FF9273
:102920000F931F93CF93DF930DE111E0CCE9D1E03A
:1029300084EAE82E81E0F82E912CCC24C394D12C8B
:10294000B801D8018C91F894E82FE295EF70F0E08F
:1029500021A18F70A60102C0440F551F8A95E2F78E
:10296000CA01922F982B91A392A18095892382A3CB
:10297000789400C0E1E2F1E020E030E0A12CB12C3D
:102980004191842F82958F7090E0DC0190968C911C
:1029900090E04F7002C0959587954A95E2F780FDCB
:1029A00008C0C601022E02C0880F991F0A94E2F7E0
:1029B00002C080E090E0A82AB92A2F5F3F4F2C3058
:1029C0003105F1F60F5F1F4FFB0180810E947214E9
:1029D000F0EAFA95F1F788819981A816B90621F0F5
:1029E000B982A88281E001C080E0982A2296EC1684
:1029F000FD0609F0A5CF992049F081E08093DD0123
:102A00000E94B3179093DC018093DB018091DD017C
:102A1000882351F18091DB019091DC010E94A41781
:102A2000069710F180919C0190919D019093CE01A9
:102A30008093CD0180919E0190919F019093D00150
:102A40008093CF018091A0019091A1019093D20138
:102A50008093D1018091A2019091A3019093D40120
:102A60008093D3011092DD01892DDF91CF911F91C9
:102A70000F91FF90EF90DF90CF90BF90AF909F901D
:102A80000895CF93DF930E94741EEC018238910564
:102A900059F1A0F48133910509F473C040F48932EF
:102AA000910509F467C08A9709F472C084C0853320
:102AB000910509F458C0C997B9F07DC0833E9105CE
:102AC00071F138F4803E9105B1F0823E910511F12B
:102AD00072C0863E9105B9F1873E9105C9F1843EE9
:102AE000910509F068C024C080919A0180FD5DC005
:102AF00081FD5BC060C080919A0180FD50C08091D3
:102B00009B0180FF49C180919A0184FD43C1C3EEBE
:102B1000D0E042C180919A0182FF3EC1F4CF809102
:102B20009A0182FD3FC080919B0180FD3EC0EBCFAA
:102B300080919B0181FF30C180919A0184FD2AC15F
:102B4000C7EED0E029C180919A0183FF25C1F4CF5F
:102B500080919A0183FD2CC080919B0181FFECCF75
:102B6000C4EED0E019C180919A0185FF15C1C9E278
:102B7000D0E012C180919A0185FF0EC1C5E3D0E07B
:102B80000BC180919A0186FF07C1CAE2D0E004C15F
:102B900080919A0186FF00C1C1E3D0E0FDC0C9E386
:102BA000D0E0FAC0C2EED0E0F7C0C0EED0E0F4C092
:102BB000C6EED0E0F1C0C11581E5D80708F066C0C7
:102BC000C11520E5D207E0F0CE0174E09695879517
:102BD0007A95E1F783709C2F937021E030E002C07A
:102BE000220F331F9A95E2F73C68382BCF70C695B9
:102BF000C69540E2C49FE0011124C22BD32BCCC068
:102C0000C83ED10560F5C03ED10508F0C5C0C83A40
:102C1000D105B0F4C53AD10540F0C55AD0E0C95944
:102C2000DE4FC881D0E0D064B7C0C130D10509F40F
:102C3000B3C008F4AFC0C430D10508F4ABC0ACC019
:102C4000CF3BD10508F0A6C0C85AD0E0CC0FDD1F9D
:102C5000C659DE4F0990D881C02DD4649DC0C115DE
:102C600040E2D40758F4C11581E0D80708F094C0B9
:102C7000C03FD10508F48EC0D0658EC0C11520E4D8
:102C8000D20708F487C0DF70D06A86C0C11545E559
:102C9000D40708F042C0C11584E5D80728F0DC2F1E
:102CA000CC27C46FD06A78C0C11523E5D207B0F035
:102CB000CE018370992721E030E002C0220F331F3C
:102CC0008A95E2F78C2F8695869540E2849FC00115
:102CD0001124E901C82BD92BDA685EC0C11542E581
:102CE000D40728F4DC2FCC27C16FD06A55C0CE01A1
:102CF0008370992721E030E002C0220F331F8A95AC
:102D0000E2F78C2F8695869540E2849FC0011124BE
:102D1000E901C82BD92BDC683FC0C11589E5D8076C
:102D2000B8F4C11528E5D20728F0DC2FCC27C06FF6
:102D3000D06A32C0C11546E5D40760F58C2F0E94D9
:102D4000AF108F71C82FD0E0DC2FCC27D06224C009
:102D5000C1158AE5D80780F48C2F8F700E94AF10C0
:102D600094E0D695C7959A95E1F7CF70D0E0DC2F27
:102D7000CC27D069C82B10C0CE0190568115904247
:102D800048F48D2F8F710E94AF10DD27D0628F71B4
:102D9000D82B02C0C0E0D0E0CE01DF91CF910895E2
:102DA0008091B902089580E00895CF93DF9300D019
:102DB0001F92CDB7DEB79091C402943011F589838C
:102DC0007B836A839093E9008FEF9091E8008150B4
:102DD00095FD06C095ED9A95F1F700008111F5CFAC
:102DE0008091E80085FF0DC040E050E063E070E0B6
:102DF000CE0101960E94EA258091E8008E778093AB
:102E0000E8000F900F900F90DF91CF910895BC01D3
:102E100084E00C94D516BC0183E00C94D51624E014
:102E20002093E9002FEF3091E800215035FD06C0D6
:102E300035ED3A95F1F700002111F5CF2091E8002A
:102E400025FF0BC040E050E066E070E00E94EA25FC
:102E50008091E8008E778093E8000895CF93DF9308
:102E600021E02093E9002FEF3091E800215035FD5B
:102E700006C035ED3A95F1F700002111F5CF20910C
:102E8000E80025FF14C0EC0140E050E068E070E08D
:102E90000E94EA258091E8008E778093E80088E020
:102EA000FE01AAEBB2E001900D928A95E1F7DF9165
:102EB000CF91089581E08093E00080E28093D80074
:102EC0001092C9008FE19EE40197F1F700C0000065
:102ED00087E090EBDC018093D2029093D302A09321
:102EE000D402B093D5029CE088E10FB6F894A8957F
:102EF000809360000FBE90936000FFCF78941F9284
:102F00000F920FB60F9211248F939F93AF93BF939D
:102F10008091D5019091D601A091D701B091D801AF
:102F20000196A11DB11D8093D5019093D601A09368
:102F3000D701B093D801BF91AF919F918F910F901E
:102F40000FBE0F901F9018959C014FB7F894809179
:102F5000D5019091D601A091D701B091D8014FBF72
:102F6000821B930B08952FB7F8948091D50190910F
:102F7000D601A091D701B091D8012FBF08951F921B
:102F80000F920FB60F9211248F939F93AF93BF931D
:102F90008091A701811113C08091D5019091D60134
:102FA000A091D701B091D8014196A11DB11D809388
:102FB000D5019093D601A093D701B093D801BF91CA
:102FC000AF919F918F910F900FBE0F901F9018950A
:102FD0009C01FC0132969FEF80E04191461789F0F9
:102FE0009F3F19F4411101C0982F8F5F8630A9F7D8
:102FF0009F3F39F0F901E90FF11D97FDFA956283C2
:1030000008950895CF9384E090E00E94F527C82F9B
:1030100082E290E00E94F5272C2F30E0A901582B86
:10302000CA01CF9108956AEE7EEF80E090E00E94A1
:10303000272860E082E090E00E94092860E083E0B9
:1030400090E00E94092810924202109243021092CE
:1030500044021092450260E084E090E00E9409285A
:1030600060E082E290E00E94092860E085E090E064
:103070000E94092860E086E090E00E9409286FEF36
:1030800087E090E00E94092840E050E0BA0188E023
:1030900090E00E941B2860E08DE090E00E940928EB
:1030A00040E050E0BA0188E190E00E941B2860E017
:1030B00087E190E00E94092840E050E0BA018CE1ED
:1030C00090E00E941B2860E070E080E290E00E94A7
:1030D000272840E050E0BA0188E190E00E941B28D8
:1030E00040E050E0BA018FE090E00E941B2840E0F1
:1030F00050E0BA0183E190E00C941B2880914102DA
:1031000081111092410208959091400280913F02F6
:10311000892B20913E02982F922B9093DE01809173
:103120004102882389F0892B8093DE01E0EEF1E0F3
:1031300097E080E0915029F021912223D9F38F5F0D
:10314000F9CF81110E947E18E091A501F091A601AE
:10315000309731F00280F381E02D8EED91E00994FB
:10316000089580E090E00E94751D80E090E00E944C
:103170005F1D10923F0210923E020E948418E6EBFF
:10318000F1E086E0DF011D928A95E9F71092B30124
:103190001092B0011092E6010C943413CF93C091B9
:1031A0009B01C2FB992790F9981781F080FBC2F927
:1031B000C0939B0160919A0184E090E00E940928ED
:1031C0006C2F82E290E0CF910C940928CF91089562
:1031D000BF92CF92DF92EF92FF920F931F93CF9304
:1031E000DF938C01C090CE02D090CF02E090D0024D
:1031F000F090D1028091420290914302A09144024A
:10320000B0914502C82AD92AEA2AFB2ACFE1D0E0A8
:10321000D701C6010C2E04C0B695A7959795879542
:103220000A94D2F780FD04C0219790F7B12C07C013
:10323000BC2EB8018C2F0E9441150197A9F38B2D4C
:10324000DF91CF911F910F91FF90EF90DF90CF9082
:10325000BF900895CF93DF93EC010E94E818BE0160
:103260000E944115DF91CF9108950E942A19292FBC
:103270002F70E92FE295EF704E2F50E0FA01329750
:10328000EE30F105B8F4EB58FF4F0C94E228803F84
:1032900099F018F4883E70F40FC0843F59F40CC0C4
:1032A000883E50F0813F31F407C0822F8695869585
:1032B0008695089580E0089581E008952CE0929F1E
:1032C000800D1124682F669566956695982F9770E6
:1032D00085E0689FB001112440E050E080E0FB01F0
:1032E000E40FF51FE15EFD4F208130E0092E02C0A2
:1032F000369527950A94E2F721703327042E01C0F2
:10330000220F0A94EAF7822B4F5F5F4F4530510539
:1033100031F708952CE0929F800D1124E82FE69557
:10332000E695E695877051E001C0550F8A95EAF75A
:1033300085E0E89FF0011124E15EFD4F20E030E0E0
:1033400070E04081CB01022E02C0969587950A94C9
:10335000E2F78170819584278523842781932F5FED
:103360003F4F2530310569F708956093CE02709381
:10337000CF028093D0029093D1020C94B1180F9396
:103380001F9341E050E060E070E004C0440F551F1F
:10339000661F771F8A95D2F7409550956095709576
:1033A0008091CE029091CF02A091D002B091D10233
:1033B0008A019B01082319232A233B23C901B80151
:1033C0001F910F910C94B51920913D028095822395
:1033D00080933D02982F977041F430E0482F082EDB
:1033E000000C550B2417350721F490919B0192FF97
:1033F00007C08595859585950E94BF1910923D025D
:1034000008950F931F9341E050E060E070E004C026
:10341000440F551F661F771F8A95D2F78091CE0201
:103420009091CF02A091D002B091D1028A019B016C
:10343000082B192B2A2B3B2BC901B8011F910F9187
:103440000C94B51960934202709343028093440236
:10345000909345020C94B11880911E029091ED0159
:10346000891719F08F5F8770FBCF08950F931F9313
:10347000CF93DF938091EC0182958F7009F05DC04E
:103480008091E901882309F458C080911E021091AF
:10349000ED016091E7017091E801C091EA01D091DE
:1034A000EB0191E06F3F09F090E0292F06E08117D2
:1034B00009F443C0209721F07F3F21F030E003C0A2
:1034C00031E001C0322F90E030FD34C0089FF001A0
:1034D000099FF00D1124DF01A251BE4F11963C91BE
:1034E0001197371327C03C91361324C012963C9194
:1034F000129731111FC013964D915C9114974C1B7C
:103500005D0B483C5105B0F48091EC018F708061F7
:103510008093EC01ED50FE4F80818F70806180833D
:1035200087EE91E00E948D09DF91CF911F910F915D
:103530000C942C1A01968770BACFDF91CF911F910E
:103540000F9108959F92AF92BF92CF92DF92EF9228
:10355000FF920F931F93CF93DF93CDB7DEB76197A1
:103560000FB6F894DEBF0FBECDBF8C0185E0F80129
:10357000DE011D9601900D928A95E1F7F801908188
:103580008181E2803091E7016091E8014091EA0198
:103590005091EB014115510531F06F3F31F421E0BD
:1035A0003F3F19F403C021E001C020E0F22FF17089
:1035B0009F2E20FD23C1F801C380D48027EEA22EC8
:1035C00021E0B22EF090E901F601E41BF50BFF209B
:1035D00009F4CEC02091EC01E83CF10508F099C057
:1035E000422F407F09F051C0681311C039130FC03A
:1035F000FE2CE1100CC02F7020612093EC01C5015E
:103600000E948D098091EC01F801858337C1CD2896
:1036100031F08F3F31F421E09F3F19F403C021E0E6
:1036200001C020E020FD03C021E02E2502C020E0E3
:1036300030E0F22FF170FF2E20FF1DC020911E02FE
:103640004091ED0156E0241709F4F6C030E0529F96
:10365000F001539FF00D1124E251FE4F618186135A
:1036600006C06081961303C06281E61204C02F5F1A
:103670003F4F2770E8CFFE2CEE2009F4FFC0809169
:10368000EC0181608093EC0150C0681307C03913CE
:1036900005C0E11003C0F80125838DC09D878E878A
:1036A0008D859E850E943519882369F1EE2059F198
:1036B0002091EC01822F82958F7090E0029774F038
:1036C0008091E7019091E80198878F831986DB86C6
:1036D000CA862C87CE0107960E948D0986E0F801E4
:1036E000A7EEB1E001900D928A95E1F70E94361A9B
:1036F0000DC06817E1F09D878E878D859E850E949D
:10370000351981111EC0C8010E948D09FF24F39450
:10371000B5C0422F407F69F787EE91E00E948D0986
:1037200086E0F50111928A95E9F7F12CA7C03913CB
:10373000E2CFE110E0CFF8012583C8010E948D0996
:1037400057C0EE2001F32091EC01822F82958F70FB
:1037500090E002971CF28091E7019091E8019A8332
:1037600089831B82DD82CC822E83CE010196B4CF69
:10377000E83CF105E8F5FE2CEE2029F2681327C09D
:10378000391325C02091EC0120FD18C0822F8295AD
:103790008F70482F50E04115510581F0F8012583C5
:1037A0004F30510541F08F5F982F9295907F822F77
:1037B0008F70892B8583C8010E948D0986E0F801EE
:1037C000A7EEB1E001900D928A95E1F757C09D8771
:1037D0008E878D859E850E94351981117FCF8091BE
:1037E000EC0181608093EC01C8010E948D0946C004
:1037F00086E0F50111928A95E9F740C0EE2009F4C0
:1038000082CF9D878E878D859E850E943519F82EE3
:10381000882309F478CF86E0F801A7EEB1E00190A3
:103820000D928A95E1F78091E7019091E8010E945D
:103830002A190E94361A22C09D878E878D859E8503
:103840000E942A19292F22952F70223028F49F7068
:1038500039F0811105C00BC0243028F49F7049F461
:10386000805E883020F0C8010E948D099F2CF92CC1
:1038700005C0F8019581907F99F7F9CF8F2D61965A
:103880000FB6F894DEBF0FBECDBFDF91CF911F9171
:103890000F91FF90EF90DF90CF90BF90AF909F90EF
:1038A00008951092400286E0E0EEF1E0DF011D9203
:1038B0008A95E9F70C94B11808950F931F93CF934D
:1038C000DF9300D01F92CDB7DEB78C018091480204
:1038D00081110AC09E012F5F3F4F4FEF6FEF0E9493
:1038E00059118A8180934802F8018481813051F016
:1038F00028F0823061F4409148020AC08091480269
:1039000040E007C06091480240E080E003C040E032
:1039100080E060E00E94F210F801848190E001965E
:1039200063E070E00E94CE2884830F900F900F9088
:10393000DF91CF911F910F910895CF93DF93EC0109
:10394000E8ECF1E0438162818C810E94EF118C816F
:103950008F5F8C83DF91CF910895CF93DF93EC013C
:10396000EC81F0E0EC51FD4F4491E8ECF1E0628134
:1039700081810E94EF118C818F5F8C83DF91CF91C9
:1039800008951F93CF93DF93CDB7DEB767970FB638
:10399000F894DEBF0FBECDBF342F4B8B252F5C8B31
:1039A0006D8B7E8B8F8B4E895F89611110923F02E8
:1039B00086E0FE013D96DF01982F1D929A95E9F76A
:1039C0003D872E876F87598B488BDE0117960190B4
:1039D0000D928A95E1F7CE0107960E94A21A8111F5
:1039E0003EC086E0FE013796DE01119601900D92F1
:1039F0008A95E1F7FF81E8856A857B856115710508
:103A000031F0EF3F31F481E0FF3F19F403C081E072
:103A100001C080E080FD23C02091ED0130E0C901AC
:103A200001968770992740911E0250E084179507F0
:103A300079F1F983EA837D836C8396E0929FD001CC
:103A4000939FB00D1124A251BE4FFE0131960190FB
:103A50000D929A95E1F78093ED010E942C1A16E0E1
:103A600080911E029091ED018917F9F0189FC00115
:103A7000112482519E4F0E94A21A8823B1F0809196
:103A80001E0290E001968770992780931E02E8CF6E
:103A90000E94511C1092ED0110921E02E7EEF1E01F
:103AA00086E0DF011D928A95E9F767960FB6F894D4
:103AB000DEBF0FBECDBFDF91CF911F910895209142
:103AC000B5023091B6022817390771F09093B6020B
:103AD0008093B502E091A501F091A601309721F005
:103AE0000084F185E02D099408952091B30230916E
:103AF000B4022817390771F09093B4028093B3028F
:103B0000E091A501F091A601309721F00680F781A0
:103B1000E02D09940895E091A501F091A601309758
:103B200021F00190F081E02D099480E008950F9339
:103B30001F93CF93DF93C42FD22FFC018281882360
:103B4000C9F04093D9010E94B3179093B2028093B9
:103B5000B10280E28C0F883008F057C0C77081E056
:103B600001C0880FCA95EAF7DF91CF911F910F919D
:103B70000C9421268091D901481330C08091B10264
:103B80009091B2020E94A417883C910538F510E28A
:103B90001D0FCD17B9F080E28C0F883040F4C7704C
:103BA00081E001C0880FCA95EAF70E9416261830F6
:103BB00028F581E09D2F977001C0880F9A95EAF74C
:103BC0000E942126802F0E94C9261830F0F4D77059
:103BD00081E001C0880FDA95EAF70AC080E28C0F15
:103BE000883098F4C77081E001C0880FCA95EAF761
:103BF000DF91CF911F910F910C941626802FDF91AA
:103C0000CF911F910F910C94C926DF91CF911F91F5
:103C10000F910895CF93DF93C7EAD1E060E0CE0122
:103C20000E9409282196C11584E0D807B9F7DF91D1
:103C3000CF910895CF92DF92EF92FF920F931F934F
:103C4000CF93DF93C0E0D0E08E01005A1F4F6E018A
:103C500088E1C80ED11CFE01EC51FC4FE590F490B8
:103C60006F2DCE0187960E9409286E2DCE01889671
:103C70000E9409282296CC15DD0569F70C171D074F
:103C800031F7E80100381140F9F6DF91CF911F912B
:103C90000F91FF90EF90DF90CF9008950F931F93B7
:103CA000CF93DF93C42FD0E0CC0FDD1F28E1629FBC
:103CB000C00DD11D112430E6839FC00DD11D1124EC
:103CC000CE0187960E94F527082F10E0102F0027BD
:103CD000CE0188960E94F5279801282BC901DF9113
:103CE000CF911F910F910895462F843038F474308E
:103CF00028F46C3018F4672F0C944E1E80E090E08E
:103D000008959091C80190FF04C09695981740F0CF
:103D100003C0811105C090E0961710F40C942A138B
:103D200061E00C94E612882311F0FA0101C0FB0156
:103D300009946091C801669570E04BE050E08EE018
:103D400091E00E94FE28892B19F481E08093C7013D
:103D50000E94B3179093AB018093AA0108958091BC
:103D6000C80180FF0AC06E9A8EB18F7B9EB19064AD
:103D70002FB7F894E9E4F2E00BC0E9E4F2E0118235
:103D800010821282339632E0E037F307C1F7EBCFAF
:103D900032E0E037F30789F0319148E09EB9000046
:103DA00000C037FF8EB9330F000000C000C000C054
:103DB0008EB900C04A9591F7EBCF2FBF8FE594E005
:103DC0000197F1F700C0000008959F92AF92BF9253
:103DD000CF92DF92EF92FF920F931F93CF93DF93D7
:103DE000FC01A280948081E08483E4EEF2E0B49050
:103DF000E3E6F3E0E491C0E7D2E0F9E4EF2EF2E08D
:103E0000FF2ECC24CA94D12CEB190E2F10E022E007
:103E10002A1530F08091C90188838091CA01898375
:103E2000911003C01B821A8255C08B818823F9F040
:103E300081508B832FEF829FC00111246C8170E031
:103E40000E94BA28FB01FF27EC51FD4F8491E82F17
:103E5000EB192FEFE29FC0011124B8010E94BA288C
:103E60008091CB01689FB00111247A8333C00E94F6
:103E7000E5272091CB012695215830E0A901440F78
:103E8000551F322F2227240F351F232F3327821748
:103E9000930704F582E08A1588F40E94E527B601AD
:103EA0000E94CE2888830E94E5272091CA0126958A
:103EB000622F70E00E94CE28280F29831A828091F9
:103EC000CB01843120F0893C18F088EC01C084E1FA
:103ED0008C838B8397014A81698188810E94591163
:103EE000259623E0E20EF11C82E0C13BD80709F0E1
:103EF0008ECFDF91CF911F910F91FF90EF90DF90C8
:103F0000CF90BF90AF909F900C94AF1EEF92FF9216
:103F10000F931F93CF93DF938C01C9E4D2E0E12C80
:103F2000F12CF8018481F6E0EF16F1041CF48823EB
:103F300039F002C0811104C09E014091CB0102C042
:103F40009E0140E06091CA018091C9010E9459110F
:103F50008FEFE81AF80A23969DE0E916F10409F7B5
:103F60000E94AF1EF801848190E00196817099272C
:103F70008483DF91CF911F910F91FF90EF9008956F
:103F80008F929F92AF92BF92CF92DF92EF92FF9269
:103F90000F931F93CF93DF93EC014C81042F10E01C
:103FA0009801D8010E9491289B01AC010E945C28D5
:103FB0006B017C01E0E2F0E0E01BF10BA5E5B0E075
:103FC0009B01AC010E945C284B015C019F01DF0159
:103FD0000E94EF289B01AC010E9467289B01AC0165
:103FE0002C0D3D1D4E1D5F1DC501B4010E946F28A3
:103FF000822FF22E99E2921728F093E0299F9001E8
:1040000011240DC025E530E0281B3109C901880FB6
:10401000991F280F391F37FF02C02F5F3F4F35957B
:104020002795122F109599E4C92E92E0D92E00E021
:1040300085E5E82EEF1801FD02C08E2D01C08F2D01
:104040009601412F6091CA010E9459110F5F83E0D0
:10405000C80ED11C0D3079F70E94AF1E8C818111E2
:1040600002C091E003C0803219F49FEF90931B01CE
:1040700090911B01890F8C83DF91CF911F910F913C
:10408000FF90EF90DF90CF90BF90AF909F908F9078
:1040900008950F931F93CF93DF93C9E4D2E0FE01FD
:1040A000118210821282339682E0E037F807C1F75E
:1040B00000E010E080914702082E000C990B0817D1
:1040C000190794F080911A01082E000C990B8017A3
:1040D000910754F09E014091CB016091CA018091FB
:1040E000C9010E94591103C0198218821A820F5FF8
:1040F0001F4F23960D301105E9F60E94AF1E8091E7
:10410000190190914702980F9093470220911A014C
:10411000280F20931A01121614F49C301CF081957C
:1041200080931901DF91CF911F910F910895BF9254
:10413000CF92DF92EF92FF920F931F93CF93DF9373
:10414000FC01828180FF03C0DD24DA9402C0DD24FB
:10415000D39409E412E0C0E0D0E02DE0B22EF801E3
:1041600011821082128294E0E92EF12CC12C8091F0
:1041700046028C0D8E302CF06B2D0E94AC28892FBE
:1041800002C087FD835F082E000C990BC817D90762
:1041900091F48091CB018E9DA0018F9D500D112433
:1041A000559547955595479598016091CA0180911D
:1041B000C9010E945911CD0CF1E0EF1AF108B9F6CE
:1041C00021960D5F1F4FCD30D10549F60E94AF1EDD
:1041D0008091460291E0D91206C0811102C08CE0A4
:1041E00007C0815005C090E00196BE010E94CE2814
:1041F00080934602DF91CF911F910F91FF90EF9036
:10420000DF90CF90BF900895EF92FF921F93CF93CE
:10421000DF93EC0189E4E82E82E0F82E10E08C8137
:1042200097014091CB016091CA01810F0E94591101
:104230001D5E83E0E80EF11C173F89F70E94AF1E58
:104240009A818C8190FF02C08F5F01C081508C8366
:10425000DF91CF911F91FF90EF9008950F931F93DF
:104260008091CE029091CF02A091D002B091D10264
:104270008C019D010670112722273327BC01CD0137
:10428000063011052105310511F4686001C0677F12
:104290001F910F910C94B5191F93CF93DF93CDB756
:1042A000DEB7AA970FB6F894DEBF0FBECDBFE6EC1F
:1042B000F2E08091F100819342E0EE3CF407C9F70F
:1042C0008091C702833009F462C030F4813071F00C
:1042D000823009F49CC0B3C08A3009F488C08B30A6
:1042E00009F46DC0893009F0AAC020C08091C602CF
:1042F000813A09F0A4C08091E800877F8093E800AC
:104300008091CA029091CB02892B21F468E08AEB5C
:1043100092E003C060E080E090E070E00E943B2704
:104320008091E8008B778093E80089C08091C60275
:10433000813209F084C08091CA029091CB0200972B
:1043400019F0029709F07BC08091E800877F809385
:10435000E8008091E80082FD05C08091C4028111CF
:10436000F8CF6DC02091F3008091F20090E0922B85
:10437000029729F48091F1008B7F813021F48091A4
:10438000F1008093B9028091E8008B7754C080914E
:10439000C602813A09F053C08091CA029091CB02C3
:1043A000892B09F04CC08091E800877F8093E8005A
:1043B0008091E80080FFFCCF80911C0137C0809184
:1043C000C6028132E1F58091CA029091CB02892B1D
:1043D000B1F58091E800877F8093E8000E94E7268E
:1043E0008091C80280931C010E94511C28C08091BA
:1043F000C602813221F58091E800877F8093E80032
:104400000E94E7268091C9028093B80218C080916B
:10441000C602813AA1F48091E800877F8093E8008A
:104420008091E80080FFFCCF8091B8028093F1007A
:104430008091E8008E778093E8000E94E7268091C3
:10444000E80083FFDDC18091C6029091C702492F29
:1044500050E04A30510508F0D3C1FA01ED57FF4F43
:104460000C94E228803821F0823809F0C9C108C0D4
:104470008091C2029091C302992389F082600FC09B
:104480008091CA028F70873008F0BAC18093E9002A
:104490008091EB0085FB882780F91092E9009091CC
:1044A000E800977F9093E8008093F1001092F1006C
:1044B00070C1282F2D7F09F0A3C1882319F0823005
:1044C00061F09EC18091C802813009F099C193309A
:1044D00009F080E08093C3022EC08091C802811150
:1044E0002AC08091CA028F702FEF280F263008F063
:1044F00087C18093E9002091EB0020FF1CC093301E
:1045000021F48091EB00806214C09091EB009061E7
:104510009093EB0021E030E0A90102C0440F551F49
:104520008A95E2F74093EA001092EA008091EB004E
:1045300088608093EB001092E9008091E800877F0B
:104540008093E8000E94E7265BC1811159C1109158
:10455000C8021F778091E3008078812B8093E3006D
:104560008091E800877F8093E8000E94E726809191
:10457000E80080FFFCCF8091E30080688093E30037
:10458000111102C082E001C083E08093C40238C1EF
:104590008058823008F034C12091C8023091C9029D
:1045A0002C3D53E0350779F583E08A838AE28983DD
:1045B0004FB7F894DE01139620E03EE051E2E32F7E
:1045C000F0E050935700E49120FF03C0E295EF70B4
:1045D0003F5FEF708E2F90E0EA3010F0C79601C079
:1045E000C0968D939D932F5F243149F74FBF8091E3
:1045F000E800877F8093E8006AE270E0CE010196D0
:104600000E943B27B4C08091CA029091CB02432FF5
:10461000552743305105A9F068F44130510509F49C
:10462000FEC04230510509F0EBC08BE590E0E1E4BB
:10463000F6E04BC04132510529F14232510589F172
:10464000DFC0C901992781309105A1F058F0029788
:1046500009F0D6C0EEEAF6E0E4918E2F90E0EEEAA3
:10466000F6E030C0E8EDF6E0E4918E2F90E0E8ED62
:10467000F6E028C0EAEBF6E0E4918E2F90E0EAEB5A
:10468000F6E020C08330910508F0BAC0880F991F6A
:10469000FC01EF59FE4F0190F081E02D89E090E0A0
:1046A00014C08330910508F0ABC0FC01EE0FFF1F72
:1046B000E55AFE4F0190F081E02DDC01A85ABE4F73
:1046C0008C9190E0009709F49BC02091E800277F2F
:1046D0002093E8002091CC023091CD0228173907B1
:1046E00008F4C90140E0009789F12091C402222317
:1046F00009F43DC02530D9F12091E80023FD37C0F1
:104700002091E80022FD2FC02091E80020FFEBCF90
:104710004091F3002091F20030E0342B009759F0E3
:104720002830310540F444914093F10031960197CF
:104730002F5F3F4FF3CF41E02830310509F040E0D3
:104740002091E8002E772093E800CDCF4111CDCF06
:104750000AC08091C402882351F0853041F08091D5
:10476000E80083FD04C08091E80082FFF2CF8091D1
:10477000E8008B778093E80043C0803809F040C0A0
:104780008091E800877F8093E8008091C502809344
:10479000F1008091E8008E77D3CE811131C08091F5
:1047A000C8029091C9029927029754F58091E800B8
:1047B000877F8093E8001091C8021093C5020E9481
:1047C000E726111106C08091E30087FD02C081E059
:1047D00001C084E08093C40242E061EC81E00E9469
:1047E000062742E261EC84E00E94062742E261EC87
:1047F00082E00E94062742E260EC83E00E940627E6
:104800008091E80083FF10C08091E800877F80934B
:10481000E8008091EB0080628093EB0005C082E1AC
:1048200090E0ECE9F6E051CFAA960FB6F894DEBF1F
:104830000FBECDBFDF91CF911F9108951F920F92B0
:104840000FB60F9211242F933F934F935F936F9363
:104850007F938F939F93AF93BF93CF93DF93EF9308
:10486000FF93C091E900CF708091EC00D82FD170F8
:1048700080FDD0E81092E9008091F000877F80935E
:10488000F00078940E944C211092E9008091F00091
:1048900088608093F000CD2BCF70C093E900FF912A
:1048A000EF91DF91CF91BF91AF919F918F917F91C8
:1048B0006F915F914F913F912F910F900FBE0F908D
:1048C0001F901895E8EDF0E080818E7F8083109234
:1048D000E2001092DA001092E100A0EEB0E08C91BC
:1048E00081608C9380818F77808319BCA7EDB0E0C5
:1048F0008C918E7F8C9380818F7E80831092B70203
:104900000895CF92DF92EF92FF920F931F93CF9370
:10491000DF93C8EDD0E088818F7E8883E7EDF0E0FB
:1049200080818160808384E082BF81E08093B702D0
:1049300088818E7F888302EE10E0F8011082109249
:10494000DA0081EEC82ED12CF601108288818F7793
:10495000888388818068888388818F7D888319BC5B
:104960001092C4021092C5021092C3021092C202A9
:1049700090EEE92EF12CF70180818B7F8083888176
:104980008160888342E060E080E00E940627F601B3
:1049900080818E7F8083F801808181608083808127
:1049A00088608083F70180818E7F80838881806129
:1049B0008883DF91CF911F910F91FF90EF90DF904F
:1049C000CF9008951F920F920FB60F9211242F933C
:1049D0003F934F935F936F937F938F939F93AF9387
:1049E000BF93EF93FF938091E10082FF09C0809114
:1049F000E20082FF05C08091E1008B7F8093E1009F
:104A00008091DA0080FF2AC08091D80080FF26C004
:104A10008091DA008E7F8093DA008091D90080FF48
:104A200018C080E189BD82E189BD09B400FEFDCFD7
:104A300081E08093C4028091B70281110FC00E946F
:104A400062240E9481248091E20084608093E200CD
:104A500005C019BC1092C4021092B7028091E10007
:104A600080FF17C08091E20080FF13C08091E200B8
:104A70008E7F8093E2008091E20080618093E2006B
:104A80008091D80080628093D80019BC85E0809323
:104A9000C4028091E10084FF2EC08091E20084FF77
:104AA0002AC080E189BD82E189BD09B400FEFDCF45
:104AB0008091D8008F7D8093D8008091E1008F7E17
:104AC0008093E1008091E2008F7E8093E2008091EC
:104AD000E20081608093E2008091C502882311F09A
:104AE00084E007C08091E30087FD02C081E001C03F
:104AF00083E08093C4028091E10083FF27C080910E
:104B0000E20083FF23C08091E100877F8093E10072
:104B100082E08093C4021092C5028091E1008E7FF2
:104B20008093E1008091E2008E7F8093E20080918B
:104B3000E20080618093E20042E060E080E00E9459
:104B400006278091F00088608093F000FF91EF913C
:104B5000BF91AF919F918F917F916F915F914F9195
:104B60003F912F910F900FBE0F901F90189520919D
:104B7000E4003091E50095E64091EC00842F8170CF
:104B800040FF23C08091E80080FD1DC08091C402D9
:104B9000882399F0853099F08091EB0085FD11C054
:104BA0004091E4005091E5002417350729F3915016
:104BB00011F09A01E1CF84E0089582E0089583E046
:104BC000089581E0089580E008954091E80042FF53
:104BD000DDCF0895EF92FF920F931F93CF93DF9352
:104BE0007C018B010E94B725811119C0E7010115D5
:104BF0001105A1F08091E80085FD0AC08091E800D0
:104C00008E778093E8000E94B725882381F307C040
:104C100089918093F10001501109E9CF80E0DF9183
:104C2000CF911F910F91FF90EF900895882341F04D
:104C30008095909140028923809340020C948418BF
:104C40000895882339F090914002892B8093400287
:104C50000C94841808958823E1F19CEF980F913A01
:104C600060F4EEEDF1E09281891301C01282319679
:104C700041E0E43EF407B9F714C090E2980F983091
:104C800090F4877021E030E0A90102C0440F551F65
:104C90008A95E2F7CA01809590914002892380931A
:104CA00040020C9484189BE5980F933020F480E028
:104CB00090E00C94751D98E5980F973120F480E0F2
:104CC00090E00C945F1D803F20F00E945E130C94D6
:104CD00034130895CF93882309F459C0C82F8CEF5B
:104CE0008C0F813AF8F4E0EEF1E086EE91E021914C
:104CF000C21721F08E179F07D1F70EC0EEEDF1E03D
:104D000084EE91E02281C21301C0128231968E1787
:104D10009F07C1F70E9484186C2F8EED91E00E94CE
:104D2000E81710C080E28C0F883078F4C77081E0FB
:104D300090E001C0880FCA95EAF790914002892B54
:104D400080934002CF910C948418EBE5EC0FE33094
:104D500040F4F0E0E959FE4F808190E0CF910C944F
:104D6000751DE8E5EC0FE73150F4F0E0EE0FFF1FA2
:104D7000E659FE4F80819181CF910C945F1DC03F19
:104D800030F08C2F0E941714CF910C943413CF91D4
:104D900008951F93CF93DF93182F893319F0C0E044
:104DA000D0E002C0C0E5D0E0812F0E946A262097A3
:104DB00041F08FE99FE00197F1F700C000002197D3
:104DC000F6CF812FDF91CF911F910C942B268091EC
:104DD000C60287FF11C08091E80082FD05C0809166
:104DE000C4028111F8CF11C08091E8008B770BC00D
:104DF0008091C402882349F08091E80080FFF8CFB9
:104E00008091E8008E778093E8000895982F97307E
:104E100068F59093E900981739F07091EC002091B3
:104E2000ED005091F00003C0242F762F50E021FDBB
:104E300002C09F5FECCF3091EB003E7F3093EB00E0
:104E40003091ED003D7F3093ED003091EB0031600B
:104E50003093EB007093EC002093ED005093F00042
:104E60002091EE0027FDE5CF80E008958F708093BC
:104E7000E90081E008952091CC023091CD022617FF
:104E8000370748F06115710539F42091E8002E7755
:104E90002093E80001C0B901FC0120E06115710513
:104EA00079F18091C4028823F1F18530F1F180918C
:104EB000E80083FD3CC08091E80082FD2EC0809117
:104EC000E80080FFEBCF2091F3008091F20090E0AA
:104ED000922B6115710551F08830910538F42191BC
:104EE0002093F100615071090196F3CF21E00897FA
:104EF00009F020E08091E8008E778093E800CECF23
:104F00002111CFCF0AC08091C402882361F085307F
:104F100061F08091E80083FD0AC08091E80082FF83
:104F2000F2CF80E0089582E0089583E0089581E063
:104F300008958F929F92AF92BF92CF92DF92EF929D
:104F4000FF92CF93DF93EC01688179818A819B8105
:104F5000611571058105910521F464E279ED8BE518
:104F600097E02DE133EF41E050E00E943D284901F8
:104F70005A019B01AC01A7EAB1E40E945C286B01D5
:104F80007C01ACEEB4EFA50194010E946A28DC011B
:104F9000CB018C0D9D1DAE1DBF1DB7FF03C001973A
:104FA000A109B04888839983AA83BB839F77DF9147
:104FB000CF91FF90EF90DF90CF90BF90AF909F90F8
:104FC0008F9008950E949927089580E091E00E94B3
:104FD00099270895A0E0B0E080930001909301012B
:104FE000A0930201B09303010895F999FECF92BDF9
:104FF00081BDF89A992780B50895A6E1B0E044E014
:1050000050E00C942F28A8E1B0E042E050E00C946E
:105010002F28262FF999FECF92BD81BDF89A0197CE
:1050200000B4021639F01FBA20BD0FB6F894FA9AF0
:10503000F99A0FBE08950396272F0E940A280E940E
:105040000928252F0E940A28242F0C940A2801964B
:10505000272F0E940A280C940928DC01CB01FC01AF
:10506000F999FECF06C0F2BDE1BDF89A319600B4C1
:105070000D9241505040B8F70895052E97FB1EF44D
:1050800000940E94542857FD07D00E946F2807FC07
:1050900003D04EF40C9454285095409530952195AA
:1050A0003F4F4F4F5F4F0895909580957095619554
:1050B0007F4F8F4F9F4F08950E949128A59F900D7D
:1050C000B49F900DA49F800D911D11240895B7FFEA
:1050D0000C945C280E945C28821B930B0895A1E22B
:1050E0001A2EAA1BBB1BFD010DC0AA1FBB1FEE1F62
:1050F000FF1FA217B307E407F50720F0A21BB30BAD
:10510000E40BF50B661F771F881F991F1A9469F728
:1051100060957095809590959B01AC01BD01CF0184
:105120000895A29FB001B39FC001A39F700D811D80
:105130001124911DB29F700D811D1124911D0895A0
:10514000991B79E004C0991F961708F0961B881FD9
:105150007A95C9F78095089587FB082E062687FD66
:10516000819567FD61950E94A0280EF4919507FC3A
:1051700081950895AA1BBB1B51E107C0AA1FBB1F45
:10518000A617B70710F0A61BB70B881F991F5A95D3
:10519000A9F780959095BC01CD01089597FB072E46
:1051A00016F4009407D077FD09D00E94BA2807FCB6
:1051B00005D03EF4909581959F4F08957095619527
:1051C0007F4F0895EE0FFF1F0590F491E02D099495
:1051D00069279627692778278727782708950E94C7
:1051E0009128332312F48A1B9B0B0C94F9280E94FC
:1051F0009128B7FF0895821B930B0895FC0141503D
:10520000504030F001900616D1F73197CF01089544
:0A521000882799270895F894FFCF2E
:10521A0001000000D0162E170F170B1707170119D8
:10522A001A1B1C1D1E1F20212201020101F06736D4
:10523A0095F1F4F5F6F766333790939291000102EF
:10524A000202020606060909090909090F0F0F0FCA
:10525A000F0F1515151819191919191919191919D5
:10526A00232425252525252540227B0106DF0564E3
:10527A000553066C068C06818283E200E900EA0087
:10528A00B500B600B700CD008301CC008A019201B7
:10529A0094012102230224022502260227022A025D
:0852AA00B300B4006F007000B6
:00000001FF
