:100000000C94D4040C941B050C941B050C941B0538
:100010000C941B050C941B050C941B050C941B05E0
:100020000C941B050C941B050C9495290C94D12859
:100030000C94C81A0C941B050C941B050C941B05FE
:100040000C941B050C941B050C941B050C941B05B0
:100050000C942C220C94871A0C941B050C941B05F1
:100060000C941B050C941B050C941B050C941B0590
:100070000C941B050C941B050C941B050C941B0580
:100080000C941B050C941B050C941B050C941B0570
:100090000C941B050C941B050C941B050C941B0560
:1000A0000C941B050C941B050C941B056C096F0923
:1000B0009A09A709AE09CE09D1092E0A680A0E0BC2
:1000C0000E0B770A790A7C0AA10AC30AC60AC90A72
:1000D000ED0A640F660F6A0F6C0F6F0F720F740FCB
:1000E000790F7B0F7D0F7F0F810F840F870F8B0F91
:1000F000900FFC0FFE0F0210041007100A100C10D6
:10010000111013101510171019101C101F102310A8
:100110002810A516A516DF16DF1638175417EA188B
:10012000EA185F173D184E184E18251927192F1970
:1001300065197E193F199919AC1CAC1CBF1CBF1C5A
:10014000B51CBF1CBF1CBF1CAC1CAC1CBA1CBF1C0C
:10015000BF1CBA1CE5260C27B3280C27B328582748
:100160007B27B328702880281E0F0500047F3F1FBF
:10017000643214643214783C1E1E140A0500010116
:100180000101010101010102020202020202020256
:100190000303030303030303040404040404040526
:1001A00005050505060606060607070707070808EA
:1001B0000808090909090A0A0A0B0B0B0C0C0C0D9B
:1001C0000D0D0E0E0E0F0F0F101011111112121334
:1001D000131414151516161717181819191A1A1BAF
:1001E0001B1C1D1D1E1E1F2020212222232424250E
:1001F0002626272829292A2B2C2D2D2E2F30313247
:1002000032333435363738393A3B3C3D3E3F404156
:1002100042434445464748494A4C4D4E4F5051533E
:1002200054555658595A5B5D5E5F616264656668F5
:10023000696B6C6D6F7072737577787A7B7D7E8079
:1002400082838587888A8C8E8F91939596989A9CC5
:100250009EA0A2A3A5A7A9ABADAFB1B3B5B7BABCD9
:10026000BEC0C2C4C6C9CBCDCFD1D4D6D8DBDDDFAA
:10027000E2E4E7E9EBEEF0F3F5F8FAFDFFFFAA7F21
:1002800055400000000000000000000000000000D9
:10029000000000000000000000000000000000005E
:1002A0000000000000007E0F00D4FFFFFFC7000029
:1002B000007800000000000000002A2B2800000049
:1002C0000000000000000000000000000029000005
:1002D00000002C1E3420212224342627252E362DE2
:1002E0003738271E1F202122232425263333362E7C
:1002F00037381F0405060708090A0B0C0D0E0F10EE
:100300001112131415161718191A1B1C1D2F313032
:10031000232D350405060708090A0B0C0D0E0F10D6
:100320001112131415161718191A1B1C1D2F313012
:10033000354C2223252628292A2C2D2F30323335DF
:1003400036383A3B3D3E4042434547494A4C4E5081
:1003500051535557595A5C5E6062646668696B6DAB
:100360006F71737577797B7D7F81838587898A8CAF
:100370008E90929496989A9C9E9FA1A3A5A7A8AAB6
:10038000ACAEAFB1B3B4B6B8B9BBBCBEBFC1C2C3EB
:10039000C5C6C7C9CACBCCCDCED0D1D2D2D3D4D585
:1003A000D6D7D7D8D9D9DADADBDBDBDCDCDCDCDCAE
:1003B000DDDDDDDDDCDCDCDCDCDBDBDBDADAD9D986
:1003C000D8D7D7D6D5D4D3D2D2D1D0CECDCCCBCA14
:1003D000C9C7C6C5C3C2C1BFBEBCBBB9B8B6B4B33A
:1003E000B1AFAEACAAA8A7A5A3A19F9E9C9A9896D0
:1003F0009492908E8C8A89878583817F7D7B7977A3
:100400007573716F6D6B6968666462605E5C5A5982
:1004100057555351504E4C4A4947454342403E3D43
:100420003B3A3836353332302F2D2C2A29282625D1
:100430002322000000000000000000000001010273
:1004400003040506080A0C0F1114181C2024292E79
:1004500033393F464C535B626A7179818A929AA222
:10046000AAB2B9C1C8CFD5DCE1E7EBF0F4F7FAFCEA
:10047000FDFEFFFEFDFCFAF7F4F0EBE7E1DCD5CF83
:10048000C8C1B9B2AAA29A928A8179716A625B5391
:100490004C463F39332E2924201C1814110F0C0A06
:1004A000080605040302010100000000000000002E
:1004B000000029003A003B003C003D003E003F00A8
:1004C0004000410042004300440045004C0046000B
:1004D0004700480035001E001F00200021002200B8
:1004E000230024002500260027002D002E002A00CE
:1004F00049004A004B002B0014001A0008001500A8
:1005000017001C0018000C00120013002F00300010
:1005100031004C004D004E00390004001600070069
:1005200009000A000B000D000E000F00330034001C
:1005300020022800000000000000E10031001D0042
:100540001B000600190005001100100036003700DE
:100550003800E100E100000052000000E000E3008C
:10056000E2000000000000002C000000000000007D
:10057000E200E3000151E000500051004F00010093
:100580000100010001000100010001000100010063
:100590000100010001000100010001000100010053
:1005A0000100010001000100010001000100010043
:1005B0000100010001000100010001000100010033
:1005C0000100010001000100010001000100010023
:1005D0000100010001000100010001000100010013
:1005E0000100010001000100010001000100010003
:1005F00001000100010001000100010001000100F3
:1006000000000000000001000100010001000100E5
:1006100001000100010001000100010001000100D2
:1006200001000000010000000100010001000000C5
:1006300000000000010000000000000001000100B7
:1006400001000100010001000100010001000100A2
:100650000100010001000100010001000100010092
:100660000100010001000100010001000100010082
:100670000100010001000100010001000100010072
:100680000100010001000100010001000100010062
:100690000100010001000100010001000100010052
:1006A0000100010001000100010001000100010042
:1006B0000100010001000100010001000100010032
:1006C0000100010001000100010001000000000024
:1006D0000000010001000100010001000100010013
:1006E0000100010001000100010001000100000003
:1006F00001000000010001000100000000000000F6
:1007000001000000000000000100010001000100E4
:1007100001000100010001000100010001000100D1
:1007200001000100010001000100010001000100C1
:1007300001000100010001000100010001000100B1
:1007400001000100010001000100010001000100A1
:100750000100010001000100010001000100010091
:100760000100010001000100010001000100010081
:100770000100010001000100010001000100010071
:100780000100010001000100010001000100010061
:100790000100010001000100000000000000010054
:1007A0000100010001000100010001000100010041
:1007B0000100010001000100010000000100000033
:1007C0000100010001000000000000000100000025
:1007D0000000000001000100010001000100010013
:1007E000010005010902A10185020901A100050915
:1007F00019012908150025019508750181020501D7
:10080000093009311581257F95027508810609385F
:100810001581257F950175088106050C0A3802159A
:1008200081257F950175088106C0C005010980A159
:1008300001850319012AB700150126B70095017536
:10084000108100C0050C0901A101850419012AA02D
:1008500002150126A002950175108100C00501094D
:1008600006A1018505050719E029E7150025019571
:1008700008750181020507190029EF15002501956A
:10088000F075018102050819012905950575019189
:1008900002950175039101C00660FF0961A101097C
:1008A00062150026FF009520750881020963150076
:1008B00026FF00952075089102C005010906A101D7
:1008C000050719E029E71500250195087501810242
:1008D0009501750881010507190029FF150026FFFC
:1008E000009506750881000508190129059505750B
:1008F000019102950175039101C009025B0003019A
:1009000000A0FA09040000010301010009211101FE
:1009100000012240000705810308000109040100CD
:100920000203000000092111010001222200070535
:1009300082032000010705030320000109040200CF
:10094000010300000009211101000122B600070582
:10095000840320000112011001000000084C4D70BA
:10096000080100010200011E0353006500720072BD
:10097000006100740075007300200052006500766D
:10098000002E00310000001A034D0041004E0055BA
:1009900000460041004300540055005200450052FB
:1009A000000000040309040011241FBECFEFDAE0A9
:1009B000DEBFCDBF04B603FE27C08091A703909190
:1009C000A803A091A903B091AA038730904BA74038
:1009D000B04BD1F41092A7031092A8031092A90370
:1009E0001092AA0314BE84B7877F84BF0FB6F89411
:1009F000A8958091600088618093600010926000EB
:100A00000FBEE0E0F8E3099511E0A0E0B1E0E6EC0C
:100A1000FBE502C005900D92AE38B107D9F723E08F
:100A2000AEE8B1E001C01D92A73AB207E1F70E941B
:100A30001D050C94E12D0C940000CF93DF93CDB7EE
:100A4000DEB7E0970FB6F894DEBF0FBECDBF84B718
:100A5000877F84BF0FB6F894A89580916000886165
:100A600080936000109260000FBE90E080E80FB6A7
:100A7000F89480936100909361000FBE85B7806801
:100A800085BF85B7806885BF87EC99E190938F011A
:100A900080938E010E9415290E9434298091E200E2
:100AA00084608093E2007894809199038823A1F078
:100AB0001091E9001F709091EC00892F817090FDDA
:100AC00080E8182B1092E9008091E80083FD0E94D5
:100AD000FF251F701093E90082E084BD93E095BD6F
:100AE0009AEF97BD80936E00769A289889982D9AF0
:100AF0002F9A889AADE1B1E041E050E08D91E82F66
:100B0000E295EF70F0E021A18F706A0102C0CC0C79
:100B1000DD1C8A95E2F7C6019C2D9095922391A346
:100B200092A1892B82A321E0A332B20739F7259A3B
:100B3000279A809A209A819A6E9AE5E9F1E08DEAE7
:100B400091E0A7EEB1E011921192119211921D92D3
:100B50001D921D921D928E179F07A9F780E090E0CD
:100B60000E94C92C8A3E9E4F11F00E945F1B82E0BA
:100B700090E00E94BB2C8093C6010E944E1B909374
:100B80009101809390010E943D0F8FE39CE90197B2
:100B9000F1F700C000000E943D0F8091E70180FF47
:100BA00017C06FEF83E290E00E94CF2C6FEF84E2DA
:100BB00090E00E94CF2C6FEF85E290E00E94CF2C56
:100BC0006FEF7FEF80E090E00E94ED2C0E94631AAF
:100BD00083E090E00E94BB2C682F70E080E090E002
:100BE0000E94871D579A5F98569A5E98249A2C986F
:100BF000269A2E9882E28093800089E1809381007A
:100C00008FEF9FEF90938700809386000E940623CA
:100C10008091DF0181FF0BC010929401109293012B
:100C20001092920180916F00816080936F0083E247
:100C300090E00E94BB2C813281F484E290E00E941B
:100C4000BB2C873051F485E290E00E94BB2C91E0F0
:100C5000883209F090E0892F01C080E080FF27C52D
:100C60000E9406238091AD01811136C080E090E0A2
:100C70000E94C92C8A3E9E4F21F00E945F1B0E9459
:100C8000150C88E090E00E94C32C6093E201709301
:100C9000E3018093E4019093E5016E7F71F40E947B
:100CA000150C88E090E00E94C32C6093E2017093E1
:100CB000E3018093E4019093E5010E94CE0B109232
:100CC000E1018091E20180FF04C060E086950E940E
:100CD000B10D81E08093AD0184E091E09093AF018C
:100CE0008093AE0158E1252E312C8E010F5F1F4FEE
:100CF00080919903853009F083C030E1E32E42E111
:100D0000F42E80919903853009F061C08091990398
:100D1000843009F445C080E00E94912280E00E9466
:100D200007121092E1018091B201811117C0B1E068
:100D3000B093B2018091E201982F91709093B1012C
:100D40008E7F8093E201EFEFF0E722E0E150F04088
:100D50002040E1F700C000000E9462231092B00121
:100D600030E40FB6F894A895209260000FBE30933F
:100D7000600083B7817F846083BF83B7816083BF56
:100D80007894889583B78E7F83BF0FB6F894A89523
:100D900080916000886180936000109260000FBEB7
:100DA00080919803882309F4ACCF0E943D0FE7EEB1
:100DB000F1E081919191A191B191892B8A2B8B2B9B
:100DC00009F056C441E0EF3FF40799F79ACF0E942B
:100DD000B61F0E9406230E9436210E94071210921D
:100DE000B2018091B101882349F08091E2018160D4
:100DF0008093E20160E086950E94B10D0E944C2331
:100E00000E943D0F882359F08FB7F8944091FF015D
:100E10005091000260910102709102028FBFA7EC15
:100E2000B1E0E7EEF1E018AA1FA69FA5819091908E
:100E3000A190B1904D915D916D917D91482559257D
:100E40006A257B25411551056105710509F447C0E7
:100E500080E0412C512C320143946A017B01C42073
:100E6000D520E620F720CD28CE28CF2881F189A3F0
:100E70009AA3B501A401442155216621772181E07F
:100E8000452B462B472B09F480E08BA30E94BC1A0C
:100E90008160782F9DA38CA349A15AA16BA18DA13C
:100EA0000E946C20EFA5F8A9EE0FFF1FEE0FFF1FA9
:100EB000E953FE4F80819181A281B3814826592652
:100EC0006A267B26408251826282738222C08F5FB3
:100ED000440C551C661C771C813109F0BECF2FA530
:100EE00038A92F5F3F4F38AB2FA72630310509F0C7
:100EF0009CCF8FEF8EA38FA318A60E94BC1A81608F
:100F0000782F9AA789A74EA15FA168A58AA50E94FC
:100F10006C208091E101882309F4AAC08091E0014E
:100F2000E091E201E695E81BE093B501823059F4C7
:100F3000F0E0E758FE4FE491EE2EF12C98E5C92E33
:100F400090E2D92E70C0863059F4F0E0EA58FE4F96
:100F5000E491EE2EF12C88E4C82E80E2D82E63C0F6
:100F6000893061F4E695F0E0ED58FE4FE491EE2E05
:100F7000F12CB7EBCB2EB5E2DB2E55C08F3061F4F0
:100F8000E695F0E0E059FE4FE491EE2EF12CAAE454
:100F9000CA2EA5E2DA2E47C0853159F4F0E0E359B4
:100FA000FE4FE491EE2EF12CFCEFCF2EF4E2DF2E7B
:100FB0003AC08831F9F0833249F4EBE6F1E0E5908C
:100FC000F490E8E0CE2EE0E2DE2E2DC08432D1F0A7
:100FD000853209F58E2F63E00E94762DE92FF0E02F
:100FE000E859FE4FE491EE2EF12C78E9C72E73E21A
:100FF000D72E19C058E2E52EF12C63E7C62E64E225
:10100000D62E11C034EFE32EFF24F39449E3C42E0F
:1010100044E2D42E08C090EDE92E97E0F92E27E0A7
:10102000C22E20E2D22E8091B601882361F0109268
:10103000B6010E94BC1A9093B4018093B301109240
:10104000B8011092B7010E94BC1AE091B301F0916F
:10105000B4018E1B9F0B8F3F9F4750F4EE0EFF1E77
:10106000F092B401E092B30183EB91E0F6010995AF
:1010700086E0EFEBF1E0D80101900D928A95E1F75F
:10108000C090C101D090C201E090C301F090C401B2
:101090001092C1011092C2011092C3011092C401BA
:1010A000C11003C0DD2009F451C08091BD019091B1
:1010B000BE010E94AD1A9C019091BC01992309F4D4
:1010C0000FC32333310508F441C09F3F19F09F5FE0
:1010D0009093BC01CC2061F00E94C20E1C1414F449
:1010E00091E001C09FEF899F802D11248093C10161
:1010F000DD2061F00E94C20E1D1414F491E001C0C5
:101100009FEF899F802D11248093C2013091C101EE
:101110003323E1F02091C2012223C1F045EB3403D7
:10112000C0011124992319F09093C10103C061E01B
:101130006093C10175EB2703C0011124992319F0B5
:101140009093C20103C081E08093C201E11003C00B
:10115000FF2009F451C08091BA019091BB010E9417
:10116000AD1A9C019091B901992309F4BEC22536AC
:10117000310508F441C09F3F19F09F5F9093B9017A
:10118000EE2061F00E94A00E1E1414F491E001C044
:101190009FEF899F802D11248093C301FF2061F070
:1011A0000E94A00E1F1414F491E001C09FEF899FCC
:1011B000802D11248093C4013091C3013323E1F0C9
:1011C0002091C4012223C1F045EB3403C001112456
:1011D000992319F09093C30103C061E06093C301A8
:1011E00075EB2703C0011124992319F09093C401D2
:1011F00003C081E08093C4018091C10181110BC0C3
:101200008091C201811107C08091C301811103C087
:101210008091C40181110E94FF0DCB82DC82ED829E
:10122000FE8286E0F801AFEBB1E001900D928A9565
:10123000E1F70E9436219091C501891731F00E9493
:1012400036218093C5010E94071280919903843052
:1012500009F04ECD83E08093E9008091E80082FFA1
:1012600047CD8091E80085FF21C00E946A2A811144
:101270001BC080E2E82EF12C680109C08091F100CA
:10128000D6018D936D01B1E0EB1AF10869F0809100
:10129000E80085FDF3CF8091E8008B778093E8002C
:1012A0000E946A2A882399F391E001C090E080911E
:1012B000E8008B778093E800992309F419CDE98140
:1012C0008E2F90E0FC013197E331F10508F0A6C1C3
:1012D000EA5AFF4F0C94B82D1A8289E0F7C08A8130
:1012E000823009F4DBC1833089F0813009F096C186
:1012F0002FB7F8948091FF0190910002A091010214
:10130000B09102022FBFBB83AC8326C0F801AE01AF
:101310004D5E5F4F27EE31E0D901CD90DD90ED902D
:10132000FD909D01E282D382C48233964E175F07FF
:1013300099F776C18A81823009F070C16B817C8116
:101340008D819E810E94BE2D86E290E024C04C815A
:101350006B818A810E94F9219D83A7C1CD80DE80A7
:10136000DC24CD24DC248C81EB809A81B2E2EB9EDC
:1013700070011124ECEC9E9FE00CF11C1124E80E8E
:10138000F11CE80EF11C6D2DC70187960E94CF2C31
:101390006C2DC70188960E94CF2C42C10E94C521A6
:1013A0003FC18A81893019F08A3071F015C08B8174
:1013B000F3E08F9FC00111246FEF70E00E94902D29
:1013C000862F0E94ED2208C08B81811103C00E94EC
:1013D000C22202C00E94D8228A818138B1F050F422
:1013E000803809F01DC120E04B816091E4018091BB
:1013F000E30131C0823859F1833809F011C120E08E
:101400004091E5016C818B8126C060E08B810E9458
:10141000B10D9B818091E201911111C08E7F80936B
:10142000E2011092E1012FEF30E742E0215030401D
:101430004040E1F700C000000E946223F1C08160DB
:101440008093E20160E086950E94B10DE9C08B8136
:101450008093E601E5C00E94D40CE2C08A81893005
:1014600039F08A30A1F48091DF01869581702EC019
:101470008091DF018695869586956FEF869FC001E6
:10148000112463E070E00E94902D6B83C9C0813805
:1014900099F030F4803809F0C3C08091E50116C09E
:1014A000823891F0833809F0BBC08091E3018B83CF
:1014B0008091E4018C83B4C08091E20180FF02C07E
:1014C000869504C080E002C08091E6018B83A8C0AD
:1014D0008091DF010E94BD226091E2017091E301E1
:1014E0008091E4019091E5010E94E10B99C080E1B7
:1014F0004EC01A8289EAEACFEA80FB80FE24EF24FC
:10150000FE246C80712C6801C701895A9C4F96019A
:10151000201B310B2615370508F082C079EAE71643
:10152000F10430F40E94BB2CD60114968C9302C0B7
:10153000F6011482FFEFEF1AFF0A2FEFC21AD20A48
:10154000E3CFEA80FB80FE24EF24FE246C80712C24
:101550006801C701895A9C4F9601201B310B261543
:10156000370508F05DC039EAE316F10428F4D60126
:1015700014966C910E94CF2CBFEFEB1AFB0AEFEF91
:10158000CE1ADE0AE6CF0E94B5214AC084E08A83E3
:1015900047C0EA80FB80FE24EF24FE246C80712C7F
:1015A0006801C70187969601201B310B2615370568
:1015B000B8F5F0E3EF16F3E0FF0630F40E94BB2C21
:1015C000D60114968C9302C0F6011482FFEFEF1A35
:1015D000FF0A2FEFC21AD20AE4CFEA80FB80FE2472
:1015E000EF24FE246C80712C6801C7018796960158
:1015F000201B310B2615370598F430E3E31633E052
:10160000F30628F4D60114966C910E94CF2CBFEFFC
:10161000EB1AFB0AEFEFCE1ADE0AE7CF8FEF8983D2
:1016200080919903843009F063CB8091E9008F7039
:101630002091EC00922F917020FD90E8F92EF82A6D
:1016400082E08093E9008091E80080FF0CC040E0D8
:1016500050E060E270E0C8010E949D2A8091E8009D
:101660008E778093E8008F2D8F708093E90040CBB8
:10167000E9BCF9BC09B400FEFDCF8091D8008F7D94
:101680008093D8008091E00082608093E000809198
:10169000E00081FDFCCF0E94B61F33CB86E290E0D4
:1016A0000E94BB2C1B821C821D828E83B9CF60E0FE
:1016B00086E290E00E94CF2C0E94C5210E94B521B5
:1016C00061E283E290E00E94CF2C67E084E290E048
:1016D0000E94CF2C68E285E290E00E94CF2CC0CA25
:1016E0002D32314008F0F3CC31CD2D32314008F0AD
:1016F00044CD82CD9091900192FF0DC0282F28718A
:10170000283019F4877F846006C0282F2471243084
:1017100011F48B7F886093FF0DC0282F287128312A
:1017200019F4877E846106C0282F2471243111F4B6
:101730008B7E88612091910120FF0DC0382F387178
:10174000383019F4877F816006C0382F317131300D
:1017500011F48E7F886021FF0DC0282F2871283159
:1017600019F4877E816106C0282F2171213111F47F
:101770008E7E886194FD877E08959091E20190FFAE
:101780000CC0EEEAF2E0818360834283339692E0FC
:10179000E63FF907C1F70C94622308958091E201B6
:1017A000282F269530E02115310519F481708260CB
:1017B00005C02B32310524F0817084658093E201ED
:1017C0000895CF92DF92EF92FF926B017C010E940D
:1017D000CE0BB701A60188E090E0FF90EF90DF907C
:1017E000CF900C94E12C8091E601882319F0815070
:1017F0008093E6016091E2017091E3018091E40140
:101800009091E5010C94E10B8091E601833018F48E
:101810008F5F8093E6016091E2017091E301809116
:10182000E4019091E5010C94E10BE2EEF1E083E03C
:10183000808311828FEF8283838314826081718120
:10184000828193810C94E10BAF92BF92CF92DF9291
:10185000EF92FF920F931F93CF93DF93E82EF62E14
:10186000E901E42FF0E0611106C0E358FE4FE49176
:101870004E2F2E2F71C0062F10E0E358FE4F4491DB
:10188000F42FC42ED12C26E0829FC00111242FEF0B
:1018900030E0B9010E94902D5BEA5603C001579FCA
:1018A000900D11248E0D911D8E0D911D582F550FE9
:1018B000580FD901A01BB10BAC9DC001AD9D900D7F
:1018C000BC9D900D1124E92FF59ED0011124AB2F62
:1018D000BB277901EA1AFB0AEC9CD001ED9CB00D04
:1018E000FC9CB00D11245901A51AB108A09E7001ED
:1018F000A19EF00CB09EF00C1124EF2CFF242E19A9
:101900003F092C9D80012D9D100D3C9D100D112433
:10191000212F6230710591F048F461157105E1F0F5
:1019200061307105B9F4242F4B2F16C06430710556
:1019300069F040F06630710579F00CC0242F492F12
:10194000E12F0AC0492FEF2F2B2F06C0292FE42F9C
:10195000412F02C0292FEB2F49832883EA83DF918F
:10196000CF911F910F91FF90EF90DF90CF90BF909C
:10197000AF900895CF93DF9300D01F92CDB7DEB71D
:101980009091E20190FF0AC09E012F5F3F4F0E949D
:10199000240C4B8169818A810E94BD0B0F900F90AE
:1019A0000F90DF91CF9108955F926F927F928F9207
:1019B0009F92AF92BF92CF92DF92EF92FF920F93DE
:1019C0001F93CF93DF9300D01F92CDB7DEB7182FB0
:1019D000762E042F622E9091E20190FF6DC0E92FC8
:1019E000E695AE2FB0E0AD5DBE4F8C918093E001E7
:1019F0009E7F923061F49E012F5F3F4F812F0E94A6
:101A0000240C4B8169818A810E94BD0B43C08230C6
:101A100019F40091E5013EC0863019F41091E301FC
:101A200039C08930D9F38931A9F5E9518E2F8170F8
:101A3000582EE695F0E0E358FD4FA590B4908EEA5D
:101A4000C82E82E0D82EE12CF12CBB2498E1892EFF
:101A5000912CAE9CC001AF9C900DBE9C900D1124AA
:101A6000B4010E94902D812F511002C0860F01C039
:101A7000861B9601402F672D0E94240C8FEFE81AD9
:101A8000F80A83E0C80ED11C88E1E816F10409F7D2
:101A90000E9462231093E3017092E4010093E50138
:101AA000662051F06091E2017091E3018091E401C0
:101AB0009091E5010E94E10B0F900F900F90DF9144
:101AC000CF911F910F91FF90EF90DF90CF90BF903B
:101AD000AF909F908F907F906F905F900895E2EE0F
:101AE000F1E0438128E0421B08F440E021E06281FC
:101AF00081810C94D40CE2EEF1E0438128E0420FA6
:101B000008F44FEF21E0628181810C94D40CE2EE65
:101B1000F1E0628128E0621B08F460E021E043818B
:101B200081810C94D40CE2EEF1E0628128E0620F36
:101B300008F46FEF21E0438181810C94D40CE2EE34
:101B4000F1E0818121E04381628188500C94D40CC2
:101B5000E2EEF1E0818121E043816281885F0C94B3
:101B6000D40C9091E20190FF36C09170811102C0B7
:101B7000926006C08B3210F0946502C0880F982BDB
:101B80009093E201662351F06091E2017091E301CC
:101B90008091E4019091E5010E94E10B6091E201E6
:101BA000669570E04BE050E08EE091E00E94D42D0D
:101BB000892B19F01092E10102C00E944C2381E0B0
:101BC0008093B60120E04091E5016091E4018091AD
:101BD000E3010C94D40C08958091E2018695815024
:101BE00009F48AE261E00C94B10D8091E2018695DE
:101BF0008F5F8B3208F081E061E00C94B10D0E94A0
:101C0000BC1A2091C101211104C02091C2012223DC
:101C100021F09093BE018093BD012091C301211159
:101C200004C02091C401222321F09093BB01809332
:101C3000BA01E091AE01F091AF01309749F082E036
:101C40008093BF010480F581E02D8FEB91E0099432
:101C50000895803F39F49091C20197FF35C01092EA
:101C6000C20159C0813F29F49091C2011916BCF3F9
:101C70002BC09091C101823F29F497FF25C010929B
:101C8000C10149C0833F19F41916CCF31DC09091CE
:101C9000C301893F29F41916BCF41092C3013BC05B
:101CA0008A3F19F497FF10C0F8CF8B3F39F4909119
:101CB000C40197FF09C01092C4012DC08C3F21F4CC
:101CC0009091C4011916BCF39CE0980F953080F4F4
:101CD00021E030E0A90102C0440F551F9A95E2F7B8
:101CE000CA0180959091C00189238093C00113C0DF
:101CF0008D3F21F4809128028E7F0BC08E3F21F40E
:101D0000809128028D7F05C08F3F29F480912802A1
:101D10008B7F809328028091C101811106C0809140
:101D2000C201811102C01092BC018091C3018111D6
:101D300006C08091C401811102C01092B9010895BA
:101D40008091280280FD16C081FD16C082FD18C05A
:101D50008091B901882391F0883290F428E0829F25
:101D6000C001112468E270E00E94A42D862F672B29
:101D700029F007C082E0089584E0089581E0089585
:101D800088E008958091280280FD14C081FD14C070
:101D900082FD16C08091BC01882381F0843180F4DB
:101DA00022E3829FC001112464E170E00E94A42D0F
:101DB000862F08958CE0089589E1089585E00895BF
:101DC00082E30895803F21F40E94C20E819504C0F1
:101DD000813F29F40E94C20E8093C2010895823F80
:101DE00021F40E94C20E819504C0833F29F40E9411
:101DF000C20E8093C1010895893F19F40E94A00E7C
:101E000005C08A3F31F40E94A00E81958093C301E2
:101E100008958B3F21F40E94A00E819504C08C3F51
:101E200029F40E94A00E8093C40108959CE0980FAD
:101E3000953078F421E030E0A90102C0440F551F2D
:101E40009A95E2F7CA019091C001892B8093C00155
:101E500008958D3F21F48091280281600BC08E3F50
:101E600021F480912802826005C08F3F29F480917F
:101E7000280284608093280208952F923F924F9207
:101E80005F926F927F928F929F92AF92BF92CF920A
:101E9000DF92EF92FF920F931F93CF93DF9300D0C7
:101EA00000D000D0CDB7DEB780E090E01D82882E54
:101EB000912CF4013197E031F10520F4E759FF4FFF
:101EC0000C94B82D2D9809C02D980AC02D982F9AE2
:101ED00088980DC02D9809C02D9A2F98F9CF2D9A6A
:101EE0002F9804C02D9AF3CF2D9A2F9A889A289A6A
:101EF00018C02D9807C02D9808C02D980DC02D989A
:101F000007C02D9A2F9809C02D9A2F9802C02D9A9C
:101F10002F9A889A03C02D9A2F9A8898899A01C07F
:101F2000769820EA2A95F1F701E010E020E030E011
:101F3000082E04C0000F111F221F331F0A94D2F76E
:101F400068017901C094D094E094F0944DE151E09F
:101F50005A83498345E9242E41E0342EF1011E8243
:101F6000FC83EB834081518162817381A981BA81B5
:101F70007D90BA83A983A72DA295AF70B0E090960B
:101F8000AC914A2E512CB72DBF707B2ED20102C0CE
:101F9000B595A7957A94E2F72A013B01A0FD05C00B
:101FA000402A512A622A732A04C04C205D206E20E8
:101FB0007F2040825182628273823496AB81BC81E1
:101FC0004D905D906D907C904415550566057705A4
:101FD00011F0B1E0BE834DEA51E04E175F0709F002
:101FE000BFCFF4013197E031F10520F4E758FF4FFE
:101FF0000C94B82D2D9A09C02D9A0AC02D9A2F98AD
:10200000889A0DC02D9A09C02D982F9AF9CF2D9836
:102010002F9A04C02D98F3CF2D982F988898289840
:1020200018C02D9A07C02D9A08C02D9A0DC02D9A60
:1020300007C02D982F9A09C02D982F9A02C02D986D
:102040002F98889803C02D982F98889A899801C056
:10205000769A5D81AE815A2B5D830196813191051F
:1020600009F025CF552349F081E0809305020E94B5
:10207000BC1A909304028093030280910502882386
:10208000E9F080910302909104020E94AD1A069734
:10209000A8F027EE31E0F10181919191A191B191E8
:1020A0001F01F90181939193A193B1939F01FDEADF
:1020B0002F16F1E03F0679F7109205028D812696E2
:1020C0000FB6F894DEBF0FBECDBFDF91CF911F9149
:1020D0000F91FF90EF90DF90CF90BF90AF909F90C7
:1020E0008F907F906F905F904F903F902F900895CA
:1020F000CF93DF930E941F22EC018238910559F1A2
:10210000A0F48133910509F473C040F4893291053C
:1021100009F467C08A9709F472C084C085339105B9
:1021200009F458C0C997B9F07DC0833E910571F19B
:1021300038F4803E9105B1F0823E910511F172C0F4
:10214000863E9105B9F1873E9105C9F1843E91051E
:1021500009F068C024C08091900180FD5DC081FDC0
:102160005BC060C08091900180FD50C08091910162
:1021700080FF49C18091900184FD43C1C3EED0E04E
:1021800042C18091900182FF3EC1F4CF80919001C5
:1021900082FD3FC08091910180FD3EC0EBCF8091D8
:1021A000910181FF30C18091900184FD2AC1C7EE69
:1021B000D0E029C18091900183FF25C1F4CF8091A7
:1021C000900183FD2CC08091910181FFECCFC4EE82
:1021D000D0E019C18091900185FF15C1C9E2D0E01E
:1021E00012C18091900185FF0EC1C5E3D0E00BC103
:1021F0008091900186FF07C1CAE2D0E004C18091BE
:10220000900186FF00C1C1E3D0E0FDC0C9E3D0E08A
:10221000FAC0C2EED0E0F7C0C0EED0E0F4C0C6EE27
:10222000D0E0F1C0C11581E5D80708F066C0C1153E
:1022300020E5D207E0F0CE0174E0969587957A9577
:10224000E1F783709C2F937021E030E002C0220FF1
:10225000331F9A95E2F73C68382BCF70C695C69528
:1022600040E2C49FE0011124C22BD32BCCC0C83E56
:10227000D10560F5C03ED10508F0C5C0C83AD1050A
:10228000B0F4C53AD10540F0C55AD0E0C35ADE4F8C
:10229000C881D0E0D064B7C0C130D10509F4B3C063
:1022A00008F4AFC0C430D10508F4ABC0ACC0CF3B1C
:1022B000D10508F0A6C0C85AD0E0CC0FDD1FC05A27
:1022C000DE4F0990D881C02DD4649DC0C11540E275
:1022D000D40758F4C11581E0D80708F094C0C03F76
:1022E000D10508F48EC0D0658EC0C11520E4D20798
:1022F00008F487C0DF70D06A86C0C11545E5D407F1
:1023000008F042C0C11584E5D80728F0DC2FCC279F
:10231000C46FD06A78C0C11523E5D207B0F0CE01F2
:102320008370992721E030E002C0220F331F8A9585
:10233000E2F78C2F8695869540E2849FC001112498
:10234000E901C82BD92BDA685EC0C11542E5D40774
:1023500028F4DC2FCC27C16FD06A55C0CE01837022
:10236000992721E030E002C0220F331F8A95E2F75F
:102370008C2F8695869540E2849FC0011124E90147
:10238000C82BD92BDC683FC0C11589E5D807B8F444
:10239000C11528E5D20728F0DC2FCC27C06FD06A02
:1023A00032C0C11546E5D40760F58C2F0E947A0B28
:1023B0008F71C82FD0E0DC2FCC27D06224C0C1158C
:1023C0008AE5D80780F48C2F8F700E947A0B94E0F6
:1023D000D695C7959A95E1F7CF70D0E0DC2FCC2742
:1023E000D069C82B10C0CE0190568115904248F498
:1023F0008D2F8F710E947A0BDD27D0628F71D82BC1
:1024000002C0C0E0D0E0CE01DF91CF91089581FB02
:10241000222720F982FB992790F980FF02C05F9A5A
:1024200001C05F98222311F05E9A01C05E98992343
:1024300011F02C9A08952C9808953F924F925F9234
:102440006F927F928F929F92AF92BF92CF92DF92C4
:10245000EF92FF920F931F93CF93DF93CDB7DEB729
:1024600029970FB6F894DEBF0FBECDBFFC01808167
:10247000918123813481232B31F09F3F31F491E00E
:102480008F3F19F403C091E001C090E090FD64C754
:102490007F0185E0DE01119601900D928A95E1F7AA
:1024A000F701228189819A81222349F00E944D1CE3
:1024B000182F682F89819A810E94EF1C03C00E9407
:1024C000C31C182F69817A81812F0E941F228C01E1
:1024D000F7018281882309F4F2C0980122513F4517
:1024E0002031310508F019C18FEF93E00E94BB2C19
:1024F0008111EFC0025137E5832E33E0932E002384
:1025000079F08114F4E09F0609F4E3C0C4010E944D
:10251000BB2C811101C001501FEF811A910AEFCF2E
:102520001E821F8218861986442443942AE0322E84
:1025300084010F5F1F4FC4010E94BB2C8E831F823A
:10254000882309F4C6C09FEF980F933060F48F83FF
:102550004E8222E0820E911CC8010E94BB2C88870B
:10256000811102C0B6C048018E010A5F1F4FF801F9
:1025700020812223E9F2213009F04CC08181813091
:1025800049F46801F2E0CF0ED11CF80182810E946B
:102590008F2B0AC0823051F46801F2E0CF0ED11CBB
:1025A000F80182810E94172B860186C0833049F48E
:1025B0006801F2E0CF0ED11CF80182810E94DE2A70
:1025C000F3CF843019F00F5F1F4F76C0F8012281DE
:1025D0000E5F1F4F80E090E030E0205331092A3039
:1025E000310568F4389EA001399E500D1124C901AF
:1025F000840F951F0F5F1F4FF8012081EDCF0097CB
:1026000009F45AC0EFE9FFE03197F1F700C000008C
:102610000197F5CFE22FF0E0EE54FD4F5490822F5A
:1026200086958695869590E0FC01EE55FD4F649069
:102630002770712C022E02C0759467940A94E2F7F9
:10264000F1E06F227724FC01EE56FD4FA490B12CEF
:10265000022E02C0B594A7940A94E2F731E0A322B7
:10266000BB24FC01EE57FD4FC490D12C02C0D59481
:10267000C7942A95E2F781E0C822DD246114710431
:1026800019F081EE0E94172BA114B10419F086EE07
:102690000E94172B852D0E948F2BAB2819F086EEF8
:1026A0000E94DE2A672819F081EE0E94DE2ACD28DA
:1026B00019F08CE20E948F2B0F5F1F4F58CF003113
:1026C0003FE5130709F03FC681E00E94241D0E94E8
:1026D000E1258091A202877009F43EC6F70182814C
:1026E000882309F439C682E029960FB6F894DEBF34
:1026F0000FBECDBFDF91CF911F910F91FF90EF9053
:10270000DF90CF90BF90AF909F908F907F906F9011
:102710005F904F903F900C94491D0031FFE51F07DB
:1027200011F481E005C001312FE5120721F482E0A8
:102730000E94661DCCCFF801EB5BFC45E730F1054C
:1027400008F47FC5033FFCE51F0799F406E221EE7C
:1027500040EE63EF7CE509C0073DECE51E0711F58F
:1027600006E221EE41EE67ED7CE5C7010E944221C1
:10277000B0CF043F2CE5120708F03FC1083D3CE50F
:10278000130731F407E225EE45EE68ED7CE5EDCF69
:10279000093D9CE5190701F708E221E045EE69EDE6
:1027A0007CE5E3CF882309F45DC110920602023074
:1027B0009CE5190708F440C10631ECE51E0730F02E
:1027C000C8018A5F9C45099708F036C10E944E1BDC
:1027D00090939101809390010031FCE51F0709F46B
:1027E000C3C008F041C008303CE5130709F49AC0A3
:1027F000F0F404309CE5190709F487C068F402304E
:10280000FCE51F0709F477C003301C4509F0E5C05B
:1028100080919001826076C006303CE5130709F490
:102820006EC008F07BC08091900188606BC00C3056
:102830009CE5190709F485C068F40A30FCE51F0718
:1028400009F474C008F079C00E94B61F809190010D
:10285000806858C00E303CE5130709F476C008F0D4
:102860007FC0809190018BC00B3F9CE5190709F454
:102870004FC018F50331FCE51F0709F47DC078F45B
:1028800001313CE5130709F473C002311C4509F01E
:10289000A4C00E94B61F809190018F7733C005318C
:1028A0009CE5190709F472C008F486C00A3F1C456C
:1028B00009F093C0809191013EC00F3F2CE51207B3
:1028C00009F45FC058F40D3F8CE5180709F444C0C3
:1028D00008F43FC08091910182602DC00130EDE588
:1028E0001E0709F475C008F45DC002301D4509F0EB
:1028F00074C060E06EC080919001816003C08091DF
:10290000900180618093900168C08091900111C016
:10291000809191018260809391015FC080919001CC
:102920008062F0CF809190018064ECCF8091900123
:1029300088608460E7CF8160EECF809190018E7FC8
:10294000E1CF809190018D7FDDCF80919001877FD5
:10295000D9CF8091910118C0809191018D7FDBCFFB
:10296000809190018F7ECECF809190018F7DCACFD4
:10297000809190018F7BC6CF80919001877F8B7F64
:10298000C1CF809191018D7F8E7FC5CF80919001C5
:1029900082FB222720F991E0922790FB82F990FB9D
:1029A00083F9B0CF80919101982F909591708E7F8F
:1029B000892B90FB81F9AFCF0E94B61F80919001C7
:1029C00087FB222720F991E0922790FB87F99ACF85
:1029D00061E08EE090E00E94CF2C60919001109118
:1029E000910184E090E00E94CF2C612F82E290E080
:1029F0000E94CF2C0E94B61F6CCE053FFCE51F073E
:102A000031F406E221EE42EE65EF7CE5AECE053F05
:102A10002CE5120730F407E225EE44EE64EF7CE586
:102A2000A4CE063F3CE5130709F0BCCE07E225EE35
:102A300046EE66EF7CE599CE8091A50206319CE5D5
:102A4000190709F58A7A91E009F490E0909307025A
:102A5000882311F065E301C069E288E092E00E94FA
:102A6000191B0EC006311C4509F029C180910702CF
:102A7000882309F46FC465E388E092E00E94F11AAC
:102A80000E94D01B26CE82720C3C3CE5130709F451
:102A9000C4C008F045C0063CECE51E0709F4A9C017
:102AA000D8F4033C2CE5120709F499C030F4023C39
:102AB0008CE5180709F46EC0D1C0043C9CE51907E9
:102AC00009F492C0053CECE51E0709F0C7C04FE9C8
:102AD0005DE068EA7DE0A5C0093CFCE51F0709F45C
:102AE00092C078F4073C3CE5130709F487C0083C22
:102AF0009CE5190709F0B2C043E95DE067E87DE0B5
:102B000090C00A3CECE51E0709F482C00B3CFCE5D2
:102B10001F0709F0A3C043EF5BE064E07CE081C0E5
:102B2000013D2CE5120709F488C0A0F40E3C8CE5A9
:102B3000180709F47CC008F477C00F3CECE51E07C9
:102B400009F478C0003DFCE51F0709F087C06EE07E
:102B500089E081C0043D2CE5120709F474C068F4D3
:102B6000023D8CE5180709F46BC0033D9CE519078D
:102B700009F074C061E088E16BC0053DECE51E071B
:102B800009F464C00D35FDE51F0709F067C06AE26E
:102B900085E261C08091E20180FF1BC08E7F80933F
:102BA000E2016091E2017091E3018091E401909172
:102BB000E5010E94E10B1092E1010FEF10E722E026
:102BC000015010402040E1F700C000000E94622345
:102BD00080CD81608093E20161E0869539C04CEE42
:102BE0005DE065EF7DE01DC045EF5DE06CEE7DE0F2
:102BF00018C048EA5DE06FE97DE013C047E85DE09A
:102C000063E97DE00EC04FE65DE06BE77DE009C063
:102C10004BE75DE06FE67DE004C044E05CE063EF1D
:102C20007BE00E94462355CD61E081E011C065E064
:102C300082E011C068E086E00EC064E18FE00BC066
:102C400067E185E108C062E289E105C061E083E2F5
:102C50000E94B10D3ECD0E9434233BCD0A353DE5A7
:102C6000130741F150F401159CE51907A9F00E3D39
:102C70001C4529F50E945F1B2CCD0B35FDE51F0778
:102C8000D9F00C351D45D9F48091910182FB88273C
:102C900080F991E0892711C00E94B61F3FEF84E3BD
:102CA0009CE0315080409040E1F700C000000E945D
:102CB000631A0FCD81E001C080E00E94331CF70150
:102CC000828100811181882349F0C8010E944D1C36
:102CD000D82E682FC8010E94EF1C04C0C8010E94B2
:102CE000C31CD82EB8018D2D0E9478108C01982E0F
:102CF000F701D280A580A2949FE0A9228091A20230
:102D0000877099F0DD2089F0812F807F803421F059
:102D100080E2800F883048F082E00E94491D809157
:102D2000A2028770CC24C3948111C12CB12EB2941D
:102D30008FE0B8228B2D90E08C30910508F04AC2CC
:102D4000FC01E757FF4F0C94B82D812F807F1F7037
:102D5000882311F01295107FDD20B9F0112309F4BA
:102D600024C280E2800F883010F0911006C080915C
:102D7000A502182B1093A50205C08091A402182B60
:102D80001093A4020E94D01B10C2802F0E94DE2A42
:102D9000112309F41FC2005E1095083010F0911045
:102DA00006C08091A50218231093A50205C080914A
:102DB000A40218231093A4020E94D01B0BC2812FDF
:102DC000807F1F70803211F01295107F992021F0C2
:102DD000F1E09F1611F130C0DD20B1F0AA2081F0A2
:102DE00001E0A0120DC08091910182FDF3C180919C
:102DF000A602182B181709F4EDC11093A602EAC118
:102E00008091A602812B10C0AA2021F021E0A216F9
:102E100009F4E0C10E94CA1B27C0DD2041F035E063
:102E20003A1508F4D7C1812F0E94D42AD3C184E077
:102E30008A1508F4CFC118C0DD2049F0AA2099F303
:102E4000F701858180FFB1C18F708583ECCFAA2007
:102E500059F0093309F0BBC1FFEF17EE23E0F15041
:102E600010402040E1F7B1C1812F0E94C92AB2C1B0
:102E7000812F86958695837019F0813059F0AAC10B
:102E8000DD2019F0C801937002C080E090E00E943C
:102E90002021A8C1DD2019F0C801937002C080E094
:102EA00090E00E940A219EC1802FDD2019F00E942F
:102EB000E20E02C00E94290E0E94FF0D93C1812FD5
:102EC000837009F069C0D11089C1902F92959695B1
:102ED0009770990F990F802F8F70882E912CA12CAD
:102EE000B12C092E04C0880C991CAA1CBB1C0A9486
:102EF000D2F704FF12C04FE050E060E070E004C081
:102F0000440F551F661F771F9A95D2F7DB01CA0140
:102F100080959095A095B09503C080E090E0DC018D
:102F200016951695412F4370423019F1C8F400915F
:102F3000A7021091A8022091A9023091AA02413063
:102F400059F088299929AA29BB29BC01CD01602300
:102F50007123822393230AC0802A912AA22AB32AAA
:102F6000BC01CD01682979298A299B290E94871DE6
:102F700035C188299929AA29BB290091A702109156
:102F8000A8022091A9023091AA02BC01CD016027BC
:102F9000712782279327EACFDD2019F0812F8170D6
:102FA00001C08695882309F419C1902F92959695B2
:102FB0009770990F990F802F8F70882E912CA12CCC
:102FC000B12C092E04C0880C991CAA1CBB1C0A94A5
:102FD000D2F704FF12C04FE050E060E070E004C0A0
:102FE000440F551F661F771F9A95D2F7DB01CA0160
:102FF00080959095A095B09503C080E090E0DC01AD
:1030000016951695412F43704230D9F068F500911E
:10301000A3031091A4032091A5033091A60341308E
:1030200059F088299929AA29BB29BC01CD0160231F
:103030007123822393231EC0802A912AA22AB32AB5
:1030400013C088299929AA29BB290091A3031091AB
:10305000A4032091A5033091A603BC01CD016027F4
:1030600071278227932706C0BC01CD0168297929E1
:103070008A299B290E941A1DB1C01F70DD2039F0DA
:10308000812F0E94661D802F0E94D42AA7C0802F06
:103090000E94C92A812F0E94241DA0C0802F32EFD8
:1030A000931609F440C0391538F090EF991661F085
:1030B000E1EF9E1699F174C0F3EF9F16D9F124EF5A
:1030C000921609F44EC06CC0DD2019F134E03A15B7
:1030D00008F480C01F7181E090E0A0E0B0E0AC0196
:1030E000BD0104C0440F551F661F771F1A95D2F704
:1030F0008091A3039091A403A091A503B091A6038E
:103100008A019B01082719272A273B27C901B801F3
:1031100025C025E02A1508F45DC0DCCFDD2029F0AC
:10312000812F8F7130C0DD20D9F3812F8F710E94E4
:10313000241D50C0DD2079F01F7181E090E0A0E0F7
:10314000B0E0BC01CD0104C0660F771F881F991F36
:103150001A95D2F703C060E070E0CB010E941A1DFF
:1031600039C0DD2099F01F71812F0E94661D80916A
:10317000910182FD07C038E0139FC00111248360D4
:103180008093A202812F0E94661D24C081E00E94CC
:10319000491D81E08A15F0F482E00E94491D1AC0A1
:1031A000DD2039F0AA2009F4BBCF802F0E94172B15
:1031B00011C0AA2009F4B9CF893349F49FEFE7EE93
:1031C000F3E09150E040F040E1F700C00000802FB4
:1031D0000E94DE2A88EF8B0D843020F40E94362175
:1031E0000E940712CC2009F4B7C08091A20280FD92
:1031F000B3C0F70112828595859585950E94661D5D
:10320000C7010E941D128091A20285958595859522
:1032100029960FB6F894DEBF0FBECDBFDF91CF91D8
:103220001F910F91FF90EF90DF90CF90BF90AF90E4
:103230009F908F907F906F905F904F903F900C94F5
:10324000241DEB56FF4F0C94B82D83E001C080E0A5
:103250000E94ED228091DF010E94BD223ACA809136
:10326000DF01982F96959695969549F1915E990F65
:10327000990F990F8770892B8093DF0114C090916B
:10328000DF01892F8695869586958F5F8F71977060
:10329000843008F04BC0880F880F880F892B8093EB
:1032A000DF018091DF01887F91E009F490E0809157
:1032B000DF0190FB80F98093DF010E94BD228091A5
:1032C000DF0186958695869523C02091DF01822FA8
:1032D000869586958695482F50E04330510554F4E5
:1032E0008F5F982F990F990F990F822F8770892BD5
:1032F0008093DF018091DF018160DDCF8091DF016C
:1033000080FF09C08E7F8093DF010E94BD2280E094
:103310000E949122DEC981608093DF01813019F41F
:1033200089E08093DF018091DF01C7CF9093DF01B7
:10333000B8CF8091DF0181FF03C00E94C222C9C9BA
:103340000E94D822C6C901319FE5190709F0FAC9C0
:1033500082E0BBC969E290CB29960FB6F894DEBF34
:103360000FBECDBFDF91CF911F910F91FF90EF90D6
:10337000DF90CF90BF90AF909F908F907F906F9095
:103380005F904F903F90089580917603089580E07C
:103390000895CF93DF9300D01F92CDB7DEB7909101
:1033A0009903943011F589837B836A839093E900B4
:1033B0008FEF9091E800815095FD06C095ED9A95AC
:1033C000F1F700008111F5CF8091E80085FF0DC075
:1033D00040E050E063E070E0CE0101960E949D2A3B
:1033E0008091E8008E778093E8000F900F900F9007
:1033F000DF91CF910895BC0184E00C94C919BC0100
:1034000083E00C94C91924E02093E9002FEF309158
:10341000E800215035FD06C035ED3A95F1F7000082
:103420002111F5CF2091E80025FF0BC040E050E0CE
:1034300066E070E00E949D2A8091E8008E7780937C
:10344000E8000895CF93DF9320911C01222339F0E7
:103450002091900127FF03C060E224E002C068E0F1
:1034600021E02093E9002FEF3091E800215035FD55
:1034700006C035ED3A95F1F700002111F5CF209106
:10348000E80025FF1DC0EC0180911C01811105C0E1
:1034900040E050E068E070E003C070E040E050E0E1
:1034A000CE010E949D2A8091E8008E778093E800EB
:1034B00080E2FE01A7E7B3E001900D928A95E1F763
:1034C000DF91CF91089581E08093E00080E28093C6
:1034D000D8001092C9008FE19EE40197F1F700C077
:1034E000000087E090EBDC018093A7039093A80392
:1034F000A093A903B093AA039CE088E10FB6F894C7
:10350000A895809360000FBE90936000FFCF7894E1
:103510001F920F920FB60F9211248F939F93AF9328
:10352000BF938091FF0190910002A0910102B091A0
:1035300002020196A11DB11D8093FF01909300022C
:10354000A0930102B0930202BF91AF919F918F911E
:103550000F900FBE0F901F9018959C014FB7F894D5
:103560008091FF0190910002A0910102B0910202AE
:103570004FBF821B930B08952FB7F8948091FF01E2
:1035800090910002A0910102B09102022FBF089514
:103590001F920F920FB60F9211248F939F93AF93A8
:1035A000BF938091B001811113C08091FF01909170
:1035B0000002A0910102B09102024196A11DB11D2D
:1035C0008093FF0190930002A0930102B093020246
:1035D000BF91AF919F918F910F900FBE0F901F9051
:1035E000189520911C012223C9F02091900127FFFA
:1035F00015C0262F2695269526952E31C8F4FC0158
:10360000E20FF11D677081E090E001C0880F6A95BC
:10361000EAF780959281892382830895FC010696BA
:103620002281621301C012823196E817F907C1F7AF
:10363000089520911C012223C1F02091900127FFC1
:1036400014C0262F2695269526952E3130F5FC019F
:10365000E20FF11D677081E090E001C0880F6A956C
:10366000EAF79281892B82830895FC0132962FEF2D
:1036700030E04191641789F02F3F19F4411101C0E6
:10368000232F3F5F3630A9F72F3F39F0FC01E20FBF
:10369000F11D27FDFA95628308950895CF9384E084
:1036A00090E00E94BB2CC82F82E290E00E94BB2CCD
:1036B0002C2F30E0A901582BCA01CF9108956AEE52
:1036C0007EEF80E090E00E94ED2C60E082E090E0F0
:1036D0000E94CF2C60E083E090E00E94CF2C1092FB
:1036E000A7021092A8021092A9021092AA0260E00A
:1036F00084E090E00E94CF2C60E082E290E00E94A3
:10370000CF2C60E085E090E00E94CF2C60E086E066
:1037100090E00E94CF2C6FEF87E090E00E94CF2CCA
:1037200040E050E0BA0188E090E00E94E12C60E0C7
:103730008DE090E00E94CF2C40E050E0BA0188E19B
:1037400090E00E94E12C60E087E190E00E94CF2CA5
:1037500040E050E0BA018CE190E00E94E12C60E092
:1037600070E080E290E00E94ED2C40E050E0BA0171
:1037700088E190E00E94E12C40E050E0BA018FE047
:1037800090E00E94E12C40E050E0BA0183E190E03B
:103790000C94E12C8091A60281111092A60208954A
:1037A0009091A5028091A402892B2091A302982FC9
:1037B000922B909308028091A6028823D9F0892B3E
:1037C0008093080280911C01882331F08091900140
:1037D00087FF02C08EE101C086E0EAE0F2E090E0FF
:1037E000815028F021912223D9F39F5FF9CF9111C5
:1037F0000E94CA1BE091AE01F091AF013097A9F091
:1038000080911C01882359F08091900187FF07C0A7
:10381000809108028093090285E08093080202806B
:10382000F381E02D88E092E00994089580E090E033
:103830000E94202180E090E00E940A211092A402C0
:103840001092A3020E94D01BEFEBF1E086E0DF01B3
:103850001D928A95E9F71092BC011092B90110925D
:1038600028020C94FF0DCF93C0919101C2FB9927C0
:1038700090F9981781F080FBC2F9C0939101609193
:10388000900184E090E00E94CF2C6C2F82E290E0C7
:10389000CF910C94CF2CCF910895BF92CF92DF920D
:1038A000EF92FF920F931F93CF93DF938C01C09001
:1038B000A303D090A403E090A503F090A603809109
:1038C000A7029091A802A091A902B091AA02C82AC9
:1038D000D92AEA2AFB2ACFE1D0E0D701C6010C2E73
:1038E00004C0B695A795979587950A94D2F780FD61
:1038F00004C0219790F7B12C07C0BC2EB8018C2FC3
:103900000E9478100197A9F38B2DDF91CF911F9121
:103910000F91FF90EF90DF90CF90BF900895CF93DD
:10392000DF93EC010E944D1CBE010E947810DF91D4
:10393000CF9108950E948F1C292F2F70E92FE295B7
:10394000EF704E2F50E0FA013297EE30F105B8F4E7
:10395000E456FF4F0C94B82D803F99F018F4883E40
:1039600070F40FC0843F59F40CC0883E50F0813F82
:1039700031F407C0822F869586958695089580E05C
:10398000089581E0089521E1929F800D1124682F10
:10399000669566956695982F977085E0689FB0014B
:1039A000112440E050E080E0FB01E40FF51FEF59E7
:1039B000FD4F208130E0092E02C0369527950A94EC
:1039C000E2F721703327042E01C0220F0A94EAF790
:1039D000822B4F5F5F4F4530510531F7089521E14C
:1039E000929F800D1124E82FE695E695E695877065
:1039F00051E001C0550F8A95EAF785E0E89FF00194
:103A00001124EF59FD4F20E030E070E04081CB0100
:103A1000022E02C0969587950A94E2F781708195EF
:103A200084278523842781932F5F3F4F25303105DD
:103A300069F708956093A3037093A4038093A5038B
:103A40009093A6030C94161C0F931F9341E050E033
:103A500060E070E004C0440F551F661F771F8A9511
:103A6000D2F740955095609570958091A303909101
:103A7000A403A091A503B091A6038A019B0108238A
:103A800019232A233B23C901B8011F910F910C94DC
:103A90001A1D2091A202809582238093A202982F62
:103AA000977041F430E0482F082E000C550B241776
:103AB000350721F49091910192FF07C08595859576
:103AC00085950E94241D1092A20208950F931F93C2
:103AD00041E050E060E070E004C0440F551F661FF5
:103AE000771F8A95D2F78091A3039091A403A091A8
:103AF000A503B091A6038A019B01082B192B2A2B41
:103B00003B2BC901B8011F910F910C941A1D6093B2
:103B1000A7027093A8028093A9029093AA020C9422
:103B2000161C8091600290912F02891719F08F5F07
:103B30008770FBCF08950F931F93CF93DF938091EE
:103B40002E0282958F7009F05DC080912B02882330
:103B500009F458C08091600210912F0260912902EF
:103B600070912A02C0912C02D0912D0291E06F3FFA
:103B700009F090E0292F06E0811709F443C020974F
:103B800021F07F3F21F030E003C031E001C0322F4F
:103B900090E030FD34C0089FF001099FF00D112422
:103BA000DF01A05DBD4F11963C911197371327C0DF
:103BB0003C91361324C012963C91129731111FC0CC
:103BC00013964D915C9114974C1B5D0B483C51052D
:103BD000B0F480912E028F70806180932E02EB5C96
:103BE000FD4F80818F708061808389E292E00E9426
:103BF0001D12DF91CF911F910F910C94911D019691
:103C00008770BACFDF91CF911F910F9108959F9246
:103C1000AF92BF92CF92DF92EF92FF920F931F93DA
:103C2000CF93DF93CDB7DEB761970FB6F894DEBFC1
:103C30000FBECDBF8C0185E0F801DE011D9601901D
:103C40000D928A95E1F7F80190818181E2803091AF
:103C5000290260912A0240912C0250912D024115B7
:103C6000510531F06F3F31F421E03F3F19F403C0BB
:103C700021E001C020E0F22FF1709F2E20FD23C132
:103C8000F801C380D48029E2A22E22E0B22EF09067
:103C90002B02F601E41BF50BFF2009F4CEC02091A6
:103CA0002E02E83CF10508F099C0422F407F09F050
:103CB00051C0681311C039130FC0FE2CE1100CC0A5
:103CC0002F70206120932E02C5010E941D12809149
:103CD0002E02F801858337C1CD2831F08F3F31F4B2
:103CE00021E09F3F19F403C021E001C020E020FD46
:103CF00003C021E02E2502C020E030E0F22FF17059
:103D0000FF2E20FF1DC02091600240912F0256E03F
:103D1000241709F4F6C030E0529FF001539FF00DD4
:103D20001124E05DFD4F6181861306C0608196130A
:103D300003C06281E61204C02F5F3F4F2770E8CFB7
:103D4000FE2CEE2009F4FFC080912E02816080934A
:103D50002E0250C0681307C0391305C0E11003C01C
:103D6000F80125838DC09D878E878D859E850E9455
:103D70009A1C882369F1EE2059F120912E02822F9E
:103D800082958F7090E0029774F080912902909153
:103D90002A0298878F831986DB86CA862C87CE01F4
:103DA00007960E941D1286E0F801A9E2B2E0019098
:103DB0000D928A95E1F70E949B1D0DC06817E1F0F6
:103DC0009D878E878D859E850E949A1C81111EC0BD
:103DD000C8010E941D12FF24F394B5C0422F407FFA
:103DE00069F789E292E00E941D1286E0F5011192C6
:103DF0008A95E9F7F12CA7C03913E2CFE110E0CFA3
:103E0000F8012583C8010E941D1257C0EE2001F35E
:103E100020912E02822F82958F7090E002971CF2E3
:103E20008091290290912A029A8389831B82DD82E4
:103E3000CC822E83CE010196B4CFE83CF105E8F5A3
:103E4000FE2CEE2029F2681327C0391325C02091DB
:103E50002E0220FD18C0822F82958F70482F50E0CF
:103E60004115510581F0F80125834F30510541F08E
:103E70008F5F982F9295907F822F8F70892B8583EB
:103E8000C8010E941D1286E0F801A9E2B2E001908B
:103E90000D928A95E1F757C09D878E878D859E8507
:103EA0000E949A1C81117FCF80912E0281608093A5
:103EB0002E02C8010E941D1246C086E0F501119233
:103EC0008A95E9F740C0EE2009F482CF9D878E875E
:103ED0008D859E850E949A1CF82E882309F478CF40
:103EE00086E0F801A9E2B2E001900D928A95E1F72F
:103EF0008091290290912A020E948F1C0E949B1D92
:103F000022C09D878E878D859E850E948F1C292FBC
:103F100022952F70223028F49F7039F0811105C04E
:103F20000BC0243028F49F7049F4805E883020F064
:103F3000C8010E941D129F2CF92C05C0F801958123
:103F4000907F99F7F9CF8F2D61960FB6F894DEBF69
:103F50000FBECDBFDF91CF911F910F91FF90EF90DA
:103F6000DF90CF90BF90AF909F9008951092A502E0
:103F700080911C01882331F08091900187FF02C05D
:103F80008EE101C086E0EAE0F2E0DF011D928A9551
:103F9000E9F70C94161CCF92DF92EF92FF928C37C8
:103FA00024E1920728F469E070E00E94902D29C076
:103FB000A0E0B0E08A50974DAF4FBF4F6627782FF3
:103FC000892F9A2F25EF38E241E050E00E94352DED
:103FD00069017A01CA01B9010E94662D9B01AC01F9
:103FE000C701B6010E94662DBB27A92F982F872FE6
:103FF000009721E0A207B10511F0BC0102C06FEFEC
:104000007FEFCB01FF90EF90DF90CF900895089560
:104010000F931F93CF93DF9300D01F92CDB7DEB7DE
:104020008C018091AD0281110AC09E012F5F3F4F2C
:104030004FEF6FEF0E94240C8A818093AD02F8014C
:104040008481813051F028F0823061F44091AD02DA
:104050000AC08091AD0240E007C06091AD0240E02F
:1040600080E003C040E080E060E00E94BD0BF8010A
:10407000848190E0019663E070E00E94A42D848327
:104080000F900F900F90DF91CF911F910F91089596
:10409000CF93DF93EC01E2EEF1E0438162818C810A
:1040A0000E94BA0C8C818F5F8C83DF91CF91089531
:1040B000CF93DF93EC01EC81F0E0EE5CFC4F449198
:1040C000E2EEF1E0628181810E94BA0C8C818F5F07
:1040D0008C83DF91CF9108951F93CF93DF93CDB75A
:1040E000DEB767970FB6F894DEBF0FBECDBF342F93
:1040F0004B8B252F5C8B6D8B7E8B8F8B4E895F89D5
:1041000061111092A40286E0FE013D96DF01982F16
:104110001D929A95E9F73D872E876F87598B488BBB
:10412000DE01179601900D928A95E1F7CE01079670
:104130000E94071E81113EC086E0FE013796DE0117
:10414000119601900D928A95E1F7FF81E8856A85C5
:104150007B856115710531F0EF3F31F481E0FF3F60
:1041600019F403C081E001C080E080FD23C02091EC
:104170002F0230E0C90101968770992740916002B3
:1041800050E08417950779F1F983EA837D836C8386
:1041900096E0929FD001939FB00D1124A05DBD4F7A
:1041A000FE01319601900D929A95E1F780932F02CE
:1041B0000E94911D16E08091600290912F02891754
:1041C000F9F0189FC0011124805D9D4F0E94071EC9
:1041D0008823B1F08091600290E001968770992762
:1041E00080936002E8CF0E94B61F10922F021092B7
:1041F0006002E9E2F2E086E0DF011D928A95E9F7CC
:1042000067960FB6F894DEBF0FBECDBFDF91CF919A
:104210001F91089520917203309173032817390775
:1042200071F09093730380937203E091AE01F0916B
:10423000AF01309721F00084F185E02D09940895B5
:1042400020917003309171032817390771F0909312
:10425000710380937003E091AE01F091AF0130974C
:1042600021F00680F781E02D09940895E091AE01D8
:10427000F091AF01309721F00190F081E02D099489
:1042800080E008950F931F93CF93DF93C42FD22F15
:10429000FC0182818823C9F0409306020E94BC1A67
:1042A00090936F0380936E0380E28C0F883008F048
:1042B00057C0C77081E001C0880FCA95EAF7DF9147
:1042C000CF911F910F910C94D42A8091060248132C
:1042D00030C080916E0390916F030E94AD1A883CAC
:1042E000910538F510E21D0FCD17B9F080E28C0F63
:1042F000883040F4C77081E001C0880FCA95EAF7A2
:104300000E94C92A183028F581E09D2F977001C0BE
:10431000880F9A95EAF70E94D42A802F0E948F2B4B
:104320001830F0F4D77081E001C0880FDA95EAF711
:104330000AC080E28C0F883098F4C77081E001C019
:10434000880FCA95EAF7DF91CF911F910F910C94D6
:10435000C92A802FDF91CF911F910F910C948F2B41
:10436000DF91CF911F910F910895CF93DF93C7E510
:10437000D3E060E0CE010E94CF2C2196C11584E0ED
:10438000D807B9F7DF91CF910895CF92DF92EF92DE
:10439000FF920F931F93CF93DF93C0E0D0E08E0185
:1043A00004531F4F6E0182E2C80ED11CFE01EE5471
:1043B000FB4FE590F4906F2DCE0187960E94CF2C95
:1043C0006E2DCE0188960E94CF2C2296CC15DD054D
:1043D00069F70C171D0731F7E80100331340F9F6B0
:1043E000DF91CF911F910F91FF90EF90DF90CF90D1
:1043F00008950F931F93CF93DF93C42FD0E0CC0F7A
:10440000DD1F22E2629FC00DD11D11243CEC839F71
:10441000C00DD11D1124CE0187960E94BB2C082F00
:1044200010E0102F0027CE0188960E94BB2C980127
:10443000282BC901DF91CF911F910F910895462F2D
:10444000843038F4763028F4613118F4672F0C94F6
:10445000F92180E090E008951F920F920FB60F921D
:1044600011242F933F934F935F936F937F938F9379
:104470009F93AF93BF93EF93FF938091930190919C
:104480009401019668EB75E00E94902D9093940141
:10449000809393016BE070E00E94902D6F77809184
:1044A0009201823019F4603451F404C0813039F43F
:1044B0006F3729F480916F008E7F80936F00E62F15
:1044C000F0E0EE5CFB4FE49121E031E0E29FC001BF
:1044D000E39F900D112463E070E00E94902D809185
:1044E000DF01869586958695282F269FC001279FF8
:1044F000900D11240E94CB1F90938B0080938A0013
:10450000FF91EF91BF91AF919F918F917F916F91AB
:104510005F914F913F912F910F900FBE0F901F9081
:104520001895843048F4811108C0909180009F7DD7
:10453000909380002E9806C083E090918000906256
:1045400090938000282F30E0AFEFBFEF0E94572DEF
:1045500023E030E040E050E00E94352DB42FA32F3F
:10456000922F8827892F9A2FAB2FBB270E94CB1F12
:1045700090938B0080938A000895682F86E090E0E6
:104580000C94CF2C8091DF0181FF11C08D7F80932F
:10459000DF010E94BD2280916F008E7F80936F00AB
:1045A0008091DF018695869586950C9491220895D9
:1045B0008091DF0181FD10C082608093DF010E9445
:1045C000BD22109294011092930110929201809159
:1045D0006F00816080936F000895843008F083E05D
:1045E0009091DF019770282F220F220F220F922B1C
:1045F0009093DF01987F21E009F420E09091DF01A2
:1046000020FB90F99093DF010C94912280E090E0E0
:104610000E94C92C8A3E9E4F51F00E945F1B8091E0
:10462000DF01847089618093DF010E94BD2286E0F2
:1046300090E00E94BB2C8093DF01282F26952695C1
:10464000269530E02430310524F08770886180930E
:10465000DF018091DF0180FF04C0869586958695F5
:1046600001C080E00C9491229091E20190FF04C07F
:104670009695981740F003C0811105C090E09617F9
:1046800010F40C94F50D61E00C94B10D882311F039
:10469000FA0101C0FB0109946091E201669570E0A6
:1046A0004BE050E08EE091E00E94D42D892B19F46C
:1046B00081E08093E1010E94BC1A9093B401809341
:1046C000B30108958091E20180FF0AC06A9A8EB119
:1046D0008B7F9EB194602FB7F894EEEAF2E00BC0A6
:1046E000EEEAF2E0118210821282339632E0E63F67
:1046F000F307C1F7EBCF32E0E63FF30789F03191E2
:1047000048E09EB9000000C037FF8EB9330F0000AB
:1047100000C000C000C08EB900C04A9591F7EBCF31
:104720002FBF8FE594E00197F1F700C000000895D6
:104730009F92AF92BF92CF92DF92EF92FF920F9330
:104740001F93CF93DF93FC01A280948081E0848348
:10475000E2E3F3E0B490E1EBF3E0E491C6EFD2E002
:10476000FEEAEF2EF2E0FF2ECC24CA94D12CEB19F6
:104770000E2F10E022E02A1530F08091E3018883AB
:104780008091E4018983911003C01B821A8255C075
:104790008B818823F9F081508B832FEF829FC0019A
:1047A00011246C8170E00E94902DFB01FF27EE5CCC
:1047B000FC4F8491E82FEB192FEFE29FC0011124E9
:1047C000B8010E94902D8091E501689FB0011124ED
:1047D0007A8333C00E94AB2C2091E50126952158A5
:1047E00030E0A901440F551F322F2227240F351F17
:1047F000232F33278217930704F582E08A1588F464
:104800000E94AB2CB6010E94A42D88830E94AB2C81
:104810002091E4012695622F70E00E94A42D280FBC
:1048200029831A828091E501843120F0893C18F0B7
:1048300088EC01C084E18C838B8397014A81698174
:1048400088810E94240C259623E0E20EF11C83E06F
:10485000CE36D80709F08ECFDF91CF911F910F91FF
:10486000FF90EF90DF90CF90BF90AF909F900C940F
:104870006223EF92FF920F931F93CF93DF938C01EC
:10488000CEEAD2E0E12CF12CF8018481FCE0EF16B5
:10489000F1041CF4882339F002C0811104C09E0188
:1048A0004091E50102C09E0140E06091E4018091E9
:1048B000E3010E94240C8FEFE81AF80A239698E18E
:1048C000E916F10409F70E946223F801848190E05F
:1048D0000196817099278483DF91CF911F910F9169
:1048E000FF90EF9008958F929F92AF92BF92CF92D8
:1048F000DF92EF92FF920F931F93CF93DF93EC0120
:104900004C81042F10E09801D8010E94572D9B0183
:10491000AC010E94222D6B017C01E0E2F0E0E01B83
:10492000F10BA5E5B0E09B01AC010E94222D4B01EB
:104930005C019F01DF010E94C52D9B01AC010E941B
:104940002D2D9B01AC012C0D3D1D4E1D5F1DC50184
:10495000B4010E94352D822FF22E99E2921728F091
:1049600093E0299F900111240DC025E530E0281B1C
:104970003109C901880F991F280F391F37FF02C05D
:104980002F5F3F4F35952795122F10959EEAC92E20
:1049900092E0D92E00E085E5E82EEF1801FD02C077
:1049A0008E2D01C08F2D9601412F6091E4010E9450
:1049B000240C0F5F83E0C80ED11C083179F70E94E8
:1049C00062238C81811102C091E003C0803219F40E
:1049D0009FEF90931B0190911B01890F8C83DF91B6
:1049E000CF911F910F91FF90EF90DF90CF90BF90EC
:1049F000AF909F908F9008950F931F93CF93DF9365
:104A0000CEEAD2E0FE01118210821282339682E059
:104A1000E63FF807C1F700E010E08091AC02082EF5
:104A2000000C990B0817190794F080911A01082EB1
:104A3000000C990B8017910754F09E014091E501FD
:104A40006091E4018091E3010E94240C03C019826B
:104A500018821A820F5F1F4F239608311105E9F65D
:104A60000E946223809119019091AC02980F90935B
:104A7000AC0220911A01280F20931A01121614F487
:104A800097311CF0819580931901DF91CF911F918F
:104A90000F910895BF92CF92DF92EF92FF920F9302
:104AA0001F93CF93DF93FC01828180FF03C0DD243D
:104AB000DA9402C0DD24D3940EEA12E0C0E0D0E024
:104AC00028E1B22EF80111821082128294E0E92EC0
:104AD000F12CC12C8091AB028C0D89312CF06B2D07
:104AE0000E94822D892F02C087FD885E082E000C4F
:104AF000990BC817D90791F48091E5018E9DA0010B
:104B00008F9D500D112455954795559547959801C2
:104B10006091E4018091E3010E94240CCD0CF1E04E
:104B2000EF1AF108B9F621960D5F1F4FC831D10574
:104B300049F60E9462238091AB0291E0D91206C02F
:104B4000811102C087E107C0815005C090E0019645
:104B5000BE010E94A42D8093AB02DF91CF911F91E3
:104B60000F91FF90EF90DF90CF90BF900895EF925C
:104B7000FF921F93CF93DF93EC018EEAE82E82E041
:104B8000F82E10E08C8197014091E5016091E401DD
:104B9000810F0E94240C165F83E0E80EF11C103F89
:104BA00089F70E9462239A818C8190FF02C08F5FF7
:104BB00001C081508C83DF91CF911F91FF90EF90C6
:104BC00008950F931F938091A3039091A403A09144
:104BD000A503B091A6038C019D0106701127222721
:104BE0003327BC01CD01063011052105310511F433
:104BF000686001C0677F1F910F910C941A1D1F936D
:104C0000CF93DF93CDB7DEB7AA970FB6F894DEBF88
:104C10000FBECDBFEBE9F3E08091F100819343E05B
:104C2000E33AF407C9F780919C03833009F462C02A
:104C300030F4813071F0823009F49CC0B3C08A3006
:104C400009F488C08B3009F46DC0893009F0AAC01E
:104C500020C080919B03813A09F0A4C08091E800B4
:104C6000877F8093E80080919F039091A003892B18
:104C700021F460E287E793E003C060E080E090E029
:104C800070E00E94012C8091E8008B778093E8000F
:104C900089C080919B03813209F084C080919F0379
:104CA0009091A003009719F0029709F07BC08091C2
:104CB000E800877F8093E8008091E80082FD05C0CE
:104CC000809199038111F8CF6DC02091F3008091FC
:104CD000F20090E0922B029729F48091F1008B7FF3
:104CE000813021F48091F100809376038091E80077
:104CF0008B7754C080919B03813A09F053C0809117
:104D00009F039091A003892B09F04CC08091E8008B
:104D1000877F8093E8008091E80080FFFCCF80913E
:104D20001C0137C080919B038132E1F580919F0384
:104D30009091A003892BB1F58091E800877F809343
:104D4000E8000E94AD2B80919D0380931C010E947E
:104D5000B61F28C080919B03813221F58091E80025
:104D6000877F8093E8000E94AD2B80919E03809303
:104D7000750318C080919B03813AA1F48091E800EB
:104D8000877F8093E8008091E80080FFFCCF8091CE
:104D900075038093F1008091E8008E778093E8009E
:104DA0000E94AD2B8091E80083FFDDC180919B03C1
:104DB00090919C03492F50E04A30510508F0D3C12F
:104DC000FA01E655FF4F0C94B82D803821F0823857
:104DD00009F0C9C108C08091970390919803992365
:104DE00089F082600FC080919F038F70873008F038
:104DF000BAC18093E9008091EB0085FB882780F998
:104E00001092E9009091E800977F9093E8008093DA
:104E1000F1001092F10070C1282F2D7F09F0A3C17D
:104E2000882319F0823061F09EC180919D0381300A
:104E300009F099C1933009F080E0809398032EC067
:104E400080919D0381112AC080919F038F702FEF65
:104E5000280F263008F087C18093E9002091EB00ED
:104E600020FF1CC0933021F48091EB00806214C0BD
:104E70009091EB0090619093EB0021E030E0A9016C
:104E800002C0440F551F8A95E2F74093EA00109242
:104E9000EA008091EB0088608093EB001092E900BB
:104EA0008091E800877F8093E8000E94AD2B5BC172
:104EB000811159C110919D031F778091E300807883
:104EC000812B8093E3008091E800877F8093E80046
:104ED0000E94AD2B8091E80080FFFCCF8091E30021
:104EE00080688093E300111102C082E001C083E07A
:104EF0008093990338C18058823008F034C12091E2
:104F00009D0330919E032C3D53E0350779F583E0F6
:104F10008A838AE289834FB7F894DE01139620E0F2
:104F20003EE051E2E32FF0E050935700E49120FF80
:104F300003C0E295EF703F5FEF708E2F90E0EA3094
:104F400010F0C79601C0C0968D939D932F5F2431BA
:104F500049F74FBF8091E800877F8093E8006AE2BD
:104F600070E0CE0101960E94012CB4C080919F0395
:104F70009091A003432F552743305105A9F068F4C1
:104F80004130510509F4FEC04230510509F0EBC033
:104F90008BE590E0EAEFF8E04BC04132510529F192
:104FA0004232510589F1DFC0C9019927813091054D
:104FB000A1F058F0029709F0D6C0E7E6F9E0E491D5
:104FC0008E2F90E0E7E6F9E030C0E3EAF9E0E49103
:104FD0008E2F90E0E3EAF9E028C0E7E8F9E0E491F9
:104FE0008E2F90E0E7E8F9E020C08330910508F0CB
:104FF000BAC0880F991FFC01E95AFE4F0190F08159
:10500000E02D89E090E014C08330910508F0ABC03A
:10501000FC01EE0FFF1FEF5AFE4F0190F081E02DD3
:10502000DC01A25BBE4F8C9190E0009709F49BC01D
:105030002091E800277F2093E8002091A103309180
:10504000A2032817390708F4C90140E0009789F145
:1050500020919903222309F43DC02530D9F12091F4
:10506000E80023FD37C02091E80022FD2FC02091E9
:10507000E80020FFEBCF4091F3002091F20030E0F8
:10508000342B009759F02830310540F44491409377
:10509000F100319601972F5F3F4FF3CF41E0283069
:1050A000310509F040E02091E8002E772093E800D8
:1050B000CDCF4111CDCF0AC080919903882351F003
:1050C000853041F08091E80083FD04C08091E800C4
:1050D00082FFF2CF8091E8008B778093E80043C095
:1050E000803809F040C08091E800877F8093E80015
:1050F00080919A038093F1008091E8008E77D3CE5F
:10510000811131C080919D0390919E039927029750
:1051100054F58091E800877F8093E80010919D030B
:1051200010939A030E94AD2B111106C08091E300E9
:1051300087FD02C081E001C084E08093990342E0D2
:1051400061EC81E00E94CC2B42E261EC84E00E94A1
:10515000CC2B42E261EC82E00E94CC2B42E260EC7C
:1051600083E00E94CC2B8091E80083FF10C08091E7
:10517000E800877F8093E8008091EB008062809355
:10518000EB0005C082E190E0E5E5F9E051CFAA9699
:105190000FB6F894DEBF0FBECDBFDF91CF911F9148
:1051A00008951F920F920FB60F9211242F933F93E1
:1051B0004F935F936F937F938F939F93AF93BF931F
:1051C000CF93DF93EF93FF93C091E900CF7080916D
:1051D000EC00D82FD17080FDD0E81092E9008091CA
:1051E000F000877F8093F00078940E94FF25109252
:1051F000E9008091F00088608093F000CD2BCF70A3
:10520000C093E900FF91EF91DF91CF91BF91AF91F2
:105210009F918F917F916F915F914F913F912F91CE
:105220000F900FBE0F901F901895E8EDF0E0808171
:105230008E7F80831092E2001092DA001092E100DB
:10524000A0EEB0E08C9181608C9380818F77808319
:1052500019BCA7EDB0E08C918E7F8C9380818F7EFE
:105260008083109274030895CF92DF92EF92FF92A1
:105270000F931F93CF93DF93C8EDD0E088818F7E8B
:105280008883E7EDF0E080818160808384E082BFE5
:1052900081E08093740388818E7F888302EE10E022
:1052A000F80110821092DA0081EEC82ED12CF6019E
:1052B000108288818F77888388818068888388813D
:1052C0008F7D888319BC1092990310929A031092D3
:1052D00098031092970390EEE92EF12CF70180814C
:1052E0008B7F808388818160888342E060E080E0FA
:1052F0000E94CC2BF60180818E7F8083F801808113
:1053000081608083808188608083F70180818E7FC7
:105310008083888180618883DF91CF911F910F9175
:10532000FF90EF90DF90CF9008951F920F920FB6ED
:105330000F9211242F933F934F935F936F937F931B
:105340008F939F93AF93BF93EF93FF938091E1006F
:1053500082FF09C08091E20082FF05C08091E100D8
:105360008B7F8093E1008091DA0080FF2AC08091DA
:10537000D80080FF26C08091DA008E7F8093DA000B
:105380008091D90080FF18C080E189BD82E189BD8C
:1053900009B400FEFDCF81E08093990380917403EE
:1053A00081110FC00E9415290E9434298091E200CA
:1053B00084608093E20005C019BC1092990310929A
:1053C00074038091E10080FF17C08091E20080FFAC
:1053D00013C08091E2008E7F8093E2008091E20012
:1053E00080618093E2008091D80080628093D80031
:1053F00019BC85E0809399038091E10084FF2EC061
:105400008091E20084FF2AC080E189BD82E189BDEC
:1054100009B400FEFDCF8091D8008F7D8093D80025
:105420008091E1008F7E8093E1008091E2008F7E89
:105430008093E2008091E20081608093E20080919D
:105440009A03882311F084E007C08091E30087FD70
:1054500002C081E001C083E0809399038091E10064
:1054600083FF27C08091E20083FF23C08091E10089
:10547000877F8093E10082E08093990310929A03E2
:105480008091E1008E7F8093E1008091E2008E7F29
:105490008093E2008091E20080618093E20042E02C
:1054A00060E080E00E94CC2B8091F00088608093C7
:1054B000F000FF91EF91BF91AF919F918F917F91FC
:1054C0006F915F914F913F912F910F900FBE0F9071
:1054D0001F9018952091E4003091E50095E64091E9
:1054E000EC00842F817040FF23C08091E80080FD94
:1054F0001DC080919903882399F0853099F080919F
:10550000EB0085FD11C04091E4005091E5002417A7
:10551000350729F3915011F09A01E1CF84E0089505
:1055200082E0089583E0089581E0089580E0089581
:105530004091E80042FFDDCF0895EF92FF920F9374
:105540001F93CF93DF937C018B010E946A2A811104
:1055500019C0E70101151105A1F08091E80085FD52
:105560000AC08091E8008E778093E8000E946A2A42
:10557000882381F307C089918093F10001501109BC
:10558000E9CF80E0DF91CF911F910F91FF90EF90D5
:105590000895882341F080959091A50289238093F6
:1055A000A5020C94D01B0895882339F09091A50290
:1055B000892B8093A5020C94D01B08958823B1F108
:1055C0009CEF980F913A30F4682F88E092E00E94A7
:1055D000F11A14C090E2980F983090F4877021E08F
:1055E00030E0A90102C0440F551F8A95E2F7CA01B5
:1055F00080959091A50289238093A5020C94D01BDD
:105600009BE5980F933020F480E090E00C942021EB
:1056100098E5980F973120F480E090E00C940A21EF
:10562000803F20F00E94290E0C94FF0D0895CF9327
:10563000882309F472C0C82F8CEF8C0F813AC0F513
:1056400080911C018823E1F08091900187FF18C0B0
:10565000EC2FE695E695E695F0E0E85FFD4F828158
:10566000282F30E04C2F477081E090E002C0880F77
:10567000991F4A95E2F782239323892B61F412C084
:10568000EAE0F2E080E192E02191C21721F08E176A
:105690009F07D1F707C06C2F88E092E00E94F11AB3
:1056A0000E94D01B6C2F88E092E00E94191B10C052
:1056B00080E28C0F883078F4C77081E090E001C000
:1056C000880FCA95EAF79091A502892B8093A502CD
:1056D000CF910C94D01BEBE5EC0FE33040F4F0E0FD
:1056E000E35AFE4F808190E0CF910C942021E8E5B1
:1056F000EC0FE73150F4F0E0EE0FFF1FE05AFE4FE1
:1057000080819181CF910C940A21C03F30F08C2F81
:105710000E94E20ECF910C94FF0DCF9108951F933C
:10572000CF93DF93182F893319F0C0E0D0E002C087
:10573000C0E5D0E0812F0E94172B209741F08FE920
:105740009FE00197F1F700C000002197F6CF812F6D
:10575000DF91CF911F910C94DE2A80919B0387FFEC
:1057600011C08091E80082FD05C0809199038111EC
:10577000F8CF11C08091E8008B770BC0809199031E
:10578000882349F08091E80080FFF8CF8091E800FD
:105790008E778093E8000895982F973068F590935E
:1057A000E900981739F07091EC002091ED005091CC
:1057B000F00003C0242F762F50E021FD02C09F5F30
:1057C000ECCF3091EB003E7F3093EB003091ED0059
:1057D0003D7F3093ED003091EB0031603093EB0072
:1057E0007093EC002093ED005093F0002091EE00B8
:1057F00027FDE5CF80E008958F708093E90081E078
:1058000008952091A1033091A2032617370748F08D
:105810006115710539F42091E8002E772093E80096
:1058200001C0B901FC0120E06115710579F1809199
:1058300099038823F1F18530F1F18091E80083FD2F
:105840003CC08091E80082FD2EC08091E80080FF7E
:10585000EBCF2091F3008091F20090E0922B611544
:10586000710551F08830910538F421912093F100B1
:10587000615071090196F3CF21E0089709F020E00B
:105880008091E8008E778093E800CECF2111CFCFB2
:105890000AC080919903882361F0853061F080917E
:1058A000E80083FD0AC08091E80082FFF2CF80E02B
:1058B000089582E0089583E0089581E008958F922D
:1058C0009F92AF92BF92CF92DF92EF92FF92CF93CF
:1058D000DF93EC01688179818A819B816115710573
:1058E0008105910521F464E279ED8BE597E02DE1E6
:1058F00033EF41E050E00E94032D49015A019B0122
:10590000AC01A7EAB1E40E94222D6B017C01ACEE50
:10591000B4EFA50194010E94302DDC01CB018C0D68
:105920009D1DAE1DBF1DB7FF03C00197A109B04863
:1059300088839983AA83BB839F77DF91CF91FF9060
:10594000EF90DF90CF90BF90AF909F908F90089591
:105950000E945F2C089580E091E00E945F2C0895E2
:10596000A0E0B0E08093000190930101A0930201B8
:10597000B09303010895F999FECF92BD81BDF89AC5
:10598000992780B50895A6E1B0E044E050E00C947A
:10599000F52CA8E1B0E042E050E00C94F52C262F65
:1059A000F999FECF92BD81BDF89A019700B4021615
:1059B00039F01FBA20BD0FB6F894FA9AF99A0FBEC3
:1059C00008950396272F0E94D02C0E94CF2C252FBC
:1059D0000E94D02C242F0C94D02C0196272F0E94AB
:1059E000D02C0C94CF2CDC01CB01FC01F999FECF1B
:1059F00006C0F2BDE1BDF89A319600B40D92415057
:105A00005040B8F70895052E97FB1EF400940E94AD
:105A10001A2D57FD07D00E94352D07FC03D04EF4F8
:105A20000C941A2D50954095309521953F4F4F4F2E
:105A30005F4F089590958095709561957F4F8F4F3A
:105A40009F4F08950E94572DA59F900DB49F900DD4
:105A5000A49F800D911D11240895B7FF0C94222D51
:105A60000E94222D821B930B0895A1E21A2EAA1BDD
:105A7000BB1BFD010DC0AA1FBB1FEE1FFF1FA217FE
:105A8000B307E407F50720F0A21BB30BE40BF50BFB
:105A9000661F771F881F991F1A9469F76095709584
:105AA000809590959B01AC01BD01CF010895A29F07
:105AB000B001B39FC001A39F700D811D1124911DE2
:105AC000B29F700D811D1124911D0895DB018F93EC
:105AD0009F930E94222DBF91AF91A29F800D911D97
