:100000000C94F3030C943A040C943A040C943A04C0
:100010000C943A040C943A040C943A040C943A0468
:100020000C943A040C943A040C942C270C946826F3
:100030000C9420130C943A040C943A040C943A0453
:100040000C943A040C943A040C943A040C943A0438
:100050000C943A040C94DF120C943A040C943A0475
:100060000C943A040C943A040C943A040C943A0418
:100070000C943A040C943A040C943A040C943A0408
:100080000C943A040C943A040C943A040C943A04F8
:100090000C943A040C943A040C943A040C943A04E8
:1000A0000C943A040C943A040C943A0473087608BD
:1000B000B408CB08D308F308F60847097D09230ADA
:1000C000230A8C098E099309B809DA09DD09E009C8
:1000D000030A570F570F910F910FEA0F06109C114B
:1000E0009C111110EF1000110011041504151715C3
:1000F00017150D15171517151715041504151215D5
:100100001715171512157C24A3244A26A3244A2662
:10011000EF2412254A26072617261E0F0500047F06
:100120003F1F643214643214783C1E1E140A05000A
:1001300000000000000000000000000000000000BF
:1001400000000000000000000000000000000000AF
:100150000000007E0F00D4FFFFFFC7000000780002
:10016000000000000000002A2B2800000000000012
:100170000000000000000000000029000000002C2A
:100180001E3420212224342627252E362D373827C9
:100190001E1F202122232425263333362E37381FD5
:1001A0000405060708090A0B0C0D0E0F1011121397
:1001B0001415161718191A1B1C1D2F3130232D3535
:1001C0000405060708090A0B0C0D0E0F1011121377
:1001D0001415161718191A1B1C1D2F3130354C0019
:1001E00001010101010101010102020202020202F8
:1001F00002020303030303030303040404040404CB
:100200000405050505050606060606070707070790
:1002100008080808090909090A0A0A0B0B0B0C0C43
:100220000C0D0D0D0E0E0E0F0F0F101011111112DF
:100230001213131414151516161717181819191A5E
:100240001A1B1B1C1D1D1E1E1F20202122222324C1
:1002500024252626272829292A2B2C2D2D2E2F3000
:10026000313232333435363738393A3B3C3D3E3F14
:10027000404142434445464748494A4C4D4E4F5001
:10028000515354555658595A5B5D5E5F61626465BF
:100290006668696B6C6D6F7072737577787A7B7D49
:1002A0007E8082838587888A8C8E8F91939596989D
:1002B0009A9C9EA0A2A3A5A7A9ABADAFB1B3B5B7B9
:1002C000BABCBEC0C2C4C6C9CBCDCFD1D4D6D8DB90
:1002D000DDDFE2E4E7E9EBEEF0F3F5F8FAFDFFFF2E
:1002E000AA7F55402223252628292A2C2D2F30325B
:1002F000333536383A3B3D3E4042434547494A4C08
:100300004E5051535557595A5C5E60626466686935
:100310006B6D6F71737577797B7D7F81838587893D
:100320008A8C8E90929496989A9C9E9FA1A3A5A742
:10033000A8AAACAEAFB1B3B4B6B8B9BBBCBEBFC16E
:10034000C2C3C5C6C7C9CACBCCCDCED0D1D2D2D3F9
:10035000D4D5D6D7D7D8D9D9DADADBDBDBDCDCDC0D
:10036000DCDCDDDDDDDDDCDCDCDCDCDBDBDBDADAD0
:10037000D9D9D8D7D7D6D5D4D3D2D2D1D0CECDCC47
:10038000CBCAC9C7C6C5C3C2C1BFBEBCBBB9B8B65C
:10039000B4B3B1AFAEACAAA8A7A5A3A19F9E9C9AE7
:1003A00098969492908E8C8A89878583817F7D7BB5
:1003B00079777573716F6D6B6968666462605E5C96
:1003C0005A5957555351504E4C4A4947454342405C
:1003D0003E3D3B3A3836353332302F2D2C2A2928F2
:1003E00026252322165C1E001F002000210022006B
:1003F000230024002500260027002D002E000000E9
:100400002A002B0014001A000800150017001C0019
:1004100018000C00120013002F0030003100000003
:10042000390004001600070009000A000B000D0047
:100430000E000F0033003400000028000000E1002F
:1004400000001D001B00060019000500110010002F
:100450003600370038000000E5000000E000E3004F
:10046000E200000000002C0000000000000000007E
:10047000E600E70001510000E40035003A003B00CF
:100480003C003D003E003F00400041004200430070
:100490004400450000004C000100C25CC35CC55C28
:1004A000C65CC75CC85CC95CCA5C0100460047000A
:1004B0004800005C00000100010001000100010093
:1004C000010001000100010049004A004B0000004A
:1004D000010000000100000001000100BD5CBF5CE4
:1004E000BE5CC05C01004C004D004E0000000100ED
:1004F00000000100010001000000000001000000F8
:1005000000000000000001000100010000000100E7
:1005100001000100010001000100010001000100D3
:1005200001000100010001000100000001000100C4
:1005300001000100010001000100010001000100B3
:1005400001000100010001000100000001000100A4
:100550000100010001000100010001000100010093
:100560000100010000000100000001000000010086
:100570000100010001000100010001000100010073
:100580000100000001000000010001000100000066
:100590000000010000000000000000000100010058
:1005A0000100000001000100010001000100010044
:1005B0000100010001000100010001000100010033
:1005C0000000010001000100010001000100010024
:1005D0000100010001000100010001000100010013
:1005E0000000010001000100010001000100010004
:1005F00001000100010001000100000001000000F5
:1006000001000000010001000100010001000100E3
:1006100001000100010001000000010000000100D4
:1006200001000100000000000100000000000000C7
:1006300000000100010001000000010005010902A5
:10064000A10185020901A100050919012908150068
:1006500025019508750181020501093009311581CF
:10066000257F95027508810609381581257F95013A
:1006700075088106050C0A38021581257F950175DC
:10068000088106C0C005010980A101850319012A5E
:10069000B700150126B700950175108100C0050C43
:1006A0000901A101850419012AA002150126A00251
:1006B000950175108100C005010906A10185050598
:1006C0000719E029E7150025019508750181020544
:1006D00007190029EF1500250195F0750181020524
:1006E0000819012905950575019102950175039178
:1006F00001C00660FF0961A1010962150026FF0023
:100700009520750881020963150026FF0095207564
:10071000089102C005010906A101050719E029E7B2
:100720001500250195087501810295017508810163
:100730000507190029FF150026FF00950675088199
:1007400000050819012905950575019102950175A6
:10075000039101C009025B00030100A0FA09040033
:1007600000010301010009211101000122400007DD
:1007700005810308000A09040100020300000009C2
:100780002111010001222200070582032000010738
:100790000503032000010904020001030000000911
:1007A000211101000122B6000705840320000A126E
:1007B00001100100000008EDED6060010001020081
:1007C000010C034D004A003600580059000000108B
:1007D000034D0065006C004700650065006B00007C
:1007E00000040309040011241FBECFEFDAE0DEBFCE
:1007F000CDBF04B603FE27C080914E0390914F03F6
:10080000A0915003B09151038730904BA740B04B5B
:10081000D1F410924E0310924F0310925003109295
:10082000510314BE84B7877F84BF0FB6F894A89590
:1008300080916000886180936000109260000FBE1C
:10084000E0E0F8E3099511E0A0E0B1E0ECEAF7E5BB
:1008500002C005900D92AE3AB107D9F723E0AEEA97
:10086000B1E001C01D92AE34B207E1F70E943C0432
:100870000C94D42B0C940000CF93DF93CDB7DEB74C
:10088000AA970FB6F894DEBF0FBECDBF84B7877F9F
:1008900084BF0FB6F894A89580916000886180931A
:1008A0006000109260000FBE90E080E80FB6F894F0
:1008B00080936100909361000FBE85B7806885BF0B
:1008C00085B7806885BF8FE192E19093AF018093F7
:1008D000AE010E94AC260E94CB268091E20084608B
:1008E0008093E2007894809140038823A1F01091D6
:1008F000E9001F709091EC00892F817090FD80E8D5
:10090000182B1092E9008091E80083FD0E94962345
:100910001F701093E90082E084BD93E095BD9AEFCB
:1009200097BD80936E0080EF0E94E31B81EF0E94D1
:10093000E31B84EF0E94E31B85EF0E94E31B86EF1D
:100940000E94E31B02E211E0A1E3EA2EA1E0FA2EED
:10095000F80181918F010E94E31BE016F106C1F7B7
:10096000E2EBF1E08CEB91E0ABEEB1E01192119291
:100970001D921D928E179F07C9F780E090E00E949C
:10098000DA2A8A3E9E4F11F00E94B71382E090E06F
:100990000E94CC2A8093D8010E94A6139093B101A3
:1009A0008093B0010E94FA1B8FEB9DE50197F1F750
:1009B00000C000000E94FA1B8091EB0180FF17C06D
:1009C0006FEF83E290E00E94E02A6FEF84E290E014
:1009D0000E94E02A6FEF85E290E00E94E02A6FEF2C
:1009E0007FEF80E090E00E94FE2A0E94BB1283E02D
:1009F00090E00E94CC2A682F70E080E090E00E9496
:100A0000DF153F9A479A279A2F9883E290E00E9439
:100A1000CC2A813281F484E290E00E94CC2A873093
:100A200051F485E290E00E94CC2A91E0883209F0EE
:100A300090E0892F01C080E080FD1DC060E087E26A
:100A400090E00E94E02A60E086E290E00E94E02AC6
:100A50000E940D200E94FD1F61E283E290E00E944F
:100A6000E02A67E084E290E00E94E02A68E285E202
:100A700090E00E94E02A0E94A6208091BC01811192
:100A800036C080E090E00E94DA2A8A3E9E4F21F034
:100A90000E94B7130E94BE1888E090E00E94D42AFA
:100AA0006093E6017093E7018093E8019093E90178
:100AB0006E7F71F40E94BE1888E090E00E94D42AF4
:100AC0006093E6017093E7018093E8019093E90158
:100AD0000E9477181092E5018091E60180FF04C022
:100AE00060E086950E94571A81E08093BC0184E003
:100AF00091E09093BE018093BD0178E1472E512C87
:100B0000E0E43E2EF5EF6F2EF1E07F2E8E010F5FB9
:100B10001F4F6E01FBE0CF0ED11C8091400385304A
:100B200009F07EC0BB24B39450E1E52E62E1F62EBD
:100B300080914003853009F05AC080914003843091
:100B400009F443C080E00E94742080E00E94491EA6
:100B50001092E5018091C101811116C0B092C101CE
:100B60008091E601982F91709093C0018E7F8093C1
:100B7000E6012FEF30E742E0215030404040E1F7FE
:100B800000C000000E9402211092BF010FB6F8942D
:100B9000A895409260000FBE3092600083B7817FBD
:100BA000846083BF83B7816083BF7894889583B75F
:100BB0008E7F83BF0FB6F894A895809160008861FE
:100BC00080936000109260000FBE80913F038823E5
:100BD00009F4AECF0E94FA1BEBEEF1E08191919106
:100BE000892B09F05AC46E167F06C1F7A1CF0E9467
:100BF0000E180E94A6200E947E1F0E94491E10927D
:100C0000C1018091C001882349F08091E601816093
:100C10008093E60160E086950E94571A0E94EC20BE
:100C20000E94FA1B882359F08FB7F8944091F50180
:100C30005091F6016091F7017091F8018FBFA9ED15
:100C4000B1E0EBEEF1E0E12CF12C7E2D2191319120
:100C50008D919D9182279327009779F160E0AA24D6
:100C6000A394B12CA50148235923452B09F169A36D
:100C70007AA32A213B2181E0232B09F480E08BA376
:100C80000E9414138160782F9DA38CA349A15AA1BF
:100C90006BA18DA10E94B41EF701EE0FFF1FE7525A
:100CA000FE4F80819181A826B926B182A0821CC006
:100CB0006F5FAA0CBB1C6F30A9F68FEFE81AF80A19
:100CC00095E0E916F10409F68FEF8EA38FA318A61D
:100CD0000E9414138160782F9AA789A74EA15FA163
:100CE00068A58AA50E94B41E8091E501882309F4B5
:100CF000AAC08091E401E091E601E695E81BE0934B
:100D0000C401823059F4F0E0E55DFE4FE491EE2E2F
:100D1000F12C30EAA32E3EE1B32E70C0863059F498
:100D2000F0E0E85DFE4FE491EE2EF12C20E9A22EDA
:100D30002EE1B22E63C0893061F4E695F0E0EB5D00
:100D4000FE4FE491EE2EF12C9EE4A92E93E2B92EF3
:100D500055C08F3061F4E695F0E0EE5DFE4FE49112
:100D6000EE2EF12C8AEEA82E82E2B82E47C08531F5
:100D700059F4F0E0E15EFE4FE491EE2EF12CBCE977
:100D8000AB2EB2E2BB2E3AC08831F9F0833249F47F
:100D9000EDE1F1E0E590F490A0E5AA2EAEE1BA2EE7
:100DA0002DC08432D1F0853209F58E2F63E00E9488
:100DB000772BE92FF0E0E65EFE4FE491EE2EF12C6A
:100DC000F8E3AF2EF1E2BF2E19C078E2E72EF12C46
:100DD000E3E1AE2EE2E2BE2E11C054EFE52EFF2479
:100DE000F39469EDA62E61E2B62E08C030EDE32E35
:100DF00037E0F32E4FE4A42E4EE1B42E8091C501CE
:100E0000882361F01092C5010E9414139093C301CE
:100E10008093C2011092C7011092C6010E94141360
:100E2000E091C201F091C3018E1B9F0B8F3F9F4742
:100E300050F4EE0EFF1EF092C301E092C20182EC6C
:100E400091E0F501099581E090E00090CA0102C0AF
:100E5000880F991F0A94E2F72091C8013091C901C7
:100E600082239323892B11F02F9A01C02F98809110
:100E7000CA0190E001968F7099278093CA0186E09D
:100E8000E1EDF1E0D80101900D928A95E1F7A09093
:100E9000D301B090D401E090D501F090D60110922A
:100EA000D3011092D4011092D5011092D601A11055
:100EB00003C0BB2009F451C08091CF019091D001B3
:100EC0000E9405139C019091CE01992309F4FBC265
:100ED0002333310508F441C09F3F19F09F5F909381
:100EE000CE01AA2061F00E94681B1A1414F491E04C
:100EF00001C09FEF899F802D11248093D301BB20D7
:100F000061F00E94681B1B1414F491E001C09FEF74
:100F1000899F802D11248093D4013091D3013323F4
:100F2000E1F02091D4012223C1F045EB3403C0014C
:100F30001124992319F09093D30103C081E0809389
:100F4000D30135EB2303C0011124992319F09093A9
:100F5000D40103C081E08093D401E11003C0FF20DD
:100F600009F451C08091CC019091CD010E940513EC
:100F70009C019091CB01992309F4AAC22536310531
:100F800008F441C09F3F19F09F5F9093CB01EE2082
:100F900061F00E94461B1E1414F491E001C09FEF03
:100FA000899F802D11248093D501FF2061F00E943C
:100FB000461B1F1414F491E001C09FEF899F802D00
:100FC00011248093D6013091D5013323E1F0209193
:100FD000D6012223C1F045EB3403C001112499232B
:100FE00019F09093D50103C081E08093D50135EBD2
:100FF0002303C0011124992319F09093D60103C053
:1010000081E08093D6018091D30181110BC0809142
:10101000D401811107C08091D501811103C0809155
:10102000D60181110E94A51AAB82BC82ED82FE829C
:1010300086E0F801A1EDB1E001900D928A95E1F70B
:101040000E947E1F9091D701891731F00E947E1F68
:101050008093D7010E94491E80914003843009F09B
:101060005CCD83E08093E9008091E80082FF55CD5C
:101070008091E80085FF21C00E94012881111BC0DA
:1010800020E2E22EF12C580109C08091F100F50117
:1010900081935F01F1E0EF1AF10869F08091E800B7
:1010A00085FDF3CF8091E8008B778093E8000E9464
:1010B0000128882399F391E001C090E08091E80035
:1010C0008B778093E800992309F427CDE9818E2F4F
:1010D00090E0FC013197E331F10508F0B4C1EA5A20
:1010E000FF4F0C94AB2B1A8289E01BC18A8182309E
:1010F00099F0833051F1813009F0A5C12FB7F894F0
:101100008091F5019091F601A091F701B091F8015D
:101110002FBFBB83AC8344C086E290E00E94CC2A00
:10112000F82E87E290E00E94CC2A4F2D50E060E03C
:1011300070E0762F652F542F44274A015B01882ADF
:10114000D501C4011B821C822BC0F801ABEEB1E0BB
:101150008C9111969C91119712969283838332966B
:10116000EC15FD05A9F771C18A81823009F06BC1C8
:101170006B817C818D819E810E94B12B4B015C0132
:1011800087E290E00E94E02A99278B2D7A2D692D25
:1011900086E290E025C04C816B818A810E944120CB
:1011A0009D838E8352C1AD80BE80BA24AB24BA2405
:1011B0008C81EB809A812EE1E29E7001112436E948
:1011C000939FE00CF11C1124E80EF11CE80EF11CB9
:1011D0006B2DC70188960E94E02A6A2DC701899667
:1011E0000E94E02A32C10E940D202FC18A818930DD
:1011F00061F48B814AE0849FC00111246FEF70E09D
:101200000E94832B862F0E948D208A818138B1F025
:1012100050F4803809F019C120E04B816091E80159
:101220008091E70131C0823859F1833809F00DC14E
:1012300020E04091E9016C818B8126C060E08B81C8
:101240000E94571A9B818091E601911111C08E7FF7
:101250008093E6011092E5018FEF90E7E2E0815084
:101260009040E040E1F700C000000E940221EDC084
:1012700081608093E60160E086950E94571AE5C080
:101280008B818093EA01E1C00E947E19DEC08A81D1
:10129000893021F08A3089F41B82D7C08091E30124
:1012A000869586958695FFEF8F9FC00111246AE091
:1012B00070E00E94832B6B83C8C0813899F030F4B2
:1012C000803809F0C2C08091E9012BC0823891F0CA
:1012D000833809F0BAC08091E7018B838091E801DF
:1012E0008C83B3C08091E60180FF02C0869519C04F
:1012F00080E017C08091EA0114C08091E3010E9450
:1013000088206091E6017091E7018091E801909159
:10131000E9010E948A1899C080E150C081E08A8367
:1013200080E88B8392C0EA80FB80FE24EF24FE24B9
:101330008C80912C5801C70180589D4F9501201B2E
:10134000310B2815390508F080C020E8E21621E0AD
:10135000F20628F40E94CC2AF501848302C0F5012C
:101360001482FFEFEF1AFF0A2FEFA21AB20AE3CF9F
:10137000EA80FB80FE24EF24FE248C80912C58010F
:10138000C70180589D4F9501201B310B2815390549
:1013900008F05BC030E8E31631E0F30620F4F50115
:1013A00064810E94E02AFFEFEF1AFF0A2FEFA21AD2
:1013B000B20AE6CF0E94FD1F48C084E08A8345C080
:1013C000EA80FB80FE24EF24FE248C80912C5801BF
:1013D000C70188969501201B310B28153905A8F502
:1013E00038E5E31632E0F30628F40E94CC2AF50132
:1013F000848302C0F5011482FFEFEF1AFF0A2FEF7A
:10140000A21AB20AE5CFEA80FB80FE24EF24FE2474
:101410008C80912C5801C70188969501201B310BB7
:101420002815390590F438E5E31632E0F30620F488
:10143000F50164810E94E02AFFEFEF1AFF0A2FEF07
:10144000A21AB20AE8CF8FEF8983809140038430DB
:1014500009F063CB8091E9008F702091EC00922F0E
:10146000917020FD90E8F92EF82A82E08093E9003F
:101470008091E80080FF0CC040E050E060E270E046
:10148000C8010E9434288091E8008E778093E8009C
:101490008F2D8F708093E90040CBE9BCF9BC09B473
:1014A00000FEFDCF8091D8008F7D8093D800809181
:1014B000E00082608093E0008091E00081FDFCCF3D
:1014C0000E940E1835CB2D32314008F007CD45CDA6
:1014D0002D32314008F058CD96CD3F924F925F9219
:1014E0006F927F928F929F92AF92BF92CF92DF9234
:1014F000EF92FF920F931F93CF93DF93CDB7DEB799
:1015000029970FB6F894DEBF0FBECDBFFC018081D6
:10151000918123813481232B31F09F3F31F491E07D
:101520008F3F19F403C091E001C090E090FD6CC7BB
:101530007F0185E0DE01119601900D928A95E1F719
:10154000F701228189819A81222349F00E94A51402
:10155000182F682F89819A810E94471503C00E9425
:101560001B15182F69817A81812F0E9467208C01B9
:10157000F7018281882309F4F2C0980122513F4586
:101580002031310508F019C18FEF93E00E94CC2A79
:101590008111EFC0025130E8832E32E0932E0023F8
:1015A00079F08114F4E09F0609F4E3C0C4010E94BD
:1015B000CC2A811101C001501FEF811A910AEFCF8F
:1015C0001E821F8218861986442443942AE0322EF4
:1015D00084010F5F1F4FC4010E94CC2A8E831F829B
:1015E000882309F4C6C09FEF980F933060F48F836F
:1015F0004E8222E0820E911CC8010E94CC2A88876C
:10160000811102C0B6C048018E010A5F1F4FF80168
:1016100020812223E9F2213009F04CC08181813000
:1016200049F46801F2E0CF0ED11CF80182810E94DA
:10163000A0290AC0823051F46801F2E0CF0ED11C1B
:10164000F80182810E94DC28860186C0833049F43B
:101650006801F2E0CF0ED11CF80182810E9475284A
:10166000F3CF843019F00F5F1F4F76C0F80122814D
:101670000E5F1F4F80E090E030E0205331092A30A8
:10168000310568F4389EA001399E500D1124C9011E
:10169000840F951F0F5F1F4FF8012081EDCF00973A
:1016A00009F45AC0EFE9FFE03197F1F700C00000FC
:1016B0000197F5CFE22FF0E0E15AFE4F5490822FD0
:1016C00086958695869590E0FC01E15BFE4F6490DF
:1016D0002770712C022E02C0759467940A94E2F769
:1016E000F1E06F227724FC01E15CFE4FA490B12C65
:1016F000022E02C0B594A7940A94E2F731E0A32227
:10170000BB24FC01E15DFE4FC490D12C02C0D594F6
:10171000C7942A95E2F781E0C822DD2461147104A0
:1017200019F081EE0E94DC28A114B10419F086EEB4
:101730000E94DC28852D0E94A029AB2819F086EE96
:101740000E947528672819F081EE0E947528CD281F
:1017500019F08CE20E94A0290F5F1F4F58CF003173
:10176000EFE51E0709F047C681E00E947C150E9444
:10177000782380918602877009F446C6F70182813A
:10178000882309F441C682E029960FB6F894DEBF9B
:101790000FBECDBFDF91CF911F910F91FF90EF90C2
:1017A000DF90CF90BF90AF909F908F907F906F9081
:1017B0005F904F903F900C94A11500313FE51307C7
:1017C00011F481E005C001319FE5190721F482E0A1
:1017D0000E94BE15CCCF0D3BFCE51F0781F4809124
:1017E000E301982F969596959695C9F1915E990F7C
:1017F000990F990F8770892B8093E30124C00E3BCA
:101800002CE5120708F43EC00F3BECE51E0769F11A
:1018100008F4D4C5003C2CE5120709F045C09091AE
:10182000E301892F8695869586958F5F8F718B3022
:1018300008F0DDC5880F880F880F9770892B80937B
:10184000E3018091E301887F91E009F490E08091C9
:10185000E30190FB80F98093E3010E94882080914E
:10186000E3018695869586950AC08091E30180FF05
:101870009AC58E7F8093E3010E94882080E00E94B9
:10188000742077CF0B3B3CE5130711F48AE005C0C9
:101890000C3B9CE5190741F480E00E948D2080916B
:1018A000E3010E94882065CF033FFCE51F0799F400
:1018B00006E221EE40EE63EF7CE509C0073DECE572
:1018C0001E0711F506E221EE41EE67ED7CE5C7014A
:1018D0000E948A1F4ECF043F2CE5120708F03FC13B
:1018E000083D3CE5130731F407E225EE45EE68EDCF
:1018F0007CE5EDCF093D9CE5190701F708E221E001
:1019000045EE69ED7CE5E3CF882309F45DC11092D3
:10191000F90102309CE5190708F440C10631ECE5F5
:101920001E0730F0C8018A5F9C45099708F036C150
:101930000E94A6139093B1018093B0010031FCE5A1
:101940001F0709F4C3C008F041C008303CE5130785
:1019500009F49AC0F0F404309CE5190709F487C033
:1019600068F40230FCE51F0709F477C003301C451A
:1019700009F0E5C08091B001826076C006303CE598
:10198000130709F46EC008F07BC08091B001886035
:101990006BC00C309CE5190709F485C068F40A3067
:1019A000FCE51F0709F474C008F079C00E940E1806
:1019B0008091B001806858C00E303CE5130709F4EF
:1019C00076C008F07FC08091B0018BC00B3F9CE5D2
:1019D000190709F44FC018F50331FCE51F0709F496
:1019E0007DC078F401313CE5130709F473C002317E
:1019F0001C4509F0A4C00E940E188091B0018F7799
:101A000033C005319CE5190709F472C008F486C09B
:101A10000A3F1C4509F093C08091B1013EC00F3FC1
:101A20002CE5120709F45FC058F40D3F8CE5180748
:101A300009F444C008F43FC08091B10182602DC018
:101A40000130EDE51E0709F475C008F45DC00230F1
:101A50001D4509F074C060E06EC08091B0018160E6
:101A600003C08091B00180618093B00168C0809113
:101A7000B00111C08091B10182608093B1015FC05B
:101A80008091B0018062F0CF8091B0018064ECCF92
:101A90008091B00188608460E7CF8160EECF809153
:101AA000B0018E7FE1CF8091B0018D7FDDCF80913D
:101AB000B001877FD9CF8091B10118C08091B10169
:101AC0008D7FDBCF8091B0018F7ECECF8091B00132
:101AD0008F7DCACF8091B0018F7BC6CF8091B0013E
:101AE000877F8B7FC1CF8091B1018D7F8E7FC5CFE6
:101AF0008091B00182FB222720F991E0922790FB90
:101B000082F990FB83F9B0CF8091B101982F909525
:101B100091708E7F892B90FB81F9AFCF0E940E18B8
:101B20008091B00187FB222720F991E0922790FB5A
:101B300087F99ACF61E08EE090E00E94E02A609100
:101B4000B0011091B10184E090E00E94E02A612F81
:101B500082E290E00E94E02A0E940E180ACE053F21
:101B6000FCE51F0731F406E221EE42EE65EF7CE56D
:101B7000AECE053F2CE5120730F407E225EE44EE29
:101B800064EF7CE5A4CE063F3CE5130709F0BCCE2C
:101B900007E225EE46EE66EF7CE599CE809189025C
:101BA00006319CE5190709F58A7A91E009F490E07D
:101BB0009093FA01882311F065E301C069E28BEF8D
:101BC00091E00E9471130EC006311C4509F029C135
:101BD0008091FA01882309F415C465E38BEF91E045
:101BE0000E9449130E942814C4CD82720C3C3CE52B
:101BF000130709F4C4C008F045C0063CECE51E0715
:101C000009F4A9C0D8F4033C2CE5120709F499C0E3
:101C100030F4023C8CE5180709F46EC0D1C0043CD6
:101C20009CE5190709F492C0053CECE51E0709F094
:101C3000C7C045E45AE16EE47AE1A5C0093CFCE581
:101C40001F0709F492C078F4073C3CE5130709F438
:101C500087C0083C9CE5190709F0B2C049E35AE186
:101C60006DE27AE190C00A3CECE51E0709F482C0FF
:101C70000B3CFCE51F0709F0A3C04CE958E16DEAF5
:101C800078E181C0013D2CE5120709F488C0A0F479
:101C90000E3C8CE5180709F47CC008F477C00F3CB3
:101CA000ECE51E0709F478C0003DFCE51F0709F0CC
:101CB00087C06EE089E081C0043D2CE5120709F47D
:101CC00074C068F4023D8CE5180709F46BC0033D4D
:101CD0009CE5190709F074C061E088E16BC0053D1F
:101CE000ECE51E0709F464C00D35FDE51F0709F09A
:101CF00067C06AE285E261C08091E60180FF1BC097
:101D00008E7F8093E6016091E6017091E7018091FA
:101D1000E8019091E9010E948A181092E5010FEF05
:101D200010E722E0015010402040E1F700C0000021
:101D30000E9402211ECD81608093E60161E08695BC
:101D400039C042E95AE16BE97AE11DC04BE95AE139
:101D500062E97AE118C04EE45AE165E47AE113C021
:101D60004DE25AE169E37AE10EC045E15AE161E2F0
:101D70007AE109C041E25AE165E17AE104C04DEA45
:101D800058E16CE978E10E94E620F3CC61E081E063
:101D900011C065E082E011C068E086E00EC064E139
:101DA0008FE00BC067E185E108C062E289E105C010
:101DB00061E083E20E94571ADCCC0E94D420D9CC87
:101DC0000A353DE5130741F150F401159CE519076B
:101DD000A9F00E3D1C4529F50E94B713CACC0B355E
:101DE000FDE51F07D9F00C351D45D9F48091B101EF
:101DF00082FB882780F991E0892711C00E940E1884
:101E00003FEF84E39CE0315080409040E1F700C018
:101E100000000E94BB12ADCC81E001C080E00E94B6
:101E20008B14F701828100811181882349F0C80158
:101E30000E94A514D82E682FC8010E94471504C01F
:101E4000C8010E941B15D82EB8018D2D0E94BA1C06
:101E50008C01982EF701D280A580A2949FE0A92240
:101E600080918602877099F0DD2089F0812F807F34
:101E7000803421F080E2800F883048F082E00E94B8
:101E8000A115809186028770CC24C3948111C12C46
:101E9000B12EB2948FE0B8228B2D90E08C3091055A
:101EA00008F04AC2FC01E759FF4F0C94AB2B812F7D
:101EB000807F1F70882311F01295107FDD20B9F00C
:101EC000112309F424C280E2800F883010F09110B1
:101ED00006C080918902182B1093890205C0809159
:101EE0008802182B109388020E94281410C2802F99
:101EF0000E947528112309F41FC2005E1095083056
:101F000010F0911006C08091890218231093890265
:101F100005C0809188021823109388020E9428141B
:101F20000BC2812F807F1F70803211F01295107FBD
:101F3000992021F0F1E09F1611F130C0DD20B1F0C1
:101F4000AA2081F001E0A0120DC08091B10182FDB4
:101F5000F3C180918A02182B181709F4EDC1109370
:101F60008A02EAC180918A02812B10C0AA2021F046
:101F700021E0A21609F4E0C10E94221427C0DD204E
:101F800041F035E03A1508F4D7C1812F0E946B2843
:101F9000D3C184E08A1508F4CFC118C0DD2049F010
:101FA000AA2099F3F701858180FFB1C18F708583E5
:101FB000ECCFAA2059F0093309F0BBC1FFEF17EEAF
:101FC00023E0F15010402040E1F7B1C1812F0E9481
:101FD0006028B2C1812F86958695837019F0813073
:101FE00059F0AAC1DD2019F0C801937002C080E049
:101FF00090E00E94681FA8C1DD2019F0C80193700D
:1020000002C080E090E00E94521F9EC1802FDD2020
:1020100019F00E94881B02C00E94CF1A0E94A51AC4
:1020200093C1812F837009F069C0D11089C1902FAD
:10203000929596959770990F990F802F8F70882E93
:10204000912CA12CB12C092E04C0880C991CAA1C1F
:10205000BB1C0A94D2F704FF12C04FE050E060E0CE
:1020600070E004C0440F551F661F771F9A95D2F782
:10207000DB01CA0180959095A095B09503C080E0E2
:1020800090E0DC0116951695412F4370423019F10E
:10209000C8F400918B0210918C0220918D02309136
:1020A0008E02413059F088299929AA29BB29BC01FF
:1020B000CD0160237123822393230AC0802A912AB1
:1020C000A22AB32ABC01CD01682979298A299B2932
:1020D0000E94DF1535C188299929AA29BB290091B9
:1020E0008B0210918C0220918D0230918E02BC01E6
:1020F000CD016027712782279327EACFDD2019F0D1
:10210000812F817001C08695882309F419C1902F11
:10211000929596959770990F990F802F8F70882EB2
:10212000912CA12CB12C092E04C0880C991CAA1C3E
:10213000BB1C0A94D2F704FF12C04FE050E060E0ED
:1021400070E004C0440F551F661F771F9A95D2F7A1
:10215000DB01CA0180959095A095B09503C080E001
:1021600090E0DC0116951695412F43704230D9F06E
:1021700068F500914A0310914B0320914C03309174
:102180004D03413059F088299929AA29BB29BC015E
:10219000CD0160237123822393231EC0802A912ABC
:1021A000A22AB32A13C088299929AA29BB290091F8
:1021B0004A0310914B0320914C0330914D03BC0115
:1021C000CD01602771278227932706C0BC01CD016E
:1021D000682979298A299B290E947215B1C01F702C
:1021E000DD2039F0812F0E94BE15802F0E946B28C0
:1021F000A7C0802F0E946028812F0E947C15A0C05C
:10220000802F32EF931609F440C0391538F090EF63
:10221000991661F0E1EF9E1699F174C0F3EF9F16E5
:10222000D9F124EF921609F44EC06CC0DD2019F1EB
:1022300034E03A1508F480C01F7181E090E0A0E01E
:10224000B0E0AC01BD0104C0440F551F661F771FED
:102250001A95D2F780914A0390914B03A0914C03B9
:10226000B0914D038A019B01082719272A273B2794
:10227000C901B80125C025E02A1508F45DC0DCCFEE
:10228000DD2029F0812F8F7130C0DD20D9F3812F1F
:102290008F710E947C1550C0DD2079F01F7181E0A4
:1022A00090E0A0E0B0E0BC01CD0104C0660F771F54
:1022B000881F991F1A95D2F703C060E070E0CB0128
:1022C0000E94721539C0DD2099F01F71812F0E9484
:1022D000BE158091B10182FD07C038E0139FC00197
:1022E0001124836080938602812F0E94BE1524C032
:1022F00081E00E94A11581E08A15F0F482E00E943D
:10230000A1151AC0DD2039F0AA2009F4BBCF802F17
:102310000E94DC2811C0AA2009F4B9CF893349F4FE
:102320009FEFE7EEF3E09150E040F040E1F700C0AE
:102330000000802F0E94752888EF8B0D843020F4D8
:102340000E947E1F0E94491ECC2009F45DC080912E
:10235000860280FD59C0F701128285958595859585
:102360000E94BE15C7010E946D0A80918602859564
:102370008595859529960FB6F894DEBF0FBECDBF23
:10238000DF91CF911F910F91FF90EF90DF90CF9051
:10239000BF90AF909F908F907F906F905F904F9085
:1023A0003F900C947C1581608093E301813019F497
:1023B00089E08093E3018091E3014FCA2091E3011A
:1023C000822F869586958695482F50E04A30510594
:1023D00054F48F5F982F990F990F990F822F877060
:1023E000892B8093E3018091E301816034CA977067
:1023F0009093E30126CA0131FFE51F0709F054CA93
:1024000082E0B3C969E2EACB29960FB6F894DEBF41
:102410000FBECDBFDF91CF911F910F91FF90EF9035
:10242000DF90CF90BF90AF909F908F907F906F90F4
:102430005F904F903F90089580911D03089580E034
:102440000895CF93DF9300D01F92CDB7DEB7909160
:102450004003943011F589837B836A839093E9006C
:102460008FEF9091E800815095FD06C095ED9A950B
:10247000F1F700008111F5CF8091E80085FF0DC0D4
:1024800040E050E063E070E0CE0101960E94342805
:102490008091E8008E778093E8000F900F900F9066
:1024A000DF91CF910895BC0184E00C942112BC010E
:1024B00083E00C94211224E02093E9002FEF309167
:1024C000E800215035FD06C035ED3A95F1F70000E2
:1024D0002111F5CF2091E80025FF0BC040E050E02E
:1024E00066E070E00E9434288091E8008E77809347
:1024F000E8000895CF93DF9320911C01222339F047
:102500002091B00127FF03C060E224E002C068E030
:1025100021E02093E9002FEF3091E800215035FDB4
:1025200006C035ED3A95F1F700002111F5CF209165
:10253000E80025FF1DC0EC0180911C01811105C040
:1025400040E050E068E070E003C070E040E050E040
:10255000CE010E9434288091E8008E778093E800B5
:1025600080E2FE01AEE1B3E001900D928A95E1F7C1
:10257000DF91CF91089581E08093E00080E2809325
:10258000D8001092C9008FE19EE40197F1F700C0D6
:10259000000087E090EBDC0180934E0390934F03A3
:1025A000A0935003B09351039CE088E10FB6F894D8
:1025B000A895809360000FBE90936000FFCF789441
:1025C0001F920F920FB60F9211248F939F93AF9388
:1025D000BF938091F5019091F601A091F701B09120
:1025E000F8010196A11DB11D8093F5019093F601AC
:1025F000A093F701B093F801BF91AF919F918F9194
:102600000F900FBE0F901F9018959C014FB7F89434
:102610008091F5019091F601A091F701B091F80138
:102620004FBF821B930B08952FB7F8948091F5014B
:102630009091F601A091F701B091F8012FBF089594
:102640001F920F920FB60F9211248F939F93AF9307
:10265000BF938091BF01811113C08091F5019091CA
:10266000F601A091F701B091F8014196A11DB11DAD
:102670008093F5019093F601A093F701B093F801D0
:10268000BF91AF919F918F910F900FBE0F901F90B0
:10269000189520911C012223C9F02091B00127FF39
:1026A00015C0262F2695269526952E31C8F4FC01B7
:1026B000E20FF11D677081E090E001C0880F6A951C
:1026C000EAF780959281892382830895FC0106961A
:1026D0002281621301C012823196E817F907C1F70F
:1026E000089520911C012223C1F02091B00127FF01
:1026F00014C0262F2695269526952E3130F5FC01FF
:10270000E20FF11D677081E090E001C0880F6A95CB
:10271000EAF79281892B82830895FC0132962FEF8C
:1027200030E04191641789F02F3F19F4411101C045
:10273000232F3F5F3630A9F72F3F39F0FC01E20F1E
:10274000F11D27FDFA95628308950895CF9384E0E3
:1027500090E00E94CC2AC82F82E290E00E94CC2A0E
:102760002C2F30E0A901582BCA01CF9108956AEEB1
:102770007EEF80E090E00E94FE2A60E082E090E040
:102780000E94E02A60E083E090E00E94E02A10923C
:102790008B0210928C0210928D0210928E0260E0D9
:1027A00084E090E00E94E02A60E082E290E00E94F3
:1027B000E02A60E085E090E00E94E02A60E086E0A8
:1027C00090E00E94E02A6FEF87E090E00E94E02A0C
:1027D00040E050E0BA0188E090E00E94F22A60E018
:1027E0008DE090E00E94E02A40E050E0BA0188E1EC
:1027F00090E00E94F22A60E087E190E00E94E02AE7
:1028000040E050E0BA018CE190E00E94F22A60E0E2
:1028100070E080E290E00E94FE2A40E050E0BA01C1
:1028200088E190E00E94F22A40E050E0BA018FE097
:1028300090E00E94F22A40E050E0BA0183E190E08B
:102840000C94F22A80918A02811110928A020895D2
:102850009091890280918802892B20918702982F7C
:10286000922B9093FB0180918A028823D9F0892BC7
:102870008093FB0180911C01882331F08091B0018D
:1028800087FF02C08EE101C086E0EDEFF1E090E04D
:10289000815028F021912223D9F39F5FF9CF911124
:1028A0000E942214E091BD01F091BE013097A9F081
:1028B00080911C01882359F08091B00187FF07C0E7
:1028C0008091FB018093FC0185E08093FB010280F5
:1028D000F381E02D8BEF91E00994089580E090E082
:1028E0000E94681F80E090E00E94521F10928802B0
:1028F000109287020E942814E1EDF1E086E0DF01EA
:102900001D928A95E9F71092CE011092CB01109298
:102910001B020C94A51ACF93C091B101C2FB992759
:1029200090F9981781F080FBC2F9C093B1016091D2
:10293000B00184E090E00E94E02A6C2F82E290E0F7
:10294000CF910C94E02ACF910895BF92CF92DF925D
:10295000EF92FF920F931F93CF93DF938C01C09060
:102960004A03D0904B03E0904C03F0904D038091CC
:102970008B0290918C02A0918D02B0918E02C82A98
:10298000D92AEA2AFB2ACFE1D0E0D701C6010C2ED2
:1029900004C0B695A795979587950A94D2F780FDC0
:1029A00004C0219790F7B12C07C0BC2EB8018C2F22
:1029B0000E94BA1C0197A9F38B2DDF91CF911F9133
:1029C0000F91FF90EF90DF90CF90BF900895CF933D
:1029D000DF93EC010E94A514BE010E94BA1CDF9196
:1029E000CF9108950E94E714292F2F70E92FE295C7
:1029F000EF704E2F50E0FA013297EE30F105B8F447
:102A0000EB58FF4F0C94AB2B803F99F018F4883EA5
:102A100070F40FC0843F59F40CC0883E50F0813FE1
:102A200031F407C0822F869586958695089580E0BB
:102A3000089581E008952FE0929F800D1124682F62
:102A4000669566956695982F977085E0689FB001AA
:102A5000112440E050E080E0FB01E40FF51FEC5A48
:102A6000FD4F208130E0092E02C0369527950A944B
:102A7000E2F721703327042E01C0220F0A94EAF7EF
:102A8000822B4F5F5F4F4530510531F708952FE09E
:102A9000929F800D1124E82FE695E695E6958770C4
:102AA00051E001C0550F8A95EAF785E0E89FF001F3
:102AB0001124EC5AFD4F20E030E070E04081CB0162
:102AC000022E02C0969587950A94E2F7817081954F
:102AD00084278523842781932F5F3F4F253031053D
:102AE00069F7089560934A0370934B0380934C03F6
:102AF00090934D030C946E140F931F9341E050E09C
:102B000060E070E004C0440F551F661F771F8A9570
:102B1000D2F7409550956095709580914A039091B9
:102B20004B03A0914C03B0914D038A019B010823F4
:102B300019232A233B23C901B8011F910F910C943B
:102B40007215209186028095822380938602982FA9
:102B5000977041F430E0482F082E000C550B2417D5
:102B6000350721F49091B10192FF07C085958595B5
:102B700085950E947C151092860208950F931F93ED
:102B800041E050E060E070E004C0440F551F661F54
:102B9000771F8A95D2F780914A0390914B03A091B9
:102BA0004C03B0914D038A019B01082B192B2A2B52
:102BB0003B2BC901B8011F910F910C9472156093C2
:102BC0008B0270938C0280938D0290938E020C94F2
:102BD0006E148091530290912202891719F08F5F31
:102BE0008770FBCF08950F931F93CF93DF9380914E
:102BF000210282958F7009F05DC080911E028823AA
:102C000009F458C0809153021091220260911C0275
:102C100070911D02C0911F02D091200291E06F3F80
:102C200009F090E0292F06E0811709F443C02097AE
:102C300021F07F3F21F030E003C031E001C0322FAE
:102C400090E030FD34C0089FF001099FF00D112481
:102C5000DF01AD5DBD4F11963C911197371327C031
:102C60003C91361324C012963C91129731111FC02B
:102C700013964D915C9114974C1B5D0B483C51058C
:102C8000B0F4809121028F70806180932102E85D11
:102C9000FD4F80818F70806180838CE192E00E9483
:102CA0006D0ADF91CF911F910F910C94E915019658
:102CB0008770BACFDF91CF911F910F9108959F92A6
:102CC000AF92BF92CF92DF92EF92FF920F931F933A
:102CD000CF93DF93CDB7DEB761970FB6F894DEBF21
:102CE0000FBECDBF8C0185E0F801DE011D9601907D
:102CF0000D928A95E1F7F80190818181E28030910F
:102D00001C0260911D0240911F025091200241154A
:102D1000510531F06F3F31F421E03F3F19F403C01A
:102D200021E001C020E0F22FF1709F2E20FD23C191
:102D3000F801C380D4802CE1A22E22E0B22EF090C4
:102D40001E02F601E41BF50BFF2009F4CEC0209112
:102D50002102E83CF10508F099C0422F407F09F0BC
:102D600051C0681311C039130FC0FE2CE1100CC004
:102D70002F70206120932102C5010E946D0A80916D
:102D80002102F801858337C1CD2831F08F3F31F41E
:102D900021E09F3F19F403C021E001C020E020FDA5
:102DA00003C021E02E2502C020E030E0F22FF170B8
:102DB000FF2E20FF1DC0209153024091220256E0B9
:102DC000241709F4F6C030E0529FF001539FF00D34
:102DD0001124ED5DFD4F6181861306C0608196135D
:102DE00003C06281E61204C02F5F3F4F2770E8CF17
:102DF000FE2CEE2009F4FFC08091210281608093B7
:102E0000210250C0681307C0391305C0E11003C088
:102E1000F80125838DC09D878E878D859E850E94B4
:102E2000F214882369F1EE2059F120912102822FBA
:102E300082958F7090E0029774F080911C029091BF
:102E40001D0298878F831986DB86CA862C87CE0160
:102E500007960E946D0A86E0F801ACE1B2E00190AD
:102E60000D928A95E1F70E94F3150DC06817E1F005
:102E70009D878E878D859E850E94F21481111EC0CC
:102E8000C8010E946D0AFF24F394B5C0422F407F11
:102E900069F78CE192E00E946D0A86E0F5011192DB
:102EA0008A95E9F7F12CA7C03913E2CFE110E0CF02
:102EB000F8012583C8010E946D0A57C0EE2001F376
:102EC00020912102822F82958F7090E002971CF250
:102ED00080911C0290911D029A8389831B82DD825E
:102EE000CC822E83CE010196B4CFE83CF105E8F503
:102EF000FE2CEE2029F2681327C0391325C020913B
:102F0000210220FD18C0822F82958F70482F50E03B
:102F10004115510581F0F80125834F30510541F0ED
:102F20008F5F982F9295907F822F8F70892B85834A
:102F3000C8010E946D0A86E0F801ACE1B2E00190A0
:102F40000D928A95E1F757C09D878E878D859E8566
:102F50000E94F21481117FCF8091210281608093C1
:102F60002102C8010E946D0A46C086E0F501119257
:102F70008A95E9F740C0EE2009F482CF9D878E87BD
:102F80008D859E850E94F214F82E882309F478CF4F
:102F900086E0F801ACE1B2E001900D928A95E1F78C
:102FA00080911C0290911D020E94E7140E94F3156B
:102FB00022C09D878E878D859E850E94E714292FCC
:102FC00022952F70223028F49F7039F0811105C0AE
:102FD0000BC0243028F49F7049F4805E883020F0C4
:102FE000C8010E946D0A9F2CF92C05C0F80195813B
:102FF000907F99F7F9CF8F2D61960FB6F894DEBFC9
:103000000FBECDBFDF91CF911F910F91FF90EF9039
:10301000DF90CF90BF90AF909F900895109289025B
:1030200080911C01882331F08091B00187FF02C09C
:103030008EE101C086E0EDEFF1E0DF011D928A959F
:10304000E9F70C946E149091B00192FF0DC0282FF7
:103050002871283019F4877F846006C0282F2471D6
:10306000243011F48B7F886093FF0DC0282F2871C6
:10307000283119F4877E846106C0282F24712431F9
:1030800011F48B7E88612091B10120FF0DC0382F93
:103090003871383019F4877F816006C0382F31715C
:1030A000313011F48E7F886021FF0DC0282F2871E8
:1030B000283119F4877E816106C0282F21712131C2
:1030C00011F48E7E886194FD877E08959091E601CB
:1030D00090FF0CC0E5E9F2E0818360834283339680
:1030E00092E0E53CF907C1F70C9402210895809124
:1030F000E601282F269530E02115310519F481705D
:10310000826005C02B32310524F081708465809384
:10311000E6010895CF92DF92EF92FF926B017C015E
:103120000E947718B701A60188E090E0FF90EF9029
:10313000DF90CF900C94F22A8091EA01882319F055
:1031400081508093EA016091E6017091E7018091DE
:10315000E8019091E9010C948A188091EA0183308A
:1031600018F48F5F8093EA016091E6017091E701A6
:103170008091E8019091E9010C948A18E6EEF1E063
:103180008DE0808311828FEF828383838AE0848342
:1031900060817181828193810C948A18AF92BF9271
:1031A000CF92DF92EF92FF920F931F93CF93DF9313
:1031B000E82EF62EE901E42FF0E0611106C0E1529D
:1031C000FE4FE4914E2F2E2F71C0062F10E0E152DA
:1031D000FE4F4491F42FC42ED12C26E0829FC001D3
:1031E00011242FEF30E0B9010E94832B5BEA5603D4
:1031F000C001579F900D11248E0D911D8E0D911DB4
:10320000582F550F580FD901A01BB10BAC9DC00111
:10321000AD9D900DBC9D900D1124E92FF59ED00120
:103220001124AB2FBB277901EA1AFB0AEC9CD001D1
:10323000ED9CB00DFC9CB00D11245901A51AB108EC
:10324000A09E7001A19EF00CB09EF00C1124EF2CFA
:10325000FF242E193F092C9D80012D9D100D3C9DB2
:10326000100D1124212F6230710591F048F4611581
:103270007105E1F061307105B9F4242F4B2F16C0B0
:103280006430710569F040F06630710579F00CC06A
:10329000242F492FE12F0AC0492FEF2F2B2F06C0D3
:1032A000292FE42F412F02C0292FEB2F4983288398
:1032B000EA83DF91CF911F910F91FF90EF90DF9004
:1032C000CF90BF90AF900895CF93DF9300D01F921F
:1032D000CDB7DEB79091E60190FF0AC09E012F5F47
:1032E0003F4F0E94CE184B8169818A810E946618E7
:1032F0000F900F900F90DF91CF9108957F928F9252
:103300009F92AF92BF92CF92DF92EF92FF920F9374
:103310001F93CF93DF9300D01F92CDB7DEB7182F46
:10332000D62E042FC22E9091E60190FF6DC0E92F9A
:10333000E695AE2FB0E0AF5CBE4F8C918093E40178
:103340009E7F923061F49E012F5F3F4F812F0E943C
:10335000CE184B8169818A810E94661843C08230F1
:1033600019F40091E9013EC0863019F41091E7018B
:1033700039C08930D9F38931A9F5E9512E2F21704F
:10338000722EE695F0E0E152FD4F8590949035E97C
:10339000A32E32E0B32EE12CF12C99248E9CC00197
:1033A0008F9C900D9E9C900D112424E096958795FE
:1033B0002A95E1F7711002C0810F03C0212F281B4D
:1033C000822F9501402F6D2D0E94CE188FEFE81AA5
:1033D000F80A23E0A20EB11C80E1E816F104F1F630
:1033E0000E9402211093E701D092E8010093E901C5
:1033F000CC2051F06091E6017091E7018091E801E5
:103400009091E9010E948A180F900F900F90DF9120
:10341000CF911F910F91FF90EF90DF90CF90BF90D1
:10342000AF909F908F907F900895E6EEF1E04381FA
:1034300028E0421B08F440E021E0628181810C9485
:103440007E19E6EEF1E0438128E0420F08F44FEFE9
:1034500021E0628181810C947E19E6EEF1E06281C7
:1034600028E0621B08F460E021E0438181810C9434
:103470007E19E6EEF1E0628128E0620F08F46FEF5A
:1034800021E0438181810C947E19E6EEF1E0818197
:1034900021E04381628188500C947E19E6EEF1E0D0
:1034A000818121E043816281885F0C947E19909133
:1034B000E60190FF36C09170811102C0926006C093
:1034C0008B3210F0946502C0880F982B9093E60120
:1034D000662351F06091E6017091E7018091E80167
:1034E0009091E9010E948A186091E601669570E06A
:1034F0004BE050E08EE091E00E94C72B892B19F041
:103500001092E50102C00E94EC2081E08093C50189
:1035100020E04091E9016091E8018091E7010C947D
:103520007E1908958091E6018695815009F48AE21A
:1035300061E00C94571A8091E60186958F5F8B327B
:1035400008F081E061E00C94571A0E941413209156
:10355000D301211104C02091D401222321F09093A2
:10356000D0018093CF012091D501211104C0209179
:10357000D601222321F09093CD018093CC01E091DC
:10358000BD01F091BE01309749F082E08093D101F6
:103590000480F581E02D81ED91E009940895803F4C
:1035A00039F49091D40197FF35C01092D40159C0DD
:1035B000813F29F49091D4011916BCF32BC090914E
:1035C000D301823F29F497FF25C01092D30149C04F
:1035D000833F19F41916CCF31DC09091D501893F92
:1035E00029F41916BCF41092D5013BC08A3F19F496
:1035F00097FF10C0F8CF8B3F39F49091D60197FF19
:1036000009C01092D6012DC08C3F21F49091D601B3
:103610001916BCF39CE0980F953080F421E030E05F
:10362000A90102C0440F551F9A95E2F7CA0180957F
:103630009091D20189238093D20113C08D3F21F450
:1036400080911B028E7F0BC08E3F21F480911B0264
:103650008D7F05C08F3F29F480911B028B7F809363
:103660001B028091D301811106C08091D401811188
:1036700002C01092CE018091D501811106C08091C7
:10368000D601811102C01092CB01089580911B02D6
:1036900080FD16C081FD16C082FD18C08091CB014F
:1036A000882391F0883290F428E0829FC001112491
:1036B00068E270E00E94972B862F672B29F007C0E5
:1036C00082E0089584E0089581E0089588E00895F7
:1036D00080911B0280FD14C081FD14C082FD16C0C4
:1036E0008091CE01882381F0843180F422E3829F8F
:1036F000C001112464E170E00E94972B862F089589
:103700008CE0089589E1089585E0089582E30895A5
:10371000803F21F40E94681B819504C0813F29F4F9
:103720000E94681B8093D4010895823F21F40E9477
:10373000681B819504C0833F29F40E94681B809315
:10374000D3010895893F19F40E94461B05C08A3FA2
:1037500031F40E94461B81958093D50108958B3FDB
:1037600021F40E94461B819504C08C3F29F40E94DD
:10377000461B8093D60108959CE0980F953078F40D
:1037800021E030E0A90102C0440F551F9A95E2F7ED
:10379000CA019091D201892B8093D20108958D3F67
:1037A00021F480911B0281600BC08E3F21F4809137
:1037B0001B02826005C08F3F29F480911B02846048
:1037C00080931B020895F894E82FE295EF70F0E0E3
:1037D00031A1282F2F7081E090E001C0880F2A9539
:1037E000EAF7982F9095932391A392A1892B82A316
:1037F000789408959F92AF92BF92CF92DF92EF920A
:10380000FF920F931F93CF93DF930DE111E0C2EB73
:10381000D1E08CEBE82E81E0F82E912CCC24C394DF
:10382000D12CB801D8018C91F894E82FE295EF7073
:10383000F0E021A18F70A60102C0440F551F8A95A8
:10384000E2F7CA01922F982B91A392A18095892328
:1038500082A3789400C0E2E2F1E020E030E0A12C05
:10386000B12C4191842F82958F7090E0DC0190966D
:103870008C9190E04F7002C0959587954A95E2F73C
:1038800080FD08C0C601022E02C0880F991F0A944D
:10389000E2F702C080E090E0A82AB92A2F5F3F4FEC
:1038A0002F303105F1F60F5F1F4FFB0180810E9421
:1038B000E31BF0EAFA95F1F788819981A816B90619
:1038C00021F0B982A88281E001C080E0982A229686
:1038D000EC16FD0609F0A5CF992049F081E0809310
:1038E00091020E9414139093900280938F02809112
:1038F0009102882391F180918F02909190020E9411
:103900000513049750F18091B2019091B301909307
:10391000EC018093EB018091B4019091B5019093FB
:10392000EE018093ED018091B6019091B7019093E3
:10393000F0018093EF018091B8019091B9019093CB
:10394000F2018093F1018091BA019091BB019093B3
:10395000F4018093F30110929102892DDF91CF91B0
:103960001F910F91FF90EF90DF90CF90BF90AF909D
:103970009F900895CF93DF930E946720EC018238D7
:10398000910559F1A0F48133910509F473C040F415
:103990008932910509F467C08A9709F472C084C01E
:1039A0008533910509F458C0C997B9F07DC0833EAD
:1039B000910571F138F4803E9105B1F0823E910598
:1039C00011F172C0863E9105B9F1873E9105C9F1AA
:1039D000843E910509F068C024C08091B00180FD4B
:1039E0005DC081FD5BC060C08091B00180FD50C0B2
:1039F0008091B10180FF49C18091B00184FD43C134
:103A0000C3EED0E042C18091B00182FF3EC1F4CF4D
:103A10008091B00182FD3FC08091B10180FD3EC028
:103A2000EBCF8091B10181FF30C18091B00184FD65
:103A30002AC1C7EED0E029C18091B00183FF25C122
:103A4000F4CF8091B00183FD2CC08091B10181FF42
:103A5000ECCFC4EED0E019C18091B00185FF15C153
:103A6000C9E2D0E012C18091B00185FF0EC1C5E36B
:103A7000D0E00BC18091B00186FF07C1CAE2D0E05F
:103A800004C18091B00186FF00C1C1E3D0E0FDC058
:103A9000C9E3D0E0FAC0C2EED0E0F7C0C0EED0E09B
:103AA000F4C0C6EED0E0F1C0C11581E5D80708F03A
:103AB00066C0C11520E5D207E0F0CE0174E096950E
:103AC00087957A95E1F783709C2F937021E030E021
:103AD00002C0220F331F9A95E2F73C68382BCF7053
:103AE000C695C69540E2C49FE0011124C22BD32B9A
:103AF000CCC0C83ED10560F5C03ED10508F0C5C0B8
:103B0000C83AD105B0F4C53AD10540F0C55AD0E065
:103B1000C358DE4FC881D0E0D064B7C0C130D105F2
:103B200009F4B3C008F4AFC0C430D10508F4ABC089
:103B3000ACC0CF3BD10508F0A6C0C85AD0E0CC0F2E
:103B4000DD1FC058DE4F0990D881C02DD4649DC0C0
:103B5000C11540E2D40758F4C11581E0D80708F038
:103B600094C0C03FD10508F48EC0D0658EC0C11589
:103B700020E4D20708F487C0DF70D06A86C0C11580
:103B800045E5D40708F042C0C11584E5D80728F000
:103B9000DC2FCC27C46FD06A78C0C11523E5D207CB
:103BA000B0F0CE018370992721E030E002C0220FEF
:103BB000331F8A95E2F78C2F8695869540E2849F85
:103BC000C0011124E901C82BD92BDA685EC0C115E8
:103BD00042E5D40728F4DC2FCC27C16FD06A55C04A
:103BE000CE018370992721E030E002C0220F331FFD
:103BF0008A95E2F78C2F8695869540E2849FC001D6
:103C00001124E901C82BD92BDC683FC0C11589E517
:103C1000D807B8F4C11528E5D20728F0DC2FCC2747
:103C2000C06FD06A32C0C11546E5D40760F58C2F4D
:103C30000E9423188F71C82FD0E0DC2FCC27D062D0
:103C400024C0C1158AE5D80780F48C2F8F700E949C
:103C5000231894E0D695C7959A95E1F7CF70D0E0F8
:103C6000DC2FCC27D069C82B10C0CE01905681150F
:103C7000904248F48D2F8F710E942318DD27D06267
:103C80008F71D82B02C0C0E0D0E0CE01DF91CF9180
:103C9000089581FD02C0479A0895479808950895B0
:103CA0000F931F93CF93DF9300D01F92CDB7DEB752
:103CB0008C018091940281110AC09E012F5F3F4FB9
:103CC0004FEF6FEF0E94CE188A8180939402F80123
:103CD0008481813051F028F0823061F44091940267
:103CE0000AC08091940240E007C06091940240E0D5
:103CF00080E003C040E080E060E00E946618F801C8
:103D0000848190E0019663E070E00E94972B8483A9
:103D10000F900F900F90DF91CF911F910F91089509
:103D2000CF93DF93EC01E6EEF1E0438162818C8179
:103D30000E9464198C818F5F8C83DF91CF910895ED
:103D4000CF93DF93EC01EC81F0E0EC51FD4F449117
:103D5000E6EEF1E0628181810E9464198C818F5FBF
:103D60008C83DF91CF9108951F93CF93DF93CDB7CD
:103D7000DEB767970FB6F894DEBF0FBECDBF342F06
:103D80004B8B252F5C8B6D8B7E8B8F8B4E895F8948
:103D900061111092880286E0FE013D96DF01982FA6
:103DA0001D929A95E9F73D872E876F87598B488B2F
:103DB000DE01179601900D928A95E1F7CE010796E4
:103DC0000E945F1681113EC086E0FE013796DE013B
:103DD000119601900D928A95E1F7FF81E8856A8539
:103DE0007B856115710531F0EF3F31F481E0FF3FD4
:103DF00019F403C081E001C080E080FD23C0209160
:103E0000220230E0C9010196877099274091530240
:103E100050E08417950779F1F983EA837D836C83F9
:103E200096E0929FD001939FB00D1124AD5DBD4FE0
:103E3000FE01319601900D929A95E1F7809322024E
:103E40000E94E91516E08091530290912202891791
:103E5000F9F0189FC00111248D5D9D4F0E945F16DF
:103E60008823B1F08091530290E0019687709927E2
:103E700080935302E8CF0E940E18109222021092F3
:103E80005302ECE1F2E086E0DF011D928A95E9F74A
:103E900067960FB6F894DEBF0FBECDBFDF91CF910E
:103EA0001F9108952091190330911A03281739079B
:103EB00071F090931A0380931903E091BD01F09182
:103EC000BE01309721F00084F185E02D099408951A
:103ED00020911703309118032817390771F0909338
:103EE000180380931703E091BD01F091BE01309754
:103EF00021F00680F781E02D09940895E091BD013D
:103F0000F091BE01309721F00190F081E02D0994ED
:103F100080E008950F931F93CF93DF93C42FD22F88
:103F2000FC0182818823C9F04093F9010E94141397
:103F3000909316038093150380E28C0F883008F06D
:103F400057C0C77081E001C0880FCA95EAF7DF91BA
:103F5000CF911F910F910C946B288091F901481318
:103F600030C080911503909116030E940513883C80
:103F7000910538F510E21D0FCD17B9F080E28C0FD6
:103F8000883040F4C77081E001C0880FCA95EAF715
:103F90000E946028183028F581E09D2F977001C09D
:103FA000880F9A95EAF70E946B28802F0E94A0291B
:103FB0001830F0F4D77081E001C0880FDA95EAF785
:103FC0000AC080E28C0F883098F4C77081E001C08D
:103FD000880FCA95EAF7DF91CF911F910F910C944A
:103FE0006028802FDF91CF911F910F910C94A02911
:103FF000DF91CF911F910F910895CF93DF93C0E888
:10400000D2E060E0CE010E94E02A2196C11584E052
:10401000D807B9F7DF91CF910895CF92DF92EF9251
:10402000FF920F931F93CF93DF93C0E0D0E08E01F8
:104030000A561F4F6E018EE1C80ED11CFE01EC51D5
:10404000FC4FE590F4906F2DCE0188960E94E02AF7
:104050006E2DCE0189960E94E02A2296CC15DD05B0
:1040600069F70C171D0731F7E80108351240F9F61A
:10407000DF91CF911F910F91FF90EF90DF90CF9044
:1040800008950F931F93CF93DF93C42FD0E0CC0FED
:10409000DD1F2EE1629FC00DD11D112436E9839FE3
:1040A000C00DD11D1124CE0188960E94CC2A082F64
:1040B00010E0102F0027CE0189960E94CC2A98018B
:1040C000282BC901DF91CF911F910F910895462FA1
:1040D000843038F4753028F46F3018F4672F0C945E
:1040E000412080E090E0089528E0829FC0011124E3
:1040F0006AE070E00E94832BFB01EE0FFF1FE45A81
:10410000FE4F808191819093C9018093C8010895E9
:10411000682F86E090E00C94E02A8B3008F08AE06B
:104120009091E3019770282F220F220F220F922BDC
:104130009093E301987F21E009F420E09091E3015E
:1041400020FB90F99093E3010C94742080E090E0C0
:104150000E94DA2A8A3E9E4F51F00E94B713809146
:10416000E301847081658093E3010E94882086E0EA
:1041700090E00E94CC2A8093E301282F2695269573
:10418000269530E02B30310524F0877080658093D0
:10419000E3018091E30180FF04C0869586958695B2
:1041A00001C080E00C9474209091E60190FF04C05F
:1041B0009695981740F003C0811105C090E09617BE
:1041C00010F40C949B1A61E00C94571A882311F098
:1041D000FA0101C0FB0109946091E601669570E067
:1041E0004BE050E08EE091E00E94C72B892B19F440
:1041F00081E08093E5010E9414139093C3018093A2
:10420000C20108958091E60180FF0AC03E9A88B1FC
:104210008F7B98B190642FB7F894E5E9F2E00BC07A
:10422000E5E9F2E0118210821282339632E0E53C39
:10423000F307C1F7EBCF32E0E53CF30789F03191AA
:1042400048E098B9000000C037FF88B9330F00007C
:1042500000C000C000C088B900C04A9591F7EBCFFC
:104260002FBF8FE594E00197F1F700C0000008959B
:104270009F92AF92BF92CF92DF92EF92FF920F93F5
:104280001F93CF93DF93FC01A280948081E084830D
:10429000E4EEF2E0B490E3E6F3E0E491C5ECD2E0C2
:1042A000F5E9EF2EF2E0FF2ECC24CA94D12CEB19C5
:1042B0000E2F10E022E02A1530F08091E70188836C
:1042C0008091E8018983911003C01B821A8255C036
:1042D0008B818823F9F081508B832FEF829FC0015F
:1042E00011246C8170E00E94832BFB01FF27EC51AD
:1042F000FD4F8491E82FEB192FEFE29FC0011124AD
:10430000B8010E94832B8091E901689FB0011124BC
:104310007A8333C00E94BC2A2091E9012695215856
:1043200030E0A901440F551F322F2227240F351FDB
:10433000232F33278217930704F582E08A1588F428
:104340000E94BC2AB6010E94972B88830E94BC2A37
:104350002091E8012695622F70E00E94972B280F8C
:1043600029831A828091E901843120F0893C18F078
:1043700088EC01C084E18C838B8397014A81698139
:1043800088810E94CE18259623E0E20EF11C83E07E
:10439000C531D80709F08ECFDF91CF911F910F91D2
:1043A000FF90EF90DF90CF90BF90AF909F900C94D4
:1043B0000221EF92FF920F931F93CF93DF938C0113
:1043C000C5E9D2E0E12CF12CF8018481F8E0EF1688
:1043D000F1041CF4882339F002C0811104C09E014D
:1043E0004091E90102C09E0140E06091E8018091A6
:1043F000E7010E94CE188FEFE81AF80A239690E1A1
:10440000E916F10409F70E940221F801848190E085
:104410000196817099278483DF91CF911F910F912D
:10442000FF90EF9008958F929F92AF92BF92CF929C
:10443000DF92EF92FF920F931F93CF93DF93EC01E4
:104440004C81042F10E09801D8010E94682B9B0139
:10445000AC010E94332B6B017C01E0E2F0E0E01B39
:10446000F10BA5E5B0E09B01AC010E94332B4B01A1
:104470005C019F01DF010E94B82B9B01AC010E94EF
:104480003E2B9B01AC012C0D3D1D4E1D5F1DC5013A
:10449000B4010E94462B822FF22E99E2921728F047
:1044A00093E0299F900111240DC025E530E0281BE1
:1044B0003109C901880F991F280F391F37FF02C022
:1044C0002F5F3F4F35952795122F109595E9C92EEF
:1044D00092E0D92E00E085E5E82EEF1801FD02C03C
:1044E0008E2D01C08F2D9601412F6091E8010E9411
:1044F000CE180F5F83E0C80ED11C003179F70E94FF
:1045000002218C81811102C091E003C0803219F434
:104510009FEF90931B0190911B01890F8C83DF917A
:10452000CF911F910F91FF90EF90DF90CF90BF90B0
:10453000AF909F908F9008950F931F93CF93DF9329
:10454000C5E9D2E0FE01118210821282339682E028
:10455000E53CF807C1F700E010E080919302082ED7
:10456000000C990B0817190794F080911A01082E76
:10457000000C990B8017910754F09E014091E901BE
:104580006091E8018091E7010E94CE1803C0198272
:1045900018821A820F5F1F4F239600311105E9F62A
:1045A0000E9402218091190190919302980F90939B
:1045B000930220911A01280F20931A01121614F465
:1045C0009F301CF0819580931901DF91CF911F914D
:1045D0000F910895CF92DF92EF92FF920F931F9366
:1045E000CF93DF93FC01828180FF03C0DD24DA9446
:1045F00002C0DD24D394C5E9D2E000E010E01982C6
:1046000018821A8294E0E92EF12CC12C809192023A
:104610008C0D813114F08F7002C087FD805F082EF1
:10462000000C990B0817190791F48091E9018E9DF0
:10463000A0018F9D500D112455954795559547958F
:104640009E016091E8018091E7010E94CE18CD0C97
:10465000F1E0EF1AF108D1F60F5F1F4F23960031FA
:10466000110569F60E9402218091920291E0D9120F
:1046700006C0811102C08FE006C0815004C090E0E6
:1046800001968F70992780939202DF91CF911F91AD
:104690000F91FF90EF90DF90CF900895EF92FF92EF
:1046A0001F93CF93DF93EC0185E9E82E82E0F82E8B
:1046B00010E08C8197014091E9016091E801810F40
:1046C0000E94CE18115F83E0E80EF11C103F89F7BD
:1046D0000E9402219A818C8190FF02C08F5F01C0ED
:1046E00081508C83DF91CF911F91FF90EF900895BF
:1046F0000F931F9380914A0390914B03A0914C0319
:10470000B0914D038C019D0106701127222733279C
:10471000BC01CD01063011052105310511F4686099
:1047200001C0677F1F910F910C9472151F93CF9357
:10473000DF93CDB7DEB7AA970FB6F894DEBF0FBEF2
:10474000CDBFE2E4F3E08091F100819343E0EA34ED
:10475000F407C9F780914303833009F462C030F451
:10476000813071F0823009F49CC0B3C08A3009F402
:1047700088C08B3009F46DC0893009F0AAC020C010
:1047800080914203813A09F0A4C08091E800877FBC
:104790008093E8008091460390914703892B21F490
:1047A00060E28EE193E003C060E080E090E070E0C2
:1047B0000E94122A8091E8008B778093E80089C0DC
:1047C00080914203813209F084C080914603909128
:1047D0004703009719F0029709F07BC08091E80029
:1047E000877F8093E8008091E80082FD05C080917A
:1047F00040038111F8CF6DC02091F3008091F20049
:1048000090E0922B029729F48091F1008B7F813008
:1048100021F48091F10080931D038091E8008B7753
:1048200054C080914203813A09F053C080914603FD
:1048300090914703892B09F04CC08091E800877F55
:104840008093E8008091E80080FFFCCF80911C01FC
:1048500037C0809142038132E1F580914603909107
:104860004703892BB1F58091E800877F8093E800AA
:104870000E94BE298091440380931C010E940E185F
:1048800028C080914203813221F58091E800877F22
:104890008093E8000E94BE298091450380931C0309
:1048A00018C080914203813AA1F48091E800877F8B
:1048B0008093E8008091E80080FFFCCF80911C038A
:1048C0008093F1008091E8008E778093E8000E9449
:1048D000BE298091E80083FFDDC180914203909161
:1048E0004303492F50E04A30510508F0D3C1FA0183
:1048F000ED57FF4F0C94AB2B803821F0823809F034
:10490000C9C108C080913E0390913F03992389F06B
:1049100082600FC0809146038F70873008F0BAC163
:104920008093E9008091EB0085FB882780F9109245
:10493000E9009091E800977F9093E8008093F10060
:104940001092F10070C1282F2D7F09F0A3C1882398
:1049500019F0823061F09EC180914403813009F0EA
:1049600099C1933009F080E080933F032EC080917D
:10497000440381112AC0809146038F702FEF280FC6
:10498000263008F087C18093E9002091EB0020FFDA
:104990001CC0933021F48091EB00806214C0909190
:1049A000EB0090619093EB0021E030E0A90102C0A0
:1049B000440F551F8A95E2F74093EA001092EA00EF
:1049C0008091EB0088608093EB001092E900809169
:1049D000E800877F8093E8000E94BE295BC18111B7
:1049E00059C1109144031F778091E3008078812B97
:1049F0008093E3008091E800877F8093E8000E9425
:104A0000BE298091E80080FFFCCF8091E3008068A0
:104A10008093E300111102C082E001C083E0809323
:104A2000400338C18058823008F034C120914403DB
:104A3000309145032C3D53E0350779F583E08A83B7
:104A40008AE289834FB7F894DE01139620E03EE0B6
:104A500051E2E32FF0E050935700E49120FF03C0B0
:104A6000E295EF703F5FEF708E2F90E0EA3010F02C
:104A7000C79601C0C0968D939D932F5F243149F74F
:104A80004FBF8091E800877F8093E8006AE270E082
:104A9000CE0101960E94122AB4C0809146039091E3
:104AA0004703432F552743305105A9F068F441309F
:104AB000510509F4FEC04230510509F0EBC08BE509
:104AC00090E0E4E5F7E04BC04132510529F1423274
:104AD000510589F1DFC0C901992781309105A1F005
:104AE00058F0029709F0D6C0E1ECF7E0E4918E2F80
:104AF00090E0E1ECF7E030C0E1EEF7E0E4918E2FDA
:104B000090E0E1EEF7E028C0EFECF7E0E4918E2FC3
:104B100090E0EFECF7E020C08330910508F0BAC0D8
:104B2000880F991FFC01E958FE4F0190F081E02D9C
:104B300089E090E014C08330910508F0ABC0FC011F
:104B4000EE0FFF1FEF58FE4F0190F081E02DDC01CA
:104B5000A259BE4F8C9190E0009709F49BC0209120
:104B6000E800277F2093E800209148033091490313
:104B70002817390708F4C90140E0009789F120910E
:104B80004003222309F43DC02530D9F12091E800EB
:104B900023FD37C02091E80022FD2FC02091E800BE
:104BA00020FFEBCF4091F3002091F20030E0342B56
:104BB000009759F02830310540F444914093F100BA
:104BC000319601972F5F3F4FF3CF41E028303105F9
:104BD00009F040E02091E8002E772093E800CDCF47
:104BE0004111CDCF0AC080914003882351F0853018
:104BF00041F08091E80083FD04C08091E80082FFCD
:104C0000F2CF8091E8008B778093E80043C0803832
:104C100009F040C08091E800877F8093E800809190
:104C200041038093F1008091E8008E77D3CE81110B
:104C300031C080914403909145039927029754F520
:104C40008091E800877F8093E800109144031093DF
:104C500041030E94BE29111106C08091E30087FD27
:104C600002C081E001C084E08093400342E061EC37
:104C700081E00E94DD2942E261EC84E00E94DD29AE
:104C800042E261EC82E00E94DD2942E260EC83E0D6
:104C90000E94DD298091E80083FF10C08091E80028
:104CA000877F8093E8008091EB0080628093EB0027
:104CB00005C082E190E0EFEAF7E051CFAA960FB687
:104CC000F894DEBF0FBECDBFDF91CF911F91089545
:104CD0001F920F920FB60F9211242F933F934F9371
:104CE0005F936F937F938F939F93AF93BF93CF9374
:104CF000DF93EF93FF93C091E900CF708091EC00B8
:104D0000D82FD17080FDD0E81092E9008091F0009A
:104D1000877F8093F00078940E9496231092E90098
:104D20008091F00088608093F000CD2BCF70C0930D
:104D3000E900FF91EF91DF91CF91BF91AF919F91EA
:104D40008F917F916F915F914F913F912F910F9034
:104D50000FBE0F901F901895E8EDF0E080818E7FD8
:104D600080831092E2001092DA001092E100A0EE2F
:104D7000B0E08C9181608C9380818F77808319BCA7
:104D8000A7EDB0E08C918E7F8C9380818F7E8083A5
:104D900010921B030895CF92DF92EF92FF920F9330
:104DA0001F93CF93DF93C8EDD0E088818F7E8883F7
:104DB000E7EDF0E080818160808384E082BF81E064
:104DC00080931B0388818E7F888302EE10E0F801B8
:104DD00010821092DA0081EEC82ED12CF6011082DA
:104DE00088818F77888388818068888388818F7D98
:104DF000888319BC109240031092410310923F0324
:104E000010923E0390EEE92EF12CF70180818B7F0A
:104E1000808388818160888342E060E080E00E9436
:104E2000DD29F60180818E7F8083F8018081816099
:104E30008083808188608083F70180818E7F80837A
:104E4000888180618883DF91CF911F910F91FF90BE
:104E5000EF90DF90CF9008951F920F920FB60F92B0
:104E600011242F933F934F935F936F937F938F936F
:104E70009F93AF93BF93EF93FF938091E10082FFE5
:104E800009C08091E20082FF05C08091E1008B7F24
:104E90008093E1008091DA0080FF2AC08091D800E1
:104EA00080FF26C08091DA008E7F8093DA008091A7
:104EB000D90080FF18C080E189BD82E189BD09B4B5
:104EC00000FEFDCF81E08093400380911B038111A0
:104ED0000FC00E94AC260E94CB268091E200846025
:104EE0008093E20005C019BC1092400310921B038E
:104EF0008091E10080FF17C08091E20080FF13C025
:104F00008091E2008E7F8093E2008091E2008061D8
:104F10008093E2008091D80080628093D80019BC11
:104F200085E0809340038091E10084FF2EC0809152
:104F3000E20084FF2AC080E189BD82E189BD09B415
:104F400000FEFDCF8091D8008F7D8093D8008091A6
:104F5000E1008F7E8093E1008091E2008F7E80935C
:104F6000E2008091E20081608093E2008091410341
:104F7000882311F084E007C08091E30087FD02C020
:104F800081E001C083E0809340038091E10083FFD2
:104F900027C08091E20083FF23C08091E100877FDA
:104FA0008093E10082E0809340031092410380915E
:104FB000E1008E7F8093E1008091E2008E7F8093FC
:104FC000E2008091E20080618093E20042E060E0D4
:104FD00080E00E94DD298091F00088608093F000DD
:104FE000FF91EF91BF91AF919F918F917F916F91C1
:104FF0005F914F913F912F910F900FBE0F901F9097
:1050000018952091E4003091E50095E64091EC0080
:10501000842F817040FF23C08091E80080FD1DC077
:1050200080914003882399F0853099F08091EB00BE
:1050300085FD11C04091E4005091E500241735072B
:1050400029F3915011F09A01E1CF84E0089582E0B4
:10505000089583E0089581E0089580E008954091E7
:10506000E80042FFDDCF0895EF92FF920F931F9368
:10507000CF93DF937C018B010E940128811119C01D
:10508000E70101151105A1F08091E80085FD0AC036
:105090008091E8008E778093E8000E9401288823A1
:1050A00081F307C089918093F10001501109E9CF84
:1050B00080E0DF91CF911F910F91FF90EF900895C5
:1050C000882341F0809590918902892380938902F9
:1050D0000C9428140895882339F090918902892B23
:1050E000809389020C9428140895882309F463C0DE
:1050F000823869F40E947E1F81FF5DC069E38BEFF7
:1051000091E00E9471130E94281469E30EC0833855
:1051100091F40E947E1F80FF4EC063E58BEF91E00B
:105120000E9471130E94281463E58BEF91E00E94A6
:1051300049130C942814843869F40E947E1F82FF5E
:105140003AC067E48BEF91E00E9471130E9428142B
:1051500067E4EBCF9CEF980F913A10F4682FE5CFFE
:1051600090E2980F983088F4877021E030E0A90130
:1051700002C0440F551F8A95E2F7CA0180959091AD
:105180008902892380938902D4CF9BE5980F9330BD
:1051900020F480E090E00C94681F98E5980F973118
:1051A00020F480E090E00C94521F803F20F00E9499
:1051B000CF1A0C94A51A0895CF93882309F4BEC082
:1051C000C82F8238B1F40E947E1F81FDB7C069E309
:1051D0008BEF91E00E9471130E9428142FEF81EE53
:1051E00094E0215080409040E1F700C0000069E366
:1051F00017C08338E1F40E947E1F80FD9FC063E5E5
:105200008BEF91E00E9471130E9428142FEF81EE22
:1052100094E0215080409040E1F700C0000063E539
:105220008BEF91E00E944913CF910C94281484389D
:10523000B1F40E947E1F82FD81C067E48BEF91E094
:105240000E9471130E9428142FEF81EE94E02150E8
:1052500080409040E1F700C0000067E4E1CF8CEFB0
:105260008C0F813AC0F580911C018823E1F0809178
:10527000B00187FF18C0EC2FE695E695E695F0E0C3
:10528000E550FE4F8281282F30E04C2F477081E09F
:1052900090E002C0880F991F4A95E2F7822393237A
:1052A000892B61F412C0EDEFF1E083E092E02191EF
:1052B000C21721F08E179F07D1F707C06C2F8BEF15
:1052C00091E00E9449130E9428146C2F8BEF91E00B
:1052D0000E947113A9CF80E28C0F883068F4C770E8
:1052E00081E090E001C0880FCA95EAF790918902A9
:1052F000892B8093890298CFEBE5EC0FE33040F4E3
:10530000F0E0E358FE4F808190E0CF910C94681F4D
:10531000E8E5EC0FE73150F4F0E0EE0FFF1FE05846
:10532000FE4F80819181CF910C94521FC03F30F08D
:105330008C2F0E94881BCF910C94A51ACF910895B1
:105340001F93CF93DF93182F893319F0C0E0D0E07B
:1053500002C0C0E5D0E0812F0E94DC28209741F0F8
:105360008FE99FE00197F1F700C000002197F6CF89
:10537000812FDF91CF911F910C947528809142036A
:1053800087FF11C08091E80082FD05C08091400335
:105390008111F8CF11C08091E8008B770BC080910C
:1053A0004003882349F08091E80080FFF8CF809186
:1053B000E8008E778093E8000895982F973068F57D
:1053C0009093E900981739F07091EC002091ED006E
:1053D0005091F00003C0242F762F50E021FD02C031
:1053E0009F5FECCF3091EB003E7F3093EB0030912C
:1053F000ED003D7F3093ED003091EB003160309354
:10540000EB007093EC002093ED005093F00020919E
:10541000EE0027FDE5CF80E008958F708093E900CE
:1054200081E00895209148033091490326173707FA
:1054300048F06115710539F42091E8002E7720932A
:10544000E80001C0B901FC0120E06115710579F1A6
:10545000809140038823F1F18530F1F18091E800DB
:1054600083FD3CC08091E80082FD2EC08091E80061
:1054700080FFEBCF2091F3008091F20090E0922B1F
:105480006115710551F08830910538F42191209310
:10549000F100615071090196F3CF21E0089709F0FE
:1054A00020E08091E8008E778093E800CECF211134
:1054B000CFCF0AC080914003882361F0853061F02E
:1054C0008091E80083FD0AC08091E80082FFF2CF5E
:1054D00080E0089582E0089583E0089581E00895D2
:1054E0008F929F92AF92BF92CF92DF92EF92FF92F4
:1054F000CF93DF93EC01688179818A819B8161156B
:1055000071058105910521F464E279ED8BE597E061
:105510002DE133EF41E050E00E94142B49015A0184
:105520009B01AC01A7EAB1E40E94332B6B017C0123
:10553000ACEEB4EFA50194010E94412BDC01CB013C
:105540008C0D9D1DAE1DBF1DB7FF03C00197A109A6
:10555000B04888839983AA83BB839F77DF91CF91DB
:10556000FF90EF90DF90CF90BF90AF909F908F9083
:1055700008950E94702A089580E091E00E94702AA8
:105580000895A0E0B0E08093000190930101A09302
:105590000201B09303010895F999FECF92BD81BD38
:1055A000F89A992780B50895A6E1B0E044E050E06C
:1055B0000C94062BA8E1B0E042E050E00C94062BDE
:1055C000262FF999FECF92BD81BDF89A019700B4BC
:1055D000021639F01FBA20BD0FB6F894FA9AF99A5C
:1055E0000FBE08950396272F0E94E12A0E94E02A09
:1055F000252F0E94E12A242F0C94E12A0196272FBF
:105600000E94E12A0C94E02ADC01CB01FC01F9990B
:10561000FECF06C0F2BDE1BDF89A319600B40D92FE
:1056200041505040B8F70895052E97FB1EF40094A2
:105630000E942B2B57FD07D00E94462B07FC03D05E
:105640004EF40C942B2B50954095309521953F4F5F
:105650004F4F5F4F089590958095709561957F4F5E
:105660008F4F9F4F08950E94682BA59F900DB49F68
:10567000900DA49F800D911D11240895B7FF0C94E7
:10568000332B0E94332B821B930B0895A1E21A2E19
:10569000AA1BBB1BFD010DC0AA1FBB1FEE1FFF1FD6
:1056A000A217B307E407F50720F0A21BB30BE40B26
:1056B000F50B661F771F881F991F1A9469F760956D
:1056C0007095809590959B01AC01BD01CF01089527
:1056D000A29FB001B39FC001A39F700D811D112433
:1056E000911DB29F700D811D1124911D0895991B6C
:1056F00079E004C0991F961708F0961B881F7A95C9
:10570000C9F780950895AA1BBB1B51E107C0AA1FCA
:10571000BB1FA617B70710F0A61BB70B881F991F52
:105720005A95A9F780959095BC01CD01089597FBF6
:10573000072E16F4009407D077FD09D00E94832B22
:1057400007FC05D03EF4909581959F4F0895709584
:1057500061957F4F0895EE0FFF1F0590F491E02DA6
:105760000994692796276927782787277827089536
:105770000E94682B332312F48A1B9B0B0C94C22BC0
:105780000E94682BB7FF0895821B930B0895FC01BC
:105790004150504030F001900616D1F73197CF01BB
:0C57A0000895882799270895F894FFCFFA
:1057AC00010000001C127A125B12571253120119DD
:1057BC001A1B1C1D1E1F20212201020101F0F1F4F5
:1057CC00F5F63031323336353497969495F792910D
:1057DC0090000102020202060606090909090909DC
:1057EC000F0F0F0F0F0F1515151819191919191966
:1057FC001919191923242525252525250000008094
:10580C008080108288884892AAAAEEEEFFFF402280
:10581C00B61407F2063C0666077F079F0781828352
:10582C00E200E900EA00B500B600B700CD00830144
:10583C00CC008A0192019401210223022402250248
:0E584C00260227022A02B300B4006F0070008B
:00000001FF
