:100000000C9481020C94C8020C94C8020C94C8028F
:100010000C94C8020C94C8020C94C8020C94C80238
:100020000C94C8020C94C8020C94EB210C94BD22D1
:100030000C94581C0C94C8020C94C8020C94C8026E
:100040000C94C8020C94C8020C94C8020C94C80208
:100050000C94C8020C94B11C0C94C8020C94C802F5
:100060000C94C8020C94C8020C94C8020C94C802E8
:100070000C94C8020C94C8020C94C8020C94C802D8
:100080000C94C8020C94C8020C94C8020C94C802C8
:100090000C94C8020C94C8020C94C8020C94C802B8
:1000A0000C94C8020C94C8020C94C802650B680B2F
:1000B000880B990BA10BAC0BF20BF20BF20BF20BB2
:1000C000F20BAF0BB20BB70BC40BD10BD40BD80B8D
:1000D000E50B2C122C125E125E12AB12C912DD134C
:1000E000DD13D4126D137E137E137D147D148F14D3
:1000F0008F1486148F148F148F147D147D148B1419
:100100008F148F148B142A235123492451234924FB
:100110009D23C023492417242624290014001A00F3
:100120000800150017001C0018000C001200130036
:100130002A002B0004001600070009000A000B002B
:100140000D000E000F0033002800E5001D001B000D
:1001500006001900050011001000360037003800B5
:10016000E100E000E200E300025100002C0000008A
:100170002C000151E700E600E4003500AC00AE00C1
:10018000AB00010001000100010052002F0030000F
:1001900001000100AA00A900A8000100010001005F
:1001A000500051004F000100340001000100010027
:1001B000010001000100010001002D002E003800A7
:1001C0000100010001000100010000000100000029
:1001D0000100010001000100010001001E001F00DC
:1001E00020002100220023002400250026002700F3
:1001F00001000100010001000100010001000100F7
:1002000001000100010001000100010001000100E6
:1002100001000100010001000100010001003100A6
:1002200001000100010001000100000001000000C8
:1002300001000100010001000100010001000100B6
:1002400001000100010001000100010001000100A6
:100250000100010001000100010001000100010096
:100260000100010001000100010001000100010086
:100270000100010001000100010001000100310046
:100280000100010001000100010000000100000068
:100290000100010001000100010000000000000059
:1002A00000002A2B280000000000000000000000D1
:1002B000000000000029000000002C1E3420212234
:1002C00024342627252E362D3738271E1F2021229D
:1002D000232425263333362E37381F040506070816
:1002E000090A0B0C0D0E0F10111213141516171806
:1002F000191A1B1C1D2F3130232D35040506070844
:10030000090A0B0C0D0E0F101112131415161718E5
:10031000191A1B1C1D2F3130354C00000000000045
:1003200000000000000000000000000000000000CD
:1003300000000000000000000000000000007E0F30
:1003400000D4FFFFFFC70000007810036D006F00AE
:10035000640065006C002D00760000001A034D005B
:10036000610074007400680065007700200044009C
:1003700069006100730000000403090409025B00C6
:10038000030100A0FA090400000103010100092192
:10039000110100012240000705810308000A090439
:1003A00001000203000000092111010001222200C6
:1003B000070582032000010705030320000109044B
:1003C0000200010300000009211101000122B60012
:1003D0000705840320000A120110010000000864D0
:1003E0006D766D0100010200010660FF0961A10147
:1003F0000962150026FF0095207508810209631522
:100400000026FF00952075089102C005010902A190
:100410000185020901A10005091901290815002516
:100420000195087501810205010930093115812501
:100430007F95027508810609381581257F9501751C
:10044000088106050C0A38021581257F950175087B
:100450008106C0C005010980A101850319012AB7E1
:1004600000150126B700950175108100C0050C0923
:1004700001A101850419012AA002150126A00295F7
:100480000175108100C005010906A1018505050758
:1004900019E029E715002501950875018102050776
:1004A000190029EF1500250195F075018102050855
:1004B00019012905950575019102950175039101B1
:1004C000C005010906A101050719E029E715002566
:1004D00001950875018102950175088101050719CB
:1004E0000029FF150026FF00950675088100050804
:1004F0001901290595057501910295017503910171
:10050000C00011241FBECFEFDAE0DEBFCDBF04B6BE
:1005100003FE27C080918E0290918F02A0919002DD
:10052000B09191028730904BA740B04BD1F410921C
:100530008E0210928F02109290021092910214BEBD
:1005400084B7877F84BF0FB6F894A8958091600028
:10055000886180936000109260000FBEE0E0F8E3D5
:10056000099511E0A0E0B1E0ECEEF9E402C00590DD
:100570000D92A639B107D9F722E0A6E9B1E001C092
:100580001D92AE38B207E1F70E94AC1E0C94F42421
:100590000C94000081E0089581E008950C94CC0251
:1005A00008950C94D0021F93CF93DF9300D000D016
:1005B0001F92CDB7DEB749835A836B833091C30155
:1005C00089819A81311114C0662359F0222349F0A0
:1005D0000E943919182F682F89819A810E94E21888
:1005E00003C00E940D19182F69817A81812F04C0E0
:1005F0000E94391969817A810F900F900F900F90A6
:100600000F90DF91CF911F910C94C40CFC01262F09
:10061000408151816281738184810C94D302CF9394
:10062000DF93EC0160E00E940603BE01DF91CF91F1
:100630000C94D1028F929F92AF92BF92CF92DF9291
:10064000EF92FF920F931F936B017C0181E090E08A
:10065000A0E0B0E04C015D0104C0880C991CAA1C0C
:10066000BB1C4A95D2F7AC01BD0104C0440F551F15
:10067000661F771F2A95D2F7482959296A297B29AD
:1006800004C0880F991FAA1FBB1F0A95D2F78A01C1
:100690009B010C211D212E213F214017510762078C
:1006A000730739F4BC01CD016C297D298E299F295E
:1006B0000AC080959095A095B095BC01CD016C21A4
:1006C0007D218E219F211F910F91FF90EF90DF9050
:1006D000CF90BF90AF909F908F9008950F93382F39
:1006E000262F60911A0270911B0280911C0290913A
:1006F0001D02042F432F0E941A030F910C941E1801
:100700000E94C2060C94FF060C94FB0608950E94FA
:100710006B140E9486032FEF84E39CE021508040FD
:100720009040E1F700C000000C94D71C0F931F937A
:10073000CF93DF938C0161E00E940603EC01B801C6
:100740000E94140B882309F444C0B801CE010E9412
:10075000CE028823F1F1B801CE010E94F90D882361
:10076000C1F1B801CE010E944B0E882391F1B8016E
:10077000CE010E94760F882361F1F80182818823DF
:1007800009F1CA358DE5D807C1F050F4C115FCE573
:10079000DF0781F0CE3DDC45A9F40E943D1B19C066
:1007A000CB35EDE5DE0761F0CC35DD4559F40E942F
:1007B000CC1908C00E9487030CC00E94D51902C042
:1007C0000E94D819C801DF91CF911F910F910C940D
:1007D000CA0280E0DF91CF911F910F910895DF92BF
:1007E000EF92FF920F931F93CF93DF93E82FF0E0E8
:1007F000E656FD4FD490282F26952695269530E075
:10080000F901E65CFC4F0491877010E0082E02C0ED
:10081000159507950A94E2F701701127F901E65D35
:10082000FC4FE490F12C082E02C0F594E7940A9452
:10083000E2F791E0E922FF24F901E65EFC4FC49162
:10084000D0E002C0D595C7958A95E2F7C170DD2743
:100850000115110519F081EE0E943D11E114F1041A
:1008600019F086EE0E943D118D2D0E94DE11EF28B9
:1008700019F086EE0E949311012B19F081EE0E946F
:100880009311CD2B51F08CE2DF91CF911F910F91FD
:10089000FF90EF90DF900C94DE11DF91CF911F91CC
:1008A0000F91FF90EF90DF900895EF92FF920F93DA
:1008B0001F93CF93DF93EC01162F0AE088818823E2
:1008C00009F455C0813009F043C08981813041F479
:1008D0007E0182E0E80EF11C8A810E94DE1109C0CF
:1008E000823049F47E01E2E0EE0EF11C8A810E9422
:1008F0003D11E7012FC0833041F47E01F2E0EF0E9D
:10090000F11C8A810E949311F4CF843011F021965A
:1009100021C02A81229680E090E030E02053310906
:100920002A30310558F4089FA001099F500D112469
:10093000C901840F951F21962881EFCF009751F0B0
:10094000EFE9FFE03197F1F700C000000197F6CF23
:100950000E94EF032196812F882309F4AFCFEFE99E
:10096000FFE03197F1F700C000008150F5CFDF9133
:10097000CF911F910F91FF90EF90089560E00C943C
:10098000550408950C94C10481E008950C94C404A6
:10099000CF93C82F0E94C2048C2F0E94C604CF910F
:1009A0000895CF93DF930E94C40C0E94D305EC01FD
:1009B000811521E5920708F043C0811540E59407B1
:1009C00008F08AC0883E910520F5803E910508F028
:1009D000E6C0883A910570F4853A910508F074C034
:1009E0008130910509F4DBC008F4D7C0049708F002
:1009F000D6C0D3C08F3B910508F0CFC0C85AD0E015
:100A0000CC0FDD1FCB5EDE4F0990D881C02DD464A2
:100A1000C6C0C11580E2D80758F4C11521E0D2073D
:100A200008F0BDC0C03FD10508F4B7C0D065B7C05D
:100A3000C11540E4D40708F4B0C0DF70D06AAFC07D
:100A4000C11585E5D807A0F4C11524E5D20708F043
:100A50008AC0C11543E5D40708F06FC0C11582E50F
:100A6000D80708F054C0DC2FCC27C16FD06A97C0DC
:100A7000C11529E5D207A0F4C11548E5D40708F04F
:100A800077C0C11586E5D80708F087C08C2F0E9473
:100A900067068F71C82FD0E0DC2FCC27D0627FC0D3
:100AA000C1152AE5D20708F468C0CE019056811519
:100AB000904208F072C08D2F8F710E946706DD276B
:100AC000D0628F71D82B6BC0C55AD0E0CD5BDE4FA2
:100AD000C881D0E0D06463C074E0969587957A951C
:100AE000E1F783709C2F937021E030E002C0220F69
:100AF000331F9A95E2F73C68382BCF70C695C695A0
:100B000080E2C89FE0011124C22BD32B48C0CE0144
:100B10008370992721E030E002C0220F331F8A95AD
:100B2000E2F78C2F8695869540E2849FC0011124C0
:100B3000E901C82BD92BDC6832C0CE01837099271C
:100B400021E030E002C0220F331F8A95E2F78C2F9C
:100B50008695869540E2849FC0011124E901C82B47
:100B6000D92BDA681CC0DC2FCC27C46FD06A17C021
:100B7000DC2FCC27C06FD06A12C08C2F8F700E94E0
:100B8000670694E0D695C7959A95E1F7CF70D0E0C7
:100B9000DC2FCC27D069C82B02C0C0E0D0E0CE014A
:100BA000DF91CF9108958238910569F1B0F48133D6
:100BB000910509F46DC048F48932910509F463C0C8
:100BC0008A32910509F469C008958533910509F4C5
:100BD00055C089339105B9F00895833E910569F1B7
:100BE00038F4803E9105B1F0823E910509F10895F7
:100BF000863E9105A9F1873E9105B9F1843E9105A4
:100C000009F064C023C020916B0220FD4FC021FD7C
:100C10004DC0089580916B0280FD44C080916C02AC
:100C200080FF44C080916B0284FD42C083EE4DC0C2
:100C300080916B0282FF38C0F5CF80916B0282FDFC
:100C400033C080916C0280FD31C0ECCF80916C028A
:100C500081FF32C080916B0284FD2AC087EE35C0CF
:100C600080916B0283FF26C0F5CF80916B0283FDDC
:100C700021C080916C0281FD1FC0ECCF80916B027E
:100C800085FD1CC01DC080916B0285FD19C016C07A
:100C900080916B0286FD16C017C080916B0286FDA5
:100CA00013C010C089E311C082EE0FC080EE0DC0EA
:100CB00080E00BC086EE09C084EE07C089E205C063
:100CC00085E303C08AE201C081E390E0089590913A
:100CD0006B0292FF0DC0282F2871283019F4877FEE
:100CE000846006C0282F2471243011F48B7F886023
:100CF00093FF0DC0282F2871283119F4877E846155
:100D000006C0282F2471243111F48B7E8861209134
:100D10006C0220FF0DC0382F3871383019F4877FEE
:100D2000816006C0382F3171313011F48E7F8860B8
:100D300021FF0DC0282F2871283119F4877E816189
:100D400006C0282F2171213111F48E7E886194FD17
:100D5000877E08950C94EE0A0E945B078FE39CE95E
:100D60000197F1F700C000000E945B0780E00E943D
:100D7000E60680FF04C00E94AA060C94D71C0895C2
:100D80000C94AC060E94951A811102C00E943D1B72
:100D90000E94A01A809347020E94A81A90936C02A6
:100DA00080936B020E94C0060E94A41A682F70E014
:100DB00080E090E00E94E41760911A0270911B029B
:100DC00080911C0290911D020C941C18E82FF0E0F9
:100DD000EE0FFF1FEB58FD4F80819181089508951C
:100DE00080EA8A95F1F7089500C008950C94F00602
:100DF00008950C94F8060C94F9060C94F8060C94DB
:100E0000FD06F894E82FE295EF70F0E031A1282F6D
:100E10002F7081E090E001C0880F2A95EAF7982FA3
:100E20009095932391A392A1892B82A378940895FE
:100E30000F931F93CF93DF9383E90E94010785E906
:100E40000E94010786E90E94010784E90E940107C8
:100E5000C6E4D1E002E511E089910E9401070C1778
:100E60001D07D1F710926E0210926D021092760259
:100E7000109275021092700210926F021092780216
:100E800010927702109272021092710210927A02FE
:100E900010927902109274021092730210927C02E6
:100EA00010927B0284E00E94E907DF91CF911F91AD
:100EB0000F910C9480037F928F929F92AF92BF927A
:100EC000CF92DF92EF92FF920F931F93CF93DF9316
:100ED000C2E5D1E08DE6A82E82E0B82E95E7E92E96
:100EE00092E0F92E712C01E010E06E018881F894F7
:100EF000E82FE295EF70F0E021A18F70A80102C009
:100F0000440F551F8A95E2F7CA01922F982B91A39F
:100F100092A18095892382A378940E94F406E6E446
:100F2000F1E020E030E0812C912C4191A42FA2959A
:100F3000AF70B0E090968C9190E04F7002C09595A4
:100F400087954A95E2F780FD08C0C801022E02C0CD
:100F5000880F991F0A94E2F702C080E090E0882A87
:100F6000992A2F5F3F4F2C303105F9F62196F60173
:100F700080810E9401070E94F606F501808191811F
:100F80008816990621F09182808281E001C080E07C
:100F9000782AF2E0AF0EB11CEA14FB0409F0A5CFE9
:100FA000272D44E065E772E08DE692E00E94EA07B3
:100FB0000E948403872DDF91CF911F910F91FF90A5
:100FC000EF90DF90CF90BF90AF909F908F907F90E9
:100FD00008950895FF920F931F93CF93DF93F82EF8
:100FE000092F162FD72FC42F222349F081E0809399
:100FF0009A010E948A1C9093990180939801809194
:101000009A018823D9F080919801909199010E94CA
:10101000A21C069798F0EF2DF02FA12FBD2F80E096
:1010200090E04C2F50E08417950734F421913191D2
:101030002D933D930196F7CF10929A01DF91CF91B6
:101040001F910F91FF9008958091A10180FF0BC027
:101050006091050185E0689FB00111247595679541
:10106000759567952BC081FF09C06091050185E0EA
:10107000689FB00111247595679520C082FF07C055
:101080006091050185E0689FB001112417C090911F
:10109000A0019923D1F060910401961788F720915F
:1010A000050185E0289F90011124929FA001939F44
:1010B000500D112470E0CA010E947D246038710532
:1010C00040F46115710519F406C065E070E0862FE3
:1010D00008958FE7089581E008958091A10180FF30
:1010E00008C06091010170E07595679575956795E9
:1010F00021C081FF06C06091010170E07595679580
:1011000019C082FF04C06091010170E010C090918D
:101110009F01992399F0609100019617A0F78091A3
:101120000101899FC001112470E00E947D24603874
:10113000710540F46115710519F406C061E070E0B5
:10114000862F08958FE7089581E00895803F21F468
:101150000E942408819504C0813F29F40E9424083C
:101160008093A5010895823F21F40E94240881956F
:1011700004C0833F29F40E9424088093A4010895A9
:10118000893F19F40E946D0805C08A3F31F40E941E
:101190006D0881958093A60108958B3F21F40E94EC
:1011A0006D08819504C08C3F29F40E946D088093DE
:1011B000A70108959CE0980F953078F421E030E085
:1011C000A90102C0440F551F9A95E2F7CA019091F8
:1011D000A301892B8093A30108958D3F21F4809171
:1011E000A10181600BC08E3F21F48091A10182603A
:1011F00005C08F3F29F48091A10184608093A101F3
:101200000895803F39F49091A50197FF35C0109261
:10121000A50159C0813F29F49091A5011916BCF38D
:101220002BC09091A401823F29F497FF25C0109212
:10123000A40149C0833F19F41916CCF31DC0909145
:10124000A601893F29F41916BCF41092A6013BC0EF
:101250008A3F19F497FF10C0F8CF8B3F39F4909173
:10126000A70197FF09C01092A7012DC08C3F21F460
:101270009091A7011916BCF39CE0980F953080F46B
:1012800021E030E0A90102C0440F551F9A95E2F712
:10129000CA0180959091A30189238093A30113C073
:1012A0008D3F21F48091A1018E7F0BC08E3F21F4F0
:1012B0008091A1018D7F05C08F3F29F48091A1010C
:1012C0008B7F8093A1018091A401811106C0809140
:1012D000A501811102C01092A0018091A601811187
:1012E00006C08091A701811102C010929F0108954C
:1012F0000E948A1C2091A401211104C02091A50103
:10130000222321F090939E0180939D012091A601BC
:10131000211104C02091A701222321F090939C0168
:1013200080939B0182EA91E00C94D20FEF92FF929E
:101330000F931F93CF93DF9300D000D000D0CDB791
:10134000DEB786E0E2EAF1E0DE01119601900D924F
:101350008A95E1F7E090A401F090A5010091A60123
:101360001091A7011092A4011092A5011092A6015C
:101370001092A701E11003C0FF2009F45DC0809125
:101380009D0190919E010E94A21CAC019091A00130
:10139000992339F02091060130E02417350758F0E1
:1013A0004BC0209107018AE0289F90011124241747
:1013B000350718F041C09F3F19F09F5F9093A0013F
:1013C000EE2061F00E9424081E1414F09FEF01C06B
:1013D00091E0989F902D11249093A401FF2061F03B
:1013E0000E9424081F1414F09FEF01C091E0989F01
:1013F000902D11249093A5013091A4013323E1F0A5
:101400002091A5012223C1F045EB3403C001112432
:10141000992319F09093A40103C081E08093A40163
:1014200035EB2303C0011124992319F09093A501F2
:1014300003C081E08093A501011103C0112309F4C9
:101440005DC080919B0190919C010E94A21CAC0107
:1014500090919F01992339F02091020130E02417E7
:10146000350758F04BC0209103018AE0289F900176
:1014700011242417350718F041C09F3F19F09F5FD2
:1014800090939F01002361F00E946D08101614F0E4
:101490009FEF01C091E0989F902D11249093A60199
:1014A000112361F00E946D08111614F09FEF01C026
:1014B00091E0989F902D11249093A7013091A6015F
:1014C0003323E1F02091A7012223C1F045EB34033F
:1014D000C0011124992319F09093A60103C081E063
:1014E0008093A60135EB2303C0011124992319F041
:1014F0009093A70103C081E08093A7018091A4018C
:1015000081110BC08091A501811107C08091A601B6
:10151000811103C08091A70181110E947809EB829B
:10152000FC820D831E8386E0FE013196A2EAB1E0C3
:1015300001900D928A95E1F726960FB6F894DEBFDA
:101540000FBECDBFDF91CF911F910F91FF90EF9014
:101550000895E2EAF1E086E0DF011D928A95E9F75D
:101560001092A00110929F011092A101089583E2B0
:1015700090E00E94B224813281F484E290E00E94E3
:10158000B224873051F485E290E00E94B22491E0C9
:10159000883209F090E0892F01C080E081700895C1
:1015A000CF93C82F811102C06FEF01C061E283E2C7
:1015B00090E00E94C024C11102C06FEF01C067E03B
:1015C00084E290E00E94C024C11102C06FEF01C00C
:1015D00068E285E290E0CF910C94C02480E00E9404
:1015E000D00A0C948F1A089586E290E00E94B224EB
:1015F000682F70E080E090E0089586E290E00C941F
:10160000C0240E94F30A0E94B70A81110CC060E056
:1016100070E0CB010E94FD0A0E943F0C0E941E0D4B
:1016200081E00C94D00A0895CF93FB01C281CC23B2
:10163000E9F09C0122513F452031310520F48251CF
:101640000E942E0D0CC08031FFE59F0751F481E010
:101650000E94441843E062E081E00E946E03C0E013
:1016600018C081319F45A9F482E0F2CF8031EFE5C7
:101670009E0711F481E004C081319F4549F482E066
:101680000E94651843E062E081E00E946E0301C0A1
:10169000C1E08C2FCF9108952FEFFC012083089596
:1016A000EF92FF920F931F93CF93DF93EC01062FDE
:1016B000E8818E2F90E0FC013197E331F10508F0CD
:1016C00091C0EA5AFF4F0C949124198289E04DC0D1
:1016D0008981823039F0833061F0813029F50E94B0
:1016E000961C02C00E94F40A9A838B837C836D83CC
:1016F0007BC07E0110E0812F0E94E606F7019283F5
:1017000083831F5FF2E0EF0EF11C1430A1F76CC071
:101710008981823049F46A817B818C819D810E941C
:1017200097240E94FD0A60C0602FCE010E944C0BDE
:101730005BC04B816A8189810E94110C9C838D83DF
:1017400053C02C813D813227232732274B816A8168
:1017500089810E942A0C48C00E943F0C45C00E940B
:10176000D10C24C00E94D30C99838A833DC06B8125
:1017700070E089819A81AE014C5F5F4F982789277D
:1017800098270E94D60C30C06B8170E089819A81C5
:10179000AE014C5F5F4F9827892798270E94FB0C6A
:1017A00023C00E941E0D20C00E94FE0B89831CC016
:1017B0006B8170E089819A81AE014C5F5F4F982701
:1017C000892798270E947E0C0FC06B8170E0898169
:1017D0009A81AE014C5F5F4F9827892798270E9416
:1017E000A20C02C08FEF8883602FCE01DF91CF91D2
:1017F0001F910F91FF90EF900C949D1D84E0089530
:1018000050E0440F551F28E1629F400D511D1124E7
:101810009A0160E6869F200D311D1124C90187962B
:1018200008950F931F93CF93DF930E94000C8C01B8
:101830000E94B224C82FD0E0DC2FCC27C80101962B
:101840000E94B2249E01282BC901DF91CF911F91E4
:101850000F9108950F931F93CF93DF93122F032FB0
:101860000E94000CEC01602F0E94C024612FCE0169
:101870000196DF91CF911F910F910C94C024AF92EC
:10188000BF92CF92DF92EF92FF920F931F93CF936D
:10189000DF93A12CE12CF12CB12C00E010E0C0E092
:1018A000D0E06701C00ED11EFE01EE0FFF1FEC0D50
:1018B000FD1DE65EFE4F259134914C2F6B2D8A2D38
:1018C0000E942A0C2196CC30D10571F7085E1F4F7B
:1018D000B39484E0B812E3CF80E6E80EF11CA39441
:1018E00084E0A812D9CFDF91CF911F910F91FF9083
:1018F000EF90DF90CF90BF90AF900895EF92FF925E
:101900000F931F93CF93DF93EA017A01E60EF71E40
:101910008C01C8018796CE15DF0569F0003821E0FB
:10192000120720F40E94B224888301C018822196F5
:101930000F5F1F4FEECFDF91CF911F910F91FF905F
:10194000EF900895EF92FF920F931F93CF93DF9341
:10195000EA017A01E60EF71E8C01C8018796CE15C2
:10196000DF0559F0003821E0120718F468810E9461
:10197000C02421960F5F1F4FF0CFDF91CF911F91B1
:101980000F91FF90EF900895462F843038F4743013
:1019900028F46C3018F4672F0C94110C80E090E060
:1019A000089580E1089589E592E00895EF92FF920D
:1019B0000F931F93CF93DF93EA017A01E60EF71E90
:1019C0008C01C80189559E4FCE15DF0569F0093598
:1019D00022E0120720F40E94B224888301C01882FA
:1019E00021960F5F1F4FEDCFDF91CF911F910F9188
:1019F000FF90EF900895EF92FF920F931F93CF9374
:101A0000DF93EA017A01E60EF71E8C01C8018955C1
:101A10009E4FCE15DF0559F0093522E0120718F464
:101A200068810E94C02421960F5F1F4FEFCFDF9186
:101A3000CF911F910F91FF90EF900895CF93DF9377
:101A4000C7EAD1E060E0CE010E94C0242196C11512
:101A500084E0D807B9F7DF91CF910895DF92EF9234
:101A6000FF920F931F93CF93DF9300D000D0CDB799
:101A7000DEB7F82E8FE08F15E8F18FEF93E00E942C
:101A8000B224811137C007EA11E0FF2069F0011587
:101A900084E0180779F1C8010E94B224811101C0C5
:101AA000FA940F5F1F4FF1CF19821A821B821C829A
:101AB000DD24D39478018FEFE81AF80AC8010E9458
:101AC000B22489831A828823A9F09FEF980F93305C
:101AD00058F48A83D9820E5F1F4FC7010E94B22437
:101AE0008B83882339F07801CE0101960E94BE04D1
:101AF0008701E0CF0F900F900F900F90DF91CF9163
:101B00001F910F91FF90EF90DF9008950F931F9317
:101B1000CF93DF93C42FD22FFC0182818823C9F099
:101B20004093AA010E948A1C9093A9018093A80166
:101B300080E28C0F883008F057C0C77081E001C088
:101B4000880FCA95EAF7DF91CF911F910F910C94FE
:101B5000E7118091AA01481330C08091A8019091AB
:101B6000A9010E94A21C883C910538F510E21D0FC6
:101B7000CD17B9F080E28C0F883040F4C77081E057
:101B800001C0880FCA95EAF70E94EE11183028F5B7
:101B900081E09D2F977001C0880F9A95EAF70E9407
:101BA000E711802F0E94DE111830F0F4D77081E029
:101BB00001C0880FDA95EAF70AC080E28C0F8830FE
:101BC00098F4C77081E001C0880FCA95EAF7DF91E9
:101BD000CF911F910F910C94EE11802FDF91CF9137
:101BE0001F910F910C94DE11DF91CF911F910F91F6
:101BF00008950F939C01CB01233F4CE5340731F14D
:101C000088F4283DFCE53F07D9F0293D4CE5340731
:101C100079F1273D3C45A9F506E221EE41EE67ED5D
:101C20007CE52BC0253FFCE53F07E1F0A8F0263F0F
:101C30003C4539F507E225EE46EE66EF7CE51DC032
:101C400007E225EE45EE68ED7CE517C006E221EEE1
:101C500040EE63EF7CE511C007E225EE44EE64EF51
:101C60007CE50BC006E221EE42EE65EF7CE505C0A7
:101C700008E221E045EE69ED7CE50E94860D80E0FA
:101C800008C0FC018281882319F01092AA0101C0CA
:101C900081E00F910895CF93DF93EC01FB018281E6
:101CA000882309F41FC1C230FCE5DF0708F41BC11B
:101CB000C6319CE5D90738F09E012A5F3C452930A2
:101CC000310508F010C10E94A81A90936C0280930D
:101CD0006B02C031ECE5DE0709F4C3C008F041C077
:101CE000C8308CE5D80709F49AC0F0F4C430ECE5AC
:101CF000DE0709F487C068F4C2308CE5D80709F420
:101D000077C0C330DC4509F0E3C080916B0282608C
:101D100076C0C630ECE5DE0709F46EC008F07BC083
:101D200080916B0288606BC0CC308CE5D80709F4D9
:101D300085C068F4CA30ECE5DE0709F474C008F029
:101D400079C00E946B1480916B02806858C0CE30BD
:101D50008CE5D80709F476C008F07FC080916B024B
:101D60008BC0CB3FECE5DE0709F44FC018F5C3315B
:101D70008CE5D80709F47DC078F4C131ECE5DE07C5
:101D800009F473C0C231DC4509F0A2C00E946B1493
:101D900080916B028F7733C0C5318CE5D80709F489
:101DA00072C008F486C0CA3FDC4509F091C080913A
:101DB0006C023EC0CF3FFCE5DF0709F45FC058F47A
:101DC000CD3F9CE5D90709F444C008F43FC0809199
:101DD0006C0282602DC0C130FDE5DF0709F475C0DB
:101DE00008F45DC0C230DD4509F072C080E06EC00D
:101DF00080916B02816003C080916B02806180934F
:101E00006B0266C080916B0211C080916C0282608F
:101E100080936C025DC080916B028062F0CF8091F4
:101E20006B028064ECCF80916B0288608460E7CFA6
:101E30008160EECF80916B028E7FE1CF80916B024B
:101E40008D7FDDCF80916B02877FD9CF80916C022F
:101E500018C080916C028D7FDBCF80916B028F7EEA
:101E6000CECF80916B028F7DCACF80916B028F7B2A
:101E7000C6CF80916B02877F8B7FC1CF80916C0230
:101E80008D7F8E7FC5CF80916B0282FB222720F948
:101E900091E0922790FB82F990FB83F9B0CF80917B
:101EA0006C02982F909591708E7F892B90FB81F911
:101EB000AFCF0E946B1480916B0287FB222720F921
:101EC00091E0922790FB87F99ACF81E00E943F1B17
:101ED00080916B0290916C020E94B91A0E946B145F
:101EE00080E001C081E0DF91CF910895CF93DF932F
:101EF00086319C4541F5EB010E94DB19982F8A81C0
:101F00002091080130910901882379F09A7A81E0C3
:101F100009F480E08093AB01911102C069E201C035
:101F200065E3C9010E94DA1B0AC08091AB018111EF
:101F300002C069E201C065E3C9010E94E51B0E947D
:101F4000201A80E001C081E0DF91CF910895909345
:101F5000B1018093B0010895E091B001F091B10119
:101F6000309721F00190F081E02D099480E00895F0
:101F7000E091B001F091B101309799F020911401F6
:101F8000222359F020916B0227FF07C0DC012C911E
:101F900011962C93119725E02C930280F381E02D6C
:101FA00009940895E091B001F091B101309739F0B2
:101FB00022E0DC012C930480F581E02D0994089542
:101FC0002091AE013091AF012817390771F090933D
:101FD000AF018093AE01E091B001F091B101309773
:101FE00021F00680F781E02D099408952091AC013D
:101FF0003091AD012817390771F09093AD018093AE
:10200000AC01E091B001F091B101309721F0008472
:10201000F185E02D099408950E94961C6093BF01FC
:102020007093C0018093C1019093C2016093BB0182
:102030007093BC018093BD019093BE01089585B754
:10204000806885BF85B7806885BF089581E0089561
:102050000C94261008950C942A100C942A100C94B9
:102060002D100C942A100C9431100C942A100E94FC
:102070001F108DE89AE10E94FB1C0E9435100C9401
:1020800033100E942B100C942A100E94811C0E9475
:1020900018070E94010B0C942F106F927F928F9261
:1020A0009F92AF92BF92CF92DF92EF92FF920F93E7
:1020B0001F93CF93DF93CDB7DEB72A970FB6F8946F
:1020C000DEBF0FBECDBF0E945B0781110E940C10C6
:1020D00033EB832E31E0932E00E010E0C02E802FF2
:1020E0000E94E6065C01F401619071904F01682640
:1020F000792661147104B1F40F5F1F4F043011058C
:1021000069F78FEF89838A831B820E948A1C816012
:10211000782F9D838C8349815A816B818D810E94A8
:1021200003113AC08091470281FD0E94EF06D12C35
:10213000EE24E394F12CC3018E219F21892B29F1F8
:102140000E9428108823A9F0DE82CF82AE20BF2013
:1021500081E0AB2809F480E088870E948A1C8160B6
:10216000782F9A8789874E815F8168858A850E944A
:102170000311000F111FF801ED54FE4F8081918172
:10218000E826F926F182E08207C0D394EE0CFF1C0A
:10219000FCE0DF12D0CFB0CF0E9496090E94AC0FB6
:1021A0009091B2018917D1F00E94AC0F8093B201D7
:1021B0002A960FB6F894DEBF0FBECDBFDF91CF9148
:1021C0001F910F91FF90EF90DF90CF90BF90AF9055
:1021D0009F908F907F906F900C94C8042A960FB6B2
:1021E000F894DEBF0FBECDBFDF91CF911F910F914D
:1021F000FF90EF90DF90CF90BF90AF909F908F9027
:102200007F906F900895DF92EF92FF920F931F934C
:10221000CF93DF93CDB7DEB72B970FB6F894DEBF21
:102220000FBECDBFF42E052F162FE72ED82E61112D
:102230000E94FB19FE01319686E0DF011D928A950E
:10224000E9F77E2D4F2D502F612F8D2D9E810E94FD
:1022500024172B960FB6F894DEBF0FBECDBFDF91CB
:10226000CF911F910F91FF90EF90DF900895FC01A7
:10227000808191810E947B190895CF93882309F46E
:1022800050C0C82F8CEF8C0F813AD0F46C2F809106
:102290000801909109010E945A1B882349F06C2F74
:1022A00080910801909109010E94E51B0E94201A6B
:1022B0006C2F80910801909109010E94DA1B0CC0DB
:1022C00080E28C0F883058F4C77081E001C0880F1D
:1022D000CA95EAF70E94DE19CF910C94201AEBE51B
:1022E000EC0FE33040F4F0E0EC57FE4F808190E0DB
:1022F000CF910C94E00FE8E5EC0FE73150F4F0E0FB
:10230000EE0FFF1FEA5AFE4F80819181CF910C940E
:10231000F60FC03F30F08C2F0E94A608CF910C948E
:102320007809CF910895882389F19CEF980F913A0D
:1023300040F4682F80910801909109010E94E51BEB
:102340000DC090E2980F983058F4877091E001C06A
:10235000990F8A95EAF7892F0E94E4190C94201AA4
:102360009BE5980F933020F480E090E00C94E00F10
:1023700098E5980F973120F480E090E00C94F60FE8
:10238000803F20F00E9401090C94780908951F9362
:10239000CF93DF93182FEB010E943D11209741F05E
:1023A0008FE99FE00197F1F700C000002197F6CF79
:1023B000812FDF91CF911F910C949311893319F0E4
:1023C00060E070E002C060E570E00C94C711882303
:1023D00021F00E94DE190C94201A0895882321F020
:1023E0000E94E4190C94201A0895CF92DF92EF9284
:1023F000FF920F931F93CF93DF937C01D62FC72FAC
:10240000FC011281058102950F700E94B319882387
:1024100099F0112389F08C2F807F803421F080E2A5
:102420008D0F883048F082E00E94701A0E94B31924
:1024300091E0D82ED92601C0D12CCC2EC2948FE0A9
:10244000C8228C2D90E08C30910508F0B6C1FC01BB
:10245000E759FF4F0C9491248C2F807FCF708823F5
:1024600011F0C295C07F112399F0CC2309F491C1DA
:1024700080E28D0F883010F0D11104C08C2F0E94A3
:10248000DE1903C08C2F0E94EE190E94201A81C110
:102490008D2F0E949311CC2309F48FC180E28D0F00
:1024A000883010F0D11104C08C2F0E94E41903C0B1
:1024B0008C2F0E94F4190E94201A7FC18C2F807FDC
:1024C000CF70803211F0C295C07FDD2319F0D1307A
:1024D000C9F022C0112371F0002341F0013031F422
:1024E0000E94011A8C2B0E94091A67C10E94011ACE
:1024F0008C2B1DC0002319F0013009F45EC10E942D
:10250000161A25C0112321F0063008F056C10EC05E
:10251000053008F052C11BC0112361F0002331F0D7
:10252000F701858180FF35C18F7085838C2F0E94D4
:10253000E71143C1002359F0D93309F03BC1FFEF44
:1025400007EE13E0F15000401040E1F731C18C2F4D
:102550000E94EE1132C18C2F86958695837019F0FA
:10256000813061F02AC1112321F08D2F9C2F9370AF
:1025700002C080E090E00E94E00F27C1112321F00B
:102580008D2F9C2F937002C080E090E00E94F60F88
:102590001CC18D2F112319F00E94A60802C00E94B1
:1025A00001090E94780911C18C2F837009F047C07E
:1025B000111107C12D2F229526952770220F220F6A
:1025C0006D2F6F70862F90E0A0E0B0E0022E04C067
:1025D000880F991FAA1FBB1F0A94D2F7D4FF10C0FF
:1025E0004FE050E060E070E004C0440F551F661FEC
:1025F000771F2A95D2F7409550956095709503C046
:1026000040E050E0BA01C695C695C3708A019B01AF
:10261000082B192B2A2B3B2BC901B801C23049F0DA
:1026200058F4C13019F00E94F817CBC00E94E61789
:10263000C8C00E940A18C5C00E94E417C2C0112376
:1026400019F08C2F817001C08695882309F4B9C0D8
:102650002D2F229526952770220F220F6D2F6F7038
:10266000862F90E0A0E0B0E0022E04C0880F991FF2
:10267000AA1FBB1F0A94D2F7D4FF10C04FE050E04E
:1026800060E070E004C0440F551F661F771F2A9555
:10269000D2F7409550956095709503C040E050E0AA
:1026A000BA01C695C695C3708A019B01082B192BE8
:1026B0002A2B3B2BC901B801C23049F058F4C13074
:1026C00019F00E94BD187DC00E94AB187AC00E940C
:1026D000CF1877C00E941E1874C0CF70112339F034
:1026E0008C2F0E9444188D2F0E94E7116AC08D2FF5
:1026F0000E94EE118C2F0E94651863C0D23F01F139
:1027000028F4D03F41F0D13FA1F03FC0D33FF9F0D2
:10271000D43F39F13AC0112341F0053008F04DC0E3
:102720008C2F8F710E948A1848C0063008F045C06F
:10273000F7CF112339F08C2F8F710E9444183DC0C0
:102740001123C9F38C2F8F710E94651836C0112395
:1027500029F08C2F8F710E942F182FC00E942A18E9
:102760002CC0112349F0CF718C2F0E94441863E0D4
:102770008C2F0E94551A21C081E00E94701A0230ED
:10278000E0F082E00E94701A18C0112331F000239B
:1027900091F28D2F0E943D1110C0002399F2D93380
:1027A00049F41FEF27EE33E0115020403040E1F7AD
:1027B00000C000008D2F0E94931188EF8C0D843093
:1027C00020F40E94AC0F0E94C804DD20C9F00E94D2
:1027D000AF1980FD15C0F70112820E94A9190E944D
:1027E0004418C7010E9421140E94A919DF91CF91BA
:1027F0001F910F91FF90EF90DF90CF900C94651890
:10280000DF91CF911F910F91FF90EF90DF90CF90CC
:1028100008950F931F93CF93DF93EC016881798123
:102820008A810E9486198C010E94E1180E94D217A9
:10283000B801CE010E94F511DF91CF911F910F9148
:102840000895CF93DF93EC01988189812B813C819E
:10285000232B31F08F3F31F481E09F3F19F403C007
:1028600081E001C080E080FD19C0CE010E94960386
:1028700081110CC00E94B319882381F08A818823BA
:1028800069F082E0DF91CF910C94701ACE010E9422
:102890000914CE01DF91CF910C940F03DF91CF91FA
:1028A000089580E090E00E94E00F80E090E00E94B8
:1028B000F60F0E94FB190E94FE190E94201A0E9426
:1028C000A90A0C94780980910801909109010E944D
:1028D000F01B0C9451140E94EB190C946314E92F13
:1028E000E295EF704E2F50E0FA013297EE30F1058D
:1028F000B0F4EB58FF4F0C949124803F91F018F402
:10290000883E68F40EC0843F51F40BC0883E48F006
:10291000813F29F406C093FB882780F9089580E061
:10292000089581E008950E947B190E946F14089514
:10293000CF93DF9300D000D01F92CDB7DEB70F90BA
:102940000F900F900F900F90DF91CF910895CF933C
:10295000DF9300D000D000D0CDB7DEB726960FB6FB
:10296000F894DEBF0FBECDBFDF91CF9108951F93C6
:10297000CF93DF93C091C40116E08091C501C817C1
:1029800099F0D0E01C9FF0011D9FF00D1124EA5337
:10299000FE4F4081518162817381848195810E94C3
:1029A000A7142196C770E9CFDF91CF911F910895A9
:1029B0004091F6015091F7016091F8017091F90191
:1029C0008091FA019091FB010C94A7140F931F932F
:1029D000CF93DF938091FB0182958F7009F05DC0EA
:1029E0008091F801882309F458C08091C4011091A6
:1029F000C5016091F6017091F701C091F901D09184
:102A0000FA0191E06F3F09F090E0292F06E081176D
:102A100009F443C0209721F07F3F21F030E003C04C
:102A200031E001C0322F90E030FD34C0089FF0014A
:102A3000099FF00D1124DF01AA53BE4F11963C915E
:102A40001197371327C03C91361324C012963C913E
:102A5000129731111FC013964D915C9114974C1B26
:102A60005D0B483C5105B0F48091FB018F70806193
:102A70008093FB01E553FE4F80818F7080618083DE
:102A800086EF91E00E942114DF91CF911F910F9169
:102A90000C94B71401968770BACFDF91CF911F9134
:102AA0000F9108959F92AF92BF92CF92DF92EF92D3
:102AB000FF920F931F93CF93DF93CDB7DEB761974C
:102AC0000FB6F894DEBF0FBECDBF8C0185E0F801D4
:102AD000DE011D9601900D928A95E1F7F801408183
:102AE0005181E2809091F6016091F7012091F90106
:102AF0003091FA012115310531F06F3F31F481E059
:102B00009F3F19F403C081E001C080E0F82FF1700D
:102B10009F2E80FD46C1F801A380B48086EFC82EA9
:102B200081E0D82EF090F801F501E21BF30BFF20B5
:102B300009F4DFC08091FB01E83CF10508F09BC07F
:102B4000282F207F09F052C0561313C0491311C01B
:102B5000FE2CE1100EC08F7080618093FB010E94FB
:102B6000D814C6010E9421148091FB01F8018583CD
:102B700058C1AB2831F05F3F31F481E04F3F19F489
:102B800003C081E001C080E080FD03C081E08E25AC
:102B900002C080E090E0F82FF170FF2E80FF1CC093
:102BA0008091C4012091C50136E0821709F417C154
:102BB00090E0389FF001399FF00D1124EA53FE4F49
:102BC0006181561306C06081461303C06281E6121C
:102BD00003C001968770E9CFFE2CEE2009F421C1D5
:102BE0008091FB0181608093FB015AC0561306C09F
:102BF000491304C0E11002C0F8019FC04D875E87F1
:102C00008D859E850E949314882379F1EE2069F1C9
:102C10002091FB01822F82958F7090E0029774F0D3
:102C20008091F6019091F70198878F831986BB8672
:102C3000AA862C87CE0107960E94211486E0F8010F
:102C4000A6EFB1E001900D928A95E1F70E94E6149B
:102C50000E94D8140DC0561729F14D875E878D85C7
:102C60009E850E94931481112CC0C8010E942114DA
:102C7000FF24F394D6C0282F207F69F77A2DB98AD4
:102C8000A88A6E2D89890E94981486EF91E00E948F
:102C9000211486E0F60111928A95E9F70E94D81472
:102CA000F12CBFC04913D9CFE110D7CFF8018583EC
:102CB000C8010E94211486E0F60111928A95E9F775
:102CC000B0C0EE2091F22091FB01822F82958F708F
:102CD00090E002970CF4B2CF8091F6019091F70149
:102CE0009A8389831B82BD82AC822E83CE0101969A
:102CF000A3CFE83CF10508F047C0FE2CEE2009F414
:102D0000B4CF561330C049132EC02091FB0120FDD3
:102D100021C0822F82958F70482F50E041155105B8
:102D2000C9F0F80125834F30510541F08F5F982F8E
:102D30009295907F822F8F70892B8583C8010E9486
:102D4000211486E0F801A6EFB1E001900D928A957A
:102D5000E1F742C086E0F801A6EFB1E001900D92E4
:102D60008A95E1F75EC04D875E878D859E850E94BE
:102D70009314811163CF8091FB0181608093FB01EB
:102D8000C8010E9421144DC07A2DB98AA88A6E2DDF
:102D900089890E94981486E0F60111928A95E9F7D4
:102DA0001BC0EE2009F461CF4D875E878D859E851F
:102DB0000E949314F82E882309F457CF86E0F80177
:102DC000A6EFB1E001900D928A95E1F786EF91E0D0
:102DD0000E9437110E94E6140E94D81422C04D8729
:102DE0005E878D859E850E947B19292F22952F70E5
:102DF000223028F49F7039F0811105C00BC02430B7
:102E000028F49F7049F4805E883020F0C8010E9449
:102E100021149F2CF92C05C0F8019581907F99F71A
:102E2000F9CF8F2D61960FB6F894DEBF0FBECDBFE0
:102E3000DF91CF911F910F91FF90EF90DF90CF9096
:102E4000BF90AF909F9008951F93CF93DF93CDB71E
:102E5000DEB72C970FB6F894DEBF0FBECDBF4F8301
:102E6000588769877A878B879C87CE0107960E944F
:102E700052158823D1F09F8188852A853B85232B95
:102E800031F08F3F31F481E09F3F19F403C081E0BE
:102E900001C080E080FD47C04F81588569857A85F3
:102EA0008B859C850E94A7143EC086E0FE01379664
:102EB000DE01119601900D928A95E1F7FF81E88578
:102EC0006A857B856115710531F0EF3F31F481E052
:102ED000FF3F19F403C081E001C080E080FD23C002
:102EE0002091C50130E0C901019687709927409172
:102EF000C40150E084179507F1F1F983EA837D83DB
:102F00006C8396E0929FD001939FB00D1124AA5339
:102F1000BE4FFE01319601900D929A95E1F7809394
:102F2000C5010E94B71416E08091C4019091C501BB
:102F3000891771F1189FC00111248A539E4F0E9476
:102F40005215882329F1E091C4011E9FF00111243C
:102F5000EA53FE4F40815181628173818481958162
:102F60000E94A7148091C40190E001968770992770
:102F70008093C401D9CF0E946B141092C5011092A6
:102F8000C401E6EFF1E086E0DF011D928A95E9F7E2
:102F90002C960FB6F894DEBF0FBECDBFDF91CF9158
:102FA0001F910895089508950C94D3170C94D41785
:102FB0000E94D61760931E0270931F028093200216
:102FC000909321020C9451140C94D8170F931F93D3
:102FD00000911E0210911F022091200230912102C7
:102FE000602B712B822B932B1F910F910C94D81770
:102FF0000F931F9300911E0210911F022091200237
:103000003091210260237123822393231F910F911A
:103010000C94D8170F931F9300911E0210911F025A
:103020002091200230912102602771278227932767
:103030001F910F910C94D8170C94D3170E941C1851
:1030400060931A0270931B0280931C0290931D02DE
:103050000C94511460E070E0CB010C941E180F9397
:103060001F9341E050E060E070E08A019B0104C0E2
:10307000000F111F221F331F8A95D2F7C901B80113
:103080001F910F910C941E180F931F9341E050E075
:1030900060E070E004C0440F551F661F771F8A95DB
:1030A000D2F780911A0290911B02A0911C02B0915C
:1030B0001D028A019B01082B192B2A2B3B2BC901CE
:1030C000B8011F910F910C941E180F931F9341E0AC
:1030D00050E060E070E004C0440F551F661F771F8A
:1030E0008A95D2F7409550956095709580911A0217
:1030F00090911B02A0911C02B0911D028A019B01BC
:10310000082319232A233B23C901B8011F910F91DA
:103110000C941E180F931F9341E050E060E070E0A4
:1031200004C0440F551F661F771F8A95D2F7809100
:103130001A0290911B02A0911C02B0911D028A01FB
:103140009B01082719272A273B27C901B8011F918E
:103150000F910C941E180F931F9300911A02109157
:103160001B0220911C0230911D02602B712B822BBF
:10317000932B1F910F910C941E180F931F93009186
:103180001A0210911B0220911C0230911D02602333
:103190007123822393231F910F910C941E180F9378
:1031A0001F9300911A0210911B0220911C02309172
:1031B0001D0260277127822793271F910F910C947E
:1031C0001E1808952CE0929F800D1124E82FE6959B
:1031D000E695E695877051E001C0550F8A95EAF7AC
:1031E00085E0E89FF0011124E450FE4F20E030E03C
:1031F00070E04081CB01022E02C0969587950A941B
:10320000E2F78170819584278523842781932F5F3E
:103210003F4F2530310569F708952CE0929F800DCE
:103220001124682F669566956695982F977085E0AE
:10323000689FB001112440E050E080E0FB01E40F02
:10324000F51FE450FE4F208130E0092E02C0369574
:1032500027950A94E2F721703327042E01C0220F2C
:103260000A94EAF7822B4F5F5F4F4530510531F7E3
:103270000895BF92CF92DF92EF92FF920F931F9328
:10328000CF93DF938C01C0901A02D0901B02E09084
:103290001C02F0901D0280911E0290911F02A091CD
:1032A0002002B0912102C82AD92AEA2AFB2ACFE1BA
:1032B000D0E0D701C6010C2E04C0B695A79597950E
:1032C00087950A94D2F780FD04C0219790F7B12C1E
:1032D00007C0BC2EB8018C2F0E94D1040197A9F31E
:1032E0008B2DDF91CF911F910F91FF90EF90DF9089
:1032F000CF90BF900895CF93DF93EC010E943919CE
:10330000BE010E94D104DF91CF9108951F93CF9306
:10331000DF93EB019091C301992321F0CB010E942F
:103320007B1913C0882349F0CB010E943919182F4B
:10333000682FCE010E94E21804C0CB010E940D1933
:10334000182FBE01812F0E94D104DF91CF911F91D0
:10335000089580912202859585958595089580919F
:1033600022028770089590912202977081E009F4FB
:1033700080E0089590916C0292FB222720F9281793
:1033800051F080FB92F990936C0280916B029091C6
:103390006C020C94B91A089580916C0282FB882704
:1033A00080F991E089270C94BA1981E00C94BA193C
:1033B00080E00C94BA1980914602089590914602DB
:1033C000892B809346020895809590914602892327
:1033D0008093460208951092460208959091450206
:1033E000892B809345020895809590914502892309
:1033F0008093450208951092450208951092440268
:10340000089580912302089508950C94041A0C9451
:10341000051A90916C0292FD08C0909123029817B2
:1034200021F0809323020C94071A089580912302BF
:10343000882329F01092230280E00C94071A089543
:10344000E0910801F0910901809146028083E091AA
:103450000801F0910901908180914502892B8083B8
:10346000E0910801F0910901908180914402892B3B
:10347000808380912302882381F0E0910801F091FC
:1034800009019081892B8083809108019091090125
:103490000E94441B81110E94161A8091080190918C
:1034A00009010C94B80F0C94041A90916C0292FDCF
:1034B00010C098E0899F90011124262B20932202AE
:1034C0000E944418809122028595859585950C94DB
:1034D000531A0C9444181092220280E00C94531A50
:1034E000209122028095822380932202982F977048
:1034F00041F430E0482F082E000C550B24173507F7
:1035000021F490916C0292FF07C085958595859571
:103510000E9465180C946B1A089580E008956FEF6F
:103520007FEF80E090E00C94DE2480E090E00E9449
:10353000BA2421E08A3E9E4F09F020E0822F0895B0
:1035400082E090E00C94B22483E090E00C94B224EA
:10355000CF9384E090E00E94B224C82F82E290E0F2
:103560000E94B2242C2F30E0A901582BCA01CF9120
:103570000895CF93C92F682F84E090E00E94C02463
:103580006C2F82E290E0CF910C94C024AB01BC017F
:103590008FE090E00C94D224AB01BC0183E190E079
:1035A0000C94D22460E070E0CB010C94CC1A60E063
:1035B00070E0CB010E94C61A0C94D21A6AEE7EEF1C
:1035C00080E090E00E94DE2460E082E090E00E94D3
:1035D000C02460E083E090E00E94C02410921E02AC
:1035E00010921F02109220021092210260E084E0EB
:1035F00090E00E94C02460E082E290E00E94C0243B
:1036000060E085E090E00E94C02460E086E090E009
:103610000E94C0246FEF87E090E00E94C02440E049
:1036200050E0BA0188E090E00E94D22460E08DE092
:1036300090E00E94C02440E050E0BA0188E190E0B0
:103640000E94D22460E087E190E00E94C02440E024
:1036500050E0BA018CE190E00E94D22460E070E07A
:1036600080E290E00E94DE2440E050E0BA0188E170
:1036700090E00E94D2240C94D71A0C94DE1A682F82
:103680008EE090E00C94C024FC01329680911401ED
:10369000882331F080916B0287FF02C09EE101C058
:1036A00096E080E0915028F021912223D9F38F5F9A
:1036B000F9CF0895662351F1209114012223E9F0F6
:1036C00020916B0227FF19C0462F469546954695D7
:1036D0004E31E0F4677021E030E002C0220F331F6A
:1036E0006A95E2F7FC01E40FF11D828190E0282346
:1036F000392381E0232B69F409C0FC013296089636
:103700002191621729F0E817F907D1F780E00895B1
:1037100081E008959C01FC0132969FEF80E0419189
:10372000461789F09F3F19F4411101C0982F8F5F10
:103730008630A9F79F3F39F0F901E90FF11D97FD98
:10374000FA956283089508959C012A5F3F4FFC011A
:103750004281461301C01282019682179307B9F77E
:103760000895262F2695269526952E3168F4FC017E
:10377000E20FF11D677021E030E001C0220F6A9571
:10378000EAF78281282B22830895262F26952695F5
:1037900026952E3170F4FC01E20FF11D677021E0D7
:1037A00030E001C0220F6A95EAF720958281282334
:1037B0002283089520911401222329F020916B0285
:1037C00027FD0C94B11B0C948A1B20911401222319
:1037D00029F020916B0227FD0C94C51B0C94A41BAF
:1037E00020911401FC013296222331F080916B026A
:1037F00087FF02C08EE101C086E0DF011D928A953D
:10380000E9F7089508950C94021C0C94021CCF93C0
:103810000E94051C0E945B070E94031CC0E08C2FC5
:103820000E94E606892B29F4CF5FC430C1F780E0FF
:1038300001C081E0CF9108950C94021C0C941C1CD3
:1038400080918502843049F10E941E1C80E00E9414
:10385000C8041092480220E488E190E00FB6F89482
:10386000A895809360000FBE2093600083B7817F8E
:10387000846083BF83B7816083BF7894889583B762
:103880008E7F83BF0FB6F894A89580916000886101
:1038900080936000109260000FBE08950C94021C8B
:1038A0000E946B140E94AC0F0E94C8040C944E1C22
:1038B0001F920F920FB60F9211248F939F93AF9385
:1038C000BF9380914802811113C080917D02909135
:1038D0007E02A0917F02B09180024196A11DB11D90
:1038E00080937D0290937E02A0937F02B09380022A
:1038F000BF91AF919F918F910F900FBE0F901F902E
:10390000189582E084BD93E095BD9AEF97BD8093B2
:103910006E0008952FB7F89480917D0290917E02F9
:10392000A0917F02B09180022FBF08952FB7F89425
:1039300060917D0270917E0280917F029091800261
:103940002FBF08959C014FB7F89480917D0290910C
:103950007E02A0917F02B09180024FBF821B930B29
:10396000089578941F920F920FB60F9211248F939F
:103970009F93AF93BF9380917D0290917E02A0911F
:103980007F02B09180020196A11DB11D80937D023E
:1039900090937E02A0937F02B0938002BF91AF917B
:1039A0009F918F910F900FBE0F901F90189581E0FF
:1039B0008093E00080E28093D8001092C9008FE1EC
:1039C0009EE40197F1F700C0000087E090EBDC0176
:1039D00080938E0290938F02A0939002B0939102F5
:1039E0009CE088E10FB6F894A895809360000FBE24
:1039F00090936000FFCF9093970180939601089574
:103A0000809169020895CF93DF9300D01F92CDB7C4
:103A1000DEB790918502943011F589837B836A83A8
:103A20009093E9008FEF9091E800815095FD06C0DA
:103A300095ED9A95F1F700008111F5CF8091E8009E
:103A400085FF0DC040E050E063E070E0CE010196DC
:103A50000E94941F8091E8008E778093E8000F9079
:103A60000F900F90DF91CF910895BC0184E00C94EA
:103A7000031DBC0183E00C94031D24E02093E900A6
:103A80002FEF3091E800215035FD06C035ED3A9515
:103A9000F1F700002111F5CF2091E80025FF0BC0C0
:103AA00040E050E066E070E00E94941F8091E800E2
:103AB0008E778093E8000895CF93DF9320911401CF
:103AC000222339F020916B0227FF03C060E224E03B
:103AD00002C068E021E02093E9002FEF3091E80078
:103AE000215035FD06C035ED3A95F1F70000211162
:103AF000F5CF2091E80025FF1DC0EC018091140155
:103B0000811105C040E050E068E070E003C070E063
:103B100040E050E0CE010E94941F8091E8008E7733
:103B20008093E80080E2FE01A9E4B2E001900D92EA
:103B30008A95E1F7DF91CF910895CF93603219F51F
:103B4000209185022430F9F4C091E900CF703091C2
:103B5000EC00232F217030FD20E8C22B22E02093BF
:103B6000E9002091E80020FF0BC040E050E060E257
:103B700070E00E94941F8091E8008E778093E800A7
:103B8000CF70C093E900CF91089580918402811194
:103B900009C00E9470210E94CD218091E2008460C2
:103BA0008093E20008951092840208950895089584
:103BB000089542E061EC81E00E94E92042E261EC7C
:103BC00084E00E94E92042E261EC82E00E94E92068
:103BD00042E260EC83E00C94E9208091870283301C
:103BE00009F462C030F4813071F0823009F49BC076
:103BF00008958A3009F487C08B3009F46DC089308C
:103C000009F0A9C020C080918602813A09F0A3C0C2
:103C10008091E800877F8093E80080918A029091EC
:103C20008B02892B21F460E289E492E003C060E01A
:103C300080E090E070E00E942A208091E8008B777D
:103C40008093E800089580918602813209F083C054
:103C500080918A0290918B02009719F0029709F0E7
:103C60007AC08091E800877F8093E8008091E80027
:103C700082FD05C0809185028111F8CF6CC0209132
:103C8000F3008091F20090E0922B029729F480914A
:103C9000F1008B7F813021F48091F10080936902E3
:103CA0008091E8008B7753C080918602813A09F0B9
:103CB00052C080918A0290918B02892B09F04BC0EF
:103CC0008091E800877F8093E8008091E80080FF82
:103CD000FCCF8091140136C0809186028132D9F5E3
:103CE00080918A0290918B02892BA9F58091E8003E
:103CF000877F8093E8000E941E2180918802809334
:103D000014010C946B1480918602813221F580910C
:103D1000E800877F8093E8000E941E21809189023D
:103D200080936A02089580918602813AA1F480917D
:103D3000E800877F8093E8008091E80080FFFCCF57
:103D400080916A028093F1008091E8008E778093E1
:103D5000E8000C941E2108951F93CF93DF93CDB7F5
:103D6000DEB7A0970FB6F894DEBF0FBECDBF84B705
:103D7000877F84BF0FB6F894A89580916000886112
:103D800080936000109260000FBE90E080E80FB654
:103D9000F89480936100909361000FBE0E943710E9
:103DA0000E9470210E94CD218091E2008460809366
:103DB000E20078940E9462240E9445108AE091E01B
:103DC0000E94A70F13E0809185028530A9F48091AD
:103DD0008502853079F40E94201C8091830288231B
:103DE000B1F30E94071C882391F30E947E1F0E945A
:103DF0006B14EDCF0E94501C0E944D1080918502E3
:103E0000843009F51093E9008091E80082FF1BC01F
:103E10008091E80085FF0AC040E050E060E270E079
:103E2000CE0101960E94DF1F91E001C090E08091D9
:103E3000E8008B778093E800992329F060E2CE01B7
:103E400001960E94500B0E944110BDCF0C94281F78
:103E5000292F332723303105C9F060F42130310593
:103E600081F02230310509F041C08BE590E02CE76C
:103E700033E040C021323105E1F02232310531F129
:103E800035C082E190E027ED33E034C099278130DE
:103E9000910549F028F0029749F5EAE4F3E005C0FE
:103EA000E8E7F3E002C0ECE5F3E0849190E09F01E5
:103EB00021C063307105D0F4660F771FFB01E05716
:103EC000FE4F2081318189E090E014C0633071059C
:103ED00068F4FB01EE0FFF1FE657FE4F2081318192
:103EE000FB01E957FE4F808190E004C080E090E044
:103EF00020E030E0FA0131832083089580E189BD1C
:103F000082E189BD09B400FEFDCF8091D8008F7D8C
:103F10008093D8008091E00082608093E0008091DF
:103F2000E00081FDFCCF0895CF92DF92EF92FF92E7
:103F30000F931F93CF93DF93EC018B017A010E94C3
:103F40003D21811133C0E114F10439F0F701808182
:103F50009181081B190BC80FD91FC12CD12C011539
:103F6000110519F18091E80085FD16C08091E800E7
:103F70008E778093E800E114F10449F0F701808125
:103F80009181C80ED91ED182C08285E00FC00E94E7
:103F90003D21882321F30AC089918093F1000150CB
:103FA0001109FFEFCF1ADF0ADACF80E0DF91CF915E
:103FB0001F910F91FF90EF90DF90CF900895CF92D7
:103FC000DF92EF92FF920F931F93CF93DF93EC0159
:103FD0008B017A010E943D21811133C0E114F1046B
:103FE00039F0F70180819181081B190BC80FD91F87
:103FF000C12CD12C0115110519F18091E80085FD26
:1040000016C08091E8008B778093E800E114F104FA
:1040100049F0F70180819181C80ED91ED182C082FA
:1040200085E00FC00E943D21882321F30AC08091C2
:10403000F100899301501109FFEFCF1ADF0ADACF9F
:1040400080E0DF91CF911F910F91FF90EF90DF9073
:10405000CF90089520918C0230918D02261737075A
:1040600048F06115710539F42091E8002E7720930E
:10407000E80001C0B901FC0120E06115710579F18A
:10408000809185028823F1F18530F1F18091E8007B
:1040900083FD3CC08091E80082FD2EC08091E80045
:1040A00080FFEBCF2091F3008091F20090E0922B03
:1040B0006115710551F08830910538F421912093F4
:1040C000F100615071090196F3CF21E0089709F0E2
:1040D00020E08091E8008E778093E800CECF211118
:1040E000CFCF0AC080918502882361F0853061F0CE
:1040F0008091E80083FD0AC08091E80082FFF2CF42
:1041000080E0089582E0089583E0089581E00895B5
:1041100020918C0230918D022617370748F06115E7
:10412000710539F42091E8002E772093E80001C052
:10413000B901FC0120E06115710591F180918502C2
:10414000882309F440C0853009F43FC08091E8001D
:1041500083FD3DC08091E80082FD2FC08091E80082
:1041600080FFE9CF2091F3008091F20090E0922B44
:104170006115710559F08830910540F42491209320
:10418000F1003196615071090196F2CF21E0089754
:1041900009F020E08091E8008E778093E800CBCF93
:1041A0002111CCCF0AC080918502882361F085302F
:1041B00061F08091E80083FD0AC08091E80082FFF1
:1041C000F2CF80E0089582E0089583E0089581E0D1
:1041D0000895982F973068F59093E900981739F073
:1041E0007091EC002091ED005091F00003C0242F5D
:1041F000762F50E021FD02C09F5FECCF3091EB00A5
:104200003E7F3093EB003091ED003D7F3093ED0029
:104210003091EB0031603093EB007093EC00209311
:10422000ED005093F0002091EE0027FDE5CF80E0F7
:1042300008958F708093E90081E00895809186024F
:1042400087FF11C08091E80082FD05C08091850242
:104250008111F8CF11C08091E8008B770BC080915D
:104260008502882349F08091E80080FFF8CF809193
:10427000E8008E778093E80008952091E400309163
:10428000E50095E64091EC00842F817040FF23C04B
:104290008091E80080FD1DC080918502882399F0FF
:1042A000853099F08091EB0085FD11C04091E400CC
:1042B0005091E5002417350729F3915011F09A0128
:1042C000E1CF84E0089582E0089583E0089581E0DD
:1042D000089580E008954091E80042FFDDCF089501
:1042E0000E94DE210E94E621E0EEF0E08081816004
:1042F0008083E8EDF0E080818F77808319BCA7EDA3
:10430000B0E08C918E7F8C9380818F7E8083109221
:10431000840208950F931F93CF93DF930E94DE21B1
:104320000E94E621C8EDD0E088818F77888388815C
:104330008068888388818F7D888319BC109285026C
:1043400010928102109283021092820200EE10E01D
:10435000F80180818B7F808388818160888342E03F
:1043600060E080E00E94E920E1EEF0E080818E7F55
:104370008083E2EEF0E080818160808380818860CC
:104380008083F80180818E7F80838881806188832B
:10439000DF91CF911F910F910895E8EDF0E08081BA
:1043A0008F7E8083E7EDF0E080818160808384E010
:1043B00082BF81E0809384020C948A21E8EDF0E0D2
:1043C00080818E7F80831092E20008951092DA003F
:1043D0001092E10008951F920F920FB60F921124D0
:1043E0002F933F934F935F936F937F938F939F93FD
:1043F000AF93BF93EF93FF938091E10082FF0BC0D7
:104400008091E20082FF07C08091E1008B7F809362
:10441000E1000E9461248091DA0080FF1FC080913A
:10442000D80080FF1BC08091DA008E7F8093DA0075
:104430008091D90080FF0DC080E189BD82E189BDF6
:1044400009B400FEFDCF81E0809385020E94C51D66
:1044500005C019BC109285020E94D31D8091E10015
:1044600080FF19C08091E20080FF15C08091E200BA
:104470008E7F8093E2008091E20080618093E20071
:104480008091D80080628093D80019BC85E0809329
:1044900085020E94D71D8091E10084FF30C0809189
:1044A000E20084FF2CC080E189BD82E189BD09B4AE
:1044B00000FEFDCF8091D8008F7D8093D800809141
:1044C000E1008F7E8093E1008091E2008F7E8093F7
:1044D000E2008091E20081608093E200809181029D
:1044E000882311F084E007C08091E30087FD02C0BB
:1044F00081E001C083E0809385020E94D81D8091F5
:10450000E10083FF29C08091E20083FF25C08091F4
:10451000E100877F8093E10082E080938502109222
:1045200081028091E1008E7F8093E1008091E20022
:104530008E7F8093E2008091E20080618093E200B0
:1045400042E060E080E00E94E9208091F000886015
:104550008093F0000E94D61DFF91EF91BF91AF9123
:104560009F918F917F916F915F914F913F912F918B
:104570000F900FBE0F901F9018951F920F920FB6BD
:104580000F9211242F933F934F935F936F937F93D9
:104590008F939F93AF93BF93CF93DF93EF93FF934B
:1045A000C091E900CF708091EC00D82FD17080FDD0
:1045B000D0E81092E9008091F000877F8093F000AE
:1045C00078940E9401231092E9008091F0008860A5
:1045D0008093F000CD2BCF70C093E900FF91EF9155
:1045E000DF91CF91BF91AF919F918F917F916F910B
:1045F0005F914F913F912F910F900FBE0F901F90A1
:1046000018951F93CF93DF93CDB7DEB7AA970FB658
:10461000F894DEBF0FBECDBFE6E8F2E08091F10076
:10462000819322E0EE38F207C9F70E94ED1D8091D8
:10463000E80083FF2EC18091860290918702492F66
:1046400050E04A30510508F024C1FA01ED57FF4F00
:104650000C949124803821F0823809F01AC108C0E6
:104660008091820290918302992389F082600FC029
:1046700080918A028F70873008F00BC18093E90027
:104680008091EB0085FB882780F91092E9009091DA
:10469000E800977F9093E8008093F1001092F1007A
:1046A000D1C0282F2D7F09F0F4C0882319F0823063
:1046B00061F0EFC080918802813009F0EAC0933048
:1046C00009F080E0809383022EC0809188028111DE
:1046D0002AC080918A028F702FEF280F263008F0B1
:1046E000D8C08093E9002091EB0020FF1CC09330DC
:1046F00021F48091EB00806214C09091EB009061F6
:104700009093EB0021E030E0A90102C0440F551F57
:104710008A95E2F74093EA001092EA008091EB005C
:1047200088608093EB001092E9008091E800877F19
:104730008093E8000E941E21ACC08111AAC0109194
:1047400088021F778091E3008078812B8093E300BB
:104750008091E800877F8093E8000E941E2180916D
:10476000E80080FFFCCF8091E30080688093E30045
:10477000111102C082E001C083E08093850289C0EC
:104780008058823008F085C080918802909189021B
:104790008C3D53E0950779F583E08A838AE289832B
:1047A0004FB7F894DE01139620E03EE051E2E32F8C
:1047B000F0E050935700E49120FF03C0E295EF70C2
:1047C0003F5FEF708E2F90E0EA3010F0C79601C087
:1047D000C0968D939D932F5F243149F74FBF8091F1
:1047E000E800877F8093E8006AE270E0CE010196DE
:1047F0000E942A2016C060918A0270918B02AE013D
:104800004F5F5F4F0E94261FBC01892B09F441C0F6
:104810009091E800977F9093E80089819A810E94A7
:1048200088208091E8008B778093E80032C0803840
:1048300081F58091E800877F8093E8008091810274
:104840008093F1008091E8008E7772CF811121C0B2
:10485000809188029091890299270297D4F48091DF
:10486000E800877F8093E80080918802809381022E
:104870000E941E2180918102811106C08091E30077
:1048800087FD02C081E001C084E0809385020E9420
:10489000D91D8091E80083FF0AC08091E800877FDE
:1048A0008093E8008091EB0080628093EB00AA96F1
:1048B0000FB6F894DEBF0FBECDBFDF91CF911F9131
:1048C00008950895CF93809185028823A1F0C09127
:1048D000E900CF709091EC00892F817090FD80E805
:1048E000C82B1092E9008091E80083FD0E9401230B
:1048F000CF70C093E900CF91089597FB072E16F46F
:10490000009407D077FD09D00E949E2407FC05D0B3
:104910003EF4909581959F4F0895709561957F4FD6
:104920000895EE0FFF1F0590F491E02D099469277B
:10493000962769277827872778270895AA1BBB1B06
:1049400051E107C0AA1FBB1FA617B70710F0A61B8F
:10495000B70B881F991F5A95A9F780959095BC01B0
:10496000CD010895F999FECF92BD81BDF89A99279E
:1049700080B50895A8E1B0E042E050E00C94E62450
:10498000262FF999FECF92BD81BDF89A019700B408
:10499000021639F01FBA20BD0FB6F894FA9AF99AA8
:1049A0000FBE08950396272F0E94C1240E94C024A1
:1049B000252F0E94C124242F0C94C1240196272F57
:1049C0000E94C1240C94C024DC01CB01FC01F999A4
:1049D000FECF06C0F2BDE1BDF89A319600B40D924B
:0C49E00041505040B8F70895F894FFCF04
:1049EC002808641E140A321E2402001D5C1D3D1D85
:1049FC00391D351D01E200E900EA00B500B600B72B
:104A0C0000CD008301CC008A019201940121022384
:104A1C000224022502260227022A02B300B4006FE8
:104A2C00007000818283F0F1F4F5F6F76766363595
:104A3C00349793959694E200E900EA00B500B6002D
:104A4C00B700CD008301CC008A01920194012102B0
:104A5C00230224022502260227022A02B300B400F4
:104A6C006F0070008182834022B6C104E9030B04FD
:064A7C008E03A703C7032F
:00000001FF
