:100000000C9414040C945B040C945B040C945B043B
:100010000C945B040C945B040C945B040C945B04E4
:100020000C945B040C945B040C94B1270C94ED26A7
:100030000C94C3190C945B040C945B040C945B0447
:100040000C945B040C945B040C945B040C945B04B4
:100050000C945B040C9476190C945B040C945B0474
:100060000C945B040C945B040C945B040C945B0494
:100070000C945B040C945B040C945B040C945B0484
:100080000C945B040C945B040C945B040C945B0474
:100090000C945B040C945B040C945B040C945B0464
:1000A0000C945B040C945B040C945B047A087D084C
:1000B0009708A408AB08CB08CE081F095609FB090E
:1000C000FB09650967096B099009B209B509B80907
:1000D000DB095E0F5E0F980F980FF10F0D10A8113E
:1000E000A8111810F61007110711A71BA71BBA1BA0
:1000F000BA1BB01BBA1BBA1BBA1BA71BA71BB51B8D
:10010000BA1BBA1BB51B01252825CF262825CF26CB
:1001100074259725CF268C269C261E0F0500047F6C
:100120003F1F643214643214783C1E1E140A05000A
:1001300000000000000000000000000000000000BF
:1001400000000000000000000000000000000000AF
:100150000000007E0F00D4FFFFFFC7000000780002
:10016000000000000000002A2B2800000000000012
:100170000000000000000000000029000000002C2A
:100180001E3420212224342627252E362D373827C9
:100190001E1F202122232425263333362E37381FD5
:1001A0000405060708090A0B0C0D0E0F1011121397
:1001B0001415161718191A1B1C1D2F3130232D3535
:1001C0000405060708090A0B0C0D0E0F1011121377
:1001D0001415161718191A1B1C1D2F3130354C0019
:1001E00001010101010101010102020202020202F8
:1001F00002020303030303030303040404040404CB
:100200000405050505050606060606070707070790
:1002100008080808090909090A0A0A0B0B0B0C0C43
:100220000C0D0D0D0E0E0E0F0F0F101011111112DF
:100230001213131414151516161717181819191A5E
:100240001A1B1B1C1D1D1E1E1F20202122222324C1
:1002500024252626272829292A2B2C2D2D2E2F3000
:10026000313232333435363738393A3B3C3D3E3F14
:10027000404142434445464748494A4C4D4E4F5001
:10028000515354555658595A5B5D5E5F61626465BF
:100290006668696B6C6D6F7072737577787A7B7D49
:1002A0007E8082838587888A8C8E8F91939596989D
:1002B0009A9C9EA0A2A3A5A7A9ABADAFB1B3B5B7B9
:1002C000BABCBEC0C2C4C6C9CBCDCFD1D4D6D8DB90
:1002D000DDDFE2E4E7E9EBEEF0F3F5F8FAFDFFFF2E
:1002E000AA7F554004030201000A090807060522F7
:1002F00023252628292A2C2D2F3032333536383A1B
:100300003B3D3E4042434547494A4C4E5051535570
:1003100057595A5C5E6062646668696B6D6F717391
:100320007577797B7D7F81838587898A8C8E909292
:100330009496989A9C9E9FA1A3A5A7A8AAACAEAF9D
:10034000B1B3B4B6B8B9BBBCBEBFC1C2C3C5C6C7E2
:10035000C9CACBCCCDCED0D1D2D2D3D4D5D6D7D793
:10036000D8D9D9DADADBDBDBDCDCDCDCDCDDDDDDDB
:10037000DDDCDCDCDCDCDBDBDBDADAD9D9D8D7D7D7
:10038000D6D5D4D3D2D2D1D0CECDCCCBCAC9C7C684
:10039000C5C3C2C1BFBEBCBBB9B8B6B4B3B1AFAEC2
:1003A000ACAAA8A7A5A3A19F9E9C9A989694929068
:1003B0008E8C8A89878583817F7D7B797775737140
:1003C0006F6D6B6968666462605E5C5A595755531D
:1003D00051504E4C4A4947454342403E3D3B3A38D6
:1003E00036353332302F2D2C2A2928262523221664
:1003F0005C1F0021002300250027002E00A8001EFE
:100400000020002200240026002D002A0000002BDE
:10041000001A0015001C000C0013003000015114DC
:100420000008001700180012002F002800000039F3
:1004300000160009000B000E0033003200025104C8
:100440000007000A000D000F00340000000000E16A
:10045000001B001900110036003800E50000001DE7
:100460000006000500100037000000520000006484
:1004700000E2002C000500E600000050004F00E004
:100480000000002C002C000000000051000000358E
:10049000003B003D003F0041004300450001003AA1
:1004A000003C003E004000420044004C00000001BF
:1004B0000001000100010001000100010001000134
:1004C0000001000100010001000100010000000125
:1004D0000001000100010001000100010001000114
:1004E0000001000100010001000100000000000106
:1004F00000010001000100010001000100000001F5
:1005000000010001000100010000000100000001E5
:1005100000010001000100010000000100010001D4
:1005200000000001000100000000000100000001C7
:1005300000C35CC55CC95CC85C010001000100C26D
:100540005CC45CC75CC65CCA5C01004C0000000176
:1005500000AE000100BF5CBE5C01000100005CACAD
:1005600000AB000100BD5CC05C01000100000001A7
:100570000001000100010001000100010001000173
:100580000001000100010001000100000000000165
:100590000001000100010001000100010000000154
:1005A0000001000100010001000000010000000145
:1005B0000001000100010001000000010001000134
:1005C0000000000100010000000000010000000127
:1005D0000001000100010001000100010001000113
:1005E0000001000100010001000100010000000104
:1005F00000010001000100010001000100010001F3
:1006000000010001000100010001000100000001E3
:1006100000010001000100010001000100010001D2
:1006200000010001000100010001000000000001C4
:1006300000010001000100010001000100000001B3
:1006400000010001000100010000000100000001A4
:100650000001000100010001000000010001000193
:100660000000000100010000000000010000000582
:10067000010902A10185020901A100050919012949
:100680000815002501950875018102050109300949
:10069000311581257F950275088106093815812558
:1006A0007F950175088106050C0A38021581257FA2
:1006B000950175088106C0C005010980A101850367
:1006C00019012AB700150126B700950175108100A0
:1006D000C0050C0901A101850419012AA002150118
:1006E00026A002950175108100C005010906A1012F
:1006F0008505050719E029E715002501950875010D
:1007000081020507190029EF1500250195F07501F3
:1007100081020508190129059505750191029501C8
:1007200075039101C00660FF0961A101096215000E
:1007300026FF009520750881020963150026FF0039
:10074000952075089102C005010906A10105071948
:10075000E029E715002501950875018102950175CD
:100760000881010507190029FF150026FF009506DD
:100770007508810005081901290595057501910283
:10078000950175039101C009025B00030100A0FA05
:1007900009040000010301010009211101000122E7
:1007A00040000705810308000A0904010002030054
:1007B0000000092111010001222200070582032007
:1007C00000010705030320000109040200010300E2
:1007D000000009211101000122B600070584032051
:1007E000000A1201100100000008F7B94CB4010022
:1007F000010200010C034E006500690074006F00E7
:10080000000020034F006C00690076006500720054
:1008100020004700720061006E006C0075006E00E1
:10082000640000000403090411241FBECFEFDAE0C6
:10083000DEBFCDBF04B603FE27C080912003909198
:100840002103A0912203B09123038730904BA7404E
:10085000B04BD1F410922003109221031092220386
:100860001092230314BE84B7877F84BF0FB6F89419
:10087000A89580916000886180936000109260006C
:100880000FBEE0E0F8E3099511E0A0E0B1E0EAEF87
:10089000F7E502C005900D92AA3AB107D9F723E017
:1008A000AAEAB1E001C01D92A032B207E1F70E94AE
:1008B0005D040C94FB2B0C940000CF93DF93CDB719
:1008C000DEB7AA970FB6F894DEBF0FBECDBF84B7D0
:1008D000877F84BF0FB6F894A895809160008861E7
:1008E00080936000109260000FBE90E080E80FB629
:1008F000F89480936100909361000FBE85B7806883
:1009000085BF85B7806885BF86EB98E19093AB0182
:100910008093AA010E9431270E9450278091E20013
:1009200084608093E2007894809112038823A1F080
:100930001091E9001F709091EC00892F817090FD5B
:1009400080E8182B1092E9008091E80083FD0E9456
:100950001B241F701093E90082E084BD93E095BDD5
:100960009AEF97BD80936E000DE111E0A7E2EA2EA9
:10097000A1E0FA2EF80181918F010E946716E0161E
:10098000F106C1F707E211E0FFE2EF2EF1E0FF2EE2
:10099000F80181918F010E946716E016F106C1F7F8
:1009A000EEEAF1E0A5EEB1E011921D9221E0E83B04
:1009B000F207D1F780E090E00E94E32A8A3E9E4F42
:1009C00011F00E945A1A82E090E00E94D52A80938A
:1009D000D2010E94491A9093AD018093AC010E940C
:1009E0007E164FEF86E791E0415080409040E1F75E
:1009F00000C000000E947E168091E50180FF17C0B4
:100A00006FEF83E290E00E94E92A6FEF84E290E0CA
:100A10000E94E92A6FEF85E290E00E94E92A6FEFD9
:100A20007FEF80E090E00E94072B0E94521983E044
:100A300090E00E94D52A682F70E080E090E00E944C
:100A4000821C269A2E98259A2D9A82EC80938000FB
:100A500089E1809381008FEF9FEF909387008093CF
:100A600086000E94B72383E290E00E94D52A81325B
:100A700081F484E290E00E94D52A873051F485E227
:100A800090E00E94D52A91E0883209F090E0892F09
:100A900001C080E080FFF8C40E94B7238091B801B4
:100AA000811136C080E090E00E94E32A8A3E9E4F8A
:100AB00021F00E945A1A0E94341388E090E00E94AC
:100AC000DD2A6093E0017093E1018093E20190934D
:100AD000E3016E7F71F40E94341388E090E00E947D
:100AE000DD2A6093E0017093E1018093E20190932D
:100AF000E3010E94E6121092DF018091E00180FF85
:100B000004C060E086950E94BA1481E08093B80129
:100B100027982F9A2098289A83B190E0880F892FE0
:100B2000881F990B189B02C022E001C020E0822B95
:100B30008093C40184E091E09093BA018093B9015D
:100B400048E1642E712C50E4352E60E1462E70E1B0
:100B5000572E8E010F5F1F4F6E01FDE0CF0ED11C8F
:100B600080911203853009F04BC032E1F32E809161
:100B70001203853009F03CC080911203843039F1B2
:100B800080E00E94342380E00E94AD181092BB01E7
:100B90000FB6F894A895609260000FBE3092600086
:100BA00083B7817F846083BF83B7816083BF78947C
:100BB000889583B78E7F83BF0FB6F894A8958091F0
:100BC0006000886180936000109260000FBE809189
:100BD0001103882309F4CBCF0E947E16E5EEF1E0E5
:100BE0008191811132C421E0EF3EF207C9F7BFCFF6
:100BF0000E94B11E0E94B7230E943E220E94AD189F
:100C00000E947E1681110E94AB19A3EDB1E0E5EEC2
:100C1000F1E0E12CF12C3E2D21919D91922721F1C3
:100C200080E0BB24B394492F4B21D1F089A33AA390
:100C30002B2181E009F480E08BA30E94B719816029
:100C4000782F9DA38CA349A15AA16BA18DA10E94CD
:100C50007421F701ED52FE4F8081B826B0821BC08F
:100C60008F5FBB0C8830F9F63FEFE31AF30A4AE0D6
:100C7000E416F10481F68FEF8EA38FA318A60E94CD
:100C8000B7198160782F9AA789A74EA15FA168A59F
:100C90008AA50E9474218091DF01882309F4AAC0EB
:100CA0008091DE01E091E001E695E81BE093BE0152
:100CB000823059F4F0E0E55DFE4FE491EE2EF12C28
:100CC00020E6A22E21E2B22E70C0863059F4F0E068
:100CD000E85DFE4FE491EE2EF12C90E5A92E91E215
:100CE000B92E63C0893061F4E695F0E0EB5DFE4F0C
:100CF000E491EE2EF12C85E4A82E80E2B82E55C0AA
:100D00008F3061F4E695F0E0EE5DFE4FE491EE2E5B
:100D1000F12CB8EDAB2EBFE1BB2E47C0853159F4A5
:100D2000F0E0E15EFE4FE491EE2EF12CAAE8AA2E4F
:100D3000AFE1BA2E3AC08831F9F0833249F4EDE1DF
:100D4000F1E0E590F490F0E1AF2EF1E2BF2E2DC07E
:100D50008432D1F0853209F58E2F63E00E94902B0A
:100D6000E92FF0E0E65EFE4FE491EE2EF12CEFE687
:100D7000AE2EE0E2BE2E19C068E2E62EF12C71E044
:100D8000A72E7FE1B72E11C044EFE42EFF24F39489
:100D900057ECA52E5EE1B52E08C020EDE22E27E02F
:100DA000F22E36ECA32E3EE1B32E8091BF018823B4
:100DB00061F01092BF010E94B7199093BD0180931A
:100DC000BC011092C1011092C0010E94B719E091BC
:100DD000BC01F091BD018E1B9F0B8F3F9F4750F4CC
:100DE000EE0EFF1EF092BD01E092BC018CEB91E093
:100DF000F50109958091C401E82FEE0FEE0FE09305
:100E0000C40123B130E0220F232F221F330B189B84
:100E100003C082E090E002C080E090E0822B932B40
:100E20008E2B8093C4018F70E82FF0E0E15DFE4FC0
:100E300090818091C301890F8093C301843054F065
:100E40008091C2018F5F8093C2018AEA0E94AB2920
:100E500021E001C020E08091C3018D3F4CF48091DE
:100E6000C20181508093C20189EA0E94AB2921E02E
:100E70008091C301082E000C990B64E070E00E9481
:100E8000BE2B8093C30121110E94AB1986E0EBECCD
:100E9000F1E0D80101900D928A95E1F7A090CD0183
:100EA000B090CE01E090CF01F090D0011092CD0132
:100EB0001092CE011092CF011092D001A11003C068
:100EC000BB2009F451C08091C9019091CA010E94D0
:100ED0009C199C019091C801992309F4EEC2233317
:100EE000310508F441C09F3F19F09F5F9093C801FE
:100EF000AA2061F00E94EC151A1414F491E001C0CC
:100F00009FEF899F802D11248093CD01BB2061F03C
:100F10000E94EC151B1414F491E001C09FEF899F0F
:100F2000802D11248093CE013091CD013323E1F047
:100F30002091CE012223C1F045EB3403C0011124DE
:100F4000992319F09093CD0103C081E08093CD01E6
:100F500035EB2303C0011124992319F09093CE019E
:100F600003C081E08093CE01E11003C0FF2009F4AB
:100F700051C08091C6019091C7010E949C199C01AB
:100F80009091C501992309F49DC22536310508F4D5
:100F900041C09F3F19F09F5F9093C501EE2061F023
:100FA0000E94CA151E1414F491E001C09FEF899F9E
:100FB000802D11248093CF01FF2061F00E94CA157B
:100FC0001F1414F491E001C09FEF899F802D11241C
:100FD0008093D0013091CF013323E1F02091D001F3
:100FE0002223C1F045EB3403C0011124992319F0E9
:100FF0009093CF0103C081E08093CF0135EB2303B1
:10100000C0011124992319F09093D00103C081E00D
:101010008093D0018091CD0181110BC08091CE01D0
:10102000811107C08091CF01811103C08091D0014F
:1010300081110E942915AB82BC82ED82FE8286E07E
:10104000F801ABECB1E001900D928A95E1F70E94B6
:101050003E229091D101891731F00E943E22809367
:10106000D1010E94AD1880911203843009F078CD2F
:1010700083E08093E9008091E80082FF71CD809148
:10108000E80085FF21C00E94862881111BC080E2F4
:10109000A82EB12C780109C08091F100F70181934D
:1010A0007F01F1E0AF1AB10869F08091E80085FD99
:1010B000F3CF8091E8008B778093E8000E94862828
:1010C000882399F391E001C090E08091E8008B774C
:1010D0008093E800992309F443CDE9818E2F90E0B5
:1010E000FC013197E331F10508F085C1EA5AFF4F61
:1010F0000C94D22B1A8289E0D7C08A81823009F4FD
:10110000BAC1833051F0813009F075C10E94AB192A
:101110009B838C837D836E8370C1FE013396A5EE25
:10112000B1E08D918193CE16DF06D9F766C18A8131
:10113000823009F060C16B817C818D819E810E942B
:10114000D82B86E290E024C04C816B818A810E947A
:1011500001239D8397C1ED80FE80FE24EF24FE24B1
:101160008C81AB809A8120E1A29E5001112430EA4B
:10117000939FA00CB11C1124A80EB11CA80EB11C89
:101180006F2DC50187960E94E92A6E2DC5018896AC
:101190000E94E92A32C10E94CD222FC18A81893062
:1011A00061F48B8145E0849FC00111246FEF70E0F2
:1011B0000E94AA2B862F0E949E238A818138B1F03B
:1011C00050F4803809F019C120E04B816091E201B0
:1011D0008091E10131C0823859F1833809F00DC1A5
:1011E00020E04091E3016C818B8126C060E08B811F
:1011F0000E94BA149B818091E001911111C08E7FF1
:101200008093E0011092DF018FEF90E7E2E08150E0
:101210009040E040E1F700C000000E946912EDC07C
:1012200081608093E00160E086950E94BA14E5C079
:101230008B818093E401E1C00E94DD13DEC08A81CE
:10124000893021F08A3089F41B82D7C08091DD017A
:10125000869586958695FFEF8F9FC001112465E0E6
:1012600070E00E94AA2B6B83C8C0813899F030F4DB
:10127000803809F0C2C08091E30116C0823891F035
:10128000833809F0BAC08091E1018B838091E2013B
:101290008C83B3C08091E00180FF02C0869504C0BA
:1012A00080E002C08091E4018B83A7C08091DD01C2
:1012B0000E9499236091E0017091E1018091E20127
:1012C0009091E3010E94001398C05A8296C081E079
:1012D0008A8389E5E9CFEA80FB80FE24EF24FE249F
:1012E0008C80912C5801C70189559D4F9501201B79
:1012F000310B2815390508F080C029E5E21621E0F8
:10130000F20628F40E94D52AF501848302C0F50173
:101310001482FFEFEF1AFF0A2FEFA21AB20AE3CFEF
:10132000EA80FB80FE24EF24FE248C80912C58015F
:10133000C70189559D4F9501201B310B2815390593
:1013400008F05BC039E5E31631E0F30620F4F5015F
:1013500064810E94E92AFFEFEF1AFF0A2FEFA21A19
:10136000B20AE6CF0E94BD2248C084E08A8345C00D
:10137000EA80FB80FE24EF24FE248C80912C58010F
:10138000C70187969501201B310B28153905A8F553
:1013900030E8E31632E0F30628F40E94D52AF5017E
:1013A000848302C0F5011482FFEFEF1AFF0A2FEFCA
:1013B000A21AB20AE5CFEA80FB80FE24EF24FE24C5
:1013C0008C80912C5801C70187969501201B310B09
:1013D0002815390590F430E8E31632E0F30620F4DE
:1013E000F50164810E94E92AFFEFEF1AFF0A2FEF4F
:1013F000A21AB20AE8CF8FEF89838091120384305A
:1014000009F0AECB8091E9008F702091EC00922F13
:10141000917020FD90E8F92EF82A82E08093E9008F
:101420008091E80080FF0CC040E050E060E270E096
:10143000C8010E94B9288091E8008E778093E80067
:101440008F2D8F708093E9008BCB49BCF9BC09B418
:1014500000FEFDCF8091D8008F7D8093D8008091D1
:10146000E00082608093E0008091E00081FDFCCF8D
:101470000E94B11E7CCB86E290E00E94D52A1B829E
:101480001C821D828E83B9CF60E086E290E00E94CC
:10149000E92A0E94CD220E94BD2261E283E290E00F
:1014A0000E94E92A67E084E290E00E94E92A68E26B
:1014B00085E290E00E94E92AEFCA2D32314008F01F
:1014C00014CD52CD2D32314008F065CDA3CD3F92E1
:1014D0004F925F926F927F928F929F92AF92BF9244
:1014E000CF92DF92EF92FF920F931F93CF93DF93F0
:1014F000CDB7DEB729970FB6F894DEBF0FBECDBFCC
:10150000FC018081918123813481232B31F09F3F25
:1015100031F491E08F3F19F403C091E001C090E0F5
:1015200090FD7CC77F0185E0DE01119601900D9250
:101530008A95E1F7F701228189819A81222349F076
:101540000E94481B182F682F89819A810E94EA1BEC
:1015500003C00E94BE1B182F69817A81812F0E94CF
:1015600027238C01F7018281882309F4F2C09801B6
:1015700022513F452031310508F019C18FEF93E02A
:101580000E94D52A8111EFC0025137EA832E32E042
:10159000932E002379F08114F4E09F0609F4E3C050
:1015A000C4010E94D52A811101C001501FEF811A88
:1015B000910AEFCF1E821F82188619864424439415
:1015C0002AE0322E84010F5F1F4FC4010E94D52AEA
:1015D0008E831F82882309F4C6C09FEF980F933033
:1015E00060F48F834E8222E0820E911CC8010E941B
:1015F000D52A8887811102C0B6C048018E010A5FD2
:101600001F4FF80120812223E9F2213009F04CC05C
:101610008181813049F46801F2E0CF0ED11CF801DC
:1016200082810E94AB290AC0823051F46801F2E045
:10163000CF0ED11CF80182810E943329860186C019
:10164000833049F46801F2E0CF0ED11CF8018281A9
:101650000E94FA28F3CF843019F00F5F1F4F76C035
:10166000F80122810E5F1F4F80E090E030E02053B0
:1016700031092A30310568F4389EA001399E500D99
:101680001124C901840F951F0F5F1F4FF80120819E
:10169000EDCF009709F45AC0EFE9FFE03197F1F779
:1016A00000C000000197F5CFE22FF0E0E15AFE4FB5
:1016B0005490822F86958695869590E0FC01E15B9B
:1016C000FE4F64902770712C022E02C075946794AF
:1016D0000A94E2F7F1E06F227724FC01E15CFE4F0F
:1016E000A490B12C022E02C0B594A7940A94E2F7FC
:1016F00031E0A322BB24FC01E15DFE4FC490D12C5C
:1017000002C0D594C7942A95E2F781E0C822DD246F
:101710006114710419F081EE0E943329A114B104FF
:1017200019F086EE0E943329852D0E94AB29AB2843
:1017300019F086EE0E94FA28672819F081EE0E94BF
:10174000FA28CD2819F08CE20E94AB290F5F1F4FB9
:1017500058CF0031EFE51E0709F059C681E00E941D
:101760001F1C0E94FD2380917F02877009F456C6DA
:10177000F7018281882309F451C682E029960FB6C9
:10178000F894DEBF0FBECDBFDF91CF911F910F91B7
:10179000FF90EF90DF90CF90BF90AF909F908F9091
:1017A0007F906F905F904F903F900C94441C00315D
:1017B0003FE5130711F481E005C001319FE51907EA
:1017C00021F482E00E94611CCCCF0D3BFCE51F0799
:1017D00081F48091DD01982F969596959695C9F1A3
:1017E000915E990F990F990F8770892B8093DD0176
:1017F00024C00E3B2CE5120708F43EC00F3BECE57D
:101800001E0769F108F4E6C5003C2CE5120709F053
:1018100045C09091DD01892F8695869586958F5FCD
:101820008F71863008F0EFC5880F880F880F97708A
:10183000892B8093DD018091DD01887F91E009F49F
:1018400090E08091DD0190FB80F98093DD010E94A2
:1018500099238091DD018695869586950AC08091B1
:10186000DD0180FFACC58E7F8093DD010E9499234E
:1018700080E00E94342377CF0B3B3CE5130711F443
:1018800085E005C00C3B9CE5190741F480E00E940F
:101890009E238091DD010E94992365CF033FFCE5E3
:1018A0001F0799F406E221EE40EE63EF7CE509C0E4
:1018B000073DECE51E0711F506E221EE41EE67ED6E
:1018C0007CE5C7010E944A224ECF043F2CE5120757
:1018D00008F040C1083D3CE5130731F407E225EE6E
:1018E00045EE68ED7CE5EDCF093D9CE5190701F774
:1018F00008E221E045EE69ED7CE5E3CF882309F4B9
:1019000048C11092EF0102309CE5190708F441C16B
:101910000631ECE51E0738F098012A5F3C45293076
:10192000310508F036C10E94491A9093AD018093A9
:10193000AC010031FCE51F0709F4C3C008F041C049
:1019400008303CE5130709F49AC0F0F404309CE534
:10195000190709F487C068F40230FCE51F0709F491
:1019600077C003301C4509F0E5C08091AC0182606E
:1019700076C006303CE5130709F46EC008F07BC062
:101980008091AC0188606BC00C309CE5190709F4AC
:1019900085C068F40A30FCE51F0709F474C008F03C
:1019A00079C00E94B11E8091AC01806858C00E3091
:1019B0003CE5130709F476C008F07FC08091AC01C4
:1019C0008BC00B3F9CE5190709F44FC018F5033194
:1019D000FCE51F0709F47DC078F401313CE51307ED
:1019E00009F473C002311C4509F0A4C00E94B11E65
:1019F0008091AC018F7733C005319CE5190709F45C
:101A000072C008F486C00A3F1C4509F093C080915B
:101A1000AD013EC00F3F2CE5120709F45FC058F43A
:101A20000D3F8CE5180709F444C008F43FC08091CD
:101A3000AD0182602DC00130EDE51E0709F475C0CF
:101A400008F45DC002301D4509F074C060E06EC04E
:101A50008091AC01816003C08091AC018061809372
:101A6000AC0168C08091AC0111C08091AD01826071
:101A70008093AD015FC08091AC018062F0CF809116
:101A8000AC018064ECCF8091AC0188608460E7CFCA
:101A90008160EECF8091AC018E7FE1CF8091AC016F
:101AA0008D7FDDCF8091AC01877FD9CF8091AD0153
:101AB00018C08091AD018D7FDBCF8091AC018F7E0E
:101AC000CECF8091AC018F7DCACF8091AC018F7B4E
:101AD000C6CF8091AC01877F8B7FC1CF8091AD0154
:101AE0008D7F8E7FC5CF8091AC0182FB222720F9AC
:101AF00091E0922790FB82F990FB83F9B0CF80911F
:101B0000AD01982F909591708E7F892B90FB81F974
:101B1000AFCF0E94B11E8091AC0187FB222720F934
:101B200091E0922790FB87F99ACF61E08EE090E0F8
:101B30000E94E92A6091AC011091AD0184E090E02F
:101B40000E94E92A612F82E290E00E94E92A0E9425
:101B5000B11E09CE053FFCE51F0731F406E221EE78
:101B600042EE65EF7CE5ADCE053F2CE5120730F483
:101B700007E225EE44EE64EF7CE5A3CE063F3CE5AC
:101B8000130709F0BBCE07E225EE46EE66EF7CE5D3
:101B900098CE06319CE5190751F590918202292FC4
:101BA0002A7A917161F48823A1F081E0211101C0AA
:101BB00080E08093F001222331F065E305C08823A3
:101BC00041F01092F00169E284EF91E00E94141A52
:101BD0000BC08091F001882311F065E301C069E238
:101BE00084EF91E00E94EC190E94CB1ABCCD8823AF
:101BF00009F41EC18091820282720C3C3CE51307FD
:101C000009F4C4C008F045C0063CECE51E0709F421
:101C1000A9C0D8F4033C2CE5120709F499C030F4AC
:101C2000023C8CE5180709F46EC0D1C0043C9CE569
:101C3000190709F492C0053CECE51E0709F0C7C07E
:101C400048EA54E161EB74E1A5C0093CFCE51F07DB
:101C500009F492C078F4073C3CE5130709F487C007
:101C6000083C9CE5190709F0B2C04CE954E160E971
:101C700074E190C00A3CECE51E0709F482C00B3CFD
:101C8000FCE51F0709F0A3C042E153E163E273E101
:101C900081C0013D2CE5120709F488C0A0F40E3C78
:101CA0008CE5180709F47CC008F477C00F3CECE51C
:101CB0001E0709F478C0003DFCE51F0709F087C046
:101CC0006EE089E081C0043D2CE5120709F474C080
:101CD00068F4023D8CE5180709F46BC0033D9CE5F0
:101CE000190709F074C061E088E16BC0053DECE5BF
:101CF0001E0709F464C00D35FDE51F0709F067C034
:101D00006AE285E261C08091E00180FF1BC08E7FA6
:101D10008093E0016091E0017091E1018091E20126
:101D20009091E3010E9400131092DF010FEF10E782
:101D300022E0015010402040E1F700C000000E9466
:101D4000691211CD81608093E00161E0869539C010
:101D50004CEF54E165E075E11DC045E055E16CEFE5
:101D600074E118C041EB54E168EA74E113C040E942
:101D700054E16CE974E10EC048E754E164E874E1B1
:101D800009C044E854E168E774E104C043E253E168
:101D900062E173E10E94F723E6CC61E081E011C0CB
:101DA00065E082E011C068E086E00EC064E18FE08B
:101DB0000BC067E185E108C062E289E105C061E02E
:101DC00083E20E94BA14CFCC0E94E523CCCC0A3522
:101DD0003DE5130741F150F401159CE51907A9F001
:101DE0000E3D1C4529F50E945A1ABDCC0B35FDE568
:101DF0001F07D9F00C351D45D9F48091AD0182FB48
:101E0000882780F991E0892711C00E94B11E3FEF19
:101E100084E39CE0315080409040E1F700C0000036
:101E20000E945219A0CC81E001C080E00E942E1BCC
:101E3000F701828100811181882349F0C8010E9445
:101E4000481BD82E682FC8010E94EA1B04C0C80195
:101E50000E94BE1BD82EB8018D2D0E941E178C012A
:101E6000982EF701D280A580A2949FE0A9228091AC
:101E70007F02877099F0DD2089F0812F807F803488
:101E800021F080E2800F883048F082E00E94441CFC
:101E900080917F028770CC24C3948111C12CB12E14
:101EA000B2948FE0B8228B2D90E08C30910508F031
:101EB0004FC2FC01E759FF4F0C94D22B812F807F3A
:101EC0001F70882311F01295107FDD20B9F01123C7
:101ED00009F424C280E2800F883010F0911006C00F
:101EE00080918202182B1093820205C0809181029A
:101EF000182B109381020E94CB1A10C2802F0E94CF
:101F0000FA28112309F424C2005E1095083010F05D
:101F1000911006C08091820218231093820205C09E
:101F2000809181021823109381020E94CB1A10C263
:101F3000812F807F1F70803211F01295107F9920C1
:101F400021F0F1E09F1611F130C0DD20B1F0AA20A0
:101F500081F001E0A0120DC08091AD0182FDF8C1B9
:101F600080918302182B181709F4F2C11093830291
:101F7000EFC180918302812B10C0AA2021F021E0C3
:101F8000A21609F4E5C10E94C51A27C0DD2041F060
:101F900035E03A1508F4DCC1812F0E94F028D8C141
:101FA00084E08A1508F4D4C118C0DD2049F0AA20C5
:101FB00099F3F701858180FFB1C18F708583ECCFE4
:101FC000AA2059F0093309F0BAC1FFEF17EE23E058
:101FD000F15010402040E1F7B6C1812F0E94E52862
:101FE000B7C1812F86958695837019F0813059F09D
:101FF000AFC1DD2019F0C801937002C080E090E00D
:102000000E942822ADC1DD2019F0C801937002C0E2
:1020100080E090E00E941222A3C1802FDD2019F001
:102020000E940C1602C00E9453150E94291598C1E7
:10203000812F837009F069C0D1108EC1902F9295C5
:1020400096959770990F990F802F8F70882E912CED
:10205000A12CB12C092E04C0880C991CAA1CBB1CF5
:102060000A94D2F704FF12C04FE050E060E070E045
:1020700004C0440F551F661F771F9A95D2F7DB01E6
:10208000CA0180959095A095B09503C080E090E03E
:10209000DC0116951695412F4370423019F1C8F4B2
:1020A000009184021091850220918602309187026E
:1020B000413059F088299929AA29BB29BC01CD01B1
:1020C00060237123822393230AC0802A912AA22AA3
:1020D000B32ABC01CD01682979298A299B290E944C
:1020E000821C3AC188299929AA29BB290091840216
:1020F000109185022091860230918702BC01CD01AA
:102100006027712782279327EACFDD2019F0812FDE
:10211000817001C08695882309F41EC1902F929585
:1021200096959770990F990F802F8F70882E912C0C
:10213000A12CB12C092E04C0880C991CAA1CBB1C14
:102140000A94D2F704FF12C04FE050E060E070E064
:1021500004C0440F551F661F771F9A95D2F7DB0105
:10216000CA0180959095A095B09503C080E090E05D
:10217000DC0116951695412F43704230D9F068F571
:1021800000911C0310911D0320911E0330911F0329
:10219000413059F088299929AA29BB29BC01CD01D0
:1021A00060237123822393231EC0802A912AA22AAE
:1021B000B32A13C088299929AA29BB2900911C0395
:1021C00010911D0320911E0330911F03BC01CD010E
:1021D000602771278227932706C0BC01CD0168299B
:1021E00079298A299B290E94151CB6C01F70DD2001
:1021F00039F0812F0E94611C802F0E94F028ACC012
:10220000802F0E94E528812F0E941F1CA5C0802FCF
:1022100092EF991609F440C0991538F0E0EF9E1638
:1022200061F0F1EF9F1699F174C023EF9216D9F186
:1022300034EF931609F44EC06CC0DD2019F184E030
:102240008A1508F485C01F7181E090E0A0E0B0E03D
:10225000AC01BD0104C0440F551F661F771F1A95BE
:10226000D2F780911C0390911D03A0911E03B091A1
:102270001F038A019B01082719272A273B27C90129
:10228000B80125C025E02A1508F462C0DCCFDD20A6
:1022900029F0812F8F7130C0DD20D9F3812F8F710C
:1022A0000E941F1C55C0DD2079F01F7181E090E075
:1022B000A0E0B0E0BC01CD0104C0660F771F881F0D
:1022C000991F1A95D2F703C060E070E0CB010E941D
:1022D000151C3EC0DD2099F01F71812F0E94611CEA
:1022E0008091AD0182FD07C038E0139FC001112429
:1022F000836080937F02812F0E94611C29C081E04E
:102300000E94441C81E08A1518F582E00E94441C5A
:102310001FC0DD2039F0AA2009F4BBCF802F0E9416
:10232000332916C0AA2009F4B9CF893341F49FEFAD
:10233000E7EEF3E09150E040F040E1F704C08FE3B6
:102340009CE90197F1F700C00000802F0E94FA2855
:1023500088EF8B0D843020F40E943E220E94AD183D
:10236000CC2009F45BC080917F0280FD57C0F7014B
:1023700012828595859585950E94611CC7010E94F2
:10238000670A80917F0285958595859529960FB678
:10239000F894DEBF0FBECDBFDF91CF911F910F919B
:1023A000FF90EF90DF90CF90BF90AF909F908F9075
:1023B0007F906F905F904F903F900C941F1C8160B6
:1023C0008093DD01813019F489E08093DD018091F3
:1023D000DD013DCA2091DD01822F86958695869587
:1023E000482F50E04530510554F48F5F982F990FD6
:1023F000990F990F822F8770892B8093DD0180912F
:10240000DD01816022CA97709093DD0114CA013109
:10241000FFE51F0709F042CA82E0A1C929960FB65D
:10242000F894DEBF0FBECDBFDF91CF911F910F910A
:10243000FF90EF90DF90CF90BF90AF909F908F90E4
:102440007F906F905F904F903F9008959091AC0176
:1024500092FF0DC0282F2871283019F4877F8460DF
:1024600006C0282F2471243011F48B7F886093FFDD
:102470000DC0282F2871283119F4877E846106C089
:10248000282F2471243111F48B7E88612091AD01B5
:1024900020FF0DC0382F3871383019F4877F8160E4
:1024A00006C0382F3171313011F48E7F886021FFE2
:1024B0000DC0282F2871283119F4877E816106C04C
:1024C000282F2171213111F48E7E886194FD877E41
:1024D00008950F931F93CF93DF93CDB7DEB7A197E6
:1024E0000FB6F894DEBF0FBECDBF8091E00180FF34
:1024F0000AC004EE12E09E012F5F3F4FAE014E5D19
:102500005F4FB9010BC0EFE8F2E011821082128236
:10251000339682E0E03BF807C1F7EBCFF8018491F6
:1025200090E0DC01AA0FBB1F8A0F9B1FDC01A157A3
:10253000BD4F8D919D91AC91FB0181939193A1939E
:10254000BF010F5F1F4FE417F50741F7559A8BB195
:102550008F7D9BB190626FB7F8942417350799F07F
:10256000F90171919F01E8E09BB9000000C077FF7D
:102570008BB9770F000000C000C000C08BB900C04D
:10258000EA9591F7EACF6FBF8FE594E00197F1F7F5
:1025900000C00000A1960FB6F894DEBF0FBECDBFFD
:1025A000DF91CF911F910F9108959091E00190FFDD
:1025B0000CC0EFE8F2E0818360834283339692E0BF
:1025C000E03BF907C1F70C94691208958091E0018E
:1025D000282F269530E02115310519F4817082608D
:1025E00005C02B32310524F0817084658093E001B1
:1025F0008091E301893C18F088EC8093E301089511
:10260000CF92DF92EF92FF926B017C010E94E61263
:10261000B701A60188E090E0FF90EF90DF90CF90A7
:102620000C94FB2A8091E401882319F08150809357
:10263000E4016091E0017091E1018091E2019091EB
:10264000E3010C9400138091E401833018F48F5F50
:102650008093E4016091E0017091E1018091E201D9
:102660009091E3010C940013E0EEF1E083E08083AD
:1026700011828FEF828388EC838314826081718161
:10268000828193810C940013AF92BF92CF92DF921C
:10269000EF92FF920F931F93CF93DF93E82EF62EC6
:1026A000E901493C08F048ECE42FF0E0F11006C0E5
:1026B000E152FE4FE4914E2F2E2F71C00F2D10E0EE
:1026C000E152FE4F4491F42FC42ED12C26E0E29E1D
:1026D000C00111242FEF30E0B9010E94AA2B5BEA60
:1026E0005603C001579F900D11248E0D911D8E0D24
:1026F000911D582F550F580FD901A01BB10BAC9D40
:10270000C001AD9D900DBC9D900D1124E92FF59E4B
:10271000D0011124AB2FBB277901EA1AFB0AEC9CEC
:10272000D001ED9CB00DFC9CB00D11245901A51AEF
:10273000B108A09E7001A19EF00CB09EF00C112477
:10274000EF2CFF242E193F092C9D80012D9D100D8B
:102750003C9D100D1124212F6230710591F048F439
:1027600061157105E1F061307105B9F4242F4B2F2B
:1027700016C06430710569F040F06630710579F07B
:102780000CC0242F492FE12F0AC0492FEF2F2B2FE8
:1027900006C0292FE42F412F02C0292FEB2F498398
:1027A0002883EA83DF91CF911F910F91FF90EF90E3
:1027B000DF90CF90BF90AF9008955F926F927F921D
:1027C0008F929F92AF92BF92CF92DF92EF92FF9241
:1027D0000F931F93CF93DF9300D01F92CDB7DEB737
:1027E000182F762E042F622E9091E00190FF6DC07D
:1027F000E92FE695AE2FB0E0A15CBE4F8C9180939F
:10280000DE019E7F923061F49E012F5F3F4F812F4A
:102810000E9444134B8169818A810E94D51243C072
:10282000823019F40091E3013EC0863019F4109112
:10283000E10139C08930D9F38931A9F5E9518E2FE9
:102840008170582EE695F0E0E152FD4FA590B490CE
:102850008FE8C82E82E0D82EE12CF12CBB249BE01F
:10286000892E912CAE9CC001AF9C900DBE9C900D0A
:102870001124B4010E94AA2B812F511002C0860F8F
:1028800001C0861B9601402F672D0E9444138FEFD5
:10289000E81AF80A83E0C80ED11C8BE0E816F104B0
:1028A00009F70E9469121093E1017092E20100930E
:1028B000E301662051F06091E0017091E1018091A7
:1028C000E2019091E3010E9400130F900F900F908E
:1028D000DF91CF911F910F91FF90EF90DF90CF90FC
:1028E000BF90AF909F908F907F906F905F90089572
:1028F000E0EEF1E0438128E0421B08F440E021E0F3
:10290000628181810C94DD13E0EEF1E0438128E0E7
:10291000420F08F44FEF21E0628181810C94DD13B6
:10292000E0EEF1E0628128E0621B08F460E021E063
:10293000438181810C94DD13E0EEF1E0628128E0B7
:10294000620F08F46FEF21E0438181810C94DD1365
:10295000E0EEF1E0818121E04381628188500C94B6
:10296000DD13E0EEF1E0818121E043816281885F47
:102970000C94DD139091E00190FF3DC091708111A6
:1029800002C0926006C08B3210F0946502C0880FBE
:10299000982B9093E001662351F06091E0017091D3
:1029A000E1018091E2019091E3010E9400136091A6
:1029B000E001669570E04BE050E08EE091E00E940F
:1029C000EE2B892B19F01092DF0109C081E0809372
:1029D000DF010E94B7199093BD018093BC0181E093
:1029E0008093BF0120E04091E3016091E20180917A
:1029F000E1010C94DD1308958091E00186958150EA
:102A000009F48AE261E00C94BA148091E0018695A1
:102A10008F5F8B3208F081E061E00C94BA14CF93A1
:102A2000DF9300D01F92CDB7DEB79091E00190FF09
:102A30000AC09E012F5F3F4F0E9444134B81698162
:102A40008A810E94D5120F900F900F90DF91CF9145
:102A500008950E94B7192091CD01211104C0209141
:102A6000CE01222321F09093CA018093C9012091C5
:102A7000CF01211104C02091D001222321F0909395
:102A8000C7018093C601E091B901F091BA01309776
:102A900049F082E08093CB010480F581E02D8BEC3E
:102AA00091E009940895803F39F49091CE0197FF09
:102AB00035C01092CE0159C0813F29F49091CE01CA
:102AC0001916BCF32BC09091CD01823F29F497FFDA
:102AD00025C01092CD0149C0833F19F41916CCF3DB
:102AE0001DC09091CF01893F29F41916BCF41092B2
:102AF000CF013BC08A3F19F497FF10C0F8CF8B3F3E
:102B000039F49091D00197FF09C01092D0012DC0E7
:102B10008C3F21F49091D0011916BCF39CE0980FE2
:102B2000953080F421E030E0A90102C0440F551F28
:102B30009A95E2F7CA0180959091CC018923809300
:102B4000CC0113C08D3F21F4809114028E7F0BC005
:102B50008E3F21F4809114028D7F05C08F3F29F4B0
:102B6000809114028B7F809314028091CD0181119A
:102B700006C08091CE01811102C01092C8018091DF
:102B8000CF01811106C08091D001811102C0109245
:102B9000C50108958091140280FD16C081FD16C004
:102BA00082FD18C08091C501882391F0883290F48D
:102BB00028E0829FC001112468E270E00E94BE2BD1
:102BC000862F672B29F007C082E0089584E00895DE
:102BD00081E0089588E008958091140280FD14C07A
:102BE00081FD14C082FD16C08091C801882381F048
:102BF000843180F422E3829FC001112464E170E0FB
:102C00000E94BE2B862F08958CE0089589E10895D7
:102C100085E0089582E30895803F21F40E94EC1539
:102C2000819504C0813F29F40E94EC158093CE0168
:102C30000895823F21F40E94EC15819504C0833FE2
:102C400029F40E94EC158093CD010895893F19F471
:102C50000E94CA1505C08A3F31F40E94CA158195A9
:102C60008093CF0108958B3F21F40E94CA1581956E
:102C700004C08C3F29F40E94CA158093D0010895A6
:102C80009CE0980F953078F421E030E0A90102C073
:102C9000440F551F9A95E2F7CA019091CC01892BF8
:102CA0008093CC0108958D3F21F4809114028160BE
:102CB0000BC08E3F21F480911402826005C08F3FCB
:102CC00029F4809114028460809314020895F8948A
:102CD000E82FE295EF70F0E031A1282F2F7081E00E
:102CE00090E001C0880F2A95EAF7982F90959323DA
:102CF00091A392A1892B82A3789408958F929F9299
:102D0000AF92BF92CF92DF92EF92FF920F931F93F9
:102D1000CF93DF93CDE1D1E00EEA11E087E2C82E38
:102D200081E0D82E5801912CEE24E394F12CBE01C1
:102D30008881F894E82FE295EF70F0E021A18F7080
:102D4000A70102C0440F551F8A95E2F7CA01922FCE
:102D5000982B91A392A18095892382A3789400C097
:102D6000E7E2F1E020E030E0812C4191842F829570
:102D70008F7090E0DC0190968C9190E04F7002C0D3
:102D8000959587954A95E2F780FD07C08E2D022E16
:102D900001C0880F0A94EAF701C080E0882A2F5FFB
:102DA0003F4F2830310509F72196FB0180810E94B1
:102DB0006716F0EAFA95F1F7D5018C91881619F0AB
:102DC0008C9281E001C080E0982ABFEFAB1ABB0A69
:102DD000CC16DD0609F0ABCF992049F081E0809355
:102DE000F3010E94B7199093F2018093F101809151
:102DF000F3018823A9F08091F1019091F2010E94E2
:102E00009C19069768F0E5EEF1E088EB91E0D801B7
:102E10002D918D0121938A179B07C9F71092F30119
:102E2000892DDF91CF911F910F91FF90EF90DF904F
:102E3000CF90BF90AF909F908F900895CF93DF93E6
:102E40000E942723EC018238910559F1A0F48133C7
:102E5000910509F473C040F48932910509F467C003
:102E60008A9709F472C084C08533910509F458C06B
:102E7000C997B9F07DC0833E910571F138F4803E69
:102E80009105B1F0823E910511F172C0863E910527
:102E9000B9F1873E9105C9F1843E910509F068C0FA
:102EA00024C08091AC0180FD5DC081FD5BC060C02D
:102EB0008091AC0180FD50C08091AD0180FF49C17F
:102EC0008091AC0184FD43C1C3EED0E042C180914A
:102ED000AC0182FF3EC1F4CF8091AC0182FD3FC0C6
:102EE0008091AD0180FD3EC0EBCF8091AD0181FFAF
:102EF00030C18091AC0184FD2AC1C7EED0E029C168
:102F00008091AC0183FF25C1F4CF8091AC0183FD9A
:102F10002CC08091AD0181FFECCFC4EED0E019C18F
:102F20008091AC0185FF15C1C9E2D0E012C180914A
:102F3000AC0185FF0EC1C5E3D0E00BC18091AC01AF
:102F400086FF07C1CAE2D0E004C18091AC0186FFD0
:102F500000C1C1E3D0E0FDC0C9E3D0E0FAC0C2EED9
:102F6000D0E0F7C0C0EED0E0F4C0C6EED0E0F1C0D3
:102F7000C11581E5D80708F066C0C11520E5D20764
:102F8000E0F0CE0174E0969587957A95E1F783702D
:102F90009C2F937021E030E002C0220F331F9A95DE
:102FA000E2F73C68382BCF70C695C69540E2C49FC7
:102FB000E0011124C22BD32BCCC0C83ED10560F553
:102FC000C03ED10508F0C5C0C83AD105B0F4C53A35
:102FD000D10540F0C55AD0E0C758DE4FC881D0E0D7
:102FE000D064B7C0C130D10509F4B3C008F4AFC094
:102FF000C430D10508F4ABC0ACC0CF3BD10508F05C
:10300000A6C0C85AD0E0CC0FDD1FC458DE4F0990CF
:10301000D881C02DD4649DC0C11540E2D40758F4B6
:10302000C11581E0D80708F094C0C03FD10508F46D
:103030008EC0D0658EC0C11520E4D20708F487C0C9
:10304000DF70D06A86C0C11545E5D40708F042C0DC
:10305000C11584E5D80728F0DC2FCC27C46FD06ACF
:1030600078C0C11523E5D207B0F0CE01837099274F
:1030700021E030E002C0220F331F8A95E2F78C2F47
:103080008695869540E2849FC0011124E901C82BF2
:10309000D92BDA685EC0C11542E5D40728F4DC2FCD
:1030A000CC27C16FD06A55C0CE018370992721E02B
:1030B00030E002C0220F331F8A95E2F78C2F8695ED
:1030C000869540E2849FC0011124E901C82BD92BC9
:1030D000DC683FC0C11589E5D807B8F4C11528E5FB
:1030E000D20728F0DC2FCC27C06FD06A32C0C115C0
:1030F00046E5D40760F58C2F0E9426128F71C82FE9
:10310000D0E0DC2FCC27D06224C0C1158AE5D807D7
:1031100080F48C2F8F700E94261294E0D695C7956C
:103120009A95E1F7CF70D0E0DC2FCC27D069C82B7F
:1031300010C0CE0190568115904248F48D2F8F71AA
:103140000E942612DD27D0628F71D82B02C0C0E00A
:10315000D0E0CE01DF91CF91089581FF02C02E9A79
:1031600008952E9808958091EF02089580E00895C3
:10317000CF93DF9300D01F92CDB7DEB790911203AB
:10318000943011F589837B836A839093E9008FEFF4
:103190009091E800815095FD06C095ED9A95F1F764
:1031A00000008111F5CF8091E80085FF0DC040E05F
:1031B00050E063E070E0CE0101960E94B928809152
:1031C000E8008E778093E8000F900F900F90DF91CA
:1031D000CF910895BC0184E00C94B818BC0183E041
:1031E0000C94B81824E02093E9002FEF3091E80008
:1031F000215035FD06C035ED3A95F1F7000021115B
:10320000F5CF2091E80025FF0BC040E050E066E0DC
:1032100070E00E94B9288091E8008E778093E800E2
:103220000895CF93DF9320911C01222339F0209140
:10323000AC0127FF03C060E224E002C068E021E0A7
:103240002093E9002FEF3091E800215035FD06C0B2
:1032500035ED3A95F1F700002111F5CF2091E80006
:1032600025FF1DC0EC0180911C01811105C040E0CB
:1032700050E068E070E003C070E040E050E0CE0154
:103280000E94B9288091E8008E778093E80080E260
:10329000FE01A0EFB2E001900D928A95E1F7DF9177
:1032A000CF91089581E08093E00080E28093D80080
:1032B0001092C9008FE19EE40197F1F700C0000071
:1032C00087E090EBDC018093200390932103A0938F
:1032D0002203B09323039CE088E10FB6F894A895ED
:1032E000809360000FBE90936000FFCF78941F9290
:1032F0000F920FB60F9211248F939F93AF93BF93AA
:103300008091880290918902A0918A02B0918B02EB
:103310000196A11DB11D8093880290938902A0930C
:103320008A02B0938B02BF91AF919F918F910F90C2
:103330000FBE0F901F9018959C014FB7F894809185
:10334000880290918902A0918A02B0918B024FBFAE
:10335000821B930B08952FB7F894609188027091A7
:10336000890280918A0290918B022FBF08952FB716
:10337000F8948091880290918902A0918A02B0917C
:103380008B022FBF08951F920F920FB60F92112438
:103390008F939F93AF93BF938091BB01811113C013
:1033A0008091880290918902A0918A02B0918B024B
:1033B0004196A11DB11D8093880290938902A0932C
:1033C0008A02B0938B02BF91AF919F918F910F9022
:1033D0000FBE0F901F90189520911C012223C9F059
:1033E0002091AC0127FF15C0262F269526952695FE
:1033F0002E31C8F4FC01E20FF11D677081E090E00E
:1034000001C0880F6A95EAF78095928189238283AB
:103410000895FC0106962281621301C01282319642
:10342000E817F907C1F7089520911C012223C1F084
:103430002091AC0127FF14C0262F269526952695AE
:103440002E3130F5FC01E20FF11D677081E090E054
:1034500001C0880F6A95EAF79281892B82830895CB
:10346000FC0132962FEF30E04191641789F02F3F35
:1034700019F4411101C0232F3F5F3630A9F72F3FC8
:1034800039F0FC01E20FF11D27FDFA9562830895E2
:103490000895CF9384E090E00E94D52AC82F82E25D
:1034A00090E00E94D52A2C2F30E0A901582BCA01A8
:1034B000CF9108956AEE7EEF80E090E00E94072BA6
:1034C00060E082E090E00E94E92A60E083E090E022
:1034D0000E94E92A109284021092850210928602BC
:1034E0001092870260E084E090E00E94E92A60E0A8
:1034F00082E290E00E94E92A60E085E090E00E948C
:10350000E92A60E086E090E00E94E92A6FEF87E018
:1035100090E00E94E92A40E050E0BA0188E090E0A3
:103520000E94FB2A60E08DE090E00E94E92A40E0E2
:1035300050E0BA0188E190E00E94FB2A60E087E158
:1035400090E00E94E92A40E050E0BA018CE190E06E
:103550000E94FB2A60E070E080E290E00E94072B6E
:1035600040E050E0BA0188E190E00E94FB2A40E090
:1035700050E0BA018FE090E00E94FB2A40E050E06A
:10358000BA0183E190E00C94FB2A809183028111BF
:103590001092830208959091820280918102892B7A
:1035A00020918002982F922B9093F40180918302B6
:1035B0008823D9F0892B8093F40180911C01882302
:1035C00031F08091AC0187FF02C08EE101C086E03E
:1035D000E6EFF1E090E0815028F021912223D9F329
:1035E0009F5FF9CF91110E94C51AE091B901F09146
:1035F000BA013097A9F080911C01882359F080917D
:10360000AC0187FF07C08091F4018093F50185E04C
:103610008093F4010280F381E02D84EF91E009941E
:10362000089580E090E00E94282280E090E00E94CF
:10363000122210928102109280020E94CB1AEBECAF
:10364000F1E086E0DF011D928A95E9F71092C8014A
:103650001092C501109214020C942915CF93C091B9
:10366000AD01C2FB992790F9981781F080FBC2F950
:10367000C093AD016091AC0184E090E00E94E92A22
:103680006C2F82E290E0CF910C94E92ACF910895BB
:10369000BF92CF92DF92EF92FF920F931F93CF933F
:1036A000DF938C01C0901C03D0901D03E0901E039B
:1036B000F0901F038091840290918502A091860270
:1036C000B0918702C82AD92AEA2AFB2ACFE1D0E0A2
:1036D000D701C6010C2E04C0B695A795979587957E
:1036E0000A94D2F780FD04C0219790F7B12C07C04F
:1036F000BC2EB8018C2F0E941E170197A9F38B2DA9
:10370000DF91CF911F910F91FF90EF90DF90CF90BD
:10371000BF900895CF93DF93EC010E94481BBE0138
:103720000E941E17DF91CF9108950E948A1B292FB6
:103730002F70E92FE295EF704E2F50E0FA0132978B
:10374000EE30F105B8F4EB58FF4F0C94D22B803FCC
:1037500099F018F4883E70F40FC0843F59F40CC0FF
:10376000883E50F0813F31F407C0822F86958695C0
:103770008695089580E0089581E0089528E0929F5D
:10378000800D1124682F669566956695982F977021
:1037900085E0689FB001112440E050E080E0FB012B
:1037A000E40FF51FE35BFD4F208130E0092E02C0DE
:1037B000369527950A94E2F721703327042E01C02D
:1037C000220F0A94EAF7822B4F5F5F4F4530510575
:1037D00031F7089528E0929F800D1124E82FE69597
:1037E000E695E695877051E001C0550F8A95EAF796
:1037F00085E0E89FF0011124E35BFD4F20E030E01D
:1038000070E04081CB01022E02C0969587950A9404
:10381000E2F78170819584278523842781932F5F28
:103820003F4F2530310569F7089560931C0370936D
:103830001D0380931E0390931F030C94111B0F9381
:103840001F9341E050E060E070E004C0440F551F5A
:10385000661F771F8A95D2F74095509560957095B1
:1038600080911C0390911D03A0911E03B0911F0332
:103870008A019B01082319232A233B23C901B8018C
:103880001F910F910C94151C20917F02809582232B
:1038900080937F02982F977041F430E0482F082ED4
:1038A000000C550B2417350721F49091AD0192FFC0
:1038B00007C08595859585950E941F1C10927F02F3
:1038C00008950F931F9341E050E060E070E004C062
:1038D000440F551F661F771F8A95D2F780911C03EE
:1038E00090911D03A0911E03B0911F038A019B01BB
:1038F000082B192B2A2B3B2BC901B8011F910F91C3
:103900000C94151C60938402709385028093860248
:10391000909387020C94111B80914C0290911B0292
:10392000891719F08F5F8770FBCF08950F931F934E
:10393000CF93DF9380911A0282958F7009F05DC05A
:1039400080911702882309F458C080914C0210918D
:103950001B026091150270911602C0911802D0915D
:10396000190291E06F3F09F090E0292F06E08117DE
:1039700009F443C0209721F07F3F21F030E003C0DD
:1039800031E001C0322F90E030FD34C0089FF001DB
:10399000099FF00D1124DF01A45EBD4F11963C91EB
:1039A0001197371327C03C91361324C012963C91CF
:1039B000129731111FC013964D915C9114974C1BB7
:1039C0005D0B483C5105B0F480911A028F70806104
:1039D00080931A02EF5DFD4F80818F70806180833C
:1039E00085E192E00E94670ADF91CF911F910F91CC
:1039F0000C948C1C01968770BACFDF91CF911F91E8
:103A00000F9108959F92AF92BF92CF92DF92EF9263
:103A1000FF920F931F93CF93DF93CDB7DEB76197DC
:103A20000FB6F894DEBF0FBECDBF8C0185E0F80164
:103A3000DE011D9601900D928A95E1F7F8019081C3
:103A40008181E28030911502609116024091180246
:103A5000509119024115510531F06F3F31F421E0C9
:103A60003F3F19F403C021E001C020E0F22FF170C4
:103A70009F2E20FD23C1F801C380D48025E1A22E12
:103A800022E0B22EF0901702F601E41BF50BFF20A6
:103A900009F4CEC020911A02E83CF10508F099C063
:103AA000422F407F09F051C0681311C039130FC075
:103AB000FE2CE1100CC02F70206120931A02C5016A
:103AC0000E94670A80911A02F801858337C1CD28C8
:103AD00031F08F3F31F421E09F3F19F403C021E022
:103AE00001C020E020FD03C021E02E2502C020E01F
:103AF00030E0F22FF170FF2E20FF1DC020914C020C
:103B000040911B0256E0241709F4F6C030E0529FA2
:103B1000F001539FF00D1124E45EFD4F6181861387
:103B200006C06081961303C06281E61204C02F5F55
:103B30003F4F2770E8CFFE2CEE2009F4FFC08091A4
:103B40001A02816080931A0250C0681307C03913AB
:103B500005C0E11003C0F80125838DC09D878E87C5
:103B60008D859E850E94951B882369F1EE2059F171
:103B700020911A02822F82958F7090E0029774F044
:103B8000809115029091160298878F831986DB86A3
:103B9000CA862C87CE0107960E94670A86E0F80144
:103BA000A5E1B2E001900D928A95E1F70E94961C82
:103BB0000DC06817E1F09D878E878D859E850E94D8
:103BC000951B81111EC0C8010E94670AFF24F3944F
:103BD000B5C0422F407F69F785E192E00E94670AF5
:103BE00086E0F50111928A95E9F7F12CA7C0391307
:103BF000E2CFE110E0CFF8012583C8010E94670AF7
:103C000057C0EE2001F320911A02822F82958F7007
:103C100090E002971CF280911502909116029A830F
:103C200089831B82DD82CC822E83CE010196B4CFA4
:103C3000E83CF105E8F5FE2CEE2029F2681327C0D8
:103C4000391325C020911A0220FD18C0822F8295B9
:103C50008F70482F50E04115510581F0F801258300
:103C60004F30510541F08F5F982F9295907F822FB2
:103C70008F70892B8583C8010E94670A86E0F8014E
:103C8000A5E1B2E001900D928A95E1F757C09D87BA
:103C90008E878D859E850E94951B81117FCF809197
:103CA0001A02816080931A02C8010E94670A46C006
:103CB00086E0F50111928A95E9F740C0EE2009F4FB
:103CC00082CF9D878E878D859E850E94951BF82EBD
:103CD000882309F478CF86E0F801A5E1B2E00190ED
:103CE0000D928A95E1F780911502909116020E943B
:103CF0008A1B0E94961C22C09D878E878D859E857B
:103D00000E948A1B292F22952F70223028F49F7041
:103D100039F0811105C00BC0243028F49F7049F49C
:103D2000805E883020F0C8010E94670A9F2CF92C21
:103D300005C0F8019581907F99F7F9CF8F2D619695
:103D40000FB6F894DEBF0FBECDBFDF91CF911F91AC
:103D50000F91FF90EF90DF90CF90BF90AF909F902A
:103D600008951092820280911C01882331F0809185
:103D7000AC0187FF02C08EE101C086E0E6EFF1E012
:103D8000DF011D928A95E9F70C94111B0895EF92BB
:103D9000FF920F931F93CF93DF938C01CFE8D2E074
:103DA000E12CF12CF8018481F5E0EF16F1041CF40C
:103DB000882339F002C0811104C09E014091E301C3
:103DC00002C09E0140E06091E2018091E1010E9409
:103DD00044138FEFE81AF80A23969BE0E916F104E2
:103DE00009F70E946912F801848190E001968170C0
:103DF00099278483DF91CF911F910F91FF90EF90CE
:103E000008958F929F92AF92BF92CF92DF92EF92DE
:103E1000FF920F931F93CF93DF93EC014C81042FFC
:103E200010E09801D8010E94712B9B01AC010E9407
:103E30003C2B6B017C01E0E2F0E0E01BF10BA5E51F
:103E4000B0E09B01AC010E943C2B4B015C019F0147
:103E5000DF010E94DF2B9B01AC010E94472B9B01DD
:103E6000AC012C0D3D1D4E1D5F1DC501B4010E940E
:103E70004F2B822FF22E99E2921728F093E0299F80
:103E8000900111240DC025E530E0281B3109C9013E
:103E9000880F991F280F391F37FF02C02F5F3F4F30
:103EA00035952795122F10959FE8C92E92E0D92EAF
:103EB00000E085E5E82EEF1801FD02C08E2D01C05F
:103EC0008F2D9601412F6091E2010E9444130F5FF4
:103ED00083E0C80ED11C0B3079F70E9469128C81E7
:103EE000811102C091E003C0803219F49FEF9093DA
:103EF0001B0190911B01890F8C83DF91CF911F9142
:103F00000F91FF90EF90DF90CF90BF90AF909F9078
:103F10008F9008950F931F93CF93DF93CFE8D2E054
:103F2000FE01118210821282339682E0E03BF80794
:103F3000C1F700E010E080918D02082E000C990B73
:103F40000817190794F080911A01082E000C990B9C
:103F50008017910754F09E014091E3016091E201C6
:103F60008091E1010E94441303C0198218821A82D1
:103F70000F5F1F4F23960B301105E9F60E9469125F
:103F80008091190190918D02980F90938D0220914C
:103F90001A01280F20931A01121614F49A301CF0FB
:103FA000819580931901DF91CF911F910F91089511
:103FB000BF92CF92DF92EF92FF920F931F93CF9316
:103FC000DF93FC01828180FF03C0DD24DA9402C00C
:103FD000DD24D3940FE812E0C0E0D0E02BE0B22E55
:103FE000F80111821082128294E0E92EF12CC12C8A
:103FF00080918C028C0D8C302CF06B2D0E949C2BB0
:10400000892F02C087FD855F082E000C990BC81709
:10401000D90791F48091E3018E9DA0018F9D500DF1
:104020001124559547955595479598016091E20162
:104030008091E1010E944413CD0CF1E0EF1AF108E8
:10404000B9F621960D5F1F4FCB30D10549F60E947E
:10405000691280918C0291E0D91206C0811102C0D0
:104060008AE007C0815005C090E00196BE010E9421
:10407000BE2B80938C02DF91CF911F910F91FF9007
:10408000EF90DF90CF90BF900895EF92FF921F9333
:10409000CF93DF93EC018FE8E82E82E0F82E10E05A
:1040A0008C8197014091E3016091E201810F0E94B0
:1040B0004413195E83E0E80EF11C1D3F89F70E944E
:1040C00069129A818C8190FF02C08F5F01C081507C
:1040D0008C83DF91CF911F91FF90EF9008959F9275
:1040E000AF92BF92CF92DF92EF92FF920F931F9306
:1040F000CF93DF93FC01A280948081E08483EFEE74
:10410000F2E0B490EEE6F3E0E491C0EBD2E0FFE839
:10411000EF2EF2E0FF2ECC24CA94D12CEB190E2FF7
:1041200010E022E02A1530F08091E101888380912F
:10413000E2018983911003C01B821A8255C08B81D2
:104140008823F9F081508B832FEF829FC0011124C7
:104150006C8170E00E94AA2BFB01FF27E151FD4F0B
:104160008491E82FEB192FEFE29FC0011124B801D1
:104170000E94AA2B8091E301689FB00111247A83E9
:1041800033C00E94C52A2091E3012695215830E0D2
:10419000A901440F551F322F2227240F351F232F2B
:1041A00033278217930704F582E08A1588F40E946A
:1041B000C52AB6010E94BE2B88830E94C52A209181
:1041C000E2012695622F70E00E94BE2B280F298302
:1041D0001A828091E301843120F0893C18F088EC48
:1041E00001C084E18C838B8397014A816981888136
:1041F0000E944413259623E0E20EF11C82E0C73EA4
:10420000D80709F08ECFDF91CF911F910F91FF90CA
:10421000EF90DF90CF90BF90AF909F900C94691279
:104220000F931F93CF93DF9300D01F92CDB7DEB7CC
:104230008C0180918E0281110AC09E012F5F3F4F39
:1042400048EC6FEF0E9444138A8180938E02F8013C
:104250008481813051F028F0823061F440918E02E7
:104260000AC080918E0240E007C060918E0240E05B
:1042700080E003C040E080E060E00E94D512F801D9
:10428000848190E0019663E070E00E94BE2B8483FD
:104290000F900F900F90DF91CF911F910F91089584
:1042A000CF93DF93EC01E0EEF1E0438162818C81FA
:1042B0000E940F158C818F5F8C83DF91CF910895C1
:1042C000CF93DF93EC01EC81F0E0E151FD4F44919D
:1042D000E0EEF1E0628181810E940F158C818F5F99
:1042E0008C83DF91CF9108951F93CF93DF93CDB748
:1042F000DEB767970FB6F894DEBF0FBECDBF342F81
:104300004B8B252F5C8B6D8B7E8B8F8B4E895F89C2
:1043100061111092810286E0FE013D96DF01982F27
:104320001D929A95E9F73D872E876F87598B488BA9
:10433000DE01179601900D928A95E1F7CE0107965E
:104340000E94021D81113EC086E0FE013796DE010B
:10435000119601900D928A95E1F7FF81E8856A85B3
:104360007B856115710531F0EF3F31F481E0FF3F4E
:1043700019F403C081E001C080E080FD23C02091DA
:104380001B0230E0C90101968770992740914C02C9
:1043900050E08417950779F1F983EA837D836C8374
:1043A00096E0929FD001939FB00D1124A45EBD4F63
:1043B000FE01319601900D929A95E1F780931B02D0
:1043C0000E948C1C16E080914C0290911B02891770
:1043D000F9F0189FC0011124845E9D4F0E94021DB8
:1043E0008823B1F080914C0290E001968770992764
:1043F00080934C02E8CF0E94B11E10921B021092D3
:104400004C02E5E1F2E086E0DF011D928A95E9F7D2
:1044100067960FB6F894DEBF0FBECDBFDF91CF9188
:104420001F9108952091EB023091EC022817390773
:1044300071F09093EC028093EB02E091B901F0915E
:10444000BA01309721F00084F185E02D0994089598
:104450002091E9023091EA022817390771F0909310
:10446000EA028093E902E091B901F091BA01309734
:1044700021F00680F781E02D09940895E091B901BB
:10448000F091BA01309721F00190F081E02D09946C
:1044900080E008950F931F93CF93DF93C42FD22F03
:1044A000FC0182818823C9F04093EF010E94B71973
:1044B0009093E8028093E70280E28C0F883008F046
:1044C00057C0C77081E001C0880FCA95EAF7DF9135
:1044D000CF911F910F910C94F0288091EF01481318
:1044E00030C08091E7029091E8020E949C19883CBC
:1044F000910538F510E21D0FCD17B9F080E28C0F51
:10450000883040F4C77081E001C0880FCA95EAF78F
:104510000E94E528183028F581E09D2F977001C092
:10452000880F9A95EAF70E94F028802F0E94AB2905
:104530001830F0F4D77081E001C0880FDA95EAF7FF
:104540000AC080E28C0F883098F4C77081E001C007
:10455000880FCA95EAF7DF91CF911F910F910C94C4
:10456000E528802FDF91CF911F910F910C94AB29FB
:10457000DF91CF911F910F910895CF93DF93C7EAF9
:10458000D2E060E0CE010E94E92A2196C11584E0C4
:10459000D807B9F7DF91CF910895CF92DF92EF92CC
:1045A000FF920F931F93CF93DF93C0E0D0E08E0173
:1045B00000561F4F6E0180E1C80ED11CFE01E15173
:1045C000FC4FE590F4906F2DCE0187960E94E92A6A
:1045D0006E2DCE0188960E94E92A2296CC15DD0523
:1045E00069F70C171D0731F7E80100381240F9F69A
:1045F000DF91CF911F910F91FF90EF90DF90CF90BF
:1046000008950F931F93CF93DF93C42FD0E0CC0F67
:10461000DD1F20E1629FC00DD11D112430EA839F70
:10462000C00DD11D1124CE0187960E94D52A082FD6
:1046300010E0102F0027CE0188960E94D52A9801FD
:10464000282BC901DF91CF911F910F910895462F1B
:10465000843038F47A3028F4683018F4672F0C94DA
:10466000012380E090E00895CF92DF92EF92FF92D5
:10467000863048F4811108C0909180009F73909318
:1046800080002D9A06C085E090918000906C9093F8
:104690008000282F30E0AFEFBFEF0E94712B25E0A4
:1046A00030E040E050E00E944F2BB42FA32F922F18
:1046B0008827492F5A2F6B2F7727CA014C3724E1BF
:1046C000520728F469E070E00E94AA2B29C0DB01A0
:1046D000CA018A50974DAF4FBF4F6627782F892F59
:1046E0009A2F25EF38E241E050E00E944F2B6901FC
:1046F0007A01CA01B9010E94802B9B01AC01C7015C
:10470000B6010E94802BBB27A92F982F872F0097D7
:1047100021E0A207B10511F0BC0102C06FEF7FEFED
:104720007093890060938800FF90EF90DF90CF90A6
:104730000895682F86E090E00C94E92A863008F00E
:1047400085E09091DD019770282F220F220F220F14
:10475000922B9093DD01987F21E009F420E0909165
:10476000DD0120FB90F99093DD010C94342380E06F
:1047700090E00E94E32A8A3E9E4F51F00E945A1A0E
:104780008091DD01847089628093DD010E9499230C
:1047900086E090E00E94D52A8093DD01282F26959F
:1047A0002695269530E02630310524F08770886202
:1047B0008093DD018091DD0180FF04C086958695A0
:1047C000869501C080E00C9434239091E00190FF25
:1047D00004C09695981740F003C0811105C090E081
:1047E000961710F40C94051561E00C94BA14882304
:1047F00011F0FA0101C0FB0109940F931F938091FE
:104800001C0390911D03A0911E03B0911F038C0106
:104810009D010670112722273327BC01CD010630E8
:1048200011052105310511F4686001C0677F1F91F2
:104830000F910C94151C1F93CF93DF93CDB7DEB768
:10484000AA970FB6F894DEBF0FBECDBFE4E1F3E048
:104850008091F100819343E0EC31F407C9F7809136
:104860001503833009F462C030F4813071F0823076
:1048700009F49CC0B3C08A3009F488C08B3009F4B5
:104880006DC0893009F0AAC020C080911403813A1C
:1048900009F0A4C08091E800877F8093E8008091B0
:1048A000180390911903892B21F460E280EF92E0C4
:1048B00003C060E080E090E070E00E941B2A8091DD
:1048C000E8008B778093E80089C0809114038132DF
:1048D00009F084C08091180390911903009719F092
:1048E000029709F07BC08091E800877F8093E80001
:1048F0008091E80082FD05C0809112038111F8CFFC
:104900006DC02091F3008091F20090E0922B02970D
:1049100029F48091F1008B7F813021F48091F100A6
:104920008093EF028091E8008B7754C0809114034C
:10493000813A09F053C08091180390911903892B93
:1049400009F04CC08091E800877F8093E800809157
:10495000E80080FFFCCF80911C0137C080911403D8
:104960008132E1F58091180390911903892BB1F5FB
:104970008091E800877F8093E8000E94C72980919A
:10498000160380931C010E94B11E28C0809114035D
:10499000813221F58091E800877F8093E8000E94B2
:1049A000C729809117038093EE0218C080911403E9
:1049B000813AA1F48091E800877F8093E80080919C
:1049C000E80080FFFCCF8091EE028093F10080919F
:1049D000E8008E778093E8000E94C7298091E80064
:1049E00083FFDDC18091140390911503492F50E09E
:1049F0004A30510508F0D3C1FA01ED57FF4F0C942E
:104A0000D22B803821F0823809F0C9C108C08091CA
:104A1000100390911103992389F082600FC0809157
:104A200018038F70873008F0BAC18093E900809135
:104A3000EB0085FB882780F91092E9009091E8004F
:104A4000977F9093E8008093F1001092F10070C17D
:104A5000282F2D7F09F0A3C1882319F0823061F03F
:104A60009EC180911603813009F099C1933009F0FD
:104A700080E0809311032EC08091160381112AC01B
:104A8000809118038F702FEF280F263008F087C110
:104A90008093E9002091EB0020FF1CC0933021F4AB
:104AA0008091EB00806214C09091EB009061909334
:104AB000EB0021E030E0A90102C0440F551F8A95A8
:104AC000E2F74093EA001092EA008091EB008860E0
:104AD0008093EB001092E9008091E800877F80933B
:104AE000E8000E94C7295BC1811159C110911603CA
:104AF0001F778091E3008078812B8093E300809181
:104B0000E800877F8093E8000E94C7298091E80031
:104B100080FFFCCF8091E30080688093E300111157
:104B200002C082E001C083E08093120338C1805844
:104B3000823008F034C120911603309117032C3DC8
:104B400053E0350779F583E08A838AE289834FB79A
:104B5000F894DE01139620E03EE051E2E32FF0E00E
:104B600050935700E49120FF03C0E295EF703F5F40
:104B7000EF708E2F90E0EA3010F0C79601C0C0961B
:104B80008D939D932F5F243149F74FBF8091E800AB
:104B9000877F8093E8006AE270E0CE0101960E9470
:104BA0001B2AB4C08091180390911903432F5527F5
:104BB00043305105A9F068F44130510509F4FEC0B5
:104BC0004230510509F0EBC08BE590E0E7E8F7E0F3
:104BD0004BC04132510529F14232510589F1DFC004
:104BE000C901992781309105A1F058F0029709F089
:104BF000D6C0E4EFF7E0E4918E2F90E0E4EFF7E029
:104C000030C0E4E2F8E0E4918E2F90E0E4E2F8E0D6
:104C100028C0E2E0F8E0E4918E2F90E0E2E0F8E0D6
:104C200020C08330910508F0BAC0880F991FFC019D
:104C3000ED58FE4F0190F081E02D89E090E014C026
:104C40008330910508F0ABC0FC01EE0FFF1FE35964
:104C5000FE4F0190F081E02DDC01A659BE4F8C91F2
:104C600090E0009709F49BC02091E800277F2093F3
:104C7000E80020911A0330911B032817390708F424
:104C8000C90140E0009789F120911203222309F421
:104C90003DC02530D9F12091E80023FD37C0209197
:104CA000E80022FD2FC02091E80020FFEBCF4091CB
:104CB000F3002091F20030E0342B009759F02830B7
:104CC000310540F444914093F100319601972F5FF4
:104CD0003F4FF3CF41E02830310509F040E020910B
:104CE000E8002E772093E800CDCF4111CDCF0AC048
:104CF00080911203882351F0853041F08091E800C3
:104D000083FD04C08091E80082FFF2CF8091E8002B
:104D10008B778093E80043C0803809F040C08091D1
:104D2000E800877F8093E800809113038093F1006F
:104D30008091E8008E77D3CE811131C08091160327
:104D4000909117039927029754F58091E800877F87
:104D50008093E80010911603109313030E94C72953
:104D6000111106C08091E30087FD02C081E001C0FF
:104D700084E08093120342E061EC81E00E94E62926
:104D800042E261EC84E00E94E62942E261EC82E0CA
:104D90000E94E62942E260EC83E00E94E6298091CD
:104DA000E80083FF10C08091E800877F8093E800CF
:104DB0008091EB0080628093EB0005C082E190E07F
:104DC000E2EEF7E051CFAA960FB6F894DEBF0FBE21
:104DD000CDBFDF91CF911F9108951F920F920FB613
:104DE0000F9211242F933F934F935F936F937F9371
:104DF0008F939F93AF93BF93CF93DF93EF93FF93E3
:104E0000C091E900CF708091EC00D82FD17080FD67
:104E1000D0E81092E9008091F000877F8093F00045
:104E200078940E941B241092E9008091F000886021
:104E30008093F000CD2BCF70C093E900FF91EF91EC
:104E4000DF91CF91BF91AF919F918F917F916F91A2
:104E50005F914F913F912F910F900FBE0F901F9038
:104E60001895E8EDF0E080818E7F80831092E2005B
:104E70001092DA001092E100A0EEB0E08C91816017
:104E80008C9380818F77808319BCA7EDB0E08C91E3
:104E90008E7F8C9380818F7E80831092ED020895A7
:104EA000CF92DF92EF92FF920F931F93CF93DF93F6
:104EB000C8EDD0E088818F7E8883E7EDF0E08081C7
:104EC0008160808384E082BF81E08093ED028881ED
:104ED0008E7F888302EE10E0F80110821092DA00D3
:104EE00081EEC82ED12CF601108288818F778883BD
:104EF00088818068888388818F7D888319BC10921F
:104F0000120310921303109211031092100390EEEB
:104F1000E92EF12CF70180818B7F8083888181606D
:104F2000888342E060E080E00E94E629F60180810B
:104F30008E7F8083F801808181608083808188609A
:104F40008083F70180818E7F808388818061888360
:104F5000DF91CF911F910F91FF90EF90DF90CF9055
:104F600008951F920F920FB60F9211242F933F9323
:104F70004F935F936F937F938F939F93AF93BF9361
:104F8000EF93FF938091E10082FF09C08091E200DE
:104F900082FF05C08091E1008B7F8093E1008091CA
:104FA000DA0080FF2AC08091D80080FF26C080915F
:104FB000DA008E7F8093DA008091D90080FF18C0DC
:104FC00080E189BD82E189BD09B400FEFDCF81E0A9
:104FD000809312038091ED0281110FC00E9431274E
:104FE0000E9450278091E20084608093E20005C017
:104FF00019BC109212031092ED028091E10080FF23
:1050000017C08091E20080FF13C08091E2008E7F84
:105010008093E2008091E20080618093E2008091C1
:10502000D80080628093D80019BC85E08093120379
:105030008091E10084FF2EC08091E20084FF2AC0AD
:1050400080E189BD82E189BD09B400FEFDCF809178
:10505000D8008F7D8093D8008091E1008F7E80936F
:10506000E1008091E2008F7E8093E2008091E20077
:1050700081608093E20080911303882311F084E023
:1050800007C08091E30087FD02C081E001C083E09A
:10509000809312038091E10083FF27C08091E2009A
:1050A00083FF23C08091E100877F8093E10082E04D
:1050B00080931203109213038091E1008E7F8093FE
:1050C000E1008091E2008E7F8093E2008091E20017
:1050D00080618093E20042E060E080E00E94E62987
:1050E0008091F00088608093F000FF91EF91BF9174
:1050F000AF919F918F917F916F915F914F913F9170
:105100002F910F900FBE0F901F9018952091E400E3
:105110003091E50095E64091EC00842F817040FFCE
:1051200023C08091E80080FD1DC080911203882378
:1051300099F0853099F08091EB0085FD11C0409188
:10514000E4005091E5002417350729F3915011F040
:105150009A01E1CF84E0089582E0089583E0089504
:1051600081E0089580E008954091E80042FFDDCF9E
:105170000895EF92FF920F931F93CF93DF937C01DB
:105180008B010E948628811119C0E70101151105C4
:10519000A1F08091E80085FD0AC08091E8008E773B
:1051A0008093E8000E948628882381F307C08991B4
:1051B0008093F10001501109E9CF80E0DF91CF9198
:1051C0001F910F91FF90EF900895882341F08095F3
:1051D000909182028923809382020C94CB1A0895C5
:1051E000882339F090918202892B809382020C945B
:1051F000CB1A08958823B1F19CEF980F913A30F4BF
:10520000682F84EF91E00E94EC1914C090E2980F8F
:10521000983090F4877021E030E0A90102C0440F7B
:10522000551F8A95E2F7CA018095909182028923E1
:10523000809382020C94CB1A9BE5980F933020F454
:1052400080E090E00C94282298E5980F973120F4A4
:1052500080E090E00C941222803F20F00E945315D1
:105260000C9429150895CF93882309F472C0C82F90
:105270008CEF8C0F813AC0F580911C018823E1F0FE
:105280008091AC0187FF18C0EC2FE695E695E69576
:10529000F0E0EC50FE4F8281282F30E04C2F477019
:1052A00081E090E002C0880F991F4A95E2F78223BF
:1052B0009323892B61F412C0E6EFF1E08CEF91E0CB
:1052C0002191C21721F08E179F07D1F707C06C2FCD
:1052D00084EF91E00E94EC190E94CB1A6C2F84EFAE
:1052E00091E00E94141A10C080E28C0F883078F48C
:1052F000C77081E090E001C0880FCA95EAF79091ED
:105300008202892B80938202CF910C94CB1AEBE519
:10531000EC0FE33040F4F0E0E758FE4F808190E07E
:10532000CF910C942822E8E5EC0FE73150F4F0E03F
:10533000EE0FFF1FE458FE4F80819181CF910C94B6
:105340001222C03F30F08C2F0E940C16CF910C948B
:105350002915CF9108951F93CF93DF93182F893389
:1053600019F0CAE0D0E002C0C0E5D0E0812F0E9471
:1053700033298FE99FE00197F1F700C000002197E2
:10538000C1F7812FDF91CF911F910C94FA28809162
:10539000140387FF11C08091E80082FD05C0809151
:1053A00012038111F8CF11C08091E8008B770BC0F8
:1053B00080911203882349F08091E80080FFF8CFA4
:1053C0008091E8008E778093E8000895982F9730B9
:1053D00068F59093E900981739F07091EC002091EE
:1053E000ED005091F00003C0242F762F50E021FDF6
:1053F00002C09F5FECCF3091EB003E7F3093EB001B
:105400003091ED003D7F3093ED003091EB00316045
:105410003093EB007093EC002093ED005093F0007C
:105420002091EE0027FDE5CF80E008958F708093F6
:10543000E90081E0089520911A0330911B0326179B
:10544000370748F06115710539F42091E8002E778F
:105450002093E80001C0B901FC0120E0611571054D
:1054600079F1809112038823F1F18530F1F1809177
:10547000E80083FD3CC08091E80082FD2EC0809151
:10548000E80080FFEBCF2091F3008091F20090E0E4
:10549000922B6115710551F08830910538F42191F6
:1054A0002093F100615071090196F3CF21E0089734
:1054B00009F020E08091E8008E778093E800CECF5D
:1054C0002111CFCF0AC080911203882361F085306B
:1054D00061F08091E80083FD0AC08091E80082FFBE
:1054E000F2CF80E0089582E0089583E0089581E09E
:1054F00008958F929F92AF92BF92CF92DF92EF92D8
:10550000FF92CF93DF93EC01688179818A819B813F
:10551000611571058105910521F464E279ED8BE552
:1055200097E02DE133EF41E050E00E941D2B49014F
:105530005A019B01AC01A7EAB1E40E943C2B6B012C
:105540007C01ACEEB4EFA50194010E944A2BDC0172
:10555000CB018C0D9D1DAE1DBF1DB7FF03C0019774
:10556000A109B04888839983AA83BB839F77DF9181
:10557000CF91FF90EF90DF90CF90BF90AF909F9032
:105580008F9008950E94792A089580E091E00E940A
:10559000792A0895A0E0B0E0809300019093010182
:1055A000A0930201B09303010895F999FECF92BD33
:1055B00081BDF89A992780B50895A6E1B0E044E04E
:1055C00050E00C940F2BA8E1B0E042E050E00C94C6
:1055D0000F2B262FF999FECF92BD81BDF89A019726
:1055E00000B4021639F01FBA20BD0FB6F894FA9A2B
:1055F000F99A0FBE08950396272F0E94EA2A0E9467
:10560000E92A252F0E94EA2A242F0C94EA2A0196DF
:10561000272F0E94EA2A0C94E92ADC01CB01FC0125
:10562000F999FECF06C0F2BDE1BDF89A319600B4FB
:105630000D9241505040B8F70895052E97FB1EF487
:1056400000940E94342B57FD07D00E944F2B07FC7B
:1056500003D04EF40C94342B509540953095219501
:105660003F4F4F4F5F4F089590958095709561958E
:105670007F4F8F4F9F4F08950E94712BA59F900DD4
:10568000B49F900DA49F800D911D11240895B7FF24
:105690000C943C2B0E943C2B821B930B0895A1E29F
:1056A0001A2EAA1BBB1BFD010DC0AA1FBB1FEE1F9C
:1056B000FF1FA217B307E407F50720F0A21BB30BE7
:1056C000E40BF50B661F771F881F991F1A9469F763
:1056D00060957095809590959B01AC01BD01CF01BF
:1056E0000895A29FB001B39FC001A39F700D811DBB
:1056F0001124911DB29F700D811D1124911D0895DB
:10570000DB018F939F930E943C2BBF91AF91A29F8F
:10571000800D911DA39F900DB29F900D11240895AF
:10572000991B79E004C0991F961708F0961B881FF3
:105730007A95C9F78095089587FB082E062687FD80
:10574000819567FD61950E94902B0EF4919507FC61
:1057500081950895AA1BBB1B51E107C0AA1FBB1F5F
:10576000A617B70710F0A61BB70B881F991F5A95ED
:10577000A9F780959095BC01CD01089597FB072E60
:1057800016F4009407D077FD09D00E94AA2B07FCDD
:1057900005D03EF4909581959F4F08957095619541
:1057A0007F4F0895EE0FFF1F0590F491E02D0994AF
:1057B00069279627692778278727782708950E94E1
:1057C000712B332312F48A1B9B0B0C94E92B0E9440
:1057D000712BB7FF0895821B930B0895FC01415074
:1057E000504030F001900616D1F73197CF0108955F
:0A57F000882799270895F894FFCF49
:1057FA0001000000B3181119F218EE18EA1801197D
:10580A001A1B1C1D1E1F20212201020101C6F0F5D0
:10581A00F6676634979694F4F1F732919233310031
:10582A00FF0100010000FFFF0000010001FF00006E
:10583A0001020202020606060909090909090F0FEF
:10584A000F0F0F0F151515181919191919191919F3
:10585A00191923242525252525254022B64707255C
:10586A00076F069907B207D207818283E200E9002F
:10587A00EA00B500B600B700CD008301CC008A016A
:10588A009201940121022302240225022602270200
:0A589A002A02B300B4006F00700092
:00000001FF
