:100000000C94CC020C9413030C9413030C94130360
:100010000C9413030C9413030C9413030C94130308
:100020000C9413030C9413030C94DC2A0C94AE2B45
:100030000C945E250C9413030C9413030C9413037B
:100040000C9413030C9413030C9413030C941303D8
:100050000C9413030C94B7250C9413030C94130302
:100060000C9413030C9413030C9413030C941303B8
:100070000C9413030C9413030C9413030C941303A8
:100080000C9413030C9413030C9413030C94130398
:100090000C9413030C9413030C9413030C94130388
:1000A0000C9413030C9413030C94130369146C1431
:1000B000861497149F14AA14AD14B014B314F91431
:1000C000F914B614B914BE14CB14D814DB14DF140D
:1000D000EC14071B071B391B391B861BA41BC51CF3
:1000E000C51CAF1B441C551C551CB51CC51CC51C90
:1000F000BE1C651D651D771D771D6E1D771D771D47
:10010000771D651D651D731D771D771D731D1B2CC8
:10011000422C3A2D422C3A2D8E2CB12C3A2D082D02
:10012000172D2900350011501D001B00060001008D
:100130000100105001000100010001000100010058
:1001400001000100010001000100010001000100A7
:10015000010000000000000000002A2B2800000021
:100160000000000000000000000000000029000066
:1001700000002C1E3420212224342627252E362D43
:100180003738271E1F202122232425263333362EDD
:1001900037381F0405060708090A0B0C0D0E0F104F
:1001A0001112131415161718191A1B1C1D2F313094
:1001B000232D350405060708090A0B0C0D0E0F1038
:1001C0001112131415161718191A1B1C1D2F313074
:1001D000354C00000000000000000000000000009E
:1001E000000000000000000000000000000000000F
:1001F0000000000000007E0F00D4FFFFFFC70000DA
:1002000000781E0F0500047F3F1F6432146432140F
:10021000783C1E1E140A052223252628292A2C2D67
:100220002F3032333536383A3B3D3E404243454726
:10023000494A4C4E5051535557595A5C5E6062645E
:100240006668696B6D6F71737577797B7D7F81836C
:100250008587898A8C8E90929496989A9C9E9FA16D
:10026000A3A5A7A8AAACAEAFB1B3B4B6B8B9BBBC8E
:10027000BEBFC1C2C3C5C6C7C9CACBCCCDCED0D103
:10028000D2D2D3D4D5D6D7D7D8D9D9DADADBDBDBFB
:10029000DCDCDCDCDCDDDDDDDDDCDCDCDCDCDBDB9C
:1002A000DBDADAD9D9D8D7D7D6D5D4D3D2D2D1D0F0
:1002B000CECDCCCBCAC9C7C6C5C3C2C1BFBEBCBBED
:1002C000B9B8B6B4B3B1AFAEACAAA8A7A5A3A19F65
:1002D0009E9C9A98969492908E8C8A898785838129
:1002E0007F7D7B79777573716F6D6B69686664620A
:1002F000605E5C5A5957555351504E4C4A494745D8
:100300004342403E3D3B3A3836353332302F2D2C78
:100310002A292826252322FFAA7F55400001010112
:1003200001010101010102020202020202020203B2
:100330000303030303030304040404040404050582
:100340000505050606060606070707070708080845
:1003500008090909090A0A0A0B0B0B0C0C0C0D0DF4
:100360000D0E0E0E0F0F0F1010111111121213138C
:100370001414151516161717181819191A1A1B1B05
:100380001C1D1D1E1E1F2020212222232424252661
:1003900026272829292A2B2C2D2D2E2F3031323299
:1003A000333435363738393A3B3C3D3E3F404142A5
:1003B000434445464748494A4C4D4E4F505153548B
:1003C000555658595A5B5D5E5F616264656668693F
:1003D0006B6C6D6F7072737577787A7B7D7E8082BF
:1003E000838587888A8C8E8F91939596989A9C9E08
:1003F000A0A2A3A5A7A9ABADAFB1B3B5B7BABCBE18
:10040000C0C2C4C6C9CBCDCFD1D4D6D8DBDDDFE2E4
:10041000E4E7E9EBEEF0F3F5F8FAFDFF160353001D
:100420006100740078007200690036006B0065009E
:100430007900000014034D00610069005400680059
:100440006500530061006E00000004030904090206
:100450005B00030100A0FA09040000010301010090
:100460000921110100012240000705810308000A4B
:10047000090401000203000000092111010001220A
:100480002200070582032000010705030320000165
:1004900009040200010300000009211101000122EA
:1004A0007B000705840320000A12011001000000F0
:1004B00008505327070100010200010660FF09618F
:1004C000A1010962150026FF009520750881020927
:1004D00063150026FF00952075089102C0050109EB
:1004E00002A10185020901A10005091901290815C8
:1004F00000250195087501810205010930093115B2
:1005000081257F95027508810609381581257F951B
:100510000175088106050C0A38021581257F9501B1
:1005200075088106C0C005010980A1018503190174
:100530002AB700150126B700950175108100C00586
:100540000C0901A101850419012AA002150126A0A8
:1005500002950175108100C005010906A10105077A
:1005600019E029E71500250195087501810295011B
:10057000750881010507190029FF150026FF009560
:100580000675088100050819012905950575019171
:1005900002950175039101C011241FBECFEFDAE06F
:1005A000DEBFCDBF04B603FE27C08091AE0290919E
:1005B000AF02A091B002B091B1028730904BA7403A
:1005C000B04BD1F41092AE021092AF021092B00272
:1005D0001092B10214BE84B7877F84BF0FB6F8941F
:1005E000A8958091600088618093600010926000FF
:1005F0000FBEE0E0F8E3099511E0A0E0B1E0E4EC23
:10060000FDE502C005900D92AE3CB107D9F722E09E
:10061000AEECB1E001C01D92AE3AB207E1F70E9424
:100620009D270C94E02E0C94000081E0089581E059
:1006300008950C94170308950C941B031F93CF93F4
:10064000DF9300D000D01F92CDB7DEB749835A8325
:100650006B833091210289819A81311114C0662304
:1006600059F0222349F00E949E22182F682F898179
:100670009A810E94472203C00E947222182F69812A
:100680007A81812F04C00E949E2269817A810F9015
:100690000F900F900F900F90DF91CF911F910C94BE
:1006A000C615FC01262F40815181628173818481AE
:1006B0000C941E03CF93DF93EC0160E00E94510382
:1006C000BE01DF91CF910C941C038F929F92AF9249
:1006D000BF92CF92DF92EF92FF920F931F936B0125
:1006E0007C0181E090E0A0E0B0E04C015D0104C03D
:1006F000880C991CAA1CBB1C4A95D2F7AC01BD0101
:1007000004C0440F551F661F771F2A95D2F748294A
:1007100059296A297B2904C0880F991FAA1FBB1F6A
:100720000A95D2F78A019B010C211D212E213F2120
:10073000401751076207730739F4BC01CD016C29DA
:100740007D298E299F290AC080959095A095B09506
:10075000BC01CD016C217D218E219F211F910F9124
:10076000FF90EF90DF90CF90BF90AF909F908F90D1
:1007700008950F93382F262F60915F0270916002C9
:100780008091610290916202042F432F0E946503C1
:100790000F910C9483210E9439070C9473070C94D9
:1007A0006F0708950E94531D0E94D1032FEF84E329
:1007B0009CE0215080409040E1F700C000000C9484
:1007C000DD250F931F93CF93DF938C0161E00E948F
:1007D0005103EC01B8010E94C413882309F44BC0F3
:1007E000B801CE010E941903882309F444C0B8015E
:1007F000CE010E94FB168823F1F1B801CE010E94C0
:100800004D178823C1F1B801CE010E9478188823C2
:1008100091F1B801CE010E946D12882361F1F801B7
:100820008281882309F1CA358DE5D807C1F050F4DB
:10083000C115FCE5DF0781F0CE3DDC45A9F40E943F
:10084000AF2419C0CB35EDE5DE0761F0CC35DD45D1
:1008500059F40E94312308C00E94D2030CC00E94A8
:100860003A2302C00E943D23C801DF91CF911F911E
:100870000F910C94150380E0DF91CF911F910F91A0
:100880000895DF92EF92FF920F931F93CF93DF9320
:10089000E82FF0E0EE5AFE4FD490282F26952695AB
:1008A000269530E0F901EE50FE4F0491877010E07C
:1008B000082E02C0159507950A94E2F701701127DA
:1008C000F901EE51FE4FE490F12C082E02C0F59490
:1008D000E7940A94E2F791E0E922FF24F901EE524D
:1008E000FE4FC491D0E002C0D595C7958A95E2F736
:1008F000C170DD270115110519F081EE0E941C1A47
:10090000E114F10419F086EE0E941C1A8D2D0E944C
:10091000BD1AEF2819F086EE0E94721A012B19F009
:1009200081EE0E94721ACD2B51F08CE2DF91CF91B3
:100930001F910F91FF90EF90DF900C94BD1ADF9103
:10094000CF911F910F91FF90EF90DF900895EF925C
:10095000FF920F931F93CF93DF93EC01162F0AE0C2
:100960008881882309F455C0813009F043C089810A
:10097000813041F47E0182E0E80EF11C8A810E9400
:10098000BD1A09C0823049F47E01E2E0EE0EF11C8E
:100990008A810E941C1AE7012FC0833041F47E0136
:1009A000F2E0EF0EF11C8A810E94721AF4CF8430BB
:1009B00011F0219621C02A81229680E090E030E05B
:1009C000205331092A30310558F4089FA001099FAE
:1009D000500D1124C901840F951F21962881EFCF56
:1009E000009751F0EFE9FFE03197F1F700C0000008
:1009F0000197F6CF0E9441042196812F882309F4A4
:100A0000AFCFEFE9FFE03197F1F700C00000815070
:100A1000F5CFDF91CF911F910F91FF90EF90089547
:100A200060E00C94A70408950C94130581E00895E8
:100A30000C941605CF93C82F0E9414058C2F0E948A
:100A40001805CF91089580E090E008950895880FEB
:100A5000991FFC01EE5FFD4F859194910895CF930E
:100A6000DF930E94C6150E944706EC018115904550
:100A700008F041C0C11580E4D80708F0D1C0C83ED5
:100A8000D10510F5C03ED10508F0FDC0C83AD1052A
:100A900078F4C53AD10508F0A2C0C130D10509F4F7
:100AA000F2C008F4EEC0C430D10508F0ECC0E9C0D3
:100AB000CF3BD10508F49BC0C03CD10508F4E1C090
:100AC000CE01805C91099EC0C11590E2D90758F40F
:100AD000C11521E0D20708F0D6C0C03FD10508F407
:100AE000D0C0D065D0C0C11580E3D80708F08EC053
:100AF000CE019F7087C0C11595E5D90708F043C0A6
:100B0000C11524E5D20708F0A2C0C11582E5D807B7
:100B100008F5C11591E5D90708F085C0CE0174E04C
:100B2000969587957A95E1F783709C2F937021E0D5
:100B300030E002C0220F331F9A95E2F73C68382B51
:100B4000CF70C695C69580E2C89FE0011124C22BE4
:100B5000D32B99C09E01237033278C2F86958695C1
:100B6000C115D34508F064C0C1E0D0E002C0CC0F8D
:100B7000DD1F2A95E2F720E2829FC0011124C82BD5
:100B8000D92BDC6880C0C11529E5D207A0F4C115B6
:100B900088E5D80708F060C0C11596E5D90708F0C8
:100BA00070C08C2F0E94DB068F71C82FD0E0DC2F25
:100BB000CC27D06268C0C1152AE5D20708F451C01D
:100BC000CE0190568115904208F05BC08D2F8F7139
:100BD0000E94DB06DD27D0628F71D82B54C0C55A26
:100BE000D0E0C65ADE4FC881D0E0D0644CC0C85AAD
:100BF000D0E0CC0FDD1FC45DDE4F0990D881C02D41
:100C0000D46441C00E942705EC013DC0CE01992764
:100C1000D3FF03C0EC01D86C36C0EC01D06C33C0FC
:100C2000DF70D06A30C0DC2FCC27C16FD06A2BC0F8
:100C3000C1E0D0E002C0CC0FDD1F2A95E2F720E230
:100C4000829FC0011124C82BD92BDA681CC0DC2F6D
:100C5000CC27C46FD06A17C0DC2FCC27C06FD06AF6
:100C600012C08C2F8F700E94DB0694E0D695C7953A
:100C70009A95E1F7CF70D0E0DC2FCC27D069C82B54
:100C800002C0C0E0D0E0CE01DF91CF91089582385C
:100C9000910569F1B0F48133910509F46DC048F410
:100CA0008932910509F463C08A32910509F469C05B
:100CB00008958533910509F455C089339105B9F03C
:100CC0000895833E910569F138F4803E9105B1F0B5
:100CD000823E910509F10895863E9105A9F1873E6E
:100CE0009105B9F1843E910509F064C023C02091BB
:100CF000800220FD4FC021FD4DC0089580918002EB
:100D000080FD44C08091810280FF44C080918002B8
:100D100084FD42C083EE4DC08091800282FF38C0C6
:100D2000F5CF8091800282FD33C08091810280FDE9
:100D300031C0ECCF8091810281FF32C0809180026E
:100D400084FD2AC087EE35C08091800283FF26C0D3
:100D5000F5CF8091800283FD21C08091810281FDC9
:100D60001FC0ECCF8091800285FD1CC01DC080910A
:100D7000800285FD19C016C08091800286FD16C0D4
:100D800017C08091800286FD13C010C089E311C096
:100D900082EE0FC080EE0DC080E00BC086EE09C071
:100DA00084EE07C089E205C085E303C08AE201C082
:100DB00081E390E008959091800292FF0DC0282F6A
:100DC0002871283019F4877F846006C0282F247189
:100DD000243011F48B7F886093FF0DC0282F287179
:100DE000283119F4877E846106C0282F24712431AC
:100DF00011F48B7E88612091810220FF0DC0382F75
:100E00003871383019F4877F816006C0382F31710E
:100E1000313011F48E7F886021FF0DC0282F28719A
:100E2000283119F4877E816106C0282F2171213174
:100E300011F48E7E886194FD877E08950C949E1334
:100E40000E94A9072FEF86E791E021508040904053
:100E5000E1F700C000000E94A90780E00E945D0742
:100E600080FF04C00E941E070C94DD2508950C9499
:100E700020070E940724811102C00E94AF240E9413
:100E80001224809374020E941A249093810280930A
:100E900080020E9437070E941624682F70E080E0CD
:100EA00090E00E94492160915F0270916002809100
:100EB0006102909162020C948121E82FF0E0EC57DE
:100EC000FD4F80810895089580EA8A95F1F708958D
:100ED00000C008950C94640708950C946C070C945A
:100EE0006D070C946C070C947107F894E82FE29549
:100EF000EF70F0E031A1282F2F7081E090E001C069
:100F0000880F2A95EAF7982F9095932391A392A1A1
:100F1000892B82A37894089587EF0E94750786EF46
:100F20000E94750781EF0E94750784EF0E94750784
:100F300085EF0E947507A2E8B2E01C92E4E8F2E0B7
:100F4000108211961C92118282E00E942E080C944D
:100F5000CB038F929F92AF92BF92CF92DF92EF928C
:100F6000FF920F931F93CF93DF9380E6A82E81E02B
:100F7000B82EC2E8D2E092E6E92E91E0F92E912C4B
:100F800001E010E06501F5018081F894E82FE29519
:100F9000EF70F0E021A18F70A80102C0440F551F2F
:100FA0008A95E2F7CA01922F982B91A392A180957E
:100FB000892382A378940E946807EDE5F1E020E0A0
:100FC00030E0812C4191A42FA295AF70B0E09096B3
:100FD0008C9190E04F7002C0959587954A95E2F705
:100FE00080FD07C0802F022E01C0880F0A94EAF707
:100FF00001C080E0882A2F5F3F4F2330310511F771
:101000005FEFA51AB50AF60180810E9475070E945C
:101010006A078881881619F0888281E001C080E023
:10102000982A2196EA14FB0409F0ACCF292D42E05E
:1010300064E872E082E892E00E942F080E94CF03E9
:10104000892DDF91CF911F910F91FF90EF90DF904D
:10105000CF90BF90AF909F908F9008950895FF928A
:101060000F931F93CF93DF938C01F62ED72FC42FAE
:10107000222349F081E08093D2010E949025909331
:10108000D1018093D0018091D2018823C1F0809159
:10109000D0019091D1010E94A825069780F0EF2DF4
:1010A000FD2FD8014C2F50E0CD01801B910B8417F0
:1010B00095071CF48D918193F7CF1092D201DF91A7
:1010C000CF911F910F91FF9008958091D90180FFDA
:1010D0000BC06091090185E0689FB00111247595EE
:1010E0006795759567952BC081FF09C060910901CF
:1010F00085E0689FB00111247595679520C082FF37
:1011000007C06091090185E0689FB001112417C0F4
:101110009091D8019923D1F060910801961788F732
:101120002091090185E0289F90011124929FA00140
:10113000939F500D112470E0CA010E949C2D6038CD
:10114000710540F46115710519F406C065E070E0A1
:10115000862F08958FE7089581E008958091D90141
:1011600080FF08C06091050170E0759567957595E1
:10117000679521C081FF06C06091050170E07595FB
:10118000679519C082FF04C06091050170E010C02E
:101190009091D701992399F0609104019617A0F7D7
:1011A00080910501899FC001112470E00E949C2D4F
:1011B0006038710540F46115710519F406C061E0ED
:1011C00070E0862F08958FE7089581E00895803FAD
:1011D00021F40E946508819504C0813F29F40E9492
:1011E00065088093DD010895823F21F40E9465081F
:1011F000819504C0833F29F40E9465088093DC0137
:101200000895893F19F40E94AE0805C08A3F31F461
:101210000E94AE0881958093DE0108958B3F21F4F2
:101220000E94AE08819504C08C3F29F40E94AE084C
:101230008093DF0108959CE0980F953078F421E0C9
:1012400030E0A90102C0440F551F9A95E2F7CA0188
:101250009091DB01892B8093DB0108958D3F21F470
:101260008091D90181600BC08E3F21F48091D9011A
:10127000826005C08F3F29F48091D90184608093FA
:10128000D9010895803F39F49091DD0197FF35C071
:101290001092DD0159C0813F29F49091DD011916AA
:1012A000BCF32BC09091DC01823F29F497FF25C04D
:1012B0001092DC0149C0833F19F41916CCF31DC00C
:1012C0009091DE01893F29F41916BCF41092DE01D9
:1012D0003BC08A3F19F497FF10C0F8CF8B3F39F419
:1012E0009091DF0197FF09C01092DF012DC08C3F64
:1012F00021F49091DF011916BCF39CE0980F953012
:1013000080F421E030E0A90102C0440F551F9A95F6
:10131000E2F7CA0180959091DB0189238093DB017C
:1013200013C08D3F21F48091D9018E7F0BC08E3F79
:1013300021F48091D9018D7F05C08F3F29F48091E0
:10134000D9018B7F8093D9018091DC01811106C086
:101350008091DD01811102C01092D8018091DE01DF
:10136000811106C08091DF01811102C01092D70166
:1013700008950E9490252091DC01211104C0209144
:10138000DD01222321F09093D6018093D501209195
:10139000DE01211104C02091DF01222321F090936E
:1013A000D4018093D3018AED91E00C94C518EF929B
:1013B000FF920F931F93CF93DF9300D000D000D004
:1013C000CDB7DEB786E0EAEDF1E0DE0111960190DF
:1013D0000D928A95E1F7E090DC01F090DD0100913B
:1013E000DE011091DF011092DC011092DD011092FC
:1013F000DE011092DF01E11003C0FF2009F45DC09F
:101400008091D5019091D6010E94A825AC019091C0
:10141000D801992339F020910A0130E024173507CB
:1014200058F04BC020910B018AE0289F90011124B5
:101430002417350718F041C09F3F19F09F5F909324
:10144000D801EE2061F00E9465081E1414F09FEF91
:1014500001C091E0989F902D11249093DC01FF2012
:1014600061F00E9465081F1414F09FEF01C091E025
:10147000989F902D11249093DD013091DC0133234E
:10148000E1F02091DD012223C1F045EB3403C001DE
:101490001124992319F09093DC0103C081E080931B
:1014A000DC0135EB2303C0011124992319F090933B
:1014B000DD0103C081E08093DD01011103C0112330
:1014C00009F45DC08091D3019091D4010E94A825B8
:1014D000AC019091D701992339F02091060130E0B9
:1014E0002417350758F04BC0209107018AE0289F48
:1014F000900111242417350718F041C09F3F19F0BF
:101500009F5F9093D701002361F00E94AE081016F0
:1015100014F09FEF01C091E0989F902D11249093BB
:10152000DE01112361F00E94AE08111614F09FEF46
:1015300001C091E0989F902D11249093DF0130918C
:10154000DE013323E1F02091DF012223C1F045EBDE
:101550003403C0011124992319F09093DE0103C0D4
:1015600081E08093DE0135EB2303C0011124992330
:1015700019F09093DF0103C081E08093DF01809137
:10158000DC0181110BC08091DD01811107C08091C8
:10159000DE01811103C08091DF0181110E94B90930
:1015A000EB82FC820D831E8386E0FE013196AAED5C
:1015B000B1E001900D928A95E1F726960FB6F89466
:1015C000DEBF0FBECDBFDF91CF911F910F91FF9076
:1015D000EF900895EAEDF1E086E0DF011D928A9533
:1015E000E9F71092D8011092D7011092D90108950D
:1015F000EF92FF920F931F93CF93DF938B01682F8E
:1016000011110AC0442329F0E82FF0E0E45EFC4FFA
:101610006491762F862F75C0212F30E0E82FF0E0FF
:10162000442321F0E45EFC4FE491F0E046E0049FA7
:10163000C0011124CFEFD0E0BE010E94882D4BEAFB
:101640004603C001479F900D1124800F911D800F0C
:10165000911D982F990F890FAE01421B530B4E9F7E
:10166000D0014F9FB00D5E9FB00D11249B2F189F8E
:10167000A0011124452F55278E01041B150B0E9F29
:10168000A0010F9F500D1E9F500D11247E01E81ADE
:10169000F108E29E8001E39E100DF29E100D1124D0
:1016A000212F3327C21BD30BCE9F9001CF9F300D2C
:1016B000DE9F300D112462307105A9F048F46115E8
:1016C000710569F061307105C9F48B2F752F0DC05C
:1016D0006430710581F058F06630710579F47E2F21
:1016E0008B2F932F0DC0832F7B2F9E2F09C08E2F02
:1016F0007B2F952F05C08E2F732F02C07E2F852F35
:10170000692FDF91CF911F910F91FF90EF90089576
:1017100041E00E94F80A089508950E94880B0895F8
:10172000CF93DF93762FE901682F842F0E948D0BD2
:10173000798368838A83DF91CF91089580918602AF
:10174000282F269530E02115310519F4817082602B
:1017500005C02B32310524F08170846580938602A8
:10176000089588E090E00C94812ECF92DF92EF9262
:10177000FF926B017C010E949E0BB701A60188E0DD
:1017800090E0FF90EF90DF90CF900C949F2E6091AF
:1017900086027091870280918802909189020C9450
:1017A000B50BE6E8F2E083E0808311828FEF82835D
:1017B0008383148260817181828193810C94B50B43
:1017C0008091860280FF02C08695089580E008958A
:1017D00090918A02933018F49F5F90938A02882335
:1017E00051F06091860270918702809188029091F9
:1017F00089020C94B50B089581E00C94E80B90914C
:101800008A02992319F0915090938A02882351F00B
:10181000609186027091870280918802909189027E
:101820000C94B50B089581E00C94FF0B80918A0213
:10183000089580938A02662351F060918602709128
:10184000870280918802909189020C94B50B0895CB
:1018500060E00C94190C80918702089580918802B1
:10186000089580918902089570E00C943C13609172
:1018700010018091860280FF0AC080910F0123E051
:10188000829FC001112485579D4F0C94340C809188
:10189000110190911201891780F7E82FF0E09F0164
:1018A000220F331FE20FF31FE557FD4F1182108205
:1018B00012828F5FF0CF9091860290FF16C09091B8
:1018C000110120911201921770F4E92FF0E0DF016D
:1018D000AA0FBB1FEA0FFB1FE557FD4F81836083F3
:1018E00042839F5FF0CF0C94370C0895CF93DF9322
:1018F00000D01F92CDB7DEB79091860290FF0AC04C
:101900009E012F5F3F4F0E94900B4B8169818A811E
:101910000E945B0C0F900F900F90DF91CF91089574
:10192000CF93DF93EC01EC81F0E0E95EFD4F449151
:10193000E6E8F2E0628181810E94760C8C818F5F03
:101940008C83DF91CF910895CF93DF93EC01E6E88C
:10195000F2E0438162818C810E94760C8C818F5FE2
:101960008C83DF91CF9108950F931F93CF93DF93D3
:1019700000D01F92CDB7DEB78C018091E0018111BC
:101980000AC09E012F5F3F4F4FEF6FEF0E94900BF9
:101990008A818093E001F8018481813051F028F040
:1019A000823061F44091E0010AC08091E00140E0A2
:1019B00007C06091E00140E080E003C040E080E0CB
:1019C00060E00E945B0CF801848190E0019663E086
:1019D00070E00E949C2D84830F900F900F90DF91F8
:1019E000CF911F910F910895AF92BF92CF92DF9246
:1019F000EF92FF920F931F93CF93DF9300D01F922C
:101A0000CDB7DEB7182FF62E042FE22E9091860266
:101A100090FF6DC0E92FE695AE2FB0E0AE59BE4FF6
:101A20008C9180930A029E7F923061F49E012F5F19
:101A30003F4F812F0E94900B4B8169818A810E94C8
:101A40005B0C43C0823019F4009189023EC086309D
:101A500019F41091870239C08930D9F38931A9F579
:101A6000E9518E2F8170D82EE695F0E0E95EFC4FAB
:101A7000A590B490C12CBB2460911301C61618F533
:101A80002C2D30E0A29EC001A39E900DB29E900D21
:101A9000112470E00E94882D812FD11002C0860F82
:101AA00001C0861B90911101290F311DA901440F1E
:101AB000551F240F351F25573D4F402F6F2D0E9476
:101AC000900BC394D9CF0E94370C10938702F092E9
:101AD000880200938902EE2051F060918602709195
:101AE000870280918802909189020E94B50B0F9025
:101AF0000F900F90DF91CF911F910F91FF90EF907A
:101B0000DF90CF90BF90AF900895E6E8F2E091812A
:101B1000282F4381628188E0890F0C94F40C81E0C6
:101B20000C94850DE6E8F2E09181282F43816281D3
:101B300088EF890F0C94F40C81E00C94920DE6E888
:101B4000F2E0628128E0620F08F46FEF282F4381F2
:101B500081810C94F40C81E00C949F0DE6E8F2E096
:101B6000628128E0621B08F460E0282F43818181B4
:101B70000C94F40C81E00C94AE0DE6E8F2E04381A5
:101B800028E0420F08F44FEF282F628181810C94E6
:101B9000F40C81E00C94BD0DE6E8F2E0438128E00E
:101BA000421B08F440E0282F628181810C94F40CE0
:101BB00081E00C94CC0D20E00C94F40CFF920F9378
:101BC0001F93CF93DF93EC01F12C0FEF10E06091A6
:101BD0001301F616F0F4809111012F2D30E0280F3B
:101BE000311DC901880F991F280F391F25573D4FF7
:101BF00070E0C8010E949C2D962F8C814091890233
:101C000060918802F99E800D11240E94900BF3943C
:101C1000DECF0E94370C9A818C8190FF02C08F5FCB
:101C200001C081508C83DF91CF911F910F91FF9064
:101C30000895AF92BF92CF92DF92EF92FF920F93EF
:101C40001F93CF93DF93FC01828180FF02C00FEFCF
:101C500001C001E010E046E0A42E809113011817A6
:101C600008F043C080911101C12ED12CE601C80FAC
:101C7000D11DCE01880F991FC80FD91FC557DD4F41
:101C8000198218821A8234E0E32EF12CB12C809153
:101C9000E2018B0D87302CF06A2D0E947A2D892F5E
:101CA00005C087FF03C090911301890F082E000C17
:101CB000990BC816D90691F4809189028E9DA001D6
:101CC0008F9D500D112455954795559547959E012B
:101CD00060918802809187020E94900BB00EF1E023
:101CE000EF1AF108A1F61F5FB8CF0E94370C809160
:101CF000E201013031F4811102C080911301815061
:101D000007C090E001966091130170E00E949C2D45
:101D10008093E201DF91CF911F910F91FF90EF909F
:101D2000DF90CF90BF90AF900895CF938091110135
:101D300090911201891770F4E82FF0E09F01220FB3
:101D4000331FE20FF31FE557FD4F118210821282FD
:101D50008F5FF0CFC0E060911301C617C0F5EC2F84
:101D6000F0E070E0CF010E949C2D20911101820FC4
:101D70002091E101022E000C330B90E0E217F307F3
:101D8000CCF020910E01022E000C330B2E173F07D2
:101D90008CF09C01220F331F820F931F9C0125574B
:101DA0003D4F4091890260918802809187020E9494
:101DB000900B0BC0FC01EE0FFF1F8E0F9F1FFC014D
:101DC000E557FD4F118210821282CF5FC4CF0E946F
:101DD000370C20910D018091E101820F8093E10188
:101DE00090910E01920F90930E0119165CF4082E3B
:101DF000000C990B4091130150E041505109841798
:101E000095071CF0219520930D01CF9108958F9295
:101E10009F92AF92BF92CF92DF92EF92FF920F9379
:101E20001F93CF93DF938C01FC014481C42FD0E03A
:101E30009E01DE010E94E72D9B01AC010E94FD2D59
:101E40006B017C01E0E2F0E0EC1BFD0BA5E5B0E0EE
:101E50009B01AC010E94FD2D4B015C019F01DF0144
:101E60000E94DF2D9B01AC010E94082E9B01AC015A
:101E70002C0D3D1D4E1D5F1DC501B4010E94B02DEE
:101E8000C22FD22F2A3228F4F3E02F9F9001112481
:101E90000DC025E530E02C1B3109C901880F991FC1
:101EA000280F391F37FF02C02F5F3F4F3595279509
:101EB000C22FC095F12C85E5E82EED1A8091130113
:101EC000F816C8F4F1FC02C08E2D01C08D2F909140
:101ED00011012F2D30E0290F311DA901440F551F8D
:101EE000240F351F25573D4F4C2F609188020E94CB
:101EF000900BF394E3CF0E94370CF8018481811199
:101F000002C091E003C0803219F49FEF90930C015E
:101F100090910C01890FF8018483DF91CF911F917B
:101F20000F91FF90EF90DF90CF90BF90AF909F9078
:101F30008F9008950F931F93CF93DF93EC0100E0F0
:101F400010E080911301282F30E00217130724F5C9
:101F5000909111019801290F311DA901440F551FBE
:101F6000240F351F25573D4F869590E04C8108176B
:101F700019071CF4442331F002C0411103C0409101
:101F8000890201C040E060918802809187020E942E
:101F9000900B0F5F1F4FD5CF0E94370C8C8190E0C4
:101FA0000196817099278C83DF91CF911F910F91BA
:101FB00008957F928F929F92AF92BF92CF92DF92BD
:101FC000EF92FF920F931F93CF93DF93FC018280D8
:101FD000748081E08483E7E1F2E09490E6E9F2E046
:101FE000E491A12CF5E0BF2ECC24CA94D12CE919A0
:101FF0000E2F10E080911301A81608F0A2C0EA2C61
:10200000F12C22E0281568F0BE9CF001BF9CF00D79
:102010001124ED51FE4F80918702808380918802C8
:10202000818371100AC0BE9CF001BF9CF00D112489
:10203000ED51FE4F138212826AC0BE9CE001BF9C2C
:10204000D00D1124CD51DE4F8B818823F9F08150C2
:102050008B832FEF829FC00111246C8170E00E945E
:10206000882DFB01FF27E95EFD4F8491E82FE919D8
:102070002FEFE29FC0011124B8010E94882D8091AA
:102080008902689FB00111247A8341C00E945C2EAE
:10209000209189022695215830E0A901440F551F4F
:1020A000322F2227240F351F232F33278217930720
:1020B00074F582E0881588F40E945C2EB6010E94B7
:1020C0009C2D88830E945C2E209188022695622F89
:1020D00070E00E949C2D280F2983BE9CF001BF9CBC
:1020E000F00D1124ED51FE4F12828091890284314E
:1020F00020F0893C18F088EC01C084E1BE9CF0011E
:10210000BF9CF00D1124ED51FE4F84838383809199
:1021100011019701280F311DC901880F991F280F40
:10212000391F25573D4FBE9CF001BF9CF00D112477
:10213000ED51FE4F4281618180810E94900BA394FA
:1021400059CFDF91CF911F910F91FF90EF90DF90CA
:10215000CF90BF90AF909F908F907F900C94370C52
:10216000E6E8F2E080818E7F8083608171818281E8
:1021700093810E94B50B10920B022FEF80E792E043
:10218000215080409040E1F700C000000C94370CD3
:10219000E6E8F2E080818E7F808310920B022FEFC1
:1021A00080E792E0215080409040E1F700C00000BD
:1021B0000C94370C10920B028091080281110AC016
:1021C00081E08093080280918602817080930702EB
:1021D0000C94C810089560918602669570E04BE0FB
:1021E00050E084E191E00E946C2E892B19F481E08B
:1021F00080930B020E94902590930202809301022B
:1022000008959091860290FF35C09170811102C0AF
:10221000926006C08B3210F0946502C0880F982B34
:1022200090938602662351F0609186027091870236
:1022300080918802909189020E94B50B609186027C
:10224000669570E04BE050E084E191E00E946C2ED6
:10225000892B19F010920B0202C00E94EB1081E052
:1022600080930402409189026091880280918702E4
:102270000C94DB0D0895682F90918602969581E06D
:10228000890F8B3208F081E00C94011181E00C94ED
:102290003B11682F9091860296958FEF890F09F474
:1022A0008AE20C94011181E00C94491161E00C94D4
:1022B0000111E6E8F2E080818160808386950C94CC
:1022C00056118091860280FD0C94B0100C94591127
:1022D00060E00C9401118091090281112EC00E94CE
:1022E0000724811104C00E94AF240E94D10B0E94D8
:1022F000B10B60938602709387028093880290935B
:1023000089026E7F61F40E94D10B0E94B10B609331
:1023100086027093870280938802909389020E94BC
:102320009E0B10920B028091860280FF03C086955F
:102330000E94681181E0809309020895E6E8F2E0C6
:1023400080818160808386950C94681110920802C8
:102350008091070281110E949E110C94EB100F9343
:102360001F93CF93DF9380910B02882309F495C0CC
:1023700080910A02E0918602E695E81BE093030251
:10238000823049F4F0E0ED5EFD4FE491CE2FD0E0D5
:1023900000E91CE059C0863049F4F0E0E05FFD4FF1
:1023A000E491CE2FD0E004EA1CE04EC0893051F415
:1023B000E695F0E0E35FFD4FE491CE2FD0E00EED27
:1023C0001DE042C08F3051F4E695F0E0E65FFD4F2E
:1023D000E491CE2FD0E009E11EE036C0853149F40A
:1023E000F0E0E95FFD4FE491CE2FD0E005E91EE07B
:1023F0002BC08831D9F0833239F4E5E0F2E0C591A1
:10240000D49104EB1CE020C08432A9F08532C1F4E1
:102410008E2F63E00E946E2DE92FF0E0EE5FFD4FFE
:10242000E491CE2FD0E009ED1FE00EC0C8E2D0E06D
:1024300007E01FE009C0C4EFD1E00AE91FE004C0D3
:10244000C0EDD7E00CE81BE080910402882361F026
:10245000109204020E949025909302028093010240
:1024600010920602109205020E949025E09101024E
:10247000F09102028E1B9F0B8F3F9F4770F4EC0F71
:10248000FD1FF0930202E093010281E092E0F80167
:10249000DF91CF911F910F910994DF91CF911F91FF
:1024A0000F910895882311F0FA0101C0FB010994EE
:1024B000CF93DF93C82FD62F0E94E00B8C1740F0EC
:1024C0000E94E00B8D1720F4DF91CF910C94461100
:1024D0008C2FDF91CF910C9456111F93CF93DF93E4
:1024E000FB011281112309F4C1C0EC010E944023B9
:1024F0008272CC3CFCE5DF0709F49BC008F043C0C6
:10250000C63CECE5DE0709F480C0D8F4C33C9CE58A
:10251000D90709F46DC038F4C23CDC4509F0A7C006
:102520000E9461116BC0C43C9CE5D90709F468C0E6
:10253000C53CDC4509F09BC04CE95DE06FE87DE0FF
:102540005BC0C93CFCE5DF0709F469C070F4C73C17
:10255000ECE5DE0709F45EC0C83CDC4509F087C045
:102560004BEA5DE06AEB7DE047C0CA3C9CE5D907D9
:1025700009F45AC0CB3CDC4509F079C043E15CE08A
:102580006CEF7BE039C0C13DFCE5DF0709F45EC0BC
:1025900098F4CE3C9CE5D90709F452C008F44EC02B
:1025A000CF3CFCE5DF0709F44EC0C03DDC4509F037
:1025B0005EC06EE089E057C0C43D9CE5D90709F4D0
:1025C0004BC058F4C23DFCE5DF0709F442C0C33DEF
:1025D000DC4509F04CC088E143C0C53D9CE5D90706
:1025E000F1F1CD35DD4509F042C06AE285E23BC03C
:1025F00043E551E166E471E10E94521210E037C0F8
:1026000046E451E163E571E1F7CF4FE85DE06CE945
:102610007DE0F2CF4AEB5DE06BEA7DE0EDCF48ED87
:102620005DE069EC7DE0E8CF49EC5DE068ED7DE0E0
:10263000E3CF4CEF5BE063E17CE0DECF81E010C0F4
:1026400065E082E010C068E086E00DC064E18FE0E4
:102650000AC067E185E107C062E289E104C083E264
:102660000E945611CBCF0E945812C8CF11E0812F83
:10267000DF91CF911F910895809A21B32E7F31B3BE
:1026800031604FB7F894FC01CB01880F991F680F98
:10269000791F6E0F7F1FE617F70789F0819198E089
:1026A00031BB000000C087FF21BB880F000000C0C5
:1026B00000C000C021BB00C09A9591F7ECCF4FBF7E
:1026C0008FE594E00197F1F700C00000089583E2E0
:1026D00090E00E94792E813281F484E290E00E94A1
:1026E000792E873051F485E290E00E94792E91E0B6
:1026F000883209F090E0892F01C080E08170089550
:10270000CF93C82F811102C06FEF01C061E283E255
:1027100090E00E948D2EC11102C06FEF01C067E0F2
:1027200084E290E00E948D2EC11102C06FEF01C0C3
:1027300068E285E290E0CF910C948D2E80E00E94BB
:1027400080130C940124089586E290E00E94792E73
:10275000682F70E080E090E0089586E290E00C94AD
:102760008D2E0E94A3130E94671381110CC060E09C
:1027700070E0CB010E94AD130E9443150E94201609
:1027800081E00C9480130895CF93FB01C281CC2388
:10279000E9F09C0122513F452031310520F482515E
:1027A0000E9430160CC08031FFE59F0751F481E094
:1027B0000E94A92143E062E081E00E94B903C0E0E9
:1027C00018C081319F45A9F482E0F2CF8031EFE556
:1027D0009E0711F481E004C081319F4549F482E0F5
:1027E0000E94CA2143E062E081E00E94B90301C077
:1027F000C1E08C2FCF9108952FEFFC012083089525
:10280000CF93DF93EC018881813889F028F48038F8
:10281000A1F40E94310C10C0823861F0833869F451
:102820000E942B0C89830E942E0C8A8306C00E9472
:10283000E00B02C00E94160C8983DF91CF910895AE
:10284000CF93DF93EC0188818138B1F058F4803860
:1028500051F5D9810E942E0CC82F0E942B0C4D2FB0
:102860006C2F1DC08238B1F08338E9F40E94310C1E
:10287000482F6A81898113C089810E9468118981EA
:10288000811104C0DF91CF910C94C810DF91CF91DA
:102890000C949E118981DF91CF910C94280CDF91CB
:1028A000CF910C94DB0DDF91CF9108951F93CF93BF
:1028B000DF93EC01162F0196E8814E2F50E0FA01CC
:1028C0003197E331F10508F094C0EA5AFF4F0C94B8
:1028D000D22D198289E050C08981823081F0833005
:1028E00029F08130F9F40E949C250BC080E00E9401
:1028F0005D078A8381E00E945D078B837CC00E9414
:10290000A4139A838B837C836D8375C08981823005
:1029100049F46A817B818C819D810E94D82D0E941F
:10292000AD1369C0612FCE010E94FC1364C04B81BE
:102930006A8189810E9415159C838D835CC02C81DE
:102940003D813227232732274B816A8189810E946A
:102950002E1551C00E9443154EC00E9420144BC03A
:102960000E94001448C00E94C70B45C00E94D315A6
:1029700024C00E94D51599838A833DC06B8170E085
:1029800089819A81AE014C5F5F4F982789279827EC
:102990000E94D81530C06B8170E089819A81AE01A8
:1029A0004C5F5F4F9827892798270E94FD1523C009
:1029B0000E94201620C00E94021589831CC06B81D2
:1029C00070E089819A81AE014C5F5F4F982789271B
:1029D00098270E9482150FC06B8170E089819A81CF
:1029E000AE014C5F5F4F9827892798270E94A51555
:1029F00002C08FEF8883612FCE01DF91CF911F91AD
:102A00000C948E2684E0089550E0440F551F26E074
:102A1000629F400D511D11249A016CE0869F200D8C
:102A2000311D1124C901879608950F931F93CF93E9
:102A3000DF930E9404158C010E94792EC82FD0E0EC
:102A4000DC2FCC27C80101960E94792E9E01282BED
:102A5000C901DF91CF911F910F9108950F931F939B
:102A6000CF93DF93122F032F0E940415EC01602FE8
:102A70000E948D2E612FCE010196DF91CF911F9183
:102A80000F910C948D2EAF92BF92CF92DF92EF9266
:102A9000FF920F931F93CF93DF93A12CE12CF12C86
:102AA000B12C00E010E0C0E0D0E06701C00ED11E04
:102AB000FE01EE0FFF1FEC0DFD1DEE5DFE4F25919B
:102AC00034914C2F6B2D8A2D0E942E152196C330E8
:102AD000D10571F70A5F1F4FB39482E0B812E3CFBC
:102AE0008CE0E80EF11CA39484E0A812D9CFDF910A
:102AF000CF911F910F91FF90EF90DF90CF90BF90FB
:102B0000AF900895EF92FF920F931F93CF93DF93AF
:102B1000EA017A01E60EF71E8C01C8018796CE15F0
:102B2000DF0561F00033110520F40E94792E8883BF
:102B300001C0188221960F5F1F4FEFCFDF91CF9119
:102B40001F910F91FF90EF900895EF92FF920F93D6
:102B50001F93CF93DF93EA017A01E60EF71E8C01F3
:102B6000C8018796CE15DF0551F00033110518F422
:102B700068810E948D2E21960F5F1F4FF1CFDF914C
:102B8000CF911F910F91FF90EF900895462F8430C1
:102B900038F4723028F4633018F4672F0C9415154C
:102BA00080E090E0089580E1089589EA93E0089537
:102BB000EF92FF920F931F93CF93DF93EA017A0175
:102BC000E60EF71E8C01C801895A9F4FCE15DF050E
:102BD00069F0093A23E0120720F40E94792E8883D5
:102BE00001C0188221960F5F1F4FEDCFDF91CF916B
:102BF0001F910F91FF90EF900895EF92FF920F9326
:102C00001F93CF93DF93EA017A01E60EF71E8C0142
:102C1000C801895A9F4FCE15DF0559F0093A23E0C4
:102C2000120718F468810E948D2E21960F5F1F4FA6
:102C3000EFCFDF91CF911F910F91FF90EF9008950B
:102C4000CF93DF93C7E5D0E060E0CE010E948D2EE8
:102C50002196C11584E0D807B9F7DF91CF91089587
:102C6000DF92EF92FF920F931F93CF93DF9300D0E9
:102C700000D0CDB7DEB7F82E8FE08F15E8F18FEFDB
:102C800093E00E94792E811137C007E510E0FF2004
:102C900069F0011584E0180779F1C8010E94792EC6
:102CA000811101C0FA940F5F1F4FF1CF19821A8270
:102CB0001B821C82DD24D39478018FEFE81AF80A76
:102CC000C8010E94792E89831A828823A9F09FEF78
:102CD000980F933058F48A83D9820E5F1F4FC70133
:102CE0000E94792E8B83882339F07801CE010196DA
:102CF0000E9410058701E0CF0F900F900F900F906A
:102D0000DF91CF911F910F91FF90EF90DF90089589
:102D10000F931F93CF93DF93C42FD22FFC01828197
:102D20008823C9F040930E020E94902590930D02D3
:102D300080930C0280E28C0F883008F057C0C77077
:102D400081E001C0880FCA95EAF7DF91CF911F910A
:102D50000F910C94C61A80910E02481330C08091D6
:102D60000C0290910D020E94A825883C910538F52F
:102D700010E21D0FCD17B9F080E28C0F883040F4BF
:102D8000C77081E001C0880FCA95EAF70E94CD1A8A
:102D9000183028F581E09D2F977001C0880F9A9513
:102DA000EAF70E94C61A802F0E94BD1A1830F0F46C
:102DB000D77081E001C0880FDA95EAF70AC080E297
:102DC0008C0F883098F4C77081E001C0880FCA95D5
:102DD000EAF7DF91CF911F910F910C94CD1A802FBC
:102DE000DF91CF911F910F910C94BD1ADF91CF917C
:102DF0001F910F9108950F939C01CB01233F4CE548
:102E0000340731F188F4283DFCE53F07D9F0293D2E
:102E10004CE5340779F1273D3C45A9F506E221EE62
:102E200041EE67ED7CE52BC0253FFCE53F07E1F077
:102E3000A8F0263F3C4539F507E225EE46EE66EF61
:102E40007CE51DC007E225EE45EE68ED7CE517C088
:102E500006E221EE40EE63EF7CE511C007E225EECD
:102E600044EE64EF7CE50BC006E221EE42EE65EF36
:102E70007CE505C008E221E045EE69ED7CE50E94B5
:102E8000881680E008C0FC018281882319F0109226
:102E90000E0201C081E00F910895CF93DF93EC0102
:102EA000FB018281882309F41FC1C230FCE5DF07E2
:102EB00008F41BC1C6319CE5D90738F09E012A5F92
:102EC0003C452930310508F010C10E941A24909326
:102ED000810280938002C031ECE5DE0709F4C3C0B3
:102EE00008F041C0C8308CE5D80709F49AC0F0F466
:102EF000C430ECE5DE0709F487C068F4C2308CE525
:102F0000D80709F477C0C330DC4509F0E3C08091ED
:102F10008002826076C0C630ECE5DE0709F46EC040
:102F200008F07BC08091800288606BC0CC308CE55B
:102F3000D80709F485C068F4CA30ECE5DE0709F467
:102F400074C008F079C00E94531D8091800280688F
:102F500058C0CE308CE5D80709F476C008F07FC0A1
:102F6000809180028BC0CB3FECE5DE0709F44FC0B7
:102F700018F5C3318CE5D80709F47DC078F4C13168
:102F8000ECE5DE0709F473C0C231DC4509F0A2C0EC
:102F90000E94531D809180028F7733C0C5318CE52C
:102FA000D80709F472C008F486C0CA3FDC4509F0AE
:102FB00091C0809181023EC0CF3FFCE5DF0709F45C
:102FC0005FC058F4CD3F9CE5D90709F444C008F42C
:102FD0003FC08091810282602DC0C130FDE5DF07D6
:102FE00009F475C008F45DC0C230DD4509F072C057
:102FF00080E06EC080918002816003C08091800279
:1030000080618093800266C08091800211C08091AF
:1030100081028260809381025DC080918002806223
:10302000F0CF809180028064ECCF80918002886034
:103030008460E7CF8160EECF809180028E7FE1CF08
:10304000809180028D7FDDCF80918002877FD9CFF4
:103050008091810218C0809181028D7FDBCF8091A9
:1030600080028F7ECECF809180028F7DCACF8091EB
:1030700080028F7BC6CF80918002877F8B7FC1CFFC
:10308000809181028D7F8E7FC5CF8091800282FBEF
:10309000222720F991E0922790FB82F990FB83F997
:1030A000B0CF80918102982F909591708E7F892B5F
:1030B00090FB81F9AFCF0E94531D8091800287FB66
:1030C000222720F991E0922790FB87F99ACF81E09F
:1030D0000E94B12480918002909181020E942B2451
:1030E0000E94531D80E001C081E0DF91CF910895DF
:1030F000CF93DF9386319C4541F5EB010E9440233D
:10310000982F8A8120911F0130912001882379F026
:103110009A7A81E009F480E080930F02911102C055
:1031200069E201C065E3C9010E94F8240AC08091E8
:103130000F02811102C069E201C065E3C9010E946A
:10314000FA240E94922380E001C081E0DF91CF91B8
:10315000089590931502809314020895E09114024B
:10316000F0911502309721F00190F081E02D099443
:1031700080E00895E0911402F0911502309721F05B
:103180000280F381E02D09940895E0911402F091FA
:103190001502309739F022E0DC012C930480F58190
:1031A000E02D0994089520911202309113022817FE
:1031B000390771F09093130280931202E091140288
:1031C000F0911502309721F00680F781E02D0994E7
:1031D000089520911002309111022817390771F0DB
:1031E0009093110280931002E0911402F091150265
:1031F000309721F00084F185E02D099408950E9414
:103200009C2560931D0270931E0280931F02909371
:1032100020026093190270931A0280931B0290930C
:103220001C02089585B7806885BF85B7806885BF13
:10323000089581E008950C94191908950C941D19AE
:103240000C941D190C9420190C941D190C9424191C
:103250000C941D190E9412198FEF93E20E9401260F
:103260000E9428190C9426190E941E190C941D19ED
:103270000E9487250E948C070E94B1130E946B1147
:103280000C9422199F92AF92BF92CF92DF92EF924D
:10329000FF920F931F93CF93DF93CDB7DEB72A979B
:1032A0000FB6F894DEBF0FBECDBF0E94A9078111F3
:1032B0000E94FF1887E1A82E82E0B82E00E010E0FF
:1032C000902E802F0E945D07D82EF501C1905F01DE
:1032D000C826B1F40F5F1F4F0230110589F78FEF39
:1032E00089838A831B820E9490258160782F9D8329
:1032F0008C8349815A816B818D810E94E2192FC094
:103300008091740281FD0E946307E12CFF24F394F5
:103310008C2D8F21F1F00E941B19882399F0EE82E9
:103320009F82DF2081E009F480E088870E94902559
:103330008160782F9A8789874E815F8168858A8529
:103340000E94E219F801E95EFD4F8081F826F082C3
:1033500006C0E394FF0CF3E0EF12DACFBBCF0E947C
:10336000AF110E94D7090E94AE18909116028917DA
:10337000B9F00E94AE18809316022A960FB6F89400
:10338000DEBF0FBECDBFDF91CF911F910F91FF9098
:10339000EF90DF90CF90BF90AF909F900C941A0564
:1033A0002A960FB6F894DEBF0FBECDBFDF91CF9146
:1033B0001F910F91FF90EF90DF90CF90BF90AF9053
:1033C0009F900895DF92EF92FF920F931F93CF93F8
:1033D000DF93CDB7DEB72B970FB6F894DEBF0FBEE5
:1033E000CDBFF42E052F162FE72ED82E61110E9487
:1033F0006023FE01319686E0DF011D928A95E9F790
:103400007E2D4F2D502F612F8D2D9E810E940C20DF
:103410002B960FB6F894DEBF0FBECDBFDF91CF91D4
:103420001F910F91FF90EF90DF900895FC01808134
:1034300091810E94E0220895CF93882309F450C01F
:10344000C82F8CEF8C0F813AD0F46C2F80911F0124
:10345000909120010E94C224882349F06C2F809112
:103460001F01909120010E94FA240E9492236C2F48
:1034700080911F01909120010E94F8240CC080E2ED
:103480008C0F883058F4C77081E001C0880FCA954E
:10349000EAF70E944323CF910C949223EBE5EC0FC3
:1034A000E33040F4F0E0E554FE4F808190E0CF91AE
:1034B0000C94D318E8E5EC0FE73150F4F0E0EE0F90
:1034C000FF1FE357FE4F80819181CF910C94E91843
:1034D000C03F30F08C2F0E94E708CF910C94B909BF
:1034E000CF910895882389F19CEF980F913A40F489
:1034F000682F80911F01909120010E94FA240DC035
:1035000090E2980F983058F4877091E001C0990FBD
:103510008A95EAF7892F0E9449230C9492239BE510
:10352000980F933020F480E090E00C94D31898E545
:10353000980F973120F480E090E00C94E918803FD8
:1035400020F00E9442090C94B90908951F93CF936B
:10355000DF93182FEB010E941C1A209741F08FE98E
:103560009FE00197F1F700C000002197F6CF812F6F
:10357000DF91CF911F910C94721A893319F060E09A
:1035800070E002C060E570E00C94A61A882321F078
:103590000E9443230C9492230895882321F00E94D3
:1035A00049230C9492230895CF92DF92EF92FF92D9
:1035B0000F931F93CF93DF937C01062FC72FFC013E
:1035C000D281158112951F700E941823882399F0CB
:1035D000DD2389F08C2F807F803421F080E2800F02
:1035E000883048F082E00E94E2230E94182391E094
:1035F000D82ED92601C0D12CCC2EC2948FE0C8225F
:103600008C2D90E0FC01E759FF4F0C94D22D8C2FAC
:10361000807FCF70882311F0C295C07FDD2399F0A1
:10362000CC2309F48DC180E2800F883010F00111A5
:1036300004C08C2F0E94432303C08C2F0E9453236D
:103640000E9492237DC1802F0E94721ACC2309F41C
:103650009CC180E2800F883010F0011104C08C2FD3
:103660000E94492303C08C2F0E9459230E94922359
:103670008CC18C2F807FCF70803211F0C295C07FBB
:10368000002319F00130C9F022C0DD2371F01123AD
:1036900041F0113031F40E9473238C2B0E947B2364
:1036A00074C10E9473238C2B1DC0112319F011309B
:1036B00009F46BC10E94882325C0DD2321F0163058
:1036C00008F063C10EC0153008F05FC11BC0DD23D8
:1036D00061F0112331F0F701858180FF31C18F70D6
:1036E00085838C2F0E94C61A50C1112359F00933CB
:1036F00009F037C1FFEF27EE83E0F1502040804012
:10370000E1F72DC18C2F0E94CD1A3FC18C2F8695D9
:103710008695837019F0813061F037C1DD2321F087
:10372000802F9C2F937002C080E090E00E94D318FD
:1037300034C1DD2321F0802F9C2F937002C080E0E4
:1037400090E00E94E91829C1802FDD2319F00E9422
:10375000E70802C00E9442090E94B9091EC18C2FCD
:10376000837009F045C0D11114C1402F4295469590
:103770004770440F440F602F6F70862F90E0A0E0D9
:10378000B0E0042E04C0880F991FAA1FBB1F0A9423
:10379000D2F704FF10C00FE010E020E030E004C0DA
:1037A000000F111F221F331F4A95D2F70095109565
:1037B0002095309503C000E010E09801C695C695AD
:1037C000C370BC01CD01602B712B822B932BC230B7
:1037D00049F058F4C13019F00E945D21DAC00E940E
:1037E0004B21D7C00E946F21D4C00E944921D1C073
:1037F000DD2319F08C2F817001C08695882309F490
:10380000C8C0402F429546954770440F440F602F23
:103810006F70862F90E0A0E0B0E0042E04C0880F07
:10382000991FAA1FBB1F0A94D2F704FF10C00FE014
:1038300010E020E030E004C0000F111F221F331FF2
:103840004A95D2F7009510952095309503C000E079
:1038500010E09801C695C695C370BC01CD01602BE0
:10386000712B822B932BC23049F058F4C13019F0E0
:103870000E9422228EC00E9410228BC00E943422FD
:1038800088C00E94832185C0CF70DD2339F08C2F42
:103890000E94A921802F0E94C61A7BC0802F0E94FF
:1038A000CD1A8C2F0E94CA2174C0023F01F128F466
:1038B000003F41F0013FA1F03FC0033FF9F0043F5A
:1038C00039F13AC0DD2341F0153008F05EC08C2F8D
:1038D0008F710E94EF2159C0163008F056C0F7CF03
:1038E000DD2339F08C2F8F710E94A9214EC0DD237A
:1038F000C9F38C2F8F710E94CA2147C0DD2329F0A4
:103900008C2F8F710E94942140C00E948F213DC056
:10391000DD2349F0CF718C2F0E94A92163E08C2F09
:103920000E94C72332C081E00E94E223123068F176
:1039300082E00E94E22329C0DD2331F0112391F2BD
:10394000802F0E941C1A21C0112399F2093349F4D7
:103950009FEFE7EEF3E09150E040F040E1F700C068
:103960000000802F0E94721A10C04C2F4F70602FE1
:10397000C7010E9423050E94BA200FC04C2F4F7030
:10398000602FC7010E94260508C088EF8C0D843087
:1039900020F40E94AE180E941A05DD20C9F00E9492
:1039A000142380FD15C0F70112820E940E230E948D
:1039B000A921C7010E94091D0E940E23DF91CF910A
:1039C0001F910F91FF90EF90DF90CF900C94CA2140
:1039D000DF91CF911F910F91FF90EF90DF90CF90EB
:1039E00008950F931F93CF93DF93EC016881798142
:1039F0008A810E94EB228C010E9446220E9437217C
:103A0000B801CE010E94D41ADF91CF911F910F917E
:103A10000895CF93DF93EC01988189812B813C81BC
:103A2000232B31F08F3F31F481E09F3F19F403C025
:103A300081E001C080E080FD19C0CE010E94E10359
:103A400081110CC00E941823882381F08A81882369
:103A500069F082E0DF91CF910C94E223CE010E94C5
:103A6000F11CCE01DF91CF910C945A03DF91CF91DD
:103A7000089580E090E00E94D31880E090E00E94DA
:103A8000E9180E9460230E9470230E9492230E94E2
:103A9000EA0A0C94B90980911F01909120010E94BB
:103AA000FC240C94391D0E9450230C944B1DE92FCB
:103AB000E295EF704E2F50E0FA013297EE30F105AB
:103AC000B0F4E758FF4F0C94D22D803F91F018F4DA
:103AD000883E68F40EC0843F51F40BC0883E48F025
:103AE000813F29F406C093FB882780F9089580E080
:103AF000089581E008950E94E0220E94571D0895D4
:103B0000CF93DF9300D000D01F92CDB7DEB70F90D8
:103B10000F900F900F900F90DF91CF910895CF935A
:103B2000DF9300D000D000D0CDB7DEB726960FB619
:103B3000F894DEBF0FBECDBFDF91CF9108951F93E4
:103B4000CF93DF93C091220216E080912302C81721
:103B500099F0D0E01C9FF0011D9FF00D1124EC5D49
:103B6000FD4F4081518162817381848195810E94E2
:103B70008F1D2196C770E9CFDF91CF911F910895D6
:103B80004091540250915502609156027091570233
:103B900080915802909159020C948F1D0F931F939E
:103BA000CF93DF938091590282958F7009F05DC0A9
:103BB00080915602882309F458C080912202109106
:103BC00023026091540270915502C0915702D09126
:103BD000580291E06F3F09F090E0292F06E081172D
:103BE00009F443C0209721F07F3F21F030E003C06B
:103BF00031E001C0322F90E030FD34C0089FF00169
:103C0000099FF00D1124DF01AC5DBD4F11963C9171
:103C10001197371327C03C91361324C012963C915C
:103C2000129731111FC013964D915C9114974C1B44
:103C30005D0B483C5105B0F4809159028F70806152
:103C400080935902E75DFD4F80818F708061808392
:103C500084E592E00E94091DDF91CF911F910F91A1
:103C60000C949F1D01968770BACFDF91CF911F9161
:103C70000F9108959F92AF92BF92CF92DF92EF92F1
:103C8000FF920F931F93CF93DF93CDB7DEB761976A
:103C90000FB6F894DEBF0FBECDBF8C0185E0F801F2
:103CA000DE011D9601900D928A95E1F7F8014081A1
:103CB0005181E28090915402609155022091570207
:103CC000309158022115310531F06F3F31F481E018
:103CD0009F3F19F403C081E001C080E0F82FF1702C
:103CE0009F2E80FD46C1F801A380B48084E5C82ED4
:103CF00082E0D82EF0905602F501E21BF30BFF2074
:103D000009F4DFC080915902E83CF10508F09BC03E
:103D1000282F207F09F052C0561313C0491311C039
:103D2000FE2CE1100EC08F708061809359020E94BA
:103D3000C01DC6010E94091D80915902F8018583AA
:103D400058C1AB2831F05F3F31F481E04F3F19F4A7
:103D500003C081E001C080E080FD03C081E08E25CA
:103D600002C080E090E0F82FF170FF2E80FF1CC0B1
:103D7000809122022091230236E0821709F417C1B4
:103D800090E0389FF001399FF00D1124EC5DFD4F5C
:103D90006181561306C06081461303C06281E6123A
:103DA00003C001968770E9CFFE2CEE2009F421C1F3
:103DB000809159028160809359025AC0561306C0FF
:103DC000491304C0E11002C0F8019FC04D875E870F
:103DD0008D859E850E947B1D882379F1EE2069F1F7
:103DE00020915902822F82958F7090E0029774F093
:103DF000809154029091550298878F831986BB86D3
:103E0000AA862C87CE0107960E94091D86E0F8013C
:103E1000A4E5B2E001900D928A95E1F70E94CE1DD3
:103E20000E94C01D0DC0561729F14D875E878D85F4
:103E30009E850E947B1D81112CC0C8010E94091D16
:103E4000FF24F394D6C0282F207F69F77A2DB98AF2
:103E5000A88A6E2D89890E94801D84E592E00E94C7
:103E6000091D86E0F60111928A95E9F70E94C01DAE
:103E7000F12CBFC04913D9CFE110D7CFF80185830A
:103E8000C8010E94091D86E0F60111928A95E9F7A2
:103E9000B0C0EE2091F220915902822F82958F704E
:103EA00090E002970CF4B2CF8091540290915502A9
:103EB0009A8389831B82BD82AC822E83CE010196B8
:103EC000A3CFE83CF10508F047C0FE2CEE2009F432
:103ED000B4CF561330C049132EC02091590220FD93
:103EE00021C0822F82958F70482F50E041155105D7
:103EF000C9F0F80125834F30510541F08F5F982FAD
:103F00009295907F822F8F70892B8583C8010E94A4
:103F1000091D86E0F801A4E5B2E001900D928A95B2
:103F2000E1F742C086E0F801A4E5B2E001900D920D
:103F30008A95E1F75EC04D875E878D859E850E94DC
:103F40007B1D811163CF809159028160809359025A
:103F5000C8010E94091D4DC07A2DB98AA88A6E2D0C
:103F600089890E94801D86E0F60111928A95E9F701
:103F70001BC0EE2009F461CF4D875E878D859E853D
:103F80000E947B1DF82E882309F457CF86E0F801A4
:103F9000A4E5B2E001900D928A95E1F784E592E004
:103FA0000E94161A0E94CE1D0E94C01D22C04D877D
:103FB0005E878D859E850E94E022292F22952F7095
:103FC000223028F49F7039F0811105C00BC02430D5
:103FD00028F49F7049F4805E883020F0C8010E9468
:103FE000091D9F2CF92C05C0F8019581907F99F748
:103FF000F9CF8F2D61960FB6F894DEBF0FBECDBFFF
:10400000DF91CF911F910F91FF90EF90DF90CF90B4
:10401000BF90AF909F9008951F93CF93DF93CDB73C
:10402000DEB72C970FB6F894DEBF0FBECDBF4F831F
:10403000588769877A878B879C87CE0107960E946D
:104040003A1E8823D1F09F8188852A853B85232BC2
:1040500031F08F3F31F481E09F3F19F403C081E0DC
:1040600001C080E080FD47C04F81588569857A8511
:104070008B859C850E948F1D3EC086E0FE01379691
:10408000DE01119601900D928A95E1F7FF81E88596
:104090006A857B856115710531F0EF3F31F481E070
:1040A000FF3F19F403C081E001C080E080FD23C020
:1040B0002091230230E0C901019687709927409131
:1040C000220250E084179507F1F1F983EA837D839A
:1040D0006C8396E0929FD001939FB00D1124AC5D4C
:1040E000BD4FFE01319601900D929A95E1F78093B4
:1040F00023020E949F1D16E08091220290912302CC
:10410000891771F1189FC00111248C5D9D4F0E9489
:104110003A1E882329F1E09122021E9FF00111240A
:10412000EC5DFD4F40815181628173818481958175
:104130000E948F1D8091220290E00196877099273E
:1041400080932202D9CF0E94531D10922302109215
:104150002202E4E5F2E086E0DF011D928A95E9F7AC
:104160002C960FB6F894DEBF0FBECDBFDF91CF9176
:104170001F910895EF92FF920F931F93CF93DF93B8
:104180008C01892B09F46CC0F12CEE24E394E80136
:104190002196F8018491843740F4843008F051C0AE
:1041A000813081F0823019F15BC0853709F444C059
:1041B000A8F19CE7980F903708F052C08F770E94C3
:1041C000721A41C00E5F1F4FFE01849190E2980F5A
:1041D000983050F48770FE2D01C0FF0F8A95EAF7E2
:1041E0008F2F0E94632314C00E941C1A2DC00E5FE3
:1041F0001F4FFE01849190E2980F983060F4877011
:10420000FE2D01C0FF0F8A95EAF78F2F0E946923C8
:104210000E94922319C00E94721A16C00E5F1F4F8F
:10422000FE01C491CC2381F08FE99FE00197F1F763
:1042300000C00000C150F6CF0E5F1F4FFE01F4908A
:1042400003C00E941C1A8E018F2D882309F49FCF72
:10425000EFE9FFE03197F1F700C000008150F5CFA2
:10426000DF91CF911F910F91FF90EF9008950895E6
:1042700008950C9438210C9439210E943B216093BD
:1042800063027093640280936502909366020C94BB
:10429000391D0C943D210F931F93009163021091DF
:1042A00064022091650230916602602B712B822B93
:1042B000932B1F910F910C943D210F931F9300910D
:1042C00063021091640220916502309166026023BE
:1042D0007123822393231F910F910C943D210F93FF
:1042E0001F93009163021091640220916502309146
:1042F000660260277127822793271F910F910C94E4
:104300003D210C9438210E94812160935F027093BB
:10431000600280936102909362020C94391D60E008
:1043200070E0CB010C9483210F931F9341E050E088
:1043300060E070E08A019B0104C0000F111F221F82
:10434000331F8A95D2F7C901B8011F910F910C94C0
:1043500083210F931F9341E050E060E070E004C0C0
:10436000440F551F661F771F8A95D2F780915F0211
:1043700090916002A0916102B09162028A019B015A
:10438000082B192B2A2B3B2BC901B8011F910F9128
:104390000C9483210F931F9341E050E060E070E0A4
:1043A00004C0440F551F661F771F8A95D2F74095AA
:1043B00050956095709580915F0290916002A091F8
:1043C0006102B09162028A019B01082319232A230A
:1043D0003B23C901B8011F910F910C9483210F93C6
:1043E0001F9341E050E060E070E004C0440F551FAF
:1043F000661F771F8A95D2F780915F0290916002C5
:10440000A0916102B09162028A019B0108271927DD
:104410002A273B27C901B8011F910F910C948321D2
:104420000F931F9300915F0210916002209161022F
:1044300030916202602B712B822B932B1F910F9175
:104440000C9483210F931F9300915F0210916002DF
:1044500020916102309162026023712382239323B1
:104460001F910F910C9483210F931F9300915F0272
:1044700010916002209161023091620260277127E1
:10448000822793271F910F910C9483210895292F40
:10449000220F920F890FE82FE695E695E695877033
:1044A00051E001C0550F8A95EAF785E0E89FF001D9
:1044B0001124E65AFD4F20E030E070E04081CB014E
:1044C000022E02C0969587950A94E2F78170819535
:1044D00084278523842781932F5F3F4F2530310523
:1044E00069F70895292F220F920F890F682F66957B
:1044F00066956695982F977085E0689FB0011124A6
:1045000040E050E080E0FB01E40FF51FE65AFD4F6C
:10451000208130E0092E02C0369527950A94E2F7F3
:1045200021703327042E01C0220F0A94EAF7822B50
:104530004F5F5F4F4530510531F70895BF92CF92DD
:10454000DF92EF92FF920F931F93CF93DF938C0133
:10455000C0905F02D0906002E0906102F090620231
:104560008091630290916402A0916502B09166020D
:10457000C82AD92AEA2AFB2ACFE1D0E0D701C6010E
:104580000C2E04C0B695A795979587950A94D2F7F7
:1045900080FD04C0219790F7B12C07C0BC2EB80154
:1045A0008C2F0E942F050197A9F38B2DDF91CF91BE
:1045B0001F910F91FF90EF90DF90CF90BF900895E3
:1045C000CF93DF93EC010E949E22BE010E942F0533
:1045D000DF91CF9108951F93CF93DF93EB019091DB
:1045E0002102992321F0CB010E94E02213C08823ED
:1045F00049F0CB010E949E22182F682FCE010E9405
:10460000472204C0CB010E947222182FBE01812FC5
:104610000E942F05DF91CF911F910895809167022D
:104620008595859585950895809167028770089591
:1046300090916702977081E009F480E0089590916D
:10464000810292FB222720F9281751F080FB92F972
:104650009093810280918002909181020C942B248E
:1046600008958091810282FB882780F991E0892753
:104670000C941F2381E00C941F2380E00C941F23D3
:1046800080917302089590917302892B8093730235
:104690000895809590917302892380937302089501
:1046A00010927302089590917202892B8093720286
:1046B00008958095909172028923809372020895E3
:1046C00010927202089590917102892B8093710269
:1046D00008958095909171028923809371020895C5
:1046E00010927102089580916802089508950C94C3
:1046F00076230C9477239091810292FD08C09091CB
:104700006802981721F0809368020C947923089529
:1047100080916802882329F01092680280E00C944E
:1047200079230895E0911F01F09120018091730297
:104730008083E0911F01F0912001908180917202AD
:10474000892B8083E0911F01F0912001908180915D
:104750007102892B808380916802882381F0E09127
:104760001F01F09120019081892B808380911F018E
:10477000909120010E94B62481110E94882380918B
:104780001F01909120010C94BA180C9476239091FB
:10479000810292FD10C098E0899F90011124262B80
:1047A000209367020E94A9218091670285958595D3
:1047B00085950C94C5230C94A9211092670280E082
:1047C0000C94C52320916702809582238093670211
:1047D000982F977041F430E0482F082E000C550BAD
:1047E0002417350721F49091810292FF07C0859527
:1047F000859585950E94CA210C94DD23089580E05B
:1048000008956FEF7FEF80E090E00C94AB2E80E096
:1048100090E00E94872E21E08A3E9E4F09F020E022
:10482000822F089582E090E00C94792E83E090E04E
:104830000C94792ECF9384E090E00E94792EC82FBB
:1048400082E290E00E94792E2C2F30E0A901582BB3
:10485000CA01CF910895CF93C92F682F84E090E0CB
:104860000E948D2E6C2F82E290E0CF910C948D2EC1
:10487000AB01BC018FE090E00C949F2EAB01BC011A
:1048800083E190E00C949F2E60E070E0CB010C94EB
:104890003E2460E070E0CB010E9438240C94442454
:1048A0006AEE7EEF80E090E00E94AB2E60E082E056
:1048B00090E00E948D2E60E083E090E00E948D2EBB
:1048C00010926302109264021092650210926602C6
:1048D00060E084E090E00E948D2E60E082E290E053
:1048E0000E948D2E60E085E090E00E948D2E60E0B9
:1048F00086E090E00E948D2E6FEF87E090E00E94AE
:104900008D2E40E050E0BA0188E090E00E949F2E9A
:1049100060E08DE090E00E948D2E40E050E0BA0112
:1049200088E190E00E949F2E60E087E190E00E9485
:104930008D2E40E050E0BA018CE190E00E949F2E65
:1049400060E070E080E290E00E94AB2E40E050E03A
:10495000BA0188E190E00E949F2E0C9449240C94A7
:104960005024682F8EE090E00C948D2EFC0132963E
:1049700097E080E0915029F021912223D9F38F5FB5
:10498000F9CF0895662349F0FC01329608962191EB
:10499000621729F0E817F907D1F780E0089581E060
:1049A00008959C01FC0132969FEF80E041914617EB
:1049B00089F09F3F19F4411101C0982F8F5F863015
:1049C000A9F79F3F39F0F901E90FF11D97FDFA951D
:1049D0006283089508959C012A5F3F4FFC01428144
:1049E000461301C01282019682179307B9F7089502
:1049F0000C94D1240C94EB24029626E0FC01119235
:104A00002A95E9F7089508950C9403250C9403253D
:104A10000E9406250E94A9070E94042580E00E94AA
:104A20005D07811108C081E00E945D0791E081115E
:104A300003C090E001C091E0892F08950C940325F4
:104A40000C941E258091A502843059F10E942025E6
:104A500080E00E941A050E94DA101092750220E48C
:104A600088E190E00FB6F894A895809360000FBE9F
:104A70002093600083B7817F846083BF83B78160A8
:104A800083BF7894889583B78E7F83BF0FB6F894E1
:104A9000A89580916000886180936000109260000A
:104AA0000FBE08950C9403250E94531D0E94AE185A
:104AB0000E941A050E94A6110C9452251F920F9273
:104AC0000FB60F9211248F939F93AF93BF93809152
:104AD0007502811113C080919D0290919E02A09158
:104AE0009F02B091A0024196A11DB11D80939D022D
:104AF00090939E02A0939F02B093A002BF91AF91AA
:104B00009F918F910F900FBE0F901F90189582E08C
:104B100084BD93E095BD9AEF97BD80936E00089594
:104B20002FB7F89480919D0290919E02A0919F02D0
:104B3000B091A0022FBF08952FB7F89460919D0205
:104B400070919E0280919F029091A0022FBF0895C4
:104B50009C014FB7F89480919D0290919E02A09184
:104B60009F02B091A0024FBF821B930B08957894CF
:104B70001F920F920FB60F9211248F939F93AF93B2
:104B8000BF9380919D0290919E02A0919F02B0914F
:104B9000A0020196A11DB11D80939D0290939E02DB
:104BA000A0939F02B093A002BF91AF919F918F916C
:104BB0000F900FBE0F901F90189581E08093E0003A
:104BC00080E28093D8001092C9008FE19EE40197A3
:104BD000F1F700C0000087E090EBDC018093AE02AB
:104BE0009093AF02A093B002B093B1029CE088E131
:104BF0000FB6F894A895809360000FBE9093600064
:104C0000FFCF9093CF018093CE01089580917E02D3
:104C10000895CF93DF9300D01F92CDB7DEB7909168
:104C2000A502943011F589837B836A839093E90010
:104C30008FEF9091E800815095FD06C095ED9A9513
:104C4000F1F700008111F5CF8091E80085FF0DC0DC
:104C500040E050E063E070E0CE0101960E948528BC
:104C60008091E8008E778093E8000F900F900F906E
:104C7000DF91CF910895BC0184E00C940926BC011A
:104C800083E00C94092624E02093E9002FEF309173
:104C9000E800215035FD06C035ED3A95F1F70000EA
:104CA0002111F5CF2091E80025FF0BC040E050E036
:104CB00066E070E00E9485288091E8008E778093FE
:104CC000E8000895CF93DF9321E02093E9002FEFD0
:104CD0003091E800215035FD06C035ED3A95F1F7E9
:104CE00000002111F5CF2091E80025FF14C0EC0150
:104CF00040E050E068E070E00E9485288091E80084
:104D00008E778093E80088E0FE01A6E7B2E001908C
:104D10000D928A95E1F7DF91CF910895CF9360329C
:104D200019F52091A5022430F9F4C091E900CF7063
:104D30003091EC00232F217030FD20E8C22B22E0BF
:104D40002093E9002091E80020FF0BC040E050E0F4
:104D500060E270E00E9485288091E8008E77809361
:104D6000E800CF70C093E900CF9108958091A4022C
:104D7000811109C00E94612A0E94BE2A8091E2002E
:104D800084608093E20008951092A402089508952B
:104D90000895089542E061EC81E00E94DA2942E240
:104DA00061EC84E00E94DA2942E261EC82E00E9438
:104DB000DA2942E260EC83E00C94DA298091A702C0
:104DC000833009F462C030F4813071F0823009F42C
:104DD0009BC008958A3009F487C08B3009F46DC0F8
:104DE000893009F0A9C020C08091A602813A09F05B
:104DF000A3C08091E800877F8093E8008091AA0299
:104E00009091AB02892B21F468E086E792E003C021
:104E100060E080E090E070E00E941B298091E80053
:104E20008B778093E80008958091A602813209F083
:104E300083C08091AA029091AB02009719F002976B
:104E400009F07AC08091E800877F8093E800809124
:104E5000E80082FD05C08091A5028111F8CF6CC0E9
:104E60002091F3008091F20090E0922B029729F4B8
:104E70008091F1008B7F813021F48091F10080934B
:104E80007E028091E8008B7753C08091A602813A20
:104E900009F052C08091AA029091AB02892B09F0CF
:104EA0004BC08091E800877F8093E8008091E80004
:104EB00080FFFCCF80912B0136C08091A602813209
:104EC000D9F58091AA029091AB02892BA9F5809126
:104ED000E800877F8093E8000E940F2A8091A80253
:104EE00080932B010C94531D8091A602813221F5F1
:104EF0008091E800877F8093E8000E940F2A8091CC
:104F0000A90280937F0208958091A602813AA1F4BC
:104F10008091E800877F8093E8008091E80080FF1F
:104F2000FCCF80917F028093F1008091E8008E7722
:104F30008093E8000C940F2A08951F93CF93DF937A
:104F4000CDB7DEB7A0970FB6F894DEBF0FBECDBFCA
:104F500084B7877F84BF0FB6F894A89580916000CE
:104F6000886180936000109260000FBE90E080E83E
:104F70000FB6F89480936100909361000FBE0E9479
:104F80002A190E94612A0E94BE2A8091E200846050
:104F90008093E20078940E94532D0E94381981E298
:104FA00091E00E94A91813E08091A5028530A9F430
:104FB0008091A502853079F40E9422258091A30278
:104FC0008823B1F30E940825882391F30E946F285B
:104FD0000E94531DEDCF0E9454250E9442198091DA
:104FE000A502843009F51093E9008091E80082FF62
:104FF0001BC08091E80085FF0AC040E050E060E2FD
:1050000070E0CE0101960E94D02891E001C090E0AE
:105010008091E8008B778093E800992329F060E283
:10502000CE0101960E9456140E943419BDCF0C94F3
:105030001928292F332723303105C9F060F4213096
:10504000310581F02230310509F041C08BE590E057
:105050002EE434E040C021323105E1F02232310546
:1050600031F135C082E190E029EA34E034C099277B
:105070008130910549F028F0029749F5ECE1F4E020
:1050800005C0EAE4F4E002C0E4E3F4E0849190E0D7
:105090009F0121C063307105D0F4660F771FFB01BB
:1050A000E953FE4F2081318189E090E014C06330E4
:1050B000710568F4FB01EE0FFF1FEF53FE4F2081D7
:1050C0003181FB01E254FE4F808190E004C080E01A
:1050D00090E020E030E0FA0131832083089580E100
:1050E00089BD82E189BD09B400FEFDCF8091D80061
:1050F0008F7D8093D8008091E00082608093E000F3
:105100008091E00081FDFCCF0895CF92DF92EF9275
:10511000FF920F931F93CF93DF93EC018B017A01E2
:105120000E942E2A811133C0E114F10439F0F701F5
:1051300080819181081B190BC80FD91FC12CD12C5C
:105140000115110519F18091E80085FD16C08091C7
:10515000E8008E778093E800E114F10449F0F7014C
:1051600080819181C80ED91ED182C08285E00FC096
:105170000E942E2A882321F30AC089918093F1008E
:1051800001501109FFEFCF1ADF0ADACF80E0DF917B
:10519000CF911F910F91FF90EF90DF90CF900895E6
:1051A000CF92DF92EF92FF920F931F93CF93DF93F3
:1051B000EC018B017A010E942E2A811133C0E11487
:1051C000F10439F0F70180819181081B190BC80F98
:1051D000D91FC12CD12C0115110519F18091E800BE
:1051E00085FD16C08091E8008B778093E800E1147C
:1051F000F10449F0F70180819181C80ED91ED18256
:10520000C08285E00FC00E942E2A882321F30AC0A5
:105210008091F100899301501109FFEFCF1ADF0A45
:10522000DACF80E0DF91CF911F910F91FF90EF9047
:10523000DF90CF9008952091AC023091AD022617F7
:10524000370748F06115710539F42091E8002E7791
:105250002093E80001C0B901FC0120E0611571054F
:1052600079F18091A5028823F1F18530F1F18091E7
:10527000E80083FD3CC08091E80082FD2EC0809153
:10528000E80080FFEBCF2091F3008091F20090E0E6
:10529000922B6115710551F08830910538F42191F8
:1052A0002093F100615071090196F3CF21E0089736
:1052B00009F020E08091E8008E778093E800CECF5F
:1052C0002111CFCF0AC08091A502882361F08530DB
:1052D00061F08091E80083FD0AC08091E80082FFC0
:1052E000F2CF80E0089582E0089583E0089581E0A0
:1052F00008952091AC023091AD022617370748F08F
:105300006115710539F42091E8002E772093E800AB
:1053100001C0B901FC0120E06115710591F1809196
:10532000A502882309F440C0853009F43FC080916C
:10533000E80083FD3DC08091E80082FD2FC0809190
:10534000E80080FFE9CF2091F3008091F20090E027
:10535000922B6115710559F08830910540F4249124
:105360002093F1003196615071090196F2CF21E04E
:10537000089709F020E08091E8008E778093E8009C
:10538000CBCF2111CCCF0AC08091A502882361F038
:10539000853061F08091E80083FD0AC08091E800CB
:1053A00082FFF2CF80E0089582E0089583E00895BF
:1053B00081E00895982F973068F59093E900981749
:1053C00039F07091EC002091ED005091F00003C095
:1053D000242F762F50E021FD02C09F5FECCF30914B
:1053E000EB003E7F3093EB003091ED003D7F30933A
:1053F000ED003091EB0031603093EB007093EC00E6
:105400002093ED005093F0002091EE0027FDE5CFB2
:1054100080E008958F708093E90081E00895809185
:10542000A60287FF11C08091E80082FD05C080912F
:10543000A5028111F8CF11C08091E8008B770BC0D5
:105440008091A502882349F08091E80080FFF8CF81
:105450008091E8008E778093E80008952091E40021
:105460003091E50095E64091EC00842F817040FF7B
:1054700023C08091E80080FD1DC08091A502882393
:1054800099F0853099F08091EB0085FD11C0409135
:10549000E4005091E5002417350729F3915011F0ED
:1054A0009A01E1CF84E0089582E0089583E00895B1
:1054B00081E0089580E008954091E80042FFDDCF4B
:1054C00008950E94CF2A0E94D72AE0EEF0E0808162
:1054D00081608083E8EDF0E080818F77808319BC64
:1054E000A7EDB0E08C918E7F8C9380818F7E80833E
:1054F0001092A40208950F931F93CF93DF930E94FD
:10550000CF2A0E94D72AC8EDD0E088818F77888380
:1055100088818068888388818F7D888319BC1092F8
:10552000A5021092A1021092A3021092A20200EE14
:1055300010E0F80180818B7F80838881816088837F
:1055400042E060E080E00E94DA29E1EEF0E0808154
:105550008E7F8083E2EEF0E08081816080838081B5
:1055600088608083F80180818E7F8083888180615C
:105570008883DF91CF911F910F910895E8EDF0E0BE
:1055800080818F7E8083E7EDF0E080818160808381
:1055900084E082BF81E08093A4020C947B2AE8ED32
:1055A000F0E080818E7F80831092E2000895109257
:1055B000DA001092E10008951F920F920FB60F9239
:1055C00011242F933F934F935F936F937F938F9308
:1055D0009F93AF93BF93EF93FF938091E10082FF7E
:1055E0000BC08091E20082FF07C08091E1008B7FB9
:1055F0008093E1000E94522D8091DA0080FF1FC04D
:105600008091D80080FF1BC08091DA008E7F80934C
:10561000DA008091D90080FF0DC080E189BD82E170
:1056200089BD09B400FEFDCF81E08093A5020E94F0
:10563000B62605C019BC1092A5020E94C42680910E
:10564000E10080FF19C08091E20080FF15C08091C9
:10565000E2008E7F8093E2008091E200806180937F
:10566000E2008091D80080628093D80019BC85E068
:105670008093A5020E94C8268091E10084FF30C07B
:105680008091E20084FF2CC080E189BD82E189BD68
:1056900009B400FEFDCF8091D8008F7D8093D800A3
:1056A0008091E1008F7E8093E1008091E2008F7E07
:1056B0008093E2008091E20081608093E20080911B
:1056C000A102882311F084E007C08091E30087FDE8
:1056D00002C081E001C083E08093A5020E94C92638
:1056E0008091E10083FF29C08091E20083FF25C003
:1056F0008091E100877F8093E10082E08093A502A2
:105700001092A1028091E1008E7F8093E100809150
:10571000E2008E7F8093E2008091E20080618093BE
:10572000E20042E060E080E00E94DA298091F0002F
:1057300088608093F0000E94C726FF91EF91BF918F
:10574000AF919F918F917F916F915F914F913F9119
:105750002F910F900FBE0F901F9018951F920F92D0
:105760000FB60F9211242F933F934F935F936F9334
:105770007F938F939F93AF93BF93CF93DF93EF93D9
:10578000FF93C091E900CF708091EC00D82FD170C9
:1057900080FDD0E81092E9008091F000877F80932F
:1057A000F00078940E94F22B1092E9008091F000B2
:1057B00088608093F000CD2BCF70C093E900FF91FB
:1057C000EF91DF91CF91BF91AF919F918F917F9199
:1057D0006F915F914F913F912F910F900FBE0F905E
:1057E0001F9018951F93CF93DF93CDB7DEB7AA977D
:1057F0000FB6F894DEBF0FBECDBFE6EAF2E08091AF
:10580000F100819322E0EE3AF207C9F70E94DE260A
:105810008091E80083FF2EC18091A6029091A7029B
:10582000492F50E04A30510508F024C1FA01E957E8
:10583000FF4F0C94D22D803821F0823809F01AC124
:1058400008C08091A2029091A302992389F08260FE
:105850000FC08091AA028F70873008F00BC180932F
:10586000E9008091EB0085FB882780F91092E90020
:105870009091E800977F9093E8008093F100109258
:10588000F100D1C0282F2D7F09F0F4C0882319F032
:10589000823061F0EFC08091A802813009F0EAC047
:1058A000933009F080E08093A3022EC08091A8027B
:1058B00081112AC08091AA028F702FEF280F263005
:1058C00008F0D8C08093E9002091EB0020FF1CC0B5
:1058D000933021F48091EB00806214C09091EB0032
:1058E00090619093EB0021E030E0A90102C0440FE9
:1058F000551F8A95E2F74093EA001092EA008091E2
:10590000EB0088608093EB001092E9008091E80042
:10591000877F8093E8000E940F2AACC08111AAC043
:105920001091A8021F778091E3008078812B8093EB
:10593000E3008091E800877F8093E8000E940F2AAF
:105940008091E80080FFFCCF8091E3008068809325
:10595000E300111102C082E001C083E08093A50240
:1059600089C08058823008F085C08091A80290914B
:10597000A9028C3D53E0950779F583E08A838AE29A
:1059800089834FB7F894DE01139620E03EE051E2A0
:10599000E32FF0E050935700E49120FF03C0E2951D
:1059A000EF703F5FEF708E2F90E0EA3010F0C796F7
:1059B00001C0C0968D939D932F5F243149F74FBF4F
:1059C0008091E800877F8093E8006AE270E0CE0172
:1059D00001960E941B2916C06091AA027091AB0229
:1059E000AE014F5F5F4F0E941728BC01892B09F45D
:1059F00041C09091E800977F9093E80089819A8157
:105A00000E9479298091E8008B778093E80032C06A
:105A1000803881F58091E800877F8093E80080914D
:105A2000A1028093F1008091E8008E7772CF8111FE
:105A300021C08091A8029091A90299270297D4F4DD
:105A40008091E800877F8093E8008091A80280938E
:105A5000A1020E940F2A8091A102811106C08091AB
:105A6000E30087FD02C081E001C084E08093A502CD
:105A70000E94CA268091E80083FF0AC08091E80056
:105A8000877F8093E8008091EB0080628093EB0039
:105A9000AA960FB6F894DEBF0FBECDBFDF91CF91AF
:105AA0001F9108950895CF938091A5028823A1F0B6
:105AB000C091E900CF709091EC00892F817090FD2A
:105AC00080E8C82B1092E9008091E80083FD0E94D5
:105AD000F22BCF70C093E900CF910895991B79E024
