:100000000C9401080C9448080C9448080C94480877
:100010000C9448080C9448080C9448080C94480820
:100020000C9448080C9448080C9415300C94E73054
:100030000C9448080C9448080C9448080C94480800
:100040000C9448080C94342A0C9448080C944808E2
:100050000C9448080C94D3290C9448080C94480834
:100060000C9448080C9448080C9448080C944808D0
:100070000C9448080C9448080C9448080C944808C0
:100080000C9448080C9448080C9448080C944808B0
:100090000C9448080C9448080C9448080C944808A0
:1000A0000C9448080C9448080C944808DF11CD11B2
:1000B000E6116B1098129812CA1198129812151224
:1000C00098122B129812981298129812981259128C
:1000D00098129812461298120112981260109212F9
:1000E00092129212921292129212921292129212F0
:1000F00094129812DF11C311981298129812981244
:1001000098129812981298129812981294129812A3
:100110009812CA1198129012901290129012901286
:1001200090129012901290129412BF17C217E217F9
:10013000F317FB1706184C184C184C184C184C1891
:1001400009180C1811181E182B182E1832183F18E1
:10015000661F661F981F981FE51F03202421242176
:100160000E20A320B420B4201421242124211D21F9
:10017000C421C421D621D621CD21D621D621D621F4
:10018000C421C421D221D621D621D22154317B31A0
:1001900073327B317332C731EA31733241325032BC
:1001A00029001E001F00200021002200230024003F
:1001B0002500260027002D002E0000002A00000048
:1001C0002B0014001A000800150017001C0018006E
:1001D0000C00120013002F003000000031002C0032
:1001E000390004001600070009000A000B000D008A
:1001F0000E000F00330034000000280000002C0027
:10020000E10000001D001B000600190005001100A0
:100210001000360037003800E100000052002C00CA
:10022000E000E300E2000000000000002C000000FD
:10023000000000000000E0005000000051004F00EE
:1002400029001E001F00200021002200230024009E
:100250002500260027002D002E0000002A000000A7
:100260002B0014001A000800150017001C001800CD
:100270000C00120013002F003000000031002C0091
:10028000390004001600070009000A000B000D00E9
:100290000E000F00330034000000280000002C0086
:1002A000E10000001D001B00060019000500110000
:1002B0001000360037003800E100000052002C002A
:1002C000E000E300E2000000000000002C0000005D
:1002D000000000000000E0005000000051004F004E
:1002E00029001E001F0020002100220023002400FE
:1002F0002500260027002D002E0000002A00000007
:100300002B0014001A000800150017001C0018002C
:100310000C00120013002F003000000031002C00F0
:10032000390004001600070009000A000B000D0048
:100330000E000F00330034000000280000002C00E5
:10034000E10000001D001B0006001900050011005F
:100350001000360037003800E100000052002C0089
:10036000E000E300E2000000000000002C000000BC
:10037000000000000000E0005000000051004F00AD
:1003800029001E001F00200021002200230024005D
:100390002500260027002D002E0000002A00000066
:1003A0002B0014001A000800150017001C0018008C
:1003B0000C00120013002F003000000031002C0050
:1003C000390004001600070009000A000B000D00A8
:1003D0000E000F00330034000000280000002C0045
:1003E000E10000001D001B000600190005001100BF
:1003F0001000360037003800E100000052002C00E9
:10040000E000E300E2000000000000002C0000001B
:10041000000000000000E0005000000051004F000C
:1004200044454255473A2064697361626C65642EA5
:100430000A0044454255473A20656E61626C656426
:100440002E0A0000000000000000002A2B280000F7
:100450000000000000000000000000000000290073
:100460000000002C1E3420212224342627252E367D
:100470002D3738271E1F20212223242526333336EB
:100480002E37381F0405060708090A0B0C0D0E0F3E
:10049000101112131415161718191A1B1C1D2F31C1
:1004A00030232D350405060708090A0B0C0D0E0F25
:1004B000101112131415161718191A1B1C1D2F31A1
:1004C00030354C000000000000000000000000007B
:1004D000000000000000000000000000000000001C
:1004E000000000000000007E0F00D4FFFFFFC700E7
:1004F0000000780A002530313662003A20002530AD
:100500003258000A722F6320303132333435363797
:1005100038394142434445460A006D6B5F77686550
:10052000656C5F74696D655F746F5F6D6178203DA8
:100530002025640A006D6B5F776865656C5F6D618F
:10054000785F7370656564203D2025640A006D6BDB
:100550005F74696D655F746F5F6D6178203D202504
:10056000640A006D6B5F6D61785F73706565642010
:100570003D2025640A006D6B5F696E74657276615B
:100580006C203D2025640A006D6B5F64656C6179A9
:10059000203D2025640A006D6B5F776865656C5FA0
:1005A00074696D655F746F5F6D6178203D202564AF
:1005B0000A006D6B5F776865656C5F6D61785F736E
:1005C00070656564203D2025640A006D6B5F746969
:1005D0006D655F746F5F6D6178203D2025640A0052
:1005E0006D6B5F6D61785F7370656564203D20257C
:1005F000640A006D6B5F696E74657276616C203D94
:100600002025640A006D6B5F64656C6179203D2074
:1006100025640A000A00257500363A20776865656A
:100620006C5F74696D655F746F5F6D61783A20000F
:100630000A00257500353A20776865656C5F6D6145
:10064000785F73706565643A20000A002575003490
:100650003A2074696D655F746F5F6D61783A200050
:100660000A00257500333A206D61785F7370656507
:10067000643A20000A00257500323A20696E7465DC
:100680007276616C286D73293A20000A0025750086
:10069000313A2064656C6179282A31306D73293ACA
:1006A00020000A092D2056616C756573202D0A0003
:1006B0004D3E004D25643E20003F0073657420646C
:1006C000656661756C740A00433E20007768657248
:1006D000652064656C74613A20637572736F723D56
:1006E00025642C20776865656C3D25640A53656533
:1006F00020687474703A2F2F656E2E77696B69705D
:10070000656469612E6F72672F77696B692F4D6F12
:100710007573655F6B6579730A000A092D204D6F4B
:100720007573656B6579202D0A4553432F713A091E
:10073000717569740A313A0964656C6179282A31E6
:10074000306D73290A323A09696E74657276616C8C
:10075000286D73290A333A096D61785F7370656596
:10076000640A343A0974696D655F746F5F6D61780E
:100770000A353A09776865656C5F6D61785F7370FB
:100780006565640A363A09776865656C5F74696DFA
:10079000655F746F5F6D61780A0A703A09707269FB
:1007A0006E742076616C7565730A643A09736574BA
:1007B0002064656661756C74730A75703A092B3133
:1007C0000A646F776E3A092D310A706775703A09BD
:1007D0002B31300A7067646F776E3A092D31300A19
:1007E0000A7370656564203D2064656C7461202A1D
:1007F000206D61785F7370656564202A20287265BA
:1008000070656174202F2074696D655F746F5F6D12
:100810006178290A003F004D3E2000433E20004CF5
:1008200025640A0074696D65725F726561643332B4
:1008300028293A202530346C580A006B6579626F9C
:100840006172645F69646C653A2025580A006B65C3
:1008500079626F6172645F70726F746F636F6C3A0C
:100860002025580A00686F73745F6B6579626F6149
:1008700072645F6C65647328293A2025580A000A5F
:10088000092D20537461747573202D0A004743436A
:100890003A20352E342E30204156522D4C494243B9
:1008A0003A20322E302E30204156525F415243487A
:1008B0003A20617672350A004F5054494F4E533AF0
:1008C000204C554641204D4F5553454B45592045E9
:1008D000585452414B455920434F4E534F4C45209D
:1008E000434F4D4D414E4420343039360A00425575
:1008F000494C443A2020284A756C20323820323046
:100900003231290A005649443A2030783737363494
:100910002857656972646F29205049443A2030781D
:100920003534343728746967657239313029205677
:1009300045523A203078303030310A000A092D20F3
:1009400056657273696F6E202D0A000A092D2043C7
:100950006F6E736F6C65202D0A4553432F713A09F2
:10096000717569740A6D3A096D6F7573656B657998
:100970000A000A092D204D61676963202D0A443A57
:10098000094465627567204D65737361676520541E
:100990006F67676C650A583A094D6174726978200F
:1009A0004465627567204D6F646520546F67676C9E
:1009B00065202D2053686F77206B657970726573A1
:1009C00073657320696E206D617472697820677237
:1009D00069640A4B3A094B6579626F61726420441D
:1009E0006562756720546F67676C65202D205368BA
:1009F0006F77206B65797072657373207265706FA5
:100A000072740A4D3A094465627567204D6F7573BB
:100A10006520546F67676C650A563A0956657273AC
:100A2000696F6E0A533A095374617475730A433AD5
:100A300009416374697661746520436F6E736F6CEE
:100A400065204D6F64650A46312D4631303A0953B1
:100A5000776974636820746F204C61796572203007
:100A60002D392028463130203D204C30290A302DA8
:100A7000393A0953776974636820746F204C61793F
:100A8000657220302D390A47524156453A0953774D
:100A90006974636820746F204C617965722030201E
:100AA00028616C7465726E617465290A423A094A5C
:100AB000756D7020746F20426F6F746C6F61646528
:100AC000720A4553433A094A756D7020746F20428B
:100AD0006F6F746C6F616465722028616C746572ED
:100AE0006E617465290A453A095072696E74204531
:100AF0004550524F4D2053657474696E67730A42B6
:100B000053504143453A09436C6561722045455055
:100B1000524F4D0A5A3A09536C656570204C454452
:100B200020546573740A000A002575002E6E6B72DE
:100B30006F3A20000A002575002E737761705F629E
:100B400061636B736C6173685F6261636B73706127
:100B500063653A20000A002575002E737761705F87
:100B600067726176655F6573633A20000A002575D8
:100B7000002E6E6F5F6775693A20000A00257500C8
:100B80002E737761705F72616C745F726775693A1A
:100B900020000A002575002E737761705F6C616C10
:100BA000745F6C6775693A20000A002575002E7322
:100BB0007761705F7263746C5F726775693A200069
:100BC0000A002575002E737761705F6C63746C5F2B
:100BD0006C6775693A20000A002575002E63617004
:100BE000736C6F636B5F746F5F636F6E74726F6C47
:100BF0003A20000A002575002E737761705F636FDD
:100C00006E74726F6C5F636170736C6F636B3A20AC
:100C1000000A0025303258006B65796D61705F63A2
:100C20006F6E6669672E7261773A20000A0025753B
:100C3000002E6D6F7573653A20000A002575002E31
:100C40006B6579626F6172643A20000A0025750055
:100C50002E6D61747269783A20000A002575002EA5
:100C6000656E61626C653A20000A002530325800DA
:100C700064656275675F636F6E6669672E72617720
:100C80003A20000A0025750064656661756C745F22
:100C90006C617965723A20003F000A6D6F7573656B
:100CA0003A206F66660A000A6D6F7573653A206FA9
:100CB0006E0A000A6B6579626F6172643A206F6632
:100CC000660A000A6B6579626F6172643A206F6E22
:100CD0000A000A6D61747269783A206F66660A00CC
:100CE0000A6D61747269783A206F6E0A000A646551
:100CF0006275673A206F66660A000A646562756706
:100D00003A206F6E0A000A0A4A756D70696E672094
:100D1000746F20626F6F746C6F616465722E2E2E1B
:100D20002000433E2000436C656172696E67204578
:100D30004550524F4D0A006565636F6E6669673AAC
:100D40000A00536C656570204C45442054657374EB
:100D50000A00290A002575002F002575005D28006E
:100D60002564002000256400200025640020002563
:100D700064007C0025303258006D6F7573656B65BB
:100D800079205B62746E7C782079207620685D28FB
:100D90007265702F61636C293A205B000A00253070
:100DA000325820006B6579626F6172645F726570A2
:100DB0006F72743A20000A0025303258006B657952
:100DC000626F6172645F7365745F6C65643A200082
:100DD0004F6E6573686F743A206163746976653A23
:100DE0002025640A00000000000000000000000050
:100DF000010204060A0F17202C3A4A5D71879DB341
:100E0000C7DAE9F5FCFFFCF5E9DAC7B39D87715D48
:100E10004A3A2C20170F0A060402010000000000C5
:100E200000000000005B735D004B6579626F6172CA
:100E3000642073746172742E0A005B575D005B530B
:100E40005D005B525D005B445D005B435D0012032F
:100E500074006900670065007200390031003000DD
:100E600000000E03570065006900720064006F0007
:100E700000000403090409027B00040100A0FA0930
:100E800004000001030101000921110100012240B9
:100E9000000705810308000A09040100020300009D
:100EA0000009211101000122220007058203200010
:100EB00001070503032000010904020001030000EB
:100EC00000092111010001227B0007058403200095
:100ED0000A090403000203000000092111010001B6
:100EE00022220007058503200001070505032000D5
:100EF000011201100100000008647747540100014D
:100F00000200010631FF0974A1010975150026FFD1
:100F1000009520750881020976150026FF009520AE
:100F200075089102C00660FF0961A1010962150000
:100F300026FF009520750881020963150026FF0031
:100F4000952075089102C005010902A101850209D9
:100F500001A1000509190129081500250195087549
:100F60000181020501093009311581257F9502753E
:100F700008810609381581257F95017508810605C8
:100F80000C0A38021581257F950175088106C0C0BD
:100F900005010980A101850319012AB70015012661
:100FA000B700950175108100C0050C0901A10185EC
:100FB0000419012AA002150126A0029501751081CD
:100FC00000C005010906A101050719E029E7150080
:100FD00025019508750181029501750881010507B4
:100FE000190029FF150026FF0095067508810005E8
:100FF000081901290595057501910295017503915F
:1010000001C011241FBECFEFDAE0DEBFCDBF04B6B2
:1010100003FE27C08091920290919302A0919402C6
:10102000B09195028730904BA740B04BD1F410920D
:10103000920210929302109294021092950214BEA2
:1010400084B7877F84BF0FB6F894A895809160001D
:10105000886180936000109260000FBEE0E0F8E3CA
:10106000099511E0A0E0B1E0E6E5F6E602C00590E2
:101070000D92AA3AB107D9F722E0AAEAB1E001C07D
:101080001D92A239B207E1F70E94CC2C0C942933AF
:101090000C940000FF93EF93E091AA01F091AB0153
:1010A000309709F00995EF91FF910895FC01859122
:1010B000803011F0EFDFFBCF0895FF27E0E230E250
:1010C00047FF0CC0419597FF09C0EDE26095709510
:1010D00080959095611D711D811D911D27FF02C096
:1010E000219530E350E2AA27660F771F881F991FCA
:1010F000AA1FA41710F0A41B63955A95A9F7AA304C
:1011000008F0A95FA05DAF93F395611571058105A6
:10111000910541F7ED3211F4EF93F395F21718F4BE
:101120003F93F395FBCF8F91B5DFFA95E1F70895E3
:10113000E991F9918591803021F0853219F0AADF8B
:10114000F9CF089520E0E89455915532C1F350331A
:1011500011F4689455915A3348F4505390F3220F88
:10116000022E220F220F200D250FF4CF0EF4219511
:1011700089919991533619F3533729F1533559F120
:10118000BC0188279927E8945C3621F489919991CC
:1011900068945591543639F446EF7EF077FF0DC0D0
:1011A0008FEF9FEF0AC055374AE039F0583540E1DC
:1011B00021F0523642E009F00895FF93EF937DDF6E
:1011C000EF91FF91B7CFFF93EF93FC0181918030B6
:1011D000B9F360DFFBCFFF93EF9368DFF1CFDF93CD
:1011E000CF93CDB7DEB72596A3DFCF91DF910895DA
:1011F00081E0089581E008950C94FA0808950C9414
:10120000FE081F93CF93DF9300D000D01F92CDB77D
:10121000DEB749835A836B833091DB0189819A81E0
:10122000311114C0662359F0222349F00E94FD2693
:10123000182F682F89819A810E94A62603C00E94D8
:10124000D126182F69817A81812F04C00E94FD2642
:1012500069817A810F900F900F900F900F90DF911E
:10126000CF911F910C941E19FC01262F40815181B2
:101270006281738184810C940109CF93DF93EC0127
:1012800060E00E943409BE01DF91CF910C94FF0809
:101290008F929F92AF92BF92CF92DF92EF92FF9286
:1012A0000F931F936B017C0181E090E0A0E0B0E020
:1012B0004C015D0104C0880C991CAA1CBB1C4A95FA
:1012C000D2F7AC01BD0104C0440F551F661F771F44
:1012D0002A95D2F7482959296A297B2904C0880F01
:1012E000991FAA1FBB1F0A95D2F78A019B010C21E7
:1012F0001D212E213F21401751076207730739F442
:10130000BC01CD016C297D298E299F290AC08095B9
:101310009095A095B095BC01CD016C217D218E21C9
:101320009F211F910F91FF90EF90DF90CF90BF9082
:10133000AF909F908F9008950F93382F262F609134
:101340004602709147028091480290914902042F11
:10135000432F0E9448090F910C94E2250E94560DDC
:101360000C94D90D0C94D50D08950E94B2210E94C1
:10137000B4092FEF84E39CE0215080409040E1F7D6
:1013800000C000000C94F9290F931F93CF93DF93B3
:101390008C0161E00E943409EC01B8010E946E17D3
:1013A000882309F462C0B801CE010E94FC0888239A
:1013B00009F45BC0B801CE010E94531A882309F4D6
:1013C00054C0B801CE010E94A51A882309F44DC06B
:1013D000B801CE010E94D01B882309F446C0F80151
:1013E00082818823D9F1CE3D8CE5D80779F140F48C
:1013F000C115FCE5DF0791F0C130DC4591F02EC04E
:10140000CB35EDE5DE0741F1CC35FDE5DF0709F130
:10141000CA35DD4519F50E94AD2720C00E94B509E7
:1014200024C080915B02C82FC095C170C0FB80F9B9
:1014300080935B02CC2329F082E394E00E9456085B
:1014400014C080E294E00E94560810C00E94202937
:101450000CC00E94A42702C00E94B027C801DF91DF
:10146000CF911F910F910C94F808C0E08C2FDF9161
:10147000CF911F910F910895DF92EF92FF920F93FA
:101480001F93CF93DF93E82FF0E0ED5BFB4FD490F9
:10149000282F26952695269530E0F901ED51FB4F32
:1014A0000491877010E0082E02C0159507950A94E4
:1014B000E2F701701127F901ED52FB4FE490F12C96
:1014C000082E02C0F594E7940A94E2F791E0E9222D
:1014D000FF24F901ED53FB4FC491D0E002C0D59534
:1014E000C7958A95E2F7C170DD270115110519F03E
:1014F00081EE0E94EE1DE114F10419F086EE0E94C7
:10150000EE1D8D2D0E941C1FEF2819F086EE0E9403
:101510009D1E012B19F081EE0E949D1ECD2B51F0D6
:101520008CE2DF91CF911F910F91FF90EF90DF90B0
:101530000C941C1FDF91CF911F910F91FF90EF90A2
:10154000DF900895EF92FF920F931F93CF93DF9355
:10155000EC01162F0AE08881882309F455C08130F8
:1015600009F043C08981813041F47E0182E0E80EB8
:10157000F11C8A810E941C1F09C0823049F47E013F
:10158000E2E0EE0EF11C8A810E94EE1DE7012FC001
:10159000833041F47E01F2E0EF0EF11C8A810E945B
:1015A0009D1EF4CF843011F0219621C02A8122960D
:1015B00080E090E030E0205331092A30310558F4C2
:1015C000089FA001099F500D1124C901840F951F88
:1015D00021962881EFCF009751F0EFE9FFE0319796
:1015E000F1F700C000000197F6CF0E943C0A219657
:1015F000812F882309F4AFCFEFE9FFE03197F1F7AE
:1016000000C000008150F5CFDF91CF911F910F9165
:10161000FF90EF90089560E00C94A20A8295982FB5
:10162000937344E0949F900111248C7C8695869559
:10163000282B822F8575880F2A7A2695822B08956C
:10164000CF93DF93D92F0E940E0BC82F8D2F0E94AE
:101650000E0B2C2F30E0322F2227A901482BCA0174
:10166000DF91CF91089508950C94330B81E0089594
:101670000C94360BCF93C82F0E94340B8C2F0E94F2
:10168000380BCF91089580E090E008950895880F79
:10169000991FFC01ED50FB4F859194910895CF93D4
:1016A000DF930E941E190E94670CEC018115904582
:1016B00008F041C0C11580E4D80708F0D1C0C83E89
:1016C000D10510F5C03ED10508F0FDC0C83AD105DE
:1016D00078F4C53AD10508F0A2C0C130D10509F4AB
:1016E000F2C008F4EEC0C430D10508F0ECC0E9C087
:1016F000CF3BD10508F49BC0C03CD10508F4E1C044
:10170000CE01805C91099EC0C11590E2D90758F4C2
:10171000C11521E0D20708F0D6C0C03FD10508F4BA
:10172000D0C0D065D0C0C11580E3D80708F08EC006
:10173000CE019F7087C0C11595E5D90708F043C059
:10174000C11524E5D20708F0A2C0C11582E5D8076B
:1017500008F5C11591E5D90708F085C0CE0174E000
:10176000969587957A95E1F783709C2F937021E089
:1017700030E002C0220F331F9A95E2F73C68382B05
:10178000CF70C695C69580E2C89FE0011124C22B98
:10179000D32B99C09E01237033278C2F8695869575
:1017A000C115D34508F064C0C1E0D0E002C0CC0F41
:1017B000DD1F2A95E2F720E2829FC0011124C82B89
:1017C000D92BDC6880C0C11529E5D207A0F4C1156A
:1017D00088E5D80708F060C0C11596E5D90708F07C
:1017E00070C08C2F0E94FB0C8F71C82FD0E0DC2FB3
:1017F000CC27D06268C0C1152AE5D20708F451C0D1
:10180000CE0190568115904208F05BC08D2F8F71EC
:101810000E94FB0CDD27D0628F71D82B54C0C55AB3
:10182000D0E0CD5BDE4FC881D0E0D0644CC0C85A58
:10183000D0E0CC0FDD1FCB5EDE4F0990D881C02DEC
:10184000D46441C00E94470BEC013DC0CE019927F2
:10185000D3FF03C0EC01D86C36C0EC01D06C33C0B0
:10186000DF70D06A30C0DC2FCC27C16FD06A2BC0AC
:10187000C1E0D0E002C0CC0FDD1F2A95E2F720E2E4
:10188000829FC0011124C82BD92BDA681CC0DC2F21
:10189000CC27C46FD06A17C0DC2FCC27C06FD06AAA
:1018A00012C08C2F8F700E94FB0C94E0D695C795C8
:1018B0009A95E1F7CF70D0E0DC2FCC27D069C82B08
:1018C00002C0C0E0D0E0CE01DF91CF910895823810
:1018D000910569F1B0F48133910509F46DC048F4C4
:1018E0008932910509F463C08A32910509F469C00F
:1018F00008958533910509F455C089339105B9F0F0
:101900000895833E910569F138F4803E9105B1F068
:10191000823E910509F10895863E9105A9F1873E21
:101920009105B9F1843E910509F064C023C020916E
:101930006B0220FD4FC021FD4DC0089580916B02C8
:1019400080FD44C080916C0280FF44C080916B0296
:1019500084FD42C083EE4DC080916B0282FF38C08F
:10196000F5CF80916B0282FD33C080916C0280FDC7
:1019700031C0ECCF80916C0281FF32C080916B024C
:1019800084FD2AC087EE35C080916B0283FF26C09C
:10199000F5CF80916B0283FD21C080916C0281FDA7
:1019A0001FC0ECCF80916B0285FD1CC01DC08091D3
:1019B0006B0285FD19C016C080916B0286FD16C0B2
:1019C00017C080916B0286FD13C010C089E311C05F
:1019D00082EE0FC080EE0DC080E00BC086EE09C025
:1019E00084EE07C089E205C085E303C08AE201C036
:1019F00081E390E0089590916B0292FF0DC0282F33
:101A00002871283019F4877F846006C0282F24713C
:101A1000243011F48B7F886093FF0DC0282F28712C
:101A2000283119F4877E846106C0282F247124315F
:101A300011F48B7E886120916C0220FF0DC0382F3D
:101A40003871383019F4877F816006C0382F3171C2
:101A5000313011F48E7F886021FF0DC0282F28714E
:101A6000283119F4877E816106C0282F2171213128
:101A700011F48E7E886194FD877E08950C9448173A
:101A80000E94240E8FE39CE90197F1F700C000004B
:101A90000E94240E80E00E947A0D80FF04C00E9404
:101AA0003E0D0C94F92908950C94400D0E9478285D
:101AB000811102C00E9420290E94832880935B022A
:101AC0000E948B2890936C0280936B020E94540DAD
:101AD0000E948728682F70E080E090E00E94A8258F
:101AE00060914602709147028091480290914902AC
:101AF0000C94E025E82FF0E0EE0FFF1FE958FD4FB2
:101B0000808191810895CF92DF92EF92FF920F939F
:101B10001F93CF93DF9383E095E00E94560887E7F9
:101B2000E82E82E0F82EC0E0D0E09EEFC92E94E0CF
:101B3000D92E05EF14E0DF93CF93DF92CF920E946E
:101B4000EF088BEF94E00E945608F7018191919184
:101B50007F010E94200B9F938F931F930F930E94EE
:101B6000EF0883EF94E00E94560821968DB79EB748
:101B700008960FB6F8949EBF0FBE8DBFC530D10535
:101B8000D1F6DF91CF911F910F91FF90EF90DF90F1
:101B9000CF90089580EA8A95F1F7089500C00895DE
:101BA0000C94CA0D08950C94D20D0C94D30D0C9482
:101BB000D20D0C94D70DF894E82FE295EF70F0E079
:101BC00031A1282F2F7081E090E001C0880F2A9565
:101BD000EAF7982F9095932391A392A1892B82A342
:101BE000789408950F931F93CF93DF93C6E4D1E0C9
:101BF00006E511E089910E94DB0D0C171D07D1F756
:101C000080E30E94DB0D81E30E94DB0D82E30E94F2
:101C1000DB0D83E30E94DB0D84E30E94DB0DEDE628
:101C2000F2E0A7E7B2E0119211921D921D9282E0BC
:101C3000E737F807C1F785E00E94BF0EDF91CF912B
:101C40001F910F910C94AE094F925F927F928F92E9
:101C50009F92AF92BF92CF92DF92EF92FF920F933B
:101C60001F93CF93DF9396E4E92E91E0F92E00E0E5
:101C700010E0C0E0CC24C394D12C37E7A32E32E08F
:101C8000B32E4701D7018C91F894E82FE295EF70BD
:101C9000F0E021A18F70A60102C0440F551F8A9564
:101CA000E2F7CA01922F982B91A392A180958923E4
:101CB00082A378940E94CE0DA601002E02C0440F8C
:101CC000551F0A94E2F7BA0160957095EDE6F2E0CF
:101CD00086E5482E81E0582ED0E020813181D20166
:101CE0007D902D01872D82958F7090E0DC0190967C
:101CF0008C9190E0B72DBF7002C095958795BA95ED
:101D0000E2F780FD04C0C901842B952B03C0C901F3
:101D1000862397232817390719F091838083D1E010
:101D20003296AE16BF06C9F6EFEFEE1AFE0AD401E0
:101D30008C910E94DB0D0E94D00DCD2B0F5F1F4FA9
:101D40000031110509F09DCF2C2F45E067E772E0C7
:101D50008DE692E00E94C00E0E94B2098C2FDF91A6
:101D6000CF911F910F91FF90EF90DF90CF90BF9098
:101D7000AF909F908F907F905F904F9008950895BF
:101D8000FF920F931F93CF93DF93F82E092F162FF7
:101D9000D72FC42F222349F081E08093AE010E9407
:101DA000AC299093AD018093AC018091AE01882362
:101DB000D9F08091AC019091AD010E94C4290697A1
:101DC00098F0EF2DF02FA12FBD2F80E090E04C2F49
:101DD00050E08417950734F4219131912D933D9370
:101DE0000196F7CF1092AE01DF91CF911F910F9125
:101DF000FF9008958AE197E00E9456081F9281E0C3
:101E00008F931F9285E08F938CEC96E09F938F9336
:101E10000E94EF080F900F900F900F900F900F906F
:101E200008958330E9F128F4813061F0823009F1BE
:101E30000895853009F462C008F449C0863009F479
:101E400074C0089580910701262F30E0280F311DBE
:101E50002F3F310524F4680F6093070103C08FEF13
:101E600080930701809107011F928F9385E096E090
:101E700072C080910601262F30E0280F311D2F3FC0
:101E8000310524F4680F6093060103C08FEF80933F
:101E90000601809106011F928F9383EF95E05BC04E
:101EA00080910501262F30E0280F311D2F3F31058D
:101EB00024F4680F6093050103C08FEF8093050140
:101EC000809105011F928F9380EE95E044C0809130
:101ED0000401262F30E0280F311D2F3F310524F457
:101EE000680F6093040103C08FEF80930401809119
:101EF00004011F928F938BEC95E02DC0809101011E
:101F0000262F30E0280F311D2F3F310524F4680FB4
:101F10006093010103C08FEF809301018091010163
:101F20001F928F9382EB95E016C080910001262FBF
:101F300030E0280F311D2F3F310524F4680F6093E6
:101F4000000103C08FEF80930001809100011F9278
:101F50008F9387E995E09F938F930E94EF080F90EE
:101F60000F900F900F900895833081F128F4813005
:101F700059F08230D1F00895853009F449C0B8F1A4
:101F8000863009F456C0089580910701681720F43F
:101F9000861B8093070102C0109207018091070100
:101FA0001F928F9388E895E054C0809106016817CE
:101FB00020F4861B8093060102C0109206018091D6
:101FC00006011F928F9386E795E043C0809105013B
:101FD000681720F4861B8093050102C0109205014A
:101FE000809105011F928F9383E695E032C0809126
:101FF0000401681720F4861B8093040102C010922C
:102000000401809104011F928F938EE495E021C01A
:1020100080910101681720F4861B8093010102C0A2
:1020200010920101809101011F928F9385E395E049
:1020300010C080910001681720F4861B8093000176
:1020400002C010920001809100011F928F938AE1DB
:1020500095E09F938F930E94EF080F900F900F9041
:102060000F900895CF93C82F1F928F938FE198E020
:102070009F938F930E94EF0881E090E0A0E0B0E092
:10208000BC01CD0104C0660F771F881F991FCA9538
:10209000D2F70E94A8250F900F900F900F90CF912C
:1020A0000C94B221CF93DF93482F50E0FA0135977B
:1020B000EF33F10508F03CC2EA5AFF4F0C94C632E8
:1020C00082E49DE00E9456080E942D2A0E94061C70
:1020D0000E943A0B56C187E39DE00E94560888E8AB
:1020E0009CE00E9456080E9487281F928F9385E8E3
:1020F0009CE09F938F930E94EF0883E89CE00E94EE
:1021000056080E948328C82F80E79CE00E9456084A
:102110001F92CF938BE69CE09F938F930E94EF08D2
:1021200089E69CE00E9456088FE59CE00E945608D4
:102130008C2F81701F928F938CE59CE09F938F93DF
:102140000E94EF088AE59CE00E94560880E59CE02A
:102150000E945608C1FB882780F91F928F938DE457
:102160009CE09F938F930E94EF088BE49CE00E9479
:1021700056088FE39CE00E945608C2FB882780F92E
:102180001F928F938CE39CE09F938F930E94EF08A4
:102190008AE39CE00E94560881E39CE00E94560876
:1021A000C3FBCC27C0F91F92CF938EE29CE09F9394
:1021B0008F930E94EF088CE29CE00E9456080E94D8
:1021C0008B28EC0188E19CE00E945608DF93CF93B6
:1021D00083E19CE09F938F930E94EF0881E19CE054
:1021E0000E94560888EF9BE00E9456088C2F817051
:1021F0001F928F9385EF9BE09F938F930E94EF0830
:102200008DB79EB780960FB6F8949EBF0FBE8DBF58
:1022100083EF9BE00E9456088CED9BE00E945608DD
:10222000C1FB882780F91F928F9389ED9BE09F93D4
:102230008F930E94EF0887ED9BE00E94560885EC83
:102240009BE00E9456088D2F81701F928F9382EC25
:102250009BE09F938F930E94EF0880EC9BE00E948D
:1022600056088EEA9BE00E945608D695D1701F92C0
:10227000DF938BEA9BE09F938F930E94EF0889EA9C
:102280009BE00E94560887E99BE00E945608C2FB2B
:10229000882780F91F928F9384E99BE09F938F9307
:1022A0000E94EF0882E99BE00E94560880E89BE0CC
:1022B0000E945608C3FB882780F91F928F938DE7F1
:1022C0009BE09F938F930E94EF088BE79BE00E9417
:1022D000560881E79BE00E945608C4FB882780F9D6
:1022E0001F928F938EE69BE09F938F930E94EF083F
:1022F0008CE69BE00E9456088AE59BE00E94560807
:10230000C5FB882780F91F928F9387E59BE09F93F9
:102310008F930E94EF0885E59BE00E94560889E3B1
:102320009BE00E945608C6FB882780F91F928F9376
:1023300086E39BE09F938F930E94EF088DB79EB733
:1023400080960FB6F8949EBF0FBE8DBF84E39BE0CE
:102350000E9456088CE29BE00E945608C7FBCC27DF
:10236000C0F91F92CF9389E29BE09F938F930E94C5
:10237000EF0887E29BE00E9456080F900F900F90A5
:102380000F90C1E0DAC086E29DE00E9456080E94EC
:102390002029F7CF82E799E05BC080915B02817FC3
:1023A0008E7F80935B028BE499E00E94560882E264
:1023B0009DE00E94560881E08093B001E2CF86E064
:1023C0009DE00E9456080E94B509DBCF80915B0218
:1023D000C82FC095C170C0FB80F980935B02CC23ED
:1023E00029F08AEF9CE00E945608A7C08DEE9CE081
:1023F0000E94560880915B02897F877F80935B02F1
:10240000C0CF90915B0291FBCC27C0F981E0C82737
:10241000892FC0FB81F980935B02CC2319F080EEF9
:102420009CE029C082ED9CE013C090915B0292FB7E
:10243000CC27C0F981E0C827892FC0FB82F980939F
:102440005B02CC2319F083EC9CE015C083EB9CE08D
:102450000E94560896CF90915B0293FBCC27C0F95F
:1024600081E0C827892FC0FB83F980935B02CC23CE
:1024700051F087EA9CE00E94560880915B028160DF
:1024800080935B025AC08AE99CE0E2CF8CE399E03A
:102490000E94560885E099E00E9456088EEE98E06A
:1024A0000E94560888EB98E00E9456088DE898E054
:1024B000CFCF8FE798E00E9456080E94061C1F921B
:1024C0008F9385E698E09F938F930E94EF08809109
:1024D00014011F928F938EE498E09F938F930E9434
:1024E000EF0880916A021F928F938BE398E09F938D
:1024F0008F930E94EF080E94B8299F938F937F9338
:102500006F9384E298E09F938F930E94EF088DB7BA
:102510009EB742960FB6F8949EBF0FBE8DBF31CFC7
:10252000895303C08D5101C080E00E94321029CF31
:1025300088E99CE00E945608C0E08C2FDF91CF9183
:10254000089580E008950C94A1128E518A3030F4E1
:10255000E82FF0E0E55AFE4F8081089580E008956D
:10256000CF93C82F8091B001813059F020F0823094
:1025700009F445C039C10E94B327823209F036C13F
:1025800004C00E94B327823261F48C2F0E94A312F0
:10259000811104C08C2F0E9452102FC081E090E066
:1025A0002CC08C2F0E94A112811126C0C431E1F0F1
:1025B00070F4CB3081F0C031D1F40E94FA0E87E183
:1025C00098E00E94560882E08093B00115C0C9329D
:1025D00059F0C83361F48BE499E00E9456088BE10E
:1025E00098E00E94560808C01092B00101C185E130
:1025F00098E00E945608FCC081E08170FBC0C432A4
:1026000028F5CE3108F0C1C0CB30A1F1D0F4C730ED
:1026100009F0D0C08EE18093070182E38093060128
:102620008AE08093050184E18093040188E080932F
:10263000010188E2809300018BEB96E00E9456082E
:10264000BCC0C33149F1C431C1F0B4C0CB3409F4CA
:10265000A6C028F4C93289F0C83361F0ABC0C135D7
:1026600009F49BC0C23509F496C0CE3409F0A2C06B
:102670006AE09BC00E94FA0EA0C08091AF0188233F
:1026800019F01092AF0199C088EC96E00E945608AC
:1026900081E08093B001AEC082EA96E00E945608C5
:1026A00080E996E00E945608809107011F928F935F
:1026B0008DE896E09F938F930E94EF088BE896E059
:1026C0000E94560889E796E00E945608809106010C
:1026D0001F928F9386E796E09F938F930E94EF0857
:1026E00084E796E00E94560885E696E00E94560828
:1026F000809105011F928F9382E696E09F938F93BE
:102700000E94EF0880E696E00E9456088FE496E06B
:102710000E945608809104011F928F938CE496E0EA
:102720009F938F930E94EF088AE496E00E945608D8
:1027300085E396E00E945608809101011F928F93D5
:1027400082E396E09F938F930E94EF0880E396E0E8
:102750000E94560889E196E00E9456088091000187
:102760001F928F9386E196E09F938F930E94EF08CC
:1027700084E196E00E9456088DB79EB748960FB642
:10278000F8949EBF0FBE8DBF18C08C2F0E94A5125B
:102790008093AF0112C061E003C061E006C06AE04F
:1027A0008091AF010E94110F08C08091AF010E947B
:1027B000B40F03C089EB96E013C08091AF0188236A
:1027C00069F01F928F9383EB96E09F938F930E9403
:1027D000EF080F900F900F900F9004C080EB96E0E1
:1027E0000E94560881E006C01092B00180E002C04D
:1027F00080E003CFCF9108958091B70180FF0BC097
:102800006091050185E0689FB00111247595679579
:10281000759567952BC081FF09C06091050185E022
:10282000689FB00111247595679520C082FF07C08D
:102830006091050185E0689FB001112417C0909157
:10284000B6019923D1F060910401961788F7209181
:10285000050185E0289F90011124929FA001939F7C
:10286000500D112470E0CA010E94B2326038710527
:1028700040F46115710519F406C065E070E0862F1B
:1028800008958FE7089581E008958091B70180FF52
:1028900008C06091010170E0759567957595679521
:1028A00021C081FF06C06091010170E075956795B8
:1028B00019C082FF04C06091010170E010C09091C6
:1028C000B501992399F0609100019617A0F78091C6
:1028D0000101899FC001112470E00E94B23260386A
:1028E000710540F46115710519F406C061E070E0EE
:1028F000862F08958FE7089581E00895803F21F4A1
:102900000E94FC13819504C0813F29F40E94FC13AE
:102910008093BB010895823F21F40E94FC138195AE
:1029200004C0833F29F40E94FC138093BA010895E8
:10293000893F19F40E94451405C08A3F31F40E9472
:10294000451481958093BC0108958B3F21F40E942A
:102950004514819504C08C3F29F40E94451480934E
:10296000BD0108959CE0980F953078F421E030E0A7
:10297000A90102C0440F551F9A95E2F7CA01909130
:10298000B901892B8093B90108958D3F21F480917D
:10299000B70181600BC08E3F21F48091B701826046
:1029A00005C08F3F29F48091B70184608093B701FF
:1029B0000895803F39F49091BB0197FF35C0109284
:1029C000BB0159C0813F29F49091BB011916BCF39A
:1029D0002BC09091BA01823F29F497FF25C0109235
:1029E000BA0149C0833F19F41916CCF31DC0909168
:1029F000BC01893F29F41916BCF41092BC013BC0FC
:102A00008A3F19F497FF10C0F8CF8B3F39F49091AB
:102A1000BD0197FF09C01092BD012DC08C3F21F46C
:102A20009091BD011916BCF39CE0980F953080F48D
:102A300021E030E0A90102C0440F551F9A95E2F74A
:102A4000CA0180959091B90189238093B90113C07F
:102A50008D3F21F48091B7018E7F0BC08E3F21F412
:102A60008091B7018D7F05C08F3F29F48091B70118
:102A70008B7F8093B7018091BA01811106C080914C
:102A8000BB01811102C01092B6018091BC0181117D
:102A900006C08091BD01811102C01092B501089558
:102AA00080915B0283FF7EC089E79DE00E9456080B
:102AB0008091B9011F928F9384E79DE09F938F933C
:102AC0000E94EF0882E79DE00E9456088091BA01BB
:102AD000282F082E000C330B3F938F938FE69DE039
:102AE0009F938F930E94EF088DE69DE00E94560809
:102AF0008091BB01282F082E000C330B3F938F933E
:102B00008AE69DE09F938F930E94EF0888E69DE000
:102B10000E9456088091BC01282F082E000C330B10
:102B20003F938F9385E69DE09F938F930E94EF08DC
:102B300083E69DE00E9456088091BD01282F082E53
:102B4000000C330B3F938F9380E69DE09F938F9310
:102B50000E94EF088DE59DE00E9456088091B60125
:102B60001F928F938AE59DE09F938F930E94EF08B9
:102B700088E59DE00E9456088091B7011F928F93CF
:102B800085E59DE09F938F930E94EF0882E59DE08D
:102B90000E9456088DB79EB74C960FB6F8949EBF0C
:102BA0000FBE8DBF0E94AC292091BA01211104C033
:102BB0002091BB01222321F09093B4018093B301B3
:102BC0002091BC01211104C02091BD01222321F0DC
:102BD0009093B2018093B10188EB91E00C945B1C5F
:102BE000EF92FF920F931F93CF93DF9300D000D00B
:102BF00000D0CDB7DEB786E0E8EBF1E0DE0111965C
:102C000001900D928A95E1F7E090BA01F090BB0136
:102C10000091BC011091BD011092BA011092BB014C
:102C20001092BC011092BD01E11003C0FF2009F415
:102C30005DC08091B3019091B4010E94C429AC01A0
:102C40009091B601992339F02091060130E02417C4
:102C5000350758F04BC0209107018AE0289F90016A
:102C600011242417350718F041C09F3F19F09F5FCA
:102C70009093B601EE2061F00E94FC131E1414F034
:102C80009FEF01C091E0989F902D11249093BA017D
:102C9000FF2061F00E94FC131F1414F09FEF01C08D
:102CA00091E0989F902D11249093BB013091BA012F
:102CB0003323E1F02091BB012223C1F045EB340323
:102CC000C0011124992319F09093BA0103C081E047
:102CD0008093BA0135EB2303C0011124992319F025
:102CE0009093BB0103C081E08093BB01011103C03D
:102CF000112309F45DC08091B1019091B2010E944D
:102D0000C429AC019091B501992339F020910201B9
:102D100030E02417350758F04BC0209103018AE0BA
:102D2000289F900111242417350718F041C09F3FB8
:102D300019F09F5F9093B501002361F00E94451444
:102D4000101614F09FEF01C091E0989F902D112470
:102D50009093BC01112361F00E944514111614F0E8
:102D60009FEF01C091E0989F902D11249093BD0199
:102D70003091BC013323E1F02091BD012223C1F049
:102D800045EB3403C0011124992319F09093BC0141
:102D900003C081E08093BC0135EB2303C001112403
:102DA000992319F09093BD0103C081E08093BD0188
:102DB0008091BA0181110BC08091BB01811107C0C4
:102DC0008091BC01811103C08091BD0181110E94DD
:102DD0005015EB82FC820D831E8386E0FE01319646
:102DE000A8EBB1E001900D928A95E1F726960FB617
:102DF000F894DEBF0FBECDBFDF91CF911F910F9131
:102E0000FF90EF900895E8EBF1E086E0DF011D927E
:102E10008A95E9F71092B6011092B5011092B701A8
:102E2000089583E290E00E94E732813281F484E2E7
:102E300090E00E94E732873051F485E290E00E94F2
:102E4000E73291E0883209F090E0892F01C080E0FC
:102E500081700895CF93C82F811102C06FEF01C018
:102E600061E283E290E00E94F532C11102C06FEF8F
:102E700001C067E084E290E00E94F532C11102C017
:102E80006FEF01C068E285E290E0CF910C94F532DB
:102E900080E00E942A170C947228089586E290E040
:102EA0000E94E732682F70E080E090E0089586E2AB
:102EB00090E00C94F5320E944D170E941117811179
:102EC0000CC060E070E0CB010E9457170E94991877
:102ED0000E94781981E00C942A170895CF93FB0182
:102EE000C281CC23E9F09C0122513F4520313105BC
:102EF00020F482510E9488190CC08031FFE59F07A1
:102F000051F481E00E94082643E062E081E00E94E3
:102F10009C09C0E018C081319F45A9F482E0F2CF3E
:102F20008031EFE59E0711F481E004C081319F45B7
:102F300049F482E00E94292643E062E081E00E9499
:102F40009C0901C0C1E08C2FCF9108952FEFFC01A7
:102F500020830895EF92FF920F931F93CF93DF93F7
:102F6000EC01062FE8818E2F90E0FC013197E331D0
:102F7000F10508F091C0EB56FF4F0C94C632198250
:102F800089E04DC08981823039F0833061F0813031
:102F900029F50E94B82902C00E944E179A838B839C
:102FA0007C836D837BC07E0110E0812F0E947A0DAF
:102FB000F701928383831F5FF2E0EF0EF11C15305F
:102FC000A1F76CC08981823049F46A817B818C8150
:102FD0009D810E94CC320E94571760C0602FCE01A5
:102FE0000E94A6175BC04B816A8189810E946B1881
:102FF0009C838D8353C02C813D8132272327322728
:103000004B816A8189810E94841848C00E94991866
:1030100045C00E942B1924C00E942D1999838A83D0
:103020003DC06B8170E089819A81AE014C5F5F4F3A
:103030009827892798270E94301930C06B8170E04B
:1030400089819A81AE014C5F5F4F98278927982725
:103050000E94551923C00E94781920C00E94581858
:1030600089831CC06B8170E089819A81AE014C5FBD
:103070005F4F9827892798270E94D8180FC06B8127
:1030800070E089819A81AE014C5F5F4F9827892754
:1030900098270E94FC1802C08FEF8883602FCE0112
:1030A000DF91CF911F910F91FF90EF900C94FB2A2D
:1030B00084E0089550E0440F551F20E2629F400DC8
:1030C000511D11249A0160EA869F200D311D1124A3
:1030D000C901879608950F931F93CF93DF930E94A2
:1030E0005A188C010E94E732C82FD0E0DC2FCC2781
:1030F000C80101960E94E7329E01282BC901DF9189
:10310000CF911F910F9108950F931F93CF93DF934A
:10311000122F032F0E945A18EC01602F0E94F532E3
:10312000612FCE010196DF91CF911F910F910C94E9
:10313000F532AF92BF92CF92DF92EF92FF920F9350
:103140001F93CF93DF93A12CE12CF12CB12C00E045
:1031500010E0C0E0D0E06701C00ED11EF601EC0F18
:10316000FD1FEE0FFF1FE056FE4F259134914C2FAF
:103170006B2D8A2D0E9484182196C031D10571F7DC
:10318000005F1F4FB39485E0B812E3CF80E5E80EEF
:10319000F11CA39484E0A812D9CFDF91CF911F91A5
:1031A0000F91FF90EF90DF90CF90BF90AF90089578
:1031B000EF92FF920F931F93CF93DF93EA017A016F
:1031C000E60EF71E8C01C8018796CE15DF0569F063
:1031D000003822E0120720F40E94E732888301C001
:1031E000188221960F5F1F4FEECFDF91CF911F9175
:1031F0000F91FF90EF900895EF92FF920F931F931E
:10320000CF93DF93EA017A01E60EF71E8C01C80125
:103210008796CE15DF0559F0003822E0120718F422
:1032200068810E94F53221960F5F1F4FF0CFDF912A
:10323000CF911F910F91FF90EF900895462F84300A
:1032400038F4753028F4603118F4672F0C946B183B
:1032500080E090E0089580E1089589E591E0089587
:10326000EF92FF920F931F93CF93DF93EA017A01BE
:10327000E60EF71E8C01C80189559D4FCE15DF055E
:1032800069F0093521E0120720F40E94E7328883B3
:1032900001C0188221960F5F1F4FEDCFDF91CF91B4
:1032A0001F910F91FF90EF900895EF92FF920F936F
:1032B0001F93CF93DF93EA017A01E60EF71E8C018C
:1032C000C80189559D4FCE15DF0559F0093521E01C
:1032D000120718F468810E94F53221960F5F1F4F84
:1032E000EFCFDF91CF911F910F91FF90EF90089555
:1032F000CF93DF93C7EAD2E060E0CE010E94F532BF
:103300002196C11584E0D807B9F7DF91CF910895D0
:10331000DF92EF92FF920F931F93CF93DF9300D032
:1033200000D0CDB7DEB7F82E8FE08F15E8F18FEF24
:1033300093E00E94E732811137C007EA12E0FF20D4
:1033400069F0011584E0180779F1C8010E94E7329D
:10335000811101C0FA940F5F1F4FF1CF19821A82B9
:103360001B821C82DD24D39478018FEFE81AF80ABF
:10337000C8010E94E73289831A828823A9F09FEF4F
:10338000980F933058F48A83D9820E5F1F4FC7017C
:103390000E94E7328B83882339F07801CE010196B1
:1033A0000E940B0B8701E0CF0F900F900F900F90B2
:1033B000DF91CF911F910F91FF90EF90DF900895D3
:1033C0000F931F93CF93DF93C42FD22FFC018281E1
:1033D0008823C9F04093C0010E94AC299093BF019B
:1033E0008093BE0180E28C0F883008F057C0C77010
:1033F00081E001C0880FCA95EAF7DF91CF911F9154
:103400000F910C94251F8091C001481330C080910A
:10341000BE019091BF010E94C429883C910538F5F6
:1034200010E21D0FCD17B9F080E28C0F883040F408
:10343000C77081E001C0880FCA95EAF70E942C1F6F
:10344000183028F581E09D2F977001C0880F9A955C
:10345000EAF70E94251F802F0E941C1F1830F0F4ED
:10346000D77081E001C0880FDA95EAF70AC080E2E0
:103470008C0F883098F4C77081E001C0880FCA951E
:10348000EAF7DF91CF911F910F910C942C1F802FA1
:10349000DF91CF911F910F910C941C1FDF91CF9161
:1034A0001F910F9108950F939C01CB01233F4CE591
:1034B000340731F188F4283DFCE53F07D9F0293D78
:1034C0004CE5340779F1273D3C45A9F506E221EEAC
:1034D00041EE67ED7CE52BC0253FFCE53F07E1F0C1
:1034E000A8F0263F3C4539F507E225EE46EE66EFAB
:1034F0007CE51DC007E225EE45EE68ED7CE517C0D2
:1035000006E221EE40EE63EF7CE511C007E225EE16
:1035100044EE64EF7CE50BC006E221EE42EE65EF7F
:103520007CE505C008E221E045EE69ED7CE50E94FE
:10353000E01980E008C0FC018281882319F0109214
:10354000C00101C081E00F910895CF93DF93EC019A
:10355000FB018281882309F41FC1C230FCE5DF072B
:1035600008F41BC1C6319CE5D90738F09E012A5FDB
:103570003C452930310508F010C10E948B289093FA
:103580006C0280936B02C031ECE5DE0709F4C3C026
:1035900008F041C0C8308CE5D80709F49AC0F0F4AF
:1035A000C430ECE5DE0709F487C068F4C2308CE56E
:1035B000D80709F477C0C330DC4509F0E3C0809137
:1035C0006B02826076C0C630ECE5DE0709F46EC09F
:1035D00008F07BC080916B0288606BC0CC308CE5BA
:1035E000D80709F485C068F4CA30ECE5DE0709F4B1
:1035F00074C008F079C00E94B22180916B0280688B
:1036000058C0CE308CE5D80709F476C008F07FC0EA
:1036100080916B028BC0CB3FECE5DE0709F44FC015
:1036200018F5C3318CE5D80709F47DC078F4C131B1
:10363000ECE5DE0709F473C0C231DC4509F0A2C035
:103640000E94B22180916B028F7733C0C5318CE527
:10365000D80709F472C008F486C0CA3FDC4509F0F7
:1036600091C080916C023EC0CF3FFCE5DF0709F4BA
:103670005FC058F4CD3F9CE5D90709F444C008F475
:103680003FC080916C0282602DC0C130FDE5DF0734
:1036900009F475C008F45DC0C230DD4509F072C0A0
:1036A00080E06EC080916B02816003C080916B02EC
:1036B000806180936B0266C080916B0211C0809123
:1036C0006C02826080936C025DC080916B028062AC
:1036D000F0CF80916B028064ECCF80916B028860A8
:1036E0008460E7CF8160EECF80916B028E7FE1CF67
:1036F00080916B028D7FDDCF80916B02877FD9CF68
:1037000080916C0218C080916C028D7FDBCF80911C
:103710006B028F7ECECF80916B028F7DCACF80915E
:103720006B028F7BC6CF80916B02877F8B7FC1CF6F
:1037300080916C028D7F8E7FC5CF80916B0282FB62
:10374000222720F991E0922790FB82F990FB83F9E0
:10375000B0CF80916C02982F909591708E7F892BBD
:1037600090FB81F9AFCF0E94B22180916B0287FB61
:10377000222720F991E0922790FB87F99ACF81E0E8
:103780000E94222980916B0290916C020E949C28D9
:103790000E94B22180E001C081E0DF91CF910895C5
:1037A000CF93DF9386319C4541F5EB010E94B3270F
:1037B000982F8A812091080130910901882379F09E
:1037C0009A7A81E009F480E08093C101911102C0EE
:1037D00069E201C065E3C9010E9469290AC08091BC
:1037E000C101811102C069E201C065E3C9010E9403
:1037F0006B290E94052880E001C081E0DF91CF9114
:1038000008959093C7018093C6010895E091C60181
:10381000F091C701309721F00190F081E02D0994DB
:1038200080E00895EF92FF920F931F93CF93DF9361
:10383000E091C601F091C7013097B1F18C0102808F
:10384000F381E02D099580915B0282FF2DC080FFFE
:1038500004C084EA9DE00E945608E80118E08EE961
:10386000E82E8DE0F82E80915B0280FF0BC08881EE
:103870001F928F93FF92EF920E94EF080F900F908C
:103880000F900F90115021961111EDCF80915B0296
:1038900080FF0AC08CE99DE0DF91CF911F910F91CD
:1038A000FF90EF900C945608DF91CF911F910F91EC
:1038B000FF90EF900895E091C601F091C701309715
:1038C00039F022E0DC012C930480F581E02D09948D
:1038D00008952091C4013091C5012817390771F06E
:1038E0009093C5018093C401E091C601F091C70196
:1038F000309721F00680F781E02D099408952091FA
:10390000C2013091C3012817390771F09093C301A8
:103910008093C201E091C601F091C701309721F078
:103920000084F185E02D099408950E94B8296093E0
:10393000D7017093D8018093D9019093DA016093F5
:10394000D3017093D4018093D5019093D60108954B
:1039500085B7806885BF85B7806885BF089581E099
:1039600008950C94AF1C08950C94B31C0C94B31CD4
:103970000C94B61C0C94B31C0C94BA1C0C94B31C81
:103980000E94A81C89E69CE20E940A2A0E94BE1C92
:103990000C94BC1C0E94B41C0C94B31C0E94A32960
:1039A0000E94F20D0E945B170C94B81CCF93C82F95
:1039B00080915B0282FF1EC080FF04C08DEB9DE002
:1039C0000E94560880915B0280FF0CC01F92CF932B
:1039D00088EB9DE09F938F930E94EF080F900F90CC
:1039E0000F900F9080915B0280FF04C086EB9DE0FA
:1039F0000E9456088C2FCF910C943A0B6F927F92B5
:103A00008F929F92AF92BF92CF92DF92EF92FF92EE
:103A10000F931F93CF93DF93CDB7DEB72A970FB6DF
:103A2000F894DEBF0FBECDBF0E94240E81110E940C
:103A3000951C39EC832E31E0932E00E010E0C02E6F
:103A4000802F0E947A0D5C01F401619071904F010A
:103A50006826792661147104B1F40F5F1F4F053099
:103A6000110569F78FEF89838A831B820E94AC2935
:103A70008160782F9D838C8349815A816B818D81F0
:103A80000E94B41D3AC080915B0281FD0E94830DAB
:103A9000D12CEE24E394F12CC3018E219F21892B9C
:103AA00029F10E94B11C8823A9F0DE82CF82AE20CA
:103AB000BF2081E0AB2809F480E088870E94AC2910
:103AC0008160782F9A8789874E815F8168858A8592
:103AD0000E94B41D000F111FF801E753FE4F8081B3
:103AE0009181E826F926F182E08207C0D394EE0C9A
:103AF000FF1CF0E1DF12D0CFB0CF0E94F0150E9482
:103B0000061C9091C8018917D1F00E94061C809371
:103B1000C8012A960FB6F894DEBF0FBECDBFDF9165
:103B2000CF911F910F91FF90EF90DF90CF90BF90BA
:103B3000AF909F908F907F906F900C94D61C2A9698
:103B40000FB6F894DEBF0FBECDBFDF91CF911F91AE
:103B50000F91FF90EF90DF90CF90BF90AF909F902C
:103B60008F907F906F900895DF92EF92FF920F9366
:103B70001F93CF93DF93CDB7DEB72B970FB6F89493
:103B8000DEBF0FBECDBFF42E052F162FE72ED82E89
:103B900061110E94D327FE01319686E0DF011D925C
:103BA0008A95E9F77E2D4F2D502F612F8D2D9E8107
:103BB0000E946B242B960FB6F894DEBF0FBECDBFCC
:103BC000DF91CF911F910F91FF90EF90DF900895BB
:103BD000FC01808191810E943F270895CF93882323
:103BE00009F4A9C0C82F8238C1F40E94061C81FDC7
:103BF000A2C069E380910801909109010E9469299E
:103C00000E9405282FEF81EE94E0215080409040E3
:103C1000E1F700C0000069E319C0833801F50E9494
:103C2000061C80FD88C063E5809108019091090120
:103C30000E9469290E9405282FEF81EE94E021500F
:103C400080409040E1F700C0000063E580910801EA
:103C5000909109010E946B29CF910C94052884381A
:103C6000C1F40E94061C82FD66C067E480910801D1
:103C7000909109010E9469290E9405282FEF81EE89
:103C800094E0215080409040E1F700C0000067E4DC
:103C9000DDCF8CEF8C0F813AF8F48C2F0E94B0129C
:103CA000811149C06C2F80910801909109010E94F7
:103CB0003329882349F06C2F8091080190910901E4
:103CC0000E946B290E9405286C2F80910801909119
:103CD00009010E946929C0CF80E28C0F883048F426
:103CE000C77081E001C0880FCA95EAF70E94B62725
:103CF000B3CFEBE5EC0FE33040F4F0E0ED56FE4FD0
:103D0000808190E0CF910C94691CE8E5EC0FE731DD
:103D100050F4F0E0EE0FFF1FEB59FE4F80819181D0
:103D2000CF910C947F1CC03F30F08C2F0E947E14EA
:103D3000CF910C945015CF910895882309F464C055
:103D4000823879F40E94061C81FF5EC069E380918D
:103D50000801909109010E9469290E94052869E3E0
:103D600010C08338B1F40E94061C80FF4DC063E58B
:103D700080910801909109010E9469290E940528FB
:103D800063E580910801909109010E946B290C94D0
:103D90000528843879F40E94061C82FF35C067E448
:103DA00080910801909109010E9469290E940528CB
:103DB00067E4E7CF9CEF980F913A10F4682FE1CFBA
:103DC00090E2980F983050F4877091E001C0990FFD
:103DD0008A95EAF7892F0E94BC27D9CF9BE5980FD7
:103DE000933020F480E090E00C94691C98E5980FE3
:103DF000973120F480E090E00C947F1C803F20F00D
:103E00000E94D9140C94501508951F93CF93DF93FB
:103E1000182FEB010E94EE1D209741F08FE99FE0E3
:103E20000197F1F700C000002197F6CF812FDF91B5
:103E3000CF911F910C949D1E893319F060E070E0C2
:103E400002C060E570E00C94051F882321F00E94F9
:103E5000B6270C9405280895882321F00E94BC27DA
:103E60000C9405280895CF92DF92EF92FF920F9362
:103E70001F93CF93DF937C01062FC72FFC01D281C4
:103E8000158112951F700E947727882399F0DD23F2
:103E900089F08C2F807F803421F080E2800F883081
:103EA00048F082E00E9455280E94772791E0D82EA2
:103EB000D92601C0D12CCC2EC2948FE0C8228C2DE3
:103EC00090E0FC01E855FF4F0C94C6328C2F807FA8
:103ED000CF70882311F0C295C07FDD2399F0CC23E9
:103EE00009F48DC180E2800F883010F0011104C008
:103EF0008C2F0E94B62703C08C2F0E94C6270E94D9
:103F000005287DC1802F0E949D1ECC2309F49CC1F1
:103F100080E2800F883010F0011104C08C2F0E94C5
:103F2000BC2703C08C2F0E94CC270E9405288CC17F
:103F30008C2F807FCF70803211F0C295C07F00231C
:103F400019F00130C9F022C0DD2371F0112341F0D6
:103F5000113031F40E94E6278C2B0E94EE2774C1A9
:103F60000E94E6278C2B1DC0112319F0113009F493
:103F70006BC10E94FB2725C0DD2321F0163008F01D
:103F800063C10EC0153008F05FC11BC0DD2361F0B6
:103F9000112331F0F701858180FF31C18F70858356
:103FA0008C2F0E94251F50C1112359F0093309F0AD
:103FB00037C1FFEF27EE83E0F15020408040E1F76A
:103FC0002DC18C2F0E942C1F3FC18C2F869586956A
:103FD000837019F0813061F037C1DD2321F0802F2B
:103FE0009C2F937002C080E090E00E94691C34C155
:103FF000DD2321F0802F9C2F937002C080E090E0A1
:104000000E947F1C29C1802FDD2319F00E947E149D
:1040100002C00E94D9140E9450151EC18C2F8370BB
:1040200009F045C0D11114C1402F42954695477003
:10403000440F440F602F6F70862F90E0A0E0B0E037
:10404000042E04C0880F991FAA1FBB1F0A94D2F721
:1040500004FF10C00FE010E020E030E004C0000FCB
:10406000111F221F331F4A95D2F7009510952095F6
:10407000309503C000E010E09801C695C695C37066
:10408000BC01CD01602B712B822B932BC23049F0E8
:1040900058F4C13019F00E94BC25DAC00E94AA254C
:1040A000D7C00E94CE25D4C00E94A825D1C0DD2350
:1040B00019F08C2F817001C08695882309F4C8C03F
:1040C000402F429546954770440F440F602F6F7004
:1040D000862F90E0A0E0B0E0042E04C0880F991F66
:1040E000AA1FBB1F0A94D2F704FF10C00FE010E014
:1040F00020E030E004C0000F111F221F331F4A953B
:10410000D2F7009510952095309503C000E010E09F
:104110009801C695C695C370BC01CD01602B712B6B
:10412000822B932BC23049F058F4C13019F00E9411
:1041300081268EC00E946F268BC00E94932688C065
:104140000E94E22585C0CF70DD2339F08C2F0E94BC
:104150000826802F0E94251F7BC0802F0E942C1FC5
:104160008C2F0E94292674C0023F01F128F4003FE1
:1041700041F0013FA1F03FC0033FF9F0043F39F1A6
:104180003AC0DD2341F0153008F05EC08C2F8F71EE
:104190000E944E2659C0163008F056C0F7CFDD23D6
:1041A00039F08C2F8F710E9408264EC0DD23C9F391
:1041B0008C2F8F710E94292647C0DD2329F08C2F78
:1041C0008F710E94F32540C00E94EE253DC0DD2383
:1041D00049F0CF718C2F0E94082663E08C2F0E943B
:1041E0003A2832C081E00E945528123068F182E0FE
:1041F0000E94552829C0DD2331F0112391F2802F30
:104200000E94EE1D21C0112399F2093349F49FEF5A
:10421000E7EEF3E09150E040F040E1F700C000002D
:10422000802F0E949D1E10C04C2F4F70602FC70121
:104230000E94430B0E9419250FC04C2F4F70602F16
:10424000C7010E94460B08C088EF8C0D843020F413
:104250000E94061C0E943A0BDD20C9F00E947327C1
:1042600080FD15C0F70112820E946D270E9408266A
:10427000C7010E9468210E946D27DF91CF911F9195
:104280000F91FF90EF90DF90CF900C942926DF9153
:10429000CF911F910F91FF90EF90DF90CF900895F5
:1042A0000F931F93CF93DF93EC01688179818A810B
:1042B0000E944A278C010E94A5260E949625B801DB
:1042C000CE010E94331FDF91CF911F910F9108956E
:1042D000CF93DF93EC01988189812B813C81232B43
:1042E00031F08F3F31F481E09F3F19F403C081E04A
:1042F00001C080E080FD19C0CE010E94C409811177
:104300000CC00E947727882381F08A81882369F076
:1043100082E0DF91CF910C945528CE010E9450216C
:10432000CE01DF91CF910C943D09DF91CF9108959B
:1043300080E090E00E94691C80E090E00E947F1C79
:104340000E94D3270E94E3270E9405280E9403179A
:104350000C94501580910801909109010E946D29DB
:104360000C9498210E94C3270C94AA21E92FE2956E
:10437000EF704E2F50E0FA013297EE30F105B0F4B5
:10438000E854FF4F0C94C632803F91F018F4883EF9
:1043900068F40EC0843F51F40BC0883E48F0813F62
:1043A00029F406C093FB882780F9089580E00895DA
:1043B00081E008950E943F270E94B6210895CF937F
:1043C000DF9300D000D01F92CDB7DEB70F900F90D3
:1043D0000F900F900F90DF91CF910895CF93DF93BF
:1043E00000D000D000D0CDB7DEB726960FB6F89437
:1043F000DEBF0FBECDBFDF91CF9108951F93CF9346
:10440000DF93C091DC0116E08091DD01C81799F0BF
:10441000D0E01C9FF0011D9FF00D1124E252FE4FD1
:104420004081518162817381848195810E94EE2156
:104430002196C770E9CFDF91CF911F9108954091E8
:104440000E0250910F026091100270911102809142
:104450001202909113020C94EE210F931F93CF93AD
:10446000DF938091130282958F7009F05DC0809177
:104470001002882309F458C08091DC011091DD01FD
:1044800060910E0270910F02C0911102D091120240
:1044900091E06F3F09F090E0292F06E0811709F4C1
:1044A00043C0209721F07F3F21F030E003C031E08E
:1044B00001C0322F90E030FD34C0089FF001099F09
:1044C000F00D1124DF01A252BE4F11963C911197BD
:1044D000371327C03C91361324C012963C91129793
:1044E00031111FC013964D915C9114974C1B5D0BBD
:1044F000483C5105B0F4809113028F708061809325
:104500001302ED51FE4F80818F70806180838EE0B9
:1045100092E00E946821DF91CF911F910F910C943E
:10452000FE2101968770BACFDF91CF911F910F9135
:1045300008959F92AF92BF92CF92DF92EF92FF9237
:104540000F931F93CF93DF93CDB7DEB761970FB66D
:10455000F894DEBF0FBECDBF8C0185E0F801DE010F
:104560001D9601900D928A95E1F7F80140815181E5
:10457000E28090910E0260910F0220911102309121
:1045800012022115310531F06F3F31F481E09F3F78
:1045900019F403C081E001C080E0F82FF1709F2E74
:1045A00080FD46C1F801A380B4808EE0C82E82E071
:1045B000D82EF0901002F501E21BF30BFF2009F456
:1045C000DFC080911302E83CF10508F09BC0282F62
:1045D000207F09F052C0561313C0491311C0FE2C9E
:1045E000E1100EC08F708061809313020E941F2221
:1045F000C6010E94682180911302F801858358C189
:10460000AB2831F05F3F31F481E04F3F19F403C034
:1046100081E001C080E080FD03C081E08E2502C002
:1046200080E090E0F82FF170FF2E80FF1CC0809199
:10463000DC012091DD0136E0821709F417C190E01A
:10464000389FF001399FF00D1124E252FE4F618135
:10465000561306C06081461303C06281E61203C090
:1046600001968770E9CFFE2CEE2009F421C18091DC
:1046700013028160809313025AC0561306C0491377
:1046800004C0E11002C0F8019FC04D875E878D8590
:104690009E850E94DA21882379F1EE2069F120912C
:1046A0001302822F82958F7090E0029774F08091B0
:1046B0000E0290910F0298878F831986BB86AA8677
:1046C0002C87CE0107960E94682186E0F801AEE0B3
:1046D000B2E001900D928A95E1F70E942D220E948E
:1046E0001F220DC0561729F14D875E878D859E8547
:1046F0000E94DA2181112CC0C8010E946821FF2488
:10470000F394D6C0282F207F69F77A2DB98AA88A1A
:104710006E2D89890E94DF218EE092E00E9468213F
:1047200086E0F60111928A95E9F70E941F22F12C8A
:10473000BFC04913D9CFE110D7CFF8018583C80195
:104740000E94682186E0F60111928A95E9F7B0C0CF
:10475000EE2091F220911302822F82958F7090E0CB
:1047600002970CF4B2CF80910E0290910F029A83BF
:1047700089831B82BD82AC822E83CE010196A3CF9A
:10478000E83CF10508F047C0FE2CEE2009F4B4CF58
:10479000561330C049132EC02091130220FD21C0B2
:1047A000822F82958F70482F50E041155105C9F036
:1047B000F80125834F30510541F08F5F982F929576
:1047C000907F822F8F70892B8583C8010E9468217A
:1047D00086E0F801AEE0B2E001900D928A95E1F733
:1047E00042C086E0F801AEE0B2E001900D928A95F9
:1047F000E1F75EC04D875E878D859E850E94DA2138
:10480000811163CF80911302816080931302C801EC
:104810000E9468214DC07A2DB98AA88A6E2D898997
:104820000E94DF2186E0F60111928A95E9F71BC00C
:10483000EE2009F461CF4D875E878D859E850E94AD
:10484000DA21F82E882309F457CF86E0F801AEE08C
:10485000B2E001900D928A95E1F78EE092E00E941D
:10486000E81D0E942D220E941F2222C04D875E87D4
:104870008D859E850E943F27292F22952F702230FB
:1048800028F49F7039F0811105C00BC0243028F442
:104890009F7049F4805E883020F0C8010E94682132
:1048A0009F2CF92C05C0F8019581907F99F7F9CFDD
:1048B0008F2D61960FB6F894DEBF0FBECDBFDF918E
:1048C000CF911F910F91FF90EF90DF90CF90BF900D
:1048D000AF909F9008951F93CF93DF93CDB7DEB72E
:1048E0002C970FB6F894DEBF0FBECDBF4F8358870D
:1048F00069877A878B879C87CE0107960E949922C9
:104900008823D1F09F8188852A853B85232B31F030
:104910008F3F31F481E09F3F19F403C081E001C073
:1049200080E080FD47C04F81588569857A858B85F9
:104930009C850E94EE213EC086E0FE013796DE0196
:10494000119601900D928A95E1F7FF81E8856A85BD
:104950007B856115710531F0EF3F31F481E0FF3F58
:1049600019F403C081E001C080E080FD23C02091E4
:10497000DD0130E0C9010196877099274091DC0183
:1049800050E084179507F1F1F983EA837D836C8306
:1049900096E0929FD001939FB00D1124A252BE4F7A
:1049A000FE01319601900D929A95E1F78093DD0119
:1049B0000E94FE2116E08091DC019091DD018917B3
:1049C00071F1189FC001112482529E4F0E949922BA
:1049D000882329F1E091DC011E9FF0011124E252AD
:1049E000FE4F4081518162817381848195810E9453
:1049F000EE218091DC0190E00196877099278093E9
:104A0000DC01D9CF0E94B2211092DD011092DC01AD
:104A1000EEE0F2E086E0DF011D928A95E9F72C9640
:104A20000FB6F894DEBF0FBECDBFDF91CF911F91BF
:104A30000895EF92FF920F931F93CF93DF938C0112
:104A4000892B09F46CC0F12CEE24E394E801219643
:104A5000F8018491843740F4843008F051C08130EB
:104A600081F0823019F15BC0853709F444C0A8F1A8
:104A70009CE7980F903708F052C08F770E949D1ED8
:104A800041C00E5F1F4FFE01849190E2980F983055
:104A900050F48770FE2D01C0FF0F8A95EAF78F2F23
:104AA0000E94D62714C00E94EE1D2DC00E5F1F4F1E
:104AB000FE01849190E2980F983060F48770FE2D8B
:104AC00001C0FF0F8A95EAF78F2F0E94DC270E9412
:104AD000052819C00E949D1E16C00E5F1F4FFE01C3
:104AE000C491CC2381F08FE99FE00197F1F700C0DA
:104AF0000000C150F6CF0E5F1F4FFE01F49003C0BF
:104B00000E94EE1D8E018F2D882309F49FCFEFE9BF
:104B1000FFE03197F1F700C000008150F5CFDF9141
:104B2000CF911F910F91FF90EF90089508950895F0
:104B30000C9497250C9498250E949A2560934A021C
:104B400070934B0280934C0290934D020C949821E9
:104B50000C949C250F931F9300914A0210914B02D5
:104B600020914C0230914D02602B712B822B932BA4
:104B70001F910F910C949C250F931F9300914A0253
:104B800010914B0220914C0230914D026023712311
:104B9000822393231F910F910C949C250F931F93B5
:104BA00000914A0210914B0220914C0230914D022B
:104BB00060277127822793271F910F910C949C25C2
:104BC0000C9497250E94E02560934602709347025B
:104BD00080934802909349020C94982160E070E021
:104BE000CB010C94E2250F931F9341E050E060E06D
:104BF00070E08A019B0104C0000F111F221F331FA8
:104C00008A95D2F7C901B8011F910F910C94E22542
:104C10000F931F9341E050E060E070E004C0440F48
:104C2000551F661F771F8A95D2F780914602909193
:104C30004702A0914802B09149028A019B01082BCA
:104C4000192B2A2B3B2BC901B8011F910F910C94F2
:104C5000E2250F931F9341E050E060E070E004C054
:104C6000440F551F661F771F8A95D2F740955095C0
:104C7000609570958091460290914702A0914802FC
:104C8000B09149028A019B01082319232A233B235F
:104C9000C901B8011F910F910C94E2250F931F9346
:104CA00041E050E060E070E004C0440F551F661F13
:104CB000771F8A95D2F78091460290914702A09182
:104CC0004802B09149028A019B01082719272A2727
:104CD0003B27C901B8011F910F910C94E2250F9356
:104CE0001F93009146021091470220914802309193
:104CF0004902602B712B822B932B1F910F910C94E7
:104D0000E2250F931F9300914602109147022091D4
:104D100048023091490260237123822393231F911B
:104D20000F910C94E2250F931F930091460210916E
:104D3000470220914802309149026027712782275B
:104D400093271F910F910C94E225089520E1929FE3
:104D5000800D1124E82FE695E695E695877051E0E1
:104D600001C0550F8A95EAF785E0E89FF00111240C
:104D7000EC5EFD4F20E030E070E04081CB01022E80
:104D800002C0969587950A94E2F7817081958427F1
:104D90008523842781932F5F3F4F2530310569F7A5
:104DA000089520E1929F800D1124682F66956695E5
:104DB0006695982F977085E0689FB001112440E0B8
:104DC00050E080E0FB01E40FF51FEC5EFD4F208119
:104DD00030E0092E02C0369527950A94E2F721703B
:104DE0003327042E01C0220F0A94EAF7822B4F5F6B
:104DF0005F4F4530510531F70895BF92CF92DF9252
:104E0000EF92FF920F931F93CF93DF938C01C0908B
:104E10004602D0904702E0904802F090490280910B
:104E20004A0290914B02A0914C02B0914D02C82AC7
:104E3000D92AEA2AFB2ACFE1D0E0D701C6010C2EFD
:104E400004C0B695A795979587950A94D2F780FDEB
:104E500004C0219790F7B12C07C0BC2EB8018C2F4D
:104E60000E944F0B0197A9F38B2DDF91CF911F91DA
:104E70000F91FF90EF90DF90CF90BF900895CF9368
:104E8000DF93EC010E94FD26BE010E944F0BDF91D3
:104E9000CF9108951F93CF93DF93EB019091DB01A6
:104EA000992321F0CB010E943F2713C0882349F0AA
:104EB000CB010E94FD26182F682FCE010E94A62646
:104EC00004C0CB010E94D126182FBE01812F0E9461
:104ED0004F0BDF91CF911F91089580914E028595E0
:104EE00085958595089580914E02877008959091DB
:104EF0004E02977081E009F480E00895CF9390917D
:104F00006C0292FB222720F92817E1F0C82F892F85
:104F1000C0FB82F980936C0280916B0290916C02CD
:104F20000E949C2880915B0280FF0CC01F92CF934F
:104F300080ED9DE09F938F930E94EF080F900F905C
:104F40000F900F90CF91089580916C0282FB88277B
:104F500080F991E089270C947E2781E00C947E27CC
:104F600080E00C947E2780915A02089590915A0215
:104F7000892B80935A020895809590915A02892333
:104F800080935A02089510925A02089590915902FE
:104F9000892B809359020895809590915902892315
:104FA00080935902089510925902089590915802E1
:104FB000892B8093580208958095909158028923F7
:104FC00080935802089510925802089580914F02DC
:104FD000089508950C94E9270C94EA2790916C02A7
:104FE00092FD08C090914F02981721F080934F02D4
:104FF0000C94EC27089580914F02882329F0109299
:105000004F0280E00C94EC270895E0910801F091A4
:10501000090180915A028083E0910801F091090111
:10502000908180915902892B8083E0910801F09151
:105030000901908180915802892B808380914F02D1
:10504000882381F0E0910801F09109019081892B7A
:10505000808380910801909109010E942729811184
:105060000E94FB2780910801909109010C94121C69
:105070000C94E92790916C0292FD10C098E0899FF2
:1050800090011124262B20934E020E940826809125
:105090004E028595859585950C9438280C940826A4
:1050A00010924E0280E00C94382820914E02809598
:1050B000822380934E02982F977041F430E0482F5E
:1050C000082E000C550B2417350721F490916C0223
:1050D00092FF07C08595859585950E9429260C9499
:1050E000502808956FEF7FEF80E090E00C94133329
:1050F00080E090E00E94EF3221E08A3E9E4F09F06E
:1051000020E0822F089582E090E00C94E73283E063
:1051100090E00C94E732CF9384E090E00E94E73275
:10512000C82F82E290E00E94E7322C2F30E0A901E4
:10513000582BCA01CF910895CF93C92F682F84E0CF
:1051400090E00E94F5326C2F82E290E0CF910C94B7
:10515000F532AB01BC018FE090E00C940733AB015A
:10516000BC0183E190E00C94073360E070E0CB0178
:105170000C94AF2860E070E0CB010E94A9280C9449
:10518000B5286AEE7EEF80E090E00E94133360E085
:1051900082E090E00E94F53260E083E090E00E94BF
:1051A000F53210924A0210924B0210924C02109269
:1051B0004D0260E084E090E00E94F53260E082E21F
:1051C00090E00E94F53260E085E090E00E94F532C8
:1051D00060E086E090E00E94F5326FEF87E090E0BB
:1051E0000E94F53240E050E0BA0188E090E00E9471
:1051F000073360E08DE090E00E94F53240E050E03F
:10520000BA0188E190E00E94073360E087E190E016
:105210000E94F53240E050E0BA018CE190E00E943B
:10522000073360E070E080E290E00E94133340E0DA
:1052300050E0BA0188E190E00E9407330C94BA284C
:105240000C94C128682F8EE090E00C94F532FC019C
:10525000329697E080E0915029F021912223D9F3F2
:105260008F5FF9CF0895662349F0FC0132960896C6
:105270002191621729F0E817F907D1F780E0089526
:1052800081E008959C01FC0132969FEF80E04191FE
:10529000461789F09F3F19F4411101C0982F8F5F85
:1052A0008630A9F79F3F39F0F901E90FF11D97FD0D
:1052B000FA956283089508959C012A5F3F4FFC018F
:1052C0004281461301C01282019682179307B9F7F3
:1052D00008950C9442290C945C29029626E0FC0166
:1052E00011922A95E9F7089508950C9474290C9465
:1052F0007429CF930E9477290E94240E0E94752959
:10530000C0E08C2F0E947A0D892B29F4CF5FC53025
:10531000C1F780E001C081E0CF9108950C94742919
:105320000C948E2980918902843011F00C9490297C
:1053300008950C9474290E94B2210E94061C0E94B8
:105340003A0B0C94992982E084BD93E095BD9AEFC5
:1053500097BD80936E0008952FB7F89480918102D5
:1053600090918202A0918302B09184022FBF089590
:105370002FB7F8946091810270918202809183022C
:10538000909184022FBF08959C014FB7F8948091AB
:10539000810290918202A0918302B09184024FBF5A
:1053A000821B930B089578941F920F920FB60F9261
:1053B00011248F939F93AF93BF938091810290911B
:1053C0008202A0918302B09184020196A11DB11DB9
:1053D0008093810290938202A0938302B09384020F
:1053E000BF91AF919F918F910F900FBE0F901F9023
:1053F000189587E797E790930108809300089AE053
:1054000088E10FB6F894A895809360000FBE909342
:105410006000FFCF9093AB018093AA010895E1E86B
:10542000F0E08081886080838081816080838FB795
:10543000F89420ED33E030938900209388008FBFEB
:105440000895EFE6F0E08081826080830895EFE6C2
:10545000F0E080818D7F80830895EFE6F0E0908119
:1054600082E08927808308951F920F920FB60F92D2
:1054700011242F933F934F935F936F937F938F9359
:105480009F93AF93BF93EF93FF9380915C029091B2
:105490005D02019690935D0280935C02811103C0CE
:1054A00082E00E943A0BE0915D02E695E695F0E01D
:1054B000EB51F24FE49180915C028E1303C080E0C7
:1054C0000E943A0BFF91EF91BF91AF919F918F9105
:1054D0007F916F915F914F913F912F910F900FBEF0
:1054E0000F901F901895809169020895CF93DF93D4
:1054F00000D01F92CDB7DEB790918902943011F59C
:1055000089837B836A839093E9008FEF9091E80011
:10551000815095FD06C095ED9A95F1F70000811137
:10552000F5CF8091E80085FF0DC040E050E063E0DA
:1055300070E0CE0101960E94BE2D8091E8008E772A
:105540008093E8000F900F900F90DF91CF91089516
:10555000BC0184E00C94762ABC0183E00C94762A8A
:1055600024E02093E9002FEF3091E800215035FD31
:1055700006C035ED3A95F1F700002111F5CF2091E5
:10558000E80025FF0BC040E050E066E070E00E94BC
:10559000BE2D8091E8008E778093E8000895CF9328
:1055A000DF9321E02093E9002FEF3091E8002150B4
:1055B00035FD06C035ED3A95F1F700002111F5CF24
:1055C0002091E80025FF14C0EC0140E050E068E0C5
:1055D00070E00E94BE2D8091E8008E778093E800F5
:1055E00088E0FE01A1E6B2E001900D928A95E1F714
:1055F000DF91CF910895CF93603219F52091890200
:105600002430F9F4C091E900CF703091EC00232FE1
:10561000217030FD20E8C22B22E02093E900209188
:10562000E80020FF0BC040E050E060E270E00E9424
:10563000BE2D8091E8008E778093E800CF70C093F4
:10564000E900CF9108958AE49EE00E945608809177
:105650008802811109C00E949A2F0E94F72F809121
:10566000E20084608093E200089586E49EE00E9458
:10567000560810928802089582E49EE00C94560821
:105680008EE39EE00E9456080C94212A8AE39EE055
:105690000E9456080E94272A0E94061C0C943A0B6E
:1056A00020915F022F5F822F62E30E94A63299232E
:1056B00019F020935F02089510925F0280916002BA
:1056C000882371F180918902843041F58091E9004D
:1056D0008F702091EC00922F917020FD90E8892B23
:1056E00095E09093E9009091EB0090FF14C09091A9
:1056F000EE0097FF10C09091E80095FF03C0109254
:10570000F100F9CF9091E80090FF05C09091E8007A
:105710009E779093E8008F708093E900109260026A
:10572000089542E061EC81E00E94132F42E261ECB7
:1057300084E00E94132F42E261EC82E00E94132F6A
:1057400042E260EC83E00E94132F42E261EC85E0CC
:105750000C94132F80918B02833009F462C030F4D3
:10576000813071F0823009F49BC008958A3009F4C9
:1057700087C08B3009F46DC0893009F0A9C020C002
:1057800080918A02813A09F0A3C08091E800877F66
:105790008093E80080918E0290918F02892B21F4F2
:1057A00068E081E692E003C060E080E090E070E0B5
:1057B0000E94542E8091E8008B778093E800089532
:1057C00080918A02813209F083C080918E0290918B
:1057D0008F02009719F0029709F07AC08091E800D3
:1057E000877F8093E8008091E80082FD05C080916A
:1057F00089028111F8CF6CC02091F3008091F200F2
:1058000090E0922B029729F48091F1008B7F8130F8
:1058100021F48091F100809369028091E8008B77F8
:1058200053C080918A02813A09F052C080918E0261
:1058300090918F02892B09F04BC08091E800877FFF
:105840008093E8008091E80080FFFCCF80911401F4
:1058500036C080918A028132D9F580918E02909172
:105860008F02892BA9F58091E800877F8093E8005B
:105870000E94482F80918C02809314010C94B221D5
:1058800080918A02813221F58091E800877F8093A0
:10589000E8000E94482F80918D0280936A0208954B
:1058A00080918A02813AA1F48091E800877F8093F9
:1058B000E8008091E80080FFFCCF80916A0280932D
:1058C000F1008091E8008E778093E8000C94482FD7
:1058D00008959FB7F894109260029FBF909189023B
:1058E000943009F057C09091E9009F703091EC001E
:1058F000232F217030FD20E8922B25E02093E90032
:105900002091EB0020FF43C02091EE0027FF3FC015
:1059100020915E02222321F02091E80025FF37C06C
:1059200010925E0226E03091E80035FD15C03091FE
:105930008902343061F53091EB0035FD28C02150EB
:1059400021F481E080935E0222C0EFE9FFE031970D
:10595000F1F700C00000E7CF8093F1008091E800EC
:1059600085FD0AC08091E80080FFFCCF8091E800AF
:105970008E778093E80006C08FB7F89421E02093DB
:1059800060028FBF9F709093E90080E008959F7040
:105990009093E9008FEF08951F93CF93DF93CDB7D6
:1059A000DEB7A0970FB6F894DEBF0FBECDBF84B7A9
:1059B000877F84BF0FB6F894A895809160008861B6
:1059C00080936000109260000FBE90E080E80FB6F8
:1059D000F89480936100909361000FBE0E94C01CF8
:1059E0000E949A2F0E94F72F8091E200846080939A
:1059F000E20078940E948B320E94CE1C8AE091E0F3
:105A00000E94011C0E940F2A89E29EE00E94560813
:105A100013E0809189028530C9F485E29EE00E94FE
:105A2000560880918902853079F40E9492298091EC
:105A300087028823B1F30E947929882391F30E9479
:105A4000A82D0E94B221EDCF0E949B290E94FE1C2E
:105A500080918902843009F51093E9008091E80073
:105A600082FF1BC08091E80085FF0AC040E050E043
:105A700060E270E0CE0101960E94092E91E001C023
:105A800090E08091E8008B778093E800992329F0DB
:105A900060E2CE0101960E94AA170E94CA1CB9CFEB
:105AA0000C94522D292F332723303105C9F060F48F
:105AB0002130310581F02230310509F041C08BE7FA
:105AC00090E026E73EE040C021323105E1F022328D
:105AD000310531F135C082E190E021EF3EE034C084
