:100000000C948D040C94D4040C94D4040C94D40457
:100010000C94D4040C94D4040C94D4040C94D40400
:100020000C94D4040C94D4040C9480270C94BC2617
:100030000C9442190C94D4040C94D4040C94D4045D
:100040000C94D4040C94D4040C94D4040C94D404D0
:100050000C94D4040C9401190C94D4040C94D4047E
:100060000C94D4040C94D4040C94D4040C94D404B0
:100070000C94D4040C94D4040C94D4040C94D404A0
:100080000C94B8140C94D4040C94D4040C94D4049C
:100090000C94D4040C94D4040C94D4040C94D40480
:1000A0000C94D4040C94D4040C94D40472067A06F0
:1000B0008E069606A906B106C406CC06E006E8063A
:1000C000FC06040717071E075B095B0995099509DC
:1000D000F1090D0AA30BA30B180AF60A070B070B6D
:1000E000920F950FBB0FC70FCE0FF00FF30FF30F4B
:1000F000F30F93109310F70FF90FFD0F2310461015
:1001000049104C107110DC1789159415E41536163A
:100110008316C0160A1754177D17A817B921AF21E7
:10012000C721112213221322112213221322E821A4
:100130001322F221FC211322132213221322112253
:100140001322132211221322D521132213220C224F
:100150000C220C220C220C220C220C220C220C222F
:100160000E221322B921AC211322132213221322AF
:100170001322132213221322132213220E221322DC
:100180001322112213220A220A220A220A220A22F6
:100190000A220A220A220A220E22D024F7249E26AC
:1001A000F7249E26432566259E265B266B269A28E5
:1001B0009A28AD28AD28A328AD28AD28AD289A28C7
:1001C0009A28A828AD28AD28A828892A962A9B2AEB
:1001D000A02AA52AAA2AB42ABE2AC82AD02ADA2AFC
:1001E000E72AF12AF92A032B0B2B312B352B3C2B39
:1001F000422B482B532B4D2B592B5C2B5F2B622B07
:10020000652B6D2B752B7D2B832B8B2B912B992B9A
:100210009F2BA92BB42B0000000000000000000061
:1002200000000000000000000000000000000000CE
:10023000000000000000000000007E0F00D4FFFF5F
:10024000FFC70000007800000000000000002A2B1B
:100250002800000000000000000000000000000076
:100260000029000000002C1E3420212224342627DF
:10027000252E362D3738271E1F2021222324252600
:100280003333362E37381F0405060708090A0B0CCE
:100290000D0E0F101112131415161718191A1B1C16
:1002A0001D2F3130232D350405060708090A0B0CD4
:1002B0000D0E0F101112131415161718191A1B1CF6
:1002C0001D2F3130354C00010203040506070809D3
:1002D0000A0B0C0D0E0F1011121314151617181906
:1002E0001A1B1C1D1E1F20212223242526272829F6
:1002F0002AFF2B2CFF2D2E2F303132333435363759
:1003000038393A3B3CFFFFFF3DFFFFFF3E3F404196
:100310004200000F001E002D003C004B005A0069F7
:1003200000780087009600A500B400CB00E0000430
:1003300010171026103510441053106210711080E1
:10034000108F109E10AD10BC10CE10E01006201AB9
:1003500020292038204720562065207420832092B1
:1003600020A120B020C920E02009302230313040C7
:10037000304F305E306D307C308B309A30A930BDDC
:1003800030D230E03002401540274060409840AB0A
:1003900040C340D240E0408AF08CD28EB59199950E
:1003A0007E9C65A650B643C844D851E266E880EC0E
:1003B0009BF0C7F3F085E186BA889C8A7E8D6093B6
:1003C00044A12CC121DE2FEB48F064F482F6A0F7A3
:1003D000C4F8E97FDA7FB17F927F737F547F367FE5
:1003E000170008002700460065008400B700E77981
:1003F000D777A4758672686D4C623247222529161C
:10040000410F5D0B7A08A207CD06E974EC71C76E47
:10041000A4524A1B6A148A0FB70DD40BF0000101D5
:1004200001010101010101020202020202020202B3
:100430000303030303030303040404040404040583
:100440000505050506060606060707070707080847
:100450000808090909090A0A0A0B0B0B0C0C0C0DF8
:100460000D0D0E0E0E0F0F0F101011111112121391
:10047000131414151516161717181819191A1A1B0C
:100480001B1C1D1D1E1E1F2020212222232424256B
:100490002626272829292A2B2C2D2D2E2F303132A4
:1004A00032333435363738393A3B3C3D3E3F4041B4
:1004B00042434445464748494A4C4D4E4F5051539C
:1004C00054555658595A5B5D5E5F61626465666853
:1004D000696B6C6D6F7072737577787A7B7D7E80D7
:1004E00082838587888A8C8E8F91939596989A9C23
:1004F0009EA0A2A3A5A7A9ABADAFB1B3B5B7BABC37
:10050000BEC0C2C4C6C9CBCDCFD1D4D6D8DBDDDF07
:10051000E2E4E7E9EBEEF0F3F5F8FAFDFF165C1E16
:10052000001F0020002100220023002400250026B7
:100530000027002D002E002A004A002B0014001A6C
:10054000000800150017001C0018000C0012001312
:10055000002F00300031004B003900040016000766
:100560000009000A000B000D000E000F00330034DC
:1005700000280000004E00E10000001D001B0006E6
:10058000001900050011001000360037003800E5A2
:100590000052004D00E000E300E200000000000017
:1005A000002C000000000000000151E40050005148
:1005B000004F00165C3A003B003C003D003E003F0F
:1005C000004000410042004300440045004C004A06
:1005D000000100025F035F005F015F065F075F08C5
:1005E0005F095F0100460047004800005C4B00398E
:1005F0000001000100010001000A5F0B5F0C5F0DAC
:100600005F010001000100010000004E00E1000058
:100610000001000100010001000100145C01000163
:1006200000010001000100A900A800010001000173
:1006300000000000000000010000000000000001B8
:10064000000100AC00AA00AB0001000100010001A4
:100650000001000100010001000100010001000192
:100660000001000100010001000100010001000182
:100670000001000100010001000100010001000172
:100680000001000100010001000100010001000162
:100690000001000100010001000100010001000053
:1006A0000001000100000001000100010001000143
:1006B0000001000100010001000100010001000132
:1006C0000001000100010000000000000001000026
:1006D0000000000000010001000100010001000114
:1006E0000001000100010001000100010001000102
:1006F00000010001000100010001000100010001F2
:1007000000010001000100010001000100010001E1
:1007100000010001000100010001000100010001D1
:1007200000010001000100010001000100010001C1
:1007300000010001000000010001000000010001B3
:1007400000010001000100010001000100010001A1
:100750000001000100010001000100010000000093
:100760000000000100000000000000010001000185
:10077000000100010005010902A10185020901A192
:100780000005091901290815002501950875018141
:10079000020501093009311581257F95027508810F
:1007A0000609381581257F950175088106050C0A13
:1007B00038021581257F950175088106C0C00501A5
:1007C0000980A101850319012AB700150126B70088
:1007D000950175108100C0050C0901A1018504195E
:1007E000012AA002150126A002950175108100C002
:1007F00005010906A1018505050719E029E715008E
:1008000025019508750181020507190029EF1500DA
:10081000250195F075018102050819012905950545
:1008200075019102950175039101C00660FF096190
:10083000A1010962150026FF0095207508810209B3
:1008400063150026FF00952075089102C005010977
:1008500006A101050719E029E7150025019508758E
:100860000181029501750881010507190029FF150D
:100870000026FF0095067508810005081901290565
:10088000950575019102950175039101C009025BFF
:1008900000030100A0FA090400000103010100099E
:1008A00021110100012240000705810308000A0907
:1008B00004010002030000000921110100012222AD
:1008C000000705820320000107050303200001093A
:1008D000040200010300000009211101000122B6F9
:1008E000000705840320000A12011001000000081F
:1008F0004B540800010001020001100350006F007A
:1009000072007400690063006F0000000803540067
:100910004B00430000000403090411241FBECFEF65
:10092000DAE0DEBFCDBF04B603FE27C080915605D6
:1009300090915705A0915805B09159058730904B7B
:10094000A740B04BD1F41092560510925705109263
:1009500058051092590514BE84B7877F84BF0FB61F
:10096000F894A8958091600088618093600010924F
:1009700060000FBEE0E0F8E3099512E0A0E0B1E00E
:10098000E6E5FDE502C005900D92A03AB107D9F762
:1009900025E0A0EAB2E001C01D92A635B207E1F75A
:1009A0000E94DD0B0C94A92E0C9400003F924F92F4
:1009B0005F926F927F928F929F92AF92BF92CF92EF
:1009C000DF92EF92FF920F931F93CF93DF93CDB7F8
:1009D000DEB729970FB6F894DEBF0FBECDBFFC017E
:1009E0008081918123813481232B31F09F3F31F429
:1009F00091E08F3F19F403C091E001C090E090FDB9
:100A0000C4C67F0185E0DE01119601900D928A95A2
:100A1000E1F7D70112962C9189819A81222349F01E
:100A20000E94AA1A182F682F89819A810E94231B7D
:100A300003C00E94F71A182F69817A81812F0E94C2
:100A4000601F8C01F7018281882309F40CC2C80160
:100A500082519F45409708F0EEC08FEF93E00E94CF
:100A6000CF2D811119C102513EE9832E32E0932E20
:100A7000002379F08114F4E09F0609F40DC1C4014C
:100A80000E94CF2D811101C001501FEF811A910AE0
:100A9000EFCF1E821F8218861986442443942AE0D1
:100AA000322E84010F5F1F4FC4010E94CF2D8E8311
:100AB0001F82882309F4F0C09FEF980F933060F4F1
:100AC0008F834E8222E0820E911CC8010E94CF2D9E
:100AD0008887811102C0E0C048018E010A5F1F4F64
:100AE000D8012C912223E9F2213009F04FC0119650
:100AF0008C91813049F46801B2E0CB0ED11CF80131
:100B000082810E942F2A0BC0823059F46801F2E0E2
:100B1000CF0ED11CD80112968C910E9431298601EA
:100B200087C0833049F46801B2E0CB0ED11CF801D4
:100B300082810E94F828F3CF843019F00F5F1F4F95
:100B400077C0D80112962C910E5F1F4F80E090E085
:100B500030E0205331092A30310568F4389EA00175
:100B6000399E500D1124C901840F951F0F5F1F4F2F
:100B7000F8012081EDCF009709F45AC0AFE9BFE03A
:100B80001197F1F700C000000197F5CFE22FF0E0D8
:100B9000EA5BFD4F5490822F86958695869590E06E
:100BA000FC01EA5CFD4F64902770712C022E02C09C
:100BB000759467940A94E2F7B1E06B227724FC0104
:100BC000EA5DFD4FA490B12C022E02C0B594A7940B
:100BD0000A94E2F7E1E0AE22BB24FC01EA5EFD4F9D
:100BE000C490D12C02C0D594C7942A95E2F7F1E0C5
:100BF000CF22DD246114710419F081EE0E943129A5
:100C0000A114B10419F086EE0E943129852D0E94AD
:100C10002F2AAB2819F086EE0E94F828672819F0D1
:100C200081EE0E94F828CD2819F08CE20E942F2A2C
:100C30000F5F1F4F55CF0031FFE51F07E1F1013175
:100C40002FE5120709F443C0AE014A5F5F4FF70179
:100C5000608181810E945A14EE81F0E0E652FD4FDE
:100C600010821092A2021092A3021092A40210927B
:100C7000A502F801FF55EE30F10568F10031BFE53E
:100C80001B07D9F4D70112968C91811114C081E011
:100C90000E94741B0E944D2A8091EC03877009F416
:100CA00074C5D70112968C91882309F46EC582E031
:100CB0000E94991B6AC581E00BC00131EFE51E0758
:100CC00009F00BC2F7018281882309F4D6C082E0C3
:100CD0000E94B61BDFCFEA5AFF4FD70112968C91C4
:100CE0000C949C2E882309F4CAC08091180190E0CE
:100CF00008960BC0882309F4C2C08091180190E0C7
:100D0000089797FF02C080E090E08F3F910519F0AF
:100D100014F08FEF90E080931801A2C0882309F4AB
:100D2000AEC08091190190E001960BC0882309F4B0
:100D3000A6C08091190190E0019797FF02C080E062
:100D400090E08B30910514F08AE090E080931901D7
:100D500087C0882309F493C080911A0190E001961E
:100D60000BC0882309F48BC080911A0190E0019791
:100D700097FF02C080E090E08430910514F083E09A
:100D800090E080931A016CC0882309F478C08091A8
:100D90001B0190E008960BC0882309F470C0809175
:100DA0001B0190E0089797FF02C080E090E08F3F22
:100DB000910519F014F08FEF90E080931B0150C063
:100DC000882309F45CC080911C0190E008960BC058
:100DD000882309F454C080911C0190E0089797FF84
:100DE00002C080E090E08F3F910519F014F08FEF82
:100DF00090E080931C0134C0882309F440C08091A6
:100E00001D0190E008960AC08823C9F180911D0158
:100E100090E0089797FF02C080E090E08F3F910537
:100E200019F014F08FEF90E080931D0119C0882312
:100E300031F180911E0190E008960AC08823F9F0F4
:100E400080911E0190E0089797FF02C080E090E03B
:100E50008F3F910519F014F08FEF90E080931E0101
:100E60000E9452140CC000313FE5130709F40FCF64
:100E700001318FE5180709F0FCCE82E009CFD701D8
:100E800012968C91882309F48DC11092A60202302B
:100E9000BCE51B0708F470C10631ECE51E0730F015
:100EA000C8018A5F9C45099708F066C10E94C8196D
:100EB0009093A9028093A8020031FCE51F0709F472
:100EC000C3C008F041C008303CE5130709F49AC0DC
:100ED000F0F404309CE5190709F487C068F4023087
:100EE000BCE51B0709F477C003301C4509F0E5C0D9
:100EF0008091A802826076C00630FCE51F0709F4E5
:100F00006EC008F07BC08091A80288606BC00C3076
:100F10003CE5130709F485C068F40A309CE519071D
:100F200009F474C008F079C00E94CE288091A8020C
:100F3000806858C00E30BCE51B0709F476C008F085
:100F40007FC08091A8028BC00B3FFCE51F0709F40E
:100F50004FC018F503313CE5130709F47DC078F460
:100F600001319CE5190709F473C002311C4509F0F1
:100F7000A4C00E94CE288091A8028F7733C005318B
:100F8000BCE51B0709F472C008F486C00A3F1C4583
:100F900009F093C08091A9023EC00F3F2CE51207D3
:100FA00009F45FC058F40D3F8CE5180709F444C0FC
:100FB00008F43FC08091A90282602DC00130ADE5E8
:100FC0001A0709F475C008F45DC002301D4509F028
:100FD00074C060E06EC08091A802816003C08091FF
:100FE000A80280618093A80268C08091A80211C005
:100FF0008091A90282608093A9025FC08091A802BB
:101000008062F0CF8091A8028064ECCF8091A8022A
:1010100088608460E7CF8160EECF8091A8028E7FE8
:10102000E1CF8091A8028D7FDDCF8091A802877FDC
:10103000D9CF8091A90218C08091A9028D7FDBCF02
:101040008091A8028F7ECECF8091A8028F7DCACFDB
:101050008091A8028F7BC6CF8091A802877F8B7F6B
:10106000C1CF8091A9028D7F8E7FC5CF8091A802CC
:1010700082FB222720F991E0922790FB82F990FBD6
:1010800083F9B0CF8091A902982F909591708E7FAF
:10109000892B90FB81F9AFCF0E94CE288091A802C6
:1010A00087FB222720F991E0922790FB87F99ACFBE
:1010B00061E08EE090E00E94ED2D6091A802109119
:1010C000A90284E090E00E94ED2D612F82E290E081
:1010D0000E94ED2D0E94CE28DFCD033FFCE51F07C7
:1010E000A1F406E221EE40EE63EF7CE50AC0073D85
:1010F0009CE5190709F0C3CE06E221EE41EE67ED4B
:101100007CE5C7010E946F22C7CD043F2CE5120782
:10111000A0F4083D3CE5130731F407E225EE45EE67
:1011200068ED7CE5EECF093D8CE5180701F708E294
:1011300021E045EE69ED7CE5E4CF053FACE51A071B
:1011400031F406E221EE42EE65EF7CE5DACF053FB1
:10115000BCE51B0730F407E225EE44EE64EF7CE5C6
:10116000D0CF063FECE51E0709F089CE07E225EE59
:1011700046EE66EF7CE5C5CF0631FCE51F0711F5AD
:101180008091EF038A7A91E009F490E09093A702AE
:10119000882311F065E301C069E282E693E00E94D2
:1011A00093190DC006311C45F1F58091A7028823E3
:1011B00009F4E9C265E382E693E00E946B190E949C
:1011C0004A1A6ACD0A35FDE51F0741F150F40115B1
:1011D0003CE51307A9F00E3D1C4529F50E94D919DD
:1011E0005BCD0B359DE51907D9F00C351D45D9F4BC
:1011F0008091A90282FB882780F991E0892711C09C
:101200000E94CE28BFEFE4E3FCE0B150E040F040A4
:10121000E1F700C000000E94DD183ECD81E001C072
:1012200080E00E94901AD70112968C9112970D912E
:101230001C91882349F0C8010E94AA1AD82E682F51
:10124000C8010E94231B04C0C8010E94F71AD82EAF
:10125000B8018D2D0E9419128C01982EF701D280B1
:10126000A580A2949FE0A9228091EC03877099F059
:10127000DD2089F0812F807F803421F080E2800F93
:10128000883048F082E00E94991B8091EC038770BF
:10129000CC24C3948111C12CB12EB2948FE0B8221A
:1012A0008B2D90E08C30910508F04DC2FC01EC597B
:1012B000FF4F0C949C2E812F807F1F70882311F08C
:1012C0001295107FDD20B9F0112309F427C280E2C6
:1012D000800F883010F0911006C08091EF03182B1A
:1012E0001093EF0305C08091EE03182B1093EE03CB
:1012F0000E944A1A13C2802F0E94F828112309F471
:1013000022C2005E1095083010F0911006C0809146
:10131000EF0318231093EF0305C08091EE03182309
:101320001093EE030E944A1A0EC2812F807F1F7015
:10133000803211F01295107F992021F0F1E09F1674
:1013400011F130C0DD20B1F0AA2081F001E0A0123F
:101350000DC08091A90282FDF6C18091F003182B87
:10136000181709F4F0C11093F003EDC18091F00358
:10137000812B10C0AA2021F021E0A21609F4E3C1BC
:101380000E94441A2AC0DD2041F035E03A1508F4E5
:10139000DAC1812F0E94EE28D6C184E08A1508F4B4
:1013A000D2C11BC0DD2061F0AA2099F3D7011596A8
:1013B0008C91159780FFB2C18F7015968C93E9CFF1
:1013C000AA2059F0093309F0BBC1BFEFE7EEF3E003
:1013D000B150E040F040E1F7B1C1812F0E94E32815
:1013E000B2C1812F86958695837019F0813059F0AE
:1013F000AAC1DD2019F0C801937002C080E090E01E
:101400000E94D11EA8C1DD2019F0C801937002C04E
:1014100080E090E00E94BB1E9EC1802FDD2019F06D
:101420000E947F2002C00E94861F0E94E22293C178
:10143000812F837009F069C0D11089C1902F9295D6
:1014400096959770990F990F802F8F70882E912CF9
:10145000A12CB12C092E04C0880C991CAA1CBB1C01
:101460000A94D2F704FF12C04FE050E060E070E051
:1014700004C0440F551F661F771F9A95D2F7DB01F2
:10148000CA0180959095A095B09503C080E090E04A
:10149000DC0116951695412F4370423019F1C8F4BE
:1014A0000091F1031091F2032091F3033091F403C2
:1014B000413059F088299929AA29BB29BC01CD01BD
:1014C00060237123822393230AC0802A912AA22AAF
:1014D000B32ABC01CD01682979298A299B290E9458
:1014E000D71B35C188299929AA29BB290091F10365
:1014F0001091F2032091F3033091F403BC01CD016C
:101500006027712782279327EACFDD2019F0812FEA
:10151000817001C08695882309F419C1902F929596
:1015200096959770990F990F802F8F70882E912C18
:10153000A12CB12C092E04C0880C991CAA1CBB1C20
:101540000A94D2F704FF12C04FE050E060E070E070
:1015500004C0440F551F661F771F9A95D2F7DB0111
:10156000CA0180959095A095B09503C080E090E069
:10157000DC0116951695412F43704230D9F068F57D
:101580000091520510915305209154053091550555
:10159000413059F088299929AA29BB29BC01CD01DC
:1015A00060237123822393231EC0802A912AA22ABA
:1015B000B32A13C088299929AA29BB290091520569
:1015C000109153052091540530915505BC01CD0172
:1015D000602771278227932706C0BC01CD016829A7
:1015E00079298A299B290E946A1BB1C01F70DD20BE
:1015F00039F0812F0E94B61B802F0E94EE28A7C0D1
:10160000802F0E94E328812F0E94741BA0C0802F8E
:1016100022EF921609F440C0291538F030EF9316E6
:1016200061F091EF991699F174C0A3EF9A16D9F170
:10163000B4EF9B1609F44EC06CC0DD2019F1E4E054
:10164000EA1508F480C01F7181E090E0A0E0B0E0EE
:10165000AC01BD0104C0440F551F661F771F1A95CA
:10166000D2F78091520590915305A0915405B09105
:1016700055058A019B01082719272A273B27C901FD
:10168000B80125C025E02A1508F45DC0DCCFDD20B7
:1016900029F0812F8F7130C0DD20D9F3812F8F7118
:1016A0000E94741B50C0DD2079F01F7181E090E032
:1016B000A0E0B0E0BC01CD0104C0660F771F881F19
:1016C000991F1A95D2F703C060E070E0CB010E9429
:1016D0006A1B39C0DD2099F01F71812F0E94B61B53
:1016E0008091A90282FD07C038E0139FC001112438
:1016F00083608093EC03812F0E94B61B24C081E09D
:101700000E94991B81E08A15F0F482E00E94991BE7
:101710001AC0DD2039F0AA2009F4BBCF802F0E9427
:10172000312911C0AA2009F4B9CF893349F49FEFB8
:10173000A7EEB3E09150A040B040E1F700C0000038
:10174000802F0E94F82888EF8B0D843020F40E94AF
:10175000E71E0E94A813CC20C1F08091EC0380FD0D
:1017600014C0F70112828595859585950E94B61B58
:10177000C7010E94D6048091EC03859585958595D7
:101780000E94741B02C069E216CD29960FB6F89428
:10179000DEBF0FBECDBFDF91CF911F910F91FF90A4
:1017A000EF90DF90CF90BF90AF909F908F907F9001
:1017B0006F905F904F903F900895CF93DF93CDB798
:1017C000DEB7AA970FB6F894DEBF0FBECDBF84B7C1
:1017D000877F84BF0FB6F894A895809160008861D8
:1017E00080936000109260000FBE90E080E80FB61A
:1017F000F89480936100909361000FBE85B7806874
:1018000085BF85B7806885BF81E498E19093A10288
:101810008093A0020E9400270E941F278091E2006F
:1018200084608093E2007894809145058823A1F03C
:101830001091E9001F709091EC00892F817090FD4C
:1018400080E8182B1092E9008091E80083FD0E9447
:10185000EA231F701093E90082E084BD93E095BDF8
:101860009AEF97BD80936E0086E30E94152286E66C
:101870000E94152287E60E94152287EF0E941522FA
:1018800082E90E9415220AE311E079E4E72E71E073
:10189000F72ED8018D918D010E941522E016F106D8
:1018A000C1F7EAEAF2E084EB92E0AAE3B3E0119236
:1018B00011921D921D928E179F07C9F780E090E04C
:1018C0000E94D72D8A3E9E4F11F00E94D91982E0C6
:1018D00090E00E94CF2D80932F030E94C81990930F
:1018E000A9028093A8020E940C23EFEFF6E721E003
:1018F000E150F0402040E1F700C000000E940C23BE
:1019000080913A0380FF17C06FEF83E290E00E945E
:10191000ED2D6FEF84E290E00E94ED2D6FEF85E2F8
:1019200090E00E94ED2D6FEF7FEF80E090E00E944D
:101930000B2E0E94DD1883E090E00E94CF2D682FCF
:1019400070E080E090E00E94D71B0E946D1F88230A
:1019500049F04FE150E067E270E086E191E00E94DB
:10196000BF2D02C00E9452140E94AF2C84E70E9437
:10197000DD1387E70E94DD1349E4E42E41E0F42EF5
:10198000C12CD12C42E158E0852E912CAA24A3949D
:10199000B12C55245394D70111966C91119770E096
:1019A000CB01849712960C91129710E00452110902
:1019B0001396EC91F0E0B4979C0197FF02C0295F69
:1019C0003F4FB90123E0759567952A95E1F7D60158
:1019D000AA0FBB1FAA0FBB1FA75BBE4F2C91237082
:1019E00030E0429FD001439FB00D1124AA54BD4F57
:1019F0003D01660E711CB4010E94882EB50102C023
:101A0000660F771F8A95E2F7CB01D3019C91892B52
:101A10008C93C80117FD0796B3E095958795BA9505
:101A2000E1F7429FB001439F700D11246A547D4F2E
:101A30003B01680E711CC801B4010E94882EB501DB
:101A400002C0660F771F8A95E2F7CB01D3019C9104
:101A5000892B8C93CF01F7FD0796A3E09595879589
:101A6000AA95E1F7429F8001439F100D11240A546B
:101A70001D4F080F111DCF01B4010E94882EF501E2
:101A800002C0EE0FFF1F8A95E2F7CF01D8019C91AB
:101A9000892B8C93F901EC54FD4F5082BFEFCB1A88
:101AA000DB0AE4E0EE0EF11CF3E4CF16D10409F0FA
:101AB00072CF60E084E70E94AB1361E087E70E9489
:101AC000AB13EAEDF2E08DE193E02FEF21938E1757
:101AD0009F07E1F780911D0381110EC081E0809383
:101AE0001D038DE0809391009FB7F89423E020932D
:101AF0009900809398009FBF8091710082608093CD
:101B000071000E946D1F882309F456C386E091E09E
:101B100090931F0380931E03E8E12E2E312CBB24EB
:101B2000B394F4E44F2EF3E05F2EAA24A3948E0125
:101B30000F5F1F4F6E012BE0C20ED11C8091450537
:101B4000853009F04FC050E4952E60E1E62E72E139
:101B5000F72E80914505853009F03CC08091450500
:101B6000843031F1A092210380E00E94A8131092EA
:101B700020030FB6F894A895209260000FBE9092B3
:101B8000600083B7817F846083BF83B7816083BF38
:101B90007894889583B78E7F83BF0FB6F894A89505
:101BA00080916000886180936000109260000FBE99
:101BB00080914405882309F4CCCF0E940C23EAE3EA
:101BC000F3E081919191892B09F0D7C24E165F06FF
:101BD000C1F7BFCF0E94CE280E94E71E0E94A81323
:101BE000109221030E940C23882359F08FB7F89498
:101BF000409144035091450360914603709147031F
:101C00008FBFA0E3B3E0EAE3F3E0E12CF12C7E2DFB
:101C1000219131918D919D9182279327009779F1A0
:101C200060E088248394912CAC0148215921452BF4
:101C300009F169A37AA32821392181E0232B09F432
:101C400080E08BA30E9436198160782F9DA38CA31E
:101C500049A15AA16BA18DA10E941D1EF701EE0F93
:101C6000FF1FE05DFC4F808191818826992691823B
:101C700080821CC06F5F880C991C6F30A9F63FEF03
:101C8000E31AF30A45E0E416F10409F68FEF8EA398
:101C90008FA318A60E9436198160782F9AA789A76A
:101CA0004EA15FA168A58AA50E941D1E86E0E8E2FC
:101CB000F3E0D80101900D928A95E1F780902A0314
:101CC00090902B03E0902C03F0902D0310922A03A8
:101CD00010922B0310922C0310922D03811003C03D
:101CE000992009F45BC080912603909127030E94FC
:101CF0002719AC0190912503992339F02091050112
:101D000030E02417350758F049C0209104016AE0FB
:101D1000269F900111242417350718F03FC09F3FDC
:101D200019F09F5F90932503882061F00E94362070
:101D3000181414F491E001C09FEF899F802D1124A5
:101D400080932A03992061F00E943620191414F41C
:101D500091E001C09FEF899F802D112480932B0378
:101D600030912A033323D1F020912B032223B1F0A9
:101D700075EB3703C0011124992319F090932A03BE
:101D800002C0B0922A0335EB2303C001112499232A
:101D900019F090932B0302C0B0922B03E11003C003
:101DA000FF2009F44FC080912303909124030E94E7
:101DB00027199C0190912203992309F416C2253614
:101DC000310508F43FC09F3F19F09F5F90932203B5
:101DD000EE2061F00E94FD1F1E1414F491E001C07A
:101DE0009FEF899F802D112480932C03FF2061F0A9
:101DF0000E94FD1F1F1414F491E001C09FEF899F02
:101E0000802D112480932D0330912C033323D1F0A6
:101E100020912D032223B1F045EB3403C00111249E
:101E2000992319F090932C0302C0B0922C0365EB18
:101E30002603C0011124992319F090932D0302C0A9
:101E4000B0922D0380912A0381110BC080912B0346
:101E5000811107C080912C03811103C080912D0353
:101E600081110E94E2228B829C82ED82FE8286E0BA
:101E7000F801A8E2B3E001900D928A95E1F70E9483
:101E8000E71E90912E03891731F00E94E71E809380
:101E90002E030E94A81380914505843009F04ECE90
:101EA00083E08093E9008091E80082FF47CE809133
:101EB000E80085FF21C00E94552881111BC080E2E7
:101EC000882E912C780109C08091F100D7018D9363
:101ED0007D01B1E08B1A910869F08091E80085FDE1
:101EE000F3CF8091E8008B778093E8000E9455281B
:101EF000882399F391E001C090E08091E8008B770E
:101F00008093E800992309F419CEE9818E2F90E09F
:101F1000FC013197E331F10508F005C1E059FF4FAD
:101F20000C949C2E1A8289E066C08A81823009F462
:101F30003AC1833089F0813009F055C02FB7F89449
:101F40008091440390914503A0914603B0914703CB
:101F50002FBFBB83AC8320C0F801AAE3B3E08C9110
:101F600011969C9111971296928383833296CE1686
:101F7000DF06A9F7DAC08A818230A9F56B817C81FE
:101F80008D819E810E94A22E86E290E026C04C8127
:101F90006B818A810E94391F9D830CC1ED80FE8078
:101FA000FE24EF24FE248C818B809A81EEE18E9EAC
:101FB00040011124F6E99F9F800C911C1124880E8A
:101FC000911C880E911C26E4820E911C6F2DC40179
:101FD0000E94ED2D6E2DC40101960E94ED2DA5C02D
:101FE0000E94031FA2C0C8010E946B2A9EC080E10C
:101FF00051C0BA8282E68B8398C0EA80FB80FE24BF
:10200000EF24FE248C80912C3801C70182569D4F0D
:102010009301201B310B2815390508F086C032E6E4
:10202000E31631E0F30630F40E94CF2DD30114966D
:102030008C9302C0F3011482FFEFEF1AFF0A2FEF17
:10204000621A720AE2CFEA80FB80FE24EF24FE24AB
:102050008C80912C3801C70182569D4F9301201B23
:10206000310B2815390508F060C032E6E31631E07F
:10207000F30628F4D30114966C910E94ED2DBFEF66
:10208000EB1AFB0AEFEF6E1A7E0AE5CF0E94F31EF1
:102090004CC084E08A8349C0EA80FB80FE24EF24A0
:1020A000FE248C80912C3801C7018A5B9F4F9301DD
:1020B000201B310B28153905C0F5F8E5EF16F2E0C5
:1020C000FF0630F40E94CF2DD30114968C9302C0EA
:1020D000F3011482FFEFEF1AFF0A2FEF621A720A60
:1020E000E3CFEA80FB80FE24EF24FE248C80912C39
:1020F0003801C7018A5B9F4F9301201B310B2815C4
:10210000390598F438E5E31632E0F30628F4D301F4
:1021100014966C910E94ED2DBFEFEB1AFB0AEFEFC6
:102120006E1A7E0AE6CF8FEF898380914505843051
:1021300009F004CD8091E9008F702091EC00922F7E
:10214000917020FD90E8F92EF82A82E08093E90052
:102150008091E80080FF0CC040E050E060E270E059
:10216000C8010E94D12B8091E8008E778093E8000F
:102170008F2D8F708093E900E1CCE9BCF9BC09B4E4
:1021800000FEFDCF8091D8008F7D8093D800809194
:10219000E00082608093E0008091E00081FDFCCF50
:1021A0000E94CE28D6CC86E290E00E94CF2D1B82E2
:1021B0001C821D828E83B9CF60E086E290E00E948F
:1021C000ED2D0E94031F0E94F31E61E283E290E066
:1021D0000E94ED2D67E084E290E00E94ED2D68E220
:1021E00085E290E00E94ED2D91CC2D32314008F037
:1021F000ECCD28CECF92DF92EF92FF920F931F93F8
:10220000CF93DF93F62E472FE82FF0E0711106C031
:10221000E35EFB4F8491782F682F73C0272F30E047
:10222000E35EFB4FE491FE2F0E2F10E056E0659F1A
:10223000C0011124CFEFD0E0BE010E94742E5BEAF2
:102240005603C001579F900D11248F0D911D8F0DC6
:10225000911D982F990F980F7E01E21AF30AE09EC4
:10226000D001E19EB00DF09EB00D11248B2F499F3F
:10227000A0011124452F55277E01E41AF50AE09E9E
:10228000A001E19E500DF09E500D11246E01C91A5F
:10229000D108C29E7001C39EF00CD29EF00C112496
:1022A0002F2D3327C21BD30BC09F9001C19F300D30
:1022B000D09F300D1124932F6230710591F048F4B6
:1022C00061157105E1F061307105B9F49E2FE52FBC
:1022D00016C06430710569F040F06630710579F020
:1022E0000CC09E2FEB2F832F0AC0EB2F8F2F952F23
:1022F00006C09B2F8E2FE32F02C09B2F852F7E2F92
:10230000692FDF91CF911F910F91FF90EF90DF9098
:10231000CF900895CF92DF92FF920F931F93CF93A8
:10232000DF93C9E4D1E000E010E050E991E0FA80E9
:102330007B81F801EE0FFF1FEE0FFF1FE75BFE4FE3
:10234000A081A370B0E0E9815A9F90015B9F300D9E
:10235000112428503C4F6901CE0ED11CF601B497D0
:102360008083F901EF0DF11DB4976083270F311DB4
:10237000F901B4974083A85EBA4F9C930F5F1F4F3B
:1023800024960334110599F6DF91CF911F910F9197
:10239000FF90DF90CF9008958334910540F5880F2A
:1023A000991F880F991FFC01E75BFE4F5281338113
:1023B000808183707181A82FB0E0E0E98E9FC00119
:1023C000112488509C4FFC01E70FF11DB4976083E6
:1023D000FC01E50FF11DB4974083830F911DFC01B3
:1023E000B4972083FD01E85EFA4F81E08083089571
:1023F000CF93C82F809118010E94FA10CE3F29F484
:10240000482F872FCF910C948A11282F462F672FA2
:102410008C2F90E0CF910C94CC11EDE4F3E060832D
:10242000418324E630E042E050E0BF01880F0C9485
:102430003C2DCF93DF930E94601FEC018238910501
:1024400059F1A0F48133910509F473C040F4893245
:10245000910509F467C08A9709F472C084C0853376
:10246000910509F458C0C997B9F07DC0833E910524
:1024700071F138F4803E9105B1F0823E910511F181
:1024800072C0863E9105B9F1873E9105C9F1843E3F
:10249000910509F068C024C08091A80280FD5DC04C
:1024A00081FD5BC060C08091A80280FD50C080911A
:1024B000A90280FF49C18091A80284FD43C1C3EEF7
:1024C000D0E042C18091A80282FF3EC1F4CF80914A
:1024D000A80282FD3FC08091A90280FD3EC0EBCFE3
:1024E0008091A90281FF30C18091A80284FD2AC198
:1024F000C7EED0E029C18091A80283FF25C1F4CFA7
:102500008091A80283FD2CC08091A90281FFECCFAD
:10251000C4EED0E019C18091A80285FF15C1C9E2BF
:10252000D0E012C18091A80285FF0EC1C5E3D0E0C2
:102530000BC18091A80286FF07C1CAE2D0E004C1A6
:102540008091A80286FF00C1C1E3D0E0FDC0C9E3CD
:10255000D0E0FAC0C2EED0E0F7C0C0EED0E0F4C0E8
:10256000C6EED0E0F1C0C11581E5D80708F066C01D
:10257000C11520E5D207E0F0CE0174E0969587956D
:102580007A95E1F783709C2F937021E030E002C0D0
:10259000220F331F9A95E2F73C68382BCF70C6950F
:1025A000C69540E2C49FE0011124C22BD32BCCC0BE
:1025B000C83ED10560F5C03ED10508F0C5C0C83A97
:1025C000D105B0F4C53AD10540F0C55AD0E0C259A2
:1025D000DD4FC881D0E0D064B7C0C130D10509F467
:1025E000B3C008F4AFC0C430D10508F4ABC0ACC070
:1025F000CF3BD10508F0A6C0C85AD0E0CC0FDD1FF4
:10260000CF58DD4F0990D881C02DD4649DC0C1152D
:1026100040E2D40758F4C11581E0D80708F094C00F
:10262000C03FD10508F48EC0D0658EC0C11520E42E
:10263000D20708F487C0DF70D06A86C0C11545E5AF
:10264000D40708F042C0C11584E5D80728F0DC2F74
:10265000CC27C46FD06A78C0C11523E5D207B0F08B
:10266000CE018370992721E030E002C0220F331F92
:102670008A95E2F78C2F8695869540E2849FC0016B
:102680001124E901C82BD92BDA685EC0C11542E5D7
:10269000D40728F4DC2FCC27C16FD06A55C0CE01F7
:1026A0008370992721E030E002C0220F331F8A9502
:1026B000E2F78C2F8695869540E2849FC001112415
:1026C000E901C82BD92BDC683FC0C11589E5D807C3
:1026D000B8F4C11528E5D20728F0DC2FCC27C06F4D
:1026E000D06A32C0C11546E5D40760F58C2F0E9430
:1026F0002C228F71C82FD0E0DC2FCC27D06224C0D1
:10270000C1158AE5D80780F48C2F8F700E942C2287
:1027100094E0D695C7959A95E1F7CF70D0E0DC2F7D
:10272000CC27D069C82B10C0CE019056811590429D
:1027300048F48D2F8F710E942C22DD27D0628F717B
:10274000D82B02C0C0E0D0E0CE01DF91CF91089538
:10275000809361030895DF92EF92FF920F931F938E
:10276000CF93DF93262F30E0A9014C545D4F7A01BF
:10277000FA01908191110AC0F7011082DF91CF9187
:102780001F910F91FF90EF90DF900895D82EF2E106
:102790006F9FE001112400E010E0F801EC0FFD1F35
:1027A000EA54FD4F4081602F8D2D0E940D120F5F66
:1027B0001F4F0231110589F7DFCFCF93DF93C82F69
:1027C0004BE06DEF0E940D1240E06AE08C2F0E94FA
:1027D0000D128FE39CE90197F1F700C0000040E083
:1027E00060E08C2F0E940D1240E061E08C2F0E946F
:1027F0000D1240E066E08C2F0E940D1240E06DEF5C
:102800008C2F0E940D12D0E040E06D2F8C2F0E9483
:102810000D12DF5FD231C1F740E06D2F8C2F0E9487
:102820000D12DF5FD432C1F740E06D2F8C2F0E9474
:102830000D12DF5FD43BC1F74BE06DEF8C2F0E9490
:102840000D1241E06AE08C2F0E940D1240E06DEF06
:102850008C2FDF91CF910C940D120F931F93CF9378
:10286000DF93082F000FEB0114E210934D03EEE409
:10287000F3E0DE018D91819383E0EE35F807D1F727
:1028800024E630E041E150E06DE473E0802F0E94E7
:102890003C2D105F6096143B41F7DF91CF911F9163
:1028A0000F9108954FE150E067E270E086E191E01A
:1028B0000C94DD2D853020F08FEFDA018C93089594
:1028C0006F30D0F7E62FF0E0BFE08B9FE00DF11DF9
:1028D0001124EA53FD4FE491DA01EC930895AF928D
:1028E000BF92CF92DF92EF92FF920F931F93CF93FD
:1028F000DF931F92CDB7DEB792E0980F923028F4A5
:10290000FB018083FA0110821DC06A015B01F82E71
:1029100000E0EE24EA9410E0E982AE014F5F5F4FE1
:10292000612F802F0E945A148981F81205C0F50189
:102930000083F601108306C01F5F1F3069F70F5F29
:10294000053049F70F90DF91CF911F910F91FF90C4
:10295000EF90DF90CF90BF90AF900895FC01862F4D
:10296000642F853010F080830895AF010C945A14C1
:102970001F920F920FB60F9211244F925F926F9297
:102980007F928F929F92AF92BF92CF92DF92EF92FF
:10299000FF920F931F932F933F934F935F936F93E8
:1029A0007F938F939F93AF93BF93EF93FF93CF93B7
:1029B000DF931F92CDB7DEB780914C03843120F4B2
:1029C0008F5F80934C0338C38091480390914903F3
:1029D000A0914A03B0914B030196A11DB11D8093B4
:1029E000480390934903A0934A03B0934B0340914B
:1029F000A2025091A3026091A4027091A5024F3FE0
:102A00002FEF52076207720761F04F5F5F4F6F4F02
:102A10007F4F4093A2025093A3026093A40270934D
:102A2000A5023AEDC32E32E0D32E4DE153E0F6017C
:102A300020812F3F11F02F5F208331964E175F07C3
:102A4000B9F7E0911901EF3F41F580739927AA2763
:102A5000BB2724E0B695A795979587952A95D1F73A
:102A600082309105A105B10589F083309105A1055A
:102A7000B10579F040E00197A105B10511F060E0E2
:102A80000AC06FEF80E00E948A11D6C24FEF60E06B
:102A9000F9CF4FEF6FEF8FEFF6CF20912103222375
:102AA00021F02091160125FD1EC02091170122233F
:102AB000E1F060EB74E0269FA001279F500D1124E8
:102AC000052E000C660B770B21E08090A2029090FF
:102AD000A302A090A402B090A502481559056A056A
:102AE0007B0520F002C021E001C020E0022F017030
:102AF00020FDE0E0E0901001E09310014E2F50E047
:102B00004B30510508F058C2FA01ED57FF4F0C94B5
:102B10009C2E60911B0170911C01809118010E94F4
:102B2000FA10482F872F4BC260911B0170911C0136
:102B3000809118010E94FA10962E872E782E6091AF
:102B40001D0170911E01809118010E94FA10662EDD
:102B5000572E482E16E1C12E11E0D12E10E0AA24E6
:102B6000A394B12CE12CF12CAE014F5F5F4F6E2D81
:102B7000812F0E945A1489818334C0F4F60125897B
:102B80003689A5010E2C02C0440F551F0A94E2F7A6
:102B90002423352390E0232B21F4272D492D682D64
:102BA00003C0242D462D652D0E94CC11FFEFEF1A96
:102BB000FF0A2FE0E216F104B9F61F5F82E0C80EAB
:102BC000D11C153079F6FDC180911D0190E0209156
:102BD0001B01821B91098038910514F09A9505C05C
:102BE0008138EFEF9E070CF4939597FD039695952A
:102BF000879595958795F82E80911E0190E02091FC
:102C00001C01821B910997FD0396959587959595D3
:102C10008795182FE0901801A1E1AA2EA3E0BA2E03
:102C2000C12CD12CF50184913196E491E295EF709D
:102C300060911B01EF9D600D112470911C01E19FBB
:102C4000700D11248E2D0E94FA10462F282F672F09
:102C5000C6010E94CC11FFEFCF1ADF0A22E0A20EBC
:102C6000B11C83E4C816D104E9F6ABC190901B01F6
:102C700080911D0190E08919910997FD0396959522
:102C8000879595958795182F80901C0180911E013E
:102C900090E08819910997FD0396959587959595EC
:102CA0008795F82E0E94AF2D63E470E00E94882E75
:102CB000C12CD12C5C01BB24E4E0EE1203C0AC14A7
:102CC000BD04C9F40E94AF2D8370792C819F700CD4
:102CD00011240E94AF2D8370782D8F9D700D1124CB
:102CE000672D809118010E94FA10462F282F672F18
:102CF000C6010E94CC11FFEFCF1ADF0A23E4C216EF
:102D0000D104D1F65EC100901A0104C0880F991F4A
:102D1000AA1FBB1F0A94D2F7182FE12CF12C6FE3E6
:102D2000A62EB12CF60121916F01F4E02F9F9001A6
:102D300011248AE2E816F10431F42091FE02E4E065
:102D40002E9F900111242034310520F4B501621B1F
:102D5000730B02C060E070E0610F7FEF809118019B
:102D60000E94FA10462F282F672FC7010E94CC110E
:102D7000FFEFEF1AFF0A23E4E216F10499F621C1EE
:102D800000901A0104C0880F991FAA1FBB1F0A9444
:102D9000D2F7182F7090180141E1A42E43E0B42E11
:102DA000E12CF12C5FE3852E912CF60121916F012E
:102DB000F4E02F9F900111248AE2E816F10431F427
:102DC0002091FE02E4E02E9F900111242034310571
:102DD00020F4C401821B930B02C080E090E0F50157
:102DE00064913196E491610F680F7FEF872D0E9407
:102DF000FA10462F282F672FC7010E94CC11FFEF32
:102E0000EF1AFF0A22E0A20EB11C83E4E816F104D7
:102E100061F6D7C000901A0104C0880F991FAA1F3D
:102E2000BB1F0A94D2F7182F7090180121E1A22E2F
:102E300023E0B22EE12CF12C3FE3832E912CF601FE
:102E400081916F01F4E08F9FC00111242AE2E21604
:102E5000F10431F48091FE02E4E08E9FC001112460
:102E60008034910520F4B401681B790B02C060E046
:102E700070E0F50184913196E491E10F6E0F7FEFE0
:102E8000872D0E94FA10462F282F672FC7010E9416
:102E9000CC11FFEFEF1AFF0A22E0A20EB11C83E46F
:102EA000E816F10461F68DC00E94AF2D63E470E076
:102EB0000E94882EC12CD12C5C01BB24E8E0EE12CC
:102EC00003C0AC14BD0489F40E94AF2D182F0E94DA
:102ED000AF2D612F782F809118010E94FA10462F94
:102EE000282F672FC6010E94CC11FFEFCF1ADF0AEF
:102EF00023E4C216D10411F764C000901A0104C083
:102F0000880F991FAA1FBB1F0A94D2F7182FB090E1
:102F1000180197E9C92E93E0D92EE12CF12CF60186
:102F2000649131967491610F8B2D0E94FA10462F97
:102F3000282F672FC7010E94CC11FFEFEF1AFF0A5D
:102F400022E0C20ED11C83E4E816F10441F739C037
:102F500000901A0104C0880F991FAA1FBB1F0A9472
:102F6000D2F7182FB090180187E9C82E83E0D82E29
:102F7000E12CF12CF601649131967491610F67FD9B
:102F800060956695669580911B01680F76957158DE
:102F90008B2D0E94FA10462F282F672FC7010E9401
:102FA000CC11FFEFEF1AFF0A22E0C20ED11C83E41E
:102FB000E816F104F9F605C040E060E080E00E9408
:102FC0008A11011139C0809121018F3F51F09091F8
:102FD000610391FF06C060911F01709120010E9462
:102FE000F81183E00E944E1B882349F080912A014A
:102FF0008F3F11F160912801709129011BC082E07F
:103000000E944E1B882349F0809127018F3FA1F039
:1030100060912501709126010DC081E00E944E1B38
:10302000882351F0809124018F3F31F0609122017B
:10303000709123010E94F8110F90DF91CF91FF91C1
:10304000EF91BF91AF919F918F917F916F915F9120
:103050004F913F912F911F910F91FF90EF90DF9033
:10306000CF90BF90AF909F908F907F906F905F9028
:103070004F900F900FBE0F901F90189580912205D2
:10308000089580E00895CF93DF9300D01F92CDB7CD
:10309000DEB790914505943011F589837B836A836F
:1030A0009093E9008FEF9091E800815095FD06C064
:1030B00095ED9A95F1F700008111F5CF8091E80028
:1030C00085FF0DC040E050E063E070E0CE01019666
:1030D0000E94D12B8091E8008E778093E8000F90BA
:1030E0000F900F90DF91CF910895BC0184E00C9474
:1030F0004318BC0183E00C94431824E02093E900BA
:103100002FEF3091E800215035FD06C035ED3A959E
:10311000F1F700002111F5CF2091E80025FF0BC049
:1031200040E050E066E070E00E94D12B8091E80022
:103130008E778093E8000895CF93DF93209111015B
:10314000222339F02091A80227FF03C060E224E087
:1031500002C068E021E02093E9002FEF3091E80001
:10316000215035FD06C035ED3A95F1F700002111EB
:10317000F5CF2091E80025FF1DC0EC0180911101E1
:10318000811105C040E050E068E070E003C070E0ED
:1031900040E050E0CE010E94D12B8091E8008E7774
:1031A0008093E80080E2FE01A3E2B5E001900D9279
:1031B0008A95E1F7DF91CF91089581E08093E00057
:1031C00080E28093D8001092C9008FE19EE40197BD
:1031D000F1F700C0000087E090EBDC01809356051A
:1031E00090935705A0935805B09359059CE088E14A
:1031F0000FB6F894A895809360000FBE909360007E
:10320000FFCF78941F920F920FB60F9211248F93D5
:103210009F93AF93BF938091440390914503A091F6
:103220004603B09147030196A11DB11D809344034D
:1032300090934503A0934603B0934703BF91AF918A
:103240009F918F910F900FBE0F901F9018959C012A
:103250004FB7F8948091440390914503A0914603A1
:10326000B09147034FBF821B930B08952FB7F8947B
:103270008091440390914503A0914603B091470388
:103280002FBF08951F920F920FB60F9211248F93A4
:103290009F93AF93BF9380912003811113C08091BE
:1032A000440390914503A0914603B0914703419692
:1032B000A11DB11D8093440390934503A093460341
:1032C000B0934703BF91AF919F918F910F900FBE25
:1032D0000F901F901895209111012223C9F0209181
:1032E000A80227FF15C0262F2695269526952E3154
:1032F000C8F4FC01E20FF11D677081E090E001C0AD
:10330000880F6A95EAF780959281892382830895D0
:10331000FC0106962281621301C012823196E817E1
:10332000F907C1F70895209111012223C1F02091DE
:10333000A80227FF14C0262F2695269526952E3104
:1033400030F5FC01E20FF11D677081E090E001C0F3
:10335000880F6A95EAF79281892B82830895FC0190
:1033600032962FEF30E04191641789F02F3F19F426
:10337000411101C0232F3F5F3630A9F72F3F39F0AD
:10338000FC01E20FF11D27FDFA956283089508956F
:10339000CF9384E090E00E94CF2DC82F82E290E08E
:1033A0000E94CF2D2C2F30E0A901582BCA01CF91BC
:1033B00008956AEE7EEF80E090E00E940B2E60E0C0
:1033C00082E090E00E94ED2D60E083E090E00E94BA
:1033D000ED2D1092F1031092F2031092F30310926C
:1033E000F40360E084E090E00E94ED2D60E082E272
:1033F00090E00E94ED2D60E085E090E00E94ED2DD0
:1034000060E086E090E00E94ED2D6FEF87E090E0B5
:103410000E94ED2D40E050E0BA0188E090E00E946B
:10342000FF2D60E08DE090E00E94ED2D40E050E047
:10343000BA0188E190E00E94FF2D60E087E190E012
:103440000E94ED2D40E050E0BA018CE190E00E9436
:10345000FF2D60E070E080E290E00E940B2E40E0E3
:1034600050E0BA0188E190E00E94FF2D40E050E07A
:10347000BA018FE090E00E94FF2D40E050E0BA01D9
:1034800083E190E00C94FF2D8091F0038111109264
:10349000F00308959091EF038091EE03892B209122
:1034A000ED03982F922B909362038091F003882371
:1034B000D9F0892B8093620380911101882331F028
:1034C0008091A80287FF02C08EE101C086E0E4E699
:1034D000F3E090E0815028F021912223D9F39F5FFF
:1034E000F9CF91110E94441AE0911E03F0911F033D
:1034F0003097A9F080911101882359F08091A8029A
:1035000087FF07C0809162038093630385E0809307
:1035100062030280F381E02D82E693E0099408952E
:10352000CF93C091A902C2FB992790F9981781F017
:1035300080FBC2F9C093A9026091A80284E090E0E8
:103540000E94ED2D6C2F82E290E0CF910C94ED2D36
:10355000CF910895BF92CF92DF92EF92FF920F9397
:103560001F93CF93DF938C01C0905205D0905305E9
:10357000E0905405F09055058091F1039091F2038D
:10358000A091F303B091F403C82AD92AEA2AFB2AAE
:10359000CFE1D0E0D701C6010C2E04C0B695A795A7
:1035A000979587950A94D2F780FD04C0219790F7EC
:1035B000B12C07C0BC2EB8018C2F0E9419120197A4
:1035C000A9F38B2DDF91CF911F910F91FF90EF9079
:1035D000DF90CF90BF900895CF93DF93EC010E94CE
:1035E000AA1ABE010E941912DF91CF9108952FE00F
:1035F000929F800D1124682F669566956695982F89
:10360000977085E0689FB001112440E050E080E0B1
:10361000FB01E40FF51FE654FC4F208130E0092E3A
:1036200002C0369527950A94E2F721703327042EBD
:1036300001C0220F0A94EAF7822B4F5F5F4F45309B
:10364000510531F708952FE0929F800D1124E82F46
:10365000E695E695E695877051E001C0550F8A958D
:10366000EAF785E0E89FF0011124E654FC4F20E0E2
:1036700030E070E04081CB01022E02C09695879524
:103680000A94E2F7817081958427852384278193AA
:103690002F5F3F4F2530310569F70895409152055E
:1036A0005091530560915405709155054115510590
:1036B0006105710529F441E0882351F040E008C01C
:1036C00004C076956795579547958A95D2F74170CE
:1036D000842F089560935205709353058093540589
:1036E000909355050C94B1280F931F9341E050E03F
:1036F00060E070E004C0440F551F661F771F8A9575
:10370000D2F74095509560957095809152059091B3
:103710005305A0915405B09155058A019B010823DA
:1037200019232A233B23C901B8011F910F910C943F
:103730006A1B2091EC03809582238093EC03982FE1
:10374000977041F430E0482F082E000C550B2417D9
:10375000350721F49091A90292FF07C085958595C0
:1037600085950E94741B1092EC0308950F931F938C
:1037700041E050E060E070E004C0440F551F661F58
:10378000771F8A95D2F78091520590915305A091A9
:103790005405B09155058A019B01082B192B2A2B42
:1037A0003B2BC901B8011F910F910C946A1B6093C8
:1037B000F1037093F2038093F3039093F4030C945A
:1037C000B1288091B90390918803891719F08F5F10
:1037D0008770FBCF08950F931F93CF93DF93809152
:1037E000870382958F7009F05DC0809184038823E0
:1037F00009F458C08091B903109188036091820345
:1038000070918303C0918503D091860391E06F3F4F
:1038100009F090E0292F06E0811709F443C02097B2
:1038200021F07F3F21F030E003C031E001C0322FB2
:1038300090E030FD34C0089FF001099FF00D112485
:10384000DF01A757BC4F11963C911197371327C042
:103850003C91361324C012963C91129731111FC02F
:1038600013964D915C9114974C1B5D0B483C510590
:10387000B0F4809187038F70806180938703E25753
:10388000FC4F80818F708061808382E893E00E948A
:10389000D604DF91CF911F910F910C94E11B0196FB
:1038A0008770BACFDF91CF911F910F9108959F92AA
:1038B000AF92BF92CF92DF92EF92FF920F931F933E
:1038C000CF93DF93CDB7DEB761970FB6F894DEBF25
:1038D0000FBECDBF8C0185E0F801DE011D96019081
:1038E0000D928A95E1F7F80190818181E280309113
:1038F00082036091830340918503509186034115B3
:10390000510531F06F3F31F421E03F3F19F403C01E
:1039100021E001C020E0F22FF1709F2E20FD23C195
:10392000F801C380D48022E8A22E23E0B22EF090CA
:103930008403F601E41BF50BFF2009F4CEC02091AF
:103940008703E83CF10508F099C0422F407F09F059
:1039500051C0681311C039130FC0FE2CE1100CC008
:103960002F70206120938703C5010E94D6048091A7
:103970008703F801858337C1CD2831F08F3F31F4BB
:1039800021E09F3F19F403C021E001C020E020FDA9
:1039900003C021E02E2502C020E030E0F22FF170BC
:1039A000FF2E20FF1DC02091B9034091880356E0EF
:1039B000241709F4F6C030E0529FF001539FF00D38
:1039C0001124E757FC4F6181861306C0608196136E
:1039D00003C06281E61204C02F5F3F4F2770E8CF1B
:1039E000FE2CEE2009F4FFC0809187038160809354
:1039F000870350C0681307C0391305C0E11003C026
:103A0000F80125838DC09D878E878D859E850E94B8
:103A10008828882369F1EE2059F120918703822FAD
:103A200082958F7090E0029774F08091820390915C
:103A3000830398878F831986DB86CA862C87CE01FD
:103A400007960E94D60486E0F801A2E8B3E0019050
:103A50000D928A95E1F70E94EB1B0DC06817E1F00B
:103A60009D878E878D859E850E94882881111EC026
:103A7000C8010E94D604FF24F394B5C0422F407FB2
:103A800069F782E893E00E94D60486E0F50111927E
:103A90008A95E9F7F12CA7C03913E2CFE110E0CF06
:103AA000F8012583C8010E94D60457C0EE2001F317
:103AB00020918703822F82958F7090E002971CF2ED
:103AC00080918203909183039A8389831B82DD8294
:103AD000CC822E83CE010196B4CFE83CF105E8F507
:103AE000FE2CEE2029F2681327C0391325C020913F
:103AF000870320FD18C0822F82958F70482F50E0D9
:103B00004115510581F0F80125834F30510541F0F1
:103B10008F5F982F9295907F822F8F70892B85834E
:103B2000C8010E94D60486E0F801A2E8B3E0019043
:103B30000D928A95E1F757C09D878E878D859E856A
:103B40000E94882881117FCF8091870381608093B4
:103B50008703C8010E94D60446C086E0F501119291
:103B60008A95E9F740C0EE2009F482CF9D878E87C1
:103B70008D859E850E948828F82E882309F478CFA9
:103B800086E0F801A2E8B3E001900D928A95E1F792
:103B900080918203909183030E94EC1A0E94EB1B98
:103BA00022C09D878E878D859E850E94EC1A292FC5
:103BB00022952F70223028F49F7039F0811105C0B2
:103BC0000BC0243028F49F7049F4805E883020F0C8
:103BD000C8010E94D6049F2CF92C05C0F8019581DC
:103BE000907F99F7F9CF8F2D61960FB6F894DEBFCD
:103BF0000FBECDBFDF91CF911F910F91FF90EF903E
:103C0000DF90CF90BF90AF909F9008950F931F9338
:103C100041E050E060E070E08A019B0104C0000FC9
:103C2000111F221F331F8A95D2F7C901B8010E94C4
:103C3000D71B1F910F910C94CE281F93CF93DF9326
:103C4000CDB7DEB767970FB6F894DEBF0FBECDBF16
:103C5000342F4B8B252F5C8B6D8B7E8B8F8B4E89FE
:103C60005F8961111092EE0386E0FE013D96DF014F
:103C7000982F1D929A95E9F73D872E876F87598B6C
:103C8000488BDE01179601900D928A95E1F7CE01DF
:103C900007960E94571C81113EC086E0FE013796B0
:103CA000DE01119601900D928A95E1F7FF81E8857A
:103CB0006A857B856115710531F0EF3F31F481E054
:103CC000FF3F19F403C081E001C080E080FD23C004
:103CD0002091880330E0C9010196877099274091AF
:103CE000B90350E08417950779F1F983EA837D835E
:103CF0006C8396E0929FD001939FB00D1124A7573B
:103D0000BC4FFE01319601900D929A95E1F7809398
:103D100088030E94E11B16E08091B903909188030B
:103D20008917F9F0189FC001112487579C4F0E94F2
:103D3000571C8823B1F08091B90390E001968770F9
:103D400099278093B903E8CF0E94CE281092880368
:103D50001092B903E2E8F3E086E0DF011D928A9554
:103D6000E9F767960FB6F894DEBF0FBECDBFDF91BF
:103D7000CF911F91089520911E0530911F0528179E
:103D8000390771F090931F0580931E05E0911E0383
:103D9000F0911F03309721F00084F185E02D099404
:103DA000089520911C0530911D052817390771F0E1
:103DB00090931D0580931C05E0911E03F0911F0355
:103DC000309721F00680F781E02D09940895E09165
:103DD0001E03F0911F03309721F00190F081E02D38
:103DE000099480E00895CF93DF93CEE9D2E060E0BC
:103DF000CE010E94ED2D2196C11584E0D807B9F7B8
:103E0000DF91CF910895CF92DF92EF92FF920F93BF
:103E10001F93CF93DF93C0E0D0E08E010A561F4F6F
:103E20006E018EE1C80ED11CFE01E35EFA4FE590F3
:103E3000F4906F2DCE018A5B9F4F0E94ED2D6E2D69
:103E4000CE01895B9F4F0E94ED2D2296CC15DD059A
:103E500059F70C171D0721F7E80108351240E9F65C
:103E6000DF91CF911F910F91FF90EF90DF90CF9056
:103E700008950F931F93CF93DF93C42FD0E0CC0FFF
:103E8000DD1F2EE1629FC00DD11D112436E9839FF5
:103E9000C00DD11D1124CA5BDF4FCE010E94CF2D72
:103EA000082F10E0102F0027CE0101960E94CF2D81
:103EB0009801282BC901DF91CF911F910F9108958F
:103EC000462F843038F4753028F46F3018F4672F9B
:103ED0000C94391F80E090E0089583E290E00E9406
:103EE000CF2D813281F484E290E00E94CF2D873083
:103EF00051F485E290E00E94CF2D91E0883209F0E4
:103F000090E0892F01C080E081700895803F39F4EE
:103F100090912B0397FF35C010922B0359C0813F1E
:103F200029F490912B031916BCF32BC090912A030E
:103F3000823F29F497FF25C010922A0349C0833F8E
:103F400019F41916CCF31DC090912C03893F29F464
:103F50001916BCF410922C033BC08A3F19F497FF4A
:103F600010C0F8CF8B3F39F490912D0397FF09C013
:103F700010922D032DC08C3F21F490912D03191622
:103F8000BCF39CE0980F953080F421E030E0A9016B
:103F900002C0440F551F9A95E2F7CA01809590918F
:103FA000290389238093290313C08D3F21F4809135
:103FB00051058E7F0BC08E3F21F4809151058D7F7E
:103FC00005C08F3F29F4809151058B7F8093510567
:103FD00080912A03811106C080912B03811102C0B8
:103FE0001092250380912C03811106C080912D032E
:103FF000811102C01092220308958091510580FF23
:1040000008C06091130170E0759567957595679587
:1040100021C081FF06C06091130170E0759567951E
:1040200019C082FF04C06091130170E010C090912C
:104030002203992399F0609112019617A0F78091BD
:104040001301899FC001112470E00E94882E6038FE
:10405000710540F46115710519F406C061E070E066
:10406000862F08958FE7089581E008958091510586
:1040700080FF0BC06091150185E0689FB00111249D
:1040800075956795759567952BC081FF09C06091FF
:10409000150185E0689FB00111247595679520C0D2
:1040A00082FF07C06091150185E0689FB00111246F
:1040B00017C0909125039923D1F0609114019617B0
:1040C00088F72091150185E0289F90011124929F87
:1040D000A001939F500D112470E0CA010E94882E08
:1040E0006038710540F46115710519F406C065E08A
:1040F00070E0862F08958FE7089581E00895803F4E
:1041000021F40E943620819504C0813F29F40E9449
:10411000362080932B030895823F21F40E9436209D
:10412000819504C0833F29F40E94362080932A039E
:104130000895893F19F40E94FD1F05C08A3F31F49C
:104140000E94FD1F819580932C0308958B3F21F4DD
:104150000E94FD1F819504C08C3F29F40E94FD1F21
:1041600080932D0308959CE0980F953078F421E01A
:1041700030E0A90102C0440F551F9A95E2F7CA0129
:1041800090912903892B8093290308958D3F21F471
:104190008091510581600BC08E3F21F480915105C3
:1041A000826005C08F3F29F480915105846080931F
:1041B00051050895833011F128F4813049F082309F
:1041C00091F00895853081F120F18630C1F1089594
:1041D00080910401681720F4861B809304010895E0
:1041E00010920401089580910501681720F4861B40
:1041F000809305010895109205010895809115019D
:10420000681720F4861B80931501089510921501FC
:10421000089580911401681720F4861B809314017F
:10422000089510921401089580911301681720F4E5
:10423000861B8093130108951092130108958091B5
:104240001201681720F4861B8093120108951092C2
:1042500012010895833081F128F4813059F08230C1
:10426000D1F00895853009F449C0B8F1863009F4D9
:1042700056C0089580910401262F30E0280F311D8B
:104280002F3F310524F4680F6093040108958FEFE8
:1042900080930401089580910501262F30E0280FB6
:1042A000311D2F3F310524F4680F609305010895F7
:1042B0008FEF80930501089580911501262F30E03E
:1042C000280F311D2F3F310524F4680F609315012D
:1042D00008958FEF80931501089580911401262F82
:1042E00030E0280F311D2F3F310524F4680F609313
:1042F000140108958FEF80931401089580911301A4
:10430000262F30E0280F311D2F3F310524F4680F90
:104310006093130108958FEF8093130108958091A6
:104320001201262F30E0280F311D2F3F310524F4D4
:10433000680F6093120108958FEF80931201089522
:10434000482F50E0FA013597EF33F10508F06BC0C4
:10435000E257FF4F0C949C2E0E94D91962C08091A5
:104360002F03817F8E7F80932F0381E08093500500
:1043700008950E94CE282FEF84E39CE021508040D6
:104380009040E1F700C000000E94DD184AC0809113
:104390002F03982F9095917090FB80F980932F03B5
:1043A00091113FC0897F877F10C080912F0381FBCF
:1043B000222720F991E0922790FB81F980932F0327
:1043C000992379F180912F03816080932F0329C075
:1043D00080912F0382FB222720F991E0922790FB06
:1043E00082F9ECCF80912F0383FB222720F991E003
:1043F000922790FB83F9E2CF0E94CE288091A802F9
:1044000087FB222720F991E0922790FB87F9809380
:10441000A80207C0895303C08D5101C080E00E94EB
:10442000061E81E0089580E00895F894E82FE29553
:10443000EF70F0E031A1282F2F7081E090E001C0F3
:10444000880F2A95EAF7982F9095932391A392A12C
:10445000892B82A3789408959091A80292FF0DC0B1
:10446000282F2871283019F4877F846006C0282FF0
:104470002471243011F48B7F886093FF0DC0282FA6
:104480002871283119F4877E846106C0282F247191
:10449000243111F48B7E88612091A90220FF0DC088
:1044A000382F3871383019F4877F816006C0382F73
:1044B0003171313011F48E7F886021FF0DC0282FBB
:1044C0002871283119F4877E816106C0282F217157
:1044D000213111F48E7E886194FD877E08950F93BB
:1044E0001F93CF93DF93C42FD22FFC0182818823A7
:1044F000C9F04093A6020E94361990931B05809341
:104500001A0580E28C0F883008F057C0C77081E030
:1045100001C0880FCA95EAF7DF91CF911F910F91E3
:104520000C94EE288091A602481330C080911A05A1
:1045300090911B050E942719883C910538F510E2DF
:104540001D0FCD17B9F080E28C0F883040F4C77092
:1045500081E001C0880FCA95EAF70E94E32818306D
:1045600028F581E09D2F977001C0880F9A95EAF792
:104570000E94EE28802F0E942F2A1830F0F4D77066
:1045800081E001C0880FDA95EAF70AC080E28C0F5B
:10459000883098F4C77081E001C0880FCA95EAF7A7
:1045A000DF91CF911F910F910C94E328802FDF9121
:1045B000CF911F910F910C942F2ADF91CF911F91D2
:1045C0000F9108950E94361920912A03211104C0E9
:1045D00020912B03222321F090932703809326031D
:1045E00020912C03211104C020912D03222321F0BE
:1045F0009093240380932303E0911E03F0911F0303
:10460000309749F082E0809328030480F581E02D03
:1046100088E293E0099408959F92AF92BF92CF925F
:10462000DF92EF92FF920F931F93CF93DF9305E3F7
:1046300011E0CAEAD2E084EBE82E82E0F82E912C59
:10464000CC24C394D12CB801D8018C91F894E82FD4
:10465000E295EF70F0E021A18F70A60102C0440F37
:10466000551F8A95E2F7CA01922F982B91A392A128
:104670008095892382A3789400C0EAE3F1E020E0EA
:1046800030E0A12CB12C4191842F82958F7090E065
:10469000DC0190968C9190E04F7002C095958795C3
:1046A0004A95E2F780FD08C0C601022E02C0880FBD
:1046B000991F0A94E2F702C080E090E0A82AB92A84
:1046C0002F5F3F4F2F303105F1F60F5F1F4FFB017A
:1046D00080810E941522F0EAFA95F1F7888199818C
:1046E000A816B90621F0B982A88281E001C080E055
:1046F000982A2296EC16FD0609F0A5CF992049F0DC
:1047000081E08093F7030E9436199093F60380931B
:10471000F5038091F703882391F18091F50390913F
:10472000F6030E942719069750F18091AA029091F2
:10473000AB0290933B0380933A038091AC0290913B
:10474000AD0290933D0380933C038091AE02909123
:10475000AF0290933F0380933E038091B00290910B
:10476000B10290934103809340038091B2029091F3
:10477000B30290934303809342031092F703809116
:104780001805882329F068EF73E084E70E942D1450
:104790001092180580911905882329F068E874E0C3
:1047A00087E70E942D141092190560E084E70E94AB
:1047B000AB1361E087E70E94AB13892DDF91CF91A6
:1047C0001F910F91FF90EF90DF90CF90BF90AF902F
:1047D0009F9008951F93CF93DF93CDB7DEB7AA972D
:1047E0000FB6F894DEBF0FBECDBFE7E4F5E08091D1
:1047F000F100819345E0EF34F407C9F78091480553
:10480000833009F462C030F4813071F0823009F4F1
:104810009CC0B3C08A3009F488C08B3009F46DC0E5
:10482000893009F0AAC020C080914705813A09F07B
:10483000A4C08091E800877F8093E80080914B05B9
:1048400090914C05892B21F460E283E295E003C04E
:1048500060E080E090E070E00E94512C8091E800E0
:104860008B778093E80089C080914705813209F0F9
:1048700084C080914B0590914C05009719F00297E8
:1048800009F07BC08091E800877F8093E8008091E9
:10489000E80082FD05C0809145058111F8CF6DC00B
:1048A0002091F3008091F20090E0922B029729F47E
:1048B0008091F1008B7F813021F48091F100809311
:1048C00022058091E8008B7754C080914705813A9A
:1048D00009F053C080914B0590914C05892B09F04C
:1048E0004CC08091E800877F8093E8008091E800C9
:1048F00080FFFCCF8091110137C080914705813244
:10490000E1F580914B0590914C05892BB1F5809193
:10491000E800877F8093E8000E94FD2B8091490585
:10492000809311010E94CE2828C0809147058132D2
:1049300021F58091E800877F8093E8000E94FD2B9D
:1049400080914A058093210518C080914705813ADE
:10495000A1F48091E800877F8093E8008091E800CF
:1049600080FFFCCF809121058093F1008091E800C9
:104970008E778093E8000E94FD2B8091E80083FFF2
:10498000DDC18091470590914805492F50E04A309C
:10499000510508F0D3C1FA01E353FF4F0C949C2E4C
:1049A000803821F0823809F0C9C108C080914305E0
:1049B00090914405992389F082600FC080914B0546
:1049C0008F70873008F0BAC18093E9008091EB00C6
:1049D00085FB882780F91092E9009091E800977F85
:1049E0009093E8008093F1001092F10070C1282F9D
:1049F0002D7F09F0A3C1882319F0823061F09EC198
:104A000080914905813009F099C1933009F080E027
:104A1000809344052EC08091490581112AC0809160
:104A20004B058F702FEF280F263008F087C1809339
:104A3000E9002091EB0020FF1CC0933021F480910D
:104A4000EB00806214C09091EB0090619093EB00BA
:104A500021E030E0A90102C0440F551F8A95E2F71A
:104A60004093EA001092EA008091EB008860809306
:104A7000EB001092E9008091E800877F8093E800C6
:104A80000E94FD2B5BC1811159C1109149051F770F
:104A90008091E3008078812B8093E3008091E8008F
:104AA000877F8093E8000E94FD2B8091E80080FFC3
:104AB000FCCF8091E30080688093E300111102C075
:104AC00082E001C083E08093450538C18058823080
:104AD00008F034C12091490530914A052C3D53E03E
:104AE000350779F583E08A838AE289834FB7F894A2
:104AF000DE01139620E03EE051E2E32FF0E0509318
:104B00005700E49120FF03C0E295EF703F5FEF7024
:104B10008E2F90E0EA3010F0C79601C0C0968D93BA
:104B20009D932F5F243149F74FBF8091E800877F25
:104B30008093E8006AE270E0CE0101960E94512C59
:104B4000B4C080914B0590914C05432F55274330BD
:104B50005105A9F068F44130510509F4FEC0423016
:104B6000510509F0EBC08BE590E0EDE8F8E04BC0B3
:104B70004132510529F14232510589F1DFC0C901A5
:104B8000992781309105A1F058F0029709F0D6C01D
:104B9000EAEFF8E0E4918E2F90E0EAEFF8E030C021
:104BA000E6E1F9E0E4918E2F90E0E6E1F9E028C03B
:104BB000ECE0F9E0E4918E2F90E0ECE0F9E020C029
:104BC0008330910508F0BAC0880F991FFC01E25AA2
:104BD000FD4F0190F081E02D89E090E014C083301A
:104BE000910508F0ABC0FC01EE0FFF1FE85AFD4F26
:104BF0000190F081E02DDC01AB5ABD4F8C9190E02B
:104C0000009709F49BC02091E800277F2093E800DB
:104C100020914D0530914E052817390708F4C90138
:104C200040E0009789F120914505222309F43DC019
:104C30002530D9F12091E80023FD37C02091E8000C
:104C400022FD2FC02091E80020FFEBCF4091F30020
:104C50002091F20030E0342B009759F028303105D4
:104C600040F444914093F100319601972F5F3F4FFC
:104C7000F3CF41E02830310509F040E02091E80011
:104C80002E772093E800CDCF4111CDCF0AC080917F
:104C90004505882351F0853041F08091E80083FD7F
:104CA00004C08091E80082FFF2CF8091E8008B770A
:104CB0008093E80043C0803809F040C08091E8004C
:104CC000877F8093E800809146058093F100809172
:104CD000E8008E77D3CE811131C080914905909143
:104CE0004A059927029754F58091E800877F8093C1
:104CF000E80010914905109346050E94FD2B111103
:104D000006C08091E30087FD02C081E001C084E01D
:104D10008093450542E061EC81E00E941C2C42E258
:104D200061EC84E00E941C2C42E261EC82E00E9473
:104D30001C2C42E260EC83E00E941C2C8091E80075
:104D400083FF10C08091E800877F8093E800809106
:104D5000EB0080628093EB0005C082E190E0E8EE1A
:104D6000F8E051CFAA960FB6F894DEBF0FBECDBFC4
:104D7000DF91CF911F9108951F920F920FB60F925E
:104D800011242F933F934F935F936F937F938F9350
:104D90009F93AF93BF93CF93DF93EF93FF93C09114
:104DA000E900CF708091EC00D82FD17080FDD0E861
:104DB0001092E9008091F000877F8093F000789452
:104DC0000E94EA231092E9008091F00088608093AD
:104DD000F000CD2BCF70C093E900FF91EF91DF91F0
:104DE000CF91BF91AF919F918F917F916F915F9183
:104DF0004F913F912F910F900FBE0F901F901895DC
:104E0000E8EDF0E080818E7F80831092E2001092C6
:104E1000DA001092E100A0EEB0E08C9181608C93FA
:104E200080818F77808319BCA7EDB0E08C918E7F55
:104E30008C9380818F7E8083109220050895CF927D
:104E4000DF92EF92FF920F931F93CF93DF93C8ED02
:104E5000D0E088818F7E8883E7EDF0E080818160FB
:104E6000808384E082BF81E08093200588818E7FEB
:104E7000888302EE10E0F80110821092DA0081EED1
:104E8000C82ED12CF601108288818F778883888183
:104E90008068888388818F7D888319BC109245053E
:104EA00010924605109244051092430590EEE92EAB
:104EB000F12CF70180818B7F8083888181608883DA
:104EC00042E060E080E00E941C2CF60180818E7F31
:104ED0008083F80180818160808380818860808305
:104EE000F70180818E7F8083888180618883DF9154
:104EF000CF911F910F91FF90EF90DF90CF90089589
:104F00001F920F920FB60F9211242F933F934F933E
:104F10005F936F937F938F939F93AF93BF93EF9321
:104F2000FF938091E10082FF09C08091E20082FF3F
:104F300005C08091E1008B7F8093E1008091DA00D1
:104F400080FF2AC08091D80080FF26C08091DA00BF
:104F50008E7F8093DA008091D90080FF18C080E1B5
:104F600089BD82E189BD09B400FEFDCF81E0809357
:104F700045058091200581110FC00E9400270E94E5
:104F80001F278091E20084608093E20005C019BC75
:104F900010924505109220058091E10080FF17C016
:104FA0008091E20080FF13C08091E2008E7F8093A9
:104FB000E2008091E20080618093E2008091D8005D
:104FC00080628093D80019BC85E08093450580916C
:104FD000E10084FF2EC08091E20084FF2AC080E1BE
:104FE00089BD82E189BD09B400FEFDCF8091D80062
:104FF0008F7D8093D8008091E1008F7E8093E100C7
:105000008091E2008F7E8093E2008091E2008160D7
:105010008093E20080914605882311F084E007C068
:105020008091E30087FD02C081E001C083E08093AE
:1050300045058091E10083FF27C08091E20083FF56
:1050400023C08091E100877F8093E10082E080931C
:105050004505109246058091E1008E7F8093E10026
:105060008091E2008E7F8093E2008091E200806177
:105070008093E20042E060E080E00E941C2C80917E
:10508000F00088608093F000FF91EF91BF91AF91A5
:105090009F918F917F916F915F914F913F912F9150
:1050A0000F900FBE0F901F9018952091E400309143
:1050B000E50095E64091EC00842F817040FF23C00D
:1050C0008091E80080FD1DC080914505882399F0FE
:1050D000853099F08091EB0085FD11C04091E4008E
:1050E0005091E5002417350729F3915011F09A01EA
:1050F000E1CF84E0089582E0089583E0089581E09F
:10510000089580E008954091E80042FFDDCF0895C2
:105110000E94EC1A292F2F70E92FE295EF704E2F85
:1051200050E0FA013297EE30F105B8F4E952FF4F42
:105130000C949C2E803F99F018F4883E70F40FC0B8
:10514000843F59F40CC0883E50F0813F31F407C0D1
:10515000822F869586958695089580E0089581E052
:10516000089580E090E00E94D11E80E090E00E94CF
:10517000BB1E1092EE031092ED030E944A1AE8E261
:10518000F3E086E0DF011D928A95E9F7109225038E
:1051900010922203109251050C94E2221092EF0318
:1051A00080911101882331F08091A80287FF02C00D
:1051B0008EE101C086E0E4E6F3E0DF011D928A950E
:1051C000E9F70C94B128882341F080959091EF0382
:1051D00089238093EF030C944A1A0895882339F0A9
:1051E0009091EF03892B8093EF030C944A1A089552
:1051F0008823B1F19CEF980F913A30F4682F82E642
:1052000093E00E946B1914C090E2980F983090F4CC
:10521000877021E030E0A90102C0440F551F8A9534
:10522000E2F7CA0180959091EF0389238093EF0301
:105230000C944A1A9BE5980F933020F480E090E09C
:105240000C94D11E98E5980F973120F480E090E0FF
:105250000C94BB1E803F20F00E94861F0C94E2221B
:105260000895CF93882309F4F8C0C82F8CEF8C0FD2
:10527000813A08F07DC080915005813069F018F0C6
:10528000823021F172C08091EF03823209F0ADC00B
:105290008C2F0E94A021A7C08091EF038232C1F31E
:1052A000C43189F050F4CB3009F498C0C03109F012
:1052B00098C082E08093500591C0C93221F0C83374
:1052C00009F48CC08EC0109250058BC0C932A9F170
:1052D00028F5C43191F1B0F4C73009F0BEC08EE1B9
:1052E0008093040182E3809305018AE08093150195
:1052F00084E18093140188E08093130188E2809315
:105300001201ABC0CE51C63008F0A7C0EC2FF0E0C0
:10531000EC59FD4F808180934F059FC0CE34F9F04A
:1053200028F4CB3409F099C06AE014C0C13581F08B
:10533000C23509F092C061E00DC080914F0588230D
:1053400019F010924F0589C081E08093500585C007
:1053500061E006C080914F05CF910C942A216AE04C
:1053600080914F05CF910C94DA20109250053DC0EA
:1053700080E28C0F883078F4C77081E090E001C043
:10538000880FCA95EAF79091EF03892B8093EF037A
:10539000CF910C944A1AEBE5EC0FE33040F4F0E0C7
:1053A000E259FD4F808190E0CF910C94D11EE8E549
:1053B000EC0FE73150F4F0E0EE0FFF1FEF58FD4F18
:1053C00080819181CF910C94BB1EC03F08F445C0F1
:1053D0008C2F0E947F20CF910C94E22281E081707B
:1053E00002C080E0FCCF811138C080911101882378
:1053F000E1F08091A80287FF18C0EC2FE695E695B2
:10540000E695F0E0EE59FC4F8281282F30E04C2FDA
:10541000477081E090E002C0880F991F4A95E2F73B
:1054200082239323892B61F412C0E4E6F3E08AE639
:1054300093E02191C21721F08E179F07D1F707C083
:105440006C2F82E693E00E946B190E944A1A6C2F1F
:1054500082E693E00E9493199BCFCF9108951F930A
:10546000CF93DF93182F893319F0C0E0D0E002C04A
:10547000C0E5D0E0812F0E943129209741F08FE9CB
:105480009FE00197F1F700C000002197F6CF812F30
:10549000DF91CF911F910C94F8280F931F93809167
:1054A000520590915305A0915405B09155058C017A
:1054B0009D010670112722273327BC01CD0106303C
:1054C00011052105310511F4686001C0677F1F9146
:1054D0000F910C946A1B0F931F93CF93DF93DC0102
:1054E0008C91883009F4ABC0893009F44DC1873004
:1054F00009F050C11196EC9111974E2F50E0FA012E
:105500003797E031F10508F047C1EB51FF4F0C949C
:105510009C2E91E012968C91811101C090E08091B7
:10552000160190FB85F98093160136C112968C9175
:105530008093170131C112968C91809318012CC170
:1055400012968C918093190127C112968C918093A9
:105550001A0122C112968C91129780931B01139607
:105560008C9180931C0118C112968C911297809394
:105570001D0113968C9180931E010EC112968C9181
:10558000129780931F0113968C918093200104C180
:1055900013964C91139712966C9181E291E011C091
:1055A00012968C9112978093220113968C9180937E
:1055B0002301F2C013964C91139712966C9184E2DA
:1055C00091E0DF91CF911F910F910C94AE14129640
:1055D0008C9112978093250113968C9180932601CC
:1055E000DBC013964C91139712966C9187E291E071
:1055F000E8CF12968C9112978093280113968C9184
:1056000080932901C9C013964C91139712966C91FF
:105610008AE291E0D6CFFD013296CBE2D1E0AD0136
:10562000445F5F4F208130E0322F22278181282B79
:105630002993399332964E175F07A1F7ADC0BD018C
:105640006E5F7F4F1196EC9111970E2F10E0F801CD
:105650003197E631F10508F09FC0EB50FF4F0C94F5
:105660009C2E80911601817004C080911601869550
:10567000817012968C9390C08091160182FB8827CE
:1056800080F9F7CF8091160183FB882780F9F1CF4D
:105690008091160182958170ECCF8091160185FB77
:1056A000882780F9E6CF8091160186FB882780F94C
:1056B000E0CF80911701DDCF80911801DACF809182
:1056C0001901D7CF80911A01D4CF80911B01129676
:1056D0008C93129780911C0139C080911D01129604
:1056E0008C93129780911E0131C080911F011296F8
:1056F0008C9312978091200129C0AD014D5F5F4FBF
:10570000809121012BC08091220112968C931297D7
:10571000809123011BC0AD014D5F5F4F809124013B
:105720001DC08091250112968C93129780912601BD
:105730000DC0AD014D5F5F4F809127010FC080917B
:10574000280112968C9312978091290113968C93BD
:1057500023C0AD014D5F5F4F80912A01DF91CF9152
:105760001F910F910C946F14FB01CBE2D1E0AD01BE
:10577000445F5F4F8981808388812296818332963E
:10578000E417F507B9F708C0DF91CF911F910F918A
:105790000C9452148FEF8C93DF91CF911F910F9146
:1057A0000895EF92FF920F931F93CF93DF937C01A5
:1057B0008B010E945528811119C0E70101151105BF
:1057C000A1F08091E80085FD0AC08091E8008E7705
:1057D0008093E8000E945528882381F307C08991AF
:1057E0008093F10001501109E9CF80E0DF91CF9162
:1057F0001F910F91FF90EF9008958091470587FFCB
:1058000011C08091E80082FD05C08091450581119D
:10581000F8CF11C08091E8008B770BC080914505CF
:10582000882349F08091E80080FFF8CF8091E8005C
:105830008E778093E8000895982F973068F59093BD
:10584000E900981739F07091EC002091ED0050912B
:10585000F00003C0242F762F50E021FD02C09F5F8F
:10586000ECCF3091EB003E7F3093EB003091ED00B8
:105870003D7F3093ED003091EB0031603093EB00D1
:105880007093EC002093ED005093F0002091EE0017
:1058900027FDE5CF80E008958F708093E90081E0D7
:1058A000089520914D0530914E052617370748F091
:1058B0006115710539F42091E8002E772093E800F6
:1058C00001C0B901FC0120E06115710579F18091F9
:1058D00045058823F1F18530F1F18091E80083FDE1
:1058E0003CC08091E80082FD2EC08091E80080FFDE
:1058F000EBCF2091F3008091F20090E0922B6115A4
:10590000710551F08830910538F421912093F10010
:10591000615071090196F3CF21E0089709F020E06A
:105920008091E8008E778093E800CECF2111CFCF11
:105930000AC080914505882361F0853061F080912F
:10594000E80083FD0AC08091E80082FFF2CF80E08A
:10595000089582E0089583E0089581E0089510920B
:10596000B9008CE08093B8000895EF92FF920F93F6
:105970001F93CF93DF93182FEB011092BC0084EAA2
:105980008093BC000E9436197C018091BC0087FD89
:105990000EC0CF3F8FEFD807C1F30E9436198E1982
:1059A0009F098C179D0788F38EEF9FEF2EC0809183
:1059B000B900887F883041F08091B900887F8031BC
:1059C00019F08FEF9FEF21C01093BB0084E8809304
:1059D000BC000E9436198C018091BC0087FD0CC070
:1059E000CF3F8FEFD807C1F30E943619801B910B70
:1059F0008C179D0788F3D8CF8091B900887F8831B4
:105A000011F08034F1F680E090E0DF91CF911F91AA
:105A10000F91FF90EF9008950F931F93CF93DF9313
:105A2000EB018093BB0084E88093BC000E94361990
:105A30008C018091BC0087FD0EC0CF3F8FEFD8074F
:105A4000C1F30E943619801B910B8C179D0788F3B8
:105A50008EEF9FEF0CC02091B900287F81E090E08D
:105A6000283211F480E090E0919581959109DF91C1
:105A7000CF911F910F910895CF92DF92EF92FF92F5
:105A80000F931F93CF93DF936B018A017901B901C3
:105A90000E94B52CE6010C0D1D1DC017D10761F445
:105AA00024E92093BC00DF91CF911F910F91FF90CB
:105AB000EF90DF90CF90089597FDF2CFB7018991D5
:105AC0000E940C2DEACF8F929F92AF92BF92CF92FD
:105AD000DF92EF92FF92CF93DF93EC01688179819F
