:100000000C9425030C946C030C946C030C946C03FB
:100010000C946C030C946C030C946C030C946C03A4
:100020000C946C030C946C030C943D240C940F25DD
:100030000C94AA1E0C946C030C946C030C946C032B
:100040000C946C030C946C030C946C030C946C0374
:100050000C946C030C94031F0C946C030C946C03B1
:100060000C946C030C946C030C946C030C946C0354
:100070000C946C030C946C030C946C030C946C0344
:100080000C946C030C946C030C946C030C946C0334
:100090000C946C030C946C030C946C030C946C0324
:1000A0000C946C030C946C030C946C03660C690C3C
:1000B0008A0C9B0CA30CAE0CF40CF40CF40CF40C9A
:1000C000F40CB10CB40CB90CC60CD30CD60CDA0C75
:1000D000E70CE513E5131714171464148214A31521
:1000E000A3158D142215331533159315A315A315D8
:1000F0009C1543164316551655164C16551655168F
:1001000055164316431651165516551651167C258D
:10011000A3259B26A3259B26EF2512269B26692631
:10012000782629001E001F00200021002200230045
:100130002400250026002E002D002700310053004A
:100140005400550056002B0014001A00080015003A
:1001500017001C0018000C00120013002F003000C4
:100160002A005F0060006100570001510400160082
:10017000070009000A000B000D000E000F003300FD
:10018000340028004C005C005D005E005700E10078
:100190001D001B00060019000500110010003600AC
:1001A000370000003800E500520059005A005B009B
:1001B0005800E000E300E200000000002C00000016
:1001C00000000000E6000000E400500051004F0075
:1001D00062006300000035003A003B003C003D0037
:1001E0003E003F0040004100420045004400430003
:1001F000005C010001000100010039000100520013
:10020000010001000100010001004900010001009E
:1002100001000100005C010001000100010001007B
:10022000500051004F0001000100010001000100D9
:100230000100010001000100005C0100010001005B
:1002400001000100010001000100010001000100A6
:100250000100010001000000010001000100010097
:100260000100010001000100010001000000000088
:10027000010000000000000001000000010001007A
:100280000100010001000100000001000100010067
:100290000100010001000100010001000100010056
:1002A0000100010001000100010001000100010046
:1002B00001000100010001000100010001004900EE
:1002C0000100010001000100010001000100010026
:1002D0000100010001000100010001000100010016
:1002E0000100010001000100010001000100010006
:1002F00001000100010001000100010001000100F6
:1003000001000100010001000100000001000100E6
:1003100001000100010001000100010001000100D5
:1003200000000000010000000000000001000000CB
:1003300001000100010001000100010000000100B6
:1003400001000100010001000100010001000100A5
:100350000100010001000100010001000100010095
:100360000100010001000100010001000100010085
:10037000010049000100010001000100010001002D
:100380000100010001000100010001000100010065
:100390000100010001000100010001000100010055
:1003A0000100010001000100010001000100010045
:1003B0000100010001000100010001000100000036
:1003C0000100010001000100010001000100010025
:1003D000010001000000000001000000000000001A
:1003E0000100000001000100010001000100010006
:1003F000000000000000000000002A2B2800000080
:1004000000000000000000000000000000290000C3
:1004100000002C1E3420212224342627252E362DA0
:100420003738271E1F202122232425263333362E3A
:1004300037381F0405060708090A0B0C0D0E0F10AC
:100440001112131415161718191A1B1C1D2F3130F1
:10045000232D350405060708090A0B0C0D0E0F1095
:100460001112131415161718191A1B1C1D2F3130D1
:10047000354C0000000000000000000000000000FB
:10048000000000000000000000000000000000006C
:100490000000000000007E0F00D4FFFFFFC7000037
:1004A00000780E0344006800610072006D00610076
:1004B00000000C03580065006C007500730000001C
:1004C0000403090409025B00030100A0FA09040007
:1004D0000001030101000921110100012240000770
:1004E000058103080001090401000203000000095E
:1004F00021110100012222000705820320000107CB
:1005000005030320000109040200010300000009A3
:10051000211101000122B600070584032000011209
:10052000011001000000084558AADA01000102008C
:10053000010660FF0961A1010962150026FF00950F
:1005400020750881020963150026FF0095207508B3
:100550009102C005010902A10185020901A100055E
:100560000919012908150025019508750181020561
:1005700001093009311581257F9502750881060929
:10058000381581257F950175088106050C0A38020A
:100590001581257F950175088106C0C00501098078
:1005A000A101850319012AB700150126B70095019D
:1005B00075108100C0050C0901A101850419012AEB
:1005C000A002150126A002950175108100C0050149
:1005D0000906A1018505050719E029E71500250190
:1005E0009508750181020507190029EF15002501FD
:1005F00095F0750181020508190129059505750118
:100600009102950175039101C005010906A101053B
:100610000719E029E7150025019508750181029564
:1006200001750881010507190029FF150026FF0043
:1006300095067508810005081901290595057501BC
:100640009102950175039101C00011241FBECFEFE7
:10065000DAE0DEBFCDBF04B603FE27C08091D8022A
:100660009091D902A091DA02B091DB028730904BD1
:10067000A740B04BD1F41092D8021092D902109238
:10068000DA021092DB0214BE84B7877F84BF0FB6F4
:10069000F894A89580916000886180936000109222
:1006A00060000FBEE0E0F8E3099511E0A0E0B1E0E2
:1006B000E0E9FEE402C005900D92AE39B107D9F72A
:1006C00022E0AEE9B1E001C01D92A83DB207E1F71A
:1006D0000E94FE200C9446270C94000081E00895AF
:1006E00081E008950C94700308950C9474031F9393
:1006F000CF93DF9300D000D01F92CDB7DEB74983F0
:100700005A836B833091D70189819A81311114C04A
:10071000662359F0222349F00E947C1B182F682F72
:1007200089819A810E94251B03C00E94501B182FAB
:1007300069817A81812F04C00E947C1B69817A8142
:100740000F900F900F900F900F90DF91CF911F910E
:100750000C94C60DFC01262F40815181628173816A
:1007600084810C947703CF93DF93EC0160E00E94C7
:10077000AA03BE01DF91CF910C9475038F929F92D3
:10078000AF92BF92CF92DF92EF92FF920F931F939F
:100790006B017C0181E090E0A0E0B0E04C015D01E4
:1007A00004C0880C991CAA1CBB1C4A95D2F7AC014A
:1007B000BD0104C0440F551F661F771F2A95D2F74D
:1007C000482959296A297B2904C0880F991FAA1F23
:1007D000BB1F0A95D2F78A019B010C211D212E21F6
:1007E0003F21401751076207730739F4BC01CD015F
:1007F0006C297D298E299F290AC080959095A09506
:10080000B095BC01CD016C217D218E219F211F91CE
:100810000F91FF90EF90DF90CF90BF90AF909F909F
:100820008F9008950F93382F262F60914C0270916E
:100830004D0280914E0290914F02042F432F0E944F
:10084000BE030F910C94611A0E949F070E947E05BF
:100850000C94DF070C94DB0708950E9431160E9468
:100860002C042FEF84E39CE0215080409040E1F77E
:1008700000C000000C94291F0F931F93CF93DF93A8
:100880008C0161E00E94AA03EC01B8010E94150CE2
:10089000882309F444C0B801CE010E947203882362
:1008A000F1F1B801CE010E94FB0E8823C1F1B8011D
:1008B000CE010E944D0F882391F1B801CE010E9414
:1008C0007810882361F1F8018281882309F1CA3503
:1008D0008DE5D807C1F050F4C115FCE5DF0781F0C4
:1008E000CE3DDC45A9F40E948D1D19C0CB35EDE548
:1008F000DE0761F0CC35DD4559F40E940F1C08C0BD
:100900000E942D040CC00E94181C02C00E941B1CD7
:10091000C801DF91CF911F910F910C946E0380E07D
:10092000DF91CF911F910F910895DF92EF92FF9287
:100930000F931F93CF93DF93E82FF0E0EE50FC4F1F
:10094000D490282F26952695269530E0F901EE566D
:10095000FB4F0491877010E0082E02C01595079593
:100960000A94E2F701701127F901EE57FB4FE4906A
:10097000F12C082E02C0F594E7940A94E2F791E076
:10098000E922FF24F901EE58FB4FC491D0E002C0E8
:10099000D595C7958A95E2F7C170DD270115110538
:1009A00019F081EE0E947212E114F10419F086EE42
:1009B0000E9472128D2D0E949B13EF2819F086EE73
:1009C0000E941C13012B19F081EE0E941C13CD2BE9
:1009D00051F08CE2DF91CF911F910F91FF90EF903A
:1009E000DF900C949B13DF91CF911F910F91FF909B
:1009F000EF90DF900895EF92FF920F931F93CF93A4
:100A0000DF93EC01162F0AE08881882309F455C092
:100A1000813009F043C08981813041F47E0182E058
:100A2000E80EF11C8A810E949B1309C0823049F4B0
:100A30007E01E2E0EE0EF11C8A810E947212E70153
:100A40002FC0833041F47E01F2E0EF0EF11C8A8169
:100A50000E941C13F4CF843011F0219621C02A810A
:100A6000229680E090E030E0205331092A303105B1
:100A700058F4089FA001099F500D1124C901840F4B
:100A8000951F21962881EFCF009751F0EFE9FFE005
:100A90003197F1F700C000000197F6CF0E9495044E
:100AA0002196812F882309F4AFCFEFE9FFE031973A
:100AB000F1F700C000008150F5CFDF91CF911F9179
:100AC0000F91FF90EF90089560E00C94FB0408955F
:100AD0000C94670581E00895CF93C82F0E946A05A2
:100AE000882351F0C0FF02C0889A01C08898C1FFD6
:100AF00002C02F9A01C02F98CF910895809A8898AC
:100B0000279A2F980895CF93C82F0E9468058C2F9D
:100B10000E946C05CF91089580E090E008950895BB
:100B2000880F991FFC01EE55FB4F85919491089514
:100B3000CF93DF930E94C60D0E94B006EC01811591
:100B4000904508F041C0C11580E4D80708F0D1C035
:100B5000C83ED10510F5C03ED10508F0FDC0C83A29
:100B6000D10578F4C53AD10508F0A2C0C130D1054D
:100B700009F4F2C008F4EEC0C430D10508F0ECC0AE
:100B8000E9C0CF3BD10508F49BC0C03CD10508F4B7
:100B9000E1C0CE01805C91099EC0C11590E2D907E9
:100BA00058F4C11521E0D20708F0D6C0C03FD105E6
:100BB00008F4D0C0D065D0C0C11580E3D80708F0D4
:100BC0008EC0CE019F7087C0C11595E5D90708F08A
:100BD00043C0C11524E5D20708F0A2C0C11582E5C3
:100BE000D80708F5C11591E5D90708F085C0CE01F1
:100BF00074E0969587957A95E1F783709C2F9370B2
:100C000021E030E002C0220F331F9A95E2F73C68E2
:100C1000382BCF70C695C69580E2C89FE00111249D
:100C2000C22BD32B99C09E01237033278C2F86951E
:100C30008695C115D34508F064C0C1E0D0E002C07C
:100C4000CC0FDD1F2A95E2F720E2829FC00111241C
:100C5000C82BD92BDC6880C0C11529E5D207A0F4C8
:100C6000C11588E5D80708F060C0C11596E5D90719
:100C700008F070C08C2F0E9444078F71C82FD0E0FD
:100C8000DC2FCC27D06268C0C1152AE5D20708F452
:100C900051C0CE0190568115904208F05BC08D2F57
:100CA0008F710E944407DD27D0628F71D82B54C00A
:100CB000C55AD0E0CD5BDE4FC881D0E0D0644CC0D7
:100CC000C85AD0E0CC0FDD1FCB5EDE4F0990D88133
:100CD000C02DD46441C00E949005EC013DC0CE01FE
:100CE0009927D3FF03C0EC01D86C36C0EC01D06C5F
:100CF00033C0DF70D06A30C0DC2FCC27C16FD06A20
:100D00002BC0C1E0D0E002C0CC0FDD1F2A95E2F776
:100D100020E2829FC0011124C82BD92BDA681CC0A5
:100D2000DC2FCC27C46FD06A17C0DC2FCC27C06F54
:100D3000D06A12C08C2F8F700E94440794E0D69521
:100D4000C7959A95E1F7CF70D0E0DC2FCC27D0691A
:100D5000C82B02C0C0E0D0E0CE01DF91CF91089552
:100D60008238910569F1B0F48133910509F46DC0C1
:100D700048F48932910509F463C08A32910509F477
:100D800069C008958533910509F455C089339105EB
:100D9000B9F00895833E910569F138F4803E9105DC
:100DA000B1F0823E910509F10895863E9105A9F1C1
:100DB000873E9105B9F1843E910509F064C023C0D6
:100DC00020919D0220FD4FC021FD4DC008958091CE
:100DD0009D0280FD44C080919E0280FF44C08091AE
:100DE0009D0284FD42C083EE4DC080919D0282FF32
:100DF00038C0F5CF80919D0282FD33C080919E0264
:100E000080FD31C0ECCF80919E0281FF32C0809185
:100E10009D0284FD2AC087EE35C080919D0283FF2C
:100E200026C0F5CF80919D0283FD21C080919E0256
:100E300081FD1FC0ECCF80919D0285FD1CC01DC0AF
:100E400080919D0285FD19C016C080919D0286FD8E
:100E500016C017C080919D0286FD13C010C089E3A3
:100E600011C082EE0FC080EE0DC080E00BC086EE98
:100E700009C084EE07C089E205C085E303C08AE2A9
:100E800001C081E390E0089590919D0292FF0DC012
:100E9000282F2871283019F4877F846006C0282FF6
:100EA0002471243011F48B7F886093FF0DC0282FAC
:100EB0002871283119F4877E846106C0282F247197
:100EC000243111F48B7E886120919E0220FF0DC099
:100ED000382F3871383019F4877F816006C0382F79
:100EE0003171313011F48E7F886021FF0DC0282FC1
:100EF0002871283119F4877E816106C0282F21715D
:100F0000213111F48E7E886194FD877E08950C94C2
:100F1000EF0B0E942E088FE39CE90197F1F700C0C8
:100F200000000E942E0880E00E94C30760FF04C0FA
:100F30000E9487070C94291F08950C9489070E942A
:100F4000E51C811102C00E948D1D0E94F01C80933F
:100F500079020E94F81C90939E0280939D020E9449
:100F60009D070E94F41C682F70E080E090E00E94D2
:100F7000271A60914C0270914D0280914E0290911F
:100F80004F020C945F1A24E0829FC0011124FC01DF
:100F9000ED54FD4F608171818281938108950895A0
:100FA00080EA8A95F1F7089500C008950C94D0075F
:100FB00008950C94D8070C94D9070C94D8070C9476
:100FC000DD07F894E82FE295EF70F0E031A1282FCB
:100FD0002F7081E090E001C0880F2A95EAF7982FE2
:100FE0009095932391A392A1892B82A3789408953D
:100FF0000F931F93CF93DF9380E90E94E10781E96C
:101000000E94E10782E90E94E10783E90E94E1076B
:1010100080E30E94E107C6E4D1E008E511E0899190
:101020000E94E1070C171D07D1F7EFE9F2E0A3EBEF
:10103000B2E011921192119211921D921D921D9285
:101040001D9282E0E33BF807A1F785E00E94E808E3
:10105000DF91CF911F910F910C9424042F923F9216
:101060004F925F926F927F928F929F92AF92BF92B8
:10107000CF92DF92EF92FF920F931F93CF93DF9364
:1010800000D01F92CDB7DEB788E5E82E81E0F82EBC
:101090000FE912E01B830A83198222242394312C46
:1010A000412C512C320143946701F7018081F8945F
:1010B000E82FE295EF70F0E021A18F70810102C06E
:1010C000000F111F8A95E2F7C801922F982B91A368
:1010D00092A18095892382A378940E94D407A6E4E4
:1010E000B1E080E090E0812C912C54015D91E52FDE
:1010F000E295EF70F0E020A130E05F7002C035951E
:1011000027955A95E2F720FD0DC093018201082E24
:1011100004C0000F111F221F331F0A94D2F7B90118
:10112000A80103C040E050E0BA01842A952AA62A0B
:10113000B72A019682319105C9F61FEFE11AF10A2B
:10114000F60180810E94E1070E94D607EA81FB81B7
:1011500080819181A281B38188169906AA06BB0677
:1011600031F080829182A282B38281E001C080E06E
:101170000981082B09830A811B810C5F1F4F1B8388
:101180000A8323EB32E02017310709F08DCF298144
:1011900045E063EB72E08FE992E00E94E9080E946B
:1011A0002A0489810F900F900F90DF91CF911F91AA
:1011B0000F91FF90EF90DF90CF90BF90AF909F90F6
:1011C0008F907F906F905F904F903F902F900895F9
:1011D0000895FF920F931F93CF93DF93F82ED92F8B
:1011E0008B01C42F222349F081E08093A2010E9449
:1011F000DC1E9093A1018093A0018091A20188231D
:10120000F1F08091A0019091A1010E94F41E069737
:10121000B0F0EF2DFD2FD80180E090E04C2F50E092
:101220008417950754F401911191219131910D93F7
:101230001D932D933D930196F3CF1092A201DF9160
:10124000CF911F910F91FF9008958091A90180FF88
:101250000BC06091050185E0689FB0011124759570
:101260006795759567952BC081FF09C06091050151
:1012700085E0689FB00111247595679520C082FFB5
:1012800007C06091050185E0689FB001112417C077
:101290009091A8019923D1F060910401961788F7E5
:1012A0002091050185E0289F90011124929FA001C3
:1012B000939F500D112470E0CA010E94CF26603820
:1012C000710540F46115710519F406C065E070E020
:1012D000862F08958FE7089581E008958091A901F0
:1012E00080FF08C06091010170E075956795759564
:1012F000679521C081FF06C06091010170E075957E
:10130000679519C082FF04C06091010170E010C0B0
:101310009091A701992399F0609100019617A0F789
:1013200080910101899FC001112470E00E94CF26A5
:101330006038710540F46115710519F406C061E06B
:1013400070E0862F08958FE7089581E00895803F2B
:1013500021F40E942509819504C0813F29F40E944F
:1013600025098093AD010895823F21F40E9425094B
:10137000819504C0833F29F40E9425098093AC0124
:101380000895893F19F40E946E0905C08A3F31F41F
:101390000E946E0981958093AE0108958B3F21F4E0
:1013A0000E946E09819504C08C3F29F40E946E0949
:1013B0008093AF0108959CE0980F953078F421E078
:1013C00030E0A90102C0440F551F9A95E2F7CA0107
:1013D0009091AB01892B8093AB0108958D3F21F44F
:1013E0008091A90181600BC08E3F21F48091A901F9
:1013F000826005C08F3F29F48091A90184608093A9
:10140000A9010895803F39F49091AD0197FF35C04F
:101410001092AD0159C0813F29F49091AD01191688
:10142000BCF32BC09091AC01823F29F497FF25C0FB
:101430001092AC0149C0833F19F41916CCF31DC0BA
:101440009091AE01893F29F41916BCF41092AE01B7
:101450003BC08A3F19F497FF10C0F8CF8B3F39F497
:101460009091AF0197FF09C01092AF012DC08C3F42
:1014700021F49091AF011916BCF39CE0980F9530C0
:1014800080F421E030E0A90102C0440F551F9A9575
:10149000E2F7CA0180959091AB0189238093AB015B
:1014A00013C08D3F21F48091A9018E7F0BC08E3F28
:1014B00021F48091A9018D7F05C08F3F29F480918F
:1014C000A9018B7F8093A9018091AC01811106C095
:1014D0008091AD01811102C01092A8018091AE01EE
:1014E000811106C08091AF01811102C01092A70145
:1014F00008950E94DC1E2091AC01211104C02091AE
:10150000AD01222321F09093A6018093A5012091A3
:10151000AE01211104C02091AF01222321F090934C
:10152000A4018093A3018AEA91E00C94D410EF9275
:10153000FF920F931F93CF93DF9300D000D000D082
:10154000CDB7DEB786E0EAEAF1E0DE011196019060
:101550000D928A95E1F7E090AC01F090AD01009119
:10156000AE011091AF011092AC011092AD0110923A
:10157000AE011092AF01E11003C0FF2009F45DC07D
:101580008091A5019091A6010E94F41EAC0190915A
:10159000A801992339F02091060130E0241735077E
:1015A00058F04BC0209107018AE0289F9001112438
:1015B0002417350718F041C09F3F19F09F5F9093A3
:1015C000A801EE2061F00E9425091E1414F09FEF7F
:1015D00001C091E0989F902D11249093AC01FF20C1
:1015E00061F00E9425091F1414F09FEF01C091E0E3
:1015F000989F902D11249093AD013091AC0133232D
:10160000E1F02091AD012223C1F045EB3403C0018C
:101610001124992319F09093AC0103C081E08093C9
:10162000AC0135EB2303C0011124992319F09093E9
:10163000AD0103C081E08093AD01011103C011230E
:1016400009F45DC08091A3019091A4010E94F41E51
:10165000AC019091A701992339F02091020130E06B
:101660002417350758F04BC0209103018AE0289FCA
:10167000900111242417350718F041C09F3F19F03D
:101680009F5F9093A701002361F00E946E091016DE
:1016900014F09FEF01C091E0989F902D112490933A
:1016A000AE01112361F00E946E09111614F09FEF34
:1016B00001C091E0989F902D11249093AF0130913B
:1016C000AE013323E1F02091AF012223C1F045EBBD
:1016D0003403C0011124992319F09093AE0103C083
:1016E00081E08093AE0135EB2303C00111249923DF
:1016F00019F09093AF0103C081E08093AF01809116
:10170000AC0181110BC08091AD01811107C08091A6
:10171000AE01811103C08091AF0181110E94790A4D
:10172000EB82FC820D831E8386E0FE013196AAEADD
:10173000B1E001900D928A95E1F726960FB6F894E4
:10174000DEBF0FBECDBFDF91CF911F910F91FF90F4
:10175000EF900895EAEAF1E086E0DF011D928A95B4
:10176000E9F71092A8011092A7011092A90108951B
:1017700083E290E00E940427813281F484E290E0C9
:101780000E940427873051F485E290E00E940427EC
:1017900091E0883209F090E0892F01C080E08170EB
:1017A0000895CF93C82F811102C06FEF01C061E28D
:1017B00083E290E00E941227C11102C06FEF01C0C6
:1017C00067E084E290E00E941227C11102C06FEF2F
:1017D00001C068E285E290E0CF910C94122780E08E
:1017E0000E94D10B0C94DF1C089586E290E00E94C9
:1017F0000427682F70E080E090E0089586E290E092
:101800000C9412270E94F40B0E94B80B81110CC09B
:1018100060E070E0CB010E94FE0B0E94410D0E942F
:10182000200E81E00C94D10B0895CF93FB01C2816F
:10183000CC23E9F09C0122513F452031310520F4B1
:1018400082510E94300E0CC08031FFE59F0751F499
:1018500081E00E94871A43E062E081E00E94120466
:10186000C0E018C081319F45A9F482E0F2CF8031F9
:10187000EFE59E0711F481E004C081319F4549F4F2
:1018800082E00E94A81A43E062E081E00E94120414
:1018900001C0C1E08C2FCF9108952FEFFC01208370
:1018A0000895EF92FF920F931F93CF93DF93EC0174
:1018B000E62EE8818E2F90E0FC013197E331F105AF
:1018C00008F092C0EA5AFF4F0C94E326198289E08F
:1018D0004EC08981823039F0833061F0813031F53A
:1018E0000E94E81E02C00E94F50B9A838B837C83C2
:1018F0006D837CC08E01F12C8F2D0E94C307F801EF
:10190000828373836483F3940D5F1F4FF5E0FF12AE
:10191000F3CF6CC08981823049F46A817B818C81EC
:101920009D810E94E9260E94FE0B60C06E2DCE01B3
:101930000E944D0C5BC04B816A8189810E94130D0E
:101940009C838D8353C02C813D81322723273227EE
:101950004B816A8189810E942C0D48C00E94410DF3
:1019600045C00E94D30D24C00E94D50D99838A835F
:101970003DC06B8170E089819A81AE014C5F5F4F01
:101980009827892798270E94D80D30C06B8170E076
:1019900089819A81AE014C5F5F4F982789279827EC
:1019A0000E94FD0D23C00E94200E20C00E94000D49
:1019B00089831CC06B8170E089819A81AE014C5F84
:1019C0005F4F9827892798270E94800D0FC06B8151
:1019D00070E089819A81AE014C5F5F4F982789271B
:1019E00098270E94A40D02C08FEF88836E2DCE0130
:1019F000DF91CF911F910F91FF90EF900C94EF1F0B
:101A000084E0089550E0440F551F24E2629F400D8A
:101A1000511D11249A0164EB869F200D311D112464
:101A2000C901879608950F931F93CF93DF930E9468
:101A3000020D8C010E940427C82FD0E0DC2FCC2798
:101A4000C80101960E9404279E01282BC901DF913D
:101A5000CF911F910F9108950F931F93CF93DF9311
:101A6000122F032F0E94020DEC01602F0E941227FB
:101A7000612FCE010196DF91CF911F910F910C94B0
:101A80001227AF92BF92CF92DF92EF92FF920F9305
:101A90001F93CF93DF93A12CE12CF12CB12C00E00C
:101AA00010E0C0E0D0E06701C00ED11EFE01EE0FD5
:101AB000FF1FEC0DFD1DEE5DFE4F259134914C2F67
:101AC0006B2D8A2D0E942C0D2196C231D10571F704
:101AD0000C5D1F4FB39485E0B812E3CF84EBE80EA2
:101AE000F11CA39484E0A812D9CFDF91CF911F916C
:101AF0000F91FF90EF90DF90CF90BF90AF9008953F
:101B0000EF92FF920F931F93CF93DF93EA017A0135
:101B1000E60EF71E8C01C8018796CE15DF0569F029
:101B2000003D22E0120720F40E940427888301C0B0
:101B3000188221960F5F1F4FEECFDF91CF911F913B
:101B40000F91FF90EF900895EF92FF920F931F93E4
:101B5000CF93DF93EA017A01E60EF71E8C01C801EC
:101B60008796CE15DF0559F0003D22E0120718F4E4
:101B700068810E94122721960F5F1F4FF0CFDF91DF
:101B8000CF911F910F91FF90EF900895462F8430D1
:101B900038F4753028F4623118F4672F0C94130D63
:101BA00080E090E0089580E1089589E091E0089553
:101BB000EF92FF920F931F93CF93DF93EA017A0185
:101BC000E60EF71E8C01C80189509D4FCE15DF052A
:101BD00069F0093021E0120720F40E94042788836D
:101BE00001C0188221960F5F1F4FEDCFDF91CF917B
:101BF0001F910F91FF90EF900895EF92FF920F9336
:101C00001F93CF93DF93EA017A01E60EF71E8C0152
:101C1000C80189509D4FCE15DF0559F0093021E0EC
:101C2000120718F468810E94122721960F5F1F4F38
:101C3000EFCFDF91CF911F910F91FF90EF9008951B
:101C4000CF93DF93C7EFD2E060E0CE010E9412276E
:101C50002196C11584E0D807B9F7DF91CF91089597
:101C6000DF92EF92FF920F931F93CF93DF9300D0F9
:101C700000D0CDB7DEB7F82E8FE08F15E8F18FEFEB
:101C800093E00E940427811137C007EF12E0FF2084
:101C900069F0011584E0180779F1C8010E94042752
:101CA000811101C0FA940F5F1F4FF1CF19821A8280
:101CB0001B821C82DD24D39478018FEFE81AF80A86
:101CC000C8010E94042789831A828823A9F09FEF04
:101CD000980F933058F48A83D9820E5F1F4FC70143
:101CE0000E9404278B83882339F07801CE01019666
:101CF0000E9464058701E0CF0F900F900F900F9026
:101D0000DF91CF911F910F91FF90EF90DF90089599
:101D10000F931F93CF93DF93C42FD22FFC018281A7
:101D20008823C9F04093B2010E94DC1E9093B10158
:101D30008093B00180E28C0F883008F057C0C770E4
:101D400081E001C0880FCA95EAF7DF91CF911F911A
:101D50000F910C94A4138091B201481330C080916C
:101D6000B0019091B1010E94F41E883C910538F5B4
:101D700010E21D0FCD17B9F080E28C0F883040F4CF
:101D8000C77081E001C0880FCA95EAF70E94AB13C3
:101D9000183028F581E09D2F977001C0880F9A9523
:101DA000EAF70E94A413802F0E949B131830F0F4CE
:101DB000D77081E001C0880FDA95EAF70AC080E2A7
:101DC0008C0F883098F4C77081E001C0880FCA95E5
:101DD000EAF7DF91CF911F910F910C94AB13802FF5
:101DE000DF91CF911F910F910C949B13DF91CF91B5
:101DF0001F910F9108950F939C01CB01233F4CE558
:101E0000340731F188F4283DFCE53F07D9F0293D3E
:101E10004CE5340779F1273D3C45A9F506E221EE72
:101E200041EE67ED7CE52BC0253FFCE53F07E1F087
:101E3000A8F0263F3C4539F507E225EE46EE66EF71
:101E40007CE51DC007E225EE45EE68ED7CE517C098
:101E500006E221EE40EE63EF7CE511C007E225EEDD
:101E600044EE64EF7CE50BC006E221EE42EE65EF46
:101E70007CE505C008E221E045EE69ED7CE50E94C5
:101E8000880E80E008C0FC018281882319F010923E
:101E9000B20101C081E00F910895CF93DF93EC016F
:101EA000FB018281882309F41FC1C230FCE5DF07F2
:101EB00008F41BC1C6319CE5D90738F09E012A5FA2
:101EC0003C452930310508F010C10E94F81C909360
:101ED0009E0280939D02C031ECE5DE0709F4C3C089
:101EE00008F041C0C8308CE5D80709F49AC0F0F476
:101EF000C430ECE5DE0709F487C068F4C2308CE535
:101F0000D80709F477C0C330DC4509F0E3C08091FD
:101F10009D02826076C0C630ECE5DE0709F46EC033
:101F200008F07BC080919D0288606BC0CC308CE54E
:101F3000D80709F485C068F4CA30ECE5DE0709F477
:101F400074C008F079C00E94311680919D028068AB
:101F500058C0CE308CE5D80709F476C008F07FC0B1
:101F600080919D028BC0CB3FECE5DE0709F44FC0AA
:101F700018F5C3318CE5D80709F47DC078F4C13178
:101F8000ECE5DE0709F473C0C231DC4509F0A2C0FC
:101F90000E94311680919D028F7733C0C5318CE548
:101FA000D80709F472C008F486C0CA3FDC4509F0BE
:101FB00091C080919E023EC0CF3FFCE5DF0709F44F
:101FC0005FC058F4CD3F9CE5D90709F444C008F43C
:101FD0003FC080919E0282602DC0C130FDE5DF07C9
:101FE00009F475C008F45DC0C230DD4509F072C067
:101FF00080E06EC080919D02816003C080919D024F
:10200000806180939D0266C080919D0211C0809185
:102010009E02826080939E025DC080919D028062DC
:10202000F0CF80919D028064ECCF80919D0288600A
:102030008460E7CF8160EECF80919D028E7FE1CFFB
:1020400080919D028D7FDDCF80919D02877FD9CFCA
:1020500080919E0218C080919E028D7FDBCF80917F
:102060009D028F7ECECF80919D028F7DCACF8091C1
:102070009D028F7BC6CF80919D02877F8B7FC1CFD2
:1020800080919E028D7F8E7FC5CF80919D0282FBC5
:10209000222720F991E0922790FB82F990FB83F9A7
:1020A000B0CF80919E02982F909591708E7F892B52
:1020B00090FB81F9AFCF0E94311680919D0287FB82
:1020C000222720F991E0922790FB87F99ACF81E0AF
:1020D0000E948F1D80919D0290919E020E94091D79
:1020E0000E94311680E001C081E0DF91CF91089518
:1020F000CF93DF9386319C4541F5EB010E941E1C76
:10210000982F8A812091080130910901882379F064
:102110009A7A81E009F480E08093B301911102C0C2
:1021200069E201C065E3C9010E942A1E0AC08091CC
:10213000B301811102C069E201C065E3C9010E94D7
:10214000351E0E94701C80E001C081E0DF91CF91BC
:1021500008959093B9018093B8010895E091B80172
:10216000F091B901309721F00190F081E02D0994B0
:1021700080E00895E091B801F091B901309799F0AD
:1021800020911401222359F020919D0227FF07C0BE
:10219000DC012C9111962C93119725E02C93028051
:1021A000F381E02D09940895E091B801F091B9010F
:1021B000309739F022E0DC012C930480F581E02D8A
:1021C000099408952091B6013091B7012817390775
:1021D00071F09093B7018093B601E091B801F0914E
:1021E000B901309721F00680F781E02D0994089518
:1021F0002091B4013091B5012817390771F09093FF
:10220000B5018093B401E091B801F091B901309724
:1022100021F00084F185E02D099408950E94E81EC4
:102220006093D3017093D4018093D5019093D6012C
:102230006093CF017093D0018093D1019093D2012C
:10224000089585B7806885BF85B7806885BF089584
:1022500081E008950C94281108950C942C110C948D
:102260002C110C942F110C942C110C9433110C94F0
:102270002C110E9421118DED9CE10E944D1F0E94A6
:1022800037110C9435110E942D110C942C110E94C1
:10229000D31E0E94F8070E94020CEDE9F2E0808153
:1022A0008068808380919D0290919E020E94091D0A
:1022B0000C9431113F924F925F926F927F928F9266
:1022C0009F92AF92BF92CF92DF92EF92FF920F93C5
:1022D0001F93CF93DF93CDB7DEB72C970FB6F8944B
:1022E000DEBF0FBECDBF0E942E0881110E940E11CD
:1022F0008BEB91E09C878B8710E0312C812F0E9423
:10230000C3072B013C01EB85FC8580809180A28076
:10231000B38086269726A826B92681149104A104A5
:10232000B10409F44DC08091790281FD0E94CF076C
:1023300000E0C12CD12C7601C394D501C4018C21BD
:102340009D21AE21BF21892B8A2B8B2B89F10E94E5
:102350002A118823D9F00E831F8321E0D301C20103
:102360008C219D21AE21BF21892B8A2B8B2B09F437
:1023700020E028870E94DC1E8160782F9A87898759
:102380004E815F8168858A850E943812EB85FC85C5
:1023900080819181A281B3818C259D25AE25BF25A9
:1023A00080839183A283B3833394F3E0F31518F110
:1023B0000F5FCC0CDD1CEE1CFF1C023109F0BDCF01
:1023C0001F5F8B859C8504969C878B87153009F051
:1023D00095CF311010C08FEF89838A831B820E94B2
:1023E000DC1E8160782F9D838C8349815A816B81AB
:1023F0008D810E9438120E94970A0E94AE1090911F
:10240000BA018917E9F00E94AE108093BA012C96A8
:102410000FB6F894DEBF0FBECDBFDF91CF911F91F5
:102420000F91FF90EF90DF90CF90BF90AF909F9073
:102430008F907F906F905F904F903F900C948305AA
:102440002C960FB6F894DEBF0FBECDBFDF91CF91B3
:102450001F910F91FF90EF90DF90CF90BF90AF90C2
:102460009F908F907F906F905F904F903F900895D6
:10247000DF92EF92FF920F931F93CF93DF93CDB72D
:10248000DEB72B970FB6F894DEBF0FBECDBFF42E8C
:10249000052F162FE72ED82E61110E943E1CFE013B
:1024A000319686E0DF011D928A95E9F77E2D4F2D4A
:1024B000502F612F8D2D9E810E94EA182B960FB60A
:1024C000F894DEBF0FBECDBFDF91CF911F910F916A
:1024D000FF90EF90DF900895FC01808191810E9430
:1024E000BE1B0895CF93882309F4A4C0C82F823857
:1024F000C1F40E94AE1081FD9DC069E38091080186
:10250000909109010E942A1E0E94701C2FEF81EEFB
:1025100094E0215080409040E1F700C0000069E362
:1025200019C0833801F50E94AE1080FD83C063E5B9
:1025300080910801909109010E942A1E0E94701C3E
:102540002FEF81EE94E0215080409040E1F700C0F1
:10255000000063E580910801909109010E94351EF9
:10256000CF910C94701C8438C1F40E94AE1082FD8F
:1025700061C067E480910801909109010E942A1EC0
:102580000E94701C2FEF81EE94E02150804090401B
:10259000E1F700C0000067E4DDCF8CEF8C0F813ADB
:1025A000D0F46C2F80910801909109010E94AA1D1E
:1025B000882349F06C2F80910801909109010E94B5
:1025C000351E0E94701C6C2F8091080190910901AA
:1025D0000E942A1EC5CF80E28C0F883048F4C77055
:1025E00081E001C0880FCA95EAF70E94211CB8CF8C
:1025F000EBE5EC0FE33040F4F0E0E557FE4F80816F
:1026000090E0CF910C94E210E8E5EC0FE73150F444
:10261000F0E0EE0FFF1FE35AFE4F80819181CF91D2
:102620000C94F810C03F30F08C2F0E94A709CF9176
:102630000C94790ACF910895882309F464C08238F4
:1026400079F40E94AE1081FF5EC069E380910801B9
:10265000909109010E942A1E0E94701C69E310C01B
:102660008338B1F40E94AE1080FF4DC063E58091C5
:102670000801909109010E942A1E0E94701C63E5C6
:1026800080910801909109010E94351E0C94701CE4
:10269000843879F40E94AE1082FF35C067E48091DF
:1026A0000801909109010E942A1E0E94701C67E493
:1026B000E7CF9CEF980F913A10F4682FE1CF90E2AA
:1026C000980F983050F4877091E001C0990F8A9567
:1026D000EAF7892F0E94271CD9CF9BE5980F9330EA
:1026E00020F480E090E00C94E21098E5980F973188
:1026F00020F480E090E00C94F810803F20F00E94DD
:10270000020A0C94790A08951F93CF93DF93182F30
:10271000EB010E947212209741F08FE99FE0019730
:10272000F1F700C000002197F6CF812FDF91CF9104
:102730001F910C941C13893319F060E070E002C003
:1027400060E570E00C948413882321F00E94211C22
:102750000C94701C0895882321F00E94271C0C946F
:10276000701C0895CF92DF92EF92FF920F931F9308
:10277000CF93DF937C01062FC72FFC01D2811581F7
:1027800012951F700E94F61B882399F0DD2389F0B3
:102790008C2F807F803421F080E2800F883048F0D9
:1027A00082E00E94C01C0E94F61B91E0D82ED92620
:1027B00001C0D12CCC2EC2948FE0C8228C2D90E089
:1027C000FC01E759FF4F0C94E3268C2F807FCF70DC
:1027D000882311F0C295C07FDD2399F0CC2309F442
:1027E0008DC180E2800F883010F0011104C08C2F61
:1027F0000E94211C03C08C2F0E94311C0E94701C5F
:102800007DC1802F0E941C13CC2309F49CC180E25F
:10281000800F883010F0011104C08C2F0E94271CFB
:1028200003C08C2F0E94371C0E94701C8CC18C2FFF
:10283000807FCF70803211F0C295C07F002319F0E5
:102840000130C9F022C0DD2371F0112341F01130B5
:1028500031F40E94511C8C2B0E94591C74C10E949F
:10286000511C8C2B1DC0112319F0113009F46BC1C0
:102870000E94661C25C0DD2321F0163008F063C1DC
:102880000EC0153008F05FC11BC0DD2361F01123BD
:1028900031F0F701858180FF31C18F7085838C2FE6
:1028A0000E94A41350C1112359F0093309F037C114
:1028B000FFEF27EE83E0F15020408040E1F72DC18B
:1028C0008C2F0E94AB133FC18C2F86958695837009
:1028D00019F0813061F037C1DD2321F0802F9C2F6A
:1028E000937002C080E090E00E94E21034C1DD23CA
:1028F00021F0802F9C2F937002C080E090E00E9416
:10290000F81029C1802FDD2319F00E94A70902C009
:102910000E94020A0E94790A1EC18C2F837009F05E
:1029200045C0D11114C1402F429546954770440FC0
:10293000440F602F6F70862F90E0A0E0B0E0042E6F
:1029400004C0880F991FAA1FBB1F0A94D2F704FF67
:1029500010C00FE010E020E030E004C0000F111FB5
:10296000221F331F4A95D2F7009510952095309578
:1029700003C000E010E09801C695C695C370BC0185
:10298000CD01602B712B822B932BC23049F058F470
:10299000C13019F00E943B1ADAC00E94291AD7C030
:1029A0000E944D1AD4C00E94271AD1C0DD2319F00D
:1029B0008C2F817001C08695882309F4C8C0402FF0
:1029C000429546954770440F440F602F6F70862FD5
:1029D00090E0A0E0B0E0042E04C0880F991FAA1F69
:1029E000BB1F0A94D2F704FF10C00FE010E020E0F4
:1029F00030E004C0000F111F221F331F4A95D2F789
:102A0000009510952095309503C000E010E09801E6
:102A1000C695C695C370BC01CD01602B712B822B6E
:102A2000932BC23049F058F4C13019F00E94001BBA
:102A30008EC00E94EE1A8BC00E94121B88C00E949A
:102A4000611A85C0CF70DD2339F08C2F0E94871A60
:102A5000802F0E94A4137BC0802F0E94AB138C2F69
:102A60000E94A81A74C0023F01F128F4003F41F00F
:102A7000013FA1F03FC0033FF9F0043F39F13AC0F4
:102A8000DD2341F0153008F05EC08C2F8F710E945D
:102A9000CD1A59C0163008F056C0F7CFDD2339F0F3
:102AA0008C2F8F710E94871A4EC0DD23C9F38C2FA3
:102AB0008F710E94A81A47C0DD2329F08C2F8F71D7
:102AC0000E94721A40C00E946D1A3DC0DD2349F079
:102AD000CF718C2F0E94871A63E08C2F0E94A51C57
:102AE00032C081E00E94C01C123068F182E00E9476
:102AF000C01C29C0DD2331F0112391F2802F0E94E8
:102B0000721221C0112399F2093349F49FEFE7EEC5
:102B1000F3E09150E040F040E1F700C00000802F6A
:102B20000E941C1310C04C2F4F70602FC7010E94D1
:102B30008C050E9498190FC04C2F4F70602FC70151
:102B40000E948F0508C088EF8C0D843020F40E940D
:102B5000AE100E948305DD20C9F00E94F21B80FDAB
:102B600015C0F70112820E94EC1B0E94871AC70150
:102B70000E94E7150E94EC1BDF91CF911F910F91EE
:102B8000FF90EF90DF90CF900C94A81ADF91CF9137
:102B90001F910F91FF90EF90DF90CF9008950F93CA
:102BA0001F93CF93DF93EC01688179818A810E9422
:102BB000C91B8C010E94241B0E94151AB801CE016A
:102BC0000E94B213DF91CF911F910F910895CF937F
:102BD000DF93EC01988189812B813C81232B31F09B
:102BE0008F3F31F481E09F3F19F403C081E001C0C1
:102BF00080E080FD19C0CE010E943C0481110CC010
:102C00000E94F61B882381F08A81882369F082E084
:102C1000DF91CF910C94C01CCE010E94CF15CE0144
:102C2000DF91CF910C94B303DF91CF91089580E0B1
:102C300090E00E94E21080E090E00E94F8100E9474
:102C40003E1C0E944E1C0E94701C0E94AA0B0C94F9
:102C5000790A80910801909109010E94401E0C940C
:102C600017160E942E1C0C942916E92FE295EF707E
:102C70004E2F50E0FA013297EE30F105B0F4E758EC
:102C8000FF4F0C94E326803F91F018F4883E68F4DF
:102C90000EC0843F51F40BC0883E48F0813F29F4B8
:102CA00006C093FB882780F9089580E0089581E0AD
:102CB00008950E94BE1B0E9435160895CF93DF939E
:102CC00000D000D01F92CDB7DEB70F900F900F90BD
:102CD0000F900F90DF91CF910895CF93DF9300D0A5
:102CE00000D000D0CDB7DEB726960FB6F894DEBF81
:102CF0000FBECDBFDF91CF9108951F93CF93DF9388
:102D0000C091D80116E08091D901C81799F0D0E0A0
:102D10001C9FF0011D9FF00D1124E652FE4F4081D3
:102D2000518162817381848195810E946D16219603
:102D3000C770E9CFDF91CF911F91089540910A02AA
:102D400050910B0260910C0270910D0280910E0265
:102D500090910F020C946D160F931F93CF93DF93F6
:102D600080910F0282958F7009F05DC080910C02F6
:102D7000882309F458C08091D8011091D90160913D
:102D80000A0270910B02C0910D02D0910E0291E0E7
:102D90006F3F09F090E0292F06E0811709F443C046
:102DA000209721F07F3F21F030E003C031E001C0E7
:102DB000322F90E030FD34C0089FF001099FF00DE4
:102DC0001124DF01A652BE4F11963C911197371383
:102DD00027C03C91361324C012963C9112973111B2
:102DE0001FC013964D915C9114974C1B5D0B483C92
:102DF0005105B0F480910F028F70806180930F02B3
:102E0000E152FE4F80818F70806180838AE092E082
:102E10000E94E715DF91CF911F910F910C947D16C1
:102E200001968770BACFDF91CF911F910F910895CE
:102E30009F92AF92BF92CF92DF92EF92FF920F9349
:102E40001F93CF93DF93CDB7DEB761970FB6F8949A
:102E5000DEBF0FBECDBF8C0185E0F801DE011D96FF
:102E600001900D928A95E1F7F80140815181E2804D
:102E700090910A0260910B0220910D0230910E0296
:102E80002115310531F06F3F31F481E09F3F19F496
:102E900003C081E001C080E0F82FF1709F2E80FD1B
:102EA00046C1F801A380B4808AE0C82E82E0D82E03
:102EB000F0900C02F501E21BF30BFF2009F4DFC0D8
:102EC00080910F02E83CF10508F09BC0282F207F7D
:102ED00009F052C0561313C0491311C0FE2CE11063
:102EE0000EC08F70806180930F020E949E16C601F3
:102EF0000E94E71580910F02F801858358C1AB2825
:102F000031F05F3F31F481E04F3F19F403C081E0BD
:102F100001C080E080FD03C081E08E2502C080E01A
:102F200090E0F82FF170FF2E80FF1CC08091D80137
:102F30002091D90136E0821709F417C190E0389F3B
:102F4000F001399FF00D1124E652FE4F61815613B6
:102F500006C06081461303C06281E61203C0019679
:102F60008770E9CFFE2CEE2009F421C180910F0279
:102F7000816080930F025AC0561306C0491304C0E3
:102F8000E11002C0F8019FC04D875E878D859E8548
:102F90000E945916882379F1EE2069F120910F02E1
:102FA000822F82958F7090E0029774F080910A02D0
:102FB00090910B0298878F831986BB86AA862C87EF
:102FC000CE0107960E94E71586E0F801AAE0B2E07C
:102FD00001900D928A95E1F70E94AC160E949E1610
:102FE0000DC0561729F14D875E878D859E850E94FD
:102FF000591681112CC0C8010E94E715FF24F394D3
:10300000D6C0282F207F69F77A2DB98AA88A6E2D1D
:1030100089890E945E168AE092E00E94E71586E0A8
:10302000F60111928A95E9F70E949E16F12CBFC015
:103030004913D9CFE110D7CFF8018583C8010E9489
:10304000E71586E0F60111928A95E9F7B0C0EE2007
:1030500091F220910F02822F82958F7090E002975B
:103060000CF4B2CF80910A0290910B029A8389836B
:103070001B82BD82AC822E83CE010196A3CFE83C99
:10308000F10508F047C0FE2CEE2009F4B4CF56132A
:1030900030C049132EC020910F0220FD21C0822F85
:1030A00082958F70482F50E041155105C9F0F80105
:1030B00025834F30510541F08F5F982F9295907F77
:1030C000822F8F70892B8583C8010E94E71586E0C7
:1030D000F801AAE0B2E001900D928A95E1F742C0B2
:1030E00086E0F801AAE0B2E001900D928A95E1F73E
:1030F0005EC04D875E878D859E850E945916811121
:1031000063CF80910F02816080930F02C8010E94FB
:10311000E7154DC07A2DB98AA88A6E2D89890E943B
:103120005E1686E0F60111928A95E9F71BC0EE2043
:1031300009F461CF4D875E878D859E850E94591663
:10314000F82E882309F457CF86E0F801AAE0B2E010
:1031500001900D928A95E1F78AE092E00E946C124C
:103160000E94AC160E949E1622C04D875E878D85F8
:103170009E850E94BE1B292F22952F70223028F495
:103180009F7039F0811105C00BC0243028F49F7066
:1031900049F4805E883020F0C8010E94E7159F2C1A
:1031A000F92C05C0F8019581907F99F7F9CF8F2D03
:1031B00061960FB6F894DEBF0FBECDBFDF91CF9101
:1031C0001F910F91FF90EF90DF90CF90BF90AF9045
:1031D0009F9008951F93CF93DF93CDB7DEB72C97C1
:1031E0000FB6F894DEBF0FBECDBF4F8358876987F7
:1031F0007A878B879C87CE0107960E9418178823B1
:10320000D1F09F8188852A853B85232B31F08F3F24
:1032100031F481E09F3F19F403C081E001C080E0F8
:1032200080FD47C04F81588569857A858B859C854F
:103230000E946D163EC086E0FE013796DE011196B3
:1032400001900D928A95E1F7FF81E8856A857B857B
:103250006115710531F0EF3F31F481E0FF3F19F462
:1032600003C081E001C080E080FD23C02091D9012E
:1032700030E0C9010196877099274091D80150E04C
:1032800084179507F1F1F983EA837D836C8396E0D7
:10329000929FD001939FB00D1124A652BE4FFE0104
:1032A000319601900D929A95E1F78093D9010E9491
:1032B0007D1616E08091D8019091D901891771F19E
:1032C000189FC001112486529E4F0E941817882310
:1032D00029F1E091D8011E9FF0011124E652FE4F22
:1032E0004081518162817381848195810E946D1634
:1032F0008091D80190E00196877099278093D8013A
:10330000D9CF0E9431161092D9011092D801EAE06B
:10331000F2E086E0DF011D928A95E9F72C960FB660
:10332000F894DEBF0FBECDBFDF91CF911F910895FE
:10333000EF92FF920F931F93CF93DF938C01892B12
:1033400009F46CC0F12CEE24E394E8012196F80115
:103350008491843740F4843008F051C0813081F08A
:10336000823019F15BC0853709F444C0A8F19CE7AD
:10337000980F903708F052C08F770E941C1341C0FD
:103380000E5F1F4FFE01849190E2980F983050F429
:103390008770FE2D01C0FF0F8A95EAF78F2F0E94DC
:1033A000411C14C00E9472122DC00E5F1F4FFE01FF
:1033B000849190E2980F983060F48770FE2D01C0E0
:1033C000FF0F8A95EAF78F2F0E94471C0E94701CFE
:1033D00019C00E941C1316C00E5F1F4FFE01C4913E
:1033E000CC2381F08FE99FE00197F1F700C0000046
:1033F000C150F6CF0E5F1F4FFE01F49003C00E9434
:1034000072128E018F2D882309F49FCFEFE9FFE020
:103410003197F1F700C000008150F5CFDF91CF91D7
:103420001F910F91FF90EF900895089508950C94C7
:10343000161A0C94171A0E94191A6093500270936E
:10344000510280935202909353020C9417160C94DD
:103450001B1A0F931F93009150021091510220915B
:10346000520230915302602B712B822B932B1F91B0
:103470000F910C941B1A0F931F93009150021091FF
:103480005102209152023091530260237123822312
:1034900093231F910F910C941B1A0F931F9300916C
:1034A0005002109151022091520230915302602734
:1034B0007127822793271F910F910C941B1A0C944C
:1034C000161A0E945F1A60934C0270934D0280930B
:1034D0004E0290934F020C94171660E070E0CB01FF
:1034E0000C94611A0F931F9341E050E060E070E08C
:1034F0008A019B0104C0000F111F221F331F8A95F0
:10350000D2F7C901B8011F910F910C94611A0F9362
:103510001F9341E050E060E070E004C0440F551F8D
:10352000661F771F8A95D2F780914C0290914D02C9
:10353000A0914E02B0914F028A019B01082B192BDA
:103540002A2B3B2BC901B8011F910F910C94611AD2
:103550000F931F9341E050E060E070E004C0440F1F
:10356000551F661F771F8A95D2F740955095609535
:10357000709580914C0290914D02A0914E02B091B5
:103580004F028A019B01082319232A233B23C901E7
:10359000B8011F910F910C94611A0F931F9341E092
:1035A00050E060E070E004C0440F551F661F771FB5
:1035B0008A95D2F780914C0290914D02A0914E02D3
:1035C000B0914F028A019B01082719272A273B2720
:1035D000C901B8011F910F910C94611A0F931F93A9
:1035E00000914C0210914D0220914E0230914F02F9
:1035F000602B712B822B932B1F910F910C94611ACE
:103600000F931F9300914C0210914D0220914E0296
:1036100030914F0260237123822393231F910F91D6
:103620000C94611A0F931F9300914C0210914D025C
:1036300020914E0230914F026027712782279327F5
:103640001F910F910C94611A089522E1929F800DB1
:103650001124E82FE695E695E695877051E001C0C4
:10366000550F8A95EAF785E0E89FF0011124E05FA5
:10367000FD4F20E030E070E04081CB01022E02C01F
:10368000969587950A94E2F7817081958427852322
:10369000842781932F5F3F4F2530310569F70895C7
:1036A00022E1929F800D1124682F6695669566959C
:1036B000982F977085E0689FB001112440E050E09A
:1036C00080E0FB01E40FF51FE05FFD4F208130E05B
:1036D000092E02C0369527950A94E2F72170332708
:1036E000042E01C0220F0A94EAF7822B4F5F5F4F2E
:1036F0004530510531F70895BF92CF92DF92EF9296
:10370000FF920F931F93CF93DF938C01C0904C02D5
:10371000D0904D02E0904E02F0904F028091500206
:1037200090915102A0915202B0915302C82AD92A15
:10373000EA2AFB2ACFE1D0E0D701C6010C2E04C053
:10374000B695A795979587950A94D2F780FD04C002
:10375000219790F7B12C07C0BC2EB8018C2F0E9486
:1037600098050197A9F38B2DDF91CF911F910F91B0
:10377000FF90EF90DF90CF90BF900895CF93DF93AD
:10378000EC010E947C1BBE010E949805DF91CF9145
:1037900008951F93CF93DF93EB019091D701992365
:1037A00021F0CB010E94BE1B13C0882349F0CB013E
:1037B0000E947C1B182F682FCE010E94251B04C07D
:1037C000CB010E94501B182FBE01812F0E9498052B
:1037D000DF91CF911F910895809154028595859531
:1037E00085950895809154028770089590915402B0
:1037F000977081E009F480E0089590919E0292FB19
:10380000222720F9281751F080FB92F990939E020D
:1038100080919D0290919E020C94091D08958091C3
:103820009E0282FB882780F991E089270C94FD1B7A
:1038300081E00C94FD1B80E00C94FD1B80917802CC
:10384000089590917802892B80937802089580954D
:1038500090917802892380937802089510927802DB
:10386000089590917702892B80937702089580952F
:1038700090917702892380937702089510927702BE
:10388000089590917602892B809376020895809511
:1038900090917602892380937602089510927602A1
:1038A000089580915502089508950C94541C0C9429
:1038B000551C90919E0292FD08C090915502981758
:1038C00021F0809355020C94571C08958091550265
:1038D000882329F01092550280E00C94571C08951B
:1038E000E0910801F0910901809178028083E091D4
:1038F0000801F0910901908180917702892B8083E2
:10390000E0910801F0910901908180917602892B64
:10391000808380915502882381F0E0910801F09125
:1039200009019081892B8083809108019091090180
:103930000E94941D81110E94661C80910801909143
:1039400009010C94BA100C94541C90919E0292FDA3
:1039500010C098E0899F90011124262B20935402D7
:103960000E94871A809154028595859585950C94BF
:10397000A31C0C94871A1092540280E00C94A31C90
:10398000209154028095822380935402982F97703F
:1039900041F430E0482F082E000C550B2417350752
:1039A00021F490919E0292FF07C08595859585959B
:1039B0000E94A81A0C94BB1C089580E008956FEF34
:1039C0007FEF80E090E00C94302780E090E00E9450
:1039D0000C2721E08A3E9E4F09F020E0822F0895B7
:1039E00082E090E00C94042783E090E00C9404279C
:1039F000CF9384E090E00E940427C82F82E290E0F9
:103A00000E9404272C2F30E0A901582BCA01CF9126
:103A10000895CF93C92F682F84E090E00E94122769
:103A20006C2F82E290E0CF910C941227AB01BC0185
:103A30008FE090E00C942427AB01BC0183E190E07F
:103A40000C94242760E070E0CB010C941C1D60E016
:103A500070E0CB010E94161D0C94221D6AEE7EEFD1
:103A600080E090E00E94302760E082E090E00E94D9
:103A7000122760E083E090E00E941227109250022B
:103A800010925102109252021092530260E084E0B0
:103A900090E00E94122760E082E290E00E941227EC
:103AA00060E085E090E00E94122760E086E090E010
:103AB0000E9412276FEF87E090E00E94122740E0FB
:103AC00050E0BA0188E090E00E94242760E08DE099
:103AD00090E00E94122740E050E0BA0188E190E0B7
:103AE0000E94242760E087E190E00E94122740E0D6
:103AF00050E0BA018CE190E00E94242760E070E081
:103B000080E290E00E94302740E050E0BA0188E176
:103B100090E00E9424270C94271D0C942E1D682FE2
:103B20008EE090E00C941227FC01329680911401F3
:103B3000882331F080919D0287FF02C09EE101C081
:103B400096E080E0915028F021912223D9F38F5FF5
:103B5000F9CF0895662351F1209114012223E9F051
:103B600020919D0227FF19C0462F46954695469500
:103B70004E31E0F4677021E030E002C0220F331FC5
:103B80006A95E2F7FC01E40FF11D828190E02823A1
:103B9000392381E0232B69F409C0FC013296089691
:103BA0002191621729F0E817F907D1F780E008950D
:103BB00081E008959C01FC0132969FEF80E04191E5
:103BC000461789F09F3F19F4411101C0982F8F5F6C
:103BD0008630A9F79F3F39F0F901E90FF11D97FDF4
:103BE000FA956283089508959C012A5F3F4FFC0176
:103BF0004281461301C01282019682179307B9F7DA
:103C00000895262F2695269526952E3168F4FC01D9
:103C1000E20FF11D677021E030E001C0220F6A95CC
:103C2000EAF78281282B22830895262F2695269550
:103C300026952E3170F4FC01E20FF11D677021E032
:103C400030E001C0220F6A95EAF72095828128238F
:103C50002283089520911401222329F020919D02AE
:103C600027FD0C94011E0C94DA1D209114012223CF
:103C700029F020919D0227FD0C94151E0C94F41D33
:103C800020911401FC013296222331F080919D0293
:103C900087FF02C08EE101C086E0DF011D928A9598
:103CA000E9F7089508950C94521E0C94521ECF9378
:103CB0000E94551E0E942E080E94531EC0E08C2FA9
:103CC0000E94C307672B682B692B29F4CF5FC5308F
:103CD000B1F780E001C081E0CF9108950C94521EAD
:103CE0000C946E1E8091CF02843049F10E94701EA8
:103CF00080E00E94830510927A0220E488E190E03F
:103D00000FB6F894A895809360000FBE20936000D2
:103D100083B7817F846083BF83B7816083BF7894DA
:103D2000889583B78E7F83BF0FB6F894A89580914E
:103D30006000886180936000109260000FBE08955B
:103D40000C94521E0E9431160E94AE100E948305F0
:103D50000C94A01E1F920F920FB60F9211248F93F6
:103D60009F93AF93BF9380917A02811113C080918A
:103D7000C7029091C802A091C902B091CA024196AF
:103D8000A11DB11D8093C7029093C802A093C902E0
:103D9000B093CA02BF91AF919F918F910F900FBEC8
:103DA0000F901F90189582E084BD93E095BD9AEF27
:103DB00097BD80936E0008952FB7F8948091C70245
:103DC0009091C802A091C902B091CA022FBF089574
:103DD0002FB7F8946091C7027091C8028091C90210
:103DE0009091CA022FBF08959C014FB7F89480911B
:103DF000C7029091C802A091C902B091CA024FBFF8
:103E0000821B930B089578941F920F920FB60F9216
:103E100011248F939F93AF93BF938091C70290918A
:103E2000C802A091C902B091CA020196A11DB11D9C
:103E30008093C7029093C802A093C902B093CA02AC
:103E4000BF91AF919F918F910F900FBE0F901F90D8
:103E5000189581E08093E00080E28093D800109272
:103E6000C9008FE19EE40197F1F700C0000087E0F0
:103E700090EBDC018093D8029093D902A093DA02F0
:103E8000B093DB029CE088E10FB6F894A89580938C
:103E900060000FBE90936000FFCF90939F018093CE
:103EA0009E01089580919B020895CF93DF9300D0E7
:103EB0001F92CDB7DEB79091CF02943011F5898370
:103EC0007B836A839093E9008FEF9091E8008150A3
:103ED00095FD06C095ED9A95F1F700008111F5CF9B
:103EE0008091E80085FF0DC040E050E063E070E0A5
:103EF000CE0101960E94E6218091E8008E778093A2
:103F0000E8000F900F900F90DF91CF910895BC01C2
:103F100084E00C94551FBC0183E00C94551F24E0F1
:103F20002093E9002FEF3091E800215035FD06C0C5
:103F300035ED3A95F1F700002111F5CF2091E80019
:103F400025FF0BC040E050E066E070E00E94E621F3
:103F50008091E8008E778093E8000895CF93DF93F7
:103F600020911401222339F020919D0227FF03C0E4
:103F700060E224E002C068E021E02093E9002FEF36
:103F80003091E800215035FD06C035ED3A95F1F746
:103F900000002111F5CF2091E80025FF1DC0EC01A4
:103FA00080911401811105C040E050E068E070E0AC
:103FB00003C070E040E050E0CE010E94E621809115
:103FC000E8008E778093E80080E2FE01ABE7B2E084
:103FD00001900D928A95E1F7DF91CF910895CF93EB
:103FE000603219F52091CF022430F9F4C091E90034
:103FF000CF703091EC00232F217030FD20E8C22BD0
:1040000022E02093E9002091E80020FF0BC040E06F
:1040100050E060E270E00E94E6218091E8008E7737
:104020008093E800CF70C093E900CF91089580910C
:10403000CE02811109C00E94C2230E941F248091D8
:10404000E20084608093E20008951092CE02089509
:1040500008950895089542E061EC81E00E943B23B9
:1040600042E261EC84E00E943B2342E261EC82E0A8
:104070000E943B2342E260EC83E00C943B2380915E
:10408000D102833009F462C030F4813071F08230A3
:1040900009F49BC008958A3009F487C08B3009F475
:1040A0006DC0893009F0A9C020C08091D002813A4A
:1040B00009F0A3C08091E800877F8093E800809199
:1040C000D4029091D502892B21F460E28BE792E033
:1040D00003C060E080E090E070E00E947C2280916C
:1040E000E8008B778093E80008958091D0028132B8
:1040F00009F083C08091D4029091D502009719F005
:10410000029709F07AC08091E800877F8093E800E9
:104110008091E80082FD05C08091CF028111F8CF27
:104120006CC02091F3008091F20090E0922B0297F6
:1041300029F48091F1008B7F813021F48091F1008E
:1041400080939B028091E8008B7753C08091D002CE
:10415000813A09F052C08091D4029091D502892B06
:1041600009F04BC08091E800877F8093E800809140
:10417000E80080FFFCCF8091140136C08091D0020E
:104180008132D9F58091D4029091D502892BA9F57D
:104190008091E800877F8093E8000E9470238091DF
:1041A000D202809314010C9431168091D002813296
:1041B00021F58091E800877F8093E8000E947023BA
:1041C0008091D30280939C0208958091D002813A1D
:1041D000A1F48091E800877F8093E8008091E80057
:1041E00080FFFCCF80919C028093F1008091E800D9
:1041F0008E778093E8000C94702308951F93CF93DB
:10420000DF93CDB7DEB7A0970FB6F894DEBF0FBE31
:10421000CDBF84B7877F84BF0FB6F894A8958091EF
:104220006000886180936000109260000FBE90E093
:1042300080E80FB6F89480936100909361000FBE00
:104240000E9439110E94C2230E941F248091E20023
:1042500084608093E20078940E94B4260E94471103
:104260008AE091E00E94A91013E08091CF0285308E
:10427000A9F48091CF02853079F40E94721E80915A
:10428000CD028823B1F30E94571E882391F30E9428
:10429000D0210E943116EDCF0E94A21E0E945A1119
:1042A0008091CF02843009F51093E9008091E800F5
:1042B00082FF1BC08091E80085FF0AC040E050E00B
:1042C00060E270E0CE0101960E94312291E001C0CF
:1042D00090E08091E8008B778093E800992329F0A3
:1042E00060E2CE0101960E94510C0E944311BDCFA5
:1042F0000C947A21292F332723303105C9F060F43B
:104300002130310581F02230310509F041C08BE5C3
:1043100090E024EC34E040C021323105E1F022325B
:10432000310531F135C082E190E02FE135E034C054
:1043300099278130910549F028F0029749F5E2EA82
:10434000F4E005C0E0ECF4E002C0E2EBF4E08491BC
:1043500090E09F0121C063307105D0F4660F771F94
:10436000FB01E956FE4F2081318189E090E014C0C5
:104370006330710568F4FB01EE0FFF1FEF56FE4F2F
:1043800020813181FB01E257FE4F808190E004C023
:1043900080E090E020E030E0FA013183208308954E
:1043A00080E189BD82E189BD09B400FEFDCF809125
:1043B000D8008F7D8093D8008091E0008260809348
:1043C000E0008091E00081FDFCCF0895CF92DF9264
:1043D000EF92FF920F931F93CF93DF93EC018B012A
:1043E0007A010E948F23811133C0E114F10439F066
:1043F000F70180819181081B190BC80FD91FC12CAF
:10440000D12C0115110519F18091E80085FD16C028
:104410008091E8008E778093E800E114F10449F080
:10442000F70180819181C80ED91ED182C08285E0BA
:104430000FC00E948F23882321F30AC089918093A3
:10444000F10001501109FFEFCF1ADF0ADACF80E047
:10445000DF91CF911F910F91FF90EF90DF90CF9060
:104460000895CF92DF92EF92FF920F931F93CF9315
:10447000DF93EC018B017A010E948F23811133C0FD
:10448000E114F10439F0F70180819181081B190BC7
:10449000C80FD91FC12CD12C0115110519F180911C
:1044A000E80085FD16C08091E8008B778093E800D6
:1044B000E114F10449F0F70180819181C80ED91E01
:1044C000D182C08285E00FC00E948F23882321F310
:1044D0000AC08091F100899301501109FFEFCF1AB2
:1044E000DF0ADACF80E0DF91CF911F910F91FF902B
:1044F000EF90DF90CF9008952091D6023091D702AF
:104500002617370748F06115710539F42091E80046
:104510002E772093E80001C0B901FC0120E061156D
:10452000710579F18091CF028823F1F18530F1F1A5
:104530008091E80083FD3CC08091E80082FD2EC0A0
:104540008091E80080FFEBCF2091F3008091F20092
:1045500090E0922B6115710551F08830910538F487
:1045600021912093F100615071090196F3CF21E070
:10457000089709F020E08091E8008E778093E800AA
:10458000CECF2111CFCF0AC08091CF02882361F016
:10459000853061F08091E80083FD0AC08091E800D9
:1045A00082FFF2CF80E0089582E0089583E00895CD
:1045B00081E008952091D6023091D702261737075F
:1045C00048F06115710539F42091E8002E772093A9
:1045D000E80001C0B901FC0120E06115710591F10D
:1045E0008091CF02882309F440C0853009F43FC090
:1045F0008091E80083FD3DC08091E80082FD2FC0DE
:104600008091E80080FFE9CF2091F3008091F200D3
:1046100090E0922B6115710559F08830910540F4B6
:1046200024912093F1003196615071090196F2CFE7
:1046300021E0089709F020E08091E8008E778093D0
:10464000E800CBCF2111CCCF0AC08091CF028823C4
:1046500061F0853061F08091E80083FD0AC08091AF
:10466000E80082FFF2CF80E0089582E0089583E0C1
:10467000089581E00895982F973068F59093E900A8
:10468000981739F07091EC002091ED005091F000F6
:1046900003C0242F762F50E021FD02C09F5FECCF96
:1046A0003091EB003E7F3093EB003091ED003D7F89
:1046B0003093ED003091EB0031603093EB0070935C
:1046C000EC002093ED005093F0002091EE0027FDC8
:1046D000E5CF80E008958F708093E90081E0089530
:1046E0008091D00287FF11C08091E80082FD05C053
:1046F0008091CF028111F8CF11C08091E8008B77B3
:104700000BC08091CF02882349F08091E80080FFA0
:10471000F8CF8091E8008E778093E800089520918B
:10472000E4003091E50095E64091EC00842F817023
:1047300040FF23C08091E80080FD1DC08091CF0222
:10474000882399F0853099F08091EB0085FD11C0A8
:104750004091E4005091E5002417350729F391506A
:1047600011F09A01E1CF84E0089582E0089583E09A
:10477000089581E0089580E008954091E80042FFA7
:10478000DDCF08950E9430240E943824E0EEF0E04E
:10479000808181608083E8EDF0E080818F77808385
:1047A00019BCA7EDB0E08C918E7F8C9380818F7EB9
:1047B00080831092CE0208950F931F93CF93DF93BF
:1047C0000E9430240E943824C8EDD0E088818F7781
:1047D000888388818068888388818F7D888319BCDD
:1047E0001092CF021092CB021092CD021092CC0206
:1047F00000EE10E0F80180818B7F808388818160EA
:10480000888342E060E080E00E943B23E1EEF0E03C
:1048100080818E7F8083E2EEF0E080818160808302
:10482000808188608083F80180818E7F8083888189
:1048300080618883DF91CF911F910F910895E8EDFA
:10484000F0E080818F7E8083E7EDF0E08081816001
:10485000808384E082BF81E08093CE020C94DC23CD
:10486000E8EDF0E080818E7F80831092E200089571
:104870001092DA001092E10008951F920F920FB685
:104880000F9211242F933F934F935F936F937F93D6
:104890008F939F93AF93BF93EF93FF938091E1002A
:1048A00082FF0BC08091E20082FF07C08091E1008F
:1048B0008B7F8093E1000E94B3268091DA0080FF15
:1048C0001FC08091D80080FF1BC08091DA008E7FCE
:1048D0008093DA008091D90080FF0DC080E189BD0E
:1048E00082E189BD09B400FEFDCF81E08093CF0253
:1048F0000E94172005C019BC1092CF020E942520EB
:104900008091E10080FF19C08091E20080FF15C016
:104910008091E2008E7F8093E2008091E2008061CE
:104920008093E2008091D80080628093D80019BC07
:1049300085E08093CF020E9429208091E10084FFCE
:1049400030C08091E20084FF2CC080E189BD82E10B
:1049500089BD09B400FEFDCF8091D8008F7D809382
:10496000D8008091E1008F7E8093E1008091E20089
:104970008F7E8093E2008091E20081608093E2006C
:104980008091CB02882311F084E007C08091E3007E
:1049900087FD02C081E001C083E08093CF020E94C6
:1049A0002A208091E10083FF29C08091E20083FFEB
:1049B00025C08091E100877F8093E10082E08093B1
:1049C000CF021092CB028091E1008E7F8093E100B4
:1049D0008091E2008E7F8093E2008091E20080610E
:1049E0008093E20042E060E080E00E943B238091FF
:1049F000F00088608093F0000E942820FF91EF91E2
:104A0000BF91AF919F918F917F916F915F914F91E6
:104A10003F912F910F900FBE0F901F9018951F92EE
:104A20000F920FB60F9211242F933F934F935F93E2
:104A30006F937F938F939F93AF93BF93CF93DF93A6
:104A4000EF93FF93C091E900CF708091EC00D82FD5
:104A5000D17080FDD0E81092E9008091F000877F4E
:104A60008093F00078940E9453251092E900809181
:104A7000F00088608093F000CD2BCF70C093E900E8
:104A8000FF91EF91DF91CF91BF91AF919F918F9166
:104A90007F916F915F914F913F912F910F900FBE3A
:104AA0000F901F9018951F93CF93DF93CDB7DEB76C
:104AB000AA970FB6F894DEBF0FBECDBFE0EDF2E0CF
:104AC0008091F100819322E0E83DF207C9F70E944E
:104AD0003F208091E80083FF2EC18091D002909109
:104AE000D102492F50E04A30510508F024C1FA01A3
:104AF000E957FF4F0C94E326803821F0823809F003
:104B00001AC108C08091CC029091CD02992389F0FE
:104B100082600FC08091D4028F70873008F00BC183
:104B20008093E9008091EB0085FB882780F9109243
:104B3000E9009091E800977F9093E8008093F1005E
:104B40001092F100D1C0282F2D7F09F0F4C08823E6
:104B500019F0823061F0EFC08091D202813009F00B
:104B6000EAC0933009F080E08093CD022EC080919E
:104B7000D20281112AC08091D4028F702FEF280FAA
:104B8000263008F0D8C08093E9002091EB0020FF88
:104B90001CC0933021F48091EB00806214C090918E
:104BA000EB0090619093EB0021E030E0A90102C09E
:104BB000440F551F8A95E2F74093EA001092EA00ED
:104BC0008091EB0088608093EB001092E900809167
:104BD000E800877F8093E8000E947023ACC08111B9
:104BE000AAC01091D2021F778091E3008078812BB8
:104BF0008093E3008091E800877F8093E8000E9423
:104C000070238091E80080FFFCCF8091E3008068F2
:104C10008093E300111102C082E001C083E0809321
:104C2000CF0289C08058823008F085C08091D202BE
:104C30009091D3028C3D53E0950779F583E08A8308
:104C40008AE289834FB7F894DE01139620E03EE0B4
:104C500051E2E32FF0E050935700E49120FF03C0AE
:104C6000E295EF703F5FEF708E2F90E0EA3010F02A
:104C7000C79601C0C0968D939D932F5F243149F74D
:104C80004FBF8091E800877F8093E8006AE270E080
:104C9000CE0101960E947C2216C06091D4027091D0
:104CA000D502AE014F5F5F4F0E947821BC01892B76
:104CB00009F441C09091E800977F9093E8008981C2
:104CC0009A810E94DA228091E8008B778093E80035
:104CD00032C0803881F58091E800877F8093E800BA
:104CE0008091CB028093F1008091E8008E7772CFA3
:104CF000811121C08091D2029091D302992702970D
:104D0000D4F48091E800877F8093E8008091D202FC
:104D10008093CB020E9470238091CB02811106C048
:104D20008091E30087FD02C081E001C084E08093B0
:104D3000CF020E942B208091E80083FF0AC080915F
:104D4000E800877F8093E8008091EB008062809389
:104D5000EB00AA960FB6F894DEBF0FBECDBFDF9171
:104D6000CF911F9108950895CF938091CF0288230A
:104D7000A1F0C091E900CF709091EC00892F817073
:104D800090FD80E8C82B1092E9008091E80083FD37
:104D90000E945325CF70C093E900CF91089597FBEF
:104DA000072E16F4009407D077FD09D00E94F02654
:104DB00007FC05D03EF4909581959F4F089570951E
:104DC00061957F4F0895EE0FFF1F0590F491E02D40
:104DD00009946927962769277827872778270895D0
:104DE000AA1BBB1B51E107C0AA1FBB1FA617B70711
:104DF00010F0A61BB70B881F991F5A95A9F780952D
:104E00009095BC01CD010895F999FECF92BD81BD69
:104E1000F89A992780B50895A8E1B0E042E050E003
:104E20000C943827262FF999FECF92BD81BDF89AB0
:104E3000019700B4021639F01FBA20BD0FB6F894DE
:104E4000FA9AF99A0FBE08950396272F0E94132706
:104E50000E941227252F0E941327242F0C9413271A
:104E60000196272F0E9413270C941227DC01CB01F7
:104E7000FC01F999FECF06C0F2BDE1BDF89A31966A
:104E800000B40D9241505040B8F70895F894FFCF08
:104E90002808641E140A321E5602521FAE1F8F1FAE
:104EA0008B1F871F01E200E900EA00B500B600B7DA
:104EB00000CD008301CC008A0192019401210223DC
:104EC0000224022502260227022A02B300B4006F40
:104ED0000070008182833332319594C696973435C1
:104EE000366667F7F6F5F4F19091929330E200E9B7
:104EF00000EA00B500B600B700CD008301CC008AFF
:104F00000192019401210223022402250226022794
:104F1000022A02B300B4006F007000818283402235
:0E4F2000B6090631055305D604EF040F05004F
:00000001FF
